{
	"src/NFTPool.sol": {
		"NFTPool": {
			"abi": [
				{
					"inputs": [],
					"stateMutability": "nonpayable",
					"type": "constructor"
				},
				{
					"inputs": [],
					"name": "NoGovernor",
					"type": "error"
				},
				{
					"inputs": [],
					"name": "NotBelongToUser",
					"type": "error"
				},
				{
					"inputs": [
						{
							"internalType": "address",
							"name": "owner",
							"type": "address"
						}
					],
					"name": "OwnableInvalidOwner",
					"type": "error"
				},
				{
					"inputs": [
						{
							"internalType": "address",
							"name": "account",
							"type": "address"
						}
					],
					"name": "OwnableUnauthorizedAccount",
					"type": "error"
				},
				{
					"inputs": [],
					"name": "ReentrancyGuardReentrantCall",
					"type": "error"
				},
				{
					"anonymous": false,
					"inputs": [
						{
							"indexed": false,
							"internalType": "address",
							"name": "collection",
							"type": "address"
						},
						{
							"indexed": false,
							"internalType": "uint256",
							"name": "tokenId",
							"type": "uint256"
						}
					],
					"name": "DepositeNFT",
					"type": "event"
				},
				{
					"anonymous": false,
					"inputs": [
						{
							"indexed": true,
							"internalType": "address",
							"name": "previousOwner",
							"type": "address"
						},
						{
							"indexed": true,
							"internalType": "address",
							"name": "newOwner",
							"type": "address"
						}
					],
					"name": "OwnershipTransferStarted",
					"type": "event"
				},
				{
					"anonymous": false,
					"inputs": [
						{
							"indexed": true,
							"internalType": "address",
							"name": "previousOwner",
							"type": "address"
						},
						{
							"indexed": true,
							"internalType": "address",
							"name": "newOwner",
							"type": "address"
						}
					],
					"name": "OwnershipTransferred",
					"type": "event"
				},
				{
					"anonymous": false,
					"inputs": [
						{
							"indexed": false,
							"internalType": "address",
							"name": "collection",
							"type": "address"
						},
						{
							"indexed": false,
							"internalType": "uint256",
							"name": "tokenId",
							"type": "uint256"
						},
						{
							"indexed": false,
							"internalType": "address",
							"name": "to",
							"type": "address"
						}
					],
					"name": "WithdrawNFTPrize",
					"type": "event"
				},
				{
					"inputs": [],
					"name": "acceptOwnership",
					"outputs": [],
					"stateMutability": "nonpayable",
					"type": "function"
				},
				{
					"inputs": [
						{
							"components": [
								{
									"internalType": "address",
									"name": "collection",
									"type": "address"
								},
								{
									"internalType": "uint256",
									"name": "tokenId",
									"type": "uint256"
								},
								{
									"internalType": "uint256",
									"name": "weight",
									"type": "uint256"
								},
								{
									"internalType": "bool",
									"name": "claimed",
									"type": "bool"
								}
							],
							"internalType": "struct VaultNFT",
							"name": "vaultNft",
							"type": "tuple"
						}
					],
					"name": "depositeNFT",
					"outputs": [],
					"stateMutability": "nonpayable",
					"type": "function"
				},
				{
					"inputs": [],
					"name": "governor",
					"outputs": [
						{
							"internalType": "address",
							"name": "",
							"type": "address"
						}
					],
					"stateMutability": "view",
					"type": "function"
				},
				{
					"inputs": [
						{
							"internalType": "address",
							"name": "",
							"type": "address"
						},
						{
							"internalType": "uint256",
							"name": "",
							"type": "uint256"
						}
					],
					"name": "isInPool",
					"outputs": [
						{
							"internalType": "bool",
							"name": "",
							"type": "bool"
						}
					],
					"stateMutability": "view",
					"type": "function"
				},
				{
					"inputs": [],
					"name": "owner",
					"outputs": [
						{
							"internalType": "address",
							"name": "",
							"type": "address"
						}
					],
					"stateMutability": "view",
					"type": "function"
				},
				{
					"inputs": [],
					"name": "pendingOwner",
					"outputs": [
						{
							"internalType": "address",
							"name": "",
							"type": "address"
						}
					],
					"stateMutability": "view",
					"type": "function"
				},
				{
					"inputs": [],
					"name": "renounceOwnership",
					"outputs": [],
					"stateMutability": "nonpayable",
					"type": "function"
				},
				{
					"inputs": [],
					"name": "totalNfts",
					"outputs": [
						{
							"internalType": "uint256",
							"name": "",
							"type": "uint256"
						}
					],
					"stateMutability": "view",
					"type": "function"
				},
				{
					"inputs": [
						{
							"internalType": "address",
							"name": "newOwner",
							"type": "address"
						}
					],
					"name": "transferOwnership",
					"outputs": [],
					"stateMutability": "nonpayable",
					"type": "function"
				},
				{
					"inputs": [
						{
							"internalType": "address",
							"name": "",
							"type": "address"
						},
						{
							"internalType": "uint256",
							"name": "",
							"type": "uint256"
						}
					],
					"name": "userListOfPrizes",
					"outputs": [
						{
							"internalType": "address",
							"name": "",
							"type": "address"
						}
					],
					"stateMutability": "view",
					"type": "function"
				},
				{
					"inputs": [
						{
							"internalType": "uint256",
							"name": "index",
							"type": "uint256"
						},
						{
							"components": [
								{
									"internalType": "address",
									"name": "collection",
									"type": "address"
								},
								{
									"internalType": "uint256",
									"name": "tokenId",
									"type": "uint256"
								}
							],
							"internalType": "struct WithdrawNFT",
							"name": "withdrawNft",
							"type": "tuple"
						}
					],
					"name": "withdrawNFT",
					"outputs": [],
					"stateMutability": "nonpayable",
					"type": "function"
				}
			],
			"devdoc": {
				"errors": {
					"OwnableInvalidOwner(address)": [
						{
							"details": "The owner is not a valid owner account. (eg. `address(0)`)"
						}
					],
					"OwnableUnauthorizedAccount(address)": [
						{
							"details": "The caller account is not authorized to perform an operation."
						}
					],
					"ReentrancyGuardReentrantCall()": [
						{
							"details": "Unauthorized reentrant call."
						}
					]
				},
				"kind": "dev",
				"methods": {
					"acceptOwnership()": {
						"details": "The new owner accepts the ownership transfer."
					},
					"depositeNFT((address,uint256,uint256,bool))": {
						"params": {
							"vaultNft": "NFT信息"
						}
					},
					"owner()": {
						"details": "Returns the address of the current owner."
					},
					"pendingOwner()": {
						"details": "Returns the address of the pending owner."
					},
					"renounceOwnership()": {
						"details": "Leaves the contract without owner. It will not be possible to call `onlyOwner` functions. Can only be called by the current owner. NOTE: Renouncing ownership will leave the contract without an owner, thereby disabling any functionality that is only available to the owner."
					},
					"transferOwnership(address)": {
						"details": "Starts the ownership transfer of the contract to a new account. Replaces the pending transfer if there is one. Can only be called by the current owner. Setting `newOwner` to the zero address is allowed; this can be used to cancel an initiated ownership transfer."
					}
				},
				"version": 1
			},
			"evm": {
				"assembly": "    /* \"src/NFTPool.sol\":376:2446  contract NFTPool is INFTPool, Ownable2Step, ReentrancyGuard {... */\n  mstore(0x40, 0x80)\n    /* \"src/NFTPool.sol\":711:777  constructor() Ownable(msg.sender) {... */\n  callvalue\n  dup1\n  iszero\n  tag_1\n  jumpi\n  revert(0x00, 0x00)\ntag_1:\n  pop\n    /* \"src/NFTPool.sol\":733:743  msg.sender */\n  caller\n    /* \"lib/openzeppelin-contracts/contracts/access/Ownable.sol\":1297:1298  0 */\n  0x00\n    /* \"lib/openzeppelin-contracts/contracts/access/Ownable.sol\":1273:1299  initialOwner == address(0) */\n  0xffffffffffffffffffffffffffffffffffffffff\n  and\n    /* \"lib/openzeppelin-contracts/contracts/access/Ownable.sol\":1273:1285  initialOwner */\n  dup2\n    /* \"lib/openzeppelin-contracts/contracts/access/Ownable.sol\":1273:1299  initialOwner == address(0) */\n  0xffffffffffffffffffffffffffffffffffffffff\n  and\n  sub\n    /* \"lib/openzeppelin-contracts/contracts/access/Ownable.sol\":1269:1364  if (initialOwner == address(0)) {... */\n  tag_6\n  jumpi\n    /* \"lib/openzeppelin-contracts/contracts/access/Ownable.sol\":1350:1351  0 */\n  0x00\n    /* \"lib/openzeppelin-contracts/contracts/access/Ownable.sol\":1322:1353  OwnableInvalidOwner(address(0)) */\n  mload(0x40)\n  0x1e4fbdf700000000000000000000000000000000000000000000000000000000\n  dup2\n  mstore\n  0x04\n  add\n  tag_7\n  swap2\n  swap1\n  tag_8\n  jump\t// in\ntag_7:\n  mload(0x40)\n  dup1\n  swap2\n  sub\n  swap1\n  revert\n    /* \"lib/openzeppelin-contracts/contracts/access/Ownable.sol\":1269:1364  if (initialOwner == address(0)) {... */\ntag_6:\n    /* \"lib/openzeppelin-contracts/contracts/access/Ownable.sol\":1373:1405  _transferOwnership(initialOwner) */\n  tag_9\n    /* \"lib/openzeppelin-contracts/contracts/access/Ownable.sol\":1392:1404  initialOwner */\n  dup2\n    /* \"lib/openzeppelin-contracts/contracts/access/Ownable.sol\":1373:1391  _transferOwnership */\n  shl(0x20, tag_10)\n    /* \"lib/openzeppelin-contracts/contracts/access/Ownable.sol\":1373:1405  _transferOwnership(initialOwner) */\n  0x20\n  shr\n  jump\t// in\ntag_9:\n    /* \"lib/openzeppelin-contracts/contracts/access/Ownable.sol\":1225:1412  constructor(address initialOwner) {... */\n  pop\n    /* \"lib/openzeppelin-contracts/contracts/utils/ReentrancyGuard.sol\":1857:1858  1 */\n  0x01\n    /* \"lib/openzeppelin-contracts/contracts/utils/ReentrancyGuard.sol\":2061:2068  _status */\n  0x02\n    /* \"lib/openzeppelin-contracts/contracts/utils/ReentrancyGuard.sol\":2061:2082  _status = NOT_ENTERED */\n  dup2\n  swap1\n  sstore\n  pop\n    /* \"src/NFTPool.sol\":768:769  0 */\n  0x00\n    /* \"src/NFTPool.sol\":756:765  totalNfts */\n  0x07\n    /* \"src/NFTPool.sol\":756:769  totalNfts = 0 */\n  dup2\n  swap1\n  sstore\n  pop\n    /* \"src/NFTPool.sol\":376:2446  contract NFTPool is INFTPool, Ownable2Step, ReentrancyGuard {... */\n  jump(tag_13)\n    /* \"lib/openzeppelin-contracts/contracts/access/Ownable2Step.sol\":2011:2164  function _transferOwnership(address newOwner) internal virtual override {... */\ntag_10:\n    /* \"lib/openzeppelin-contracts/contracts/access/Ownable2Step.sol\":2100:2113  _pendingOwner */\n  0x01\n  0x00\n    /* \"lib/openzeppelin-contracts/contracts/access/Ownable2Step.sol\":2093:2113  delete _pendingOwner */\n  0x0100\n  exp\n  dup2\n  sload\n  swap1\n  0xffffffffffffffffffffffffffffffffffffffff\n  mul\n  not\n  and\n  swap1\n  sstore\n    /* \"lib/openzeppelin-contracts/contracts/access/Ownable2Step.sol\":2123:2157  super._transferOwnership(newOwner) */\n  tag_15\n    /* \"lib/openzeppelin-contracts/contracts/access/Ownable2Step.sol\":2148:2156  newOwner */\n  dup2\n    /* \"lib/openzeppelin-contracts/contracts/access/Ownable2Step.sol\":2123:2147  super._transferOwnership */\n  shl(0x20, tag_16)\n    /* \"lib/openzeppelin-contracts/contracts/access/Ownable2Step.sol\":2123:2157  super._transferOwnership(newOwner) */\n  0x20\n  shr\n  jump\t// in\ntag_15:\n    /* \"lib/openzeppelin-contracts/contracts/access/Ownable2Step.sol\":2011:2164  function _transferOwnership(address newOwner) internal virtual override {... */\n  pop\n  jump\t// out\n    /* \"lib/openzeppelin-contracts/contracts/access/Ownable.sol\":2912:3099  function _transferOwnership(address newOwner) internal virtual {... */\ntag_16:\n    /* \"lib/openzeppelin-contracts/contracts/access/Ownable.sol\":2985:3001  address oldOwner */\n  0x00\n    /* \"lib/openzeppelin-contracts/contracts/access/Ownable.sol\":3004:3010  _owner */\n  0x00\n  0x00\n  swap1\n  sload\n  swap1\n  0x0100\n  exp\n  swap1\n  div\n  0xffffffffffffffffffffffffffffffffffffffff\n  and\n    /* \"lib/openzeppelin-contracts/contracts/access/Ownable.sol\":2985:3010  address oldOwner = _owner */\n  swap1\n  pop\n    /* \"lib/openzeppelin-contracts/contracts/access/Ownable.sol\":3029:3037  newOwner */\n  dup2\n    /* \"lib/openzeppelin-contracts/contracts/access/Ownable.sol\":3020:3026  _owner */\n  0x00\n  0x00\n    /* \"lib/openzeppelin-contracts/contracts/access/Ownable.sol\":3020:3037  _owner = newOwner */\n  0x0100\n  exp\n  dup2\n  sload\n  dup2\n  0xffffffffffffffffffffffffffffffffffffffff\n  mul\n  not\n  and\n  swap1\n  dup4\n  0xffffffffffffffffffffffffffffffffffffffff\n  and\n  mul\n  or\n  swap1\n  sstore\n  pop\n    /* \"lib/openzeppelin-contracts/contracts/access/Ownable.sol\":3083:3091  newOwner */\n  dup2\n    /* \"lib/openzeppelin-contracts/contracts/access/Ownable.sol\":3052:3092  OwnershipTransferred(oldOwner, newOwner) */\n  0xffffffffffffffffffffffffffffffffffffffff\n  and\n    /* \"lib/openzeppelin-contracts/contracts/access/Ownable.sol\":3073:3081  oldOwner */\n  dup2\n    /* \"lib/openzeppelin-contracts/contracts/access/Ownable.sol\":3052:3092  OwnershipTransferred(oldOwner, newOwner) */\n  0xffffffffffffffffffffffffffffffffffffffff\n  and\n  0x8be0079c531659141344cd1fd0a4f28419497f9722a3daafe3b4186f6b6457e0\n  mload(0x40)\n  mload(0x40)\n  dup1\n  swap2\n  sub\n  swap1\n  log3\n    /* \"lib/openzeppelin-contracts/contracts/access/Ownable.sol\":2975:3099  {... */\n  pop\n    /* \"lib/openzeppelin-contracts/contracts/access/Ownable.sol\":2912:3099  function _transferOwnership(address newOwner) internal virtual {... */\n  pop\n  jump\t// out\n    /* \"#utility.yul\":7:133   */\ntag_18:\n    /* \"#utility.yul\":44:51   */\n  0x00\n    /* \"#utility.yul\":84:126   */\n  0xffffffffffffffffffffffffffffffffffffffff\n    /* \"#utility.yul\":77:82   */\n  dup3\n    /* \"#utility.yul\":73:127   */\n  and\n    /* \"#utility.yul\":62:127   */\n  swap1\n  pop\n    /* \"#utility.yul\":7:133   */\n  swap2\n  swap1\n  pop\n  jump\t// out\n    /* \"#utility.yul\":139:235   */\ntag_19:\n    /* \"#utility.yul\":176:183   */\n  0x00\n    /* \"#utility.yul\":205:229   */\n  tag_24\n    /* \"#utility.yul\":223:228   */\n  dup3\n    /* \"#utility.yul\":205:229   */\n  tag_18\n  jump\t// in\ntag_24:\n    /* \"#utility.yul\":194:229   */\n  swap1\n  pop\n    /* \"#utility.yul\":139:235   */\n  swap2\n  swap1\n  pop\n  jump\t// out\n    /* \"#utility.yul\":241:359   */\ntag_20:\n    /* \"#utility.yul\":328:352   */\n  tag_26\n    /* \"#utility.yul\":346:351   */\n  dup2\n    /* \"#utility.yul\":328:352   */\n  tag_19\n  jump\t// in\ntag_26:\n    /* \"#utility.yul\":323:326   */\n  dup3\n    /* \"#utility.yul\":316:353   */\n  mstore\n    /* \"#utility.yul\":241:359   */\n  pop\n  pop\n  jump\t// out\n    /* \"#utility.yul\":365:587   */\ntag_8:\n    /* \"#utility.yul\":458:462   */\n  0x00\n    /* \"#utility.yul\":496:498   */\n  0x20\n    /* \"#utility.yul\":485:494   */\n  dup3\n    /* \"#utility.yul\":481:499   */\n  add\n    /* \"#utility.yul\":473:499   */\n  swap1\n  pop\n    /* \"#utility.yul\":509:580   */\n  tag_28\n    /* \"#utility.yul\":577:578   */\n  0x00\n    /* \"#utility.yul\":566:575   */\n  dup4\n    /* \"#utility.yul\":562:579   */\n  add\n    /* \"#utility.yul\":553:559   */\n  dup5\n    /* \"#utility.yul\":509:580   */\n  tag_20\n  jump\t// in\ntag_28:\n    /* \"#utility.yul\":365:587   */\n  swap3\n  swap2\n  pop\n  pop\n  jump\t// out\n    /* \"src/NFTPool.sol\":376:2446  contract NFTPool is INFTPool, Ownable2Step, ReentrancyGuard {... */\ntag_13:\n  dataSize(sub_0)\n  dup1\n  dataOffset(sub_0)\n  0x00\n  codecopy\n  0x00\n  return\nstop\n\nsub_0: assembly {\n        /* \"src/NFTPool.sol\":376:2446  contract NFTPool is INFTPool, Ownable2Step, ReentrancyGuard {... */\n      mstore(0x40, 0x80)\n      callvalue\n      dup1\n      iszero\n      tag_1\n      jumpi\n      revert(0x00, 0x00)\n    tag_1:\n      pop\n      jumpi(tag_2, lt(calldatasize, 0x04))\n      shr(0xe0, calldataload(0x00))\n      dup1\n      0x715018a6\n      gt\n      tag_14\n      jumpi\n      dup1\n      0x715018a6\n      eq\n      tag_8\n      jumpi\n      dup1\n      0x79ba5097\n      eq\n      tag_9\n      jumpi\n      dup1\n      0x8da5cb5b\n      eq\n      tag_10\n      jumpi\n      dup1\n      0xc8de8ee9\n      eq\n      tag_11\n      jumpi\n      dup1\n      0xe30c3978\n      eq\n      tag_12\n      jumpi\n      dup1\n      0xf2fde38b\n      eq\n      tag_13\n      jumpi\n      jump(tag_2)\n    tag_14:\n      dup1\n      0x0c340a24\n      eq\n      tag_3\n      jumpi\n      dup1\n      0x0d4f9ddb\n      eq\n      tag_4\n      jumpi\n      dup1\n      0x19f74e1f\n      eq\n      tag_5\n      jumpi\n      dup1\n      0x23b5bd13\n      eq\n      tag_6\n      jumpi\n      dup1\n      0x5ed35403\n      eq\n      tag_7\n      jumpi\n    tag_2:\n      revert(0x00, 0x00)\n        /* \"src/NFTPool.sol\":648:671  address public governor */\n    tag_3:\n      tag_15\n      tag_16\n      jump\t// in\n    tag_15:\n      mload(0x40)\n      tag_17\n      swap2\n      swap1\n      tag_18\n      jump\t// in\n    tag_17:\n      mload(0x40)\n      dup1\n      swap2\n      sub\n      swap1\n      return\n        /* \"src/NFTPool.sol\":678:702  uint256 public totalNfts */\n    tag_4:\n      tag_19\n      tag_20\n      jump\t// in\n    tag_19:\n      mload(0x40)\n      tag_21\n      swap2\n      swap1\n      tag_22\n      jump\t// in\n    tag_21:\n      mload(0x40)\n      dup1\n      swap2\n      sub\n      swap1\n      return\n        /* \"src/NFTPool.sol\":503:563  mapping(address => mapping(uint256 => bool)) public isInPool */\n    tag_5:\n      tag_23\n      0x04\n      dup1\n      calldatasize\n      sub\n      dup2\n      add\n      swap1\n      tag_24\n      swap2\n      swap1\n      tag_25\n      jump\t// in\n    tag_24:\n      tag_26\n      jump\t// in\n    tag_23:\n      mload(0x40)\n      tag_27\n      swap2\n      swap1\n      tag_28\n      jump\t// in\n    tag_27:\n      mload(0x40)\n      dup1\n      swap2\n      sub\n      swap1\n      return\n        /* \"src/NFTPool.sol\":1634:2443  function withdrawNFT(... */\n    tag_6:\n      tag_29\n      0x04\n      dup1\n      calldatasize\n      sub\n      dup2\n      add\n      swap1\n      tag_30\n      swap2\n      swap1\n      tag_31\n      jump\t// in\n    tag_30:\n      tag_32\n      jump\t// in\n    tag_29:\n      stop\n        /* \"src/NFTPool.sol\":570:641  mapping(address => mapping(uint256 => address)) public userListOfPrizes */\n    tag_7:\n      tag_33\n      0x04\n      dup1\n      calldatasize\n      sub\n      dup2\n      add\n      swap1\n      tag_34\n      swap2\n      swap1\n      tag_25\n      jump\t// in\n    tag_34:\n      tag_35\n      jump\t// in\n    tag_33:\n      mload(0x40)\n      tag_36\n      swap2\n      swap1\n      tag_18\n      jump\t// in\n    tag_36:\n      mload(0x40)\n      dup1\n      swap2\n      sub\n      swap1\n      return\n        /* \"lib/openzeppelin-contracts/contracts/access/Ownable.sol\":2293:2394  function renounceOwnership() public virtual onlyOwner {... */\n    tag_8:\n      tag_37\n      tag_38\n      jump\t// in\n    tag_37:\n      stop\n        /* \"lib/openzeppelin-contracts/contracts/access/Ownable2Step.sol\":2244:2473  function acceptOwnership() public virtual {... */\n    tag_9:\n      tag_39\n      tag_40\n      jump\t// in\n    tag_39:\n      stop\n        /* \"lib/openzeppelin-contracts/contracts/access/Ownable.sol\":1638:1723  function owner() public view virtual returns (address) {... */\n    tag_10:\n      tag_41\n      tag_42\n      jump\t// in\n    tag_41:\n      mload(0x40)\n      tag_43\n      swap2\n      swap1\n      tag_18\n      jump\t// in\n    tag_43:\n      mload(0x40)\n      dup1\n      swap2\n      sub\n      swap1\n      return\n        /* \"src/NFTPool.sol\":997:1626  function depositeNFT(VaultNFT memory vaultNft) external onlyGovernor {... */\n    tag_11:\n      tag_44\n      0x04\n      dup1\n      calldatasize\n      sub\n      dup2\n      add\n      swap1\n      tag_45\n      swap2\n      swap1\n      tag_46\n      jump\t// in\n    tag_45:\n      tag_47\n      jump\t// in\n    tag_44:\n      stop\n        /* \"lib/openzeppelin-contracts/contracts/access/Ownable2Step.sol\":1232:1331  function pendingOwner() public view virtual returns (address) {... */\n    tag_12:\n      tag_48\n      tag_49\n      jump\t// in\n    tag_48:\n      mload(0x40)\n      tag_50\n      swap2\n      swap1\n      tag_18\n      jump\t// in\n    tag_50:\n      mload(0x40)\n      dup1\n      swap2\n      sub\n      swap1\n      return\n        /* \"lib/openzeppelin-contracts/contracts/access/Ownable2Step.sol\":1649:1827  function transferOwnership(address newOwner) public virtual override onlyOwner {... */\n    tag_13:\n      tag_51\n      0x04\n      dup1\n      calldatasize\n      sub\n      dup2\n      add\n      swap1\n      tag_52\n      swap2\n      swap1\n      tag_53\n      jump\t// in\n    tag_52:\n      tag_54\n      jump\t// in\n    tag_51:\n      stop\n        /* \"src/NFTPool.sol\":648:671  address public governor */\n    tag_16:\n      0x06\n      0x00\n      swap1\n      sload\n      swap1\n      0x0100\n      exp\n      swap1\n      div\n      0xffffffffffffffffffffffffffffffffffffffff\n      and\n      dup2\n      jump\t// out\n        /* \"src/NFTPool.sol\":678:702  uint256 public totalNfts */\n    tag_20:\n      sload(0x07)\n      dup2\n      jump\t// out\n        /* \"src/NFTPool.sol\":503:563  mapping(address => mapping(uint256 => bool)) public isInPool */\n    tag_26:\n      mstore(0x20, 0x04)\n      dup2\n      0x00\n      mstore\n      mstore(0x20, keccak256(0x00, 0x40))\n      dup1\n      0x00\n      mstore\n      keccak256(0x00, 0x40)\n      0x00\n      swap2\n      pop\n      swap2\n      pop\n      swap1\n      sload\n      swap1\n      0x0100\n      exp\n      swap1\n      div\n      0xff\n      and\n      dup2\n      jump\t// out\n        /* \"src/NFTPool.sol\":1634:2443  function withdrawNFT(... */\n    tag_32:\n        /* \"lib/openzeppelin-contracts/contracts/utils/ReentrancyGuard.sol\":2500:2521  _nonReentrantBefore() */\n      tag_56\n        /* \"lib/openzeppelin-contracts/contracts/utils/ReentrancyGuard.sol\":2500:2519  _nonReentrantBefore */\n      tag_57\n        /* \"lib/openzeppelin-contracts/contracts/utils/ReentrancyGuard.sol\":2500:2521  _nonReentrantBefore() */\n      jump\t// in\n    tag_56:\n        /* \"src/NFTPool.sol\":1760:1779  address prizesOwner */\n      0x00\n        /* \"src/NFTPool.sol\":1782:1798  userListOfPrizes */\n      0x05\n        /* \"src/NFTPool.sol\":1782:1822  userListOfPrizes[withdrawNft.collection] */\n      0x00\n        /* \"src/NFTPool.sol\":1799:1810  withdrawNft */\n      dup4\n        /* \"src/NFTPool.sol\":1799:1821  withdrawNft.collection */\n      0x00\n      add\n      mload\n        /* \"src/NFTPool.sol\":1782:1822  userListOfPrizes[withdrawNft.collection] */\n      0xffffffffffffffffffffffffffffffffffffffff\n      and\n      0xffffffffffffffffffffffffffffffffffffffff\n      and\n      dup2\n      mstore\n      0x20\n      add\n      swap1\n      dup2\n      mstore\n      0x20\n      add\n      0x00\n      keccak256\n        /* \"src/NFTPool.sol\":1782:1867  userListOfPrizes[withdrawNft.collection][... */\n      0x00\n        /* \"src/NFTPool.sol\":1837:1848  withdrawNft */\n      dup4\n        /* \"src/NFTPool.sol\":1837:1856  withdrawNft.tokenId */\n      0x20\n      add\n      mload\n        /* \"src/NFTPool.sol\":1782:1867  userListOfPrizes[withdrawNft.collection][... */\n      dup2\n      mstore\n      0x20\n      add\n      swap1\n      dup2\n      mstore\n      0x20\n      add\n      0x00\n      keccak256\n      0x00\n      swap1\n      sload\n      swap1\n      0x0100\n      exp\n      swap1\n      div\n      0xffffffffffffffffffffffffffffffffffffffff\n      and\n        /* \"src/NFTPool.sol\":1760:1867  address prizesOwner = userListOfPrizes[withdrawNft.collection][... */\n      swap1\n      pop\n        /* \"src/NFTPool.sol\":1905:1906  0 */\n      0x00\n        /* \"src/NFTPool.sol\":1882:1907  prizesOwner == address(0) */\n      0xffffffffffffffffffffffffffffffffffffffff\n      and\n        /* \"src/NFTPool.sol\":1882:1893  prizesOwner */\n      dup2\n        /* \"src/NFTPool.sol\":1882:1907  prizesOwner == address(0) */\n      0xffffffffffffffffffffffffffffffffffffffff\n      and\n      eq\n        /* \"src/NFTPool.sol\":1882:1936  prizesOwner == address(0) || prizesOwner != msg.sender */\n      dup1\n      tag_59\n      jumpi\n      pop\n        /* \"src/NFTPool.sol\":1926:1936  msg.sender */\n      caller\n        /* \"src/NFTPool.sol\":1911:1936  prizesOwner != msg.sender */\n      0xffffffffffffffffffffffffffffffffffffffff\n      and\n        /* \"src/NFTPool.sol\":1911:1922  prizesOwner */\n      dup2\n        /* \"src/NFTPool.sol\":1911:1936  prizesOwner != msg.sender */\n      0xffffffffffffffffffffffffffffffffffffffff\n      and\n      eq\n      iszero\n        /* \"src/NFTPool.sol\":1882:1936  prizesOwner == address(0) || prizesOwner != msg.sender */\n    tag_59:\n        /* \"src/NFTPool.sol\":1878:1989  if (prizesOwner == address(0) || prizesOwner != msg.sender) {... */\n      iszero\n      tag_60\n      jumpi\n        /* \"src/NFTPool.sol\":1960:1977  NotBelongToUser() */\n      mload(0x40)\n      0x6fa109d800000000000000000000000000000000000000000000000000000000\n      dup2\n      mstore\n      0x04\n      add\n      mload(0x40)\n      dup1\n      swap2\n      sub\n      swap1\n      revert\n        /* \"src/NFTPool.sol\":1878:1989  if (prizesOwner == address(0) || prizesOwner != msg.sender) {... */\n    tag_60:\n        /* \"src/NFTPool.sol\":2055:2060  false */\n      0x00\n        /* \"src/NFTPool.sol\":1999:2007  isInPool */\n      0x04\n        /* \"src/NFTPool.sol\":1999:2031  isInPool[withdrawNft.collection] */\n      0x00\n        /* \"src/NFTPool.sol\":2008:2019  withdrawNft */\n      dup5\n        /* \"src/NFTPool.sol\":2008:2030  withdrawNft.collection */\n      0x00\n      add\n      mload\n        /* \"src/NFTPool.sol\":1999:2031  isInPool[withdrawNft.collection] */\n      0xffffffffffffffffffffffffffffffffffffffff\n      and\n      0xffffffffffffffffffffffffffffffffffffffff\n      and\n      dup2\n      mstore\n      0x20\n      add\n      swap1\n      dup2\n      mstore\n      0x20\n      add\n      0x00\n      keccak256\n        /* \"src/NFTPool.sol\":1999:2052  isInPool[withdrawNft.collection][withdrawNft.tokenId] */\n      0x00\n        /* \"src/NFTPool.sol\":2032:2043  withdrawNft */\n      dup5\n        /* \"src/NFTPool.sol\":2032:2051  withdrawNft.tokenId */\n      0x20\n      add\n      mload\n        /* \"src/NFTPool.sol\":1999:2052  isInPool[withdrawNft.collection][withdrawNft.tokenId] */\n      dup2\n      mstore\n      0x20\n      add\n      swap1\n      dup2\n      mstore\n      0x20\n      add\n      0x00\n      keccak256\n      0x00\n        /* \"src/NFTPool.sol\":1999:2060  isInPool[withdrawNft.collection][withdrawNft.tokenId] = false */\n      0x0100\n      exp\n      dup2\n      sload\n      dup2\n      0xff\n      mul\n      not\n      and\n      swap1\n      dup4\n      iszero\n      iszero\n      mul\n      or\n      swap1\n      sstore\n      pop\n        /* \"src/NFTPool.sol\":2071:2091  VaultNFT storage nft */\n      0x00\n        /* \"src/NFTPool.sol\":2094:2103  vaultNfts */\n      0x03\n        /* \"src/NFTPool.sol\":2104:2109  index */\n      dup5\n        /* \"src/NFTPool.sol\":2094:2110  vaultNfts[index] */\n      dup2\n      sload\n      dup2\n      lt\n      tag_61\n      jumpi\n      tag_62\n      tag_63\n      jump\t// in\n    tag_62:\n    tag_61:\n      swap1\n      0x00\n      mstore\n      keccak256(0x00, 0x20)\n      swap1\n      0x04\n      mul\n      add\n        /* \"src/NFTPool.sol\":2071:2110  VaultNFT storage nft = vaultNfts[index] */\n      swap1\n      pop\n        /* \"src/NFTPool.sol\":2135:2139  true */\n      0x01\n        /* \"src/NFTPool.sol\":2121:2124  nft */\n      dup2\n        /* \"src/NFTPool.sol\":2121:2132  nft.claimed */\n      0x03\n      add\n      0x00\n        /* \"src/NFTPool.sol\":2121:2139  nft.claimed = true */\n      0x0100\n      exp\n      dup2\n      sload\n      dup2\n      0xff\n      mul\n      not\n      and\n      swap1\n      dup4\n      iszero\n      iszero\n      mul\n      or\n      swap1\n      sstore\n      pop\n        /* \"src/NFTPool.sol\":2158:2169  withdrawNft */\n      dup3\n        /* \"src/NFTPool.sol\":2158:2180  withdrawNft.collection */\n      0x00\n      add\n      mload\n        /* \"src/NFTPool.sol\":2150:2198  IERC721(withdrawNft.collection).safeTransferFrom */\n      0xffffffffffffffffffffffffffffffffffffffff\n      and\n      0x42842e0e\n        /* \"src/NFTPool.sol\":2221:2225  this */\n      address\n        /* \"src/NFTPool.sol\":2241:2251  msg.sender */\n      caller\n        /* \"src/NFTPool.sol\":2266:2277  withdrawNft */\n      dup7\n        /* \"src/NFTPool.sol\":2266:2285  withdrawNft.tokenId */\n      0x20\n      add\n      mload\n        /* \"src/NFTPool.sol\":2150:2296  IERC721(withdrawNft.collection).safeTransferFrom(... */\n      mload(0x40)\n      dup5\n      0xffffffff\n      and\n      0xe0\n      shl\n      dup2\n      mstore\n      0x04\n      add\n      tag_65\n      swap4\n      swap3\n      swap2\n      swap1\n      tag_66\n      jump\t// in\n    tag_65:\n      0x00\n      mload(0x40)\n      dup1\n      dup4\n      sub\n      dup2\n      0x00\n      dup8\n      dup1\n      extcodesize\n      iszero\n      dup1\n      iszero\n      tag_67\n      jumpi\n      revert(0x00, 0x00)\n    tag_67:\n      pop\n      gas\n      call\n      iszero\n      dup1\n      iszero\n      tag_69\n      jumpi\n      returndatacopy(0x00, 0x00, returndatasize)\n      revert(0x00, returndatasize)\n    tag_69:\n      pop\n      pop\n      pop\n      pop\n        /* \"src/NFTPool.sol\":2312:2435  WithdrawNFTPrize(... */\n      0x1d124a46803b25317340e4903dfd76c6a0ab4e66026453c0913cf14620a208e6\n        /* \"src/NFTPool.sol\":2343:2354  withdrawNft */\n      dup4\n        /* \"src/NFTPool.sol\":2343:2365  withdrawNft.collection */\n      0x00\n      add\n      mload\n        /* \"src/NFTPool.sol\":2380:2391  withdrawNft */\n      dup5\n        /* \"src/NFTPool.sol\":2380:2399  withdrawNft.tokenId */\n      0x20\n      add\n      mload\n        /* \"src/NFTPool.sol\":2414:2424  msg.sender */\n      caller\n        /* \"src/NFTPool.sol\":2312:2435  WithdrawNFTPrize(... */\n      mload(0x40)\n      tag_70\n      swap4\n      swap3\n      swap2\n      swap1\n      tag_71\n      jump\t// in\n    tag_70:\n      mload(0x40)\n      dup1\n      swap2\n      sub\n      swap1\n      log1\n        /* \"src/NFTPool.sol\":1749:2443  {... */\n      pop\n      pop\n        /* \"lib/openzeppelin-contracts/contracts/utils/ReentrancyGuard.sol\":2542:2562  _nonReentrantAfter() */\n      tag_72\n        /* \"lib/openzeppelin-contracts/contracts/utils/ReentrancyGuard.sol\":2542:2560  _nonReentrantAfter */\n      tag_73\n        /* \"lib/openzeppelin-contracts/contracts/utils/ReentrancyGuard.sol\":2542:2562  _nonReentrantAfter() */\n      jump\t// in\n    tag_72:\n        /* \"src/NFTPool.sol\":1634:2443  function withdrawNFT(... */\n      pop\n      pop\n      jump\t// out\n        /* \"src/NFTPool.sol\":570:641  mapping(address => mapping(uint256 => address)) public userListOfPrizes */\n    tag_35:\n      mstore(0x20, 0x05)\n      dup2\n      0x00\n      mstore\n      mstore(0x20, keccak256(0x00, 0x40))\n      dup1\n      0x00\n      mstore\n      keccak256(0x00, 0x40)\n      0x00\n      swap2\n      pop\n      swap2\n      pop\n      swap1\n      sload\n      swap1\n      0x0100\n      exp\n      swap1\n      div\n      0xffffffffffffffffffffffffffffffffffffffff\n      and\n      dup2\n      jump\t// out\n        /* \"lib/openzeppelin-contracts/contracts/access/Ownable.sol\":2293:2394  function renounceOwnership() public virtual onlyOwner {... */\n    tag_38:\n        /* \"lib/openzeppelin-contracts/contracts/access/Ownable.sol\":1531:1544  _checkOwner() */\n      tag_75\n        /* \"lib/openzeppelin-contracts/contracts/access/Ownable.sol\":1531:1542  _checkOwner */\n      tag_76\n        /* \"lib/openzeppelin-contracts/contracts/access/Ownable.sol\":1531:1544  _checkOwner() */\n      jump\t// in\n    tag_75:\n        /* \"lib/openzeppelin-contracts/contracts/access/Ownable.sol\":2357:2387  _transferOwnership(address(0)) */\n      tag_78\n        /* \"lib/openzeppelin-contracts/contracts/access/Ownable.sol\":2384:2385  0 */\n      0x00\n        /* \"lib/openzeppelin-contracts/contracts/access/Ownable.sol\":2357:2375  _transferOwnership */\n      tag_79\n        /* \"lib/openzeppelin-contracts/contracts/access/Ownable.sol\":2357:2387  _transferOwnership(address(0)) */\n      jump\t// in\n    tag_78:\n        /* \"lib/openzeppelin-contracts/contracts/access/Ownable.sol\":2293:2394  function renounceOwnership() public virtual onlyOwner {... */\n      jump\t// out\n        /* \"lib/openzeppelin-contracts/contracts/access/Ownable2Step.sol\":2244:2473  function acceptOwnership() public virtual {... */\n    tag_40:\n        /* \"lib/openzeppelin-contracts/contracts/access/Ownable2Step.sol\":2296:2310  address sender */\n      0x00\n        /* \"lib/openzeppelin-contracts/contracts/access/Ownable2Step.sol\":2313:2325  _msgSender() */\n      tag_81\n        /* \"lib/openzeppelin-contracts/contracts/access/Ownable2Step.sol\":2313:2323  _msgSender */\n      tag_82\n        /* \"lib/openzeppelin-contracts/contracts/access/Ownable2Step.sol\":2313:2325  _msgSender() */\n      jump\t// in\n    tag_81:\n        /* \"lib/openzeppelin-contracts/contracts/access/Ownable2Step.sol\":2296:2325  address sender = _msgSender() */\n      swap1\n      pop\n        /* \"lib/openzeppelin-contracts/contracts/access/Ownable2Step.sol\":2357:2363  sender */\n      dup1\n        /* \"lib/openzeppelin-contracts/contracts/access/Ownable2Step.sol\":2339:2363  pendingOwner() != sender */\n      0xffffffffffffffffffffffffffffffffffffffff\n      and\n        /* \"lib/openzeppelin-contracts/contracts/access/Ownable2Step.sol\":2339:2353  pendingOwner() */\n      tag_83\n        /* \"lib/openzeppelin-contracts/contracts/access/Ownable2Step.sol\":2339:2351  pendingOwner */\n      tag_49\n        /* \"lib/openzeppelin-contracts/contracts/access/Ownable2Step.sol\":2339:2353  pendingOwner() */\n      jump\t// in\n    tag_83:\n        /* \"lib/openzeppelin-contracts/contracts/access/Ownable2Step.sol\":2339:2363  pendingOwner() != sender */\n      0xffffffffffffffffffffffffffffffffffffffff\n      and\n      eq\n        /* \"lib/openzeppelin-contracts/contracts/access/Ownable2Step.sol\":2335:2431  if (pendingOwner() != sender) {... */\n      tag_84\n      jumpi\n        /* \"lib/openzeppelin-contracts/contracts/access/Ownable2Step.sol\":2413:2419  sender */\n      dup1\n        /* \"lib/openzeppelin-contracts/contracts/access/Ownable2Step.sol\":2386:2420  OwnableUnauthorizedAccount(sender) */\n      mload(0x40)\n      0x118cdaa700000000000000000000000000000000000000000000000000000000\n      dup2\n      mstore\n      0x04\n      add\n      tag_85\n      swap2\n      swap1\n      tag_18\n      jump\t// in\n    tag_85:\n      mload(0x40)\n      dup1\n      swap2\n      sub\n      swap1\n      revert\n        /* \"lib/openzeppelin-contracts/contracts/access/Ownable2Step.sol\":2335:2431  if (pendingOwner() != sender) {... */\n    tag_84:\n        /* \"lib/openzeppelin-contracts/contracts/access/Ownable2Step.sol\":2440:2466  _transferOwnership(sender) */\n      tag_86\n        /* \"lib/openzeppelin-contracts/contracts/access/Ownable2Step.sol\":2459:2465  sender */\n      dup2\n        /* \"lib/openzeppelin-contracts/contracts/access/Ownable2Step.sol\":2440:2458  _transferOwnership */\n      tag_79\n        /* \"lib/openzeppelin-contracts/contracts/access/Ownable2Step.sol\":2440:2466  _transferOwnership(sender) */\n      jump\t// in\n    tag_86:\n        /* \"lib/openzeppelin-contracts/contracts/access/Ownable2Step.sol\":2286:2473  {... */\n      pop\n        /* \"lib/openzeppelin-contracts/contracts/access/Ownable2Step.sol\":2244:2473  function acceptOwnership() public virtual {... */\n      jump\t// out\n        /* \"lib/openzeppelin-contracts/contracts/access/Ownable.sol\":1638:1723  function owner() public view virtual returns (address) {... */\n    tag_42:\n        /* \"lib/openzeppelin-contracts/contracts/access/Ownable.sol\":1684:1691  address */\n      0x00\n        /* \"lib/openzeppelin-contracts/contracts/access/Ownable.sol\":1710:1716  _owner */\n      0x00\n      0x00\n      swap1\n      sload\n      swap1\n      0x0100\n      exp\n      swap1\n      div\n      0xffffffffffffffffffffffffffffffffffffffff\n      and\n        /* \"lib/openzeppelin-contracts/contracts/access/Ownable.sol\":1703:1716  return _owner */\n      swap1\n      pop\n        /* \"lib/openzeppelin-contracts/contracts/access/Ownable.sol\":1638:1723  function owner() public view virtual returns (address) {... */\n      swap1\n      jump\t// out\n        /* \"src/NFTPool.sol\":997:1626  function depositeNFT(VaultNFT memory vaultNft) external onlyGovernor {... */\n    tag_47:\n        /* \"src/NFTPool.sol\":838:846  governor */\n      0x06\n      0x00\n      swap1\n      sload\n      swap1\n      0x0100\n      exp\n      swap1\n      div\n      0xffffffffffffffffffffffffffffffffffffffff\n      and\n        /* \"src/NFTPool.sol\":824:846  msg.sender != governor */\n      0xffffffffffffffffffffffffffffffffffffffff\n      and\n        /* \"src/NFTPool.sol\":824:834  msg.sender */\n      caller\n        /* \"src/NFTPool.sol\":824:846  msg.sender != governor */\n      0xffffffffffffffffffffffffffffffffffffffff\n      and\n      eq\n        /* \"src/NFTPool.sol\":820:894  if (msg.sender != governor) {... */\n      tag_89\n      jumpi\n        /* \"src/NFTPool.sol\":870:882  NoGovernor() */\n      mload(0x40)\n      0x41730ccd00000000000000000000000000000000000000000000000000000000\n      dup2\n      mstore\n      0x04\n      add\n      mload(0x40)\n      dup1\n      swap2\n      sub\n      swap1\n      revert\n        /* \"src/NFTPool.sol\":820:894  if (msg.sender != governor) {... */\n    tag_89:\n        /* \"src/NFTPool.sol\":1085:1093  vaultNft */\n      dup1\n        /* \"src/NFTPool.sol\":1085:1104  vaultNft.collection */\n      0x00\n      add\n      mload\n        /* \"src/NFTPool.sol\":1077:1122  IERC721(vaultNft.collection).safeTransferFrom */\n      0xffffffffffffffffffffffffffffffffffffffff\n      and\n      0x42842e0e\n        /* \"src/NFTPool.sol\":1137:1147  msg.sender */\n      caller\n        /* \"src/NFTPool.sol\":1170:1174  this */\n      address\n        /* \"src/NFTPool.sol\":1190:1198  vaultNft */\n      dup5\n        /* \"src/NFTPool.sol\":1190:1206  vaultNft.tokenId */\n      0x20\n      add\n      mload\n        /* \"src/NFTPool.sol\":1077:1217  IERC721(vaultNft.collection).safeTransferFrom(... */\n      mload(0x40)\n      dup5\n      0xffffffff\n      and\n      0xe0\n      shl\n      dup2\n      mstore\n      0x04\n      add\n      tag_91\n      swap4\n      swap3\n      swap2\n      swap1\n      tag_66\n      jump\t// in\n    tag_91:\n      0x00\n      mload(0x40)\n      dup1\n      dup4\n      sub\n      dup2\n      0x00\n      dup8\n      dup1\n      extcodesize\n      iszero\n      dup1\n      iszero\n      tag_92\n      jumpi\n      revert(0x00, 0x00)\n    tag_92:\n      pop\n      gas\n      call\n      iszero\n      dup1\n      iszero\n      tag_94\n      jumpi\n      returndatacopy(0x00, 0x00, returndatasize)\n      revert(0x00, returndatasize)\n    tag_94:\n      pop\n      pop\n      pop\n      pop\n        /* \"src/NFTPool.sol\":1228:1237  vaultNfts */\n      0x03\n        /* \"src/NFTPool.sol\":1257:1451  VaultNFT({... */\n      mload(0x40)\n      dup1\n      0x80\n      add\n      0x40\n      mstore\n      dup1\n        /* \"src/NFTPool.sol\":1297:1305  vaultNft */\n      dup4\n        /* \"src/NFTPool.sol\":1297:1316  vaultNft.collection */\n      0x00\n      add\n      mload\n        /* \"src/NFTPool.sol\":1257:1451  VaultNFT({... */\n      0xffffffffffffffffffffffffffffffffffffffff\n      and\n      dup2\n      mstore\n      0x20\n      add\n        /* \"src/NFTPool.sol\":1344:1352  vaultNft */\n      dup4\n        /* \"src/NFTPool.sol\":1344:1360  vaultNft.tokenId */\n      0x20\n      add\n      mload\n        /* \"src/NFTPool.sol\":1257:1451  VaultNFT({... */\n      dup2\n      mstore\n      0x20\n      add\n        /* \"src/NFTPool.sol\":1387:1395  vaultNft */\n      dup4\n        /* \"src/NFTPool.sol\":1387:1402  vaultNft.weight */\n      0x40\n      add\n      mload\n        /* \"src/NFTPool.sol\":1257:1451  VaultNFT({... */\n      dup2\n      mstore\n      0x20\n      add\n        /* \"src/NFTPool.sol\":1430:1435  false */\n      0x00\n        /* \"src/NFTPool.sol\":1257:1451  VaultNFT({... */\n      iszero\n      iszero\n      dup2\n      mstore\n      pop\n        /* \"src/NFTPool.sol\":1228:1462  vaultNfts.push(... */\n      swap1\n      dup1\n      0x01\n      dup2\n      sload\n      add\n      dup1\n      dup3\n      sstore\n      dup1\n      swap2\n      pop\n      pop\n      0x01\n      swap1\n      sub\n      swap1\n      0x00\n      mstore\n      keccak256(0x00, 0x20)\n      swap1\n      0x04\n      mul\n      add\n      0x00\n      swap1\n      swap2\n      swap1\n      swap2\n      swap1\n      swap2\n      pop\n      0x00\n      dup3\n      add\n      mload\n      dup2\n      0x00\n      add\n      exp(0x0100, 0x00)\n      dup2\n      sload\n      dup2\n      0xffffffffffffffffffffffffffffffffffffffff\n      mul\n      not\n      and\n      swap1\n      dup4\n      0xffffffffffffffffffffffffffffffffffffffff\n      and\n      mul\n      or\n      swap1\n      sstore\n      pop\n      0x20\n      dup3\n      add\n      mload\n      dup2\n      0x01\n      add\n      sstore\n      0x40\n      dup3\n      add\n      mload\n      dup2\n      0x02\n      add\n      sstore\n      0x60\n      dup3\n      add\n      mload\n      dup2\n      0x03\n      add\n      exp(0x0100, 0x00)\n      dup2\n      sload\n      dup2\n      0xff\n      mul\n      not\n      and\n      swap1\n      dup4\n      iszero\n      iszero\n      mul\n      or\n      swap1\n      sstore\n      pop\n      pop\n      pop\n        /* \"src/NFTPool.sol\":1486:1487  1 */\n      0x01\n        /* \"src/NFTPool.sol\":1473:1482  totalNfts */\n      0x07\n      0x00\n        /* \"src/NFTPool.sol\":1473:1487  totalNfts += 1 */\n      dup3\n      dup3\n      sload\n      tag_96\n      swap2\n      swap1\n      tag_97\n      jump\t// in\n    tag_96:\n      swap3\n      pop\n      pop\n      dup2\n      swap1\n      sstore\n      pop\n        /* \"src/NFTPool.sol\":1548:1552  true */\n      0x01\n        /* \"src/NFTPool.sol\":1498:1506  isInPool */\n      0x04\n        /* \"src/NFTPool.sol\":1498:1527  isInPool[vaultNft.collection] */\n      0x00\n        /* \"src/NFTPool.sol\":1507:1515  vaultNft */\n      dup4\n        /* \"src/NFTPool.sol\":1507:1526  vaultNft.collection */\n      0x00\n      add\n      mload\n        /* \"src/NFTPool.sol\":1498:1527  isInPool[vaultNft.collection] */\n      0xffffffffffffffffffffffffffffffffffffffff\n      and\n      0xffffffffffffffffffffffffffffffffffffffff\n      and\n      dup2\n      mstore\n      0x20\n      add\n      swap1\n      dup2\n      mstore\n      0x20\n      add\n      0x00\n      keccak256\n        /* \"src/NFTPool.sol\":1498:1545  isInPool[vaultNft.collection][vaultNft.tokenId] */\n      0x00\n        /* \"src/NFTPool.sol\":1528:1536  vaultNft */\n      dup4\n        /* \"src/NFTPool.sol\":1528:1544  vaultNft.tokenId */\n      0x20\n      add\n      mload\n        /* \"src/NFTPool.sol\":1498:1545  isInPool[vaultNft.collection][vaultNft.tokenId] */\n      dup2\n      mstore\n      0x20\n      add\n      swap1\n      dup2\n      mstore\n      0x20\n      add\n      0x00\n      keccak256\n      0x00\n        /* \"src/NFTPool.sol\":1498:1552  isInPool[vaultNft.collection][vaultNft.tokenId] = true */\n      0x0100\n      exp\n      dup2\n      sload\n      dup2\n      0xff\n      mul\n      not\n      and\n      swap1\n      dup4\n      iszero\n      iszero\n      mul\n      or\n      swap1\n      sstore\n      pop\n        /* \"src/NFTPool.sol\":1568:1618  DepositeNFT(vaultNft.collection, vaultNft.tokenId) */\n      0x046b9e39d2f78c5e48b82f2b6a18b0c5840db3a910298bfbcce219313190dc\n        /* \"src/NFTPool.sol\":1580:1588  vaultNft */\n      dup2\n        /* \"src/NFTPool.sol\":1580:1599  vaultNft.collection */\n      0x00\n      add\n      mload\n        /* \"src/NFTPool.sol\":1601:1609  vaultNft */\n      dup3\n        /* \"src/NFTPool.sol\":1601:1617  vaultNft.tokenId */\n      0x20\n      add\n      mload\n        /* \"src/NFTPool.sol\":1568:1618  DepositeNFT(vaultNft.collection, vaultNft.tokenId) */\n      mload(0x40)\n      tag_98\n      swap3\n      swap2\n      swap1\n      tag_99\n      jump\t// in\n    tag_98:\n      mload(0x40)\n      dup1\n      swap2\n      sub\n      swap1\n      log1\n        /* \"src/NFTPool.sol\":997:1626  function depositeNFT(VaultNFT memory vaultNft) external onlyGovernor {... */\n      pop\n      jump\t// out\n        /* \"lib/openzeppelin-contracts/contracts/access/Ownable2Step.sol\":1232:1331  function pendingOwner() public view virtual returns (address) {... */\n    tag_49:\n        /* \"lib/openzeppelin-contracts/contracts/access/Ownable2Step.sol\":1285:1292  address */\n      0x00\n        /* \"lib/openzeppelin-contracts/contracts/access/Ownable2Step.sol\":1311:1324  _pendingOwner */\n      0x01\n      0x00\n      swap1\n      sload\n      swap1\n      0x0100\n      exp\n      swap1\n      div\n      0xffffffffffffffffffffffffffffffffffffffff\n      and\n        /* \"lib/openzeppelin-contracts/contracts/access/Ownable2Step.sol\":1304:1324  return _pendingOwner */\n      swap1\n      pop\n        /* \"lib/openzeppelin-contracts/contracts/access/Ownable2Step.sol\":1232:1331  function pendingOwner() public view virtual returns (address) {... */\n      swap1\n      jump\t// out\n        /* \"lib/openzeppelin-contracts/contracts/access/Ownable2Step.sol\":1649:1827  function transferOwnership(address newOwner) public virtual override onlyOwner {... */\n    tag_54:\n        /* \"lib/openzeppelin-contracts/contracts/access/Ownable.sol\":1531:1544  _checkOwner() */\n      tag_102\n        /* \"lib/openzeppelin-contracts/contracts/access/Ownable.sol\":1531:1542  _checkOwner */\n      tag_76\n        /* \"lib/openzeppelin-contracts/contracts/access/Ownable.sol\":1531:1544  _checkOwner() */\n      jump\t// in\n    tag_102:\n        /* \"lib/openzeppelin-contracts/contracts/access/Ownable2Step.sol\":1754:1762  newOwner */\n      dup1\n        /* \"lib/openzeppelin-contracts/contracts/access/Ownable2Step.sol\":1738:1751  _pendingOwner */\n      0x01\n      0x00\n        /* \"lib/openzeppelin-contracts/contracts/access/Ownable2Step.sol\":1738:1762  _pendingOwner = newOwner */\n      0x0100\n      exp\n      dup2\n      sload\n      dup2\n      0xffffffffffffffffffffffffffffffffffffffff\n      mul\n      not\n      and\n      swap1\n      dup4\n      0xffffffffffffffffffffffffffffffffffffffff\n      and\n      mul\n      or\n      swap1\n      sstore\n      pop\n        /* \"lib/openzeppelin-contracts/contracts/access/Ownable2Step.sol\":1811:1819  newOwner */\n      dup1\n        /* \"lib/openzeppelin-contracts/contracts/access/Ownable2Step.sol\":1777:1820  OwnershipTransferStarted(owner(), newOwner) */\n      0xffffffffffffffffffffffffffffffffffffffff\n      and\n        /* \"lib/openzeppelin-contracts/contracts/access/Ownable2Step.sol\":1802:1809  owner() */\n      tag_104\n        /* \"lib/openzeppelin-contracts/contracts/access/Ownable2Step.sol\":1802:1807  owner */\n      tag_42\n        /* \"lib/openzeppelin-contracts/contracts/access/Ownable2Step.sol\":1802:1809  owner() */\n      jump\t// in\n    tag_104:\n        /* \"lib/openzeppelin-contracts/contracts/access/Ownable2Step.sol\":1777:1820  OwnershipTransferStarted(owner(), newOwner) */\n      0xffffffffffffffffffffffffffffffffffffffff\n      and\n      0x38d16b8cac22d99fc7c124b9cd0de2d3fa1faef420bfe791d8c362d765e22700\n      mload(0x40)\n      mload(0x40)\n      dup1\n      swap2\n      sub\n      swap1\n      log3\n        /* \"lib/openzeppelin-contracts/contracts/access/Ownable2Step.sol\":1649:1827  function transferOwnership(address newOwner) public virtual override onlyOwner {... */\n      pop\n      jump\t// out\n        /* \"lib/openzeppelin-contracts/contracts/utils/ReentrancyGuard.sol\":2575:2882  function _nonReentrantBefore() private {... */\n    tag_57:\n        /* \"lib/openzeppelin-contracts/contracts/utils/ReentrancyGuard.sol\":1899:1900  2 */\n      0x02\n        /* \"lib/openzeppelin-contracts/contracts/utils/ReentrancyGuard.sol\":2702:2709  _status */\n      dup1\n      sload\n        /* \"lib/openzeppelin-contracts/contracts/utils/ReentrancyGuard.sol\":2702:2720  _status == ENTERED */\n      sub\n        /* \"lib/openzeppelin-contracts/contracts/utils/ReentrancyGuard.sol\":2698:2784  if (_status == ENTERED) {... */\n      tag_106\n      jumpi\n        /* \"lib/openzeppelin-contracts/contracts/utils/ReentrancyGuard.sol\":2743:2773  ReentrancyGuardReentrantCall() */\n      mload(0x40)\n      0x3ee5aeb500000000000000000000000000000000000000000000000000000000\n      dup2\n      mstore\n      0x04\n      add\n      mload(0x40)\n      dup1\n      swap2\n      sub\n      swap1\n      revert\n        /* \"lib/openzeppelin-contracts/contracts/utils/ReentrancyGuard.sol\":2698:2784  if (_status == ENTERED) {... */\n    tag_106:\n        /* \"lib/openzeppelin-contracts/contracts/utils/ReentrancyGuard.sol\":1899:1900  2 */\n      0x02\n        /* \"lib/openzeppelin-contracts/contracts/utils/ReentrancyGuard.sol\":2858:2865  _status */\n      dup1\n        /* \"lib/openzeppelin-contracts/contracts/utils/ReentrancyGuard.sol\":2858:2875  _status = ENTERED */\n      dup2\n      swap1\n      sstore\n      pop\n        /* \"lib/openzeppelin-contracts/contracts/utils/ReentrancyGuard.sol\":2575:2882  function _nonReentrantBefore() private {... */\n      jump\t// out\n        /* \"lib/openzeppelin-contracts/contracts/utils/ReentrancyGuard.sol\":2888:3096  function _nonReentrantAfter() private {... */\n    tag_73:\n        /* \"lib/openzeppelin-contracts/contracts/utils/ReentrancyGuard.sol\":1857:1858  1 */\n      0x01\n        /* \"lib/openzeppelin-contracts/contracts/utils/ReentrancyGuard.sol\":3068:3075  _status */\n      0x02\n        /* \"lib/openzeppelin-contracts/contracts/utils/ReentrancyGuard.sol\":3068:3089  _status = NOT_ENTERED */\n      dup2\n      swap1\n      sstore\n      pop\n        /* \"lib/openzeppelin-contracts/contracts/utils/ReentrancyGuard.sol\":2888:3096  function _nonReentrantAfter() private {... */\n      jump\t// out\n        /* \"lib/openzeppelin-contracts/contracts/access/Ownable.sol\":1796:1958  function _checkOwner() internal view virtual {... */\n    tag_76:\n        /* \"lib/openzeppelin-contracts/contracts/access/Ownable.sol\":1866:1878  _msgSender() */\n      tag_109\n        /* \"lib/openzeppelin-contracts/contracts/access/Ownable.sol\":1866:1876  _msgSender */\n      tag_82\n        /* \"lib/openzeppelin-contracts/contracts/access/Ownable.sol\":1866:1878  _msgSender() */\n      jump\t// in\n    tag_109:\n        /* \"lib/openzeppelin-contracts/contracts/access/Ownable.sol\":1855:1878  owner() != _msgSender() */\n      0xffffffffffffffffffffffffffffffffffffffff\n      and\n        /* \"lib/openzeppelin-contracts/contracts/access/Ownable.sol\":1855:1862  owner() */\n      tag_110\n        /* \"lib/openzeppelin-contracts/contracts/access/Ownable.sol\":1855:1860  owner */\n      tag_42\n        /* \"lib/openzeppelin-contracts/contracts/access/Ownable.sol\":1855:1862  owner() */\n      jump\t// in\n    tag_110:\n        /* \"lib/openzeppelin-contracts/contracts/access/Ownable.sol\":1855:1878  owner() != _msgSender() */\n      0xffffffffffffffffffffffffffffffffffffffff\n      and\n      eq\n        /* \"lib/openzeppelin-contracts/contracts/access/Ownable.sol\":1851:1952  if (owner() != _msgSender()) {... */\n      tag_111\n      jumpi\n        /* \"lib/openzeppelin-contracts/contracts/access/Ownable.sol\":1928:1940  _msgSender() */\n      tag_112\n        /* \"lib/openzeppelin-contracts/contracts/access/Ownable.sol\":1928:1938  _msgSender */\n      tag_82\n        /* \"lib/openzeppelin-contracts/contracts/access/Ownable.sol\":1928:1940  _msgSender() */\n      jump\t// in\n    tag_112:\n        /* \"lib/openzeppelin-contracts/contracts/access/Ownable.sol\":1901:1941  OwnableUnauthorizedAccount(_msgSender()) */\n      mload(0x40)\n      0x118cdaa700000000000000000000000000000000000000000000000000000000\n      dup2\n      mstore\n      0x04\n      add\n      tag_113\n      swap2\n      swap1\n      tag_18\n      jump\t// in\n    tag_113:\n      mload(0x40)\n      dup1\n      swap2\n      sub\n      swap1\n      revert\n        /* \"lib/openzeppelin-contracts/contracts/access/Ownable.sol\":1851:1952  if (owner() != _msgSender()) {... */\n    tag_111:\n        /* \"lib/openzeppelin-contracts/contracts/access/Ownable.sol\":1796:1958  function _checkOwner() internal view virtual {... */\n      jump\t// out\n        /* \"lib/openzeppelin-contracts/contracts/access/Ownable2Step.sol\":2011:2164  function _transferOwnership(address newOwner) internal virtual override {... */\n    tag_79:\n        /* \"lib/openzeppelin-contracts/contracts/access/Ownable2Step.sol\":2100:2113  _pendingOwner */\n      0x01\n      0x00\n        /* \"lib/openzeppelin-contracts/contracts/access/Ownable2Step.sol\":2093:2113  delete _pendingOwner */\n      0x0100\n      exp\n      dup2\n      sload\n      swap1\n      0xffffffffffffffffffffffffffffffffffffffff\n      mul\n      not\n      and\n      swap1\n      sstore\n        /* \"lib/openzeppelin-contracts/contracts/access/Ownable2Step.sol\":2123:2157  super._transferOwnership(newOwner) */\n      tag_115\n        /* \"lib/openzeppelin-contracts/contracts/access/Ownable2Step.sol\":2148:2156  newOwner */\n      dup2\n        /* \"lib/openzeppelin-contracts/contracts/access/Ownable2Step.sol\":2123:2147  super._transferOwnership */\n      tag_116\n        /* \"lib/openzeppelin-contracts/contracts/access/Ownable2Step.sol\":2123:2157  super._transferOwnership(newOwner) */\n      jump\t// in\n    tag_115:\n        /* \"lib/openzeppelin-contracts/contracts/access/Ownable2Step.sol\":2011:2164  function _transferOwnership(address newOwner) internal virtual override {... */\n      pop\n      jump\t// out\n        /* \"lib/openzeppelin-contracts/contracts/utils/Context.sol\":656:752  function _msgSender() internal view virtual returns (address) {... */\n    tag_82:\n        /* \"lib/openzeppelin-contracts/contracts/utils/Context.sol\":709:716  address */\n      0x00\n        /* \"lib/openzeppelin-contracts/contracts/utils/Context.sol\":735:745  msg.sender */\n      caller\n        /* \"lib/openzeppelin-contracts/contracts/utils/Context.sol\":728:745  return msg.sender */\n      swap1\n      pop\n        /* \"lib/openzeppelin-contracts/contracts/utils/Context.sol\":656:752  function _msgSender() internal view virtual returns (address) {... */\n      swap1\n      jump\t// out\n        /* \"lib/openzeppelin-contracts/contracts/access/Ownable.sol\":2912:3099  function _transferOwnership(address newOwner) internal virtual {... */\n    tag_116:\n        /* \"lib/openzeppelin-contracts/contracts/access/Ownable.sol\":2985:3001  address oldOwner */\n      0x00\n        /* \"lib/openzeppelin-contracts/contracts/access/Ownable.sol\":3004:3010  _owner */\n      0x00\n      0x00\n      swap1\n      sload\n      swap1\n      0x0100\n      exp\n      swap1\n      div\n      0xffffffffffffffffffffffffffffffffffffffff\n      and\n        /* \"lib/openzeppelin-contracts/contracts/access/Ownable.sol\":2985:3010  address oldOwner = _owner */\n      swap1\n      pop\n        /* \"lib/openzeppelin-contracts/contracts/access/Ownable.sol\":3029:3037  newOwner */\n      dup2\n        /* \"lib/openzeppelin-contracts/contracts/access/Ownable.sol\":3020:3026  _owner */\n      0x00\n      0x00\n        /* \"lib/openzeppelin-contracts/contracts/access/Ownable.sol\":3020:3037  _owner = newOwner */\n      0x0100\n      exp\n      dup2\n      sload\n      dup2\n      0xffffffffffffffffffffffffffffffffffffffff\n      mul\n      not\n      and\n      swap1\n      dup4\n      0xffffffffffffffffffffffffffffffffffffffff\n      and\n      mul\n      or\n      swap1\n      sstore\n      pop\n        /* \"lib/openzeppelin-contracts/contracts/access/Ownable.sol\":3083:3091  newOwner */\n      dup2\n        /* \"lib/openzeppelin-contracts/contracts/access/Ownable.sol\":3052:3092  OwnershipTransferred(oldOwner, newOwner) */\n      0xffffffffffffffffffffffffffffffffffffffff\n      and\n        /* \"lib/openzeppelin-contracts/contracts/access/Ownable.sol\":3073:3081  oldOwner */\n      dup2\n        /* \"lib/openzeppelin-contracts/contracts/access/Ownable.sol\":3052:3092  OwnershipTransferred(oldOwner, newOwner) */\n      0xffffffffffffffffffffffffffffffffffffffff\n      and\n      0x8be0079c531659141344cd1fd0a4f28419497f9722a3daafe3b4186f6b6457e0\n      mload(0x40)\n      mload(0x40)\n      dup1\n      swap2\n      sub\n      swap1\n      log3\n        /* \"lib/openzeppelin-contracts/contracts/access/Ownable.sol\":2975:3099  {... */\n      pop\n        /* \"lib/openzeppelin-contracts/contracts/access/Ownable.sol\":2912:3099  function _transferOwnership(address newOwner) internal virtual {... */\n      pop\n      jump\t// out\n        /* \"#utility.yul\":7:133   */\n    tag_119:\n        /* \"#utility.yul\":44:51   */\n      0x00\n        /* \"#utility.yul\":84:126   */\n      0xffffffffffffffffffffffffffffffffffffffff\n        /* \"#utility.yul\":77:82   */\n      dup3\n        /* \"#utility.yul\":73:127   */\n      and\n        /* \"#utility.yul\":62:127   */\n      swap1\n      pop\n        /* \"#utility.yul\":7:133   */\n      swap2\n      swap1\n      pop\n      jump\t// out\n        /* \"#utility.yul\":139:235   */\n    tag_120:\n        /* \"#utility.yul\":176:183   */\n      0x00\n        /* \"#utility.yul\":205:229   */\n      tag_147\n        /* \"#utility.yul\":223:228   */\n      dup3\n        /* \"#utility.yul\":205:229   */\n      tag_119\n      jump\t// in\n    tag_147:\n        /* \"#utility.yul\":194:229   */\n      swap1\n      pop\n        /* \"#utility.yul\":139:235   */\n      swap2\n      swap1\n      pop\n      jump\t// out\n        /* \"#utility.yul\":241:359   */\n    tag_121:\n        /* \"#utility.yul\":328:352   */\n      tag_149\n        /* \"#utility.yul\":346:351   */\n      dup2\n        /* \"#utility.yul\":328:352   */\n      tag_120\n      jump\t// in\n    tag_149:\n        /* \"#utility.yul\":323:326   */\n      dup3\n        /* \"#utility.yul\":316:353   */\n      mstore\n        /* \"#utility.yul\":241:359   */\n      pop\n      pop\n      jump\t// out\n        /* \"#utility.yul\":365:587   */\n    tag_18:\n        /* \"#utility.yul\":458:462   */\n      0x00\n        /* \"#utility.yul\":496:498   */\n      0x20\n        /* \"#utility.yul\":485:494   */\n      dup3\n        /* \"#utility.yul\":481:499   */\n      add\n        /* \"#utility.yul\":473:499   */\n      swap1\n      pop\n        /* \"#utility.yul\":509:580   */\n      tag_151\n        /* \"#utility.yul\":577:578   */\n      0x00\n        /* \"#utility.yul\":566:575   */\n      dup4\n        /* \"#utility.yul\":562:579   */\n      add\n        /* \"#utility.yul\":553:559   */\n      dup5\n        /* \"#utility.yul\":509:580   */\n      tag_121\n      jump\t// in\n    tag_151:\n        /* \"#utility.yul\":365:587   */\n      swap3\n      swap2\n      pop\n      pop\n      jump\t// out\n        /* \"#utility.yul\":593:670   */\n    tag_122:\n        /* \"#utility.yul\":630:637   */\n      0x00\n        /* \"#utility.yul\":659:664   */\n      dup2\n        /* \"#utility.yul\":648:664   */\n      swap1\n      pop\n        /* \"#utility.yul\":593:670   */\n      swap2\n      swap1\n      pop\n      jump\t// out\n        /* \"#utility.yul\":676:794   */\n    tag_123:\n        /* \"#utility.yul\":763:787   */\n      tag_154\n        /* \"#utility.yul\":781:786   */\n      dup2\n        /* \"#utility.yul\":763:787   */\n      tag_122\n      jump\t// in\n    tag_154:\n        /* \"#utility.yul\":758:761   */\n      dup3\n        /* \"#utility.yul\":751:788   */\n      mstore\n        /* \"#utility.yul\":676:794   */\n      pop\n      pop\n      jump\t// out\n        /* \"#utility.yul\":800:1022   */\n    tag_22:\n        /* \"#utility.yul\":893:897   */\n      0x00\n        /* \"#utility.yul\":931:933   */\n      0x20\n        /* \"#utility.yul\":920:929   */\n      dup3\n        /* \"#utility.yul\":916:934   */\n      add\n        /* \"#utility.yul\":908:934   */\n      swap1\n      pop\n        /* \"#utility.yul\":944:1015   */\n      tag_156\n        /* \"#utility.yul\":1012:1013   */\n      0x00\n        /* \"#utility.yul\":1001:1010   */\n      dup4\n        /* \"#utility.yul\":997:1014   */\n      add\n        /* \"#utility.yul\":988:994   */\n      dup5\n        /* \"#utility.yul\":944:1015   */\n      tag_123\n      jump\t// in\n    tag_156:\n        /* \"#utility.yul\":800:1022   */\n      swap3\n      swap2\n      pop\n      pop\n      jump\t// out\n        /* \"#utility.yul\":1028:1103   */\n    tag_124:\n        /* \"#utility.yul\":1061:1067   */\n      0x00\n        /* \"#utility.yul\":1094:1096   */\n      0x40\n        /* \"#utility.yul\":1088:1097   */\n      mload\n        /* \"#utility.yul\":1078:1097   */\n      swap1\n      pop\n        /* \"#utility.yul\":1028:1103   */\n      swap1\n      jump\t// out\n        /* \"#utility.yul\":1109:1226   */\n    tag_125:\n        /* \"#utility.yul\":1218:1219   */\n      0x00\n        /* \"#utility.yul\":1215:1216   */\n      0x00\n        /* \"#utility.yul\":1208:1220   */\n      revert\n        /* \"#utility.yul\":1355:1477   */\n    tag_127:\n        /* \"#utility.yul\":1428:1452   */\n      tag_161\n        /* \"#utility.yul\":1446:1451   */\n      dup2\n        /* \"#utility.yul\":1428:1452   */\n      tag_120\n      jump\t// in\n    tag_161:\n        /* \"#utility.yul\":1421:1426   */\n      dup2\n        /* \"#utility.yul\":1418:1453   */\n      eq\n        /* \"#utility.yul\":1408:1471   */\n      tag_162\n      jumpi\n        /* \"#utility.yul\":1467:1468   */\n      0x00\n        /* \"#utility.yul\":1464:1465   */\n      0x00\n        /* \"#utility.yul\":1457:1469   */\n      revert\n        /* \"#utility.yul\":1408:1471   */\n    tag_162:\n        /* \"#utility.yul\":1355:1477   */\n      pop\n      jump\t// out\n        /* \"#utility.yul\":1483:1622   */\n    tag_128:\n        /* \"#utility.yul\":1529:1534   */\n      0x00\n        /* \"#utility.yul\":1567:1573   */\n      dup2\n        /* \"#utility.yul\":1554:1574   */\n      calldataload\n        /* \"#utility.yul\":1545:1574   */\n      swap1\n      pop\n        /* \"#utility.yul\":1583:1616   */\n      tag_164\n        /* \"#utility.yul\":1610:1615   */\n      dup2\n        /* \"#utility.yul\":1583:1616   */\n      tag_127\n      jump\t// in\n    tag_164:\n        /* \"#utility.yul\":1483:1622   */\n      swap3\n      swap2\n      pop\n      pop\n      jump\t// out\n        /* \"#utility.yul\":1628:1750   */\n    tag_129:\n        /* \"#utility.yul\":1701:1725   */\n      tag_166\n        /* \"#utility.yul\":1719:1724   */\n      dup2\n        /* \"#utility.yul\":1701:1725   */\n      tag_122\n      jump\t// in\n    tag_166:\n        /* \"#utility.yul\":1694:1699   */\n      dup2\n        /* \"#utility.yul\":1691:1726   */\n      eq\n        /* \"#utility.yul\":1681:1744   */\n      tag_167\n      jumpi\n        /* \"#utility.yul\":1740:1741   */\n      0x00\n        /* \"#utility.yul\":1737:1738   */\n      0x00\n        /* \"#utility.yul\":1730:1742   */\n      revert\n        /* \"#utility.yul\":1681:1744   */\n    tag_167:\n        /* \"#utility.yul\":1628:1750   */\n      pop\n      jump\t// out\n        /* \"#utility.yul\":1756:1895   */\n    tag_130:\n        /* \"#utility.yul\":1802:1807   */\n      0x00\n        /* \"#utility.yul\":1840:1846   */\n      dup2\n        /* \"#utility.yul\":1827:1847   */\n      calldataload\n        /* \"#utility.yul\":1818:1847   */\n      swap1\n      pop\n        /* \"#utility.yul\":1856:1889   */\n      tag_169\n        /* \"#utility.yul\":1883:1888   */\n      dup2\n        /* \"#utility.yul\":1856:1889   */\n      tag_129\n      jump\t// in\n    tag_169:\n        /* \"#utility.yul\":1756:1895   */\n      swap3\n      swap2\n      pop\n      pop\n      jump\t// out\n        /* \"#utility.yul\":1901:2375   */\n    tag_25:\n        /* \"#utility.yul\":1969:1975   */\n      0x00\n        /* \"#utility.yul\":1977:1983   */\n      0x00\n        /* \"#utility.yul\":2026:2028   */\n      0x40\n        /* \"#utility.yul\":2014:2023   */\n      dup4\n        /* \"#utility.yul\":2005:2012   */\n      dup6\n        /* \"#utility.yul\":2001:2024   */\n      sub\n        /* \"#utility.yul\":1997:2029   */\n      slt\n        /* \"#utility.yul\":1994:2113   */\n      iszero\n      tag_171\n      jumpi\n        /* \"#utility.yul\":2032:2111   */\n      tag_172\n      tag_125\n      jump\t// in\n    tag_172:\n        /* \"#utility.yul\":1994:2113   */\n    tag_171:\n        /* \"#utility.yul\":2152:2153   */\n      0x00\n        /* \"#utility.yul\":2177:2230   */\n      tag_173\n        /* \"#utility.yul\":2222:2229   */\n      dup6\n        /* \"#utility.yul\":2213:2219   */\n      dup3\n        /* \"#utility.yul\":2202:2211   */\n      dup7\n        /* \"#utility.yul\":2198:2220   */\n      add\n        /* \"#utility.yul\":2177:2230   */\n      tag_128\n      jump\t// in\n    tag_173:\n        /* \"#utility.yul\":2167:2230   */\n      swap3\n      pop\n        /* \"#utility.yul\":2123:2240   */\n      pop\n        /* \"#utility.yul\":2279:2281   */\n      0x20\n        /* \"#utility.yul\":2305:2358   */\n      tag_174\n        /* \"#utility.yul\":2350:2357   */\n      dup6\n        /* \"#utility.yul\":2341:2347   */\n      dup3\n        /* \"#utility.yul\":2330:2339   */\n      dup7\n        /* \"#utility.yul\":2326:2348   */\n      add\n        /* \"#utility.yul\":2305:2358   */\n      tag_130\n      jump\t// in\n    tag_174:\n        /* \"#utility.yul\":2295:2358   */\n      swap2\n      pop\n        /* \"#utility.yul\":2250:2368   */\n      pop\n        /* \"#utility.yul\":1901:2375   */\n      swap3\n      pop\n      swap3\n      swap1\n      pop\n      jump\t// out\n        /* \"#utility.yul\":2381:2471   */\n    tag_131:\n        /* \"#utility.yul\":2415:2422   */\n      0x00\n        /* \"#utility.yul\":2458:2463   */\n      dup2\n        /* \"#utility.yul\":2451:2464   */\n      iszero\n        /* \"#utility.yul\":2444:2465   */\n      iszero\n        /* \"#utility.yul\":2433:2465   */\n      swap1\n      pop\n        /* \"#utility.yul\":2381:2471   */\n      swap2\n      swap1\n      pop\n      jump\t// out\n        /* \"#utility.yul\":2477:2586   */\n    tag_132:\n        /* \"#utility.yul\":2558:2579   */\n      tag_177\n        /* \"#utility.yul\":2573:2578   */\n      dup2\n        /* \"#utility.yul\":2558:2579   */\n      tag_131\n      jump\t// in\n    tag_177:\n        /* \"#utility.yul\":2553:2556   */\n      dup3\n        /* \"#utility.yul\":2546:2580   */\n      mstore\n        /* \"#utility.yul\":2477:2586   */\n      pop\n      pop\n      jump\t// out\n        /* \"#utility.yul\":2592:2802   */\n    tag_28:\n        /* \"#utility.yul\":2679:2683   */\n      0x00\n        /* \"#utility.yul\":2717:2719   */\n      0x20\n        /* \"#utility.yul\":2706:2715   */\n      dup3\n        /* \"#utility.yul\":2702:2720   */\n      add\n        /* \"#utility.yul\":2694:2720   */\n      swap1\n      pop\n        /* \"#utility.yul\":2730:2795   */\n      tag_179\n        /* \"#utility.yul\":2792:2793   */\n      0x00\n        /* \"#utility.yul\":2781:2790   */\n      dup4\n        /* \"#utility.yul\":2777:2794   */\n      add\n        /* \"#utility.yul\":2768:2774   */\n      dup5\n        /* \"#utility.yul\":2730:2795   */\n      tag_132\n      jump\t// in\n    tag_179:\n        /* \"#utility.yul\":2592:2802   */\n      swap3\n      swap2\n      pop\n      pop\n      jump\t// out\n        /* \"#utility.yul\":2808:2925   */\n    tag_133:\n        /* \"#utility.yul\":2917:2918   */\n      0x00\n        /* \"#utility.yul\":2914:2915   */\n      0x00\n        /* \"#utility.yul\":2907:2919   */\n      revert\n        /* \"#utility.yul\":2931:3033   */\n    tag_134:\n        /* \"#utility.yul\":2972:2978   */\n      0x00\n        /* \"#utility.yul\":3023:3025   */\n      0x1f\n        /* \"#utility.yul\":3019:3026   */\n      not\n        /* \"#utility.yul\":3014:3016   */\n      0x1f\n        /* \"#utility.yul\":3007:3012   */\n      dup4\n        /* \"#utility.yul\":3003:3017   */\n      add\n        /* \"#utility.yul\":2999:3027   */\n      and\n        /* \"#utility.yul\":2989:3027   */\n      swap1\n      pop\n        /* \"#utility.yul\":2931:3033   */\n      swap2\n      swap1\n      pop\n      jump\t// out\n        /* \"#utility.yul\":3039:3219   */\n    tag_135:\n        /* \"#utility.yul\":3087:3164   */\n      0x4e487b7100000000000000000000000000000000000000000000000000000000\n        /* \"#utility.yul\":3084:3085   */\n      0x00\n        /* \"#utility.yul\":3077:3165   */\n      mstore\n        /* \"#utility.yul\":3184:3188   */\n      0x41\n        /* \"#utility.yul\":3181:3182   */\n      0x04\n        /* \"#utility.yul\":3174:3189   */\n      mstore\n        /* \"#utility.yul\":3208:3212   */\n      0x24\n        /* \"#utility.yul\":3205:3206   */\n      0x00\n        /* \"#utility.yul\":3198:3213   */\n      revert\n        /* \"#utility.yul\":3225:3506   */\n    tag_136:\n        /* \"#utility.yul\":3308:3335   */\n      tag_184\n        /* \"#utility.yul\":3330:3334   */\n      dup3\n        /* \"#utility.yul\":3308:3335   */\n      tag_134\n      jump\t// in\n    tag_184:\n        /* \"#utility.yul\":3300:3306   */\n      dup2\n        /* \"#utility.yul\":3296:3336   */\n      add\n        /* \"#utility.yul\":3438:3444   */\n      dup2\n        /* \"#utility.yul\":3426:3436   */\n      dup2\n        /* \"#utility.yul\":3423:3445   */\n      lt\n        /* \"#utility.yul\":3402:3420   */\n      0xffffffffffffffff\n        /* \"#utility.yul\":3390:3400   */\n      dup3\n        /* \"#utility.yul\":3387:3421   */\n      gt\n        /* \"#utility.yul\":3384:3446   */\n      or\n        /* \"#utility.yul\":3381:3469   */\n      iszero\n      tag_185\n      jumpi\n        /* \"#utility.yul\":3449:3467   */\n      tag_186\n      tag_135\n      jump\t// in\n    tag_186:\n        /* \"#utility.yul\":3381:3469   */\n    tag_185:\n        /* \"#utility.yul\":3489:3499   */\n      dup1\n        /* \"#utility.yul\":3485:3487   */\n      0x40\n        /* \"#utility.yul\":3478:3500   */\n      mstore\n        /* \"#utility.yul\":3268:3506   */\n      pop\n        /* \"#utility.yul\":3225:3506   */\n      pop\n      pop\n      jump\t// out\n        /* \"#utility.yul\":3512:3641   */\n    tag_137:\n        /* \"#utility.yul\":3546:3552   */\n      0x00\n        /* \"#utility.yul\":3573:3593   */\n      tag_188\n      tag_124\n      jump\t// in\n    tag_188:\n        /* \"#utility.yul\":3563:3593   */\n      swap1\n      pop\n        /* \"#utility.yul\":3602:3635   */\n      tag_189\n        /* \"#utility.yul\":3630:3634   */\n      dup3\n        /* \"#utility.yul\":3622:3628   */\n      dup3\n        /* \"#utility.yul\":3602:3635   */\n      tag_136\n      jump\t// in\n    tag_189:\n        /* \"#utility.yul\":3512:3641   */\n      swap2\n      swap1\n      pop\n      jump\t// out\n        /* \"#utility.yul\":3796:4382   */\n    tag_139:\n        /* \"#utility.yul\":3873:3878   */\n      0x00\n        /* \"#utility.yul\":3917:3921   */\n      0x40\n        /* \"#utility.yul\":3905:3914   */\n      dup3\n        /* \"#utility.yul\":3900:3903   */\n      dup5\n        /* \"#utility.yul\":3896:3915   */\n      sub\n        /* \"#utility.yul\":3892:3922   */\n      slt\n        /* \"#utility.yul\":3889:4006   */\n      iszero\n      tag_192\n      jumpi\n        /* \"#utility.yul\":3925:4004   */\n      tag_193\n      tag_133\n      jump\t// in\n    tag_193:\n        /* \"#utility.yul\":3889:4006   */\n    tag_192:\n        /* \"#utility.yul\":4024:4045   */\n      tag_194\n        /* \"#utility.yul\":4040:4044   */\n      0x40\n        /* \"#utility.yul\":4024:4045   */\n      tag_137\n      jump\t// in\n    tag_194:\n        /* \"#utility.yul\":4015:4045   */\n      swap1\n      pop\n        /* \"#utility.yul\":4110:4111   */\n      0x00\n        /* \"#utility.yul\":4150:4199   */\n      tag_195\n        /* \"#utility.yul\":4195:4198   */\n      dup5\n        /* \"#utility.yul\":4186:4192   */\n      dup3\n        /* \"#utility.yul\":4175:4184   */\n      dup6\n        /* \"#utility.yul\":4171:4193   */\n      add\n        /* \"#utility.yul\":4150:4199   */\n      tag_128\n      jump\t// in\n    tag_195:\n        /* \"#utility.yul\":4143:4147   */\n      0x00\n        /* \"#utility.yul\":4136:4141   */\n      dup4\n        /* \"#utility.yul\":4132:4148   */\n      add\n        /* \"#utility.yul\":4125:4200   */\n      mstore\n        /* \"#utility.yul\":4055:4211   */\n      pop\n        /* \"#utility.yul\":4273:4275   */\n      0x20\n        /* \"#utility.yul\":4314:4363   */\n      tag_196\n        /* \"#utility.yul\":4359:4362   */\n      dup5\n        /* \"#utility.yul\":4350:4356   */\n      dup3\n        /* \"#utility.yul\":4339:4348   */\n      dup6\n        /* \"#utility.yul\":4335:4357   */\n      add\n        /* \"#utility.yul\":4314:4363   */\n      tag_130\n      jump\t// in\n    tag_196:\n        /* \"#utility.yul\":4307:4311   */\n      0x20\n        /* \"#utility.yul\":4300:4305   */\n      dup4\n        /* \"#utility.yul\":4296:4312   */\n      add\n        /* \"#utility.yul\":4289:4364   */\n      mstore\n        /* \"#utility.yul\":4221:4375   */\n      pop\n        /* \"#utility.yul\":3796:4382   */\n      swap3\n      swap2\n      pop\n      pop\n      jump\t// out\n        /* \"#utility.yul\":4388:4918   */\n    tag_31:\n        /* \"#utility.yul\":4484:4490   */\n      0x00\n        /* \"#utility.yul\":4492:4498   */\n      0x00\n        /* \"#utility.yul\":4541:4543   */\n      0x60\n        /* \"#utility.yul\":4529:4538   */\n      dup4\n        /* \"#utility.yul\":4520:4527   */\n      dup6\n        /* \"#utility.yul\":4516:4539   */\n      sub\n        /* \"#utility.yul\":4512:4544   */\n      slt\n        /* \"#utility.yul\":4509:4628   */\n      iszero\n      tag_198\n      jumpi\n        /* \"#utility.yul\":4547:4626   */\n      tag_199\n      tag_125\n      jump\t// in\n    tag_199:\n        /* \"#utility.yul\":4509:4628   */\n    tag_198:\n        /* \"#utility.yul\":4667:4668   */\n      0x00\n        /* \"#utility.yul\":4692:4745   */\n      tag_200\n        /* \"#utility.yul\":4737:4744   */\n      dup6\n        /* \"#utility.yul\":4728:4734   */\n      dup3\n        /* \"#utility.yul\":4717:4726   */\n      dup7\n        /* \"#utility.yul\":4713:4735   */\n      add\n        /* \"#utility.yul\":4692:4745   */\n      tag_130\n      jump\t// in\n    tag_200:\n        /* \"#utility.yul\":4682:4745   */\n      swap3\n      pop\n        /* \"#utility.yul\":4638:4755   */\n      pop\n        /* \"#utility.yul\":4794:4796   */\n      0x20\n        /* \"#utility.yul\":4820:4901   */\n      tag_201\n        /* \"#utility.yul\":4893:4900   */\n      dup6\n        /* \"#utility.yul\":4884:4890   */\n      dup3\n        /* \"#utility.yul\":4873:4882   */\n      dup7\n        /* \"#utility.yul\":4869:4891   */\n      add\n        /* \"#utility.yul\":4820:4901   */\n      tag_139\n      jump\t// in\n    tag_201:\n        /* \"#utility.yul\":4810:4901   */\n      swap2\n      pop\n        /* \"#utility.yul\":4765:4911   */\n      pop\n        /* \"#utility.yul\":4388:4918   */\n      swap3\n      pop\n      swap3\n      swap1\n      pop\n      jump\t// out\n        /* \"#utility.yul\":4924:5040   */\n    tag_140:\n        /* \"#utility.yul\":4994:5015   */\n      tag_203\n        /* \"#utility.yul\":5009:5014   */\n      dup2\n        /* \"#utility.yul\":4994:5015   */\n      tag_131\n      jump\t// in\n    tag_203:\n        /* \"#utility.yul\":4987:4992   */\n      dup2\n        /* \"#utility.yul\":4984:5016   */\n      eq\n        /* \"#utility.yul\":4974:5034   */\n      tag_204\n      jumpi\n        /* \"#utility.yul\":5030:5031   */\n      0x00\n        /* \"#utility.yul\":5027:5028   */\n      0x00\n        /* \"#utility.yul\":5020:5032   */\n      revert\n        /* \"#utility.yul\":4974:5034   */\n    tag_204:\n        /* \"#utility.yul\":4924:5040   */\n      pop\n      jump\t// out\n        /* \"#utility.yul\":5046:5179   */\n    tag_141:\n        /* \"#utility.yul\":5089:5094   */\n      0x00\n        /* \"#utility.yul\":5127:5133   */\n      dup2\n        /* \"#utility.yul\":5114:5134   */\n      calldataload\n        /* \"#utility.yul\":5105:5134   */\n      swap1\n      pop\n        /* \"#utility.yul\":5143:5173   */\n      tag_206\n        /* \"#utility.yul\":5167:5172   */\n      dup2\n        /* \"#utility.yul\":5143:5173   */\n      tag_140\n      jump\t// in\n    tag_206:\n        /* \"#utility.yul\":5046:5179   */\n      swap3\n      swap2\n      pop\n      pop\n      jump\t// out\n        /* \"#utility.yul\":5208:6115   */\n    tag_142:\n        /* \"#utility.yul\":5282:5287   */\n      0x00\n        /* \"#utility.yul\":5326:5330   */\n      0x80\n        /* \"#utility.yul\":5314:5323   */\n      dup3\n        /* \"#utility.yul\":5309:5312   */\n      dup5\n        /* \"#utility.yul\":5305:5324   */\n      sub\n        /* \"#utility.yul\":5301:5331   */\n      slt\n        /* \"#utility.yul\":5298:5415   */\n      iszero\n      tag_208\n      jumpi\n        /* \"#utility.yul\":5334:5413   */\n      tag_209\n      tag_133\n      jump\t// in\n    tag_209:\n        /* \"#utility.yul\":5298:5415   */\n    tag_208:\n        /* \"#utility.yul\":5433:5454   */\n      tag_210\n        /* \"#utility.yul\":5449:5453   */\n      0x80\n        /* \"#utility.yul\":5433:5454   */\n      tag_137\n      jump\t// in\n    tag_210:\n        /* \"#utility.yul\":5424:5454   */\n      swap1\n      pop\n        /* \"#utility.yul\":5519:5520   */\n      0x00\n        /* \"#utility.yul\":5559:5608   */\n      tag_211\n        /* \"#utility.yul\":5604:5607   */\n      dup5\n        /* \"#utility.yul\":5595:5601   */\n      dup3\n        /* \"#utility.yul\":5584:5593   */\n      dup6\n        /* \"#utility.yul\":5580:5602   */\n      add\n        /* \"#utility.yul\":5559:5608   */\n      tag_128\n      jump\t// in\n    tag_211:\n        /* \"#utility.yul\":5552:5556   */\n      0x00\n        /* \"#utility.yul\":5545:5550   */\n      dup4\n        /* \"#utility.yul\":5541:5557   */\n      add\n        /* \"#utility.yul\":5534:5609   */\n      mstore\n        /* \"#utility.yul\":5464:5620   */\n      pop\n        /* \"#utility.yul\":5682:5684   */\n      0x20\n        /* \"#utility.yul\":5723:5772   */\n      tag_212\n        /* \"#utility.yul\":5768:5771   */\n      dup5\n        /* \"#utility.yul\":5759:5765   */\n      dup3\n        /* \"#utility.yul\":5748:5757   */\n      dup6\n        /* \"#utility.yul\":5744:5766   */\n      add\n        /* \"#utility.yul\":5723:5772   */\n      tag_130\n      jump\t// in\n    tag_212:\n        /* \"#utility.yul\":5716:5720   */\n      0x20\n        /* \"#utility.yul\":5709:5714   */\n      dup4\n        /* \"#utility.yul\":5705:5721   */\n      add\n        /* \"#utility.yul\":5698:5773   */\n      mstore\n        /* \"#utility.yul\":5630:5784   */\n      pop\n        /* \"#utility.yul\":5845:5847   */\n      0x40\n        /* \"#utility.yul\":5886:5935   */\n      tag_213\n        /* \"#utility.yul\":5931:5934   */\n      dup5\n        /* \"#utility.yul\":5922:5928   */\n      dup3\n        /* \"#utility.yul\":5911:5920   */\n      dup6\n        /* \"#utility.yul\":5907:5929   */\n      add\n        /* \"#utility.yul\":5886:5935   */\n      tag_130\n      jump\t// in\n    tag_213:\n        /* \"#utility.yul\":5879:5883   */\n      0x40\n        /* \"#utility.yul\":5872:5877   */\n      dup4\n        /* \"#utility.yul\":5868:5884   */\n      add\n        /* \"#utility.yul\":5861:5936   */\n      mstore\n        /* \"#utility.yul\":5794:5947   */\n      pop\n        /* \"#utility.yul\":6009:6011   */\n      0x60\n        /* \"#utility.yul\":6050:6096   */\n      tag_214\n        /* \"#utility.yul\":6092:6095   */\n      dup5\n        /* \"#utility.yul\":6083:6089   */\n      dup3\n        /* \"#utility.yul\":6072:6081   */\n      dup6\n        /* \"#utility.yul\":6068:6090   */\n      add\n        /* \"#utility.yul\":6050:6096   */\n      tag_141\n      jump\t// in\n    tag_214:\n        /* \"#utility.yul\":6043:6047   */\n      0x60\n        /* \"#utility.yul\":6036:6041   */\n      dup4\n        /* \"#utility.yul\":6032:6048   */\n      add\n        /* \"#utility.yul\":6025:6097   */\n      mstore\n        /* \"#utility.yul\":5957:6108   */\n      pop\n        /* \"#utility.yul\":5208:6115   */\n      swap3\n      swap2\n      pop\n      pop\n      jump\t// out\n        /* \"#utility.yul\":6121:6501   */\n    tag_46:\n        /* \"#utility.yul\":6205:6211   */\n      0x00\n        /* \"#utility.yul\":6254:6257   */\n      0x80\n        /* \"#utility.yul\":6242:6251   */\n      dup3\n        /* \"#utility.yul\":6233:6240   */\n      dup5\n        /* \"#utility.yul\":6229:6252   */\n      sub\n        /* \"#utility.yul\":6225:6258   */\n      slt\n        /* \"#utility.yul\":6222:6342   */\n      iszero\n      tag_216\n      jumpi\n        /* \"#utility.yul\":6261:6340   */\n      tag_217\n      tag_125\n      jump\t// in\n    tag_217:\n        /* \"#utility.yul\":6222:6342   */\n    tag_216:\n        /* \"#utility.yul\":6381:6382   */\n      0x00\n        /* \"#utility.yul\":6406:6484   */\n      tag_218\n        /* \"#utility.yul\":6476:6483   */\n      dup5\n        /* \"#utility.yul\":6467:6473   */\n      dup3\n        /* \"#utility.yul\":6456:6465   */\n      dup6\n        /* \"#utility.yul\":6452:6474   */\n      add\n        /* \"#utility.yul\":6406:6484   */\n      tag_142\n      jump\t// in\n    tag_218:\n        /* \"#utility.yul\":6396:6484   */\n      swap2\n      pop\n        /* \"#utility.yul\":6352:6494   */\n      pop\n        /* \"#utility.yul\":6121:6501   */\n      swap3\n      swap2\n      pop\n      pop\n      jump\t// out\n        /* \"#utility.yul\":6507:6836   */\n    tag_53:\n        /* \"#utility.yul\":6566:6572   */\n      0x00\n        /* \"#utility.yul\":6615:6617   */\n      0x20\n        /* \"#utility.yul\":6603:6612   */\n      dup3\n        /* \"#utility.yul\":6594:6601   */\n      dup5\n        /* \"#utility.yul\":6590:6613   */\n      sub\n        /* \"#utility.yul\":6586:6618   */\n      slt\n        /* \"#utility.yul\":6583:6702   */\n      iszero\n      tag_220\n      jumpi\n        /* \"#utility.yul\":6621:6700   */\n      tag_221\n      tag_125\n      jump\t// in\n    tag_221:\n        /* \"#utility.yul\":6583:6702   */\n    tag_220:\n        /* \"#utility.yul\":6741:6742   */\n      0x00\n        /* \"#utility.yul\":6766:6819   */\n      tag_222\n        /* \"#utility.yul\":6811:6818   */\n      dup5\n        /* \"#utility.yul\":6802:6808   */\n      dup3\n        /* \"#utility.yul\":6791:6800   */\n      dup6\n        /* \"#utility.yul\":6787:6809   */\n      add\n        /* \"#utility.yul\":6766:6819   */\n      tag_128\n      jump\t// in\n    tag_222:\n        /* \"#utility.yul\":6756:6819   */\n      swap2\n      pop\n        /* \"#utility.yul\":6712:6829   */\n      pop\n        /* \"#utility.yul\":6507:6836   */\n      swap3\n      swap2\n      pop\n      pop\n      jump\t// out\n        /* \"#utility.yul\":6842:7022   */\n    tag_63:\n        /* \"#utility.yul\":6890:6967   */\n      0x4e487b7100000000000000000000000000000000000000000000000000000000\n        /* \"#utility.yul\":6887:6888   */\n      0x00\n        /* \"#utility.yul\":6880:6968   */\n      mstore\n        /* \"#utility.yul\":6987:6991   */\n      0x32\n        /* \"#utility.yul\":6984:6985   */\n      0x04\n        /* \"#utility.yul\":6977:6992   */\n      mstore\n        /* \"#utility.yul\":7011:7015   */\n      0x24\n        /* \"#utility.yul\":7008:7009   */\n      0x00\n        /* \"#utility.yul\":7001:7016   */\n      revert\n        /* \"#utility.yul\":7028:7470   */\n    tag_66:\n        /* \"#utility.yul\":7177:7181   */\n      0x00\n        /* \"#utility.yul\":7215:7217   */\n      0x60\n        /* \"#utility.yul\":7204:7213   */\n      dup3\n        /* \"#utility.yul\":7200:7218   */\n      add\n        /* \"#utility.yul\":7192:7218   */\n      swap1\n      pop\n        /* \"#utility.yul\":7228:7299   */\n      tag_225\n        /* \"#utility.yul\":7296:7297   */\n      0x00\n        /* \"#utility.yul\":7285:7294   */\n      dup4\n        /* \"#utility.yul\":7281:7298   */\n      add\n        /* \"#utility.yul\":7272:7278   */\n      dup7\n        /* \"#utility.yul\":7228:7299   */\n      tag_121\n      jump\t// in\n    tag_225:\n        /* \"#utility.yul\":7309:7381   */\n      tag_226\n        /* \"#utility.yul\":7377:7379   */\n      0x20\n        /* \"#utility.yul\":7366:7375   */\n      dup4\n        /* \"#utility.yul\":7362:7380   */\n      add\n        /* \"#utility.yul\":7353:7359   */\n      dup6\n        /* \"#utility.yul\":7309:7381   */\n      tag_121\n      jump\t// in\n    tag_226:\n        /* \"#utility.yul\":7391:7463   */\n      tag_227\n        /* \"#utility.yul\":7459:7461   */\n      0x40\n        /* \"#utility.yul\":7448:7457   */\n      dup4\n        /* \"#utility.yul\":7444:7462   */\n      add\n        /* \"#utility.yul\":7435:7441   */\n      dup5\n        /* \"#utility.yul\":7391:7463   */\n      tag_123\n      jump\t// in\n    tag_227:\n        /* \"#utility.yul\":7028:7470   */\n      swap5\n      swap4\n      pop\n      pop\n      pop\n      pop\n      jump\t// out\n        /* \"#utility.yul\":7476:7918   */\n    tag_71:\n        /* \"#utility.yul\":7625:7629   */\n      0x00\n        /* \"#utility.yul\":7663:7665   */\n      0x60\n        /* \"#utility.yul\":7652:7661   */\n      dup3\n        /* \"#utility.yul\":7648:7666   */\n      add\n        /* \"#utility.yul\":7640:7666   */\n      swap1\n      pop\n        /* \"#utility.yul\":7676:7747   */\n      tag_229\n        /* \"#utility.yul\":7744:7745   */\n      0x00\n        /* \"#utility.yul\":7733:7742   */\n      dup4\n        /* \"#utility.yul\":7729:7746   */\n      add\n        /* \"#utility.yul\":7720:7726   */\n      dup7\n        /* \"#utility.yul\":7676:7747   */\n      tag_121\n      jump\t// in\n    tag_229:\n        /* \"#utility.yul\":7757:7829   */\n      tag_230\n        /* \"#utility.yul\":7825:7827   */\n      0x20\n        /* \"#utility.yul\":7814:7823   */\n      dup4\n        /* \"#utility.yul\":7810:7828   */\n      add\n        /* \"#utility.yul\":7801:7807   */\n      dup6\n        /* \"#utility.yul\":7757:7829   */\n      tag_123\n      jump\t// in\n    tag_230:\n        /* \"#utility.yul\":7839:7911   */\n      tag_231\n        /* \"#utility.yul\":7907:7909   */\n      0x40\n        /* \"#utility.yul\":7896:7905   */\n      dup4\n        /* \"#utility.yul\":7892:7910   */\n      add\n        /* \"#utility.yul\":7883:7889   */\n      dup5\n        /* \"#utility.yul\":7839:7911   */\n      tag_121\n      jump\t// in\n    tag_231:\n        /* \"#utility.yul\":7476:7918   */\n      swap5\n      swap4\n      pop\n      pop\n      pop\n      pop\n      jump\t// out\n        /* \"#utility.yul\":7924:8104   */\n    tag_143:\n        /* \"#utility.yul\":7972:8049   */\n      0x4e487b7100000000000000000000000000000000000000000000000000000000\n        /* \"#utility.yul\":7969:7970   */\n      0x00\n        /* \"#utility.yul\":7962:8050   */\n      mstore\n        /* \"#utility.yul\":8069:8073   */\n      0x11\n        /* \"#utility.yul\":8066:8067   */\n      0x04\n        /* \"#utility.yul\":8059:8074   */\n      mstore\n        /* \"#utility.yul\":8093:8097   */\n      0x24\n        /* \"#utility.yul\":8090:8091   */\n      0x00\n        /* \"#utility.yul\":8083:8098   */\n      revert\n        /* \"#utility.yul\":8110:8301   */\n    tag_97:\n        /* \"#utility.yul\":8150:8153   */\n      0x00\n        /* \"#utility.yul\":8169:8189   */\n      tag_234\n        /* \"#utility.yul\":8187:8188   */\n      dup3\n        /* \"#utility.yul\":8169:8189   */\n      tag_122\n      jump\t// in\n    tag_234:\n        /* \"#utility.yul\":8164:8189   */\n      swap2\n      pop\n        /* \"#utility.yul\":8203:8223   */\n      tag_235\n        /* \"#utility.yul\":8221:8222   */\n      dup4\n        /* \"#utility.yul\":8203:8223   */\n      tag_122\n      jump\t// in\n    tag_235:\n        /* \"#utility.yul\":8198:8223   */\n      swap3\n      pop\n        /* \"#utility.yul\":8246:8247   */\n      dup3\n        /* \"#utility.yul\":8243:8244   */\n      dup3\n        /* \"#utility.yul\":8239:8248   */\n      add\n        /* \"#utility.yul\":8232:8248   */\n      swap1\n      pop\n        /* \"#utility.yul\":8267:8270   */\n      dup1\n        /* \"#utility.yul\":8264:8265   */\n      dup3\n        /* \"#utility.yul\":8261:8271   */\n      gt\n        /* \"#utility.yul\":8258:8294   */\n      iszero\n      tag_236\n      jumpi\n        /* \"#utility.yul\":8274:8292   */\n      tag_237\n      tag_143\n      jump\t// in\n    tag_237:\n        /* \"#utility.yul\":8258:8294   */\n    tag_236:\n        /* \"#utility.yul\":8110:8301   */\n      swap3\n      swap2\n      pop\n      pop\n      jump\t// out\n        /* \"#utility.yul\":8307:8639   */\n    tag_99:\n        /* \"#utility.yul\":8428:8432   */\n      0x00\n        /* \"#utility.yul\":8466:8468   */\n      0x40\n        /* \"#utility.yul\":8455:8464   */\n      dup3\n        /* \"#utility.yul\":8451:8469   */\n      add\n        /* \"#utility.yul\":8443:8469   */\n      swap1\n      pop\n        /* \"#utility.yul\":8479:8550   */\n      tag_239\n        /* \"#utility.yul\":8547:8548   */\n      0x00\n        /* \"#utility.yul\":8536:8545   */\n      dup4\n        /* \"#utility.yul\":8532:8549   */\n      add\n        /* \"#utility.yul\":8523:8529   */\n      dup6\n        /* \"#utility.yul\":8479:8550   */\n      tag_121\n      jump\t// in\n    tag_239:\n        /* \"#utility.yul\":8560:8632   */\n      tag_240\n        /* \"#utility.yul\":8628:8630   */\n      0x20\n        /* \"#utility.yul\":8617:8626   */\n      dup4\n        /* \"#utility.yul\":8613:8631   */\n      add\n        /* \"#utility.yul\":8604:8610   */\n      dup5\n        /* \"#utility.yul\":8560:8632   */\n      tag_123\n      jump\t// in\n    tag_240:\n        /* \"#utility.yul\":8307:8639   */\n      swap4\n      swap3\n      pop\n      pop\n      pop\n      jump\t// out\n\n    auxdata: 0xa2646970667358221220734784edca94636ca32556de2fa559fc0e2a8f5fafa1b3557602dd5f6b58018364736f6c634300081e0033\n}\n",
				"bytecode": {
					"linkReferences": {},
					"object": "608060405234801561000f575f5ffd5b50335f73ffffffffffffffffffffffffffffffffffffffff168173ffffffffffffffffffffffffffffffffffffffff1603610081575f6040517f1e4fbdf700000000000000000000000000000000000000000000000000000000815260040161007891906101db565b60405180910390fd5b610090816100a560201b60201c565b5060016002819055505f6007819055506101f4565b60015f6101000a81549073ffffffffffffffffffffffffffffffffffffffff02191690556100d8816100db60201b60201c565b50565b5f5f5f9054906101000a900473ffffffffffffffffffffffffffffffffffffffff169050815f5f6101000a81548173ffffffffffffffffffffffffffffffffffffffff021916908373ffffffffffffffffffffffffffffffffffffffff1602179055508173ffffffffffffffffffffffffffffffffffffffff168173ffffffffffffffffffffffffffffffffffffffff167f8be0079c531659141344cd1fd0a4f28419497f9722a3daafe3b4186f6b6457e060405160405180910390a35050565b5f73ffffffffffffffffffffffffffffffffffffffff82169050919050565b5f6101c58261019c565b9050919050565b6101d5816101bb565b82525050565b5f6020820190506101ee5f8301846101cc565b92915050565b610fc8806102015f395ff3fe608060405234801561000f575f5ffd5b50600436106100a7575f3560e01c8063715018a61161006f578063715018a61461016357806379ba50971461016d5780638da5cb5b14610177578063c8de8ee914610195578063e30c3978146101b1578063f2fde38b146101cf576100a7565b80630c340a24146100ab5780630d4f9ddb146100c957806319f74e1f146100e757806323b5bd13146101175780635ed3540314610133575b5f5ffd5b6100b36101eb565b6040516100c09190610b4c565b60405180910390f35b6100d1610210565b6040516100de9190610b7d565b60405180910390f35b61010160048036038101906100fc9190610bf7565b610216565b60405161010e9190610c4f565b60405180910390f35b610131600480360381019061012c9190610d41565b610240565b005b61014d60048036038101906101489190610bf7565b6104c5565b60405161015a9190610b4c565b60405180910390f35b61016b610502565b005b610175610515565b005b61017f6105a3565b60405161018c9190610b4c565b60405180910390f35b6101af60048036038101906101aa9190610e1e565b6105ca565b005b6101b961086c565b6040516101c69190610b4c565b60405180910390f35b6101e960048036038101906101e49190610e49565b610894565b005b60065f9054906101000a900473ffffffffffffffffffffffffffffffffffffffff1681565b60075481565b6004602052815f5260405f20602052805f5260405f205f915091509054906101000a900460ff1681565b610248610940565b5f60055f835f015173ffffffffffffffffffffffffffffffffffffffff1673ffffffffffffffffffffffffffffffffffffffff1681526020019081526020015f205f836020015181526020019081526020015f205f9054906101000a900473ffffffffffffffffffffffffffffffffffffffff1690505f73ffffffffffffffffffffffffffffffffffffffff168173ffffffffffffffffffffffffffffffffffffffff16148061032457503373ffffffffffffffffffffffffffffffffffffffff168173ffffffffffffffffffffffffffffffffffffffff1614155b1561035b576040517f6fa109d800000000000000000000000000000000000000000000000000000000815260040160405180910390fd5b5f60045f845f015173ffffffffffffffffffffffffffffffffffffffff1673ffffffffffffffffffffffffffffffffffffffff1681526020019081526020015f205f846020015181526020019081526020015f205f6101000a81548160ff0219169083151502179055505f600384815481106103da576103d9610e74565b5b905f5260205f20906004020190506001816003015f6101000a81548160ff021916908315150217905550825f015173ffffffffffffffffffffffffffffffffffffffff166342842e0e303386602001516040518463ffffffff1660e01b815260040161044893929190610ea1565b5f604051808303815f87803b15801561045f575f5ffd5b505af1158015610471573d5f5f3e3d5ffd5b505050507f1d124a46803b25317340e4903dfd76c6a0ab4e66026453c0913cf14620a208e6835f01518460200151336040516104af93929190610ed6565b60405180910390a150506104c1610984565b5050565b6005602052815f5260405f20602052805f5260405f205f915091509054906101000a900473ffffffffffffffffffffffffffffffffffffffff1681565b61050a61098e565b6105135f610a15565b565b5f61051e610a45565b90508073ffffffffffffffffffffffffffffffffffffffff1661053f61086c565b73ffffffffffffffffffffffffffffffffffffffff161461059757806040517f118cdaa700000000000000000000000000000000000000000000000000000000815260040161058e9190610b4c565b60405180910390fd5b6105a081610a15565b50565b5f5f5f9054906101000a900473ffffffffffffffffffffffffffffffffffffffff16905090565b60065f9054906101000a900473ffffffffffffffffffffffffffffffffffffffff1673ffffffffffffffffffffffffffffffffffffffff163373ffffffffffffffffffffffffffffffffffffffff1614610650576040517f41730ccd00000000000000000000000000000000000000000000000000000000815260040160405180910390fd5b805f015173ffffffffffffffffffffffffffffffffffffffff166342842e0e333084602001516040518463ffffffff1660e01b815260040161069493929190610ea1565b5f604051808303815f87803b1580156106ab575f5ffd5b505af11580156106bd573d5f5f3e3d5ffd5b5050505060036040518060800160405280835f015173ffffffffffffffffffffffffffffffffffffffff16815260200183602001518152602001836040015181526020015f1515815250908060018154018082558091505060019003905f5260205f2090600402015f909190919091505f820151815f015f6101000a81548173ffffffffffffffffffffffffffffffffffffffff021916908373ffffffffffffffffffffffffffffffffffffffff16021790555060208201518160010155604082015181600201556060820151816003015f6101000a81548160ff0219169083151502179055505050600160075f8282546107b89190610f38565b92505081905550600160045f835f015173ffffffffffffffffffffffffffffffffffffffff1673ffffffffffffffffffffffffffffffffffffffff1681526020019081526020015f205f836020015181526020019081526020015f205f6101000a81548160ff0219169083151502179055507e046b9e39d2f78c5e48b82f2b6a18b0c5840db3a910298bfbcce219313190dc815f01518260200151604051610861929190610f6b565b60405180910390a150565b5f60015f9054906101000a900473ffffffffffffffffffffffffffffffffffffffff16905090565b61089c61098e565b8060015f6101000a81548173ffffffffffffffffffffffffffffffffffffffff021916908373ffffffffffffffffffffffffffffffffffffffff1602179055508073ffffffffffffffffffffffffffffffffffffffff166108fb6105a3565b73ffffffffffffffffffffffffffffffffffffffff167f38d16b8cac22d99fc7c124b9cd0de2d3fa1faef420bfe791d8c362d765e2270060405160405180910390a350565b600280540361097b576040517f3ee5aeb500000000000000000000000000000000000000000000000000000000815260040160405180910390fd5b60028081905550565b6001600281905550565b610996610a45565b73ffffffffffffffffffffffffffffffffffffffff166109b46105a3565b73ffffffffffffffffffffffffffffffffffffffff1614610a13576109d7610a45565b6040517f118cdaa7000000000000000000000000000000000000000000000000000000008152600401610a0a9190610b4c565b60405180910390fd5b565b60015f6101000a81549073ffffffffffffffffffffffffffffffffffffffff0219169055610a4281610a4c565b50565b5f33905090565b5f5f5f9054906101000a900473ffffffffffffffffffffffffffffffffffffffff169050815f5f6101000a81548173ffffffffffffffffffffffffffffffffffffffff021916908373ffffffffffffffffffffffffffffffffffffffff1602179055508173ffffffffffffffffffffffffffffffffffffffff168173ffffffffffffffffffffffffffffffffffffffff167f8be0079c531659141344cd1fd0a4f28419497f9722a3daafe3b4186f6b6457e060405160405180910390a35050565b5f73ffffffffffffffffffffffffffffffffffffffff82169050919050565b5f610b3682610b0d565b9050919050565b610b4681610b2c565b82525050565b5f602082019050610b5f5f830184610b3d565b92915050565b5f819050919050565b610b7781610b65565b82525050565b5f602082019050610b905f830184610b6e565b92915050565b5f604051905090565b5f5ffd5b610bac81610b2c565b8114610bb6575f5ffd5b50565b5f81359050610bc781610ba3565b92915050565b610bd681610b65565b8114610be0575f5ffd5b50565b5f81359050610bf181610bcd565b92915050565b5f5f60408385031215610c0d57610c0c610b9f565b5b5f610c1a85828601610bb9565b9250506020610c2b85828601610be3565b9150509250929050565b5f8115159050919050565b610c4981610c35565b82525050565b5f602082019050610c625f830184610c40565b92915050565b5f5ffd5b5f601f19601f8301169050919050565b7f4e487b71000000000000000000000000000000000000000000000000000000005f52604160045260245ffd5b610cb282610c6c565b810181811067ffffffffffffffff82111715610cd157610cd0610c7c565b5b80604052505050565b5f610ce3610b96565b9050610cef8282610ca9565b919050565b5f60408284031215610d0957610d08610c68565b5b610d136040610cda565b90505f610d2284828501610bb9565b5f830152506020610d3584828501610be3565b60208301525092915050565b5f5f60608385031215610d5757610d56610b9f565b5b5f610d6485828601610be3565b9250506020610d7585828601610cf4565b9150509250929050565b610d8881610c35565b8114610d92575f5ffd5b50565b5f81359050610da381610d7f565b92915050565b5f60808284031215610dbe57610dbd610c68565b5b610dc86080610cda565b90505f610dd784828501610bb9565b5f830152506020610dea84828501610be3565b6020830152506040610dfe84828501610be3565b6040830152506060610e1284828501610d95565b60608301525092915050565b5f60808284031215610e3357610e32610b9f565b5b5f610e4084828501610da9565b91505092915050565b5f60208284031215610e5e57610e5d610b9f565b5b5f610e6b84828501610bb9565b91505092915050565b7f4e487b71000000000000000000000000000000000000000000000000000000005f52603260045260245ffd5b5f606082019050610eb45f830186610b3d565b610ec16020830185610b3d565b610ece6040830184610b6e565b949350505050565b5f606082019050610ee95f830186610b3d565b610ef66020830185610b6e565b610f036040830184610b3d565b949350505050565b7f4e487b71000000000000000000000000000000000000000000000000000000005f52601160045260245ffd5b5f610f4282610b65565b9150610f4d83610b65565b9250828201905080821115610f6557610f64610f0b565b5b92915050565b5f604082019050610f7e5f830185610b3d565b610f8b6020830184610b6e565b939250505056fea2646970667358221220734784edca94636ca32556de2fa559fc0e2a8f5fafa1b3557602dd5f6b58018364736f6c634300081e0033",
					"opcodes": "PUSH1 0x80 PUSH1 0x40 MSTORE CALLVALUE DUP1 ISZERO PUSH2 0xF JUMPI PUSH0 PUSH0 REVERT JUMPDEST POP CALLER PUSH0 PUSH20 0xFFFFFFFFFFFFFFFFFFFFFFFFFFFFFFFFFFFFFFFF AND DUP2 PUSH20 0xFFFFFFFFFFFFFFFFFFFFFFFFFFFFFFFFFFFFFFFF AND SUB PUSH2 0x81 JUMPI PUSH0 PUSH1 0x40 MLOAD PUSH32 0x1E4FBDF700000000000000000000000000000000000000000000000000000000 DUP2 MSTORE PUSH1 0x4 ADD PUSH2 0x78 SWAP2 SWAP1 PUSH2 0x1DB JUMP JUMPDEST PUSH1 0x40 MLOAD DUP1 SWAP2 SUB SWAP1 REVERT JUMPDEST PUSH2 0x90 DUP2 PUSH2 0xA5 PUSH1 0x20 SHL PUSH1 0x20 SHR JUMP JUMPDEST POP PUSH1 0x1 PUSH1 0x2 DUP2 SWAP1 SSTORE POP PUSH0 PUSH1 0x7 DUP2 SWAP1 SSTORE POP PUSH2 0x1F4 JUMP JUMPDEST PUSH1 0x1 PUSH0 PUSH2 0x100 EXP DUP2 SLOAD SWAP1 PUSH20 0xFFFFFFFFFFFFFFFFFFFFFFFFFFFFFFFFFFFFFFFF MUL NOT AND SWAP1 SSTORE PUSH2 0xD8 DUP2 PUSH2 0xDB PUSH1 0x20 SHL PUSH1 0x20 SHR JUMP JUMPDEST POP JUMP JUMPDEST PUSH0 PUSH0 PUSH0 SWAP1 SLOAD SWAP1 PUSH2 0x100 EXP SWAP1 DIV PUSH20 0xFFFFFFFFFFFFFFFFFFFFFFFFFFFFFFFFFFFFFFFF AND SWAP1 POP DUP2 PUSH0 PUSH0 PUSH2 0x100 EXP DUP2 SLOAD DUP2 PUSH20 0xFFFFFFFFFFFFFFFFFFFFFFFFFFFFFFFFFFFFFFFF MUL NOT AND SWAP1 DUP4 PUSH20 0xFFFFFFFFFFFFFFFFFFFFFFFFFFFFFFFFFFFFFFFF AND MUL OR SWAP1 SSTORE POP DUP2 PUSH20 0xFFFFFFFFFFFFFFFFFFFFFFFFFFFFFFFFFFFFFFFF AND DUP2 PUSH20 0xFFFFFFFFFFFFFFFFFFFFFFFFFFFFFFFFFFFFFFFF AND PUSH32 0x8BE0079C531659141344CD1FD0A4F28419497F9722A3DAAFE3B4186F6B6457E0 PUSH1 0x40 MLOAD PUSH1 0x40 MLOAD DUP1 SWAP2 SUB SWAP1 LOG3 POP POP JUMP JUMPDEST PUSH0 PUSH20 0xFFFFFFFFFFFFFFFFFFFFFFFFFFFFFFFFFFFFFFFF DUP3 AND SWAP1 POP SWAP2 SWAP1 POP JUMP JUMPDEST PUSH0 PUSH2 0x1C5 DUP3 PUSH2 0x19C JUMP JUMPDEST SWAP1 POP SWAP2 SWAP1 POP JUMP JUMPDEST PUSH2 0x1D5 DUP2 PUSH2 0x1BB JUMP JUMPDEST DUP3 MSTORE POP POP JUMP JUMPDEST PUSH0 PUSH1 0x20 DUP3 ADD SWAP1 POP PUSH2 0x1EE PUSH0 DUP4 ADD DUP5 PUSH2 0x1CC JUMP JUMPDEST SWAP3 SWAP2 POP POP JUMP JUMPDEST PUSH2 0xFC8 DUP1 PUSH2 0x201 PUSH0 CODECOPY PUSH0 RETURN INVALID PUSH1 0x80 PUSH1 0x40 MSTORE CALLVALUE DUP1 ISZERO PUSH2 0xF JUMPI PUSH0 PUSH0 REVERT JUMPDEST POP PUSH1 0x4 CALLDATASIZE LT PUSH2 0xA7 JUMPI PUSH0 CALLDATALOAD PUSH1 0xE0 SHR DUP1 PUSH4 0x715018A6 GT PUSH2 0x6F JUMPI DUP1 PUSH4 0x715018A6 EQ PUSH2 0x163 JUMPI DUP1 PUSH4 0x79BA5097 EQ PUSH2 0x16D JUMPI DUP1 PUSH4 0x8DA5CB5B EQ PUSH2 0x177 JUMPI DUP1 PUSH4 0xC8DE8EE9 EQ PUSH2 0x195 JUMPI DUP1 PUSH4 0xE30C3978 EQ PUSH2 0x1B1 JUMPI DUP1 PUSH4 0xF2FDE38B EQ PUSH2 0x1CF JUMPI PUSH2 0xA7 JUMP JUMPDEST DUP1 PUSH4 0xC340A24 EQ PUSH2 0xAB JUMPI DUP1 PUSH4 0xD4F9DDB EQ PUSH2 0xC9 JUMPI DUP1 PUSH4 0x19F74E1F EQ PUSH2 0xE7 JUMPI DUP1 PUSH4 0x23B5BD13 EQ PUSH2 0x117 JUMPI DUP1 PUSH4 0x5ED35403 EQ PUSH2 0x133 JUMPI JUMPDEST PUSH0 PUSH0 REVERT JUMPDEST PUSH2 0xB3 PUSH2 0x1EB JUMP JUMPDEST PUSH1 0x40 MLOAD PUSH2 0xC0 SWAP2 SWAP1 PUSH2 0xB4C JUMP JUMPDEST PUSH1 0x40 MLOAD DUP1 SWAP2 SUB SWAP1 RETURN JUMPDEST PUSH2 0xD1 PUSH2 0x210 JUMP JUMPDEST PUSH1 0x40 MLOAD PUSH2 0xDE SWAP2 SWAP1 PUSH2 0xB7D JUMP JUMPDEST PUSH1 0x40 MLOAD DUP1 SWAP2 SUB SWAP1 RETURN JUMPDEST PUSH2 0x101 PUSH1 0x4 DUP1 CALLDATASIZE SUB DUP2 ADD SWAP1 PUSH2 0xFC SWAP2 SWAP1 PUSH2 0xBF7 JUMP JUMPDEST PUSH2 0x216 JUMP JUMPDEST PUSH1 0x40 MLOAD PUSH2 0x10E SWAP2 SWAP1 PUSH2 0xC4F JUMP JUMPDEST PUSH1 0x40 MLOAD DUP1 SWAP2 SUB SWAP1 RETURN JUMPDEST PUSH2 0x131 PUSH1 0x4 DUP1 CALLDATASIZE SUB DUP2 ADD SWAP1 PUSH2 0x12C SWAP2 SWAP1 PUSH2 0xD41 JUMP JUMPDEST PUSH2 0x240 JUMP JUMPDEST STOP JUMPDEST PUSH2 0x14D PUSH1 0x4 DUP1 CALLDATASIZE SUB DUP2 ADD SWAP1 PUSH2 0x148 SWAP2 SWAP1 PUSH2 0xBF7 JUMP JUMPDEST PUSH2 0x4C5 JUMP JUMPDEST PUSH1 0x40 MLOAD PUSH2 0x15A SWAP2 SWAP1 PUSH2 0xB4C JUMP JUMPDEST PUSH1 0x40 MLOAD DUP1 SWAP2 SUB SWAP1 RETURN JUMPDEST PUSH2 0x16B PUSH2 0x502 JUMP JUMPDEST STOP JUMPDEST PUSH2 0x175 PUSH2 0x515 JUMP JUMPDEST STOP JUMPDEST PUSH2 0x17F PUSH2 0x5A3 JUMP JUMPDEST PUSH1 0x40 MLOAD PUSH2 0x18C SWAP2 SWAP1 PUSH2 0xB4C JUMP JUMPDEST PUSH1 0x40 MLOAD DUP1 SWAP2 SUB SWAP1 RETURN JUMPDEST PUSH2 0x1AF PUSH1 0x4 DUP1 CALLDATASIZE SUB DUP2 ADD SWAP1 PUSH2 0x1AA SWAP2 SWAP1 PUSH2 0xE1E JUMP JUMPDEST PUSH2 0x5CA JUMP JUMPDEST STOP JUMPDEST PUSH2 0x1B9 PUSH2 0x86C JUMP JUMPDEST PUSH1 0x40 MLOAD PUSH2 0x1C6 SWAP2 SWAP1 PUSH2 0xB4C JUMP JUMPDEST PUSH1 0x40 MLOAD DUP1 SWAP2 SUB SWAP1 RETURN JUMPDEST PUSH2 0x1E9 PUSH1 0x4 DUP1 CALLDATASIZE SUB DUP2 ADD SWAP1 PUSH2 0x1E4 SWAP2 SWAP1 PUSH2 0xE49 JUMP JUMPDEST PUSH2 0x894 JUMP JUMPDEST STOP JUMPDEST PUSH1 0x6 PUSH0 SWAP1 SLOAD SWAP1 PUSH2 0x100 EXP SWAP1 DIV PUSH20 0xFFFFFFFFFFFFFFFFFFFFFFFFFFFFFFFFFFFFFFFF AND DUP2 JUMP JUMPDEST PUSH1 0x7 SLOAD DUP2 JUMP JUMPDEST PUSH1 0x4 PUSH1 0x20 MSTORE DUP2 PUSH0 MSTORE PUSH1 0x40 PUSH0 KECCAK256 PUSH1 0x20 MSTORE DUP1 PUSH0 MSTORE PUSH1 0x40 PUSH0 KECCAK256 PUSH0 SWAP2 POP SWAP2 POP SWAP1 SLOAD SWAP1 PUSH2 0x100 EXP SWAP1 DIV PUSH1 0xFF AND DUP2 JUMP JUMPDEST PUSH2 0x248 PUSH2 0x940 JUMP JUMPDEST PUSH0 PUSH1 0x5 PUSH0 DUP4 PUSH0 ADD MLOAD PUSH20 0xFFFFFFFFFFFFFFFFFFFFFFFFFFFFFFFFFFFFFFFF AND PUSH20 0xFFFFFFFFFFFFFFFFFFFFFFFFFFFFFFFFFFFFFFFF AND DUP2 MSTORE PUSH1 0x20 ADD SWAP1 DUP2 MSTORE PUSH1 0x20 ADD PUSH0 KECCAK256 PUSH0 DUP4 PUSH1 0x20 ADD MLOAD DUP2 MSTORE PUSH1 0x20 ADD SWAP1 DUP2 MSTORE PUSH1 0x20 ADD PUSH0 KECCAK256 PUSH0 SWAP1 SLOAD SWAP1 PUSH2 0x100 EXP SWAP1 DIV PUSH20 0xFFFFFFFFFFFFFFFFFFFFFFFFFFFFFFFFFFFFFFFF AND SWAP1 POP PUSH0 PUSH20 0xFFFFFFFFFFFFFFFFFFFFFFFFFFFFFFFFFFFFFFFF AND DUP2 PUSH20 0xFFFFFFFFFFFFFFFFFFFFFFFFFFFFFFFFFFFFFFFF AND EQ DUP1 PUSH2 0x324 JUMPI POP CALLER PUSH20 0xFFFFFFFFFFFFFFFFFFFFFFFFFFFFFFFFFFFFFFFF AND DUP2 PUSH20 0xFFFFFFFFFFFFFFFFFFFFFFFFFFFFFFFFFFFFFFFF AND EQ ISZERO JUMPDEST ISZERO PUSH2 0x35B JUMPI PUSH1 0x40 MLOAD PUSH32 0x6FA109D800000000000000000000000000000000000000000000000000000000 DUP2 MSTORE PUSH1 0x4 ADD PUSH1 0x40 MLOAD DUP1 SWAP2 SUB SWAP1 REVERT JUMPDEST PUSH0 PUSH1 0x4 PUSH0 DUP5 PUSH0 ADD MLOAD PUSH20 0xFFFFFFFFFFFFFFFFFFFFFFFFFFFFFFFFFFFFFFFF AND PUSH20 0xFFFFFFFFFFFFFFFFFFFFFFFFFFFFFFFFFFFFFFFF AND DUP2 MSTORE PUSH1 0x20 ADD SWAP1 DUP2 MSTORE PUSH1 0x20 ADD PUSH0 KECCAK256 PUSH0 DUP5 PUSH1 0x20 ADD MLOAD DUP2 MSTORE PUSH1 0x20 ADD SWAP1 DUP2 MSTORE PUSH1 0x20 ADD PUSH0 KECCAK256 PUSH0 PUSH2 0x100 EXP DUP2 SLOAD DUP2 PUSH1 0xFF MUL NOT AND SWAP1 DUP4 ISZERO ISZERO MUL OR SWAP1 SSTORE POP PUSH0 PUSH1 0x3 DUP5 DUP2 SLOAD DUP2 LT PUSH2 0x3DA JUMPI PUSH2 0x3D9 PUSH2 0xE74 JUMP JUMPDEST JUMPDEST SWAP1 PUSH0 MSTORE PUSH1 0x20 PUSH0 KECCAK256 SWAP1 PUSH1 0x4 MUL ADD SWAP1 POP PUSH1 0x1 DUP2 PUSH1 0x3 ADD PUSH0 PUSH2 0x100 EXP DUP2 SLOAD DUP2 PUSH1 0xFF MUL NOT AND SWAP1 DUP4 ISZERO ISZERO MUL OR SWAP1 SSTORE POP DUP3 PUSH0 ADD MLOAD PUSH20 0xFFFFFFFFFFFFFFFFFFFFFFFFFFFFFFFFFFFFFFFF AND PUSH4 0x42842E0E ADDRESS CALLER DUP7 PUSH1 0x20 ADD MLOAD PUSH1 0x40 MLOAD DUP5 PUSH4 0xFFFFFFFF AND PUSH1 0xE0 SHL DUP2 MSTORE PUSH1 0x4 ADD PUSH2 0x448 SWAP4 SWAP3 SWAP2 SWAP1 PUSH2 0xEA1 JUMP JUMPDEST PUSH0 PUSH1 0x40 MLOAD DUP1 DUP4 SUB DUP2 PUSH0 DUP8 DUP1 EXTCODESIZE ISZERO DUP1 ISZERO PUSH2 0x45F JUMPI PUSH0 PUSH0 REVERT JUMPDEST POP GAS CALL ISZERO DUP1 ISZERO PUSH2 0x471 JUMPI RETURNDATASIZE PUSH0 PUSH0 RETURNDATACOPY RETURNDATASIZE PUSH0 REVERT JUMPDEST POP POP POP POP PUSH32 0x1D124A46803B25317340E4903DFD76C6A0AB4E66026453C0913CF14620A208E6 DUP4 PUSH0 ADD MLOAD DUP5 PUSH1 0x20 ADD MLOAD CALLER PUSH1 0x40 MLOAD PUSH2 0x4AF SWAP4 SWAP3 SWAP2 SWAP1 PUSH2 0xED6 JUMP JUMPDEST PUSH1 0x40 MLOAD DUP1 SWAP2 SUB SWAP1 LOG1 POP POP PUSH2 0x4C1 PUSH2 0x984 JUMP JUMPDEST POP POP JUMP JUMPDEST PUSH1 0x5 PUSH1 0x20 MSTORE DUP2 PUSH0 MSTORE PUSH1 0x40 PUSH0 KECCAK256 PUSH1 0x20 MSTORE DUP1 PUSH0 MSTORE PUSH1 0x40 PUSH0 KECCAK256 PUSH0 SWAP2 POP SWAP2 POP SWAP1 SLOAD SWAP1 PUSH2 0x100 EXP SWAP1 DIV PUSH20 0xFFFFFFFFFFFFFFFFFFFFFFFFFFFFFFFFFFFFFFFF AND DUP2 JUMP JUMPDEST PUSH2 0x50A PUSH2 0x98E JUMP JUMPDEST PUSH2 0x513 PUSH0 PUSH2 0xA15 JUMP JUMPDEST JUMP JUMPDEST PUSH0 PUSH2 0x51E PUSH2 0xA45 JUMP JUMPDEST SWAP1 POP DUP1 PUSH20 0xFFFFFFFFFFFFFFFFFFFFFFFFFFFFFFFFFFFFFFFF AND PUSH2 0x53F PUSH2 0x86C JUMP JUMPDEST PUSH20 0xFFFFFFFFFFFFFFFFFFFFFFFFFFFFFFFFFFFFFFFF AND EQ PUSH2 0x597 JUMPI DUP1 PUSH1 0x40 MLOAD PUSH32 0x118CDAA700000000000000000000000000000000000000000000000000000000 DUP2 MSTORE PUSH1 0x4 ADD PUSH2 0x58E SWAP2 SWAP1 PUSH2 0xB4C JUMP JUMPDEST PUSH1 0x40 MLOAD DUP1 SWAP2 SUB SWAP1 REVERT JUMPDEST PUSH2 0x5A0 DUP2 PUSH2 0xA15 JUMP JUMPDEST POP JUMP JUMPDEST PUSH0 PUSH0 PUSH0 SWAP1 SLOAD SWAP1 PUSH2 0x100 EXP SWAP1 DIV PUSH20 0xFFFFFFFFFFFFFFFFFFFFFFFFFFFFFFFFFFFFFFFF AND SWAP1 POP SWAP1 JUMP JUMPDEST PUSH1 0x6 PUSH0 SWAP1 SLOAD SWAP1 PUSH2 0x100 EXP SWAP1 DIV PUSH20 0xFFFFFFFFFFFFFFFFFFFFFFFFFFFFFFFFFFFFFFFF AND PUSH20 0xFFFFFFFFFFFFFFFFFFFFFFFFFFFFFFFFFFFFFFFF AND CALLER PUSH20 0xFFFFFFFFFFFFFFFFFFFFFFFFFFFFFFFFFFFFFFFF AND EQ PUSH2 0x650 JUMPI PUSH1 0x40 MLOAD PUSH32 0x41730CCD00000000000000000000000000000000000000000000000000000000 DUP2 MSTORE PUSH1 0x4 ADD PUSH1 0x40 MLOAD DUP1 SWAP2 SUB SWAP1 REVERT JUMPDEST DUP1 PUSH0 ADD MLOAD PUSH20 0xFFFFFFFFFFFFFFFFFFFFFFFFFFFFFFFFFFFFFFFF AND PUSH4 0x42842E0E CALLER ADDRESS DUP5 PUSH1 0x20 ADD MLOAD PUSH1 0x40 MLOAD DUP5 PUSH4 0xFFFFFFFF AND PUSH1 0xE0 SHL DUP2 MSTORE PUSH1 0x4 ADD PUSH2 0x694 SWAP4 SWAP3 SWAP2 SWAP1 PUSH2 0xEA1 JUMP JUMPDEST PUSH0 PUSH1 0x40 MLOAD DUP1 DUP4 SUB DUP2 PUSH0 DUP8 DUP1 EXTCODESIZE ISZERO DUP1 ISZERO PUSH2 0x6AB JUMPI PUSH0 PUSH0 REVERT JUMPDEST POP GAS CALL ISZERO DUP1 ISZERO PUSH2 0x6BD JUMPI RETURNDATASIZE PUSH0 PUSH0 RETURNDATACOPY RETURNDATASIZE PUSH0 REVERT JUMPDEST POP POP POP POP PUSH1 0x3 PUSH1 0x40 MLOAD DUP1 PUSH1 0x80 ADD PUSH1 0x40 MSTORE DUP1 DUP4 PUSH0 ADD MLOAD PUSH20 0xFFFFFFFFFFFFFFFFFFFFFFFFFFFFFFFFFFFFFFFF AND DUP2 MSTORE PUSH1 0x20 ADD DUP4 PUSH1 0x20 ADD MLOAD DUP2 MSTORE PUSH1 0x20 ADD DUP4 PUSH1 0x40 ADD MLOAD DUP2 MSTORE PUSH1 0x20 ADD PUSH0 ISZERO ISZERO DUP2 MSTORE POP SWAP1 DUP1 PUSH1 0x1 DUP2 SLOAD ADD DUP1 DUP3 SSTORE DUP1 SWAP2 POP POP PUSH1 0x1 SWAP1 SUB SWAP1 PUSH0 MSTORE PUSH1 0x20 PUSH0 KECCAK256 SWAP1 PUSH1 0x4 MUL ADD PUSH0 SWAP1 SWAP2 SWAP1 SWAP2 SWAP1 SWAP2 POP PUSH0 DUP3 ADD MLOAD DUP2 PUSH0 ADD PUSH0 PUSH2 0x100 EXP DUP2 SLOAD DUP2 PUSH20 0xFFFFFFFFFFFFFFFFFFFFFFFFFFFFFFFFFFFFFFFF MUL NOT AND SWAP1 DUP4 PUSH20 0xFFFFFFFFFFFFFFFFFFFFFFFFFFFFFFFFFFFFFFFF AND MUL OR SWAP1 SSTORE POP PUSH1 0x20 DUP3 ADD MLOAD DUP2 PUSH1 0x1 ADD SSTORE PUSH1 0x40 DUP3 ADD MLOAD DUP2 PUSH1 0x2 ADD SSTORE PUSH1 0x60 DUP3 ADD MLOAD DUP2 PUSH1 0x3 ADD PUSH0 PUSH2 0x100 EXP DUP2 SLOAD DUP2 PUSH1 0xFF MUL NOT AND SWAP1 DUP4 ISZERO ISZERO MUL OR SWAP1 SSTORE POP POP POP PUSH1 0x1 PUSH1 0x7 PUSH0 DUP3 DUP3 SLOAD PUSH2 0x7B8 SWAP2 SWAP1 PUSH2 0xF38 JUMP JUMPDEST SWAP3 POP POP DUP2 SWAP1 SSTORE POP PUSH1 0x1 PUSH1 0x4 PUSH0 DUP4 PUSH0 ADD MLOAD PUSH20 0xFFFFFFFFFFFFFFFFFFFFFFFFFFFFFFFFFFFFFFFF AND PUSH20 0xFFFFFFFFFFFFFFFFFFFFFFFFFFFFFFFFFFFFFFFF AND DUP2 MSTORE PUSH1 0x20 ADD SWAP1 DUP2 MSTORE PUSH1 0x20 ADD PUSH0 KECCAK256 PUSH0 DUP4 PUSH1 0x20 ADD MLOAD DUP2 MSTORE PUSH1 0x20 ADD SWAP1 DUP2 MSTORE PUSH1 0x20 ADD PUSH0 KECCAK256 PUSH0 PUSH2 0x100 EXP DUP2 SLOAD DUP2 PUSH1 0xFF MUL NOT AND SWAP1 DUP4 ISZERO ISZERO MUL OR SWAP1 SSTORE POP PUSH31 0x46B9E39D2F78C5E48B82F2B6A18B0C5840DB3A910298BFBCCE219313190DC DUP2 PUSH0 ADD MLOAD DUP3 PUSH1 0x20 ADD MLOAD PUSH1 0x40 MLOAD PUSH2 0x861 SWAP3 SWAP2 SWAP1 PUSH2 0xF6B JUMP JUMPDEST PUSH1 0x40 MLOAD DUP1 SWAP2 SUB SWAP1 LOG1 POP JUMP JUMPDEST PUSH0 PUSH1 0x1 PUSH0 SWAP1 SLOAD SWAP1 PUSH2 0x100 EXP SWAP1 DIV PUSH20 0xFFFFFFFFFFFFFFFFFFFFFFFFFFFFFFFFFFFFFFFF AND SWAP1 POP SWAP1 JUMP JUMPDEST PUSH2 0x89C PUSH2 0x98E JUMP JUMPDEST DUP1 PUSH1 0x1 PUSH0 PUSH2 0x100 EXP DUP2 SLOAD DUP2 PUSH20 0xFFFFFFFFFFFFFFFFFFFFFFFFFFFFFFFFFFFFFFFF MUL NOT AND SWAP1 DUP4 PUSH20 0xFFFFFFFFFFFFFFFFFFFFFFFFFFFFFFFFFFFFFFFF AND MUL OR SWAP1 SSTORE POP DUP1 PUSH20 0xFFFFFFFFFFFFFFFFFFFFFFFFFFFFFFFFFFFFFFFF AND PUSH2 0x8FB PUSH2 0x5A3 JUMP JUMPDEST PUSH20 0xFFFFFFFFFFFFFFFFFFFFFFFFFFFFFFFFFFFFFFFF AND PUSH32 0x38D16B8CAC22D99FC7C124B9CD0DE2D3FA1FAEF420BFE791D8C362D765E22700 PUSH1 0x40 MLOAD PUSH1 0x40 MLOAD DUP1 SWAP2 SUB SWAP1 LOG3 POP JUMP JUMPDEST PUSH1 0x2 DUP1 SLOAD SUB PUSH2 0x97B JUMPI PUSH1 0x40 MLOAD PUSH32 0x3EE5AEB500000000000000000000000000000000000000000000000000000000 DUP2 MSTORE PUSH1 0x4 ADD PUSH1 0x40 MLOAD DUP1 SWAP2 SUB SWAP1 REVERT JUMPDEST PUSH1 0x2 DUP1 DUP2 SWAP1 SSTORE POP JUMP JUMPDEST PUSH1 0x1 PUSH1 0x2 DUP2 SWAP1 SSTORE POP JUMP JUMPDEST PUSH2 0x996 PUSH2 0xA45 JUMP JUMPDEST PUSH20 0xFFFFFFFFFFFFFFFFFFFFFFFFFFFFFFFFFFFFFFFF AND PUSH2 0x9B4 PUSH2 0x5A3 JUMP JUMPDEST PUSH20 0xFFFFFFFFFFFFFFFFFFFFFFFFFFFFFFFFFFFFFFFF AND EQ PUSH2 0xA13 JUMPI PUSH2 0x9D7 PUSH2 0xA45 JUMP JUMPDEST PUSH1 0x40 MLOAD PUSH32 0x118CDAA700000000000000000000000000000000000000000000000000000000 DUP2 MSTORE PUSH1 0x4 ADD PUSH2 0xA0A SWAP2 SWAP1 PUSH2 0xB4C JUMP JUMPDEST PUSH1 0x40 MLOAD DUP1 SWAP2 SUB SWAP1 REVERT JUMPDEST JUMP JUMPDEST PUSH1 0x1 PUSH0 PUSH2 0x100 EXP DUP2 SLOAD SWAP1 PUSH20 0xFFFFFFFFFFFFFFFFFFFFFFFFFFFFFFFFFFFFFFFF MUL NOT AND SWAP1 SSTORE PUSH2 0xA42 DUP2 PUSH2 0xA4C JUMP JUMPDEST POP JUMP JUMPDEST PUSH0 CALLER SWAP1 POP SWAP1 JUMP JUMPDEST PUSH0 PUSH0 PUSH0 SWAP1 SLOAD SWAP1 PUSH2 0x100 EXP SWAP1 DIV PUSH20 0xFFFFFFFFFFFFFFFFFFFFFFFFFFFFFFFFFFFFFFFF AND SWAP1 POP DUP2 PUSH0 PUSH0 PUSH2 0x100 EXP DUP2 SLOAD DUP2 PUSH20 0xFFFFFFFFFFFFFFFFFFFFFFFFFFFFFFFFFFFFFFFF MUL NOT AND SWAP1 DUP4 PUSH20 0xFFFFFFFFFFFFFFFFFFFFFFFFFFFFFFFFFFFFFFFF AND MUL OR SWAP1 SSTORE POP DUP2 PUSH20 0xFFFFFFFFFFFFFFFFFFFFFFFFFFFFFFFFFFFFFFFF AND DUP2 PUSH20 0xFFFFFFFFFFFFFFFFFFFFFFFFFFFFFFFFFFFFFFFF AND PUSH32 0x8BE0079C531659141344CD1FD0A4F28419497F9722A3DAAFE3B4186F6B6457E0 PUSH1 0x40 MLOAD PUSH1 0x40 MLOAD DUP1 SWAP2 SUB SWAP1 LOG3 POP POP JUMP JUMPDEST PUSH0 PUSH20 0xFFFFFFFFFFFFFFFFFFFFFFFFFFFFFFFFFFFFFFFF DUP3 AND SWAP1 POP SWAP2 SWAP1 POP JUMP JUMPDEST PUSH0 PUSH2 0xB36 DUP3 PUSH2 0xB0D JUMP JUMPDEST SWAP1 POP SWAP2 SWAP1 POP JUMP JUMPDEST PUSH2 0xB46 DUP2 PUSH2 0xB2C JUMP JUMPDEST DUP3 MSTORE POP POP JUMP JUMPDEST PUSH0 PUSH1 0x20 DUP3 ADD SWAP1 POP PUSH2 0xB5F PUSH0 DUP4 ADD DUP5 PUSH2 0xB3D JUMP JUMPDEST SWAP3 SWAP2 POP POP JUMP JUMPDEST PUSH0 DUP2 SWAP1 POP SWAP2 SWAP1 POP JUMP JUMPDEST PUSH2 0xB77 DUP2 PUSH2 0xB65 JUMP JUMPDEST DUP3 MSTORE POP POP JUMP JUMPDEST PUSH0 PUSH1 0x20 DUP3 ADD SWAP1 POP PUSH2 0xB90 PUSH0 DUP4 ADD DUP5 PUSH2 0xB6E JUMP JUMPDEST SWAP3 SWAP2 POP POP JUMP JUMPDEST PUSH0 PUSH1 0x40 MLOAD SWAP1 POP SWAP1 JUMP JUMPDEST PUSH0 PUSH0 REVERT JUMPDEST PUSH2 0xBAC DUP2 PUSH2 0xB2C JUMP JUMPDEST DUP2 EQ PUSH2 0xBB6 JUMPI PUSH0 PUSH0 REVERT JUMPDEST POP JUMP JUMPDEST PUSH0 DUP2 CALLDATALOAD SWAP1 POP PUSH2 0xBC7 DUP2 PUSH2 0xBA3 JUMP JUMPDEST SWAP3 SWAP2 POP POP JUMP JUMPDEST PUSH2 0xBD6 DUP2 PUSH2 0xB65 JUMP JUMPDEST DUP2 EQ PUSH2 0xBE0 JUMPI PUSH0 PUSH0 REVERT JUMPDEST POP JUMP JUMPDEST PUSH0 DUP2 CALLDATALOAD SWAP1 POP PUSH2 0xBF1 DUP2 PUSH2 0xBCD JUMP JUMPDEST SWAP3 SWAP2 POP POP JUMP JUMPDEST PUSH0 PUSH0 PUSH1 0x40 DUP4 DUP6 SUB SLT ISZERO PUSH2 0xC0D JUMPI PUSH2 0xC0C PUSH2 0xB9F JUMP JUMPDEST JUMPDEST PUSH0 PUSH2 0xC1A DUP6 DUP3 DUP7 ADD PUSH2 0xBB9 JUMP JUMPDEST SWAP3 POP POP PUSH1 0x20 PUSH2 0xC2B DUP6 DUP3 DUP7 ADD PUSH2 0xBE3 JUMP JUMPDEST SWAP2 POP POP SWAP3 POP SWAP3 SWAP1 POP JUMP JUMPDEST PUSH0 DUP2 ISZERO ISZERO SWAP1 POP SWAP2 SWAP1 POP JUMP JUMPDEST PUSH2 0xC49 DUP2 PUSH2 0xC35 JUMP JUMPDEST DUP3 MSTORE POP POP JUMP JUMPDEST PUSH0 PUSH1 0x20 DUP3 ADD SWAP1 POP PUSH2 0xC62 PUSH0 DUP4 ADD DUP5 PUSH2 0xC40 JUMP JUMPDEST SWAP3 SWAP2 POP POP JUMP JUMPDEST PUSH0 PUSH0 REVERT JUMPDEST PUSH0 PUSH1 0x1F NOT PUSH1 0x1F DUP4 ADD AND SWAP1 POP SWAP2 SWAP1 POP JUMP JUMPDEST PUSH32 0x4E487B7100000000000000000000000000000000000000000000000000000000 PUSH0 MSTORE PUSH1 0x41 PUSH1 0x4 MSTORE PUSH1 0x24 PUSH0 REVERT JUMPDEST PUSH2 0xCB2 DUP3 PUSH2 0xC6C JUMP JUMPDEST DUP2 ADD DUP2 DUP2 LT PUSH8 0xFFFFFFFFFFFFFFFF DUP3 GT OR ISZERO PUSH2 0xCD1 JUMPI PUSH2 0xCD0 PUSH2 0xC7C JUMP JUMPDEST JUMPDEST DUP1 PUSH1 0x40 MSTORE POP POP POP JUMP JUMPDEST PUSH0 PUSH2 0xCE3 PUSH2 0xB96 JUMP JUMPDEST SWAP1 POP PUSH2 0xCEF DUP3 DUP3 PUSH2 0xCA9 JUMP JUMPDEST SWAP2 SWAP1 POP JUMP JUMPDEST PUSH0 PUSH1 0x40 DUP3 DUP5 SUB SLT ISZERO PUSH2 0xD09 JUMPI PUSH2 0xD08 PUSH2 0xC68 JUMP JUMPDEST JUMPDEST PUSH2 0xD13 PUSH1 0x40 PUSH2 0xCDA JUMP JUMPDEST SWAP1 POP PUSH0 PUSH2 0xD22 DUP5 DUP3 DUP6 ADD PUSH2 0xBB9 JUMP JUMPDEST PUSH0 DUP4 ADD MSTORE POP PUSH1 0x20 PUSH2 0xD35 DUP5 DUP3 DUP6 ADD PUSH2 0xBE3 JUMP JUMPDEST PUSH1 0x20 DUP4 ADD MSTORE POP SWAP3 SWAP2 POP POP JUMP JUMPDEST PUSH0 PUSH0 PUSH1 0x60 DUP4 DUP6 SUB SLT ISZERO PUSH2 0xD57 JUMPI PUSH2 0xD56 PUSH2 0xB9F JUMP JUMPDEST JUMPDEST PUSH0 PUSH2 0xD64 DUP6 DUP3 DUP7 ADD PUSH2 0xBE3 JUMP JUMPDEST SWAP3 POP POP PUSH1 0x20 PUSH2 0xD75 DUP6 DUP3 DUP7 ADD PUSH2 0xCF4 JUMP JUMPDEST SWAP2 POP POP SWAP3 POP SWAP3 SWAP1 POP JUMP JUMPDEST PUSH2 0xD88 DUP2 PUSH2 0xC35 JUMP JUMPDEST DUP2 EQ PUSH2 0xD92 JUMPI PUSH0 PUSH0 REVERT JUMPDEST POP JUMP JUMPDEST PUSH0 DUP2 CALLDATALOAD SWAP1 POP PUSH2 0xDA3 DUP2 PUSH2 0xD7F JUMP JUMPDEST SWAP3 SWAP2 POP POP JUMP JUMPDEST PUSH0 PUSH1 0x80 DUP3 DUP5 SUB SLT ISZERO PUSH2 0xDBE JUMPI PUSH2 0xDBD PUSH2 0xC68 JUMP JUMPDEST JUMPDEST PUSH2 0xDC8 PUSH1 0x80 PUSH2 0xCDA JUMP JUMPDEST SWAP1 POP PUSH0 PUSH2 0xDD7 DUP5 DUP3 DUP6 ADD PUSH2 0xBB9 JUMP JUMPDEST PUSH0 DUP4 ADD MSTORE POP PUSH1 0x20 PUSH2 0xDEA DUP5 DUP3 DUP6 ADD PUSH2 0xBE3 JUMP JUMPDEST PUSH1 0x20 DUP4 ADD MSTORE POP PUSH1 0x40 PUSH2 0xDFE DUP5 DUP3 DUP6 ADD PUSH2 0xBE3 JUMP JUMPDEST PUSH1 0x40 DUP4 ADD MSTORE POP PUSH1 0x60 PUSH2 0xE12 DUP5 DUP3 DUP6 ADD PUSH2 0xD95 JUMP JUMPDEST PUSH1 0x60 DUP4 ADD MSTORE POP SWAP3 SWAP2 POP POP JUMP JUMPDEST PUSH0 PUSH1 0x80 DUP3 DUP5 SUB SLT ISZERO PUSH2 0xE33 JUMPI PUSH2 0xE32 PUSH2 0xB9F JUMP JUMPDEST JUMPDEST PUSH0 PUSH2 0xE40 DUP5 DUP3 DUP6 ADD PUSH2 0xDA9 JUMP JUMPDEST SWAP2 POP POP SWAP3 SWAP2 POP POP JUMP JUMPDEST PUSH0 PUSH1 0x20 DUP3 DUP5 SUB SLT ISZERO PUSH2 0xE5E JUMPI PUSH2 0xE5D PUSH2 0xB9F JUMP JUMPDEST JUMPDEST PUSH0 PUSH2 0xE6B DUP5 DUP3 DUP6 ADD PUSH2 0xBB9 JUMP JUMPDEST SWAP2 POP POP SWAP3 SWAP2 POP POP JUMP JUMPDEST PUSH32 0x4E487B7100000000000000000000000000000000000000000000000000000000 PUSH0 MSTORE PUSH1 0x32 PUSH1 0x4 MSTORE PUSH1 0x24 PUSH0 REVERT JUMPDEST PUSH0 PUSH1 0x60 DUP3 ADD SWAP1 POP PUSH2 0xEB4 PUSH0 DUP4 ADD DUP7 PUSH2 0xB3D JUMP JUMPDEST PUSH2 0xEC1 PUSH1 0x20 DUP4 ADD DUP6 PUSH2 0xB3D JUMP JUMPDEST PUSH2 0xECE PUSH1 0x40 DUP4 ADD DUP5 PUSH2 0xB6E JUMP JUMPDEST SWAP5 SWAP4 POP POP POP POP JUMP JUMPDEST PUSH0 PUSH1 0x60 DUP3 ADD SWAP1 POP PUSH2 0xEE9 PUSH0 DUP4 ADD DUP7 PUSH2 0xB3D JUMP JUMPDEST PUSH2 0xEF6 PUSH1 0x20 DUP4 ADD DUP6 PUSH2 0xB6E JUMP JUMPDEST PUSH2 0xF03 PUSH1 0x40 DUP4 ADD DUP5 PUSH2 0xB3D JUMP JUMPDEST SWAP5 SWAP4 POP POP POP POP JUMP JUMPDEST PUSH32 0x4E487B7100000000000000000000000000000000000000000000000000000000 PUSH0 MSTORE PUSH1 0x11 PUSH1 0x4 MSTORE PUSH1 0x24 PUSH0 REVERT JUMPDEST PUSH0 PUSH2 0xF42 DUP3 PUSH2 0xB65 JUMP JUMPDEST SWAP2 POP PUSH2 0xF4D DUP4 PUSH2 0xB65 JUMP JUMPDEST SWAP3 POP DUP3 DUP3 ADD SWAP1 POP DUP1 DUP3 GT ISZERO PUSH2 0xF65 JUMPI PUSH2 0xF64 PUSH2 0xF0B JUMP JUMPDEST JUMPDEST SWAP3 SWAP2 POP POP JUMP JUMPDEST PUSH0 PUSH1 0x40 DUP3 ADD SWAP1 POP PUSH2 0xF7E PUSH0 DUP4 ADD DUP6 PUSH2 0xB3D JUMP JUMPDEST PUSH2 0xF8B PUSH1 0x20 DUP4 ADD DUP5 PUSH2 0xB6E JUMP JUMPDEST SWAP4 SWAP3 POP POP POP JUMP INVALID LOG2 PUSH5 0x6970667358 0x22 SLT KECCAK256 PUSH20 0x4784EDCA94636CA32556DE2FA559FC0E2A8F5FAF LOG1 0xB3 SSTORE PUSH23 0x2DD5F6B58018364736F6C634300081E00330000000000 "
				},
				"gasEstimates": {
					"creation": {
						"codeDepositCost": "808000",
						"executionCost": "infinite",
						"totalCost": "infinite"
					},
					"external": {
						"acceptOwnership()": "54669",
						"depositeNFT((address,uint256,uint256,bool))": "infinite",
						"governor()": "2509",
						"isInPool(address,uint256)": "3115",
						"owner()": "2558",
						"pendingOwner()": "2603",
						"renounceOwnership()": "infinite",
						"totalNfts()": "2448",
						"transferOwnership(address)": "infinite",
						"userListOfPrizes(address,uint256)": "infinite",
						"withdrawNFT(uint256,(address,uint256))": "infinite"
					}
				},
				"methodIdentifiers": {
					"acceptOwnership()": "79ba5097",
					"depositeNFT((address,uint256,uint256,bool))": "c8de8ee9",
					"governor()": "0c340a24",
					"isInPool(address,uint256)": "19f74e1f",
					"owner()": "8da5cb5b",
					"pendingOwner()": "e30c3978",
					"renounceOwnership()": "715018a6",
					"totalNfts()": "0d4f9ddb",
					"transferOwnership(address)": "f2fde38b",
					"userListOfPrizes(address,uint256)": "5ed35403",
					"withdrawNFT(uint256,(address,uint256))": "23b5bd13"
				}
			},
			"storageLayout": {
				"storage": [
					{
						"astId": 8,
						"contract": "src/NFTPool.sol:NFTPool",
						"label": "_owner",
						"offset": 0,
						"slot": "0",
						"type": "t_address"
					},
					{
						"astId": 156,
						"contract": "src/NFTPool.sol:NFTPool",
						"label": "_pendingOwner",
						"offset": 0,
						"slot": "1",
						"type": "t_address"
					},
					{
						"astId": 391,
						"contract": "src/NFTPool.sol:NFTPool",
						"label": "_status",
						"offset": 0,
						"slot": "2",
						"type": "t_uint256"
					},
					{
						"astId": 480,
						"contract": "src/NFTPool.sol:NFTPool",
						"label": "vaultNfts",
						"offset": 0,
						"slot": "3",
						"type": "t_array(t_struct(VaultNFT)702_storage)dyn_storage"
					},
					{
						"astId": 486,
						"contract": "src/NFTPool.sol:NFTPool",
						"label": "isInPool",
						"offset": 0,
						"slot": "4",
						"type": "t_mapping(t_address,t_mapping(t_uint256,t_bool))"
					},
					{
						"astId": 492,
						"contract": "src/NFTPool.sol:NFTPool",
						"label": "userListOfPrizes",
						"offset": 0,
						"slot": "5",
						"type": "t_mapping(t_address,t_mapping(t_uint256,t_address))"
					},
					{
						"astId": 494,
						"contract": "src/NFTPool.sol:NFTPool",
						"label": "governor",
						"offset": 0,
						"slot": "6",
						"type": "t_address"
					},
					{
						"astId": 496,
						"contract": "src/NFTPool.sol:NFTPool",
						"label": "totalNfts",
						"offset": 0,
						"slot": "7",
						"type": "t_uint256"
					}
				],
				"types": {
					"t_address": {
						"encoding": "inplace",
						"label": "address",
						"numberOfBytes": "20"
					},
					"t_array(t_struct(VaultNFT)702_storage)dyn_storage": {
						"base": "t_struct(VaultNFT)702_storage",
						"encoding": "dynamic_array",
						"label": "struct VaultNFT[]",
						"numberOfBytes": "32"
					},
					"t_bool": {
						"encoding": "inplace",
						"label": "bool",
						"numberOfBytes": "1"
					},
					"t_mapping(t_address,t_mapping(t_uint256,t_address))": {
						"encoding": "mapping",
						"key": "t_address",
						"label": "mapping(address => mapping(uint256 => address))",
						"numberOfBytes": "32",
						"value": "t_mapping(t_uint256,t_address)"
					},
					"t_mapping(t_address,t_mapping(t_uint256,t_bool))": {
						"encoding": "mapping",
						"key": "t_address",
						"label": "mapping(address => mapping(uint256 => bool))",
						"numberOfBytes": "32",
						"value": "t_mapping(t_uint256,t_bool)"
					},
					"t_mapping(t_uint256,t_address)": {
						"encoding": "mapping",
						"key": "t_uint256",
						"label": "mapping(uint256 => address)",
						"numberOfBytes": "32",
						"value": "t_address"
					},
					"t_mapping(t_uint256,t_bool)": {
						"encoding": "mapping",
						"key": "t_uint256",
						"label": "mapping(uint256 => bool)",
						"numberOfBytes": "32",
						"value": "t_bool"
					},
					"t_struct(VaultNFT)702_storage": {
						"encoding": "inplace",
						"label": "struct VaultNFT",
						"members": [
							{
								"astId": 695,
								"contract": "src/NFTPool.sol:NFTPool",
								"label": "collection",
								"offset": 0,
								"slot": "0",
								"type": "t_address"
							},
							{
								"astId": 697,
								"contract": "src/NFTPool.sol:NFTPool",
								"label": "tokenId",
								"offset": 0,
								"slot": "1",
								"type": "t_uint256"
							},
							{
								"astId": 699,
								"contract": "src/NFTPool.sol:NFTPool",
								"label": "weight",
								"offset": 0,
								"slot": "2",
								"type": "t_uint256"
							},
							{
								"astId": 701,
								"contract": "src/NFTPool.sol:NFTPool",
								"label": "claimed",
								"offset": 0,
								"slot": "3",
								"type": "t_bool"
							}
						],
						"numberOfBytes": "128"
					},
					"t_uint256": {
						"encoding": "inplace",
						"label": "uint256",
						"numberOfBytes": "32"
					}
				}
			},
			"userdoc": {
				"kind": "user",
				"methods": {
					"depositeNFT((address,uint256,uint256,bool))": {
						"notice": "存入池子NFT"
					}
				},
				"version": 1
			}
		}
	}
}