{
	"src/NFTPoolManager.sol": {
		"NFTPoolManager": {
			"abi": [
				{
					"inputs": [],
					"stateMutability": "nonpayable",
					"type": "constructor"
				},
				{
					"inputs": [],
					"name": "ErrorPool",
					"type": "error"
				},
				{
					"inputs": [],
					"name": "NoCaller",
					"type": "error"
				},
				{
					"inputs": [
						{
							"internalType": "address",
							"name": "owner",
							"type": "address"
						}
					],
					"name": "OwnableInvalidOwner",
					"type": "error"
				},
				{
					"inputs": [
						{
							"internalType": "address",
							"name": "account",
							"type": "address"
						}
					],
					"name": "OwnableUnauthorizedAccount",
					"type": "error"
				},
				{
					"inputs": [],
					"name": "ReentrancyGuardReentrantCall",
					"type": "error"
				},
				{
					"inputs": [],
					"name": "invalidData",
					"type": "error"
				},
				{
					"anonymous": false,
					"inputs": [
						{
							"indexed": true,
							"internalType": "address",
							"name": "caller",
							"type": "address"
						},
						{
							"indexed": false,
							"internalType": "bool",
							"name": "allowed",
							"type": "bool"
						}
					],
					"name": "CallerSet",
					"type": "event"
				},
				{
					"anonymous": false,
					"inputs": [
						{
							"indexed": true,
							"internalType": "address",
							"name": "from",
							"type": "address"
						},
						{
							"indexed": true,
							"internalType": "address",
							"name": "token",
							"type": "address"
						},
						{
							"indexed": true,
							"internalType": "uint256",
							"name": "tokenId",
							"type": "uint256"
						},
						{
							"indexed": false,
							"internalType": "uint8",
							"name": "rarity",
							"type": "uint8"
						}
					],
					"name": "Deposited",
					"type": "event"
				},
				{
					"anonymous": false,
					"inputs": [
						{
							"indexed": true,
							"internalType": "address",
							"name": "to",
							"type": "address"
						},
						{
							"indexed": true,
							"internalType": "address",
							"name": "token",
							"type": "address"
						},
						{
							"indexed": true,
							"internalType": "uint256",
							"name": "tokenId",
							"type": "uint256"
						},
						{
							"indexed": false,
							"internalType": "uint8",
							"name": "rarity",
							"type": "uint8"
						}
					],
					"name": "ItemClaimed",
					"type": "event"
				},
				{
					"anonymous": false,
					"inputs": [
						{
							"indexed": true,
							"internalType": "address",
							"name": "previousOwner",
							"type": "address"
						},
						{
							"indexed": true,
							"internalType": "address",
							"name": "newOwner",
							"type": "address"
						}
					],
					"name": "OwnershipTransferred",
					"type": "event"
				},
				{
					"anonymous": false,
					"inputs": [
						{
							"indexed": true,
							"internalType": "address",
							"name": "to",
							"type": "address"
						},
						{
							"indexed": true,
							"internalType": "address",
							"name": "token",
							"type": "address"
						},
						{
							"indexed": true,
							"internalType": "uint256",
							"name": "tokenId",
							"type": "uint256"
						}
					],
					"name": "Withdrawn",
					"type": "event"
				},
				{
					"inputs": [
						{
							"internalType": "address",
							"name": "token",
							"type": "address"
						},
						{
							"internalType": "uint256",
							"name": "tokenId",
							"type": "uint256"
						},
						{
							"internalType": "uint8",
							"name": "rarity",
							"type": "uint8"
						},
						{
							"internalType": "address",
							"name": "to",
							"type": "address"
						}
					],
					"name": "adminWithdrawToken",
					"outputs": [],
					"stateMutability": "nonpayable",
					"type": "function"
				},
				{
					"inputs": [
						{
							"internalType": "address",
							"name": "",
							"type": "address"
						}
					],
					"name": "authorizedCaller",
					"outputs": [
						{
							"internalType": "bool",
							"name": "",
							"type": "bool"
						}
					],
					"stateMutability": "view",
					"type": "function"
				},
				{
					"inputs": [
						{
							"internalType": "address",
							"name": "token",
							"type": "address"
						},
						{
							"internalType": "uint256",
							"name": "tokenId",
							"type": "uint256"
						},
						{
							"internalType": "uint8",
							"name": "rarity",
							"type": "uint8"
						}
					],
					"name": "isInpool",
					"outputs": [
						{
							"internalType": "bool",
							"name": "",
							"type": "bool"
						}
					],
					"stateMutability": "view",
					"type": "function"
				},
				{
					"inputs": [
						{
							"internalType": "uint8",
							"name": "rarity",
							"type": "uint8"
						},
						{
							"internalType": "uint256",
							"name": "index",
							"type": "uint256"
						}
					],
					"name": "itemAt",
					"outputs": [
						{
							"internalType": "address",
							"name": "token",
							"type": "address"
						},
						{
							"internalType": "uint256",
							"name": "id",
							"type": "uint256"
						}
					],
					"stateMutability": "view",
					"type": "function"
				},
				{
					"inputs": [
						{
							"internalType": "address",
							"name": "operator",
							"type": "address"
						},
						{
							"internalType": "address",
							"name": "from",
							"type": "address"
						},
						{
							"internalType": "uint256",
							"name": "tokenId",
							"type": "uint256"
						},
						{
							"internalType": "bytes",
							"name": "data",
							"type": "bytes"
						}
					],
					"name": "onERC721Received",
					"outputs": [
						{
							"internalType": "bytes4",
							"name": "",
							"type": "bytes4"
						}
					],
					"stateMutability": "nonpayable",
					"type": "function"
				},
				{
					"inputs": [],
					"name": "owner",
					"outputs": [
						{
							"internalType": "address",
							"name": "",
							"type": "address"
						}
					],
					"stateMutability": "view",
					"type": "function"
				},
				{
					"inputs": [
						{
							"internalType": "uint8",
							"name": "rarity",
							"type": "uint8"
						}
					],
					"name": "poolLength",
					"outputs": [
						{
							"internalType": "uint256",
							"name": "",
							"type": "uint256"
						}
					],
					"stateMutability": "view",
					"type": "function"
				},
				{
					"inputs": [
						{
							"internalType": "uint8",
							"name": "",
							"type": "uint8"
						},
						{
							"internalType": "uint256",
							"name": "",
							"type": "uint256"
						}
					],
					"name": "pools",
					"outputs": [
						{
							"internalType": "address",
							"name": "token",
							"type": "address"
						},
						{
							"internalType": "uint256",
							"name": "id",
							"type": "uint256"
						}
					],
					"stateMutability": "view",
					"type": "function"
				},
				{
					"inputs": [
						{
							"internalType": "uint8",
							"name": "rarity",
							"type": "uint8"
						},
						{
							"internalType": "uint256",
							"name": "randomness",
							"type": "uint256"
						},
						{
							"internalType": "address",
							"name": "to",
							"type": "address"
						}
					],
					"name": "popItem",
					"outputs": [
						{
							"internalType": "address",
							"name": "token",
							"type": "address"
						},
						{
							"internalType": "uint256",
							"name": "tokenId",
							"type": "uint256"
						}
					],
					"stateMutability": "nonpayable",
					"type": "function"
				},
				{
					"inputs": [],
					"name": "renounceOwnership",
					"outputs": [],
					"stateMutability": "nonpayable",
					"type": "function"
				},
				{
					"inputs": [
						{
							"internalType": "address",
							"name": "token",
							"type": "address"
						},
						{
							"internalType": "uint256",
							"name": "tokenId",
							"type": "uint256"
						},
						{
							"internalType": "address",
							"name": "to",
							"type": "address"
						}
					],
					"name": "rescueERC721",
					"outputs": [],
					"stateMutability": "nonpayable",
					"type": "function"
				},
				{
					"inputs": [
						{
							"internalType": "address",
							"name": "caller",
							"type": "address"
						},
						{
							"internalType": "bool",
							"name": "allowed",
							"type": "bool"
						}
					],
					"name": "setAuthorizedCaller",
					"outputs": [],
					"stateMutability": "nonpayable",
					"type": "function"
				},
				{
					"inputs": [
						{
							"internalType": "address",
							"name": "newOwner",
							"type": "address"
						}
					],
					"name": "transferOwnership",
					"outputs": [],
					"stateMutability": "nonpayable",
					"type": "function"
				}
			],
			"devdoc": {
				"errors": {
					"OwnableInvalidOwner(address)": [
						{
							"details": "The owner is not a valid owner account. (eg. `address(0)`)"
						}
					],
					"OwnableUnauthorizedAccount(address)": [
						{
							"details": "The caller account is not authorized to perform an operation."
						}
					],
					"ReentrancyGuardReentrantCall()": [
						{
							"details": "Unauthorized reentrant call."
						}
					]
				},
				"kind": "dev",
				"methods": {
					"adminWithdrawToken(address,uint256,uint8,address)": {
						"details": "管理员提取指定NFT（仅合约所有者可调用） 功能：若NFT在池中，先从池中移除，再将NFT转账给接收者",
						"params": {
							"rarity": "稀有度等级",
							"to": "NFT接收者地址",
							"token": "NFT合约地址",
							"tokenId": "NFT的tokenId"
						}
					},
					"onERC721Received(address,address,uint256,bytes)": {
						"params": {
							"data": "//附加数据",
							"from": "//NFT原持有者",
							"operator": "//触发转账的交易员",
							"tokenId": "//转入的NFT ID"
						}
					},
					"owner()": {
						"details": "Returns the address of the current owner."
					},
					"renounceOwnership()": {
						"details": "Leaves the contract without owner. It will not be possible to call `onlyOwner` functions. Can only be called by the current owner. NOTE: Renouncing ownership will leave the contract without an owner, thereby disabling any functionality that is only available to the owner."
					},
					"rescueERC721(address,uint256,address)": {
						"details": "管理员救援误转入的NFT（仅合约所有者可调用） 功能：用于提取未通过onERC721Received存入、直接转入的NFT",
						"params": {
							"to": "接收者地址",
							"token": "NFT合约地址",
							"tokenId": "NFT的tokenId"
						}
					},
					"transferOwnership(address)": {
						"details": "Transfers ownership of the contract to a new account (`newOwner`). Can only be called by the current owner."
					}
				},
				"version": 1
			},
			"evm": {
				"assembly": "    /* \"src/NFTPoolManager.sol\":356:7775  contract NFTPoolManager is IERC721Receiver, ReentrancyGuard, Ownable{... */\n  mstore(0x40, 0x80)\n    /* \"src/NFTPoolManager.sol\":1626:1661  constructor() Ownable(msg.sender){} */\n  callvalue\n  dup1\n  iszero\n  tag_1\n  jumpi\n  revert(0x00, 0x00)\ntag_1:\n  pop\n    /* \"src/NFTPoolManager.sol\":1648:1658  msg.sender */\n  caller\n    /* \"lib/openzeppelin-contracts/contracts/utils/ReentrancyGuard.sol\":2341:2342  1 */\n  0x01\n    /* \"lib/openzeppelin-contracts/contracts/utils/ReentrancyGuard.sol\":2515:2561  _reentrancyGuardStorageSlot().getUint256Slot() */\n  tag_6\n    /* \"lib/openzeppelin-contracts/contracts/utils/ReentrancyGuard.sol\":2515:2544  _reentrancyGuardStorageSlot() */\n  tag_7\n    /* \"lib/openzeppelin-contracts/contracts/utils/ReentrancyGuard.sol\":2515:2542  _reentrancyGuardStorageSlot */\n  shl(0x20, tag_8)\n    /* \"lib/openzeppelin-contracts/contracts/utils/ReentrancyGuard.sol\":2515:2544  _reentrancyGuardStorageSlot() */\n  0x20\n  shr\n  jump\t// in\ntag_7:\n    /* \"lib/openzeppelin-contracts/contracts/utils/ReentrancyGuard.sol\":2515:2559  _reentrancyGuardStorageSlot().getUint256Slot */\n  shl(0x20, tag_9)\n    /* \"lib/openzeppelin-contracts/contracts/utils/ReentrancyGuard.sol\":2515:2561  _reentrancyGuardStorageSlot().getUint256Slot() */\n  0x20\n  shr\n  jump\t// in\ntag_6:\n    /* \"lib/openzeppelin-contracts/contracts/utils/ReentrancyGuard.sol\":2515:2567  _reentrancyGuardStorageSlot().getUint256Slot().value */\n  0x00\n  add\n    /* \"lib/openzeppelin-contracts/contracts/utils/ReentrancyGuard.sol\":2515:2581  _reentrancyGuardStorageSlot().getUint256Slot().value = NOT_ENTERED */\n  dup2\n  swap1\n  sstore\n  pop\n    /* \"lib/openzeppelin-contracts/contracts/access/Ownable.sol\":1297:1298  0 */\n  0x00\n    /* \"lib/openzeppelin-contracts/contracts/access/Ownable.sol\":1273:1299  initialOwner == address(0) */\n  0xffffffffffffffffffffffffffffffffffffffff\n  and\n    /* \"lib/openzeppelin-contracts/contracts/access/Ownable.sol\":1273:1285  initialOwner */\n  dup2\n    /* \"lib/openzeppelin-contracts/contracts/access/Ownable.sol\":1273:1299  initialOwner == address(0) */\n  0xffffffffffffffffffffffffffffffffffffffff\n  and\n  sub\n    /* \"lib/openzeppelin-contracts/contracts/access/Ownable.sol\":1269:1364  if (initialOwner == address(0)) {... */\n  tag_11\n  jumpi\n    /* \"lib/openzeppelin-contracts/contracts/access/Ownable.sol\":1350:1351  0 */\n  0x00\n    /* \"lib/openzeppelin-contracts/contracts/access/Ownable.sol\":1322:1353  OwnableInvalidOwner(address(0)) */\n  mload(0x40)\n  0x1e4fbdf700000000000000000000000000000000000000000000000000000000\n  dup2\n  mstore\n  0x04\n  add\n  tag_12\n  swap2\n  swap1\n  tag_13\n  jump\t// in\ntag_12:\n  mload(0x40)\n  dup1\n  swap2\n  sub\n  swap1\n  revert\n    /* \"lib/openzeppelin-contracts/contracts/access/Ownable.sol\":1269:1364  if (initialOwner == address(0)) {... */\ntag_11:\n    /* \"lib/openzeppelin-contracts/contracts/access/Ownable.sol\":1373:1405  _transferOwnership(initialOwner) */\n  tag_14\n    /* \"lib/openzeppelin-contracts/contracts/access/Ownable.sol\":1392:1404  initialOwner */\n  dup2\n    /* \"lib/openzeppelin-contracts/contracts/access/Ownable.sol\":1373:1391  _transferOwnership */\n  shl(0x20, tag_15)\n    /* \"lib/openzeppelin-contracts/contracts/access/Ownable.sol\":1373:1405  _transferOwnership(initialOwner) */\n  0x20\n  shr\n  jump\t// in\ntag_14:\n    /* \"lib/openzeppelin-contracts/contracts/access/Ownable.sol\":1225:1412  constructor(address initialOwner) {... */\n  pop\n    /* \"src/NFTPoolManager.sol\":356:7775  contract NFTPoolManager is IERC721Receiver, ReentrancyGuard, Ownable{... */\n  jump(tag_17)\n    /* \"lib/openzeppelin-contracts/contracts/utils/ReentrancyGuard.sol\":4612:4739  function _reentrancyGuardStorageSlot() internal pure virtual returns (bytes32) {... */\ntag_8:\n    /* \"lib/openzeppelin-contracts/contracts/utils/ReentrancyGuard.sol\":4682:4689  bytes32 */\n  0x00\n    /* \"lib/openzeppelin-contracts/contracts/utils/ReentrancyGuard.sol\":1481:1547  0x9b779b17422d0df92223018b32b4d1fa46e071723d6817e2486d003becc55f00 */\n  0x9b779b17422d0df92223018b32b4d1fa46e071723d6817e2486d003becc55f00\n    /* \"lib/openzeppelin-contracts/contracts/utils/ReentrancyGuard.sol\":4708:4732  REENTRANCY_GUARD_STORAGE */\n  0x00\n  shl\n    /* \"lib/openzeppelin-contracts/contracts/utils/ReentrancyGuard.sol\":4701:4732  return REENTRANCY_GUARD_STORAGE */\n  swap1\n  pop\n    /* \"lib/openzeppelin-contracts/contracts/utils/ReentrancyGuard.sol\":4612:4739  function _reentrancyGuardStorageSlot() internal pure virtual returns (bytes32) {... */\n  swap1\n  jump\t// out\n    /* \"lib/openzeppelin-contracts/contracts/utils/StorageSlot.sol\":2679:2842  function getUint256Slot(bytes32 slot) internal pure returns (Uint256Slot storage r) {... */\ntag_9:\n    /* \"lib/openzeppelin-contracts/contracts/utils/StorageSlot.sol\":2740:2761  Uint256Slot storage r */\n  0x00\n    /* \"lib/openzeppelin-contracts/contracts/utils/StorageSlot.sol\":2822:2826  slot */\n  dup2\n    /* \"lib/openzeppelin-contracts/contracts/utils/StorageSlot.sol\":2812:2826  r.slot := slot */\n  swap1\n  pop\n    /* \"lib/openzeppelin-contracts/contracts/utils/StorageSlot.sol\":2679:2842  function getUint256Slot(bytes32 slot) internal pure returns (Uint256Slot storage r) {... */\n  swap2\n  swap1\n  pop\n  jump\t// out\n    /* \"lib/openzeppelin-contracts/contracts/access/Ownable.sol\":2912:3099  function _transferOwnership(address newOwner) internal virtual {... */\ntag_15:\n    /* \"lib/openzeppelin-contracts/contracts/access/Ownable.sol\":2985:3001  address oldOwner */\n  0x00\n    /* \"lib/openzeppelin-contracts/contracts/access/Ownable.sol\":3004:3010  _owner */\n  0x00\n  0x00\n  swap1\n  sload\n  swap1\n  0x0100\n  exp\n  swap1\n  div\n  0xffffffffffffffffffffffffffffffffffffffff\n  and\n    /* \"lib/openzeppelin-contracts/contracts/access/Ownable.sol\":2985:3010  address oldOwner = _owner */\n  swap1\n  pop\n    /* \"lib/openzeppelin-contracts/contracts/access/Ownable.sol\":3029:3037  newOwner */\n  dup2\n    /* \"lib/openzeppelin-contracts/contracts/access/Ownable.sol\":3020:3026  _owner */\n  0x00\n  0x00\n    /* \"lib/openzeppelin-contracts/contracts/access/Ownable.sol\":3020:3037  _owner = newOwner */\n  0x0100\n  exp\n  dup2\n  sload\n  dup2\n  0xffffffffffffffffffffffffffffffffffffffff\n  mul\n  not\n  and\n  swap1\n  dup4\n  0xffffffffffffffffffffffffffffffffffffffff\n  and\n  mul\n  or\n  swap1\n  sstore\n  pop\n    /* \"lib/openzeppelin-contracts/contracts/access/Ownable.sol\":3083:3091  newOwner */\n  dup2\n    /* \"lib/openzeppelin-contracts/contracts/access/Ownable.sol\":3052:3092  OwnershipTransferred(oldOwner, newOwner) */\n  0xffffffffffffffffffffffffffffffffffffffff\n  and\n    /* \"lib/openzeppelin-contracts/contracts/access/Ownable.sol\":3073:3081  oldOwner */\n  dup2\n    /* \"lib/openzeppelin-contracts/contracts/access/Ownable.sol\":3052:3092  OwnershipTransferred(oldOwner, newOwner) */\n  0xffffffffffffffffffffffffffffffffffffffff\n  and\n  0x8be0079c531659141344cd1fd0a4f28419497f9722a3daafe3b4186f6b6457e0\n  mload(0x40)\n  mload(0x40)\n  dup1\n  swap2\n  sub\n  swap1\n  log3\n    /* \"lib/openzeppelin-contracts/contracts/access/Ownable.sol\":2975:3099  {... */\n  pop\n    /* \"lib/openzeppelin-contracts/contracts/access/Ownable.sol\":2912:3099  function _transferOwnership(address newOwner) internal virtual {... */\n  pop\n  jump\t// out\n    /* \"#utility.yul\":7:133   */\ntag_21:\n    /* \"#utility.yul\":44:51   */\n  0x00\n    /* \"#utility.yul\":84:126   */\n  0xffffffffffffffffffffffffffffffffffffffff\n    /* \"#utility.yul\":77:82   */\n  dup3\n    /* \"#utility.yul\":73:127   */\n  and\n    /* \"#utility.yul\":62:127   */\n  swap1\n  pop\n    /* \"#utility.yul\":7:133   */\n  swap2\n  swap1\n  pop\n  jump\t// out\n    /* \"#utility.yul\":139:235   */\ntag_22:\n    /* \"#utility.yul\":176:183   */\n  0x00\n    /* \"#utility.yul\":205:229   */\n  tag_27\n    /* \"#utility.yul\":223:228   */\n  dup3\n    /* \"#utility.yul\":205:229   */\n  tag_21\n  jump\t// in\ntag_27:\n    /* \"#utility.yul\":194:229   */\n  swap1\n  pop\n    /* \"#utility.yul\":139:235   */\n  swap2\n  swap1\n  pop\n  jump\t// out\n    /* \"#utility.yul\":241:359   */\ntag_23:\n    /* \"#utility.yul\":328:352   */\n  tag_29\n    /* \"#utility.yul\":346:351   */\n  dup2\n    /* \"#utility.yul\":328:352   */\n  tag_22\n  jump\t// in\ntag_29:\n    /* \"#utility.yul\":323:326   */\n  dup3\n    /* \"#utility.yul\":316:353   */\n  mstore\n    /* \"#utility.yul\":241:359   */\n  pop\n  pop\n  jump\t// out\n    /* \"#utility.yul\":365:587   */\ntag_13:\n    /* \"#utility.yul\":458:462   */\n  0x00\n    /* \"#utility.yul\":496:498   */\n  0x20\n    /* \"#utility.yul\":485:494   */\n  dup3\n    /* \"#utility.yul\":481:499   */\n  add\n    /* \"#utility.yul\":473:499   */\n  swap1\n  pop\n    /* \"#utility.yul\":509:580   */\n  tag_31\n    /* \"#utility.yul\":577:578   */\n  0x00\n    /* \"#utility.yul\":566:575   */\n  dup4\n    /* \"#utility.yul\":562:579   */\n  add\n    /* \"#utility.yul\":553:559   */\n  dup5\n    /* \"#utility.yul\":509:580   */\n  tag_23\n  jump\t// in\ntag_31:\n    /* \"#utility.yul\":365:587   */\n  swap3\n  swap2\n  pop\n  pop\n  jump\t// out\n    /* \"src/NFTPoolManager.sol\":356:7775  contract NFTPoolManager is IERC721Receiver, ReentrancyGuard, Ownable{... */\ntag_17:\n  dataSize(sub_0)\n  dup1\n  dataOffset(sub_0)\n  0x00\n  codecopy\n  0x00\n  return\nstop\n\nsub_0: assembly {\n        /* \"src/NFTPoolManager.sol\":356:7775  contract NFTPoolManager is IERC721Receiver, ReentrancyGuard, Ownable{... */\n      mstore(0x40, 0x80)\n      callvalue\n      dup1\n      iszero\n      tag_1\n      jumpi\n      revert(0x00, 0x00)\n    tag_1:\n      pop\n      jumpi(tag_2, lt(calldatasize, 0x04))\n      shr(0xe0, calldataload(0x00))\n      dup1\n      0x8da5cb5b\n      gt\n      tag_16\n      jumpi\n      dup1\n      0xcd40fae5\n      gt\n      tag_17\n      jumpi\n      dup1\n      0xcd40fae5\n      eq\n      tag_12\n      jumpi\n      dup1\n      0xd71e7b5c\n      eq\n      tag_13\n      jumpi\n      dup1\n      0xf2fde38b\n      eq\n      tag_14\n      jumpi\n      dup1\n      0xfa3e4705\n      eq\n      tag_15\n      jumpi\n      jump(tag_2)\n    tag_17:\n      dup1\n      0x8da5cb5b\n      eq\n      tag_9\n      jumpi\n      dup1\n      0x98f6ef12\n      eq\n      tag_10\n      jumpi\n      dup1\n      0xb52e5422\n      eq\n      tag_11\n      jumpi\n      jump(tag_2)\n    tag_16:\n      dup1\n      0x150b7a02\n      eq\n      tag_3\n      jumpi\n      dup1\n      0x454bbd29\n      eq\n      tag_4\n      jumpi\n      dup1\n      0x4f7b7719\n      eq\n      tag_5\n      jumpi\n      dup1\n      0x715018a6\n      eq\n      tag_6\n      jumpi\n      dup1\n      0x78a32e21\n      eq\n      tag_7\n      jumpi\n      dup1\n      0x7bc689b7\n      eq\n      tag_8\n      jumpi\n    tag_2:\n      revert(0x00, 0x00)\n        /* \"src/NFTPoolManager.sol\":1885:2996  function onERC721Received(... */\n    tag_3:\n      tag_18\n      0x04\n      dup1\n      calldatasize\n      sub\n      dup2\n      add\n      swap1\n      tag_19\n      swap2\n      swap1\n      tag_20\n      jump\t// in\n    tag_19:\n      tag_21\n      jump\t// in\n    tag_18:\n      mload(0x40)\n      tag_22\n      swap2\n      swap1\n      tag_23\n      jump\t// in\n    tag_22:\n      mload(0x40)\n      dup1\n      swap2\n      sub\n      swap1\n      return\n        /* \"src/NFTPoolManager.sol\":3024:3195  function setAuthorizedCaller(address caller,bool allowed) external onlyOwner{... */\n    tag_4:\n      tag_24\n      0x04\n      dup1\n      calldatasize\n      sub\n      dup2\n      add\n      swap1\n      tag_25\n      swap2\n      swap1\n      tag_26\n      jump\t// in\n    tag_25:\n      tag_27\n      jump\t// in\n    tag_24:\n      stop\n        /* \"src/NFTPoolManager.sol\":4539:4727  function itemAt(uint8 rarity,uint256 index) external view returns(address token,uint256 id){... */\n    tag_5:\n      tag_28\n      0x04\n      dup1\n      calldatasize\n      sub\n      dup2\n      add\n      swap1\n      tag_29\n      swap2\n      swap1\n      tag_30\n      jump\t// in\n    tag_29:\n      tag_31\n      jump\t// in\n    tag_28:\n      mload(0x40)\n      tag_32\n      swap3\n      swap2\n      swap1\n      tag_33\n      jump\t// in\n    tag_32:\n      mload(0x40)\n      dup1\n      swap2\n      sub\n      swap1\n      return\n        /* \"lib/openzeppelin-contracts/contracts/access/Ownable.sol\":2293:2394  function renounceOwnership() public virtual onlyOwner {... */\n    tag_6:\n      tag_34\n      tag_35\n      jump\t// in\n    tag_34:\n      stop\n        /* \"src/NFTPoolManager.sol\":503:540  mapping(uint8 => Item[]) public pools */\n    tag_7:\n      tag_36\n      0x04\n      dup1\n      calldatasize\n      sub\n      dup2\n      add\n      swap1\n      tag_37\n      swap2\n      swap1\n      tag_30\n      jump\t// in\n    tag_37:\n      tag_38\n      jump\t// in\n    tag_36:\n      mload(0x40)\n      tag_39\n      swap3\n      swap2\n      swap1\n      tag_33\n      jump\t// in\n    tag_39:\n      mload(0x40)\n      dup1\n      swap2\n      sub\n      swap1\n      return\n        /* \"src/NFTPoolManager.sol\":5406:6678  function adminWithdrawToken(address token, uint256 tokenId, uint8 rarity, address to) external onlyOwner nonReentrant {... */\n    tag_8:\n      tag_40\n      0x04\n      dup1\n      calldatasize\n      sub\n      dup2\n      add\n      swap1\n      tag_41\n      swap2\n      swap1\n      tag_42\n      jump\t// in\n    tag_41:\n      tag_43\n      jump\t// in\n    tag_40:\n      stop\n        /* \"lib/openzeppelin-contracts/contracts/access/Ownable.sol\":1638:1723  function owner() public view virtual returns (address) {... */\n    tag_9:\n      tag_44\n      tag_45\n      jump\t// in\n    tag_44:\n      mload(0x40)\n      tag_46\n      swap2\n      swap1\n      tag_47\n      jump\t// in\n    tag_46:\n      mload(0x40)\n      dup1\n      swap2\n      sub\n      swap1\n      return\n        /* \"src/NFTPoolManager.sol\":746:794  mapping(address => bool) public authorizedCaller */\n    tag_10:\n      tag_48\n      0x04\n      dup1\n      calldatasize\n      sub\n      dup2\n      add\n      swap1\n      tag_49\n      swap2\n      swap1\n      tag_50\n      jump\t// in\n    tag_49:\n      tag_51\n      jump\t// in\n    tag_48:\n      mload(0x40)\n      tag_52\n      swap2\n      swap1\n      tag_53\n      jump\t// in\n    tag_52:\n      mload(0x40)\n      dup1\n      swap2\n      sub\n      swap1\n      return\n        /* \"src/NFTPoolManager.sol\":4421:4531  function poolLength(uint8 rarity) external view returns(uint256){... */\n    tag_11:\n      tag_54\n      0x04\n      dup1\n      calldatasize\n      sub\n      dup2\n      add\n      swap1\n      tag_55\n      swap2\n      swap1\n      tag_56\n      jump\t// in\n    tag_55:\n      tag_57\n      jump\t// in\n    tag_54:\n      mload(0x40)\n      tag_58\n      swap2\n      swap1\n      tag_59\n      jump\t// in\n    tag_58:\n      mload(0x40)\n      dup1\n      swap2\n      sub\n      swap1\n      return\n        /* \"src/NFTPoolManager.sol\":4735:4921  function isInpool(address token,uint256 tokenId,uint8 rarity) external view returns(bool){... */\n    tag_12:\n      tag_60\n      0x04\n      dup1\n      calldatasize\n      sub\n      dup2\n      add\n      swap1\n      tag_61\n      swap2\n      swap1\n      tag_62\n      jump\t// in\n    tag_61:\n      tag_63\n      jump\t// in\n    tag_60:\n      mload(0x40)\n      tag_64\n      swap2\n      swap1\n      tag_53\n      jump\t// in\n    tag_64:\n      mload(0x40)\n      dup1\n      swap2\n      sub\n      swap1\n      return\n        /* \"src/NFTPoolManager.sol\":3240:4383  function popItem(... */\n    tag_13:\n      tag_65\n      0x04\n      dup1\n      calldatasize\n      sub\n      dup2\n      add\n      swap1\n      tag_66\n      swap2\n      swap1\n      tag_67\n      jump\t// in\n    tag_66:\n      tag_68\n      jump\t// in\n    tag_65:\n      mload(0x40)\n      tag_69\n      swap3\n      swap2\n      swap1\n      tag_33\n      jump\t// in\n    tag_69:\n      mload(0x40)\n      dup1\n      swap2\n      sub\n      swap1\n      return\n        /* \"lib/openzeppelin-contracts/contracts/access/Ownable.sol\":2543:2758  function transferOwnership(address newOwner) public virtual onlyOwner {... */\n    tag_14:\n      tag_70\n      0x04\n      dup1\n      calldatasize\n      sub\n      dup2\n      add\n      swap1\n      tag_71\n      swap2\n      swap1\n      tag_50\n      jump\t// in\n    tag_71:\n      tag_72\n      jump\t// in\n    tag_70:\n      stop\n        /* \"src/NFTPoolManager.sol\":7597:7772  function rescueERC721(address token, uint256 tokenId, address to) external onlyOwner nonReentrant{... */\n    tag_15:\n      tag_73\n      0x04\n      dup1\n      calldatasize\n      sub\n      dup2\n      add\n      swap1\n      tag_74\n      swap2\n      swap1\n      tag_75\n      jump\t// in\n    tag_74:\n      tag_76\n      jump\t// in\n    tag_73:\n      stop\n        /* \"src/NFTPoolManager.sol\":1885:2996  function onERC721Received(... */\n    tag_21:\n        /* \"src/NFTPoolManager.sol\":2042:2048  bytes4 */\n      0x00\n        /* \"src/NFTPoolManager.sol\":2107:2109  32 */\n      0x20\n        /* \"src/NFTPoolManager.sol\":2093:2097  data */\n      dup4\n      dup4\n        /* \"src/NFTPoolManager.sol\":2093:2104  data.length */\n      swap1\n      pop\n        /* \"src/NFTPoolManager.sol\":2093:2109  data.length !=32 */\n      eq\n      iszero\n        /* \"src/NFTPoolManager.sol\":2093:2128  data.length !=32 && data.length !=1 */\n      dup1\n      iszero\n      tag_78\n      jumpi\n      pop\n        /* \"src/NFTPoolManager.sol\":2127:2128  1 */\n      0x01\n        /* \"src/NFTPoolManager.sol\":2113:2117  data */\n      dup4\n      dup4\n        /* \"src/NFTPoolManager.sol\":2113:2124  data.length */\n      swap1\n      pop\n        /* \"src/NFTPoolManager.sol\":2113:2128  data.length !=1 */\n      eq\n      iszero\n        /* \"src/NFTPoolManager.sol\":2093:2128  data.length !=32 && data.length !=1 */\n    tag_78:\n        /* \"src/NFTPoolManager.sol\":2090:2176  if(data.length !=32 && data.length !=1){... */\n      iszero\n      tag_79\n      jumpi\n        /* \"src/NFTPoolManager.sol\":2151:2164  invalidData() */\n      mload(0x40)\n      0xebb0baad00000000000000000000000000000000000000000000000000000000\n      dup2\n      mstore\n      0x04\n      add\n      mload(0x40)\n      dup1\n      swap2\n      sub\n      swap1\n      revert\n        /* \"src/NFTPoolManager.sol\":2090:2176  if(data.length !=32 && data.length !=1){... */\n    tag_79:\n        /* \"src/NFTPoolManager.sol\":2186:2198  uint8 rarity */\n      0x00\n        /* \"src/NFTPoolManager.sol\":2226:2227  1 */\n      0x01\n        /* \"src/NFTPoolManager.sol\":2212:2216  data */\n      dup5\n      dup5\n        /* \"src/NFTPoolManager.sol\":2212:2223  data.length */\n      swap1\n      pop\n        /* \"src/NFTPoolManager.sol\":2212:2227  data.length ==1 */\n      sub\n        /* \"src/NFTPoolManager.sol\":2209:2278  if(data.length ==1){... */\n      tag_80\n      jumpi\n        /* \"src/NFTPoolManager.sol\":2258:2262  data */\n      dup4\n      dup4\n        /* \"src/NFTPoolManager.sol\":2263:2264  0 */\n      0x00\n        /* \"src/NFTPoolManager.sol\":2258:2265  data[0] */\n      dup2\n      dup2\n      lt\n      tag_81\n      jumpi\n      tag_82\n      tag_83\n      jump\t// in\n    tag_82:\n    tag_81:\n      swap1\n      pop\n      add\n      calldataload\n      0xf8\n      shr\n      0xf8\n      shl\n        /* \"src/NFTPoolManager.sol\":2252:2266  uint8(data[0]) */\n      0xf8\n      shr\n        /* \"src/NFTPoolManager.sol\":2243:2266  rarity = uint8(data[0]) */\n      swap1\n      pop\n        /* \"src/NFTPoolManager.sol\":2209:2278  if(data.length ==1){... */\n    tag_80:\n        /* \"src/NFTPoolManager.sol\":2305:2307  32 */\n      0x20\n        /* \"src/NFTPoolManager.sol\":2291:2295  data */\n      dup5\n      dup5\n        /* \"src/NFTPoolManager.sol\":2291:2302  data.length */\n      swap1\n      pop\n        /* \"src/NFTPoolManager.sol\":2291:2307  data.length ==32 */\n      sub\n        /* \"src/NFTPoolManager.sol\":2288:2368  if(data.length ==32){... */\n      tag_84\n      jumpi\n        /* \"src/NFTPoolManager.sol\":2343:2347  data */\n      dup4\n      dup4\n        /* \"src/NFTPoolManager.sol\":2332:2356  abi.decode(data,(uint8)) */\n      dup2\n      add\n      swap1\n      tag_85\n      swap2\n      swap1\n      tag_56\n      jump\t// in\n    tag_85:\n        /* \"src/NFTPoolManager.sol\":2323:2356  rarity = abi.decode(data,(uint8)) */\n      swap1\n      pop\n        /* \"src/NFTPoolManager.sol\":2288:2368  if(data.length ==32){... */\n    tag_84:\n        /* \"src/NFTPoolManager.sol\":2395:2396  0 */\n      0x00\n        /* \"src/NFTPoolManager.sol\":2386:2392  rarity */\n      dup2\n        /* \"src/NFTPoolManager.sol\":2386:2396  rarity > 0 */\n      0xff\n      and\n      gt\n        /* \"src/NFTPoolManager.sol\":2386:2411  rarity > 0 && rarity <= 4 */\n      dup1\n      iszero\n      tag_86\n      jumpi\n      pop\n        /* \"src/NFTPoolManager.sol\":2410:2411  4 */\n      0x04\n        /* \"src/NFTPoolManager.sol\":2400:2406  rarity */\n      dup2\n        /* \"src/NFTPoolManager.sol\":2400:2411  rarity <= 4 */\n      0xff\n      and\n      gt\n      iszero\n        /* \"src/NFTPoolManager.sol\":2386:2411  rarity > 0 && rarity <= 4 */\n    tag_86:\n        /* \"src/NFTPoolManager.sol\":2378:2436  require(rarity > 0 && rarity <= 4, \"Invalid rarity range\") */\n      tag_87\n      jumpi\n      mload(0x40)\n      0x08c379a000000000000000000000000000000000000000000000000000000000\n      dup2\n      mstore\n      0x04\n      add\n      tag_88\n      swap1\n      tag_89\n      jump\t// in\n    tag_88:\n      mload(0x40)\n      dup1\n      swap2\n      sub\n      swap1\n      revert\n    tag_87:\n        /* \"src/NFTPoolManager.sol\":2511:2527  Item memory item */\n      0x00\n        /* \"src/NFTPoolManager.sol\":2530:2603  Item({... */\n      mload(0x40)\n      dup1\n      0x40\n      add\n      0x40\n      mstore\n      dup1\n        /* \"src/NFTPoolManager.sol\":2556:2566  msg.sender */\n      caller\n        /* \"src/NFTPoolManager.sol\":2530:2603  Item({... */\n      0xffffffffffffffffffffffffffffffffffffffff\n      and\n      dup2\n      mstore\n      0x20\n      add\n        /* \"src/NFTPoolManager.sol\":2584:2591  tokenId */\n      dup8\n        /* \"src/NFTPoolManager.sol\":2530:2603  Item({... */\n      dup2\n      mstore\n      pop\n        /* \"src/NFTPoolManager.sol\":2511:2603  Item memory item = Item({... */\n      swap1\n      pop\n        /* \"src/NFTPoolManager.sol\":2614:2619  pools */\n      0x01\n        /* \"src/NFTPoolManager.sol\":2614:2627  pools[rarity] */\n      0x00\n        /* \"src/NFTPoolManager.sol\":2620:2626  rarity */\n      dup4\n        /* \"src/NFTPoolManager.sol\":2614:2627  pools[rarity] */\n      0xff\n      and\n      0xff\n      and\n      dup2\n      mstore\n      0x20\n      add\n      swap1\n      dup2\n      mstore\n      0x20\n      add\n      0x00\n      keccak256\n        /* \"src/NFTPoolManager.sol\":2633:2637  item */\n      dup2\n        /* \"src/NFTPoolManager.sol\":2614:2638  pools[rarity].push(item) */\n      swap1\n      dup1\n      0x01\n      dup2\n      sload\n      add\n      dup1\n      dup3\n      sstore\n      dup1\n      swap2\n      pop\n      pop\n      0x01\n      swap1\n      sub\n      swap1\n      0x00\n      mstore\n      keccak256(0x00, 0x20)\n      swap1\n      0x02\n      mul\n      add\n      0x00\n      swap1\n      swap2\n      swap1\n      swap2\n      swap1\n      swap2\n      pop\n      0x00\n      dup3\n      add\n      mload\n      dup2\n      0x00\n      add\n      exp(0x0100, 0x00)\n      dup2\n      sload\n      dup2\n      0xffffffffffffffffffffffffffffffffffffffff\n      mul\n      not\n      and\n      swap1\n      dup4\n      0xffffffffffffffffffffffffffffffffffffffff\n      and\n      mul\n      or\n      swap1\n      sstore\n      pop\n      0x20\n      dup3\n      add\n      mload\n      dup2\n      0x01\n      add\n      sstore\n      pop\n      pop\n        /* \"src/NFTPoolManager.sol\":2713:2724  bytes32 key */\n      0x00\n        /* \"src/NFTPoolManager.sol\":2727:2762  _itemKey(msg.sender,tokenId,rarity) */\n      tag_91\n        /* \"src/NFTPoolManager.sol\":2736:2746  msg.sender */\n      caller\n        /* \"src/NFTPoolManager.sol\":2747:2754  tokenId */\n      dup9\n        /* \"src/NFTPoolManager.sol\":2755:2761  rarity */\n      dup6\n        /* \"src/NFTPoolManager.sol\":2727:2735  _itemKey */\n      tag_92\n        /* \"src/NFTPoolManager.sol\":2727:2762  _itemKey(msg.sender,tokenId,rarity) */\n      jump\t// in\n    tag_91:\n        /* \"src/NFTPoolManager.sol\":2713:2762  bytes32 key = _itemKey(msg.sender,tokenId,rarity) */\n      swap1\n      pop\n        /* \"src/NFTPoolManager.sol\":2789:2794  pools */\n      0x01\n        /* \"src/NFTPoolManager.sol\":2789:2802  pools[rarity] */\n      0x00\n        /* \"src/NFTPoolManager.sol\":2795:2801  rarity */\n      dup5\n        /* \"src/NFTPoolManager.sol\":2789:2802  pools[rarity] */\n      0xff\n      and\n      0xff\n      and\n      dup2\n      mstore\n      0x20\n      add\n      swap1\n      dup2\n      mstore\n      0x20\n      add\n      0x00\n      keccak256\n        /* \"src/NFTPoolManager.sol\":2789:2809  pools[rarity].length */\n      dup1\n      sload\n      swap1\n      pop\n        /* \"src/NFTPoolManager.sol\":2773:2781  _indexOf */\n      0x02\n        /* \"src/NFTPoolManager.sol\":2773:2786  _indexOf[key] */\n      0x00\n        /* \"src/NFTPoolManager.sol\":2782:2785  key */\n      dup4\n        /* \"src/NFTPoolManager.sol\":2773:2786  _indexOf[key] */\n      dup2\n      mstore\n      0x20\n      add\n      swap1\n      dup2\n      mstore\n      0x20\n      add\n      0x00\n      keccak256\n        /* \"src/NFTPoolManager.sol\":2773:2809  _indexOf[key] = pools[rarity].length */\n      dup2\n      swap1\n      sstore\n      pop\n        /* \"src/NFTPoolManager.sol\":2853:2860  tokenId */\n      dup7\n        /* \"src/NFTPoolManager.sol\":2842:2852  msg.sender */\n      caller\n        /* \"src/NFTPoolManager.sol\":2827:2868  Deposited(from,msg.sender,tokenId,rarity) */\n      0xffffffffffffffffffffffffffffffffffffffff\n      and\n        /* \"src/NFTPoolManager.sol\":2837:2841  from */\n      dup10\n        /* \"src/NFTPoolManager.sol\":2827:2868  Deposited(from,msg.sender,tokenId,rarity) */\n      0xffffffffffffffffffffffffffffffffffffffff\n      and\n      0x754fff2205ca9f1a08ae1f38f487839ba7e18895f0238908ea8b8842d7424fbb\n        /* \"src/NFTPoolManager.sol\":2861:2867  rarity */\n      dup7\n        /* \"src/NFTPoolManager.sol\":2827:2868  Deposited(from,msg.sender,tokenId,rarity) */\n      mload(0x40)\n      tag_93\n      swap2\n      swap1\n      tag_94\n      jump\t// in\n    tag_93:\n      mload(0x40)\n      dup1\n      swap2\n      sub\n      swap1\n      log4\n        /* \"src/NFTPoolManager.sol\":2958:2988  this.onERC721Received.selector */\n      shl(0xe0, 0x150b7a02)\n        /* \"src/NFTPoolManager.sol\":2951:2988  return this.onERC721Received.selector */\n      swap4\n      pop\n      pop\n      pop\n      pop\n        /* \"src/NFTPoolManager.sol\":1885:2996  function onERC721Received(... */\n      swap6\n      swap5\n      pop\n      pop\n      pop\n      pop\n      pop\n      jump\t// out\n        /* \"src/NFTPoolManager.sol\":3024:3195  function setAuthorizedCaller(address caller,bool allowed) external onlyOwner{... */\n    tag_27:\n        /* \"lib/openzeppelin-contracts/contracts/access/Ownable.sol\":1531:1544  _checkOwner() */\n      tag_96\n        /* \"lib/openzeppelin-contracts/contracts/access/Ownable.sol\":1531:1542  _checkOwner */\n      tag_97\n        /* \"lib/openzeppelin-contracts/contracts/access/Ownable.sol\":1531:1544  _checkOwner() */\n      jump\t// in\n    tag_96:\n        /* \"src/NFTPoolManager.sol\":3138:3145  allowed */\n      dup1\n        /* \"src/NFTPoolManager.sol\":3111:3127  authorizedCaller */\n      0x03\n        /* \"src/NFTPoolManager.sol\":3111:3135  authorizedCaller[caller] */\n      0x00\n        /* \"src/NFTPoolManager.sol\":3128:3134  caller */\n      dup5\n        /* \"src/NFTPoolManager.sol\":3111:3135  authorizedCaller[caller] */\n      0xffffffffffffffffffffffffffffffffffffffff\n      and\n      0xffffffffffffffffffffffffffffffffffffffff\n      and\n      dup2\n      mstore\n      0x20\n      add\n      swap1\n      dup2\n      mstore\n      0x20\n      add\n      0x00\n      keccak256\n      0x00\n        /* \"src/NFTPoolManager.sol\":3111:3145  authorizedCaller[caller] = allowed */\n      0x0100\n      exp\n      dup2\n      sload\n      dup2\n      0xff\n      mul\n      not\n      and\n      swap1\n      dup4\n      iszero\n      iszero\n      mul\n      or\n      swap1\n      sstore\n      pop\n        /* \"src/NFTPoolManager.sol\":3171:3177  caller */\n      dup2\n        /* \"src/NFTPoolManager.sol\":3161:3187  CallerSet(caller, allowed) */\n      0xffffffffffffffffffffffffffffffffffffffff\n      and\n      0xa49dcb99ff1593e316d0955614d970424bf97f34f406b6b75297ddb7e315b7db\n        /* \"src/NFTPoolManager.sol\":3179:3186  allowed */\n      dup3\n        /* \"src/NFTPoolManager.sol\":3161:3187  CallerSet(caller, allowed) */\n      mload(0x40)\n      tag_99\n      swap2\n      swap1\n      tag_53\n      jump\t// in\n    tag_99:\n      mload(0x40)\n      dup1\n      swap2\n      sub\n      swap1\n      log2\n        /* \"src/NFTPoolManager.sol\":3024:3195  function setAuthorizedCaller(address caller,bool allowed) external onlyOwner{... */\n      pop\n      pop\n      jump\t// out\n        /* \"src/NFTPoolManager.sol\":4539:4727  function itemAt(uint8 rarity,uint256 index) external view returns(address token,uint256 id){... */\n    tag_31:\n        /* \"src/NFTPoolManager.sol\":4605:4618  address token */\n      0x00\n        /* \"src/NFTPoolManager.sol\":4619:4629  uint256 id */\n      0x00\n        /* \"src/NFTPoolManager.sol\":4641:4658  Item storage item */\n      0x00\n        /* \"src/NFTPoolManager.sol\":4661:4666  pools */\n      0x01\n        /* \"src/NFTPoolManager.sol\":4661:4674  pools[rarity] */\n      0x00\n        /* \"src/NFTPoolManager.sol\":4667:4673  rarity */\n      dup7\n        /* \"src/NFTPoolManager.sol\":4661:4674  pools[rarity] */\n      0xff\n      and\n      0xff\n      and\n      dup2\n      mstore\n      0x20\n      add\n      swap1\n      dup2\n      mstore\n      0x20\n      add\n      0x00\n      keccak256\n        /* \"src/NFTPoolManager.sol\":4675:4680  index */\n      dup5\n        /* \"src/NFTPoolManager.sol\":4661:4681  pools[rarity][index] */\n      dup2\n      sload\n      dup2\n      lt\n      tag_101\n      jumpi\n      tag_102\n      tag_83\n      jump\t// in\n    tag_102:\n    tag_101:\n      swap1\n      0x00\n      mstore\n      keccak256(0x00, 0x20)\n      swap1\n      0x02\n      mul\n      add\n        /* \"src/NFTPoolManager.sol\":4641:4681  Item storage item = pools[rarity][index] */\n      swap1\n      pop\n        /* \"src/NFTPoolManager.sol\":4700:4704  item */\n      dup1\n        /* \"src/NFTPoolManager.sol\":4700:4710  item.token */\n      0x00\n      add\n      0x00\n      swap1\n      sload\n      swap1\n      0x0100\n      exp\n      swap1\n      div\n      0xffffffffffffffffffffffffffffffffffffffff\n      and\n        /* \"src/NFTPoolManager.sol\":4711:4715  item */\n      dup2\n        /* \"src/NFTPoolManager.sol\":4711:4718  item.id */\n      0x01\n      add\n      sload\n        /* \"src/NFTPoolManager.sol\":4692:4719  return (item.token,item.id) */\n      swap3\n      pop\n      swap3\n      pop\n      pop\n        /* \"src/NFTPoolManager.sol\":4539:4727  function itemAt(uint8 rarity,uint256 index) external view returns(address token,uint256 id){... */\n      swap3\n      pop\n      swap3\n      swap1\n      pop\n      jump\t// out\n        /* \"lib/openzeppelin-contracts/contracts/access/Ownable.sol\":2293:2394  function renounceOwnership() public virtual onlyOwner {... */\n    tag_35:\n        /* \"lib/openzeppelin-contracts/contracts/access/Ownable.sol\":1531:1544  _checkOwner() */\n      tag_105\n        /* \"lib/openzeppelin-contracts/contracts/access/Ownable.sol\":1531:1542  _checkOwner */\n      tag_97\n        /* \"lib/openzeppelin-contracts/contracts/access/Ownable.sol\":1531:1544  _checkOwner() */\n      jump\t// in\n    tag_105:\n        /* \"lib/openzeppelin-contracts/contracts/access/Ownable.sol\":2357:2387  _transferOwnership(address(0)) */\n      tag_107\n        /* \"lib/openzeppelin-contracts/contracts/access/Ownable.sol\":2384:2385  0 */\n      0x00\n        /* \"lib/openzeppelin-contracts/contracts/access/Ownable.sol\":2357:2375  _transferOwnership */\n      tag_108\n        /* \"lib/openzeppelin-contracts/contracts/access/Ownable.sol\":2357:2387  _transferOwnership(address(0)) */\n      jump\t// in\n    tag_107:\n        /* \"lib/openzeppelin-contracts/contracts/access/Ownable.sol\":2293:2394  function renounceOwnership() public virtual onlyOwner {... */\n      jump\t// out\n        /* \"src/NFTPoolManager.sol\":503:540  mapping(uint8 => Item[]) public pools */\n    tag_38:\n      mstore(0x20, 0x01)\n      dup2\n      0x00\n      mstore\n      keccak256(0x00, 0x40)\n      dup2\n      dup2\n      sload\n      dup2\n      lt\n      tag_109\n      jumpi\n      0x00\n      dup1\n      revert\n    tag_109:\n      swap1\n      0x00\n      mstore\n      keccak256(0x00, 0x20)\n      swap1\n      0x02\n      mul\n      add\n      0x00\n      swap2\n      pop\n      swap2\n      pop\n      pop\n      dup1\n      0x00\n      add\n      0x00\n      swap1\n      sload\n      swap1\n      0x0100\n      exp\n      swap1\n      div\n      0xffffffffffffffffffffffffffffffffffffffff\n      and\n      swap1\n      dup1\n      0x01\n      add\n      sload\n      swap1\n      pop\n      dup3\n      jump\t// out\n        /* \"src/NFTPoolManager.sol\":5406:6678  function adminWithdrawToken(address token, uint256 tokenId, uint8 rarity, address to) external onlyOwner nonReentrant {... */\n    tag_43:\n        /* \"lib/openzeppelin-contracts/contracts/access/Ownable.sol\":1531:1544  _checkOwner() */\n      tag_112\n        /* \"lib/openzeppelin-contracts/contracts/access/Ownable.sol\":1531:1542  _checkOwner */\n      tag_97\n        /* \"lib/openzeppelin-contracts/contracts/access/Ownable.sol\":1531:1544  _checkOwner() */\n      jump\t// in\n    tag_112:\n        /* \"lib/openzeppelin-contracts/contracts/utils/ReentrancyGuard.sol\":2999:3020  _nonReentrantBefore() */\n      tag_114\n        /* \"lib/openzeppelin-contracts/contracts/utils/ReentrancyGuard.sol\":2999:3018  _nonReentrantBefore */\n      tag_115\n        /* \"lib/openzeppelin-contracts/contracts/utils/ReentrancyGuard.sol\":2999:3020  _nonReentrantBefore() */\n      jump\t// in\n    tag_114:\n        /* \"src/NFTPoolManager.sol\":5575:5586  bytes32 key */\n      0x00\n        /* \"src/NFTPoolManager.sol\":5589:5621  _itemKey(token, tokenId, rarity) */\n      tag_117\n        /* \"src/NFTPoolManager.sol\":5598:5603  token */\n      dup6\n        /* \"src/NFTPoolManager.sol\":5605:5612  tokenId */\n      dup6\n        /* \"src/NFTPoolManager.sol\":5614:5620  rarity */\n      dup6\n        /* \"src/NFTPoolManager.sol\":5589:5597  _itemKey */\n      tag_92\n        /* \"src/NFTPoolManager.sol\":5589:5621  _itemKey(token, tokenId, rarity) */\n      jump\t// in\n    tag_117:\n        /* \"src/NFTPoolManager.sol\":5575:5621  bytes32 key = _itemKey(token, tokenId, rarity) */\n      swap1\n      pop\n        /* \"src/NFTPoolManager.sol\":5632:5644  uint256 idx1 */\n      0x00\n        /* \"src/NFTPoolManager.sol\":5647:5655  _indexOf */\n      0x02\n        /* \"src/NFTPoolManager.sol\":5647:5660  _indexOf[key] */\n      0x00\n        /* \"src/NFTPoolManager.sol\":5656:5659  key */\n      dup4\n        /* \"src/NFTPoolManager.sol\":5647:5660  _indexOf[key] */\n      dup2\n      mstore\n      0x20\n      add\n      swap1\n      dup2\n      mstore\n      0x20\n      add\n      0x00\n      keccak256\n      sload\n        /* \"src/NFTPoolManager.sol\":5632:5660  uint256 idx1 = _indexOf[key] */\n      swap1\n      pop\n        /* \"src/NFTPoolManager.sol\":5743:5744  0 */\n      0x00\n        /* \"src/NFTPoolManager.sol\":5735:5739  idx1 */\n      dup2\n        /* \"src/NFTPoolManager.sol\":5735:5744  idx1 != 0 */\n      eq\n        /* \"src/NFTPoolManager.sol\":5731:6450  if (idx1 != 0) {... */\n      tag_118\n      jumpi\n        /* \"src/NFTPoolManager.sol\":5800:5811  uint256 idx */\n      0x00\n        /* \"src/NFTPoolManager.sol\":5821:5822  1 */\n      0x01\n        /* \"src/NFTPoolManager.sol\":5814:5818  idx1 */\n      dup3\n        /* \"src/NFTPoolManager.sol\":5814:5822  idx1 - 1 */\n      tag_119\n      swap2\n      swap1\n      tag_120\n      jump\t// in\n    tag_119:\n        /* \"src/NFTPoolManager.sol\":5800:5822  uint256 idx = idx1 - 1 */\n      swap1\n      pop\n        /* \"src/NFTPoolManager.sol\":5837:5855  Item[] storage arr */\n      0x00\n        /* \"src/NFTPoolManager.sol\":5858:5863  pools */\n      0x01\n        /* \"src/NFTPoolManager.sol\":5858:5871  pools[rarity] */\n      0x00\n        /* \"src/NFTPoolManager.sol\":5864:5870  rarity */\n      dup8\n        /* \"src/NFTPoolManager.sol\":5858:5871  pools[rarity] */\n      0xff\n      and\n      0xff\n      and\n      dup2\n      mstore\n      0x20\n      add\n      swap1\n      dup2\n      mstore\n      0x20\n      add\n      0x00\n      keccak256\n        /* \"src/NFTPoolManager.sol\":5837:5871  Item[] storage arr = pools[rarity] */\n      swap1\n      pop\n        /* \"src/NFTPoolManager.sol\":5886:5901  uint256 lastIdx */\n      0x00\n        /* \"src/NFTPoolManager.sol\":5917:5918  1 */\n      0x01\n        /* \"src/NFTPoolManager.sol\":5904:5907  arr */\n      dup3\n        /* \"src/NFTPoolManager.sol\":5904:5914  arr.length */\n      dup1\n      sload\n      swap1\n      pop\n        /* \"src/NFTPoolManager.sol\":5904:5918  arr.length - 1 */\n      tag_121\n      swap2\n      swap1\n      tag_120\n      jump\t// in\n    tag_121:\n        /* \"src/NFTPoolManager.sol\":5886:5918  uint256 lastIdx = arr.length - 1 */\n      swap1\n      pop\n        /* \"src/NFTPoolManager.sol\":5996:6003  lastIdx */\n      dup1\n        /* \"src/NFTPoolManager.sol\":5989:5992  idx */\n      dup4\n        /* \"src/NFTPoolManager.sol\":5989:6003  idx != lastIdx */\n      eq\n        /* \"src/NFTPoolManager.sol\":5985:6295  if (idx != lastIdx) {... */\n      tag_122\n      jumpi\n        /* \"src/NFTPoolManager.sol\":6024:6044  Item memory lastItem */\n      0x00\n        /* \"src/NFTPoolManager.sol\":6047:6050  arr */\n      dup3\n        /* \"src/NFTPoolManager.sol\":6051:6058  lastIdx */\n      dup3\n        /* \"src/NFTPoolManager.sol\":6047:6059  arr[lastIdx] */\n      dup2\n      sload\n      dup2\n      lt\n      tag_123\n      jumpi\n      tag_124\n      tag_83\n      jump\t// in\n    tag_124:\n    tag_123:\n      swap1\n      0x00\n      mstore\n      keccak256(0x00, 0x20)\n      swap1\n      0x02\n      mul\n      add\n        /* \"src/NFTPoolManager.sol\":6024:6059  Item memory lastItem = arr[lastIdx] */\n      mload(0x40)\n      dup1\n      0x40\n      add\n      0x40\n      mstore\n      swap1\n      dup2\n      0x00\n      dup3\n      add\n      0x00\n      swap1\n      sload\n      swap1\n      0x0100\n      exp\n      swap1\n      div\n      0xffffffffffffffffffffffffffffffffffffffff\n      and\n      0xffffffffffffffffffffffffffffffffffffffff\n      and\n      0xffffffffffffffffffffffffffffffffffffffff\n      and\n      dup2\n      mstore\n      0x20\n      add\n      0x01\n      dup3\n      add\n      sload\n      dup2\n      mstore\n      pop\n      pop\n      swap1\n      pop\n        /* \"src/NFTPoolManager.sol\":6089:6097  lastItem */\n      dup1\n        /* \"src/NFTPoolManager.sol\":6078:6081  arr */\n      dup4\n        /* \"src/NFTPoolManager.sol\":6082:6085  idx */\n      dup6\n        /* \"src/NFTPoolManager.sol\":6078:6086  arr[idx] */\n      dup2\n      sload\n      dup2\n      lt\n      tag_126\n      jumpi\n      tag_127\n      tag_83\n      jump\t// in\n    tag_127:\n    tag_126:\n      swap1\n      0x00\n      mstore\n      keccak256(0x00, 0x20)\n      swap1\n      0x02\n      mul\n      add\n        /* \"src/NFTPoolManager.sol\":6078:6097  arr[idx] = lastItem */\n      0x00\n      dup3\n      add\n      mload\n      dup2\n      0x00\n      add\n      exp(0x0100, 0x00)\n      dup2\n      sload\n      dup2\n      0xffffffffffffffffffffffffffffffffffffffff\n      mul\n      not\n      and\n      swap1\n      dup4\n      0xffffffffffffffffffffffffffffffffffffffff\n      and\n      mul\n      or\n      swap1\n      sstore\n      pop\n      0x20\n      dup3\n      add\n      mload\n      dup2\n      0x01\n      add\n      sstore\n      swap1\n      pop\n      pop\n        /* \"src/NFTPoolManager.sol\":6170:6185  bytes32 lastKey */\n      0x00\n        /* \"src/NFTPoolManager.sol\":6188:6233  _itemKey(lastItem.token, lastItem.id, rarity) */\n      tag_129\n        /* \"src/NFTPoolManager.sol\":6197:6205  lastItem */\n      dup3\n        /* \"src/NFTPoolManager.sol\":6197:6211  lastItem.token */\n      0x00\n      add\n      mload\n        /* \"src/NFTPoolManager.sol\":6213:6221  lastItem */\n      dup4\n        /* \"src/NFTPoolManager.sol\":6213:6224  lastItem.id */\n      0x20\n      add\n      mload\n        /* \"src/NFTPoolManager.sol\":6226:6232  rarity */\n      dup12\n        /* \"src/NFTPoolManager.sol\":6188:6196  _itemKey */\n      tag_92\n        /* \"src/NFTPoolManager.sol\":6188:6233  _itemKey(lastItem.token, lastItem.id, rarity) */\n      jump\t// in\n    tag_129:\n        /* \"src/NFTPoolManager.sol\":6170:6233  bytes32 lastKey = _itemKey(lastItem.token, lastItem.id, rarity) */\n      swap1\n      pop\n        /* \"src/NFTPoolManager.sol\":6278:6279  1 */\n      0x01\n        /* \"src/NFTPoolManager.sol\":6272:6275  idx */\n      dup6\n        /* \"src/NFTPoolManager.sol\":6272:6279  idx + 1 */\n      tag_130\n      swap2\n      swap1\n      tag_131\n      jump\t// in\n    tag_130:\n        /* \"src/NFTPoolManager.sol\":6252:6260  _indexOf */\n      0x02\n        /* \"src/NFTPoolManager.sol\":6252:6269  _indexOf[lastKey] */\n      0x00\n        /* \"src/NFTPoolManager.sol\":6261:6268  lastKey */\n      dup4\n        /* \"src/NFTPoolManager.sol\":6252:6269  _indexOf[lastKey] */\n      dup2\n      mstore\n      0x20\n      add\n      swap1\n      dup2\n      mstore\n      0x20\n      add\n      0x00\n      keccak256\n        /* \"src/NFTPoolManager.sol\":6252:6279  _indexOf[lastKey] = idx + 1 */\n      dup2\n      swap1\n      sstore\n      pop\n        /* \"src/NFTPoolManager.sol\":6005:6295  {... */\n      pop\n      pop\n        /* \"src/NFTPoolManager.sol\":5985:6295  if (idx != lastIdx) {... */\n    tag_122:\n        /* \"src/NFTPoolManager.sol\":6350:6353  arr */\n      dup2\n        /* \"src/NFTPoolManager.sol\":6350:6359  arr.pop() */\n      dup1\n      sload\n      dup1\n      tag_132\n      jumpi\n      tag_133\n      tag_134\n      jump\t// in\n    tag_133:\n    tag_132:\n      0x01\n      swap1\n      sub\n      dup2\n      dup2\n      swap1\n      0x00\n      mstore\n      keccak256(0x00, 0x20)\n      swap1\n      0x02\n      mul\n      add\n      0x00\n      0x00\n      dup3\n      add\n      exp(0x0100, 0x00)\n      dup2\n      sload\n      swap1\n      0xffffffffffffffffffffffffffffffffffffffff\n      mul\n      not\n      and\n      swap1\n      sstore\n      0x01\n      dup3\n      add\n      0x00\n      swap1\n      sstore\n      pop\n      pop\n      swap1\n      sstore\n        /* \"src/NFTPoolManager.sol\":6425:6433  _indexOf */\n      0x02\n        /* \"src/NFTPoolManager.sol\":6425:6438  _indexOf[key] */\n      0x00\n        /* \"src/NFTPoolManager.sol\":6434:6437  key */\n      dup7\n        /* \"src/NFTPoolManager.sol\":6425:6438  _indexOf[key] */\n      dup2\n      mstore\n      0x20\n      add\n      swap1\n      dup2\n      mstore\n      0x20\n      add\n      0x00\n      keccak256\n        /* \"src/NFTPoolManager.sol\":6418:6438  delete _indexOf[key] */\n      0x00\n      swap1\n      sstore\n        /* \"src/NFTPoolManager.sol\":5746:6450  {... */\n      pop\n      pop\n      pop\n        /* \"src/NFTPoolManager.sol\":5731:6450  if (idx1 != 0) {... */\n    tag_118:\n        /* \"src/NFTPoolManager.sol\":6537:6542  token */\n      dup6\n        /* \"src/NFTPoolManager.sol\":6529:6560  IERC721(token).safeTransferFrom */\n      0xffffffffffffffffffffffffffffffffffffffff\n      and\n      0x42842e0e\n        /* \"src/NFTPoolManager.sol\":6569:6573  this */\n      address\n        /* \"src/NFTPoolManager.sol\":6576:6578  to */\n      dup6\n        /* \"src/NFTPoolManager.sol\":6580:6587  tokenId */\n      dup9\n        /* \"src/NFTPoolManager.sol\":6529:6588  IERC721(token).safeTransferFrom(address(this), to, tokenId) */\n      mload(0x40)\n      dup5\n      0xffffffff\n      and\n      0xe0\n      shl\n      dup2\n      mstore\n      0x04\n      add\n      tag_136\n      swap4\n      swap3\n      swap2\n      swap1\n      tag_137\n      jump\t// in\n    tag_136:\n      0x00\n      mload(0x40)\n      dup1\n      dup4\n      sub\n      dup2\n      0x00\n      dup8\n      dup1\n      extcodesize\n      iszero\n      dup1\n      iszero\n      tag_138\n      jumpi\n      revert(0x00, 0x00)\n    tag_138:\n      pop\n      gas\n      call\n      iszero\n      dup1\n      iszero\n      tag_140\n      jumpi\n      returndatacopy(0x00, 0x00, returndatasize)\n      revert(0x00, returndatasize)\n    tag_140:\n      pop\n      pop\n      pop\n      pop\n        /* \"src/NFTPoolManager.sol\":6662:6669  tokenId */\n      dup5\n        /* \"src/NFTPoolManager.sol\":6655:6660  token */\n      dup7\n        /* \"src/NFTPoolManager.sol\":6641:6670  Withdrawn(to, token, tokenId) */\n      0xffffffffffffffffffffffffffffffffffffffff\n      and\n        /* \"src/NFTPoolManager.sol\":6651:6653  to */\n      dup5\n        /* \"src/NFTPoolManager.sol\":6641:6670  Withdrawn(to, token, tokenId) */\n      0xffffffffffffffffffffffffffffffffffffffff\n      and\n      0xd1c19fbcd4551a5edfb66d43d2e337c04837afda3482b42bdf569a8fccdae5fb\n      mload(0x40)\n      mload(0x40)\n      dup1\n      swap2\n      sub\n      swap1\n      log4\n        /* \"src/NFTPoolManager.sol\":5524:6678  {... */\n      pop\n      pop\n        /* \"lib/openzeppelin-contracts/contracts/utils/ReentrancyGuard.sol\":3041:3061  _nonReentrantAfter() */\n      tag_141\n        /* \"lib/openzeppelin-contracts/contracts/utils/ReentrancyGuard.sol\":3041:3059  _nonReentrantAfter */\n      tag_142\n        /* \"lib/openzeppelin-contracts/contracts/utils/ReentrancyGuard.sol\":3041:3061  _nonReentrantAfter() */\n      jump\t// in\n    tag_141:\n        /* \"src/NFTPoolManager.sol\":5406:6678  function adminWithdrawToken(address token, uint256 tokenId, uint8 rarity, address to) external onlyOwner nonReentrant {... */\n      pop\n      pop\n      pop\n      pop\n      jump\t// out\n        /* \"lib/openzeppelin-contracts/contracts/access/Ownable.sol\":1638:1723  function owner() public view virtual returns (address) {... */\n    tag_45:\n        /* \"lib/openzeppelin-contracts/contracts/access/Ownable.sol\":1684:1691  address */\n      0x00\n        /* \"lib/openzeppelin-contracts/contracts/access/Ownable.sol\":1710:1716  _owner */\n      0x00\n      0x00\n      swap1\n      sload\n      swap1\n      0x0100\n      exp\n      swap1\n      div\n      0xffffffffffffffffffffffffffffffffffffffff\n      and\n        /* \"lib/openzeppelin-contracts/contracts/access/Ownable.sol\":1703:1716  return _owner */\n      swap1\n      pop\n        /* \"lib/openzeppelin-contracts/contracts/access/Ownable.sol\":1638:1723  function owner() public view virtual returns (address) {... */\n      swap1\n      jump\t// out\n        /* \"src/NFTPoolManager.sol\":746:794  mapping(address => bool) public authorizedCaller */\n    tag_51:\n      mstore(0x20, 0x03)\n      dup1\n      0x00\n      mstore\n      keccak256(0x00, 0x40)\n      0x00\n      swap2\n      pop\n      sload\n      swap1\n      0x0100\n      exp\n      swap1\n      div\n      0xff\n      and\n      dup2\n      jump\t// out\n        /* \"src/NFTPoolManager.sol\":4421:4531  function poolLength(uint8 rarity) external view returns(uint256){... */\n    tag_57:\n        /* \"src/NFTPoolManager.sol\":4477:4484  uint256 */\n      0x00\n        /* \"src/NFTPoolManager.sol\":4503:4508  pools */\n      0x01\n        /* \"src/NFTPoolManager.sol\":4503:4516  pools[rarity] */\n      0x00\n        /* \"src/NFTPoolManager.sol\":4509:4515  rarity */\n      dup4\n        /* \"src/NFTPoolManager.sol\":4503:4516  pools[rarity] */\n      0xff\n      and\n      0xff\n      and\n      dup2\n      mstore\n      0x20\n      add\n      swap1\n      dup2\n      mstore\n      0x20\n      add\n      0x00\n      keccak256\n        /* \"src/NFTPoolManager.sol\":4503:4523  pools[rarity].length */\n      dup1\n      sload\n      swap1\n      pop\n        /* \"src/NFTPoolManager.sol\":4496:4523  return pools[rarity].length */\n      swap1\n      pop\n        /* \"src/NFTPoolManager.sol\":4421:4531  function poolLength(uint8 rarity) external view returns(uint256){... */\n      swap2\n      swap1\n      pop\n      jump\t// out\n        /* \"src/NFTPoolManager.sol\":4735:4921  function isInpool(address token,uint256 tokenId,uint8 rarity) external view returns(bool){... */\n    tag_63:\n        /* \"src/NFTPoolManager.sol\":4819:4823  bool */\n      0x00\n        /* \"src/NFTPoolManager.sol\":4835:4846  bytes32 key */\n      0x00\n        /* \"src/NFTPoolManager.sol\":4849:4879  _itemKey(token,tokenId,rarity) */\n      tag_146\n        /* \"src/NFTPoolManager.sol\":4858:4863  token */\n      dup6\n        /* \"src/NFTPoolManager.sol\":4864:4871  tokenId */\n      dup6\n        /* \"src/NFTPoolManager.sol\":4872:4878  rarity */\n      dup6\n        /* \"src/NFTPoolManager.sol\":4849:4857  _itemKey */\n      tag_92\n        /* \"src/NFTPoolManager.sol\":4849:4879  _itemKey(token,tokenId,rarity) */\n      jump\t// in\n    tag_146:\n        /* \"src/NFTPoolManager.sol\":4835:4879  bytes32 key = _itemKey(token,tokenId,rarity) */\n      swap1\n      pop\n        /* \"src/NFTPoolManager.sol\":4912:4913  0 */\n      0x00\n        /* \"src/NFTPoolManager.sol\":4897:4905  _indexOf */\n      0x02\n        /* \"src/NFTPoolManager.sol\":4897:4910  _indexOf[key] */\n      0x00\n        /* \"src/NFTPoolManager.sol\":4906:4909  key */\n      dup4\n        /* \"src/NFTPoolManager.sol\":4897:4910  _indexOf[key] */\n      dup2\n      mstore\n      0x20\n      add\n      swap1\n      dup2\n      mstore\n      0x20\n      add\n      0x00\n      keccak256\n      sload\n        /* \"src/NFTPoolManager.sol\":4897:4913  _indexOf[key]!=0 */\n      eq\n      iszero\n        /* \"src/NFTPoolManager.sol\":4890:4913  return _indexOf[key]!=0 */\n      swap2\n      pop\n      pop\n        /* \"src/NFTPoolManager.sol\":4735:4921  function isInpool(address token,uint256 tokenId,uint8 rarity) external view returns(bool){... */\n      swap4\n      swap3\n      pop\n      pop\n      pop\n      jump\t// out\n        /* \"src/NFTPoolManager.sol\":3240:4383  function popItem(... */\n    tag_68:\n        /* \"src/NFTPoolManager.sol\":3377:3390  address token */\n      0x00\n        /* \"src/NFTPoolManager.sol\":3391:3406  uint256 tokenId */\n      0x00\n        /* \"lib/openzeppelin-contracts/contracts/utils/ReentrancyGuard.sol\":2999:3020  _nonReentrantBefore() */\n      tag_148\n        /* \"lib/openzeppelin-contracts/contracts/utils/ReentrancyGuard.sol\":2999:3018  _nonReentrantBefore */\n      tag_115\n        /* \"lib/openzeppelin-contracts/contracts/utils/ReentrancyGuard.sol\":2999:3020  _nonReentrantBefore() */\n      jump\t// in\n    tag_148:\n        /* \"src/NFTPoolManager.sol\":1511:1521  msg.sender */\n      caller\n        /* \"src/NFTPoolManager.sol\":1500:1521  owner() != msg.sender */\n      0xffffffffffffffffffffffffffffffffffffffff\n      and\n        /* \"src/NFTPoolManager.sol\":1500:1507  owner() */\n      tag_150\n        /* \"src/NFTPoolManager.sol\":1500:1505  owner */\n      tag_45\n        /* \"src/NFTPoolManager.sol\":1500:1507  owner() */\n      jump\t// in\n    tag_150:\n        /* \"src/NFTPoolManager.sol\":1500:1521  owner() != msg.sender */\n      0xffffffffffffffffffffffffffffffffffffffff\n      and\n      eq\n      iszero\n        /* \"src/NFTPoolManager.sol\":1500:1554  owner() != msg.sender && !authorizedCaller[msg.sender] */\n      dup1\n      iszero\n      tag_151\n      jumpi\n      pop\n        /* \"src/NFTPoolManager.sol\":1526:1542  authorizedCaller */\n      0x03\n        /* \"src/NFTPoolManager.sol\":1526:1554  authorizedCaller[msg.sender] */\n      0x00\n        /* \"src/NFTPoolManager.sol\":1543:1553  msg.sender */\n      caller\n        /* \"src/NFTPoolManager.sol\":1526:1554  authorizedCaller[msg.sender] */\n      0xffffffffffffffffffffffffffffffffffffffff\n      and\n      0xffffffffffffffffffffffffffffffffffffffff\n      and\n      dup2\n      mstore\n      0x20\n      add\n      swap1\n      dup2\n      mstore\n      0x20\n      add\n      0x00\n      keccak256\n      0x00\n      swap1\n      sload\n      swap1\n      0x0100\n      exp\n      swap1\n      div\n      0xff\n      and\n        /* \"src/NFTPoolManager.sol\":1525:1554  !authorizedCaller[msg.sender] */\n      iszero\n        /* \"src/NFTPoolManager.sol\":1500:1554  owner() != msg.sender && !authorizedCaller[msg.sender] */\n    tag_151:\n        /* \"src/NFTPoolManager.sol\":1497:1599  if(owner() != msg.sender && !authorizedCaller[msg.sender]){... */\n      iszero\n      tag_152\n      jumpi\n        /* \"src/NFTPoolManager.sol\":1577:1587  NoCaller() */\n      mload(0x40)\n      0x605a223f00000000000000000000000000000000000000000000000000000000\n      dup2\n      mstore\n      0x04\n      add\n      mload(0x40)\n      dup1\n      swap2\n      sub\n      swap1\n      revert\n        /* \"src/NFTPoolManager.sol\":1497:1599  if(owner() != msg.sender && !authorizedCaller[msg.sender]){... */\n    tag_152:\n        /* \"src/NFTPoolManager.sol\":3418:3436  Item[] storage arr */\n      0x00\n        /* \"src/NFTPoolManager.sol\":3439:3444  pools */\n      0x01\n        /* \"src/NFTPoolManager.sol\":3439:3452  pools[rarity] */\n      0x00\n        /* \"src/NFTPoolManager.sol\":3445:3451  rarity */\n      dup8\n        /* \"src/NFTPoolManager.sol\":3439:3452  pools[rarity] */\n      0xff\n      and\n      0xff\n      and\n      dup2\n      mstore\n      0x20\n      add\n      swap1\n      dup2\n      mstore\n      0x20\n      add\n      0x00\n      keccak256\n        /* \"src/NFTPoolManager.sol\":3418:3452  Item[] storage arr = pools[rarity] */\n      swap1\n      pop\n        /* \"src/NFTPoolManager.sol\":3480:3481  0 */\n      0x00\n        /* \"src/NFTPoolManager.sol\":3466:3469  arr */\n      dup2\n        /* \"src/NFTPoolManager.sol\":3466:3476  arr.length */\n      dup1\n      sload\n      swap1\n      pop\n        /* \"src/NFTPoolManager.sol\":3466:3481  arr.length == 0 */\n      sub\n        /* \"src/NFTPoolManager.sol\":3463:3527  if(arr.length == 0){... */\n      tag_154\n      jumpi\n        /* \"src/NFTPoolManager.sol\":3504:3515  ErrorPool() */\n      mload(0x40)\n      0x4c751a4300000000000000000000000000000000000000000000000000000000\n      dup2\n      mstore\n      0x04\n      add\n      mload(0x40)\n      dup1\n      swap2\n      sub\n      swap1\n      revert\n        /* \"src/NFTPoolManager.sol\":3463:3527  if(arr.length == 0){... */\n    tag_154:\n        /* \"src/NFTPoolManager.sol\":3537:3548  uint256 len */\n      0x00\n        /* \"src/NFTPoolManager.sol\":3551:3554  arr */\n      dup2\n        /* \"src/NFTPoolManager.sol\":3551:3561  arr.length */\n      dup1\n      sload\n      swap1\n      pop\n        /* \"src/NFTPoolManager.sol\":3537:3561  uint256 len = arr.length */\n      swap1\n      pop\n        /* \"src/NFTPoolManager.sol\":3572:3583  uint256 idx */\n      0x00\n        /* \"src/NFTPoolManager.sol\":3599:3602  len */\n      dup2\n        /* \"src/NFTPoolManager.sol\":3586:3596  randomness */\n      dup8\n        /* \"src/NFTPoolManager.sol\":3586:3602  randomness % len */\n      tag_155\n      swap2\n      swap1\n      tag_156\n      jump\t// in\n    tag_155:\n        /* \"src/NFTPoolManager.sol\":3572:3602  uint256 idx = randomness % len */\n      swap1\n      pop\n        /* \"src/NFTPoolManager.sol\":3613:3631  Item memory chosen */\n      0x00\n        /* \"src/NFTPoolManager.sol\":3634:3637  arr */\n      dup4\n        /* \"src/NFTPoolManager.sol\":3638:3641  idx */\n      dup3\n        /* \"src/NFTPoolManager.sol\":3634:3642  arr[idx] */\n      dup2\n      sload\n      dup2\n      lt\n      tag_157\n      jumpi\n      tag_158\n      tag_83\n      jump\t// in\n    tag_158:\n    tag_157:\n      swap1\n      0x00\n      mstore\n      keccak256(0x00, 0x20)\n      swap1\n      0x02\n      mul\n      add\n        /* \"src/NFTPoolManager.sol\":3613:3642  Item memory chosen = arr[idx] */\n      mload(0x40)\n      dup1\n      0x40\n      add\n      0x40\n      mstore\n      swap1\n      dup2\n      0x00\n      dup3\n      add\n      0x00\n      swap1\n      sload\n      swap1\n      0x0100\n      exp\n      swap1\n      div\n      0xffffffffffffffffffffffffffffffffffffffff\n      and\n      0xffffffffffffffffffffffffffffffffffffffff\n      and\n      0xffffffffffffffffffffffffffffffffffffffff\n      and\n      dup2\n      mstore\n      0x20\n      add\n      0x01\n      dup3\n      add\n      sload\n      dup2\n      mstore\n      pop\n      pop\n      swap1\n      pop\n        /* \"src/NFTPoolManager.sol\":3679:3694  uint256 lastIdx */\n      0x00\n        /* \"src/NFTPoolManager.sol\":3701:3702  1 */\n      0x01\n        /* \"src/NFTPoolManager.sol\":3697:3700  len */\n      dup5\n        /* \"src/NFTPoolManager.sol\":3697:3702  len-1 */\n      tag_160\n      swap2\n      swap1\n      tag_120\n      jump\t// in\n    tag_160:\n        /* \"src/NFTPoolManager.sol\":3679:3702  uint256 lastIdx = len-1 */\n      swap1\n      pop\n        /* \"src/NFTPoolManager.sol\":3723:3730  lastIdx */\n      dup1\n        /* \"src/NFTPoolManager.sol\":3716:3719  idx */\n      dup4\n        /* \"src/NFTPoolManager.sol\":3716:3730  idx != lastIdx */\n      eq\n        /* \"src/NFTPoolManager.sol\":3713:3945  if(idx != lastIdx){... */\n      tag_161\n      jumpi\n        /* \"src/NFTPoolManager.sol\":3746:3766  Item memory lastItem */\n      0x00\n        /* \"src/NFTPoolManager.sol\":3769:3772  arr */\n      dup6\n        /* \"src/NFTPoolManager.sol\":3773:3780  lastIdx */\n      dup3\n        /* \"src/NFTPoolManager.sol\":3769:3781  arr[lastIdx] */\n      dup2\n      sload\n      dup2\n      lt\n      tag_162\n      jumpi\n      tag_163\n      tag_83\n      jump\t// in\n    tag_163:\n    tag_162:\n      swap1\n      0x00\n      mstore\n      keccak256(0x00, 0x20)\n      swap1\n      0x02\n      mul\n      add\n        /* \"src/NFTPoolManager.sol\":3746:3781  Item memory lastItem = arr[lastIdx] */\n      mload(0x40)\n      dup1\n      0x40\n      add\n      0x40\n      mstore\n      swap1\n      dup2\n      0x00\n      dup3\n      add\n      0x00\n      swap1\n      sload\n      swap1\n      0x0100\n      exp\n      swap1\n      div\n      0xffffffffffffffffffffffffffffffffffffffff\n      and\n      0xffffffffffffffffffffffffffffffffffffffff\n      and\n      0xffffffffffffffffffffffffffffffffffffffff\n      and\n      dup2\n      mstore\n      0x20\n      add\n      0x01\n      dup3\n      add\n      sload\n      dup2\n      mstore\n      pop\n      pop\n      swap1\n      pop\n        /* \"src/NFTPoolManager.sol\":3807:3815  lastItem */\n      dup1\n        /* \"src/NFTPoolManager.sol\":3796:3799  arr */\n      dup7\n        /* \"src/NFTPoolManager.sol\":3800:3803  idx */\n      dup6\n        /* \"src/NFTPoolManager.sol\":3796:3804  arr[idx] */\n      dup2\n      sload\n      dup2\n      lt\n      tag_165\n      jumpi\n      tag_166\n      tag_83\n      jump\t// in\n    tag_166:\n    tag_165:\n      swap1\n      0x00\n      mstore\n      keccak256(0x00, 0x20)\n      swap1\n      0x02\n      mul\n      add\n        /* \"src/NFTPoolManager.sol\":3796:3815  arr[idx] = lastItem */\n      0x00\n      dup3\n      add\n      mload\n      dup2\n      0x00\n      add\n      exp(0x0100, 0x00)\n      dup2\n      sload\n      dup2\n      0xffffffffffffffffffffffffffffffffffffffff\n      mul\n      not\n      and\n      swap1\n      dup4\n      0xffffffffffffffffffffffffffffffffffffffff\n      and\n      mul\n      or\n      swap1\n      sstore\n      pop\n      0x20\n      dup3\n      add\n      mload\n      dup2\n      0x01\n      add\n      sstore\n      swap1\n      pop\n      pop\n        /* \"src/NFTPoolManager.sol\":3830:3845  bytes32 lastKey */\n      0x00\n        /* \"src/NFTPoolManager.sol\":3848:3891  _itemKey(lastItem.token,lastItem.id,rarity) */\n      tag_168\n        /* \"src/NFTPoolManager.sol\":3857:3865  lastItem */\n      dup3\n        /* \"src/NFTPoolManager.sol\":3857:3871  lastItem.token */\n      0x00\n      add\n      mload\n        /* \"src/NFTPoolManager.sol\":3872:3880  lastItem */\n      dup4\n        /* \"src/NFTPoolManager.sol\":3872:3883  lastItem.id */\n      0x20\n      add\n      mload\n        /* \"src/NFTPoolManager.sol\":3884:3890  rarity */\n      dup15\n        /* \"src/NFTPoolManager.sol\":3848:3856  _itemKey */\n      tag_92\n        /* \"src/NFTPoolManager.sol\":3848:3891  _itemKey(lastItem.token,lastItem.id,rarity) */\n      jump\t// in\n    tag_168:\n        /* \"src/NFTPoolManager.sol\":3830:3891  bytes32 lastKey = _itemKey(lastItem.token,lastItem.id,rarity) */\n      swap1\n      pop\n        /* \"src/NFTPoolManager.sol\":3932:3933  1 */\n      0x01\n        /* \"src/NFTPoolManager.sol\":3926:3929  idx */\n      dup6\n        /* \"src/NFTPoolManager.sol\":3926:3933  idx + 1 */\n      tag_169\n      swap2\n      swap1\n      tag_131\n      jump\t// in\n    tag_169:\n        /* \"src/NFTPoolManager.sol\":3906:3914  _indexOf */\n      0x02\n        /* \"src/NFTPoolManager.sol\":3906:3923  _indexOf[lastKey] */\n      0x00\n        /* \"src/NFTPoolManager.sol\":3915:3922  lastKey */\n      dup4\n        /* \"src/NFTPoolManager.sol\":3906:3923  _indexOf[lastKey] */\n      dup2\n      mstore\n      0x20\n      add\n      swap1\n      dup2\n      mstore\n      0x20\n      add\n      0x00\n      keccak256\n        /* \"src/NFTPoolManager.sol\":3906:3933  _indexOf[lastKey] = idx + 1 */\n      dup2\n      swap1\n      sstore\n      pop\n        /* \"src/NFTPoolManager.sol\":3731:3945  {... */\n      pop\n      pop\n        /* \"src/NFTPoolManager.sol\":3713:3945  if(idx != lastIdx){... */\n    tag_161:\n        /* \"src/NFTPoolManager.sol\":3988:3991  arr */\n      dup5\n        /* \"src/NFTPoolManager.sol\":3988:3997  arr.pop() */\n      dup1\n      sload\n      dup1\n      tag_170\n      jumpi\n      tag_171\n      tag_134\n      jump\t// in\n    tag_171:\n    tag_170:\n      0x01\n      swap1\n      sub\n      dup2\n      dup2\n      swap1\n      0x00\n      mstore\n      keccak256(0x00, 0x20)\n      swap1\n      0x02\n      mul\n      add\n      0x00\n      0x00\n      dup3\n      add\n      exp(0x0100, 0x00)\n      dup2\n      sload\n      swap1\n      0xffffffffffffffffffffffffffffffffffffffff\n      mul\n      not\n      and\n      swap1\n      sstore\n      0x01\n      dup3\n      add\n      0x00\n      swap1\n      sstore\n      pop\n      pop\n      swap1\n      sstore\n        /* \"src/NFTPoolManager.sol\":4055:4072  bytes32 chosenKey */\n      0x00\n        /* \"src/NFTPoolManager.sol\":4075:4114  _itemKey(chosen.token,chosen.id,rarity) */\n      tag_173\n        /* \"src/NFTPoolManager.sol\":4084:4090  chosen */\n      dup4\n        /* \"src/NFTPoolManager.sol\":4084:4096  chosen.token */\n      0x00\n      add\n      mload\n        /* \"src/NFTPoolManager.sol\":4097:4103  chosen */\n      dup5\n        /* \"src/NFTPoolManager.sol\":4097:4106  chosen.id */\n      0x20\n      add\n      mload\n        /* \"src/NFTPoolManager.sol\":4107:4113  rarity */\n      dup14\n        /* \"src/NFTPoolManager.sol\":4075:4083  _itemKey */\n      tag_92\n        /* \"src/NFTPoolManager.sol\":4075:4114  _itemKey(chosen.token,chosen.id,rarity) */\n      jump\t// in\n    tag_173:\n        /* \"src/NFTPoolManager.sol\":4055:4114  bytes32 chosenKey = _itemKey(chosen.token,chosen.id,rarity) */\n      swap1\n      pop\n        /* \"src/NFTPoolManager.sol\":4132:4140  _indexOf */\n      0x02\n        /* \"src/NFTPoolManager.sol\":4132:4151  _indexOf[chosenKey] */\n      0x00\n        /* \"src/NFTPoolManager.sol\":4141:4150  chosenKey */\n      dup3\n        /* \"src/NFTPoolManager.sol\":4132:4151  _indexOf[chosenKey] */\n      dup2\n      mstore\n      0x20\n      add\n      swap1\n      dup2\n      mstore\n      0x20\n      add\n      0x00\n      keccak256\n        /* \"src/NFTPoolManager.sol\":4125:4151  delete _indexOf[chosenKey] */\n      0x00\n      swap1\n      sstore\n        /* \"src/NFTPoolManager.sol\":4211:4217  chosen */\n      dup3\n        /* \"src/NFTPoolManager.sol\":4211:4223  chosen.token */\n      0x00\n      add\n      mload\n        /* \"src/NFTPoolManager.sol\":4203:4241  IERC721(chosen.token).safeTransferFrom */\n      0xffffffffffffffffffffffffffffffffffffffff\n      and\n      0x42842e0e\n        /* \"src/NFTPoolManager.sol\":4250:4254  this */\n      address\n        /* \"src/NFTPoolManager.sol\":4256:4258  to */\n      dup12\n        /* \"src/NFTPoolManager.sol\":4259:4265  chosen */\n      dup7\n        /* \"src/NFTPoolManager.sol\":4259:4268  chosen.id */\n      0x20\n      add\n      mload\n        /* \"src/NFTPoolManager.sol\":4203:4269  IERC721(chosen.token).safeTransferFrom(address(this),to,chosen.id) */\n      mload(0x40)\n      dup5\n      0xffffffff\n      and\n      0xe0\n      shl\n      dup2\n      mstore\n      0x04\n      add\n      tag_174\n      swap4\n      swap3\n      swap2\n      swap1\n      tag_137\n      jump\t// in\n    tag_174:\n      0x00\n      mload(0x40)\n      dup1\n      dup4\n      sub\n      dup2\n      0x00\n      dup8\n      dup1\n      extcodesize\n      iszero\n      dup1\n      iszero\n      tag_175\n      jumpi\n      revert(0x00, 0x00)\n    tag_175:\n      pop\n      gas\n      call\n      iszero\n      dup1\n      iszero\n      tag_177\n      jumpi\n      returndatacopy(0x00, 0x00, returndatasize)\n      revert(0x00, returndatasize)\n    tag_177:\n      pop\n      pop\n      pop\n      pop\n        /* \"src/NFTPoolManager.sol\":4315:4321  chosen */\n      dup3\n        /* \"src/NFTPoolManager.sol\":4315:4324  chosen.id */\n      0x20\n      add\n      mload\n        /* \"src/NFTPoolManager.sol\":4301:4307  chosen */\n      dup4\n        /* \"src/NFTPoolManager.sol\":4301:4313  chosen.token */\n      0x00\n      add\n      mload\n        /* \"src/NFTPoolManager.sol\":4285:4333  ItemClaimed(to, chosen.token, chosen.id, rarity) */\n      0xffffffffffffffffffffffffffffffffffffffff\n      and\n        /* \"src/NFTPoolManager.sol\":4297:4299  to */\n      dup11\n        /* \"src/NFTPoolManager.sol\":4285:4333  ItemClaimed(to, chosen.token, chosen.id, rarity) */\n      0xffffffffffffffffffffffffffffffffffffffff\n      and\n      0x6dca0a6876fa6fd7e8b3db5bbf9c7a91376a892227bc28a09b7cf04da66125e0\n        /* \"src/NFTPoolManager.sol\":4326:4332  rarity */\n      dup15\n        /* \"src/NFTPoolManager.sol\":4285:4333  ItemClaimed(to, chosen.token, chosen.id, rarity) */\n      mload(0x40)\n      tag_178\n      swap2\n      swap1\n      tag_94\n      jump\t// in\n    tag_178:\n      mload(0x40)\n      dup1\n      swap2\n      sub\n      swap1\n      log4\n        /* \"src/NFTPoolManager.sol\":4352:4358  chosen */\n      dup3\n        /* \"src/NFTPoolManager.sol\":4352:4364  chosen.token */\n      0x00\n      add\n      mload\n        /* \"src/NFTPoolManager.sol\":4365:4371  chosen */\n      dup4\n        /* \"src/NFTPoolManager.sol\":4365:4374  chosen.id */\n      0x20\n      add\n      mload\n        /* \"src/NFTPoolManager.sol\":4344:4375  return (chosen.token,chosen.id) */\n      swap8\n      pop\n      swap8\n      pop\n      pop\n      pop\n      pop\n      pop\n      pop\n      pop\n        /* \"lib/openzeppelin-contracts/contracts/utils/ReentrancyGuard.sol\":3041:3061  _nonReentrantAfter() */\n      tag_179\n        /* \"lib/openzeppelin-contracts/contracts/utils/ReentrancyGuard.sol\":3041:3059  _nonReentrantAfter */\n      tag_142\n        /* \"lib/openzeppelin-contracts/contracts/utils/ReentrancyGuard.sol\":3041:3061  _nonReentrantAfter() */\n      jump\t// in\n    tag_179:\n        /* \"src/NFTPoolManager.sol\":3240:4383  function popItem(... */\n      swap4\n      pop\n      swap4\n      swap2\n      pop\n      pop\n      jump\t// out\n        /* \"lib/openzeppelin-contracts/contracts/access/Ownable.sol\":2543:2758  function transferOwnership(address newOwner) public virtual onlyOwner {... */\n    tag_72:\n        /* \"lib/openzeppelin-contracts/contracts/access/Ownable.sol\":1531:1544  _checkOwner() */\n      tag_181\n        /* \"lib/openzeppelin-contracts/contracts/access/Ownable.sol\":1531:1542  _checkOwner */\n      tag_97\n        /* \"lib/openzeppelin-contracts/contracts/access/Ownable.sol\":1531:1544  _checkOwner() */\n      jump\t// in\n    tag_181:\n        /* \"lib/openzeppelin-contracts/contracts/access/Ownable.sol\":2647:2648  0 */\n      0x00\n        /* \"lib/openzeppelin-contracts/contracts/access/Ownable.sol\":2627:2649  newOwner == address(0) */\n      0xffffffffffffffffffffffffffffffffffffffff\n      and\n        /* \"lib/openzeppelin-contracts/contracts/access/Ownable.sol\":2627:2635  newOwner */\n      dup2\n        /* \"lib/openzeppelin-contracts/contracts/access/Ownable.sol\":2627:2649  newOwner == address(0) */\n      0xffffffffffffffffffffffffffffffffffffffff\n      and\n      sub\n        /* \"lib/openzeppelin-contracts/contracts/access/Ownable.sol\":2623:2714  if (newOwner == address(0)) {... */\n      tag_183\n      jumpi\n        /* \"lib/openzeppelin-contracts/contracts/access/Ownable.sol\":2700:2701  0 */\n      0x00\n        /* \"lib/openzeppelin-contracts/contracts/access/Ownable.sol\":2672:2703  OwnableInvalidOwner(address(0)) */\n      mload(0x40)\n      0x1e4fbdf700000000000000000000000000000000000000000000000000000000\n      dup2\n      mstore\n      0x04\n      add\n      tag_184\n      swap2\n      swap1\n      tag_47\n      jump\t// in\n    tag_184:\n      mload(0x40)\n      dup1\n      swap2\n      sub\n      swap1\n      revert\n        /* \"lib/openzeppelin-contracts/contracts/access/Ownable.sol\":2623:2714  if (newOwner == address(0)) {... */\n    tag_183:\n        /* \"lib/openzeppelin-contracts/contracts/access/Ownable.sol\":2723:2751  _transferOwnership(newOwner) */\n      tag_185\n        /* \"lib/openzeppelin-contracts/contracts/access/Ownable.sol\":2742:2750  newOwner */\n      dup2\n        /* \"lib/openzeppelin-contracts/contracts/access/Ownable.sol\":2723:2741  _transferOwnership */\n      tag_108\n        /* \"lib/openzeppelin-contracts/contracts/access/Ownable.sol\":2723:2751  _transferOwnership(newOwner) */\n      jump\t// in\n    tag_185:\n        /* \"lib/openzeppelin-contracts/contracts/access/Ownable.sol\":2543:2758  function transferOwnership(address newOwner) public virtual onlyOwner {... */\n      pop\n      jump\t// out\n        /* \"src/NFTPoolManager.sol\":7597:7772  function rescueERC721(address token, uint256 tokenId, address to) external onlyOwner nonReentrant{... */\n    tag_76:\n        /* \"lib/openzeppelin-contracts/contracts/access/Ownable.sol\":1531:1544  _checkOwner() */\n      tag_187\n        /* \"lib/openzeppelin-contracts/contracts/access/Ownable.sol\":1531:1542  _checkOwner */\n      tag_97\n        /* \"lib/openzeppelin-contracts/contracts/access/Ownable.sol\":1531:1544  _checkOwner() */\n      jump\t// in\n    tag_187:\n        /* \"lib/openzeppelin-contracts/contracts/utils/ReentrancyGuard.sol\":2999:3020  _nonReentrantBefore() */\n      tag_189\n        /* \"lib/openzeppelin-contracts/contracts/utils/ReentrancyGuard.sol\":2999:3018  _nonReentrantBefore */\n      tag_115\n        /* \"lib/openzeppelin-contracts/contracts/utils/ReentrancyGuard.sol\":2999:3020  _nonReentrantBefore() */\n      jump\t// in\n    tag_189:\n        /* \"src/NFTPoolManager.sol\":7713:7718  token */\n      dup3\n        /* \"src/NFTPoolManager.sol\":7705:7736  IERC721(token).safeTransferFrom */\n      0xffffffffffffffffffffffffffffffffffffffff\n      and\n      0x42842e0e\n        /* \"src/NFTPoolManager.sol\":7745:7749  this */\n      address\n        /* \"src/NFTPoolManager.sol\":7752:7754  to */\n      dup4\n        /* \"src/NFTPoolManager.sol\":7756:7763  tokenId */\n      dup6\n        /* \"src/NFTPoolManager.sol\":7705:7764  IERC721(token).safeTransferFrom(address(this), to, tokenId) */\n      mload(0x40)\n      dup5\n      0xffffffff\n      and\n      0xe0\n      shl\n      dup2\n      mstore\n      0x04\n      add\n      tag_191\n      swap4\n      swap3\n      swap2\n      swap1\n      tag_137\n      jump\t// in\n    tag_191:\n      0x00\n      mload(0x40)\n      dup1\n      dup4\n      sub\n      dup2\n      0x00\n      dup8\n      dup1\n      extcodesize\n      iszero\n      dup1\n      iszero\n      tag_192\n      jumpi\n      revert(0x00, 0x00)\n    tag_192:\n      pop\n      gas\n      call\n      iszero\n      dup1\n      iszero\n      tag_194\n      jumpi\n      returndatacopy(0x00, 0x00, returndatasize)\n      revert(0x00, returndatasize)\n    tag_194:\n      pop\n      pop\n      pop\n      pop\n        /* \"lib/openzeppelin-contracts/contracts/utils/ReentrancyGuard.sol\":3041:3061  _nonReentrantAfter() */\n      tag_195\n        /* \"lib/openzeppelin-contracts/contracts/utils/ReentrancyGuard.sol\":3041:3059  _nonReentrantAfter */\n      tag_142\n        /* \"lib/openzeppelin-contracts/contracts/utils/ReentrancyGuard.sol\":3041:3061  _nonReentrantAfter() */\n      jump\t// in\n    tag_195:\n        /* \"src/NFTPoolManager.sol\":7597:7772  function rescueERC721(address token, uint256 tokenId, address to) external onlyOwner nonReentrant{... */\n      pop\n      pop\n      pop\n      jump\t// out\n        /* \"src/NFTPoolManager.sol\":6989:7162  function _itemKey(address token, uint256 tokenId, uint8 rarity) internal pure returns (bytes32) {... */\n    tag_92:\n        /* \"src/NFTPoolManager.sol\":7076:7083  bytes32 */\n      0x00\n        /* \"src/NFTPoolManager.sol\":7130:7135  token */\n      dup4\n        /* \"src/NFTPoolManager.sol\":7137:7144  tokenId */\n      dup4\n        /* \"src/NFTPoolManager.sol\":7146:7152  rarity */\n      dup4\n        /* \"src/NFTPoolManager.sol\":7113:7153  abi.encodePacked(token, tokenId, rarity) */\n      add(0x20, mload(0x40))\n      tag_197\n      swap4\n      swap3\n      swap2\n      swap1\n      tag_198\n      jump\t// in\n    tag_197:\n      mload(0x40)\n      0x20\n      dup2\n      dup4\n      sub\n      sub\n      dup2\n      mstore\n      swap1\n      0x40\n      mstore\n        /* \"src/NFTPoolManager.sol\":7103:7154  keccak256(abi.encodePacked(token, tokenId, rarity)) */\n      dup1\n      mload\n      swap1\n      0x20\n      add\n      keccak256\n        /* \"src/NFTPoolManager.sol\":7096:7154  return keccak256(abi.encodePacked(token, tokenId, rarity)) */\n      swap1\n      pop\n        /* \"src/NFTPoolManager.sol\":6989:7162  function _itemKey(address token, uint256 tokenId, uint8 rarity) internal pure returns (bytes32) {... */\n      swap4\n      swap3\n      pop\n      pop\n      pop\n      jump\t// out\n        /* \"lib/openzeppelin-contracts/contracts/access/Ownable.sol\":1796:1958  function _checkOwner() internal view virtual {... */\n    tag_97:\n        /* \"lib/openzeppelin-contracts/contracts/access/Ownable.sol\":1866:1878  _msgSender() */\n      tag_200\n        /* \"lib/openzeppelin-contracts/contracts/access/Ownable.sol\":1866:1876  _msgSender */\n      tag_201\n        /* \"lib/openzeppelin-contracts/contracts/access/Ownable.sol\":1866:1878  _msgSender() */\n      jump\t// in\n    tag_200:\n        /* \"lib/openzeppelin-contracts/contracts/access/Ownable.sol\":1855:1878  owner() != _msgSender() */\n      0xffffffffffffffffffffffffffffffffffffffff\n      and\n        /* \"lib/openzeppelin-contracts/contracts/access/Ownable.sol\":1855:1862  owner() */\n      tag_202\n        /* \"lib/openzeppelin-contracts/contracts/access/Ownable.sol\":1855:1860  owner */\n      tag_45\n        /* \"lib/openzeppelin-contracts/contracts/access/Ownable.sol\":1855:1862  owner() */\n      jump\t// in\n    tag_202:\n        /* \"lib/openzeppelin-contracts/contracts/access/Ownable.sol\":1855:1878  owner() != _msgSender() */\n      0xffffffffffffffffffffffffffffffffffffffff\n      and\n      eq\n        /* \"lib/openzeppelin-contracts/contracts/access/Ownable.sol\":1851:1952  if (owner() != _msgSender()) {... */\n      tag_203\n      jumpi\n        /* \"lib/openzeppelin-contracts/contracts/access/Ownable.sol\":1928:1940  _msgSender() */\n      tag_204\n        /* \"lib/openzeppelin-contracts/contracts/access/Ownable.sol\":1928:1938  _msgSender */\n      tag_201\n        /* \"lib/openzeppelin-contracts/contracts/access/Ownable.sol\":1928:1940  _msgSender() */\n      jump\t// in\n    tag_204:\n        /* \"lib/openzeppelin-contracts/contracts/access/Ownable.sol\":1901:1941  OwnableUnauthorizedAccount(_msgSender()) */\n      mload(0x40)\n      0x118cdaa700000000000000000000000000000000000000000000000000000000\n      dup2\n      mstore\n      0x04\n      add\n      tag_205\n      swap2\n      swap1\n      tag_47\n      jump\t// in\n    tag_205:\n      mload(0x40)\n      dup1\n      swap2\n      sub\n      swap1\n      revert\n        /* \"lib/openzeppelin-contracts/contracts/access/Ownable.sol\":1851:1952  if (owner() != _msgSender()) {... */\n    tag_203:\n        /* \"lib/openzeppelin-contracts/contracts/access/Ownable.sol\":1796:1958  function _checkOwner() internal view virtual {... */\n      jump\t// out\n        /* \"lib/openzeppelin-contracts/contracts/access/Ownable.sol\":2912:3099  function _transferOwnership(address newOwner) internal virtual {... */\n    tag_108:\n        /* \"lib/openzeppelin-contracts/contracts/access/Ownable.sol\":2985:3001  address oldOwner */\n      0x00\n        /* \"lib/openzeppelin-contracts/contracts/access/Ownable.sol\":3004:3010  _owner */\n      0x00\n      0x00\n      swap1\n      sload\n      swap1\n      0x0100\n      exp\n      swap1\n      div\n      0xffffffffffffffffffffffffffffffffffffffff\n      and\n        /* \"lib/openzeppelin-contracts/contracts/access/Ownable.sol\":2985:3010  address oldOwner = _owner */\n      swap1\n      pop\n        /* \"lib/openzeppelin-contracts/contracts/access/Ownable.sol\":3029:3037  newOwner */\n      dup2\n        /* \"lib/openzeppelin-contracts/contracts/access/Ownable.sol\":3020:3026  _owner */\n      0x00\n      0x00\n        /* \"lib/openzeppelin-contracts/contracts/access/Ownable.sol\":3020:3037  _owner = newOwner */\n      0x0100\n      exp\n      dup2\n      sload\n      dup2\n      0xffffffffffffffffffffffffffffffffffffffff\n      mul\n      not\n      and\n      swap1\n      dup4\n      0xffffffffffffffffffffffffffffffffffffffff\n      and\n      mul\n      or\n      swap1\n      sstore\n      pop\n        /* \"lib/openzeppelin-contracts/contracts/access/Ownable.sol\":3083:3091  newOwner */\n      dup2\n        /* \"lib/openzeppelin-contracts/contracts/access/Ownable.sol\":3052:3092  OwnershipTransferred(oldOwner, newOwner) */\n      0xffffffffffffffffffffffffffffffffffffffff\n      and\n        /* \"lib/openzeppelin-contracts/contracts/access/Ownable.sol\":3073:3081  oldOwner */\n      dup2\n        /* \"lib/openzeppelin-contracts/contracts/access/Ownable.sol\":3052:3092  OwnershipTransferred(oldOwner, newOwner) */\n      0xffffffffffffffffffffffffffffffffffffffff\n      and\n      0x8be0079c531659141344cd1fd0a4f28419497f9722a3daafe3b4186f6b6457e0\n      mload(0x40)\n      mload(0x40)\n      dup1\n      swap2\n      sub\n      swap1\n      log3\n        /* \"lib/openzeppelin-contracts/contracts/access/Ownable.sol\":2975:3099  {... */\n      pop\n        /* \"lib/openzeppelin-contracts/contracts/access/Ownable.sol\":2912:3099  function _transferOwnership(address newOwner) internal virtual {... */\n      pop\n      jump\t// out\n        /* \"lib/openzeppelin-contracts/contracts/utils/ReentrancyGuard.sol\":3725:4017  function _nonReentrantBefore() private {... */\n    tag_115:\n        /* \"lib/openzeppelin-contracts/contracts/utils/ReentrancyGuard.sol\":3848:3873  _nonReentrantBeforeView() */\n      tag_208\n        /* \"lib/openzeppelin-contracts/contracts/utils/ReentrancyGuard.sol\":3848:3871  _nonReentrantBeforeView */\n      tag_209\n        /* \"lib/openzeppelin-contracts/contracts/utils/ReentrancyGuard.sol\":3848:3873  _nonReentrantBeforeView() */\n      jump\t// in\n    tag_208:\n        /* \"lib/openzeppelin-contracts/contracts/utils/ReentrancyGuard.sol\":2383:2384  2 */\n      0x02\n        /* \"lib/openzeppelin-contracts/contracts/utils/ReentrancyGuard.sol\":3948:3994  _reentrancyGuardStorageSlot().getUint256Slot() */\n      tag_210\n        /* \"lib/openzeppelin-contracts/contracts/utils/ReentrancyGuard.sol\":3948:3977  _reentrancyGuardStorageSlot() */\n      tag_211\n        /* \"lib/openzeppelin-contracts/contracts/utils/ReentrancyGuard.sol\":3948:3975  _reentrancyGuardStorageSlot */\n      tag_212\n        /* \"lib/openzeppelin-contracts/contracts/utils/ReentrancyGuard.sol\":3948:3977  _reentrancyGuardStorageSlot() */\n      jump\t// in\n    tag_211:\n        /* \"lib/openzeppelin-contracts/contracts/utils/ReentrancyGuard.sol\":3948:3992  _reentrancyGuardStorageSlot().getUint256Slot */\n      tag_213\n        /* \"lib/openzeppelin-contracts/contracts/utils/ReentrancyGuard.sol\":3948:3994  _reentrancyGuardStorageSlot().getUint256Slot() */\n      jump\t// in\n    tag_210:\n        /* \"lib/openzeppelin-contracts/contracts/utils/ReentrancyGuard.sol\":3948:4000  _reentrancyGuardStorageSlot().getUint256Slot().value */\n      0x00\n      add\n        /* \"lib/openzeppelin-contracts/contracts/utils/ReentrancyGuard.sol\":3948:4010  _reentrancyGuardStorageSlot().getUint256Slot().value = ENTERED */\n      dup2\n      swap1\n      sstore\n      pop\n        /* \"lib/openzeppelin-contracts/contracts/utils/ReentrancyGuard.sol\":3725:4017  function _nonReentrantBefore() private {... */\n      jump\t// out\n        /* \"lib/openzeppelin-contracts/contracts/utils/ReentrancyGuard.sol\":4023:4276  function _nonReentrantAfter() private {... */\n    tag_142:\n        /* \"lib/openzeppelin-contracts/contracts/utils/ReentrancyGuard.sol\":2341:2342  1 */\n      0x01\n        /* \"lib/openzeppelin-contracts/contracts/utils/ReentrancyGuard.sol\":4203:4249  _reentrancyGuardStorageSlot().getUint256Slot() */\n      tag_215\n        /* \"lib/openzeppelin-contracts/contracts/utils/ReentrancyGuard.sol\":4203:4232  _reentrancyGuardStorageSlot() */\n      tag_216\n        /* \"lib/openzeppelin-contracts/contracts/utils/ReentrancyGuard.sol\":4203:4230  _reentrancyGuardStorageSlot */\n      tag_212\n        /* \"lib/openzeppelin-contracts/contracts/utils/ReentrancyGuard.sol\":4203:4232  _reentrancyGuardStorageSlot() */\n      jump\t// in\n    tag_216:\n        /* \"lib/openzeppelin-contracts/contracts/utils/ReentrancyGuard.sol\":4203:4247  _reentrancyGuardStorageSlot().getUint256Slot */\n      tag_213\n        /* \"lib/openzeppelin-contracts/contracts/utils/ReentrancyGuard.sol\":4203:4249  _reentrancyGuardStorageSlot().getUint256Slot() */\n      jump\t// in\n    tag_215:\n        /* \"lib/openzeppelin-contracts/contracts/utils/ReentrancyGuard.sol\":4203:4255  _reentrancyGuardStorageSlot().getUint256Slot().value */\n      0x00\n      add\n        /* \"lib/openzeppelin-contracts/contracts/utils/ReentrancyGuard.sol\":4203:4269  _reentrancyGuardStorageSlot().getUint256Slot().value = NOT_ENTERED */\n      dup2\n      swap1\n      sstore\n      pop\n        /* \"lib/openzeppelin-contracts/contracts/utils/ReentrancyGuard.sol\":4023:4276  function _nonReentrantAfter() private {... */\n      jump\t// out\n        /* \"lib/openzeppelin-contracts/contracts/utils/Context.sol\":656:752  function _msgSender() internal view virtual returns (address) {... */\n    tag_201:\n        /* \"lib/openzeppelin-contracts/contracts/utils/Context.sol\":709:716  address */\n      0x00\n        /* \"lib/openzeppelin-contracts/contracts/utils/Context.sol\":735:745  msg.sender */\n      caller\n        /* \"lib/openzeppelin-contracts/contracts/utils/Context.sol\":728:745  return msg.sender */\n      swap1\n      pop\n        /* \"lib/openzeppelin-contracts/contracts/utils/Context.sol\":656:752  function _msgSender() internal view virtual returns (address) {... */\n      swap1\n      jump\t// out\n        /* \"lib/openzeppelin-contracts/contracts/utils/ReentrancyGuard.sol\":3562:3719  function _nonReentrantBeforeView() private view {... */\n    tag_209:\n        /* \"lib/openzeppelin-contracts/contracts/utils/ReentrancyGuard.sol\":3624:3649  _reentrancyGuardEntered() */\n      tag_219\n        /* \"lib/openzeppelin-contracts/contracts/utils/ReentrancyGuard.sol\":3624:3647  _reentrancyGuardEntered */\n      tag_220\n        /* \"lib/openzeppelin-contracts/contracts/utils/ReentrancyGuard.sol\":3624:3649  _reentrancyGuardEntered() */\n      jump\t// in\n    tag_219:\n        /* \"lib/openzeppelin-contracts/contracts/utils/ReentrancyGuard.sol\":3620:3713  if (_reentrancyGuardEntered()) {... */\n      iszero\n      tag_221\n      jumpi\n        /* \"lib/openzeppelin-contracts/contracts/utils/ReentrancyGuard.sol\":3672:3702  ReentrancyGuardReentrantCall() */\n      mload(0x40)\n      0x3ee5aeb500000000000000000000000000000000000000000000000000000000\n      dup2\n      mstore\n      0x04\n      add\n      mload(0x40)\n      dup1\n      swap2\n      sub\n      swap1\n      revert\n        /* \"lib/openzeppelin-contracts/contracts/utils/ReentrancyGuard.sol\":3620:3713  if (_reentrancyGuardEntered()) {... */\n    tag_221:\n        /* \"lib/openzeppelin-contracts/contracts/utils/ReentrancyGuard.sol\":3562:3719  function _nonReentrantBeforeView() private view {... */\n      jump\t// out\n        /* \"lib/openzeppelin-contracts/contracts/utils/ReentrancyGuard.sol\":4612:4739  function _reentrancyGuardStorageSlot() internal pure virtual returns (bytes32) {... */\n    tag_212:\n        /* \"lib/openzeppelin-contracts/contracts/utils/ReentrancyGuard.sol\":4682:4689  bytes32 */\n      0x00\n        /* \"lib/openzeppelin-contracts/contracts/utils/ReentrancyGuard.sol\":1481:1547  0x9b779b17422d0df92223018b32b4d1fa46e071723d6817e2486d003becc55f00 */\n      0x9b779b17422d0df92223018b32b4d1fa46e071723d6817e2486d003becc55f00\n        /* \"lib/openzeppelin-contracts/contracts/utils/ReentrancyGuard.sol\":4708:4732  REENTRANCY_GUARD_STORAGE */\n      0x00\n      shl\n        /* \"lib/openzeppelin-contracts/contracts/utils/ReentrancyGuard.sol\":4701:4732  return REENTRANCY_GUARD_STORAGE */\n      swap1\n      pop\n        /* \"lib/openzeppelin-contracts/contracts/utils/ReentrancyGuard.sol\":4612:4739  function _reentrancyGuardStorageSlot() internal pure virtual returns (bytes32) {... */\n      swap1\n      jump\t// out\n        /* \"lib/openzeppelin-contracts/contracts/utils/StorageSlot.sol\":2679:2842  function getUint256Slot(bytes32 slot) internal pure returns (Uint256Slot storage r) {... */\n    tag_213:\n        /* \"lib/openzeppelin-contracts/contracts/utils/StorageSlot.sol\":2740:2761  Uint256Slot storage r */\n      0x00\n        /* \"lib/openzeppelin-contracts/contracts/utils/StorageSlot.sol\":2822:2826  slot */\n      dup2\n        /* \"lib/openzeppelin-contracts/contracts/utils/StorageSlot.sol\":2812:2826  r.slot := slot */\n      swap1\n      pop\n        /* \"lib/openzeppelin-contracts/contracts/utils/StorageSlot.sol\":2679:2842  function getUint256Slot(bytes32 slot) internal pure returns (Uint256Slot storage r) {... */\n      swap2\n      swap1\n      pop\n      jump\t// out\n        /* \"lib/openzeppelin-contracts/contracts/utils/ReentrancyGuard.sol\":4455:4606  function _reentrancyGuardEntered() internal view returns (bool) {... */\n    tag_220:\n        /* \"lib/openzeppelin-contracts/contracts/utils/ReentrancyGuard.sol\":4513:4517  bool */\n      0x00\n        /* \"lib/openzeppelin-contracts/contracts/utils/ReentrancyGuard.sol\":2383:2384  2 */\n      0x02\n        /* \"lib/openzeppelin-contracts/contracts/utils/ReentrancyGuard.sol\":4536:4582  _reentrancyGuardStorageSlot().getUint256Slot() */\n      tag_225\n        /* \"lib/openzeppelin-contracts/contracts/utils/ReentrancyGuard.sol\":4536:4565  _reentrancyGuardStorageSlot() */\n      tag_226\n        /* \"lib/openzeppelin-contracts/contracts/utils/ReentrancyGuard.sol\":4536:4563  _reentrancyGuardStorageSlot */\n      tag_212\n        /* \"lib/openzeppelin-contracts/contracts/utils/ReentrancyGuard.sol\":4536:4565  _reentrancyGuardStorageSlot() */\n      jump\t// in\n    tag_226:\n        /* \"lib/openzeppelin-contracts/contracts/utils/ReentrancyGuard.sol\":4536:4580  _reentrancyGuardStorageSlot().getUint256Slot */\n      tag_213\n        /* \"lib/openzeppelin-contracts/contracts/utils/ReentrancyGuard.sol\":4536:4582  _reentrancyGuardStorageSlot().getUint256Slot() */\n      jump\t// in\n    tag_225:\n        /* \"lib/openzeppelin-contracts/contracts/utils/ReentrancyGuard.sol\":4536:4588  _reentrancyGuardStorageSlot().getUint256Slot().value */\n      0x00\n      add\n      sload\n        /* \"lib/openzeppelin-contracts/contracts/utils/ReentrancyGuard.sol\":4536:4599  _reentrancyGuardStorageSlot().getUint256Slot().value == ENTERED */\n      eq\n        /* \"lib/openzeppelin-contracts/contracts/utils/ReentrancyGuard.sol\":4529:4599  return _reentrancyGuardStorageSlot().getUint256Slot().value == ENTERED */\n      swap1\n      pop\n        /* \"lib/openzeppelin-contracts/contracts/utils/ReentrancyGuard.sol\":4455:4606  function _reentrancyGuardEntered() internal view returns (bool) {... */\n      swap1\n      jump\t// out\n        /* \"#utility.yul\":88:205   */\n    tag_228:\n        /* \"#utility.yul\":197:198   */\n      0x00\n        /* \"#utility.yul\":194:195   */\n      0x00\n        /* \"#utility.yul\":187:199   */\n      revert\n        /* \"#utility.yul\":211:328   */\n    tag_229:\n        /* \"#utility.yul\":320:321   */\n      0x00\n        /* \"#utility.yul\":317:318   */\n      0x00\n        /* \"#utility.yul\":310:322   */\n      revert\n        /* \"#utility.yul\":334:460   */\n    tag_230:\n        /* \"#utility.yul\":371:378   */\n      0x00\n        /* \"#utility.yul\":411:453   */\n      0xffffffffffffffffffffffffffffffffffffffff\n        /* \"#utility.yul\":404:409   */\n      dup3\n        /* \"#utility.yul\":400:454   */\n      and\n        /* \"#utility.yul\":389:454   */\n      swap1\n      pop\n        /* \"#utility.yul\":334:460   */\n      swap2\n      swap1\n      pop\n      jump\t// out\n        /* \"#utility.yul\":466:562   */\n    tag_231:\n        /* \"#utility.yul\":503:510   */\n      0x00\n        /* \"#utility.yul\":532:556   */\n      tag_273\n        /* \"#utility.yul\":550:555   */\n      dup3\n        /* \"#utility.yul\":532:556   */\n      tag_230\n      jump\t// in\n    tag_273:\n        /* \"#utility.yul\":521:556   */\n      swap1\n      pop\n        /* \"#utility.yul\":466:562   */\n      swap2\n      swap1\n      pop\n      jump\t// out\n        /* \"#utility.yul\":568:690   */\n    tag_232:\n        /* \"#utility.yul\":641:665   */\n      tag_275\n        /* \"#utility.yul\":659:664   */\n      dup2\n        /* \"#utility.yul\":641:665   */\n      tag_231\n      jump\t// in\n    tag_275:\n        /* \"#utility.yul\":634:639   */\n      dup2\n        /* \"#utility.yul\":631:666   */\n      eq\n        /* \"#utility.yul\":621:684   */\n      tag_276\n      jumpi\n        /* \"#utility.yul\":680:681   */\n      0x00\n        /* \"#utility.yul\":677:678   */\n      0x00\n        /* \"#utility.yul\":670:682   */\n      revert\n        /* \"#utility.yul\":621:684   */\n    tag_276:\n        /* \"#utility.yul\":568:690   */\n      pop\n      jump\t// out\n        /* \"#utility.yul\":696:835   */\n    tag_233:\n        /* \"#utility.yul\":742:747   */\n      0x00\n        /* \"#utility.yul\":780:786   */\n      dup2\n        /* \"#utility.yul\":767:787   */\n      calldataload\n        /* \"#utility.yul\":758:787   */\n      swap1\n      pop\n        /* \"#utility.yul\":796:829   */\n      tag_278\n        /* \"#utility.yul\":823:828   */\n      dup2\n        /* \"#utility.yul\":796:829   */\n      tag_232\n      jump\t// in\n    tag_278:\n        /* \"#utility.yul\":696:835   */\n      swap3\n      swap2\n      pop\n      pop\n      jump\t// out\n        /* \"#utility.yul\":841:918   */\n    tag_234:\n        /* \"#utility.yul\":878:885   */\n      0x00\n        /* \"#utility.yul\":907:912   */\n      dup2\n        /* \"#utility.yul\":896:912   */\n      swap1\n      pop\n        /* \"#utility.yul\":841:918   */\n      swap2\n      swap1\n      pop\n      jump\t// out\n        /* \"#utility.yul\":924:1046   */\n    tag_235:\n        /* \"#utility.yul\":997:1021   */\n      tag_281\n        /* \"#utility.yul\":1015:1020   */\n      dup2\n        /* \"#utility.yul\":997:1021   */\n      tag_234\n      jump\t// in\n    tag_281:\n        /* \"#utility.yul\":990:995   */\n      dup2\n        /* \"#utility.yul\":987:1022   */\n      eq\n        /* \"#utility.yul\":977:1040   */\n      tag_282\n      jumpi\n        /* \"#utility.yul\":1036:1037   */\n      0x00\n        /* \"#utility.yul\":1033:1034   */\n      0x00\n        /* \"#utility.yul\":1026:1038   */\n      revert\n        /* \"#utility.yul\":977:1040   */\n    tag_282:\n        /* \"#utility.yul\":924:1046   */\n      pop\n      jump\t// out\n        /* \"#utility.yul\":1052:1191   */\n    tag_236:\n        /* \"#utility.yul\":1098:1103   */\n      0x00\n        /* \"#utility.yul\":1136:1142   */\n      dup2\n        /* \"#utility.yul\":1123:1143   */\n      calldataload\n        /* \"#utility.yul\":1114:1143   */\n      swap1\n      pop\n        /* \"#utility.yul\":1152:1185   */\n      tag_284\n        /* \"#utility.yul\":1179:1184   */\n      dup2\n        /* \"#utility.yul\":1152:1185   */\n      tag_235\n      jump\t// in\n    tag_284:\n        /* \"#utility.yul\":1052:1191   */\n      swap3\n      swap2\n      pop\n      pop\n      jump\t// out\n        /* \"#utility.yul\":1197:1314   */\n    tag_237:\n        /* \"#utility.yul\":1306:1307   */\n      0x00\n        /* \"#utility.yul\":1303:1304   */\n      0x00\n        /* \"#utility.yul\":1296:1308   */\n      revert\n        /* \"#utility.yul\":1320:1437   */\n    tag_238:\n        /* \"#utility.yul\":1429:1430   */\n      0x00\n        /* \"#utility.yul\":1426:1427   */\n      0x00\n        /* \"#utility.yul\":1419:1431   */\n      revert\n        /* \"#utility.yul\":1443:1560   */\n    tag_239:\n        /* \"#utility.yul\":1552:1553   */\n      0x00\n        /* \"#utility.yul\":1549:1550   */\n      0x00\n        /* \"#utility.yul\":1542:1554   */\n      revert\n        /* \"#utility.yul\":1579:2131   */\n    tag_240:\n        /* \"#utility.yul\":1636:1644   */\n      0x00\n        /* \"#utility.yul\":1646:1652   */\n      0x00\n        /* \"#utility.yul\":1696:1699   */\n      dup4\n        /* \"#utility.yul\":1689:1693   */\n      0x1f\n        /* \"#utility.yul\":1681:1687   */\n      dup5\n        /* \"#utility.yul\":1677:1694   */\n      add\n        /* \"#utility.yul\":1673:1700   */\n      slt\n        /* \"#utility.yul\":1663:1785   */\n      tag_289\n      jumpi\n        /* \"#utility.yul\":1704:1783   */\n      tag_290\n      tag_237\n      jump\t// in\n    tag_290:\n        /* \"#utility.yul\":1663:1785   */\n    tag_289:\n        /* \"#utility.yul\":1817:1823   */\n      dup3\n        /* \"#utility.yul\":1804:1824   */\n      calldataload\n        /* \"#utility.yul\":1794:1824   */\n      swap1\n      pop\n        /* \"#utility.yul\":1847:1865   */\n      0xffffffffffffffff\n        /* \"#utility.yul\":1839:1845   */\n      dup2\n        /* \"#utility.yul\":1836:1866   */\n      gt\n        /* \"#utility.yul\":1833:1950   */\n      iszero\n      tag_291\n      jumpi\n        /* \"#utility.yul\":1869:1948   */\n      tag_292\n      tag_238\n      jump\t// in\n    tag_292:\n        /* \"#utility.yul\":1833:1950   */\n    tag_291:\n        /* \"#utility.yul\":1983:1987   */\n      0x20\n        /* \"#utility.yul\":1975:1981   */\n      dup4\n        /* \"#utility.yul\":1971:1988   */\n      add\n        /* \"#utility.yul\":1959:1988   */\n      swap2\n      pop\n        /* \"#utility.yul\":2037:2040   */\n      dup4\n        /* \"#utility.yul\":2029:2033   */\n      0x01\n        /* \"#utility.yul\":2021:2027   */\n      dup3\n        /* \"#utility.yul\":2017:2034   */\n      mul\n        /* \"#utility.yul\":2007:2015   */\n      dup4\n        /* \"#utility.yul\":2003:2035   */\n      add\n        /* \"#utility.yul\":2000:2041   */\n      gt\n        /* \"#utility.yul\":1997:2125   */\n      iszero\n      tag_293\n      jumpi\n        /* \"#utility.yul\":2044:2123   */\n      tag_294\n      tag_239\n      jump\t// in\n    tag_294:\n        /* \"#utility.yul\":1997:2125   */\n    tag_293:\n        /* \"#utility.yul\":1579:2131   */\n      swap3\n      pop\n      swap3\n      swap1\n      pop\n      jump\t// out\n        /* \"#utility.yul\":2137:3100   */\n    tag_20:\n        /* \"#utility.yul\":2234:2240   */\n      0x00\n        /* \"#utility.yul\":2242:2248   */\n      0x00\n        /* \"#utility.yul\":2250:2256   */\n      0x00\n        /* \"#utility.yul\":2258:2264   */\n      0x00\n        /* \"#utility.yul\":2266:2272   */\n      0x00\n        /* \"#utility.yul\":2315:2318   */\n      0x80\n        /* \"#utility.yul\":2303:2312   */\n      dup7\n        /* \"#utility.yul\":2294:2301   */\n      dup9\n        /* \"#utility.yul\":2290:2313   */\n      sub\n        /* \"#utility.yul\":2286:2319   */\n      slt\n        /* \"#utility.yul\":2283:2403   */\n      iszero\n      tag_296\n      jumpi\n        /* \"#utility.yul\":2322:2401   */\n      tag_297\n      tag_228\n      jump\t// in\n    tag_297:\n        /* \"#utility.yul\":2283:2403   */\n    tag_296:\n        /* \"#utility.yul\":2442:2443   */\n      0x00\n        /* \"#utility.yul\":2467:2520   */\n      tag_298\n        /* \"#utility.yul\":2512:2519   */\n      dup9\n        /* \"#utility.yul\":2503:2509   */\n      dup3\n        /* \"#utility.yul\":2492:2501   */\n      dup10\n        /* \"#utility.yul\":2488:2510   */\n      add\n        /* \"#utility.yul\":2467:2520   */\n      tag_233\n      jump\t// in\n    tag_298:\n        /* \"#utility.yul\":2457:2520   */\n      swap6\n      pop\n        /* \"#utility.yul\":2413:2530   */\n      pop\n        /* \"#utility.yul\":2569:2571   */\n      0x20\n        /* \"#utility.yul\":2595:2648   */\n      tag_299\n        /* \"#utility.yul\":2640:2647   */\n      dup9\n        /* \"#utility.yul\":2631:2637   */\n      dup3\n        /* \"#utility.yul\":2620:2629   */\n      dup10\n        /* \"#utility.yul\":2616:2638   */\n      add\n        /* \"#utility.yul\":2595:2648   */\n      tag_233\n      jump\t// in\n    tag_299:\n        /* \"#utility.yul\":2585:2648   */\n      swap5\n      pop\n        /* \"#utility.yul\":2540:2658   */\n      pop\n        /* \"#utility.yul\":2697:2699   */\n      0x40\n        /* \"#utility.yul\":2723:2776   */\n      tag_300\n        /* \"#utility.yul\":2768:2775   */\n      dup9\n        /* \"#utility.yul\":2759:2765   */\n      dup3\n        /* \"#utility.yul\":2748:2757   */\n      dup10\n        /* \"#utility.yul\":2744:2766   */\n      add\n        /* \"#utility.yul\":2723:2776   */\n      tag_236\n      jump\t// in\n    tag_300:\n        /* \"#utility.yul\":2713:2776   */\n      swap4\n      pop\n        /* \"#utility.yul\":2668:2786   */\n      pop\n        /* \"#utility.yul\":2853:2855   */\n      0x60\n        /* \"#utility.yul\":2842:2851   */\n      dup7\n        /* \"#utility.yul\":2838:2856   */\n      add\n        /* \"#utility.yul\":2825:2857   */\n      calldataload\n        /* \"#utility.yul\":2884:2902   */\n      0xffffffffffffffff\n        /* \"#utility.yul\":2876:2882   */\n      dup2\n        /* \"#utility.yul\":2873:2903   */\n      gt\n        /* \"#utility.yul\":2870:2987   */\n      iszero\n      tag_301\n      jumpi\n        /* \"#utility.yul\":2906:2985   */\n      tag_302\n      tag_229\n      jump\t// in\n    tag_302:\n        /* \"#utility.yul\":2870:2987   */\n    tag_301:\n        /* \"#utility.yul\":3019:3083   */\n      tag_303\n        /* \"#utility.yul\":3075:3082   */\n      dup9\n        /* \"#utility.yul\":3066:3072   */\n      dup3\n        /* \"#utility.yul\":3055:3064   */\n      dup10\n        /* \"#utility.yul\":3051:3073   */\n      add\n        /* \"#utility.yul\":3019:3083   */\n      tag_240\n      jump\t// in\n    tag_303:\n        /* \"#utility.yul\":3001:3083   */\n      swap3\n      pop\n      swap3\n      pop\n        /* \"#utility.yul\":2796:3093   */\n      pop\n        /* \"#utility.yul\":2137:3100   */\n      swap3\n      swap6\n      pop\n      swap3\n      swap6\n      swap1\n      swap4\n      pop\n      jump\t// out\n        /* \"#utility.yul\":3106:3255   */\n    tag_241:\n        /* \"#utility.yul\":3142:3149   */\n      0x00\n        /* \"#utility.yul\":3182:3248   */\n      0xffffffff00000000000000000000000000000000000000000000000000000000\n        /* \"#utility.yul\":3175:3180   */\n      dup3\n        /* \"#utility.yul\":3171:3249   */\n      and\n        /* \"#utility.yul\":3160:3249   */\n      swap1\n      pop\n        /* \"#utility.yul\":3106:3255   */\n      swap2\n      swap1\n      pop\n      jump\t// out\n        /* \"#utility.yul\":3261:3376   */\n    tag_242:\n        /* \"#utility.yul\":3346:3369   */\n      tag_306\n        /* \"#utility.yul\":3363:3368   */\n      dup2\n        /* \"#utility.yul\":3346:3369   */\n      tag_241\n      jump\t// in\n    tag_306:\n        /* \"#utility.yul\":3341:3344   */\n      dup3\n        /* \"#utility.yul\":3334:3370   */\n      mstore\n        /* \"#utility.yul\":3261:3376   */\n      pop\n      pop\n      jump\t// out\n        /* \"#utility.yul\":3382:3600   */\n    tag_23:\n        /* \"#utility.yul\":3473:3477   */\n      0x00\n        /* \"#utility.yul\":3511:3513   */\n      0x20\n        /* \"#utility.yul\":3500:3509   */\n      dup3\n        /* \"#utility.yul\":3496:3514   */\n      add\n        /* \"#utility.yul\":3488:3514   */\n      swap1\n      pop\n        /* \"#utility.yul\":3524:3593   */\n      tag_308\n        /* \"#utility.yul\":3590:3591   */\n      0x00\n        /* \"#utility.yul\":3579:3588   */\n      dup4\n        /* \"#utility.yul\":3575:3592   */\n      add\n        /* \"#utility.yul\":3566:3572   */\n      dup5\n        /* \"#utility.yul\":3524:3593   */\n      tag_242\n      jump\t// in\n    tag_308:\n        /* \"#utility.yul\":3382:3600   */\n      swap3\n      swap2\n      pop\n      pop\n      jump\t// out\n        /* \"#utility.yul\":3606:3696   */\n    tag_243:\n        /* \"#utility.yul\":3640:3647   */\n      0x00\n        /* \"#utility.yul\":3683:3688   */\n      dup2\n        /* \"#utility.yul\":3676:3689   */\n      iszero\n        /* \"#utility.yul\":3669:3690   */\n      iszero\n        /* \"#utility.yul\":3658:3690   */\n      swap1\n      pop\n        /* \"#utility.yul\":3606:3696   */\n      swap2\n      swap1\n      pop\n      jump\t// out\n        /* \"#utility.yul\":3702:3818   */\n    tag_244:\n        /* \"#utility.yul\":3772:3793   */\n      tag_311\n        /* \"#utility.yul\":3787:3792   */\n      dup2\n        /* \"#utility.yul\":3772:3793   */\n      tag_243\n      jump\t// in\n    tag_311:\n        /* \"#utility.yul\":3765:3770   */\n      dup2\n        /* \"#utility.yul\":3762:3794   */\n      eq\n        /* \"#utility.yul\":3752:3812   */\n      tag_312\n      jumpi\n        /* \"#utility.yul\":3808:3809   */\n      0x00\n        /* \"#utility.yul\":3805:3806   */\n      0x00\n        /* \"#utility.yul\":3798:3810   */\n      revert\n        /* \"#utility.yul\":3752:3812   */\n    tag_312:\n        /* \"#utility.yul\":3702:3818   */\n      pop\n      jump\t// out\n        /* \"#utility.yul\":3824:3957   */\n    tag_245:\n        /* \"#utility.yul\":3867:3872   */\n      0x00\n        /* \"#utility.yul\":3905:3911   */\n      dup2\n        /* \"#utility.yul\":3892:3912   */\n      calldataload\n        /* \"#utility.yul\":3883:3912   */\n      swap1\n      pop\n        /* \"#utility.yul\":3921:3951   */\n      tag_314\n        /* \"#utility.yul\":3945:3950   */\n      dup2\n        /* \"#utility.yul\":3921:3951   */\n      tag_244\n      jump\t// in\n    tag_314:\n        /* \"#utility.yul\":3824:3957   */\n      swap3\n      swap2\n      pop\n      pop\n      jump\t// out\n        /* \"#utility.yul\":3963:4431   */\n    tag_26:\n        /* \"#utility.yul\":4028:4034   */\n      0x00\n        /* \"#utility.yul\":4036:4042   */\n      0x00\n        /* \"#utility.yul\":4085:4087   */\n      0x40\n        /* \"#utility.yul\":4073:4082   */\n      dup4\n        /* \"#utility.yul\":4064:4071   */\n      dup6\n        /* \"#utility.yul\":4060:4083   */\n      sub\n        /* \"#utility.yul\":4056:4088   */\n      slt\n        /* \"#utility.yul\":4053:4172   */\n      iszero\n      tag_316\n      jumpi\n        /* \"#utility.yul\":4091:4170   */\n      tag_317\n      tag_228\n      jump\t// in\n    tag_317:\n        /* \"#utility.yul\":4053:4172   */\n    tag_316:\n        /* \"#utility.yul\":4211:4212   */\n      0x00\n        /* \"#utility.yul\":4236:4289   */\n      tag_318\n        /* \"#utility.yul\":4281:4288   */\n      dup6\n        /* \"#utility.yul\":4272:4278   */\n      dup3\n        /* \"#utility.yul\":4261:4270   */\n      dup7\n        /* \"#utility.yul\":4257:4279   */\n      add\n        /* \"#utility.yul\":4236:4289   */\n      tag_233\n      jump\t// in\n    tag_318:\n        /* \"#utility.yul\":4226:4289   */\n      swap3\n      pop\n        /* \"#utility.yul\":4182:4299   */\n      pop\n        /* \"#utility.yul\":4338:4340   */\n      0x20\n        /* \"#utility.yul\":4364:4414   */\n      tag_319\n        /* \"#utility.yul\":4406:4413   */\n      dup6\n        /* \"#utility.yul\":4397:4403   */\n      dup3\n        /* \"#utility.yul\":4386:4395   */\n      dup7\n        /* \"#utility.yul\":4382:4404   */\n      add\n        /* \"#utility.yul\":4364:4414   */\n      tag_245\n      jump\t// in\n    tag_319:\n        /* \"#utility.yul\":4354:4414   */\n      swap2\n      pop\n        /* \"#utility.yul\":4309:4424   */\n      pop\n        /* \"#utility.yul\":3963:4431   */\n      swap3\n      pop\n      swap3\n      swap1\n      pop\n      jump\t// out\n        /* \"#utility.yul\":4437:4523   */\n    tag_246:\n        /* \"#utility.yul\":4472:4479   */\n      0x00\n        /* \"#utility.yul\":4512:4516   */\n      0xff\n        /* \"#utility.yul\":4505:4510   */\n      dup3\n        /* \"#utility.yul\":4501:4517   */\n      and\n        /* \"#utility.yul\":4490:4517   */\n      swap1\n      pop\n        /* \"#utility.yul\":4437:4523   */\n      swap2\n      swap1\n      pop\n      jump\t// out\n        /* \"#utility.yul\":4529:4647   */\n    tag_247:\n        /* \"#utility.yul\":4600:4622   */\n      tag_322\n        /* \"#utility.yul\":4616:4621   */\n      dup2\n        /* \"#utility.yul\":4600:4622   */\n      tag_246\n      jump\t// in\n    tag_322:\n        /* \"#utility.yul\":4593:4598   */\n      dup2\n        /* \"#utility.yul\":4590:4623   */\n      eq\n        /* \"#utility.yul\":4580:4641   */\n      tag_323\n      jumpi\n        /* \"#utility.yul\":4637:4638   */\n      0x00\n        /* \"#utility.yul\":4634:4635   */\n      0x00\n        /* \"#utility.yul\":4627:4639   */\n      revert\n        /* \"#utility.yul\":4580:4641   */\n    tag_323:\n        /* \"#utility.yul\":4529:4647   */\n      pop\n      jump\t// out\n        /* \"#utility.yul\":4653:4788   */\n    tag_248:\n        /* \"#utility.yul\":4697:4702   */\n      0x00\n        /* \"#utility.yul\":4735:4741   */\n      dup2\n        /* \"#utility.yul\":4722:4742   */\n      calldataload\n        /* \"#utility.yul\":4713:4742   */\n      swap1\n      pop\n        /* \"#utility.yul\":4751:4782   */\n      tag_325\n        /* \"#utility.yul\":4776:4781   */\n      dup2\n        /* \"#utility.yul\":4751:4782   */\n      tag_247\n      jump\t// in\n    tag_325:\n        /* \"#utility.yul\":4653:4788   */\n      swap3\n      swap2\n      pop\n      pop\n      jump\t// out\n        /* \"#utility.yul\":4794:5264   */\n    tag_30:\n        /* \"#utility.yul\":4860:4866   */\n      0x00\n        /* \"#utility.yul\":4868:4874   */\n      0x00\n        /* \"#utility.yul\":4917:4919   */\n      0x40\n        /* \"#utility.yul\":4905:4914   */\n      dup4\n        /* \"#utility.yul\":4896:4903   */\n      dup6\n        /* \"#utility.yul\":4892:4915   */\n      sub\n        /* \"#utility.yul\":4888:4920   */\n      slt\n        /* \"#utility.yul\":4885:5004   */\n      iszero\n      tag_327\n      jumpi\n        /* \"#utility.yul\":4923:5002   */\n      tag_328\n      tag_228\n      jump\t// in\n    tag_328:\n        /* \"#utility.yul\":4885:5004   */\n    tag_327:\n        /* \"#utility.yul\":5043:5044   */\n      0x00\n        /* \"#utility.yul\":5068:5119   */\n      tag_329\n        /* \"#utility.yul\":5111:5118   */\n      dup6\n        /* \"#utility.yul\":5102:5108   */\n      dup3\n        /* \"#utility.yul\":5091:5100   */\n      dup7\n        /* \"#utility.yul\":5087:5109   */\n      add\n        /* \"#utility.yul\":5068:5119   */\n      tag_248\n      jump\t// in\n    tag_329:\n        /* \"#utility.yul\":5058:5119   */\n      swap3\n      pop\n        /* \"#utility.yul\":5014:5129   */\n      pop\n        /* \"#utility.yul\":5168:5170   */\n      0x20\n        /* \"#utility.yul\":5194:5247   */\n      tag_330\n        /* \"#utility.yul\":5239:5246   */\n      dup6\n        /* \"#utility.yul\":5230:5236   */\n      dup3\n        /* \"#utility.yul\":5219:5228   */\n      dup7\n        /* \"#utility.yul\":5215:5237   */\n      add\n        /* \"#utility.yul\":5194:5247   */\n      tag_236\n      jump\t// in\n    tag_330:\n        /* \"#utility.yul\":5184:5247   */\n      swap2\n      pop\n        /* \"#utility.yul\":5139:5257   */\n      pop\n        /* \"#utility.yul\":4794:5264   */\n      swap3\n      pop\n      swap3\n      swap1\n      pop\n      jump\t// out\n        /* \"#utility.yul\":5270:5388   */\n    tag_249:\n        /* \"#utility.yul\":5357:5381   */\n      tag_332\n        /* \"#utility.yul\":5375:5380   */\n      dup2\n        /* \"#utility.yul\":5357:5381   */\n      tag_231\n      jump\t// in\n    tag_332:\n        /* \"#utility.yul\":5352:5355   */\n      dup3\n        /* \"#utility.yul\":5345:5382   */\n      mstore\n        /* \"#utility.yul\":5270:5388   */\n      pop\n      pop\n      jump\t// out\n        /* \"#utility.yul\":5394:5512   */\n    tag_250:\n        /* \"#utility.yul\":5481:5505   */\n      tag_334\n        /* \"#utility.yul\":5499:5504   */\n      dup2\n        /* \"#utility.yul\":5481:5505   */\n      tag_234\n      jump\t// in\n    tag_334:\n        /* \"#utility.yul\":5476:5479   */\n      dup3\n        /* \"#utility.yul\":5469:5506   */\n      mstore\n        /* \"#utility.yul\":5394:5512   */\n      pop\n      pop\n      jump\t// out\n        /* \"#utility.yul\":5518:5850   */\n    tag_33:\n        /* \"#utility.yul\":5639:5643   */\n      0x00\n        /* \"#utility.yul\":5677:5679   */\n      0x40\n        /* \"#utility.yul\":5666:5675   */\n      dup3\n        /* \"#utility.yul\":5662:5680   */\n      add\n        /* \"#utility.yul\":5654:5680   */\n      swap1\n      pop\n        /* \"#utility.yul\":5690:5761   */\n      tag_336\n        /* \"#utility.yul\":5758:5759   */\n      0x00\n        /* \"#utility.yul\":5747:5756   */\n      dup4\n        /* \"#utility.yul\":5743:5760   */\n      add\n        /* \"#utility.yul\":5734:5740   */\n      dup6\n        /* \"#utility.yul\":5690:5761   */\n      tag_249\n      jump\t// in\n    tag_336:\n        /* \"#utility.yul\":5771:5843   */\n      tag_337\n        /* \"#utility.yul\":5839:5841   */\n      0x20\n        /* \"#utility.yul\":5828:5837   */\n      dup4\n        /* \"#utility.yul\":5824:5842   */\n      add\n        /* \"#utility.yul\":5815:5821   */\n      dup5\n        /* \"#utility.yul\":5771:5843   */\n      tag_250\n      jump\t// in\n    tag_337:\n        /* \"#utility.yul\":5518:5850   */\n      swap4\n      swap3\n      pop\n      pop\n      pop\n      jump\t// out\n        /* \"#utility.yul\":5856:6617   */\n    tag_42:\n        /* \"#utility.yul\":5940:5946   */\n      0x00\n        /* \"#utility.yul\":5948:5954   */\n      0x00\n        /* \"#utility.yul\":5956:5962   */\n      0x00\n        /* \"#utility.yul\":5964:5970   */\n      0x00\n        /* \"#utility.yul\":6013:6016   */\n      0x80\n        /* \"#utility.yul\":6001:6010   */\n      dup6\n        /* \"#utility.yul\":5992:5999   */\n      dup8\n        /* \"#utility.yul\":5988:6011   */\n      sub\n        /* \"#utility.yul\":5984:6017   */\n      slt\n        /* \"#utility.yul\":5981:6101   */\n      iszero\n      tag_339\n      jumpi\n        /* \"#utility.yul\":6020:6099   */\n      tag_340\n      tag_228\n      jump\t// in\n    tag_340:\n        /* \"#utility.yul\":5981:6101   */\n    tag_339:\n        /* \"#utility.yul\":6140:6141   */\n      0x00\n        /* \"#utility.yul\":6165:6218   */\n      tag_341\n        /* \"#utility.yul\":6210:6217   */\n      dup8\n        /* \"#utility.yul\":6201:6207   */\n      dup3\n        /* \"#utility.yul\":6190:6199   */\n      dup9\n        /* \"#utility.yul\":6186:6208   */\n      add\n        /* \"#utility.yul\":6165:6218   */\n      tag_233\n      jump\t// in\n    tag_341:\n        /* \"#utility.yul\":6155:6218   */\n      swap5\n      pop\n        /* \"#utility.yul\":6111:6228   */\n      pop\n        /* \"#utility.yul\":6267:6269   */\n      0x20\n        /* \"#utility.yul\":6293:6346   */\n      tag_342\n        /* \"#utility.yul\":6338:6345   */\n      dup8\n        /* \"#utility.yul\":6329:6335   */\n      dup3\n        /* \"#utility.yul\":6318:6327   */\n      dup9\n        /* \"#utility.yul\":6314:6336   */\n      add\n        /* \"#utility.yul\":6293:6346   */\n      tag_236\n      jump\t// in\n    tag_342:\n        /* \"#utility.yul\":6283:6346   */\n      swap4\n      pop\n        /* \"#utility.yul\":6238:6356   */\n      pop\n        /* \"#utility.yul\":6395:6397   */\n      0x40\n        /* \"#utility.yul\":6421:6472   */\n      tag_343\n        /* \"#utility.yul\":6464:6471   */\n      dup8\n        /* \"#utility.yul\":6455:6461   */\n      dup3\n        /* \"#utility.yul\":6444:6453   */\n      dup9\n        /* \"#utility.yul\":6440:6462   */\n      add\n        /* \"#utility.yul\":6421:6472   */\n      tag_248\n      jump\t// in\n    tag_343:\n        /* \"#utility.yul\":6411:6472   */\n      swap3\n      pop\n        /* \"#utility.yul\":6366:6482   */\n      pop\n        /* \"#utility.yul\":6521:6523   */\n      0x60\n        /* \"#utility.yul\":6547:6600   */\n      tag_344\n        /* \"#utility.yul\":6592:6599   */\n      dup8\n        /* \"#utility.yul\":6583:6589   */\n      dup3\n        /* \"#utility.yul\":6572:6581   */\n      dup9\n        /* \"#utility.yul\":6568:6590   */\n      add\n        /* \"#utility.yul\":6547:6600   */\n      tag_233\n      jump\t// in\n    tag_344:\n        /* \"#utility.yul\":6537:6600   */\n      swap2\n      pop\n        /* \"#utility.yul\":6492:6610   */\n      pop\n        /* \"#utility.yul\":5856:6617   */\n      swap3\n      swap6\n      swap2\n      swap5\n      pop\n      swap3\n      pop\n      jump\t// out\n        /* \"#utility.yul\":6623:6845   */\n    tag_47:\n        /* \"#utility.yul\":6716:6720   */\n      0x00\n        /* \"#utility.yul\":6754:6756   */\n      0x20\n        /* \"#utility.yul\":6743:6752   */\n      dup3\n        /* \"#utility.yul\":6739:6757   */\n      add\n        /* \"#utility.yul\":6731:6757   */\n      swap1\n      pop\n        /* \"#utility.yul\":6767:6838   */\n      tag_346\n        /* \"#utility.yul\":6835:6836   */\n      0x00\n        /* \"#utility.yul\":6824:6833   */\n      dup4\n        /* \"#utility.yul\":6820:6837   */\n      add\n        /* \"#utility.yul\":6811:6817   */\n      dup5\n        /* \"#utility.yul\":6767:6838   */\n      tag_249\n      jump\t// in\n    tag_346:\n        /* \"#utility.yul\":6623:6845   */\n      swap3\n      swap2\n      pop\n      pop\n      jump\t// out\n        /* \"#utility.yul\":6851:7180   */\n    tag_50:\n        /* \"#utility.yul\":6910:6916   */\n      0x00\n        /* \"#utility.yul\":6959:6961   */\n      0x20\n        /* \"#utility.yul\":6947:6956   */\n      dup3\n        /* \"#utility.yul\":6938:6945   */\n      dup5\n        /* \"#utility.yul\":6934:6957   */\n      sub\n        /* \"#utility.yul\":6930:6962   */\n      slt\n        /* \"#utility.yul\":6927:7046   */\n      iszero\n      tag_348\n      jumpi\n        /* \"#utility.yul\":6965:7044   */\n      tag_349\n      tag_228\n      jump\t// in\n    tag_349:\n        /* \"#utility.yul\":6927:7046   */\n    tag_348:\n        /* \"#utility.yul\":7085:7086   */\n      0x00\n        /* \"#utility.yul\":7110:7163   */\n      tag_350\n        /* \"#utility.yul\":7155:7162   */\n      dup5\n        /* \"#utility.yul\":7146:7152   */\n      dup3\n        /* \"#utility.yul\":7135:7144   */\n      dup6\n        /* \"#utility.yul\":7131:7153   */\n      add\n        /* \"#utility.yul\":7110:7163   */\n      tag_233\n      jump\t// in\n    tag_350:\n        /* \"#utility.yul\":7100:7163   */\n      swap2\n      pop\n        /* \"#utility.yul\":7056:7173   */\n      pop\n        /* \"#utility.yul\":6851:7180   */\n      swap3\n      swap2\n      pop\n      pop\n      jump\t// out\n        /* \"#utility.yul\":7186:7295   */\n    tag_251:\n        /* \"#utility.yul\":7267:7288   */\n      tag_352\n        /* \"#utility.yul\":7282:7287   */\n      dup2\n        /* \"#utility.yul\":7267:7288   */\n      tag_243\n      jump\t// in\n    tag_352:\n        /* \"#utility.yul\":7262:7265   */\n      dup3\n        /* \"#utility.yul\":7255:7289   */\n      mstore\n        /* \"#utility.yul\":7186:7295   */\n      pop\n      pop\n      jump\t// out\n        /* \"#utility.yul\":7301:7511   */\n    tag_53:\n        /* \"#utility.yul\":7388:7392   */\n      0x00\n        /* \"#utility.yul\":7426:7428   */\n      0x20\n        /* \"#utility.yul\":7415:7424   */\n      dup3\n        /* \"#utility.yul\":7411:7429   */\n      add\n        /* \"#utility.yul\":7403:7429   */\n      swap1\n      pop\n        /* \"#utility.yul\":7439:7504   */\n      tag_354\n        /* \"#utility.yul\":7501:7502   */\n      0x00\n        /* \"#utility.yul\":7490:7499   */\n      dup4\n        /* \"#utility.yul\":7486:7503   */\n      add\n        /* \"#utility.yul\":7477:7483   */\n      dup5\n        /* \"#utility.yul\":7439:7504   */\n      tag_251\n      jump\t// in\n    tag_354:\n        /* \"#utility.yul\":7301:7511   */\n      swap3\n      swap2\n      pop\n      pop\n      jump\t// out\n        /* \"#utility.yul\":7517:7842   */\n    tag_56:\n        /* \"#utility.yul\":7574:7580   */\n      0x00\n        /* \"#utility.yul\":7623:7625   */\n      0x20\n        /* \"#utility.yul\":7611:7620   */\n      dup3\n        /* \"#utility.yul\":7602:7609   */\n      dup5\n        /* \"#utility.yul\":7598:7621   */\n      sub\n        /* \"#utility.yul\":7594:7626   */\n      slt\n        /* \"#utility.yul\":7591:7710   */\n      iszero\n      tag_356\n      jumpi\n        /* \"#utility.yul\":7629:7708   */\n      tag_357\n      tag_228\n      jump\t// in\n    tag_357:\n        /* \"#utility.yul\":7591:7710   */\n    tag_356:\n        /* \"#utility.yul\":7749:7750   */\n      0x00\n        /* \"#utility.yul\":7774:7825   */\n      tag_358\n        /* \"#utility.yul\":7817:7824   */\n      dup5\n        /* \"#utility.yul\":7808:7814   */\n      dup3\n        /* \"#utility.yul\":7797:7806   */\n      dup6\n        /* \"#utility.yul\":7793:7815   */\n      add\n        /* \"#utility.yul\":7774:7825   */\n      tag_248\n      jump\t// in\n    tag_358:\n        /* \"#utility.yul\":7764:7825   */\n      swap2\n      pop\n        /* \"#utility.yul\":7720:7835   */\n      pop\n        /* \"#utility.yul\":7517:7842   */\n      swap3\n      swap2\n      pop\n      pop\n      jump\t// out\n        /* \"#utility.yul\":7848:8070   */\n    tag_59:\n        /* \"#utility.yul\":7941:7945   */\n      0x00\n        /* \"#utility.yul\":7979:7981   */\n      0x20\n        /* \"#utility.yul\":7968:7977   */\n      dup3\n        /* \"#utility.yul\":7964:7982   */\n      add\n        /* \"#utility.yul\":7956:7982   */\n      swap1\n      pop\n        /* \"#utility.yul\":7992:8063   */\n      tag_360\n        /* \"#utility.yul\":8060:8061   */\n      0x00\n        /* \"#utility.yul\":8049:8058   */\n      dup4\n        /* \"#utility.yul\":8045:8062   */\n      add\n        /* \"#utility.yul\":8036:8042   */\n      dup5\n        /* \"#utility.yul\":7992:8063   */\n      tag_250\n      jump\t// in\n    tag_360:\n        /* \"#utility.yul\":7848:8070   */\n      swap3\n      swap2\n      pop\n      pop\n      jump\t// out\n        /* \"#utility.yul\":8076:8691   */\n    tag_62:\n        /* \"#utility.yul\":8151:8157   */\n      0x00\n        /* \"#utility.yul\":8159:8165   */\n      0x00\n        /* \"#utility.yul\":8167:8173   */\n      0x00\n        /* \"#utility.yul\":8216:8218   */\n      0x60\n        /* \"#utility.yul\":8204:8213   */\n      dup5\n        /* \"#utility.yul\":8195:8202   */\n      dup7\n        /* \"#utility.yul\":8191:8214   */\n      sub\n        /* \"#utility.yul\":8187:8219   */\n      slt\n        /* \"#utility.yul\":8184:8303   */\n      iszero\n      tag_362\n      jumpi\n        /* \"#utility.yul\":8222:8301   */\n      tag_363\n      tag_228\n      jump\t// in\n    tag_363:\n        /* \"#utility.yul\":8184:8303   */\n    tag_362:\n        /* \"#utility.yul\":8342:8343   */\n      0x00\n        /* \"#utility.yul\":8367:8420   */\n      tag_364\n        /* \"#utility.yul\":8412:8419   */\n      dup7\n        /* \"#utility.yul\":8403:8409   */\n      dup3\n        /* \"#utility.yul\":8392:8401   */\n      dup8\n        /* \"#utility.yul\":8388:8410   */\n      add\n        /* \"#utility.yul\":8367:8420   */\n      tag_233\n      jump\t// in\n    tag_364:\n        /* \"#utility.yul\":8357:8420   */\n      swap4\n      pop\n        /* \"#utility.yul\":8313:8430   */\n      pop\n        /* \"#utility.yul\":8469:8471   */\n      0x20\n        /* \"#utility.yul\":8495:8548   */\n      tag_365\n        /* \"#utility.yul\":8540:8547   */\n      dup7\n        /* \"#utility.yul\":8531:8537   */\n      dup3\n        /* \"#utility.yul\":8520:8529   */\n      dup8\n        /* \"#utility.yul\":8516:8538   */\n      add\n        /* \"#utility.yul\":8495:8548   */\n      tag_236\n      jump\t// in\n    tag_365:\n        /* \"#utility.yul\":8485:8548   */\n      swap3\n      pop\n        /* \"#utility.yul\":8440:8558   */\n      pop\n        /* \"#utility.yul\":8597:8599   */\n      0x40\n        /* \"#utility.yul\":8623:8674   */\n      tag_366\n        /* \"#utility.yul\":8666:8673   */\n      dup7\n        /* \"#utility.yul\":8657:8663   */\n      dup3\n        /* \"#utility.yul\":8646:8655   */\n      dup8\n        /* \"#utility.yul\":8642:8664   */\n      add\n        /* \"#utility.yul\":8623:8674   */\n      tag_248\n      jump\t// in\n    tag_366:\n        /* \"#utility.yul\":8613:8674   */\n      swap2\n      pop\n        /* \"#utility.yul\":8568:8684   */\n      pop\n        /* \"#utility.yul\":8076:8691   */\n      swap3\n      pop\n      swap3\n      pop\n      swap3\n      jump\t// out\n        /* \"#utility.yul\":8697:9312   */\n    tag_67:\n        /* \"#utility.yul\":8772:8778   */\n      0x00\n        /* \"#utility.yul\":8780:8786   */\n      0x00\n        /* \"#utility.yul\":8788:8794   */\n      0x00\n        /* \"#utility.yul\":8837:8839   */\n      0x60\n        /* \"#utility.yul\":8825:8834   */\n      dup5\n        /* \"#utility.yul\":8816:8823   */\n      dup7\n        /* \"#utility.yul\":8812:8835   */\n      sub\n        /* \"#utility.yul\":8808:8840   */\n      slt\n        /* \"#utility.yul\":8805:8924   */\n      iszero\n      tag_368\n      jumpi\n        /* \"#utility.yul\":8843:8922   */\n      tag_369\n      tag_228\n      jump\t// in\n    tag_369:\n        /* \"#utility.yul\":8805:8924   */\n    tag_368:\n        /* \"#utility.yul\":8963:8964   */\n      0x00\n        /* \"#utility.yul\":8988:9039   */\n      tag_370\n        /* \"#utility.yul\":9031:9038   */\n      dup7\n        /* \"#utility.yul\":9022:9028   */\n      dup3\n        /* \"#utility.yul\":9011:9020   */\n      dup8\n        /* \"#utility.yul\":9007:9029   */\n      add\n        /* \"#utility.yul\":8988:9039   */\n      tag_248\n      jump\t// in\n    tag_370:\n        /* \"#utility.yul\":8978:9039   */\n      swap4\n      pop\n        /* \"#utility.yul\":8934:9049   */\n      pop\n        /* \"#utility.yul\":9088:9090   */\n      0x20\n        /* \"#utility.yul\":9114:9167   */\n      tag_371\n        /* \"#utility.yul\":9159:9166   */\n      dup7\n        /* \"#utility.yul\":9150:9156   */\n      dup3\n        /* \"#utility.yul\":9139:9148   */\n      dup8\n        /* \"#utility.yul\":9135:9157   */\n      add\n        /* \"#utility.yul\":9114:9167   */\n      tag_236\n      jump\t// in\n    tag_371:\n        /* \"#utility.yul\":9104:9167   */\n      swap3\n      pop\n        /* \"#utility.yul\":9059:9177   */\n      pop\n        /* \"#utility.yul\":9216:9218   */\n      0x40\n        /* \"#utility.yul\":9242:9295   */\n      tag_372\n        /* \"#utility.yul\":9287:9294   */\n      dup7\n        /* \"#utility.yul\":9278:9284   */\n      dup3\n        /* \"#utility.yul\":9267:9276   */\n      dup8\n        /* \"#utility.yul\":9263:9285   */\n      add\n        /* \"#utility.yul\":9242:9295   */\n      tag_233\n      jump\t// in\n    tag_372:\n        /* \"#utility.yul\":9232:9295   */\n      swap2\n      pop\n        /* \"#utility.yul\":9187:9305   */\n      pop\n        /* \"#utility.yul\":8697:9312   */\n      swap3\n      pop\n      swap3\n      pop\n      swap3\n      jump\t// out\n        /* \"#utility.yul\":9318:9937   */\n    tag_75:\n        /* \"#utility.yul\":9395:9401   */\n      0x00\n        /* \"#utility.yul\":9403:9409   */\n      0x00\n        /* \"#utility.yul\":9411:9417   */\n      0x00\n        /* \"#utility.yul\":9460:9462   */\n      0x60\n        /* \"#utility.yul\":9448:9457   */\n      dup5\n        /* \"#utility.yul\":9439:9446   */\n      dup7\n        /* \"#utility.yul\":9435:9458   */\n      sub\n        /* \"#utility.yul\":9431:9463   */\n      slt\n        /* \"#utility.yul\":9428:9547   */\n      iszero\n      tag_374\n      jumpi\n        /* \"#utility.yul\":9466:9545   */\n      tag_375\n      tag_228\n      jump\t// in\n    tag_375:\n        /* \"#utility.yul\":9428:9547   */\n    tag_374:\n        /* \"#utility.yul\":9586:9587   */\n      0x00\n        /* \"#utility.yul\":9611:9664   */\n      tag_376\n        /* \"#utility.yul\":9656:9663   */\n      dup7\n        /* \"#utility.yul\":9647:9653   */\n      dup3\n        /* \"#utility.yul\":9636:9645   */\n      dup8\n        /* \"#utility.yul\":9632:9654   */\n      add\n        /* \"#utility.yul\":9611:9664   */\n      tag_233\n      jump\t// in\n    tag_376:\n        /* \"#utility.yul\":9601:9664   */\n      swap4\n      pop\n        /* \"#utility.yul\":9557:9674   */\n      pop\n        /* \"#utility.yul\":9713:9715   */\n      0x20\n        /* \"#utility.yul\":9739:9792   */\n      tag_377\n        /* \"#utility.yul\":9784:9791   */\n      dup7\n        /* \"#utility.yul\":9775:9781   */\n      dup3\n        /* \"#utility.yul\":9764:9773   */\n      dup8\n        /* \"#utility.yul\":9760:9782   */\n      add\n        /* \"#utility.yul\":9739:9792   */\n      tag_236\n      jump\t// in\n    tag_377:\n        /* \"#utility.yul\":9729:9792   */\n      swap3\n      pop\n        /* \"#utility.yul\":9684:9802   */\n      pop\n        /* \"#utility.yul\":9841:9843   */\n      0x40\n        /* \"#utility.yul\":9867:9920   */\n      tag_378\n        /* \"#utility.yul\":9912:9919   */\n      dup7\n        /* \"#utility.yul\":9903:9909   */\n      dup3\n        /* \"#utility.yul\":9892:9901   */\n      dup8\n        /* \"#utility.yul\":9888:9910   */\n      add\n        /* \"#utility.yul\":9867:9920   */\n      tag_233\n      jump\t// in\n    tag_378:\n        /* \"#utility.yul\":9857:9920   */\n      swap2\n      pop\n        /* \"#utility.yul\":9812:9930   */\n      pop\n        /* \"#utility.yul\":9318:9937   */\n      swap3\n      pop\n      swap3\n      pop\n      swap3\n      jump\t// out\n        /* \"#utility.yul\":9943:10123   */\n    tag_83:\n        /* \"#utility.yul\":9991:10068   */\n      0x4e487b7100000000000000000000000000000000000000000000000000000000\n        /* \"#utility.yul\":9988:9989   */\n      0x00\n        /* \"#utility.yul\":9981:10069   */\n      mstore\n        /* \"#utility.yul\":10088:10092   */\n      0x32\n        /* \"#utility.yul\":10085:10086   */\n      0x04\n        /* \"#utility.yul\":10078:10093   */\n      mstore\n        /* \"#utility.yul\":10112:10116   */\n      0x24\n        /* \"#utility.yul\":10109:10110   */\n      0x00\n        /* \"#utility.yul\":10102:10117   */\n      revert\n        /* \"#utility.yul\":10129:10298   */\n    tag_252:\n        /* \"#utility.yul\":10213:10224   */\n      0x00\n        /* \"#utility.yul\":10247:10253   */\n      dup3\n        /* \"#utility.yul\":10242:10245   */\n      dup3\n        /* \"#utility.yul\":10235:10254   */\n      mstore\n        /* \"#utility.yul\":10287:10291   */\n      0x20\n        /* \"#utility.yul\":10282:10285   */\n      dup3\n        /* \"#utility.yul\":10278:10292   */\n      add\n        /* \"#utility.yul\":10263:10292   */\n      swap1\n      pop\n        /* \"#utility.yul\":10129:10298   */\n      swap3\n      swap2\n      pop\n      pop\n      jump\t// out\n        /* \"#utility.yul\":10304:10474   */\n    tag_253:\n        /* \"#utility.yul\":10444:10466   */\n      0x496e76616c6964207261726974792072616e6765000000000000000000000000\n        /* \"#utility.yul\":10440:10441   */\n      0x00\n        /* \"#utility.yul\":10432:10438   */\n      dup3\n        /* \"#utility.yul\":10428:10442   */\n      add\n        /* \"#utility.yul\":10421:10467   */\n      mstore\n        /* \"#utility.yul\":10304:10474   */\n      pop\n      jump\t// out\n        /* \"#utility.yul\":10480:10846   */\n    tag_254:\n        /* \"#utility.yul\":10622:10625   */\n      0x00\n        /* \"#utility.yul\":10643:10710   */\n      tag_383\n        /* \"#utility.yul\":10707:10709   */\n      0x14\n        /* \"#utility.yul\":10702:10705   */\n      dup4\n        /* \"#utility.yul\":10643:10710   */\n      tag_252\n      jump\t// in\n    tag_383:\n        /* \"#utility.yul\":10636:10710   */\n      swap2\n      pop\n        /* \"#utility.yul\":10719:10812   */\n      tag_384\n        /* \"#utility.yul\":10808:10811   */\n      dup3\n        /* \"#utility.yul\":10719:10812   */\n      tag_253\n      jump\t// in\n    tag_384:\n        /* \"#utility.yul\":10837:10839   */\n      0x20\n        /* \"#utility.yul\":10832:10835   */\n      dup3\n        /* \"#utility.yul\":10828:10840   */\n      add\n        /* \"#utility.yul\":10821:10840   */\n      swap1\n      pop\n        /* \"#utility.yul\":10480:10846   */\n      swap2\n      swap1\n      pop\n      jump\t// out\n        /* \"#utility.yul\":10852:11271   */\n    tag_89:\n        /* \"#utility.yul\":11018:11022   */\n      0x00\n        /* \"#utility.yul\":11056:11058   */\n      0x20\n        /* \"#utility.yul\":11045:11054   */\n      dup3\n        /* \"#utility.yul\":11041:11059   */\n      add\n        /* \"#utility.yul\":11033:11059   */\n      swap1\n      pop\n        /* \"#utility.yul\":11105:11114   */\n      dup2\n        /* \"#utility.yul\":11099:11103   */\n      dup2\n        /* \"#utility.yul\":11095:11115   */\n      sub\n        /* \"#utility.yul\":11091:11092   */\n      0x00\n        /* \"#utility.yul\":11080:11089   */\n      dup4\n        /* \"#utility.yul\":11076:11093   */\n      add\n        /* \"#utility.yul\":11069:11116   */\n      mstore\n        /* \"#utility.yul\":11133:11264   */\n      tag_386\n        /* \"#utility.yul\":11259:11263   */\n      dup2\n        /* \"#utility.yul\":11133:11264   */\n      tag_254\n      jump\t// in\n    tag_386:\n        /* \"#utility.yul\":11125:11264   */\n      swap1\n      pop\n        /* \"#utility.yul\":10852:11271   */\n      swap2\n      swap1\n      pop\n      jump\t// out\n        /* \"#utility.yul\":11277:11389   */\n    tag_255:\n        /* \"#utility.yul\":11360:11382   */\n      tag_388\n        /* \"#utility.yul\":11376:11381   */\n      dup2\n        /* \"#utility.yul\":11360:11382   */\n      tag_246\n      jump\t// in\n    tag_388:\n        /* \"#utility.yul\":11355:11358   */\n      dup3\n        /* \"#utility.yul\":11348:11383   */\n      mstore\n        /* \"#utility.yul\":11277:11389   */\n      pop\n      pop\n      jump\t// out\n        /* \"#utility.yul\":11395:11609   */\n    tag_94:\n        /* \"#utility.yul\":11484:11488   */\n      0x00\n        /* \"#utility.yul\":11522:11524   */\n      0x20\n        /* \"#utility.yul\":11511:11520   */\n      dup3\n        /* \"#utility.yul\":11507:11525   */\n      add\n        /* \"#utility.yul\":11499:11525   */\n      swap1\n      pop\n        /* \"#utility.yul\":11535:11602   */\n      tag_390\n        /* \"#utility.yul\":11599:11600   */\n      0x00\n        /* \"#utility.yul\":11588:11597   */\n      dup4\n        /* \"#utility.yul\":11584:11601   */\n      add\n        /* \"#utility.yul\":11575:11581   */\n      dup5\n        /* \"#utility.yul\":11535:11602   */\n      tag_255\n      jump\t// in\n    tag_390:\n        /* \"#utility.yul\":11395:11609   */\n      swap3\n      swap2\n      pop\n      pop\n      jump\t// out\n        /* \"#utility.yul\":11615:11795   */\n    tag_256:\n        /* \"#utility.yul\":11663:11740   */\n      0x4e487b7100000000000000000000000000000000000000000000000000000000\n        /* \"#utility.yul\":11660:11661   */\n      0x00\n        /* \"#utility.yul\":11653:11741   */\n      mstore\n        /* \"#utility.yul\":11760:11764   */\n      0x11\n        /* \"#utility.yul\":11757:11758   */\n      0x04\n        /* \"#utility.yul\":11750:11765   */\n      mstore\n        /* \"#utility.yul\":11784:11788   */\n      0x24\n        /* \"#utility.yul\":11781:11782   */\n      0x00\n        /* \"#utility.yul\":11774:11789   */\n      revert\n        /* \"#utility.yul\":11801:11995   */\n    tag_120:\n        /* \"#utility.yul\":11841:11845   */\n      0x00\n        /* \"#utility.yul\":11861:11881   */\n      tag_393\n        /* \"#utility.yul\":11879:11880   */\n      dup3\n        /* \"#utility.yul\":11861:11881   */\n      tag_234\n      jump\t// in\n    tag_393:\n        /* \"#utility.yul\":11856:11881   */\n      swap2\n      pop\n        /* \"#utility.yul\":11895:11915   */\n      tag_394\n        /* \"#utility.yul\":11913:11914   */\n      dup4\n        /* \"#utility.yul\":11895:11915   */\n      tag_234\n      jump\t// in\n    tag_394:\n        /* \"#utility.yul\":11890:11915   */\n      swap3\n      pop\n        /* \"#utility.yul\":11939:11940   */\n      dup3\n        /* \"#utility.yul\":11936:11937   */\n      dup3\n        /* \"#utility.yul\":11932:11941   */\n      sub\n        /* \"#utility.yul\":11924:11941   */\n      swap1\n      pop\n        /* \"#utility.yul\":11963:11964   */\n      dup2\n        /* \"#utility.yul\":11957:11961   */\n      dup2\n        /* \"#utility.yul\":11954:11965   */\n      gt\n        /* \"#utility.yul\":11951:11988   */\n      iszero\n      tag_395\n      jumpi\n        /* \"#utility.yul\":11968:11986   */\n      tag_396\n      tag_256\n      jump\t// in\n    tag_396:\n        /* \"#utility.yul\":11951:11988   */\n    tag_395:\n        /* \"#utility.yul\":11801:11995   */\n      swap3\n      swap2\n      pop\n      pop\n      jump\t// out\n        /* \"#utility.yul\":12001:12192   */\n    tag_131:\n        /* \"#utility.yul\":12041:12044   */\n      0x00\n        /* \"#utility.yul\":12060:12080   */\n      tag_398\n        /* \"#utility.yul\":12078:12079   */\n      dup3\n        /* \"#utility.yul\":12060:12080   */\n      tag_234\n      jump\t// in\n    tag_398:\n        /* \"#utility.yul\":12055:12080   */\n      swap2\n      pop\n        /* \"#utility.yul\":12094:12114   */\n      tag_399\n        /* \"#utility.yul\":12112:12113   */\n      dup4\n        /* \"#utility.yul\":12094:12114   */\n      tag_234\n      jump\t// in\n    tag_399:\n        /* \"#utility.yul\":12089:12114   */\n      swap3\n      pop\n        /* \"#utility.yul\":12137:12138   */\n      dup3\n        /* \"#utility.yul\":12134:12135   */\n      dup3\n        /* \"#utility.yul\":12130:12139   */\n      add\n        /* \"#utility.yul\":12123:12139   */\n      swap1\n      pop\n        /* \"#utility.yul\":12158:12161   */\n      dup1\n        /* \"#utility.yul\":12155:12156   */\n      dup3\n        /* \"#utility.yul\":12152:12162   */\n      gt\n        /* \"#utility.yul\":12149:12185   */\n      iszero\n      tag_400\n      jumpi\n        /* \"#utility.yul\":12165:12183   */\n      tag_401\n      tag_256\n      jump\t// in\n    tag_401:\n        /* \"#utility.yul\":12149:12185   */\n    tag_400:\n        /* \"#utility.yul\":12001:12192   */\n      swap3\n      swap2\n      pop\n      pop\n      jump\t// out\n        /* \"#utility.yul\":12198:12378   */\n    tag_134:\n        /* \"#utility.yul\":12246:12323   */\n      0x4e487b7100000000000000000000000000000000000000000000000000000000\n        /* \"#utility.yul\":12243:12244   */\n      0x00\n        /* \"#utility.yul\":12236:12324   */\n      mstore\n        /* \"#utility.yul\":12343:12347   */\n      0x31\n        /* \"#utility.yul\":12340:12341   */\n      0x04\n        /* \"#utility.yul\":12333:12348   */\n      mstore\n        /* \"#utility.yul\":12367:12371   */\n      0x24\n        /* \"#utility.yul\":12364:12365   */\n      0x00\n        /* \"#utility.yul\":12357:12372   */\n      revert\n        /* \"#utility.yul\":12384:12826   */\n    tag_137:\n        /* \"#utility.yul\":12533:12537   */\n      0x00\n        /* \"#utility.yul\":12571:12573   */\n      0x60\n        /* \"#utility.yul\":12560:12569   */\n      dup3\n        /* \"#utility.yul\":12556:12574   */\n      add\n        /* \"#utility.yul\":12548:12574   */\n      swap1\n      pop\n        /* \"#utility.yul\":12584:12655   */\n      tag_404\n        /* \"#utility.yul\":12652:12653   */\n      0x00\n        /* \"#utility.yul\":12641:12650   */\n      dup4\n        /* \"#utility.yul\":12637:12654   */\n      add\n        /* \"#utility.yul\":12628:12634   */\n      dup7\n        /* \"#utility.yul\":12584:12655   */\n      tag_249\n      jump\t// in\n    tag_404:\n        /* \"#utility.yul\":12665:12737   */\n      tag_405\n        /* \"#utility.yul\":12733:12735   */\n      0x20\n        /* \"#utility.yul\":12722:12731   */\n      dup4\n        /* \"#utility.yul\":12718:12736   */\n      add\n        /* \"#utility.yul\":12709:12715   */\n      dup6\n        /* \"#utility.yul\":12665:12737   */\n      tag_249\n      jump\t// in\n    tag_405:\n        /* \"#utility.yul\":12747:12819   */\n      tag_406\n        /* \"#utility.yul\":12815:12817   */\n      0x40\n        /* \"#utility.yul\":12804:12813   */\n      dup4\n        /* \"#utility.yul\":12800:12818   */\n      add\n        /* \"#utility.yul\":12791:12797   */\n      dup5\n        /* \"#utility.yul\":12747:12819   */\n      tag_250\n      jump\t// in\n    tag_406:\n        /* \"#utility.yul\":12384:12826   */\n      swap5\n      swap4\n      pop\n      pop\n      pop\n      pop\n      jump\t// out\n        /* \"#utility.yul\":12832:13012   */\n    tag_257:\n        /* \"#utility.yul\":12880:12957   */\n      0x4e487b7100000000000000000000000000000000000000000000000000000000\n        /* \"#utility.yul\":12877:12878   */\n      0x00\n        /* \"#utility.yul\":12870:12958   */\n      mstore\n        /* \"#utility.yul\":12977:12981   */\n      0x12\n        /* \"#utility.yul\":12974:12975   */\n      0x04\n        /* \"#utility.yul\":12967:12982   */\n      mstore\n        /* \"#utility.yul\":13001:13005   */\n      0x24\n        /* \"#utility.yul\":12998:12999   */\n      0x00\n        /* \"#utility.yul\":12991:13006   */\n      revert\n        /* \"#utility.yul\":13018:13194   */\n    tag_156:\n        /* \"#utility.yul\":13050:13051   */\n      0x00\n        /* \"#utility.yul\":13067:13087   */\n      tag_409\n        /* \"#utility.yul\":13085:13086   */\n      dup3\n        /* \"#utility.yul\":13067:13087   */\n      tag_234\n      jump\t// in\n    tag_409:\n        /* \"#utility.yul\":13062:13087   */\n      swap2\n      pop\n        /* \"#utility.yul\":13101:13121   */\n      tag_410\n        /* \"#utility.yul\":13119:13120   */\n      dup4\n        /* \"#utility.yul\":13101:13121   */\n      tag_234\n      jump\t// in\n    tag_410:\n        /* \"#utility.yul\":13096:13121   */\n      swap3\n      pop\n        /* \"#utility.yul\":13140:13141   */\n      dup3\n        /* \"#utility.yul\":13130:13165   */\n      tag_411\n      jumpi\n        /* \"#utility.yul\":13145:13163   */\n      tag_412\n      tag_257\n      jump\t// in\n    tag_412:\n        /* \"#utility.yul\":13130:13165   */\n    tag_411:\n        /* \"#utility.yul\":13186:13187   */\n      dup3\n        /* \"#utility.yul\":13183:13184   */\n      dup3\n        /* \"#utility.yul\":13179:13188   */\n      mod\n        /* \"#utility.yul\":13174:13188   */\n      swap1\n      pop\n        /* \"#utility.yul\":13018:13194   */\n      swap3\n      swap2\n      pop\n      pop\n      jump\t// out\n        /* \"#utility.yul\":13200:13294   */\n    tag_258:\n        /* \"#utility.yul\":13233:13241   */\n      0x00\n        /* \"#utility.yul\":13281:13286   */\n      dup2\n        /* \"#utility.yul\":13277:13279   */\n      0x60\n        /* \"#utility.yul\":13273:13287   */\n      shl\n        /* \"#utility.yul\":13252:13287   */\n      swap1\n      pop\n        /* \"#utility.yul\":13200:13294   */\n      swap2\n      swap1\n      pop\n      jump\t// out\n        /* \"#utility.yul\":13300:13394   */\n    tag_259:\n        /* \"#utility.yul\":13339:13346   */\n      0x00\n        /* \"#utility.yul\":13368:13388   */\n      tag_415\n        /* \"#utility.yul\":13382:13387   */\n      dup3\n        /* \"#utility.yul\":13368:13388   */\n      tag_258\n      jump\t// in\n    tag_415:\n        /* \"#utility.yul\":13357:13388   */\n      swap1\n      pop\n        /* \"#utility.yul\":13300:13394   */\n      swap2\n      swap1\n      pop\n      jump\t// out\n        /* \"#utility.yul\":13400:13500   */\n    tag_260:\n        /* \"#utility.yul\":13439:13446   */\n      0x00\n        /* \"#utility.yul\":13468:13494   */\n      tag_417\n        /* \"#utility.yul\":13488:13493   */\n      dup3\n        /* \"#utility.yul\":13468:13494   */\n      tag_259\n      jump\t// in\n    tag_417:\n        /* \"#utility.yul\":13457:13494   */\n      swap1\n      pop\n        /* \"#utility.yul\":13400:13500   */\n      swap2\n      swap1\n      pop\n      jump\t// out\n        /* \"#utility.yul\":13506:13663   */\n    tag_261:\n        /* \"#utility.yul\":13611:13656   */\n      tag_419\n        /* \"#utility.yul\":13631:13655   */\n      tag_420\n        /* \"#utility.yul\":13649:13654   */\n      dup3\n        /* \"#utility.yul\":13631:13655   */\n      tag_231\n      jump\t// in\n    tag_420:\n        /* \"#utility.yul\":13611:13656   */\n      tag_260\n      jump\t// in\n    tag_419:\n        /* \"#utility.yul\":13606:13609   */\n      dup3\n        /* \"#utility.yul\":13599:13657   */\n      mstore\n        /* \"#utility.yul\":13506:13663   */\n      pop\n      pop\n      jump\t// out\n        /* \"#utility.yul\":13669:13748   */\n    tag_262:\n        /* \"#utility.yul\":13708:13715   */\n      0x00\n        /* \"#utility.yul\":13737:13742   */\n      dup2\n        /* \"#utility.yul\":13726:13742   */\n      swap1\n      pop\n        /* \"#utility.yul\":13669:13748   */\n      swap2\n      swap1\n      pop\n      jump\t// out\n        /* \"#utility.yul\":13754:13911   */\n    tag_263:\n        /* \"#utility.yul\":13859:13904   */\n      tag_423\n        /* \"#utility.yul\":13879:13903   */\n      tag_424\n        /* \"#utility.yul\":13897:13902   */\n      dup3\n        /* \"#utility.yul\":13879:13903   */\n      tag_234\n      jump\t// in\n    tag_424:\n        /* \"#utility.yul\":13859:13904   */\n      tag_262\n      jump\t// in\n    tag_423:\n        /* \"#utility.yul\":13854:13857   */\n      dup3\n        /* \"#utility.yul\":13847:13905   */\n      mstore\n        /* \"#utility.yul\":13754:13911   */\n      pop\n      pop\n      jump\t// out\n        /* \"#utility.yul\":13917:14013   */\n    tag_264:\n        /* \"#utility.yul\":13951:13959   */\n      0x00\n        /* \"#utility.yul\":14000:14005   */\n      dup2\n        /* \"#utility.yul\":13995:13998   */\n      0xf8\n        /* \"#utility.yul\":13991:14006   */\n      shl\n        /* \"#utility.yul\":13970:14006   */\n      swap1\n      pop\n        /* \"#utility.yul\":13917:14013   */\n      swap2\n      swap1\n      pop\n      jump\t// out\n        /* \"#utility.yul\":14019:14112   */\n    tag_265:\n        /* \"#utility.yul\":14056:14063   */\n      0x00\n        /* \"#utility.yul\":14085:14106   */\n      tag_427\n        /* \"#utility.yul\":14100:14105   */\n      dup3\n        /* \"#utility.yul\":14085:14106   */\n      tag_264\n      jump\t// in\n    tag_427:\n        /* \"#utility.yul\":14074:14106   */\n      swap1\n      pop\n        /* \"#utility.yul\":14019:14112   */\n      swap2\n      swap1\n      pop\n      jump\t// out\n        /* \"#utility.yul\":14118:14267   */\n    tag_266:\n        /* \"#utility.yul\":14219:14260   */\n      tag_429\n        /* \"#utility.yul\":14237:14259   */\n      tag_430\n        /* \"#utility.yul\":14253:14258   */\n      dup3\n        /* \"#utility.yul\":14237:14259   */\n      tag_246\n      jump\t// in\n    tag_430:\n        /* \"#utility.yul\":14219:14260   */\n      tag_265\n      jump\t// in\n    tag_429:\n        /* \"#utility.yul\":14214:14217   */\n      dup3\n        /* \"#utility.yul\":14207:14261   */\n      mstore\n        /* \"#utility.yul\":14118:14267   */\n      pop\n      pop\n      jump\t// out\n        /* \"#utility.yul\":14273:14802   */\n    tag_198:\n        /* \"#utility.yul\":14437:14440   */\n      0x00\n        /* \"#utility.yul\":14452:14527   */\n      tag_432\n        /* \"#utility.yul\":14523:14526   */\n      dup3\n        /* \"#utility.yul\":14514:14520   */\n      dup7\n        /* \"#utility.yul\":14452:14527   */\n      tag_261\n      jump\t// in\n    tag_432:\n        /* \"#utility.yul\":14552:14554   */\n      0x14\n        /* \"#utility.yul\":14547:14550   */\n      dup3\n        /* \"#utility.yul\":14543:14555   */\n      add\n        /* \"#utility.yul\":14536:14555   */\n      swap2\n      pop\n        /* \"#utility.yul\":14565:14640   */\n      tag_433\n        /* \"#utility.yul\":14636:14639   */\n      dup3\n        /* \"#utility.yul\":14627:14633   */\n      dup6\n        /* \"#utility.yul\":14565:14640   */\n      tag_263\n      jump\t// in\n    tag_433:\n        /* \"#utility.yul\":14665:14667   */\n      0x20\n        /* \"#utility.yul\":14660:14663   */\n      dup3\n        /* \"#utility.yul\":14656:14668   */\n      add\n        /* \"#utility.yul\":14649:14668   */\n      swap2\n      pop\n        /* \"#utility.yul\":14678:14749   */\n      tag_434\n        /* \"#utility.yul\":14745:14748   */\n      dup3\n        /* \"#utility.yul\":14736:14742   */\n      dup5\n        /* \"#utility.yul\":14678:14749   */\n      tag_266\n      jump\t// in\n    tag_434:\n        /* \"#utility.yul\":14774:14775   */\n      0x01\n        /* \"#utility.yul\":14769:14772   */\n      dup3\n        /* \"#utility.yul\":14765:14776   */\n      add\n        /* \"#utility.yul\":14758:14776   */\n      swap2\n      pop\n        /* \"#utility.yul\":14793:14796   */\n      dup2\n        /* \"#utility.yul\":14786:14796   */\n      swap1\n      pop\n        /* \"#utility.yul\":14273:14802   */\n      swap5\n      swap4\n      pop\n      pop\n      pop\n      pop\n      jump\t// out\n\n    auxdata: 0xa26469706673582212202af073003d080f6825b056e0bf883614a6a2d2e82465b2b2f7eae9f5a2db487264736f6c634300081e0033\n}\n",
				"bytecode": {
					"linkReferences": {},
					"object": "608060405234801561000f575f5ffd5b5033600161002f6100246100ba60201b60201c565b6100e360201b60201c565b5f01819055505f73ffffffffffffffffffffffffffffffffffffffff168173ffffffffffffffffffffffffffffffffffffffff16036100a5575f6040517f1e4fbdf700000000000000000000000000000000000000000000000000000000815260040161009c91906101ec565b60405180910390fd5b6100b4816100ec60201b60201c565b50610205565b5f7f9b779b17422d0df92223018b32b4d1fa46e071723d6817e2486d003becc55f005f1b905090565b5f819050919050565b5f5f5f9054906101000a900473ffffffffffffffffffffffffffffffffffffffff169050815f5f6101000a81548173ffffffffffffffffffffffffffffffffffffffff021916908373ffffffffffffffffffffffffffffffffffffffff1602179055508173ffffffffffffffffffffffffffffffffffffffff168173ffffffffffffffffffffffffffffffffffffffff167f8be0079c531659141344cd1fd0a4f28419497f9722a3daafe3b4186f6b6457e060405160405180910390a35050565b5f73ffffffffffffffffffffffffffffffffffffffff82169050919050565b5f6101d6826101ad565b9050919050565b6101e6816101cc565b82525050565b5f6020820190506101ff5f8301846101dd565b92915050565b611a46806102125f395ff3fe608060405234801561000f575f5ffd5b50600436106100cd575f3560e01c80638da5cb5b1161008a578063cd40fae511610064578063cd40fae514610223578063d71e7b5c14610253578063f2fde38b14610284578063fa3e4705146102a0576100cd565b80638da5cb5b146101a557806398f6ef12146101c3578063b52e5422146101f3576100cd565b8063150b7a02146100d1578063454bbd29146101015780634f7b77191461011d578063715018a61461014e57806378a32e21146101585780637bc689b714610189575b5f5ffd5b6100eb60048036038101906100e69190611315565b6102bc565b6040516100f891906113d3565b60405180910390f35b61011b60048036038101906101169190611421565b610523565b005b61013760048036038101906101329190611495565b6105d1565b6040516101459291906114f1565b60405180910390f35b61015661063f565b005b610172600480360381019061016d9190611495565b610652565b6040516101809291906114f1565b60405180910390f35b6101a3600480360381019061019e9190611518565b6106ab565b005b6101ad6109a1565b6040516101ba919061157c565b60405180910390f35b6101dd60048036038101906101d89190611595565b6109c8565b6040516101ea91906115cf565b60405180910390f35b61020d600480360381019061020891906115e8565b6109e5565b60405161021a9190611613565b60405180910390f35b61023d6004803603810190610238919061162c565b610a08565b60405161024a91906115cf565b60405180910390f35b61026d6004803603810190610268919061167c565b610a36565b60405161027b9291906114f1565b60405180910390f35b61029e60048036038101906102999190611595565b610ec5565b005b6102ba60048036038101906102b591906116cc565b610f49565b005b5f602083839050141580156102d5575060018383905014155b1561030c576040517febb0baad00000000000000000000000000000000000000000000000000000000815260040160405180910390fd5b5f6001848490500361033b5783835f81811061032b5761032a61171c565b5b9050013560f81c60f81b60f81c90505b6020848490500361035857838381019061035591906115e8565b90505b5f8160ff1611801561036e575060048160ff1611155b6103ad576040517f08c379a00000000000000000000000000000000000000000000000000000000081526004016103a4906117a3565b60405180910390fd5b5f60405180604001604052803373ffffffffffffffffffffffffffffffffffffffff16815260200187815250905060015f8360ff1660ff1681526020019081526020015f2081908060018154018082558091505060019003905f5260205f2090600202015f909190919091505f820151815f015f6101000a81548173ffffffffffffffffffffffffffffffffffffffff021916908373ffffffffffffffffffffffffffffffffffffffff1602179055506020820151816001015550505f610475338885610fd0565b905060015f8460ff1660ff1681526020019081526020015f208054905060025f8381526020019081526020015f2081905550863373ffffffffffffffffffffffffffffffffffffffff168973ffffffffffffffffffffffffffffffffffffffff167f754fff2205ca9f1a08ae1f38f487839ba7e18895f0238908ea8b8842d7424fbb8660405161050591906117d0565b60405180910390a463150b7a0260e01b935050505095945050505050565b61052b611005565b8060035f8473ffffffffffffffffffffffffffffffffffffffff1673ffffffffffffffffffffffffffffffffffffffff1681526020019081526020015f205f6101000a81548160ff0219169083151502179055508173ffffffffffffffffffffffffffffffffffffffff167fa49dcb99ff1593e316d0955614d970424bf97f34f406b6b75297ddb7e315b7db826040516105c591906115cf565b60405180910390a25050565b5f5f5f60015f8660ff1660ff1681526020019081526020015f2084815481106105fd576105fc61171c565b5b905f5260205f2090600202019050805f015f9054906101000a900473ffffffffffffffffffffffffffffffffffffffff16816001015492509250509250929050565b610647611005565b6106505f61108c565b565b6001602052815f5260405f20818154811061066b575f80fd5b905f5260205f2090600202015f9150915050805f015f9054906101000a900473ffffffffffffffffffffffffffffffffffffffff16908060010154905082565b6106b3611005565b6106bb61114d565b5f6106c7858585610fd0565b90505f60025f8381526020019081526020015f205490505f81146108cc575f6001826106f39190611816565b90505f60015f8760ff1660ff1681526020019081526020015f2090505f600182805490506107219190611816565b9050808314610860575f82828154811061073e5761073d61171c565b5b905f5260205f2090600202016040518060400160405290815f82015f9054906101000a900473ffffffffffffffffffffffffffffffffffffffff1673ffffffffffffffffffffffffffffffffffffffff1673ffffffffffffffffffffffffffffffffffffffff1681526020016001820154815250509050808385815481106107c9576107c861171c565b5b905f5260205f2090600202015f820151815f015f6101000a81548173ffffffffffffffffffffffffffffffffffffffff021916908373ffffffffffffffffffffffffffffffffffffffff160217905550602082015181600101559050505f610839825f015183602001518b610fd0565b90506001856108489190611849565b60025f8381526020019081526020015f208190555050505b818054806108715761087061187c565b5b600190038181905f5260205f2090600202015f5f82015f6101000a81549073ffffffffffffffffffffffffffffffffffffffff0219169055600182015f90555050905560025f8681526020019081526020015f205f90555050505b8573ffffffffffffffffffffffffffffffffffffffff166342842e0e3085886040518463ffffffff1660e01b8152600401610909939291906118a9565b5f604051808303815f87803b158015610920575f5ffd5b505af1158015610932573d5f5f3e3d5ffd5b50505050848673ffffffffffffffffffffffffffffffffffffffff168473ffffffffffffffffffffffffffffffffffffffff167fd1c19fbcd4551a5edfb66d43d2e337c04837afda3482b42bdf569a8fccdae5fb60405160405180910390a4505061099b61116f565b50505050565b5f5f5f9054906101000a900473ffffffffffffffffffffffffffffffffffffffff16905090565b6003602052805f5260405f205f915054906101000a900460ff1681565b5f60015f8360ff1660ff1681526020019081526020015f20805490509050919050565b5f5f610a15858585610fd0565b90505f60025f8381526020019081526020015f205414159150509392505050565b5f5f610a4061114d565b3373ffffffffffffffffffffffffffffffffffffffff16610a5f6109a1565b73ffffffffffffffffffffffffffffffffffffffff1614158015610aca575060035f3373ffffffffffffffffffffffffffffffffffffffff1673ffffffffffffffffffffffffffffffffffffffff1681526020019081526020015f205f9054906101000a900460ff16155b15610b01576040517f605a223f00000000000000000000000000000000000000000000000000000000815260040160405180910390fd5b5f60015f8760ff1660ff1681526020019081526020015f2090505f818054905003610b58576040517f4c751a4300000000000000000000000000000000000000000000000000000000815260040160405180910390fd5b5f818054905090505f8187610b6d919061190b565b90505f838281548110610b8357610b8261171c565b5b905f5260205f2090600202016040518060400160405290815f82015f9054906101000a900473ffffffffffffffffffffffffffffffffffffffff1673ffffffffffffffffffffffffffffffffffffffff1673ffffffffffffffffffffffffffffffffffffffff16815260200160018201548152505090505f600184610c089190611816565b9050808314610d47575f858281548110610c2557610c2461171c565b5b905f5260205f2090600202016040518060400160405290815f82015f9054906101000a900473ffffffffffffffffffffffffffffffffffffffff1673ffffffffffffffffffffffffffffffffffffffff1673ffffffffffffffffffffffffffffffffffffffff168152602001600182015481525050905080868581548110610cb057610caf61171c565b5b905f5260205f2090600202015f820151815f015f6101000a81548173ffffffffffffffffffffffffffffffffffffffff021916908373ffffffffffffffffffffffffffffffffffffffff160217905550602082015181600101559050505f610d20825f015183602001518e610fd0565b9050600185610d2f9190611849565b60025f8381526020019081526020015f208190555050505b84805480610d5857610d5761187c565b5b600190038181905f5260205f2090600202015f5f82015f6101000a81549073ffffffffffffffffffffffffffffffffffffffff0219169055600182015f9055505090555f610dae835f015184602001518d610fd0565b905060025f8281526020019081526020015f205f9055825f015173ffffffffffffffffffffffffffffffffffffffff166342842e0e308b86602001516040518463ffffffff1660e01b8152600401610e08939291906118a9565b5f604051808303815f87803b158015610e1f575f5ffd5b505af1158015610e31573d5f5f3e3d5ffd5b505050508260200151835f015173ffffffffffffffffffffffffffffffffffffffff168a73ffffffffffffffffffffffffffffffffffffffff167f6dca0a6876fa6fd7e8b3db5bbf9c7a91376a892227bc28a09b7cf04da66125e08e604051610e9a91906117d0565b60405180910390a4825f0151836020015197509750505050505050610ebd61116f565b935093915050565b610ecd611005565b5f73ffffffffffffffffffffffffffffffffffffffff168173ffffffffffffffffffffffffffffffffffffffff1603610f3d575f6040517f1e4fbdf7000000000000000000000000000000000000000000000000000000008152600401610f34919061157c565b60405180910390fd5b610f468161108c565b50565b610f51611005565b610f5961114d565b8273ffffffffffffffffffffffffffffffffffffffff166342842e0e3083856040518463ffffffff1660e01b8152600401610f96939291906118a9565b5f604051808303815f87803b158015610fad575f5ffd5b505af1158015610fbf573d5f5f3e3d5ffd5b50505050610fcb61116f565b505050565b5f838383604051602001610fe6939291906119d4565b6040516020818303038152906040528051906020012090509392505050565b61100d611189565b73ffffffffffffffffffffffffffffffffffffffff1661102b6109a1565b73ffffffffffffffffffffffffffffffffffffffff161461108a5761104e611189565b6040517f118cdaa7000000000000000000000000000000000000000000000000000000008152600401611081919061157c565b60405180910390fd5b565b5f5f5f9054906101000a900473ffffffffffffffffffffffffffffffffffffffff169050815f5f6101000a81548173ffffffffffffffffffffffffffffffffffffffff021916908373ffffffffffffffffffffffffffffffffffffffff1602179055508173ffffffffffffffffffffffffffffffffffffffff168173ffffffffffffffffffffffffffffffffffffffff167f8be0079c531659141344cd1fd0a4f28419497f9722a3daafe3b4186f6b6457e060405160405180910390a35050565b611155611190565b60026111676111626111d1565b6111fa565b5f0181905550565b600161118161117c6111d1565b6111fa565b5f0181905550565b5f33905090565b611198611203565b156111cf576040517f3ee5aeb500000000000000000000000000000000000000000000000000000000815260040160405180910390fd5b565b5f7f9b779b17422d0df92223018b32b4d1fa46e071723d6817e2486d003becc55f005f1b905090565b5f819050919050565b5f60026112166112116111d1565b6111fa565b5f015414905090565b5f5ffd5b5f5ffd5b5f73ffffffffffffffffffffffffffffffffffffffff82169050919050565b5f61125082611227565b9050919050565b61126081611246565b811461126a575f5ffd5b50565b5f8135905061127b81611257565b92915050565b5f819050919050565b61129381611281565b811461129d575f5ffd5b50565b5f813590506112ae8161128a565b92915050565b5f5ffd5b5f5ffd5b5f5ffd5b5f5f83601f8401126112d5576112d46112b4565b5b8235905067ffffffffffffffff8111156112f2576112f16112b8565b5b60208301915083600182028301111561130e5761130d6112bc565b5b9250929050565b5f5f5f5f5f6080868803121561132e5761132d61121f565b5b5f61133b8882890161126d565b955050602061134c8882890161126d565b945050604061135d888289016112a0565b935050606086013567ffffffffffffffff81111561137e5761137d611223565b5b61138a888289016112c0565b92509250509295509295909350565b5f7fffffffff0000000000000000000000000000000000000000000000000000000082169050919050565b6113cd81611399565b82525050565b5f6020820190506113e65f8301846113c4565b92915050565b5f8115159050919050565b611400816113ec565b811461140a575f5ffd5b50565b5f8135905061141b816113f7565b92915050565b5f5f604083850312156114375761143661121f565b5b5f6114448582860161126d565b92505060206114558582860161140d565b9150509250929050565b5f60ff82169050919050565b6114748161145f565b811461147e575f5ffd5b50565b5f8135905061148f8161146b565b92915050565b5f5f604083850312156114ab576114aa61121f565b5b5f6114b885828601611481565b92505060206114c9858286016112a0565b9150509250929050565b6114dc81611246565b82525050565b6114eb81611281565b82525050565b5f6040820190506115045f8301856114d3565b61151160208301846114e2565b9392505050565b5f5f5f5f608085870312156115305761152f61121f565b5b5f61153d8782880161126d565b945050602061154e878288016112a0565b935050604061155f87828801611481565b92505060606115708782880161126d565b91505092959194509250565b5f60208201905061158f5f8301846114d3565b92915050565b5f602082840312156115aa576115a961121f565b5b5f6115b78482850161126d565b91505092915050565b6115c9816113ec565b82525050565b5f6020820190506115e25f8301846115c0565b92915050565b5f602082840312156115fd576115fc61121f565b5b5f61160a84828501611481565b91505092915050565b5f6020820190506116265f8301846114e2565b92915050565b5f5f5f606084860312156116435761164261121f565b5b5f6116508682870161126d565b9350506020611661868287016112a0565b925050604061167286828701611481565b9150509250925092565b5f5f5f606084860312156116935761169261121f565b5b5f6116a086828701611481565b93505060206116b1868287016112a0565b92505060406116c28682870161126d565b9150509250925092565b5f5f5f606084860312156116e3576116e261121f565b5b5f6116f08682870161126d565b9350506020611701868287016112a0565b92505060406117128682870161126d565b9150509250925092565b7f4e487b71000000000000000000000000000000000000000000000000000000005f52603260045260245ffd5b5f82825260208201905092915050565b7f496e76616c6964207261726974792072616e67650000000000000000000000005f82015250565b5f61178d601483611749565b915061179882611759565b602082019050919050565b5f6020820190508181035f8301526117ba81611781565b9050919050565b6117ca8161145f565b82525050565b5f6020820190506117e35f8301846117c1565b92915050565b7f4e487b71000000000000000000000000000000000000000000000000000000005f52601160045260245ffd5b5f61182082611281565b915061182b83611281565b9250828203905081811115611843576118426117e9565b5b92915050565b5f61185382611281565b915061185e83611281565b9250828201905080821115611876576118756117e9565b5b92915050565b7f4e487b71000000000000000000000000000000000000000000000000000000005f52603160045260245ffd5b5f6060820190506118bc5f8301866114d3565b6118c960208301856114d3565b6118d660408301846114e2565b949350505050565b7f4e487b71000000000000000000000000000000000000000000000000000000005f52601260045260245ffd5b5f61191582611281565b915061192083611281565b9250826119305761192f6118de565b5b828206905092915050565b5f8160601b9050919050565b5f6119518261193b565b9050919050565b5f61196282611947565b9050919050565b61197a61197582611246565b611958565b82525050565b5f819050919050565b61199a61199582611281565b611980565b82525050565b5f8160f81b9050919050565b5f6119b6826119a0565b9050919050565b6119ce6119c98261145f565b6119ac565b82525050565b5f6119df8286611969565b6014820191506119ef8285611989565b6020820191506119ff82846119bd565b60018201915081905094935050505056fea26469706673582212202af073003d080f6825b056e0bf883614a6a2d2e82465b2b2f7eae9f5a2db487264736f6c634300081e0033",
					"opcodes": "PUSH1 0x80 PUSH1 0x40 MSTORE CALLVALUE DUP1 ISZERO PUSH2 0xF JUMPI PUSH0 PUSH0 REVERT JUMPDEST POP CALLER PUSH1 0x1 PUSH2 0x2F PUSH2 0x24 PUSH2 0xBA PUSH1 0x20 SHL PUSH1 0x20 SHR JUMP JUMPDEST PUSH2 0xE3 PUSH1 0x20 SHL PUSH1 0x20 SHR JUMP JUMPDEST PUSH0 ADD DUP2 SWAP1 SSTORE POP PUSH0 PUSH20 0xFFFFFFFFFFFFFFFFFFFFFFFFFFFFFFFFFFFFFFFF AND DUP2 PUSH20 0xFFFFFFFFFFFFFFFFFFFFFFFFFFFFFFFFFFFFFFFF AND SUB PUSH2 0xA5 JUMPI PUSH0 PUSH1 0x40 MLOAD PUSH32 0x1E4FBDF700000000000000000000000000000000000000000000000000000000 DUP2 MSTORE PUSH1 0x4 ADD PUSH2 0x9C SWAP2 SWAP1 PUSH2 0x1EC JUMP JUMPDEST PUSH1 0x40 MLOAD DUP1 SWAP2 SUB SWAP1 REVERT JUMPDEST PUSH2 0xB4 DUP2 PUSH2 0xEC PUSH1 0x20 SHL PUSH1 0x20 SHR JUMP JUMPDEST POP PUSH2 0x205 JUMP JUMPDEST PUSH0 PUSH32 0x9B779B17422D0DF92223018B32B4D1FA46E071723D6817E2486D003BECC55F00 PUSH0 SHL SWAP1 POP SWAP1 JUMP JUMPDEST PUSH0 DUP2 SWAP1 POP SWAP2 SWAP1 POP JUMP JUMPDEST PUSH0 PUSH0 PUSH0 SWAP1 SLOAD SWAP1 PUSH2 0x100 EXP SWAP1 DIV PUSH20 0xFFFFFFFFFFFFFFFFFFFFFFFFFFFFFFFFFFFFFFFF AND SWAP1 POP DUP2 PUSH0 PUSH0 PUSH2 0x100 EXP DUP2 SLOAD DUP2 PUSH20 0xFFFFFFFFFFFFFFFFFFFFFFFFFFFFFFFFFFFFFFFF MUL NOT AND SWAP1 DUP4 PUSH20 0xFFFFFFFFFFFFFFFFFFFFFFFFFFFFFFFFFFFFFFFF AND MUL OR SWAP1 SSTORE POP DUP2 PUSH20 0xFFFFFFFFFFFFFFFFFFFFFFFFFFFFFFFFFFFFFFFF AND DUP2 PUSH20 0xFFFFFFFFFFFFFFFFFFFFFFFFFFFFFFFFFFFFFFFF AND PUSH32 0x8BE0079C531659141344CD1FD0A4F28419497F9722A3DAAFE3B4186F6B6457E0 PUSH1 0x40 MLOAD PUSH1 0x40 MLOAD DUP1 SWAP2 SUB SWAP1 LOG3 POP POP JUMP JUMPDEST PUSH0 PUSH20 0xFFFFFFFFFFFFFFFFFFFFFFFFFFFFFFFFFFFFFFFF DUP3 AND SWAP1 POP SWAP2 SWAP1 POP JUMP JUMPDEST PUSH0 PUSH2 0x1D6 DUP3 PUSH2 0x1AD JUMP JUMPDEST SWAP1 POP SWAP2 SWAP1 POP JUMP JUMPDEST PUSH2 0x1E6 DUP2 PUSH2 0x1CC JUMP JUMPDEST DUP3 MSTORE POP POP JUMP JUMPDEST PUSH0 PUSH1 0x20 DUP3 ADD SWAP1 POP PUSH2 0x1FF PUSH0 DUP4 ADD DUP5 PUSH2 0x1DD JUMP JUMPDEST SWAP3 SWAP2 POP POP JUMP JUMPDEST PUSH2 0x1A46 DUP1 PUSH2 0x212 PUSH0 CODECOPY PUSH0 RETURN INVALID PUSH1 0x80 PUSH1 0x40 MSTORE CALLVALUE DUP1 ISZERO PUSH2 0xF JUMPI PUSH0 PUSH0 REVERT JUMPDEST POP PUSH1 0x4 CALLDATASIZE LT PUSH2 0xCD JUMPI PUSH0 CALLDATALOAD PUSH1 0xE0 SHR DUP1 PUSH4 0x8DA5CB5B GT PUSH2 0x8A JUMPI DUP1 PUSH4 0xCD40FAE5 GT PUSH2 0x64 JUMPI DUP1 PUSH4 0xCD40FAE5 EQ PUSH2 0x223 JUMPI DUP1 PUSH4 0xD71E7B5C EQ PUSH2 0x253 JUMPI DUP1 PUSH4 0xF2FDE38B EQ PUSH2 0x284 JUMPI DUP1 PUSH4 0xFA3E4705 EQ PUSH2 0x2A0 JUMPI PUSH2 0xCD JUMP JUMPDEST DUP1 PUSH4 0x8DA5CB5B EQ PUSH2 0x1A5 JUMPI DUP1 PUSH4 0x98F6EF12 EQ PUSH2 0x1C3 JUMPI DUP1 PUSH4 0xB52E5422 EQ PUSH2 0x1F3 JUMPI PUSH2 0xCD JUMP JUMPDEST DUP1 PUSH4 0x150B7A02 EQ PUSH2 0xD1 JUMPI DUP1 PUSH4 0x454BBD29 EQ PUSH2 0x101 JUMPI DUP1 PUSH4 0x4F7B7719 EQ PUSH2 0x11D JUMPI DUP1 PUSH4 0x715018A6 EQ PUSH2 0x14E JUMPI DUP1 PUSH4 0x78A32E21 EQ PUSH2 0x158 JUMPI DUP1 PUSH4 0x7BC689B7 EQ PUSH2 0x189 JUMPI JUMPDEST PUSH0 PUSH0 REVERT JUMPDEST PUSH2 0xEB PUSH1 0x4 DUP1 CALLDATASIZE SUB DUP2 ADD SWAP1 PUSH2 0xE6 SWAP2 SWAP1 PUSH2 0x1315 JUMP JUMPDEST PUSH2 0x2BC JUMP JUMPDEST PUSH1 0x40 MLOAD PUSH2 0xF8 SWAP2 SWAP1 PUSH2 0x13D3 JUMP JUMPDEST PUSH1 0x40 MLOAD DUP1 SWAP2 SUB SWAP1 RETURN JUMPDEST PUSH2 0x11B PUSH1 0x4 DUP1 CALLDATASIZE SUB DUP2 ADD SWAP1 PUSH2 0x116 SWAP2 SWAP1 PUSH2 0x1421 JUMP JUMPDEST PUSH2 0x523 JUMP JUMPDEST STOP JUMPDEST PUSH2 0x137 PUSH1 0x4 DUP1 CALLDATASIZE SUB DUP2 ADD SWAP1 PUSH2 0x132 SWAP2 SWAP1 PUSH2 0x1495 JUMP JUMPDEST PUSH2 0x5D1 JUMP JUMPDEST PUSH1 0x40 MLOAD PUSH2 0x145 SWAP3 SWAP2 SWAP1 PUSH2 0x14F1 JUMP JUMPDEST PUSH1 0x40 MLOAD DUP1 SWAP2 SUB SWAP1 RETURN JUMPDEST PUSH2 0x156 PUSH2 0x63F JUMP JUMPDEST STOP JUMPDEST PUSH2 0x172 PUSH1 0x4 DUP1 CALLDATASIZE SUB DUP2 ADD SWAP1 PUSH2 0x16D SWAP2 SWAP1 PUSH2 0x1495 JUMP JUMPDEST PUSH2 0x652 JUMP JUMPDEST PUSH1 0x40 MLOAD PUSH2 0x180 SWAP3 SWAP2 SWAP1 PUSH2 0x14F1 JUMP JUMPDEST PUSH1 0x40 MLOAD DUP1 SWAP2 SUB SWAP1 RETURN JUMPDEST PUSH2 0x1A3 PUSH1 0x4 DUP1 CALLDATASIZE SUB DUP2 ADD SWAP1 PUSH2 0x19E SWAP2 SWAP1 PUSH2 0x1518 JUMP JUMPDEST PUSH2 0x6AB JUMP JUMPDEST STOP JUMPDEST PUSH2 0x1AD PUSH2 0x9A1 JUMP JUMPDEST PUSH1 0x40 MLOAD PUSH2 0x1BA SWAP2 SWAP1 PUSH2 0x157C JUMP JUMPDEST PUSH1 0x40 MLOAD DUP1 SWAP2 SUB SWAP1 RETURN JUMPDEST PUSH2 0x1DD PUSH1 0x4 DUP1 CALLDATASIZE SUB DUP2 ADD SWAP1 PUSH2 0x1D8 SWAP2 SWAP1 PUSH2 0x1595 JUMP JUMPDEST PUSH2 0x9C8 JUMP JUMPDEST PUSH1 0x40 MLOAD PUSH2 0x1EA SWAP2 SWAP1 PUSH2 0x15CF JUMP JUMPDEST PUSH1 0x40 MLOAD DUP1 SWAP2 SUB SWAP1 RETURN JUMPDEST PUSH2 0x20D PUSH1 0x4 DUP1 CALLDATASIZE SUB DUP2 ADD SWAP1 PUSH2 0x208 SWAP2 SWAP1 PUSH2 0x15E8 JUMP JUMPDEST PUSH2 0x9E5 JUMP JUMPDEST PUSH1 0x40 MLOAD PUSH2 0x21A SWAP2 SWAP1 PUSH2 0x1613 JUMP JUMPDEST PUSH1 0x40 MLOAD DUP1 SWAP2 SUB SWAP1 RETURN JUMPDEST PUSH2 0x23D PUSH1 0x4 DUP1 CALLDATASIZE SUB DUP2 ADD SWAP1 PUSH2 0x238 SWAP2 SWAP1 PUSH2 0x162C JUMP JUMPDEST PUSH2 0xA08 JUMP JUMPDEST PUSH1 0x40 MLOAD PUSH2 0x24A SWAP2 SWAP1 PUSH2 0x15CF JUMP JUMPDEST PUSH1 0x40 MLOAD DUP1 SWAP2 SUB SWAP1 RETURN JUMPDEST PUSH2 0x26D PUSH1 0x4 DUP1 CALLDATASIZE SUB DUP2 ADD SWAP1 PUSH2 0x268 SWAP2 SWAP1 PUSH2 0x167C JUMP JUMPDEST PUSH2 0xA36 JUMP JUMPDEST PUSH1 0x40 MLOAD PUSH2 0x27B SWAP3 SWAP2 SWAP1 PUSH2 0x14F1 JUMP JUMPDEST PUSH1 0x40 MLOAD DUP1 SWAP2 SUB SWAP1 RETURN JUMPDEST PUSH2 0x29E PUSH1 0x4 DUP1 CALLDATASIZE SUB DUP2 ADD SWAP1 PUSH2 0x299 SWAP2 SWAP1 PUSH2 0x1595 JUMP JUMPDEST PUSH2 0xEC5 JUMP JUMPDEST STOP JUMPDEST PUSH2 0x2BA PUSH1 0x4 DUP1 CALLDATASIZE SUB DUP2 ADD SWAP1 PUSH2 0x2B5 SWAP2 SWAP1 PUSH2 0x16CC JUMP JUMPDEST PUSH2 0xF49 JUMP JUMPDEST STOP JUMPDEST PUSH0 PUSH1 0x20 DUP4 DUP4 SWAP1 POP EQ ISZERO DUP1 ISZERO PUSH2 0x2D5 JUMPI POP PUSH1 0x1 DUP4 DUP4 SWAP1 POP EQ ISZERO JUMPDEST ISZERO PUSH2 0x30C JUMPI PUSH1 0x40 MLOAD PUSH32 0xEBB0BAAD00000000000000000000000000000000000000000000000000000000 DUP2 MSTORE PUSH1 0x4 ADD PUSH1 0x40 MLOAD DUP1 SWAP2 SUB SWAP1 REVERT JUMPDEST PUSH0 PUSH1 0x1 DUP5 DUP5 SWAP1 POP SUB PUSH2 0x33B JUMPI DUP4 DUP4 PUSH0 DUP2 DUP2 LT PUSH2 0x32B JUMPI PUSH2 0x32A PUSH2 0x171C JUMP JUMPDEST JUMPDEST SWAP1 POP ADD CALLDATALOAD PUSH1 0xF8 SHR PUSH1 0xF8 SHL PUSH1 0xF8 SHR SWAP1 POP JUMPDEST PUSH1 0x20 DUP5 DUP5 SWAP1 POP SUB PUSH2 0x358 JUMPI DUP4 DUP4 DUP2 ADD SWAP1 PUSH2 0x355 SWAP2 SWAP1 PUSH2 0x15E8 JUMP JUMPDEST SWAP1 POP JUMPDEST PUSH0 DUP2 PUSH1 0xFF AND GT DUP1 ISZERO PUSH2 0x36E JUMPI POP PUSH1 0x4 DUP2 PUSH1 0xFF AND GT ISZERO JUMPDEST PUSH2 0x3AD JUMPI PUSH1 0x40 MLOAD PUSH32 0x8C379A000000000000000000000000000000000000000000000000000000000 DUP2 MSTORE PUSH1 0x4 ADD PUSH2 0x3A4 SWAP1 PUSH2 0x17A3 JUMP JUMPDEST PUSH1 0x40 MLOAD DUP1 SWAP2 SUB SWAP1 REVERT JUMPDEST PUSH0 PUSH1 0x40 MLOAD DUP1 PUSH1 0x40 ADD PUSH1 0x40 MSTORE DUP1 CALLER PUSH20 0xFFFFFFFFFFFFFFFFFFFFFFFFFFFFFFFFFFFFFFFF AND DUP2 MSTORE PUSH1 0x20 ADD DUP8 DUP2 MSTORE POP SWAP1 POP PUSH1 0x1 PUSH0 DUP4 PUSH1 0xFF AND PUSH1 0xFF AND DUP2 MSTORE PUSH1 0x20 ADD SWAP1 DUP2 MSTORE PUSH1 0x20 ADD PUSH0 KECCAK256 DUP2 SWAP1 DUP1 PUSH1 0x1 DUP2 SLOAD ADD DUP1 DUP3 SSTORE DUP1 SWAP2 POP POP PUSH1 0x1 SWAP1 SUB SWAP1 PUSH0 MSTORE PUSH1 0x20 PUSH0 KECCAK256 SWAP1 PUSH1 0x2 MUL ADD PUSH0 SWAP1 SWAP2 SWAP1 SWAP2 SWAP1 SWAP2 POP PUSH0 DUP3 ADD MLOAD DUP2 PUSH0 ADD PUSH0 PUSH2 0x100 EXP DUP2 SLOAD DUP2 PUSH20 0xFFFFFFFFFFFFFFFFFFFFFFFFFFFFFFFFFFFFFFFF MUL NOT AND SWAP1 DUP4 PUSH20 0xFFFFFFFFFFFFFFFFFFFFFFFFFFFFFFFFFFFFFFFF AND MUL OR SWAP1 SSTORE POP PUSH1 0x20 DUP3 ADD MLOAD DUP2 PUSH1 0x1 ADD SSTORE POP POP PUSH0 PUSH2 0x475 CALLER DUP9 DUP6 PUSH2 0xFD0 JUMP JUMPDEST SWAP1 POP PUSH1 0x1 PUSH0 DUP5 PUSH1 0xFF AND PUSH1 0xFF AND DUP2 MSTORE PUSH1 0x20 ADD SWAP1 DUP2 MSTORE PUSH1 0x20 ADD PUSH0 KECCAK256 DUP1 SLOAD SWAP1 POP PUSH1 0x2 PUSH0 DUP4 DUP2 MSTORE PUSH1 0x20 ADD SWAP1 DUP2 MSTORE PUSH1 0x20 ADD PUSH0 KECCAK256 DUP2 SWAP1 SSTORE POP DUP7 CALLER PUSH20 0xFFFFFFFFFFFFFFFFFFFFFFFFFFFFFFFFFFFFFFFF AND DUP10 PUSH20 0xFFFFFFFFFFFFFFFFFFFFFFFFFFFFFFFFFFFFFFFF AND PUSH32 0x754FFF2205CA9F1A08AE1F38F487839BA7E18895F0238908EA8B8842D7424FBB DUP7 PUSH1 0x40 MLOAD PUSH2 0x505 SWAP2 SWAP1 PUSH2 0x17D0 JUMP JUMPDEST PUSH1 0x40 MLOAD DUP1 SWAP2 SUB SWAP1 LOG4 PUSH4 0x150B7A02 PUSH1 0xE0 SHL SWAP4 POP POP POP POP SWAP6 SWAP5 POP POP POP POP POP JUMP JUMPDEST PUSH2 0x52B PUSH2 0x1005 JUMP JUMPDEST DUP1 PUSH1 0x3 PUSH0 DUP5 PUSH20 0xFFFFFFFFFFFFFFFFFFFFFFFFFFFFFFFFFFFFFFFF AND PUSH20 0xFFFFFFFFFFFFFFFFFFFFFFFFFFFFFFFFFFFFFFFF AND DUP2 MSTORE PUSH1 0x20 ADD SWAP1 DUP2 MSTORE PUSH1 0x20 ADD PUSH0 KECCAK256 PUSH0 PUSH2 0x100 EXP DUP2 SLOAD DUP2 PUSH1 0xFF MUL NOT AND SWAP1 DUP4 ISZERO ISZERO MUL OR SWAP1 SSTORE POP DUP2 PUSH20 0xFFFFFFFFFFFFFFFFFFFFFFFFFFFFFFFFFFFFFFFF AND PUSH32 0xA49DCB99FF1593E316D0955614D970424BF97F34F406B6B75297DDB7E315B7DB DUP3 PUSH1 0x40 MLOAD PUSH2 0x5C5 SWAP2 SWAP1 PUSH2 0x15CF JUMP JUMPDEST PUSH1 0x40 MLOAD DUP1 SWAP2 SUB SWAP1 LOG2 POP POP JUMP JUMPDEST PUSH0 PUSH0 PUSH0 PUSH1 0x1 PUSH0 DUP7 PUSH1 0xFF AND PUSH1 0xFF AND DUP2 MSTORE PUSH1 0x20 ADD SWAP1 DUP2 MSTORE PUSH1 0x20 ADD PUSH0 KECCAK256 DUP5 DUP2 SLOAD DUP2 LT PUSH2 0x5FD JUMPI PUSH2 0x5FC PUSH2 0x171C JUMP JUMPDEST JUMPDEST SWAP1 PUSH0 MSTORE PUSH1 0x20 PUSH0 KECCAK256 SWAP1 PUSH1 0x2 MUL ADD SWAP1 POP DUP1 PUSH0 ADD PUSH0 SWAP1 SLOAD SWAP1 PUSH2 0x100 EXP SWAP1 DIV PUSH20 0xFFFFFFFFFFFFFFFFFFFFFFFFFFFFFFFFFFFFFFFF AND DUP2 PUSH1 0x1 ADD SLOAD SWAP3 POP SWAP3 POP POP SWAP3 POP SWAP3 SWAP1 POP JUMP JUMPDEST PUSH2 0x647 PUSH2 0x1005 JUMP JUMPDEST PUSH2 0x650 PUSH0 PUSH2 0x108C JUMP JUMPDEST JUMP JUMPDEST PUSH1 0x1 PUSH1 0x20 MSTORE DUP2 PUSH0 MSTORE PUSH1 0x40 PUSH0 KECCAK256 DUP2 DUP2 SLOAD DUP2 LT PUSH2 0x66B JUMPI PUSH0 DUP1 REVERT JUMPDEST SWAP1 PUSH0 MSTORE PUSH1 0x20 PUSH0 KECCAK256 SWAP1 PUSH1 0x2 MUL ADD PUSH0 SWAP2 POP SWAP2 POP POP DUP1 PUSH0 ADD PUSH0 SWAP1 SLOAD SWAP1 PUSH2 0x100 EXP SWAP1 DIV PUSH20 0xFFFFFFFFFFFFFFFFFFFFFFFFFFFFFFFFFFFFFFFF AND SWAP1 DUP1 PUSH1 0x1 ADD SLOAD SWAP1 POP DUP3 JUMP JUMPDEST PUSH2 0x6B3 PUSH2 0x1005 JUMP JUMPDEST PUSH2 0x6BB PUSH2 0x114D JUMP JUMPDEST PUSH0 PUSH2 0x6C7 DUP6 DUP6 DUP6 PUSH2 0xFD0 JUMP JUMPDEST SWAP1 POP PUSH0 PUSH1 0x2 PUSH0 DUP4 DUP2 MSTORE PUSH1 0x20 ADD SWAP1 DUP2 MSTORE PUSH1 0x20 ADD PUSH0 KECCAK256 SLOAD SWAP1 POP PUSH0 DUP2 EQ PUSH2 0x8CC JUMPI PUSH0 PUSH1 0x1 DUP3 PUSH2 0x6F3 SWAP2 SWAP1 PUSH2 0x1816 JUMP JUMPDEST SWAP1 POP PUSH0 PUSH1 0x1 PUSH0 DUP8 PUSH1 0xFF AND PUSH1 0xFF AND DUP2 MSTORE PUSH1 0x20 ADD SWAP1 DUP2 MSTORE PUSH1 0x20 ADD PUSH0 KECCAK256 SWAP1 POP PUSH0 PUSH1 0x1 DUP3 DUP1 SLOAD SWAP1 POP PUSH2 0x721 SWAP2 SWAP1 PUSH2 0x1816 JUMP JUMPDEST SWAP1 POP DUP1 DUP4 EQ PUSH2 0x860 JUMPI PUSH0 DUP3 DUP3 DUP2 SLOAD DUP2 LT PUSH2 0x73E JUMPI PUSH2 0x73D PUSH2 0x171C JUMP JUMPDEST JUMPDEST SWAP1 PUSH0 MSTORE PUSH1 0x20 PUSH0 KECCAK256 SWAP1 PUSH1 0x2 MUL ADD PUSH1 0x40 MLOAD DUP1 PUSH1 0x40 ADD PUSH1 0x40 MSTORE SWAP1 DUP2 PUSH0 DUP3 ADD PUSH0 SWAP1 SLOAD SWAP1 PUSH2 0x100 EXP SWAP1 DIV PUSH20 0xFFFFFFFFFFFFFFFFFFFFFFFFFFFFFFFFFFFFFFFF AND PUSH20 0xFFFFFFFFFFFFFFFFFFFFFFFFFFFFFFFFFFFFFFFF AND PUSH20 0xFFFFFFFFFFFFFFFFFFFFFFFFFFFFFFFFFFFFFFFF AND DUP2 MSTORE PUSH1 0x20 ADD PUSH1 0x1 DUP3 ADD SLOAD DUP2 MSTORE POP POP SWAP1 POP DUP1 DUP4 DUP6 DUP2 SLOAD DUP2 LT PUSH2 0x7C9 JUMPI PUSH2 0x7C8 PUSH2 0x171C JUMP JUMPDEST JUMPDEST SWAP1 PUSH0 MSTORE PUSH1 0x20 PUSH0 KECCAK256 SWAP1 PUSH1 0x2 MUL ADD PUSH0 DUP3 ADD MLOAD DUP2 PUSH0 ADD PUSH0 PUSH2 0x100 EXP DUP2 SLOAD DUP2 PUSH20 0xFFFFFFFFFFFFFFFFFFFFFFFFFFFFFFFFFFFFFFFF MUL NOT AND SWAP1 DUP4 PUSH20 0xFFFFFFFFFFFFFFFFFFFFFFFFFFFFFFFFFFFFFFFF AND MUL OR SWAP1 SSTORE POP PUSH1 0x20 DUP3 ADD MLOAD DUP2 PUSH1 0x1 ADD SSTORE SWAP1 POP POP PUSH0 PUSH2 0x839 DUP3 PUSH0 ADD MLOAD DUP4 PUSH1 0x20 ADD MLOAD DUP12 PUSH2 0xFD0 JUMP JUMPDEST SWAP1 POP PUSH1 0x1 DUP6 PUSH2 0x848 SWAP2 SWAP1 PUSH2 0x1849 JUMP JUMPDEST PUSH1 0x2 PUSH0 DUP4 DUP2 MSTORE PUSH1 0x20 ADD SWAP1 DUP2 MSTORE PUSH1 0x20 ADD PUSH0 KECCAK256 DUP2 SWAP1 SSTORE POP POP POP JUMPDEST DUP2 DUP1 SLOAD DUP1 PUSH2 0x871 JUMPI PUSH2 0x870 PUSH2 0x187C JUMP JUMPDEST JUMPDEST PUSH1 0x1 SWAP1 SUB DUP2 DUP2 SWAP1 PUSH0 MSTORE PUSH1 0x20 PUSH0 KECCAK256 SWAP1 PUSH1 0x2 MUL ADD PUSH0 PUSH0 DUP3 ADD PUSH0 PUSH2 0x100 EXP DUP2 SLOAD SWAP1 PUSH20 0xFFFFFFFFFFFFFFFFFFFFFFFFFFFFFFFFFFFFFFFF MUL NOT AND SWAP1 SSTORE PUSH1 0x1 DUP3 ADD PUSH0 SWAP1 SSTORE POP POP SWAP1 SSTORE PUSH1 0x2 PUSH0 DUP7 DUP2 MSTORE PUSH1 0x20 ADD SWAP1 DUP2 MSTORE PUSH1 0x20 ADD PUSH0 KECCAK256 PUSH0 SWAP1 SSTORE POP POP POP JUMPDEST DUP6 PUSH20 0xFFFFFFFFFFFFFFFFFFFFFFFFFFFFFFFFFFFFFFFF AND PUSH4 0x42842E0E ADDRESS DUP6 DUP9 PUSH1 0x40 MLOAD DUP5 PUSH4 0xFFFFFFFF AND PUSH1 0xE0 SHL DUP2 MSTORE PUSH1 0x4 ADD PUSH2 0x909 SWAP4 SWAP3 SWAP2 SWAP1 PUSH2 0x18A9 JUMP JUMPDEST PUSH0 PUSH1 0x40 MLOAD DUP1 DUP4 SUB DUP2 PUSH0 DUP8 DUP1 EXTCODESIZE ISZERO DUP1 ISZERO PUSH2 0x920 JUMPI PUSH0 PUSH0 REVERT JUMPDEST POP GAS CALL ISZERO DUP1 ISZERO PUSH2 0x932 JUMPI RETURNDATASIZE PUSH0 PUSH0 RETURNDATACOPY RETURNDATASIZE PUSH0 REVERT JUMPDEST POP POP POP POP DUP5 DUP7 PUSH20 0xFFFFFFFFFFFFFFFFFFFFFFFFFFFFFFFFFFFFFFFF AND DUP5 PUSH20 0xFFFFFFFFFFFFFFFFFFFFFFFFFFFFFFFFFFFFFFFF AND PUSH32 0xD1C19FBCD4551A5EDFB66D43D2E337C04837AFDA3482B42BDF569A8FCCDAE5FB PUSH1 0x40 MLOAD PUSH1 0x40 MLOAD DUP1 SWAP2 SUB SWAP1 LOG4 POP POP PUSH2 0x99B PUSH2 0x116F JUMP JUMPDEST POP POP POP POP JUMP JUMPDEST PUSH0 PUSH0 PUSH0 SWAP1 SLOAD SWAP1 PUSH2 0x100 EXP SWAP1 DIV PUSH20 0xFFFFFFFFFFFFFFFFFFFFFFFFFFFFFFFFFFFFFFFF AND SWAP1 POP SWAP1 JUMP JUMPDEST PUSH1 0x3 PUSH1 0x20 MSTORE DUP1 PUSH0 MSTORE PUSH1 0x40 PUSH0 KECCAK256 PUSH0 SWAP2 POP SLOAD SWAP1 PUSH2 0x100 EXP SWAP1 DIV PUSH1 0xFF AND DUP2 JUMP JUMPDEST PUSH0 PUSH1 0x1 PUSH0 DUP4 PUSH1 0xFF AND PUSH1 0xFF AND DUP2 MSTORE PUSH1 0x20 ADD SWAP1 DUP2 MSTORE PUSH1 0x20 ADD PUSH0 KECCAK256 DUP1 SLOAD SWAP1 POP SWAP1 POP SWAP2 SWAP1 POP JUMP JUMPDEST PUSH0 PUSH0 PUSH2 0xA15 DUP6 DUP6 DUP6 PUSH2 0xFD0 JUMP JUMPDEST SWAP1 POP PUSH0 PUSH1 0x2 PUSH0 DUP4 DUP2 MSTORE PUSH1 0x20 ADD SWAP1 DUP2 MSTORE PUSH1 0x20 ADD PUSH0 KECCAK256 SLOAD EQ ISZERO SWAP2 POP POP SWAP4 SWAP3 POP POP POP JUMP JUMPDEST PUSH0 PUSH0 PUSH2 0xA40 PUSH2 0x114D JUMP JUMPDEST CALLER PUSH20 0xFFFFFFFFFFFFFFFFFFFFFFFFFFFFFFFFFFFFFFFF AND PUSH2 0xA5F PUSH2 0x9A1 JUMP JUMPDEST PUSH20 0xFFFFFFFFFFFFFFFFFFFFFFFFFFFFFFFFFFFFFFFF AND EQ ISZERO DUP1 ISZERO PUSH2 0xACA JUMPI POP PUSH1 0x3 PUSH0 CALLER PUSH20 0xFFFFFFFFFFFFFFFFFFFFFFFFFFFFFFFFFFFFFFFF AND PUSH20 0xFFFFFFFFFFFFFFFFFFFFFFFFFFFFFFFFFFFFFFFF AND DUP2 MSTORE PUSH1 0x20 ADD SWAP1 DUP2 MSTORE PUSH1 0x20 ADD PUSH0 KECCAK256 PUSH0 SWAP1 SLOAD SWAP1 PUSH2 0x100 EXP SWAP1 DIV PUSH1 0xFF AND ISZERO JUMPDEST ISZERO PUSH2 0xB01 JUMPI PUSH1 0x40 MLOAD PUSH32 0x605A223F00000000000000000000000000000000000000000000000000000000 DUP2 MSTORE PUSH1 0x4 ADD PUSH1 0x40 MLOAD DUP1 SWAP2 SUB SWAP1 REVERT JUMPDEST PUSH0 PUSH1 0x1 PUSH0 DUP8 PUSH1 0xFF AND PUSH1 0xFF AND DUP2 MSTORE PUSH1 0x20 ADD SWAP1 DUP2 MSTORE PUSH1 0x20 ADD PUSH0 KECCAK256 SWAP1 POP PUSH0 DUP2 DUP1 SLOAD SWAP1 POP SUB PUSH2 0xB58 JUMPI PUSH1 0x40 MLOAD PUSH32 0x4C751A4300000000000000000000000000000000000000000000000000000000 DUP2 MSTORE PUSH1 0x4 ADD PUSH1 0x40 MLOAD DUP1 SWAP2 SUB SWAP1 REVERT JUMPDEST PUSH0 DUP2 DUP1 SLOAD SWAP1 POP SWAP1 POP PUSH0 DUP2 DUP8 PUSH2 0xB6D SWAP2 SWAP1 PUSH2 0x190B JUMP JUMPDEST SWAP1 POP PUSH0 DUP4 DUP3 DUP2 SLOAD DUP2 LT PUSH2 0xB83 JUMPI PUSH2 0xB82 PUSH2 0x171C JUMP JUMPDEST JUMPDEST SWAP1 PUSH0 MSTORE PUSH1 0x20 PUSH0 KECCAK256 SWAP1 PUSH1 0x2 MUL ADD PUSH1 0x40 MLOAD DUP1 PUSH1 0x40 ADD PUSH1 0x40 MSTORE SWAP1 DUP2 PUSH0 DUP3 ADD PUSH0 SWAP1 SLOAD SWAP1 PUSH2 0x100 EXP SWAP1 DIV PUSH20 0xFFFFFFFFFFFFFFFFFFFFFFFFFFFFFFFFFFFFFFFF AND PUSH20 0xFFFFFFFFFFFFFFFFFFFFFFFFFFFFFFFFFFFFFFFF AND PUSH20 0xFFFFFFFFFFFFFFFFFFFFFFFFFFFFFFFFFFFFFFFF AND DUP2 MSTORE PUSH1 0x20 ADD PUSH1 0x1 DUP3 ADD SLOAD DUP2 MSTORE POP POP SWAP1 POP PUSH0 PUSH1 0x1 DUP5 PUSH2 0xC08 SWAP2 SWAP1 PUSH2 0x1816 JUMP JUMPDEST SWAP1 POP DUP1 DUP4 EQ PUSH2 0xD47 JUMPI PUSH0 DUP6 DUP3 DUP2 SLOAD DUP2 LT PUSH2 0xC25 JUMPI PUSH2 0xC24 PUSH2 0x171C JUMP JUMPDEST JUMPDEST SWAP1 PUSH0 MSTORE PUSH1 0x20 PUSH0 KECCAK256 SWAP1 PUSH1 0x2 MUL ADD PUSH1 0x40 MLOAD DUP1 PUSH1 0x40 ADD PUSH1 0x40 MSTORE SWAP1 DUP2 PUSH0 DUP3 ADD PUSH0 SWAP1 SLOAD SWAP1 PUSH2 0x100 EXP SWAP1 DIV PUSH20 0xFFFFFFFFFFFFFFFFFFFFFFFFFFFFFFFFFFFFFFFF AND PUSH20 0xFFFFFFFFFFFFFFFFFFFFFFFFFFFFFFFFFFFFFFFF AND PUSH20 0xFFFFFFFFFFFFFFFFFFFFFFFFFFFFFFFFFFFFFFFF AND DUP2 MSTORE PUSH1 0x20 ADD PUSH1 0x1 DUP3 ADD SLOAD DUP2 MSTORE POP POP SWAP1 POP DUP1 DUP7 DUP6 DUP2 SLOAD DUP2 LT PUSH2 0xCB0 JUMPI PUSH2 0xCAF PUSH2 0x171C JUMP JUMPDEST JUMPDEST SWAP1 PUSH0 MSTORE PUSH1 0x20 PUSH0 KECCAK256 SWAP1 PUSH1 0x2 MUL ADD PUSH0 DUP3 ADD MLOAD DUP2 PUSH0 ADD PUSH0 PUSH2 0x100 EXP DUP2 SLOAD DUP2 PUSH20 0xFFFFFFFFFFFFFFFFFFFFFFFFFFFFFFFFFFFFFFFF MUL NOT AND SWAP1 DUP4 PUSH20 0xFFFFFFFFFFFFFFFFFFFFFFFFFFFFFFFFFFFFFFFF AND MUL OR SWAP1 SSTORE POP PUSH1 0x20 DUP3 ADD MLOAD DUP2 PUSH1 0x1 ADD SSTORE SWAP1 POP POP PUSH0 PUSH2 0xD20 DUP3 PUSH0 ADD MLOAD DUP4 PUSH1 0x20 ADD MLOAD DUP15 PUSH2 0xFD0 JUMP JUMPDEST SWAP1 POP PUSH1 0x1 DUP6 PUSH2 0xD2F SWAP2 SWAP1 PUSH2 0x1849 JUMP JUMPDEST PUSH1 0x2 PUSH0 DUP4 DUP2 MSTORE PUSH1 0x20 ADD SWAP1 DUP2 MSTORE PUSH1 0x20 ADD PUSH0 KECCAK256 DUP2 SWAP1 SSTORE POP POP POP JUMPDEST DUP5 DUP1 SLOAD DUP1 PUSH2 0xD58 JUMPI PUSH2 0xD57 PUSH2 0x187C JUMP JUMPDEST JUMPDEST PUSH1 0x1 SWAP1 SUB DUP2 DUP2 SWAP1 PUSH0 MSTORE PUSH1 0x20 PUSH0 KECCAK256 SWAP1 PUSH1 0x2 MUL ADD PUSH0 PUSH0 DUP3 ADD PUSH0 PUSH2 0x100 EXP DUP2 SLOAD SWAP1 PUSH20 0xFFFFFFFFFFFFFFFFFFFFFFFFFFFFFFFFFFFFFFFF MUL NOT AND SWAP1 SSTORE PUSH1 0x1 DUP3 ADD PUSH0 SWAP1 SSTORE POP POP SWAP1 SSTORE PUSH0 PUSH2 0xDAE DUP4 PUSH0 ADD MLOAD DUP5 PUSH1 0x20 ADD MLOAD DUP14 PUSH2 0xFD0 JUMP JUMPDEST SWAP1 POP PUSH1 0x2 PUSH0 DUP3 DUP2 MSTORE PUSH1 0x20 ADD SWAP1 DUP2 MSTORE PUSH1 0x20 ADD PUSH0 KECCAK256 PUSH0 SWAP1 SSTORE DUP3 PUSH0 ADD MLOAD PUSH20 0xFFFFFFFFFFFFFFFFFFFFFFFFFFFFFFFFFFFFFFFF AND PUSH4 0x42842E0E ADDRESS DUP12 DUP7 PUSH1 0x20 ADD MLOAD PUSH1 0x40 MLOAD DUP5 PUSH4 0xFFFFFFFF AND PUSH1 0xE0 SHL DUP2 MSTORE PUSH1 0x4 ADD PUSH2 0xE08 SWAP4 SWAP3 SWAP2 SWAP1 PUSH2 0x18A9 JUMP JUMPDEST PUSH0 PUSH1 0x40 MLOAD DUP1 DUP4 SUB DUP2 PUSH0 DUP8 DUP1 EXTCODESIZE ISZERO DUP1 ISZERO PUSH2 0xE1F JUMPI PUSH0 PUSH0 REVERT JUMPDEST POP GAS CALL ISZERO DUP1 ISZERO PUSH2 0xE31 JUMPI RETURNDATASIZE PUSH0 PUSH0 RETURNDATACOPY RETURNDATASIZE PUSH0 REVERT JUMPDEST POP POP POP POP DUP3 PUSH1 0x20 ADD MLOAD DUP4 PUSH0 ADD MLOAD PUSH20 0xFFFFFFFFFFFFFFFFFFFFFFFFFFFFFFFFFFFFFFFF AND DUP11 PUSH20 0xFFFFFFFFFFFFFFFFFFFFFFFFFFFFFFFFFFFFFFFF AND PUSH32 0x6DCA0A6876FA6FD7E8B3DB5BBF9C7A91376A892227BC28A09B7CF04DA66125E0 DUP15 PUSH1 0x40 MLOAD PUSH2 0xE9A SWAP2 SWAP1 PUSH2 0x17D0 JUMP JUMPDEST PUSH1 0x40 MLOAD DUP1 SWAP2 SUB SWAP1 LOG4 DUP3 PUSH0 ADD MLOAD DUP4 PUSH1 0x20 ADD MLOAD SWAP8 POP SWAP8 POP POP POP POP POP POP POP PUSH2 0xEBD PUSH2 0x116F JUMP JUMPDEST SWAP4 POP SWAP4 SWAP2 POP POP JUMP JUMPDEST PUSH2 0xECD PUSH2 0x1005 JUMP JUMPDEST PUSH0 PUSH20 0xFFFFFFFFFFFFFFFFFFFFFFFFFFFFFFFFFFFFFFFF AND DUP2 PUSH20 0xFFFFFFFFFFFFFFFFFFFFFFFFFFFFFFFFFFFFFFFF AND SUB PUSH2 0xF3D JUMPI PUSH0 PUSH1 0x40 MLOAD PUSH32 0x1E4FBDF700000000000000000000000000000000000000000000000000000000 DUP2 MSTORE PUSH1 0x4 ADD PUSH2 0xF34 SWAP2 SWAP1 PUSH2 0x157C JUMP JUMPDEST PUSH1 0x40 MLOAD DUP1 SWAP2 SUB SWAP1 REVERT JUMPDEST PUSH2 0xF46 DUP2 PUSH2 0x108C JUMP JUMPDEST POP JUMP JUMPDEST PUSH2 0xF51 PUSH2 0x1005 JUMP JUMPDEST PUSH2 0xF59 PUSH2 0x114D JUMP JUMPDEST DUP3 PUSH20 0xFFFFFFFFFFFFFFFFFFFFFFFFFFFFFFFFFFFFFFFF AND PUSH4 0x42842E0E ADDRESS DUP4 DUP6 PUSH1 0x40 MLOAD DUP5 PUSH4 0xFFFFFFFF AND PUSH1 0xE0 SHL DUP2 MSTORE PUSH1 0x4 ADD PUSH2 0xF96 SWAP4 SWAP3 SWAP2 SWAP1 PUSH2 0x18A9 JUMP JUMPDEST PUSH0 PUSH1 0x40 MLOAD DUP1 DUP4 SUB DUP2 PUSH0 DUP8 DUP1 EXTCODESIZE ISZERO DUP1 ISZERO PUSH2 0xFAD JUMPI PUSH0 PUSH0 REVERT JUMPDEST POP GAS CALL ISZERO DUP1 ISZERO PUSH2 0xFBF JUMPI RETURNDATASIZE PUSH0 PUSH0 RETURNDATACOPY RETURNDATASIZE PUSH0 REVERT JUMPDEST POP POP POP POP PUSH2 0xFCB PUSH2 0x116F JUMP JUMPDEST POP POP POP JUMP JUMPDEST PUSH0 DUP4 DUP4 DUP4 PUSH1 0x40 MLOAD PUSH1 0x20 ADD PUSH2 0xFE6 SWAP4 SWAP3 SWAP2 SWAP1 PUSH2 0x19D4 JUMP JUMPDEST PUSH1 0x40 MLOAD PUSH1 0x20 DUP2 DUP4 SUB SUB DUP2 MSTORE SWAP1 PUSH1 0x40 MSTORE DUP1 MLOAD SWAP1 PUSH1 0x20 ADD KECCAK256 SWAP1 POP SWAP4 SWAP3 POP POP POP JUMP JUMPDEST PUSH2 0x100D PUSH2 0x1189 JUMP JUMPDEST PUSH20 0xFFFFFFFFFFFFFFFFFFFFFFFFFFFFFFFFFFFFFFFF AND PUSH2 0x102B PUSH2 0x9A1 JUMP JUMPDEST PUSH20 0xFFFFFFFFFFFFFFFFFFFFFFFFFFFFFFFFFFFFFFFF AND EQ PUSH2 0x108A JUMPI PUSH2 0x104E PUSH2 0x1189 JUMP JUMPDEST PUSH1 0x40 MLOAD PUSH32 0x118CDAA700000000000000000000000000000000000000000000000000000000 DUP2 MSTORE PUSH1 0x4 ADD PUSH2 0x1081 SWAP2 SWAP1 PUSH2 0x157C JUMP JUMPDEST PUSH1 0x40 MLOAD DUP1 SWAP2 SUB SWAP1 REVERT JUMPDEST JUMP JUMPDEST PUSH0 PUSH0 PUSH0 SWAP1 SLOAD SWAP1 PUSH2 0x100 EXP SWAP1 DIV PUSH20 0xFFFFFFFFFFFFFFFFFFFFFFFFFFFFFFFFFFFFFFFF AND SWAP1 POP DUP2 PUSH0 PUSH0 PUSH2 0x100 EXP DUP2 SLOAD DUP2 PUSH20 0xFFFFFFFFFFFFFFFFFFFFFFFFFFFFFFFFFFFFFFFF MUL NOT AND SWAP1 DUP4 PUSH20 0xFFFFFFFFFFFFFFFFFFFFFFFFFFFFFFFFFFFFFFFF AND MUL OR SWAP1 SSTORE POP DUP2 PUSH20 0xFFFFFFFFFFFFFFFFFFFFFFFFFFFFFFFFFFFFFFFF AND DUP2 PUSH20 0xFFFFFFFFFFFFFFFFFFFFFFFFFFFFFFFFFFFFFFFF AND PUSH32 0x8BE0079C531659141344CD1FD0A4F28419497F9722A3DAAFE3B4186F6B6457E0 PUSH1 0x40 MLOAD PUSH1 0x40 MLOAD DUP1 SWAP2 SUB SWAP1 LOG3 POP POP JUMP JUMPDEST PUSH2 0x1155 PUSH2 0x1190 JUMP JUMPDEST PUSH1 0x2 PUSH2 0x1167 PUSH2 0x1162 PUSH2 0x11D1 JUMP JUMPDEST PUSH2 0x11FA JUMP JUMPDEST PUSH0 ADD DUP2 SWAP1 SSTORE POP JUMP JUMPDEST PUSH1 0x1 PUSH2 0x1181 PUSH2 0x117C PUSH2 0x11D1 JUMP JUMPDEST PUSH2 0x11FA JUMP JUMPDEST PUSH0 ADD DUP2 SWAP1 SSTORE POP JUMP JUMPDEST PUSH0 CALLER SWAP1 POP SWAP1 JUMP JUMPDEST PUSH2 0x1198 PUSH2 0x1203 JUMP JUMPDEST ISZERO PUSH2 0x11CF JUMPI PUSH1 0x40 MLOAD PUSH32 0x3EE5AEB500000000000000000000000000000000000000000000000000000000 DUP2 MSTORE PUSH1 0x4 ADD PUSH1 0x40 MLOAD DUP1 SWAP2 SUB SWAP1 REVERT JUMPDEST JUMP JUMPDEST PUSH0 PUSH32 0x9B779B17422D0DF92223018B32B4D1FA46E071723D6817E2486D003BECC55F00 PUSH0 SHL SWAP1 POP SWAP1 JUMP JUMPDEST PUSH0 DUP2 SWAP1 POP SWAP2 SWAP1 POP JUMP JUMPDEST PUSH0 PUSH1 0x2 PUSH2 0x1216 PUSH2 0x1211 PUSH2 0x11D1 JUMP JUMPDEST PUSH2 0x11FA JUMP JUMPDEST PUSH0 ADD SLOAD EQ SWAP1 POP SWAP1 JUMP JUMPDEST PUSH0 PUSH0 REVERT JUMPDEST PUSH0 PUSH0 REVERT JUMPDEST PUSH0 PUSH20 0xFFFFFFFFFFFFFFFFFFFFFFFFFFFFFFFFFFFFFFFF DUP3 AND SWAP1 POP SWAP2 SWAP1 POP JUMP JUMPDEST PUSH0 PUSH2 0x1250 DUP3 PUSH2 0x1227 JUMP JUMPDEST SWAP1 POP SWAP2 SWAP1 POP JUMP JUMPDEST PUSH2 0x1260 DUP2 PUSH2 0x1246 JUMP JUMPDEST DUP2 EQ PUSH2 0x126A JUMPI PUSH0 PUSH0 REVERT JUMPDEST POP JUMP JUMPDEST PUSH0 DUP2 CALLDATALOAD SWAP1 POP PUSH2 0x127B DUP2 PUSH2 0x1257 JUMP JUMPDEST SWAP3 SWAP2 POP POP JUMP JUMPDEST PUSH0 DUP2 SWAP1 POP SWAP2 SWAP1 POP JUMP JUMPDEST PUSH2 0x1293 DUP2 PUSH2 0x1281 JUMP JUMPDEST DUP2 EQ PUSH2 0x129D JUMPI PUSH0 PUSH0 REVERT JUMPDEST POP JUMP JUMPDEST PUSH0 DUP2 CALLDATALOAD SWAP1 POP PUSH2 0x12AE DUP2 PUSH2 0x128A JUMP JUMPDEST SWAP3 SWAP2 POP POP JUMP JUMPDEST PUSH0 PUSH0 REVERT JUMPDEST PUSH0 PUSH0 REVERT JUMPDEST PUSH0 PUSH0 REVERT JUMPDEST PUSH0 PUSH0 DUP4 PUSH1 0x1F DUP5 ADD SLT PUSH2 0x12D5 JUMPI PUSH2 0x12D4 PUSH2 0x12B4 JUMP JUMPDEST JUMPDEST DUP3 CALLDATALOAD SWAP1 POP PUSH8 0xFFFFFFFFFFFFFFFF DUP2 GT ISZERO PUSH2 0x12F2 JUMPI PUSH2 0x12F1 PUSH2 0x12B8 JUMP JUMPDEST JUMPDEST PUSH1 0x20 DUP4 ADD SWAP2 POP DUP4 PUSH1 0x1 DUP3 MUL DUP4 ADD GT ISZERO PUSH2 0x130E JUMPI PUSH2 0x130D PUSH2 0x12BC JUMP JUMPDEST JUMPDEST SWAP3 POP SWAP3 SWAP1 POP JUMP JUMPDEST PUSH0 PUSH0 PUSH0 PUSH0 PUSH0 PUSH1 0x80 DUP7 DUP9 SUB SLT ISZERO PUSH2 0x132E JUMPI PUSH2 0x132D PUSH2 0x121F JUMP JUMPDEST JUMPDEST PUSH0 PUSH2 0x133B DUP9 DUP3 DUP10 ADD PUSH2 0x126D JUMP JUMPDEST SWAP6 POP POP PUSH1 0x20 PUSH2 0x134C DUP9 DUP3 DUP10 ADD PUSH2 0x126D JUMP JUMPDEST SWAP5 POP POP PUSH1 0x40 PUSH2 0x135D DUP9 DUP3 DUP10 ADD PUSH2 0x12A0 JUMP JUMPDEST SWAP4 POP POP PUSH1 0x60 DUP7 ADD CALLDATALOAD PUSH8 0xFFFFFFFFFFFFFFFF DUP2 GT ISZERO PUSH2 0x137E JUMPI PUSH2 0x137D PUSH2 0x1223 JUMP JUMPDEST JUMPDEST PUSH2 0x138A DUP9 DUP3 DUP10 ADD PUSH2 0x12C0 JUMP JUMPDEST SWAP3 POP SWAP3 POP POP SWAP3 SWAP6 POP SWAP3 SWAP6 SWAP1 SWAP4 POP JUMP JUMPDEST PUSH0 PUSH32 0xFFFFFFFF00000000000000000000000000000000000000000000000000000000 DUP3 AND SWAP1 POP SWAP2 SWAP1 POP JUMP JUMPDEST PUSH2 0x13CD DUP2 PUSH2 0x1399 JUMP JUMPDEST DUP3 MSTORE POP POP JUMP JUMPDEST PUSH0 PUSH1 0x20 DUP3 ADD SWAP1 POP PUSH2 0x13E6 PUSH0 DUP4 ADD DUP5 PUSH2 0x13C4 JUMP JUMPDEST SWAP3 SWAP2 POP POP JUMP JUMPDEST PUSH0 DUP2 ISZERO ISZERO SWAP1 POP SWAP2 SWAP1 POP JUMP JUMPDEST PUSH2 0x1400 DUP2 PUSH2 0x13EC JUMP JUMPDEST DUP2 EQ PUSH2 0x140A JUMPI PUSH0 PUSH0 REVERT JUMPDEST POP JUMP JUMPDEST PUSH0 DUP2 CALLDATALOAD SWAP1 POP PUSH2 0x141B DUP2 PUSH2 0x13F7 JUMP JUMPDEST SWAP3 SWAP2 POP POP JUMP JUMPDEST PUSH0 PUSH0 PUSH1 0x40 DUP4 DUP6 SUB SLT ISZERO PUSH2 0x1437 JUMPI PUSH2 0x1436 PUSH2 0x121F JUMP JUMPDEST JUMPDEST PUSH0 PUSH2 0x1444 DUP6 DUP3 DUP7 ADD PUSH2 0x126D JUMP JUMPDEST SWAP3 POP POP PUSH1 0x20 PUSH2 0x1455 DUP6 DUP3 DUP7 ADD PUSH2 0x140D JUMP JUMPDEST SWAP2 POP POP SWAP3 POP SWAP3 SWAP1 POP JUMP JUMPDEST PUSH0 PUSH1 0xFF DUP3 AND SWAP1 POP SWAP2 SWAP1 POP JUMP JUMPDEST PUSH2 0x1474 DUP2 PUSH2 0x145F JUMP JUMPDEST DUP2 EQ PUSH2 0x147E JUMPI PUSH0 PUSH0 REVERT JUMPDEST POP JUMP JUMPDEST PUSH0 DUP2 CALLDATALOAD SWAP1 POP PUSH2 0x148F DUP2 PUSH2 0x146B JUMP JUMPDEST SWAP3 SWAP2 POP POP JUMP JUMPDEST PUSH0 PUSH0 PUSH1 0x40 DUP4 DUP6 SUB SLT ISZERO PUSH2 0x14AB JUMPI PUSH2 0x14AA PUSH2 0x121F JUMP JUMPDEST JUMPDEST PUSH0 PUSH2 0x14B8 DUP6 DUP3 DUP7 ADD PUSH2 0x1481 JUMP JUMPDEST SWAP3 POP POP PUSH1 0x20 PUSH2 0x14C9 DUP6 DUP3 DUP7 ADD PUSH2 0x12A0 JUMP JUMPDEST SWAP2 POP POP SWAP3 POP SWAP3 SWAP1 POP JUMP JUMPDEST PUSH2 0x14DC DUP2 PUSH2 0x1246 JUMP JUMPDEST DUP3 MSTORE POP POP JUMP JUMPDEST PUSH2 0x14EB DUP2 PUSH2 0x1281 JUMP JUMPDEST DUP3 MSTORE POP POP JUMP JUMPDEST PUSH0 PUSH1 0x40 DUP3 ADD SWAP1 POP PUSH2 0x1504 PUSH0 DUP4 ADD DUP6 PUSH2 0x14D3 JUMP JUMPDEST PUSH2 0x1511 PUSH1 0x20 DUP4 ADD DUP5 PUSH2 0x14E2 JUMP JUMPDEST SWAP4 SWAP3 POP POP POP JUMP JUMPDEST PUSH0 PUSH0 PUSH0 PUSH0 PUSH1 0x80 DUP6 DUP8 SUB SLT ISZERO PUSH2 0x1530 JUMPI PUSH2 0x152F PUSH2 0x121F JUMP JUMPDEST JUMPDEST PUSH0 PUSH2 0x153D DUP8 DUP3 DUP9 ADD PUSH2 0x126D JUMP JUMPDEST SWAP5 POP POP PUSH1 0x20 PUSH2 0x154E DUP8 DUP3 DUP9 ADD PUSH2 0x12A0 JUMP JUMPDEST SWAP4 POP POP PUSH1 0x40 PUSH2 0x155F DUP8 DUP3 DUP9 ADD PUSH2 0x1481 JUMP JUMPDEST SWAP3 POP POP PUSH1 0x60 PUSH2 0x1570 DUP8 DUP3 DUP9 ADD PUSH2 0x126D JUMP JUMPDEST SWAP2 POP POP SWAP3 SWAP6 SWAP2 SWAP5 POP SWAP3 POP JUMP JUMPDEST PUSH0 PUSH1 0x20 DUP3 ADD SWAP1 POP PUSH2 0x158F PUSH0 DUP4 ADD DUP5 PUSH2 0x14D3 JUMP JUMPDEST SWAP3 SWAP2 POP POP JUMP JUMPDEST PUSH0 PUSH1 0x20 DUP3 DUP5 SUB SLT ISZERO PUSH2 0x15AA JUMPI PUSH2 0x15A9 PUSH2 0x121F JUMP JUMPDEST JUMPDEST PUSH0 PUSH2 0x15B7 DUP5 DUP3 DUP6 ADD PUSH2 0x126D JUMP JUMPDEST SWAP2 POP POP SWAP3 SWAP2 POP POP JUMP JUMPDEST PUSH2 0x15C9 DUP2 PUSH2 0x13EC JUMP JUMPDEST DUP3 MSTORE POP POP JUMP JUMPDEST PUSH0 PUSH1 0x20 DUP3 ADD SWAP1 POP PUSH2 0x15E2 PUSH0 DUP4 ADD DUP5 PUSH2 0x15C0 JUMP JUMPDEST SWAP3 SWAP2 POP POP JUMP JUMPDEST PUSH0 PUSH1 0x20 DUP3 DUP5 SUB SLT ISZERO PUSH2 0x15FD JUMPI PUSH2 0x15FC PUSH2 0x121F JUMP JUMPDEST JUMPDEST PUSH0 PUSH2 0x160A DUP5 DUP3 DUP6 ADD PUSH2 0x1481 JUMP JUMPDEST SWAP2 POP POP SWAP3 SWAP2 POP POP JUMP JUMPDEST PUSH0 PUSH1 0x20 DUP3 ADD SWAP1 POP PUSH2 0x1626 PUSH0 DUP4 ADD DUP5 PUSH2 0x14E2 JUMP JUMPDEST SWAP3 SWAP2 POP POP JUMP JUMPDEST PUSH0 PUSH0 PUSH0 PUSH1 0x60 DUP5 DUP7 SUB SLT ISZERO PUSH2 0x1643 JUMPI PUSH2 0x1642 PUSH2 0x121F JUMP JUMPDEST JUMPDEST PUSH0 PUSH2 0x1650 DUP7 DUP3 DUP8 ADD PUSH2 0x126D JUMP JUMPDEST SWAP4 POP POP PUSH1 0x20 PUSH2 0x1661 DUP7 DUP3 DUP8 ADD PUSH2 0x12A0 JUMP JUMPDEST SWAP3 POP POP PUSH1 0x40 PUSH2 0x1672 DUP7 DUP3 DUP8 ADD PUSH2 0x1481 JUMP JUMPDEST SWAP2 POP POP SWAP3 POP SWAP3 POP SWAP3 JUMP JUMPDEST PUSH0 PUSH0 PUSH0 PUSH1 0x60 DUP5 DUP7 SUB SLT ISZERO PUSH2 0x1693 JUMPI PUSH2 0x1692 PUSH2 0x121F JUMP JUMPDEST JUMPDEST PUSH0 PUSH2 0x16A0 DUP7 DUP3 DUP8 ADD PUSH2 0x1481 JUMP JUMPDEST SWAP4 POP POP PUSH1 0x20 PUSH2 0x16B1 DUP7 DUP3 DUP8 ADD PUSH2 0x12A0 JUMP JUMPDEST SWAP3 POP POP PUSH1 0x40 PUSH2 0x16C2 DUP7 DUP3 DUP8 ADD PUSH2 0x126D JUMP JUMPDEST SWAP2 POP POP SWAP3 POP SWAP3 POP SWAP3 JUMP JUMPDEST PUSH0 PUSH0 PUSH0 PUSH1 0x60 DUP5 DUP7 SUB SLT ISZERO PUSH2 0x16E3 JUMPI PUSH2 0x16E2 PUSH2 0x121F JUMP JUMPDEST JUMPDEST PUSH0 PUSH2 0x16F0 DUP7 DUP3 DUP8 ADD PUSH2 0x126D JUMP JUMPDEST SWAP4 POP POP PUSH1 0x20 PUSH2 0x1701 DUP7 DUP3 DUP8 ADD PUSH2 0x12A0 JUMP JUMPDEST SWAP3 POP POP PUSH1 0x40 PUSH2 0x1712 DUP7 DUP3 DUP8 ADD PUSH2 0x126D JUMP JUMPDEST SWAP2 POP POP SWAP3 POP SWAP3 POP SWAP3 JUMP JUMPDEST PUSH32 0x4E487B7100000000000000000000000000000000000000000000000000000000 PUSH0 MSTORE PUSH1 0x32 PUSH1 0x4 MSTORE PUSH1 0x24 PUSH0 REVERT JUMPDEST PUSH0 DUP3 DUP3 MSTORE PUSH1 0x20 DUP3 ADD SWAP1 POP SWAP3 SWAP2 POP POP JUMP JUMPDEST PUSH32 0x496E76616C6964207261726974792072616E6765000000000000000000000000 PUSH0 DUP3 ADD MSTORE POP JUMP JUMPDEST PUSH0 PUSH2 0x178D PUSH1 0x14 DUP4 PUSH2 0x1749 JUMP JUMPDEST SWAP2 POP PUSH2 0x1798 DUP3 PUSH2 0x1759 JUMP JUMPDEST PUSH1 0x20 DUP3 ADD SWAP1 POP SWAP2 SWAP1 POP JUMP JUMPDEST PUSH0 PUSH1 0x20 DUP3 ADD SWAP1 POP DUP2 DUP2 SUB PUSH0 DUP4 ADD MSTORE PUSH2 0x17BA DUP2 PUSH2 0x1781 JUMP JUMPDEST SWAP1 POP SWAP2 SWAP1 POP JUMP JUMPDEST PUSH2 0x17CA DUP2 PUSH2 0x145F JUMP JUMPDEST DUP3 MSTORE POP POP JUMP JUMPDEST PUSH0 PUSH1 0x20 DUP3 ADD SWAP1 POP PUSH2 0x17E3 PUSH0 DUP4 ADD DUP5 PUSH2 0x17C1 JUMP JUMPDEST SWAP3 SWAP2 POP POP JUMP JUMPDEST PUSH32 0x4E487B7100000000000000000000000000000000000000000000000000000000 PUSH0 MSTORE PUSH1 0x11 PUSH1 0x4 MSTORE PUSH1 0x24 PUSH0 REVERT JUMPDEST PUSH0 PUSH2 0x1820 DUP3 PUSH2 0x1281 JUMP JUMPDEST SWAP2 POP PUSH2 0x182B DUP4 PUSH2 0x1281 JUMP JUMPDEST SWAP3 POP DUP3 DUP3 SUB SWAP1 POP DUP2 DUP2 GT ISZERO PUSH2 0x1843 JUMPI PUSH2 0x1842 PUSH2 0x17E9 JUMP JUMPDEST JUMPDEST SWAP3 SWAP2 POP POP JUMP JUMPDEST PUSH0 PUSH2 0x1853 DUP3 PUSH2 0x1281 JUMP JUMPDEST SWAP2 POP PUSH2 0x185E DUP4 PUSH2 0x1281 JUMP JUMPDEST SWAP3 POP DUP3 DUP3 ADD SWAP1 POP DUP1 DUP3 GT ISZERO PUSH2 0x1876 JUMPI PUSH2 0x1875 PUSH2 0x17E9 JUMP JUMPDEST JUMPDEST SWAP3 SWAP2 POP POP JUMP JUMPDEST PUSH32 0x4E487B7100000000000000000000000000000000000000000000000000000000 PUSH0 MSTORE PUSH1 0x31 PUSH1 0x4 MSTORE PUSH1 0x24 PUSH0 REVERT JUMPDEST PUSH0 PUSH1 0x60 DUP3 ADD SWAP1 POP PUSH2 0x18BC PUSH0 DUP4 ADD DUP7 PUSH2 0x14D3 JUMP JUMPDEST PUSH2 0x18C9 PUSH1 0x20 DUP4 ADD DUP6 PUSH2 0x14D3 JUMP JUMPDEST PUSH2 0x18D6 PUSH1 0x40 DUP4 ADD DUP5 PUSH2 0x14E2 JUMP JUMPDEST SWAP5 SWAP4 POP POP POP POP JUMP JUMPDEST PUSH32 0x4E487B7100000000000000000000000000000000000000000000000000000000 PUSH0 MSTORE PUSH1 0x12 PUSH1 0x4 MSTORE PUSH1 0x24 PUSH0 REVERT JUMPDEST PUSH0 PUSH2 0x1915 DUP3 PUSH2 0x1281 JUMP JUMPDEST SWAP2 POP PUSH2 0x1920 DUP4 PUSH2 0x1281 JUMP JUMPDEST SWAP3 POP DUP3 PUSH2 0x1930 JUMPI PUSH2 0x192F PUSH2 0x18DE JUMP JUMPDEST JUMPDEST DUP3 DUP3 MOD SWAP1 POP SWAP3 SWAP2 POP POP JUMP JUMPDEST PUSH0 DUP2 PUSH1 0x60 SHL SWAP1 POP SWAP2 SWAP1 POP JUMP JUMPDEST PUSH0 PUSH2 0x1951 DUP3 PUSH2 0x193B JUMP JUMPDEST SWAP1 POP SWAP2 SWAP1 POP JUMP JUMPDEST PUSH0 PUSH2 0x1962 DUP3 PUSH2 0x1947 JUMP JUMPDEST SWAP1 POP SWAP2 SWAP1 POP JUMP JUMPDEST PUSH2 0x197A PUSH2 0x1975 DUP3 PUSH2 0x1246 JUMP JUMPDEST PUSH2 0x1958 JUMP JUMPDEST DUP3 MSTORE POP POP JUMP JUMPDEST PUSH0 DUP2 SWAP1 POP SWAP2 SWAP1 POP JUMP JUMPDEST PUSH2 0x199A PUSH2 0x1995 DUP3 PUSH2 0x1281 JUMP JUMPDEST PUSH2 0x1980 JUMP JUMPDEST DUP3 MSTORE POP POP JUMP JUMPDEST PUSH0 DUP2 PUSH1 0xF8 SHL SWAP1 POP SWAP2 SWAP1 POP JUMP JUMPDEST PUSH0 PUSH2 0x19B6 DUP3 PUSH2 0x19A0 JUMP JUMPDEST SWAP1 POP SWAP2 SWAP1 POP JUMP JUMPDEST PUSH2 0x19CE PUSH2 0x19C9 DUP3 PUSH2 0x145F JUMP JUMPDEST PUSH2 0x19AC JUMP JUMPDEST DUP3 MSTORE POP POP JUMP JUMPDEST PUSH0 PUSH2 0x19DF DUP3 DUP7 PUSH2 0x1969 JUMP JUMPDEST PUSH1 0x14 DUP3 ADD SWAP2 POP PUSH2 0x19EF DUP3 DUP6 PUSH2 0x1989 JUMP JUMPDEST PUSH1 0x20 DUP3 ADD SWAP2 POP PUSH2 0x19FF DUP3 DUP5 PUSH2 0x19BD JUMP JUMPDEST PUSH1 0x1 DUP3 ADD SWAP2 POP DUP2 SWAP1 POP SWAP5 SWAP4 POP POP POP POP JUMP INVALID LOG2 PUSH5 0x6970667358 0x22 SLT KECCAK256 0x2A CREATE PUSH20 0x3D080F6825B056E0BF883614A6A2D2E82465B2 0xB2 0xF7 0xEA 0xE9 CREATE2 LOG2 0xDB BASEFEE PUSH19 0x64736F6C634300081E00330000000000000000 "
				},
				"gasEstimates": {
					"creation": {
						"codeDepositCost": "1345200",
						"executionCost": "infinite",
						"totalCost": "infinite"
					},
					"external": {
						"adminWithdrawToken(address,uint256,uint8,address)": "infinite",
						"authorizedCaller(address)": "2878",
						"isInpool(address,uint256,uint8)": "infinite",
						"itemAt(uint8,uint256)": "infinite",
						"onERC721Received(address,address,uint256,bytes)": "infinite",
						"owner()": "2537",
						"poolLength(uint8)": "2862",
						"pools(uint8,uint256)": "infinite",
						"popItem(uint8,uint256,address)": "infinite",
						"renounceOwnership()": "infinite",
						"rescueERC721(address,uint256,address)": "infinite",
						"setAuthorizedCaller(address,bool)": "infinite",
						"transferOwnership(address)": "infinite"
					},
					"internal": {
						"_itemKey(address,uint256,uint8)": "infinite"
					}
				},
				"methodIdentifiers": {
					"adminWithdrawToken(address,uint256,uint8,address)": "7bc689b7",
					"authorizedCaller(address)": "98f6ef12",
					"isInpool(address,uint256,uint8)": "cd40fae5",
					"itemAt(uint8,uint256)": "4f7b7719",
					"onERC721Received(address,address,uint256,bytes)": "150b7a02",
					"owner()": "8da5cb5b",
					"poolLength(uint8)": "b52e5422",
					"pools(uint8,uint256)": "78a32e21",
					"popItem(uint8,uint256,address)": "d71e7b5c",
					"renounceOwnership()": "715018a6",
					"rescueERC721(address,uint256,address)": "fa3e4705",
					"setAuthorizedCaller(address,bool)": "454bbd29",
					"transferOwnership(address)": "f2fde38b"
				}
			},
			"storageLayout": {
				"storage": [
					{
						"astId": 8,
						"contract": "src/NFTPoolManager.sol:NFTPoolManager",
						"label": "_owner",
						"offset": 0,
						"slot": "0",
						"type": "t_address"
					},
					{
						"astId": 584,
						"contract": "src/NFTPoolManager.sol:NFTPoolManager",
						"label": "pools",
						"offset": 0,
						"slot": "1",
						"type": "t_mapping(t_uint8,t_array(t_struct(Item)578_storage)dyn_storage)"
					},
					{
						"astId": 588,
						"contract": "src/NFTPoolManager.sol:NFTPoolManager",
						"label": "_indexOf",
						"offset": 0,
						"slot": "2",
						"type": "t_mapping(t_bytes32,t_uint256)"
					},
					{
						"astId": 592,
						"contract": "src/NFTPoolManager.sol:NFTPoolManager",
						"label": "authorizedCaller",
						"offset": 0,
						"slot": "3",
						"type": "t_mapping(t_address,t_bool)"
					}
				],
				"types": {
					"t_address": {
						"encoding": "inplace",
						"label": "address",
						"numberOfBytes": "20"
					},
					"t_array(t_struct(Item)578_storage)dyn_storage": {
						"base": "t_struct(Item)578_storage",
						"encoding": "dynamic_array",
						"label": "struct NFTPoolManager.Item[]",
						"numberOfBytes": "32"
					},
					"t_bool": {
						"encoding": "inplace",
						"label": "bool",
						"numberOfBytes": "1"
					},
					"t_bytes32": {
						"encoding": "inplace",
						"label": "bytes32",
						"numberOfBytes": "32"
					},
					"t_mapping(t_address,t_bool)": {
						"encoding": "mapping",
						"key": "t_address",
						"label": "mapping(address => bool)",
						"numberOfBytes": "32",
						"value": "t_bool"
					},
					"t_mapping(t_bytes32,t_uint256)": {
						"encoding": "mapping",
						"key": "t_bytes32",
						"label": "mapping(bytes32 => uint256)",
						"numberOfBytes": "32",
						"value": "t_uint256"
					},
					"t_mapping(t_uint8,t_array(t_struct(Item)578_storage)dyn_storage)": {
						"encoding": "mapping",
						"key": "t_uint8",
						"label": "mapping(uint8 => struct NFTPoolManager.Item[])",
						"numberOfBytes": "32",
						"value": "t_array(t_struct(Item)578_storage)dyn_storage"
					},
					"t_struct(Item)578_storage": {
						"encoding": "inplace",
						"label": "struct NFTPoolManager.Item",
						"members": [
							{
								"astId": 575,
								"contract": "src/NFTPoolManager.sol:NFTPoolManager",
								"label": "token",
								"offset": 0,
								"slot": "0",
								"type": "t_address"
							},
							{
								"astId": 577,
								"contract": "src/NFTPoolManager.sol:NFTPoolManager",
								"label": "id",
								"offset": 0,
								"slot": "1",
								"type": "t_uint256"
							}
						],
						"numberOfBytes": "64"
					},
					"t_uint256": {
						"encoding": "inplace",
						"label": "uint256",
						"numberOfBytes": "32"
					},
					"t_uint8": {
						"encoding": "inplace",
						"label": "uint8",
						"numberOfBytes": "1"
					}
				}
			},
			"userdoc": {
				"kind": "user",
				"methods": {
					"onERC721Received(address,address,uint256,bytes)": {
						"notice": "接受NFT的回调函数"
					}
				},
				"version": 1
			}
		}
	}
}