{
	"src/LotBoxVRF.sol": {
		"LootBoxVRF": {
			"abi": [
				{
					"inputs": [
						{
							"internalType": "uint256",
							"name": "_subscriptionId",
							"type": "uint256"
						}
					],
					"stateMutability": "nonpayable",
					"type": "constructor"
				},
				{
					"inputs": [],
					"name": "BadStats",
					"type": "error"
				},
				{
					"inputs": [],
					"name": "Insufficientvalue",
					"type": "error"
				},
				{
					"inputs": [
						{
							"internalType": "address",
							"name": "have",
							"type": "address"
						},
						{
							"internalType": "address",
							"name": "want",
							"type": "address"
						}
					],
					"name": "OnlyCoordinatorCanFulfill",
					"type": "error"
				},
				{
					"inputs": [
						{
							"internalType": "address",
							"name": "have",
							"type": "address"
						},
						{
							"internalType": "address",
							"name": "owner",
							"type": "address"
						},
						{
							"internalType": "address",
							"name": "coordinator",
							"type": "address"
						}
					],
					"name": "OnlyOwnerOrCoordinator",
					"type": "error"
				},
				{
					"inputs": [],
					"name": "ZeroAddress",
					"type": "error"
				},
				{
					"anonymous": false,
					"inputs": [
						{
							"indexed": true,
							"internalType": "address",
							"name": "buyer",
							"type": "address"
						},
						{
							"indexed": false,
							"internalType": "uint8",
							"name": "rarity",
							"type": "uint8"
						},
						{
							"indexed": false,
							"internalType": "uint256",
							"name": "itemId",
							"type": "uint256"
						}
					],
					"name": "BoxOpened",
					"type": "event"
				},
				{
					"anonymous": false,
					"inputs": [
						{
							"indexed": true,
							"internalType": "address",
							"name": "buyer",
							"type": "address"
						},
						{
							"indexed": true,
							"internalType": "uint256",
							"name": "requestId",
							"type": "uint256"
						}
					],
					"name": "BoxPurchased",
					"type": "event"
				},
				{
					"anonymous": false,
					"inputs": [
						{
							"indexed": false,
							"internalType": "address",
							"name": "vrfCoordinator",
							"type": "address"
						}
					],
					"name": "CoordinatorSet",
					"type": "event"
				},
				{
					"anonymous": false,
					"inputs": [
						{
							"indexed": true,
							"internalType": "address",
							"name": "from",
							"type": "address"
						},
						{
							"indexed": true,
							"internalType": "address",
							"name": "to",
							"type": "address"
						}
					],
					"name": "OwnershipTransferRequested",
					"type": "event"
				},
				{
					"anonymous": false,
					"inputs": [
						{
							"indexed": true,
							"internalType": "address",
							"name": "from",
							"type": "address"
						},
						{
							"indexed": true,
							"internalType": "address",
							"name": "to",
							"type": "address"
						}
					],
					"name": "OwnershipTransferred",
					"type": "event"
				},
				{
					"anonymous": false,
					"inputs": [
						{
							"indexed": false,
							"internalType": "uint256",
							"name": "requestId",
							"type": "uint256"
						},
						{
							"indexed": true,
							"internalType": "address",
							"name": "user",
							"type": "address"
						}
					],
					"name": "RandomsRequest",
					"type": "event"
				},
				{
					"inputs": [],
					"name": "acceptOwnership",
					"outputs": [],
					"stateMutability": "nonpayable",
					"type": "function"
				},
				{
					"inputs": [
						{
							"internalType": "uint256",
							"name": "",
							"type": "uint256"
						}
					],
					"name": "asks",
					"outputs": [
						{
							"internalType": "enum LootBoxVRF.Status",
							"name": "status",
							"type": "uint8"
						},
						{
							"internalType": "address",
							"name": "buyer",
							"type": "address"
						},
						{
							"internalType": "uint256",
							"name": "randomness",
							"type": "uint256"
						}
					],
					"stateMutability": "view",
					"type": "function"
				},
				{
					"inputs": [],
					"name": "buyBox",
					"outputs": [
						{
							"internalType": "uint256",
							"name": "requestId",
							"type": "uint256"
						}
					],
					"stateMutability": "payable",
					"type": "function"
				},
				{
					"inputs": [],
					"name": "callbackGasLimit",
					"outputs": [
						{
							"internalType": "uint32",
							"name": "",
							"type": "uint32"
						}
					],
					"stateMutability": "view",
					"type": "function"
				},
				{
					"inputs": [
						{
							"internalType": "uint256",
							"name": "",
							"type": "uint256"
						}
					],
					"name": "classes",
					"outputs": [
						{
							"internalType": "uint256",
							"name": "remaining",
							"type": "uint256"
						}
					],
					"stateMutability": "view",
					"type": "function"
				},
				{
					"inputs": [],
					"name": "numWords",
					"outputs": [
						{
							"internalType": "uint32",
							"name": "",
							"type": "uint32"
						}
					],
					"stateMutability": "view",
					"type": "function"
				},
				{
					"inputs": [],
					"name": "owner",
					"outputs": [
						{
							"internalType": "address",
							"name": "",
							"type": "address"
						}
					],
					"stateMutability": "view",
					"type": "function"
				},
				{
					"inputs": [
						{
							"internalType": "uint256",
							"name": "requestId",
							"type": "uint256"
						},
						{
							"internalType": "uint256[]",
							"name": "randomWords",
							"type": "uint256[]"
						}
					],
					"name": "rawFulfillRandomWords",
					"outputs": [],
					"stateMutability": "nonpayable",
					"type": "function"
				},
				{
					"inputs": [],
					"name": "requestConfirmations",
					"outputs": [
						{
							"internalType": "uint16",
							"name": "",
							"type": "uint16"
						}
					],
					"stateMutability": "view",
					"type": "function"
				},
				{
					"inputs": [],
					"name": "requestRandomWords",
					"outputs": [
						{
							"internalType": "uint256",
							"name": "",
							"type": "uint256"
						}
					],
					"stateMutability": "nonpayable",
					"type": "function"
				},
				{
					"inputs": [],
					"name": "s_vrfCoordinator",
					"outputs": [
						{
							"internalType": "contract IVRFCoordinatorV2Plus",
							"name": "",
							"type": "address"
						}
					],
					"stateMutability": "view",
					"type": "function"
				},
				{
					"inputs": [
						{
							"internalType": "address",
							"name": "_vrfCoordinator",
							"type": "address"
						}
					],
					"name": "setCoordinator",
					"outputs": [],
					"stateMutability": "nonpayable",
					"type": "function"
				},
				{
					"inputs": [],
					"name": "totalRemaining",
					"outputs": [
						{
							"internalType": "uint32",
							"name": "",
							"type": "uint32"
						}
					],
					"stateMutability": "view",
					"type": "function"
				},
				{
					"inputs": [
						{
							"internalType": "address",
							"name": "to",
							"type": "address"
						}
					],
					"name": "transferOwnership",
					"outputs": [],
					"stateMutability": "nonpayable",
					"type": "function"
				}
			],
			"devdoc": {
				"kind": "dev",
				"methods": {},
				"version": 1
			},
			"evm": {
				"assembly": "    /* \"src/LotBoxVRF.sol\":364:4448  contract LootBoxVRF is VRFConsumerBaseV2Plus{... */\n  mstore(0x40, 0x80)\n    /* \"src/LotBoxVRF.sol\":506:548  0x9DdfaCa8183c41ad55329BdeeD9F6A8d53168B1B */\n  0x9ddfaca8183c41ad55329bdeed9f6a8d53168b1b\n    /* \"src/LotBoxVRF.sol\":473:548  address private vrfCoordinator = 0x9DdfaCa8183c41ad55329BdeeD9F6A8d53168B1B */\n  0x04\n  exp(0x0100, 0x00)\n  dup2\n  sload\n  dup2\n  0xffffffffffffffffffffffffffffffffffffffff\n  mul\n  not\n  and\n  swap1\n  dup4\n  0xffffffffffffffffffffffffffffffffffffffff\n  and\n  mul\n  or\n  swap1\n  sstore\n  pop\n    /* \"src/LotBoxVRF.sol\":596:662  0x787d74caea10b2b357790d5b5247c2f63d1d91572a9846f780606e4d953677ae */\n  0x787d74caea10b2b357790d5b5247c2f63d1d91572a9846f780606e4d953677ae\n    /* \"src/LotBoxVRF.sol\":570:662  bytes32 private keyHash = 0x787d74caea10b2b357790d5b5247c2f63d1d91572a9846f780606e4d953677ae */\n  0x00\n  shl\n  0x05\n  sstore\n    /* \"src/LotBoxVRF.sol\":787:793  200000 */\n  0x030d40\n    /* \"src/LotBoxVRF.sol\":753:793  uint32 public  callbackGasLimit = 200000 */\n  0x07\n  exp(0x0100, 0x00)\n  dup2\n  sload\n  dup2\n  0xffffffff\n  mul\n  not\n  and\n  swap1\n  dup4\n  0xffffffff\n  and\n  mul\n  or\n  swap1\n  sstore\n  pop\n    /* \"src/LotBoxVRF.sol\":869:870  3 */\n  0x03\n    /* \"src/LotBoxVRF.sol\":832:870  uint16 public requestConfirmations = 3 */\n  0x07\n  exp(0x0100, 0x04)\n  dup2\n  sload\n  dup2\n  0xffff\n  mul\n  not\n  and\n  swap1\n  dup4\n  0xffff\n  and\n  mul\n  or\n  swap1\n  sstore\n  pop\n    /* \"src/LotBoxVRF.sol\":902:903  1 */\n  0x01\n    /* \"src/LotBoxVRF.sol\":877:903  uint32 public numWords = 1 */\n  0x07\n  exp(0x0100, 0x06)\n  dup2\n  sload\n  dup2\n  0xffffffff\n  mul\n  not\n  and\n  swap1\n  dup4\n  0xffffffff\n  and\n  mul\n  or\n  swap1\n  sstore\n  pop\n    /* \"src/LotBoxVRF.sol\":1853:2047  constructor(... */\n  callvalue\n  dup1\n  iszero\n  tag_1\n  jumpi\n  revert(0x00, 0x00)\ntag_1:\n  pop\n  mload(0x40)\n  sub(codesize, bytecodeSize)\n  dup1\n  bytecodeSize\n  dup4\n  codecopy\n  dup2\n  dup2\n  add\n  0x40\n  mstore\n  dup2\n  add\n  swap1\n  tag_2\n  swap2\n  swap1\n  tag_3\n  jump\t// in\ntag_2:\n    /* \"src/LotBoxVRF.sol\":1928:1942  vrfCoordinator */\n  0x04\n  0x00\n  swap1\n  sload\n  swap1\n  0x0100\n  exp\n  swap1\n  div\n  0xffffffffffffffffffffffffffffffffffffffff\n  and\n    /* \"lib/chainlink-brownie-contracts/contracts/src/v0.8/vrf/dev/VRFConsumerBaseV2Plus.sol\":6254:6264  msg.sender */\n  caller\n    /* \"lib/chainlink-brownie-contracts/contracts/src/v0.8/shared/access/ConfirmedOwner.sol\":355:363  newOwner */\n  dup1\n    /* \"lib/chainlink-brownie-contracts/contracts/src/v0.8/shared/access/ConfirmedOwner.sol\":373:374  0 */\n  0x00\n    /* \"lib/chainlink-brownie-contracts/contracts/src/v0.8/shared/access/ConfirmedOwnerWithProposal.sol\":618:619  0 */\n  0x00\n    /* \"lib/chainlink-brownie-contracts/contracts/src/v0.8/shared/access/ConfirmedOwnerWithProposal.sol\":598:620  newOwner != address(0) */\n  0xffffffffffffffffffffffffffffffffffffffff\n  and\n    /* \"lib/chainlink-brownie-contracts/contracts/src/v0.8/shared/access/ConfirmedOwnerWithProposal.sol\":598:606  newOwner */\n  dup3\n    /* \"lib/chainlink-brownie-contracts/contracts/src/v0.8/shared/access/ConfirmedOwnerWithProposal.sol\":598:620  newOwner != address(0) */\n  0xffffffffffffffffffffffffffffffffffffffff\n  and\n  sub\n    /* \"lib/chainlink-brownie-contracts/contracts/src/v0.8/shared/access/ConfirmedOwnerWithProposal.sol\":590:649  require(newOwner != address(0), \"Cannot set owner to zero\") */\n  tag_9\n  jumpi\n  mload(0x40)\n  0x08c379a000000000000000000000000000000000000000000000000000000000\n  dup2\n  mstore\n  0x04\n  add\n  tag_10\n  swap1\n  tag_11\n  jump\t// in\ntag_10:\n  mload(0x40)\n  dup1\n  swap2\n  sub\n  swap1\n  revert\ntag_9:\n    /* \"lib/chainlink-brownie-contracts/contracts/src/v0.8/shared/access/ConfirmedOwnerWithProposal.sol\":666:674  newOwner */\n  dup2\n    /* \"lib/chainlink-brownie-contracts/contracts/src/v0.8/shared/access/ConfirmedOwnerWithProposal.sol\":656:663  s_owner */\n  0x00\n  0x00\n    /* \"lib/chainlink-brownie-contracts/contracts/src/v0.8/shared/access/ConfirmedOwnerWithProposal.sol\":656:674  s_owner = newOwner */\n  0x0100\n  exp\n  dup2\n  sload\n  dup2\n  0xffffffffffffffffffffffffffffffffffffffff\n  mul\n  not\n  and\n  swap1\n  dup4\n  0xffffffffffffffffffffffffffffffffffffffff\n  and\n  mul\n  or\n  swap1\n  sstore\n  pop\n    /* \"lib/chainlink-brownie-contracts/contracts/src/v0.8/shared/access/ConfirmedOwnerWithProposal.sol\":708:709  0 */\n  0x00\n    /* \"lib/chainlink-brownie-contracts/contracts/src/v0.8/shared/access/ConfirmedOwnerWithProposal.sol\":684:710  pendingOwner != address(0) */\n  0xffffffffffffffffffffffffffffffffffffffff\n  and\n    /* \"lib/chainlink-brownie-contracts/contracts/src/v0.8/shared/access/ConfirmedOwnerWithProposal.sol\":684:696  pendingOwner */\n  dup2\n    /* \"lib/chainlink-brownie-contracts/contracts/src/v0.8/shared/access/ConfirmedOwnerWithProposal.sol\":684:710  pendingOwner != address(0) */\n  0xffffffffffffffffffffffffffffffffffffffff\n  and\n  eq\n    /* \"lib/chainlink-brownie-contracts/contracts/src/v0.8/shared/access/ConfirmedOwnerWithProposal.sol\":680:759  if (pendingOwner != address(0)) {... */\n  tag_12\n  jumpi\n    /* \"lib/chainlink-brownie-contracts/contracts/src/v0.8/shared/access/ConfirmedOwnerWithProposal.sol\":720:752  _transferOwnership(pendingOwner) */\n  tag_13\n    /* \"lib/chainlink-brownie-contracts/contracts/src/v0.8/shared/access/ConfirmedOwnerWithProposal.sol\":739:751  pendingOwner */\n  dup2\n    /* \"lib/chainlink-brownie-contracts/contracts/src/v0.8/shared/access/ConfirmedOwnerWithProposal.sol\":720:738  _transferOwnership */\n  shl(0x20, tag_14)\n    /* \"lib/chainlink-brownie-contracts/contracts/src/v0.8/shared/access/ConfirmedOwnerWithProposal.sol\":720:752  _transferOwnership(pendingOwner) */\n  0x20\n  shr\n  jump\t// in\ntag_13:\n    /* \"lib/chainlink-brownie-contracts/contracts/src/v0.8/shared/access/ConfirmedOwnerWithProposal.sol\":680:759  if (pendingOwner != address(0)) {... */\ntag_12:\n    /* \"lib/chainlink-brownie-contracts/contracts/src/v0.8/shared/access/ConfirmedOwnerWithProposal.sol\":481:763  constructor(address newOwner, address pendingOwner) {... */\n  pop\n  pop\n    /* \"lib/chainlink-brownie-contracts/contracts/src/v0.8/shared/access/ConfirmedOwner.sol\":298:379  constructor(address newOwner) ConfirmedOwnerWithProposal(newOwner, address(0)) {} */\n  pop\n    /* \"lib/chainlink-brownie-contracts/contracts/src/v0.8/vrf/dev/VRFConsumerBaseV2Plus.sol\":6303:6304  0 */\n  0x00\n    /* \"lib/chainlink-brownie-contracts/contracts/src/v0.8/vrf/dev/VRFConsumerBaseV2Plus.sol\":6276:6305  _vrfCoordinator == address(0) */\n  0xffffffffffffffffffffffffffffffffffffffff\n  and\n    /* \"lib/chainlink-brownie-contracts/contracts/src/v0.8/vrf/dev/VRFConsumerBaseV2Plus.sol\":6276:6291  _vrfCoordinator */\n  dup2\n    /* \"lib/chainlink-brownie-contracts/contracts/src/v0.8/vrf/dev/VRFConsumerBaseV2Plus.sol\":6276:6305  _vrfCoordinator == address(0) */\n  0xffffffffffffffffffffffffffffffffffffffff\n  and\n  sub\n    /* \"lib/chainlink-brownie-contracts/contracts/src/v0.8/vrf/dev/VRFConsumerBaseV2Plus.sol\":6272:6342  if (_vrfCoordinator == address(0)) {... */\n  tag_17\n  jumpi\n    /* \"lib/chainlink-brownie-contracts/contracts/src/v0.8/vrf/dev/VRFConsumerBaseV2Plus.sol\":6322:6335  ZeroAddress() */\n  mload(0x40)\n  0xd92e233d00000000000000000000000000000000000000000000000000000000\n  dup2\n  mstore\n  0x04\n  add\n  mload(0x40)\n  dup1\n  swap2\n  sub\n  swap1\n  revert\n    /* \"lib/chainlink-brownie-contracts/contracts/src/v0.8/vrf/dev/VRFConsumerBaseV2Plus.sol\":6272:6342  if (_vrfCoordinator == address(0)) {... */\ntag_17:\n    /* \"lib/chainlink-brownie-contracts/contracts/src/v0.8/vrf/dev/VRFConsumerBaseV2Plus.sol\":6388:6403  _vrfCoordinator */\n  dup1\n    /* \"lib/chainlink-brownie-contracts/contracts/src/v0.8/vrf/dev/VRFConsumerBaseV2Plus.sol\":6347:6363  s_vrfCoordinator */\n  0x02\n  0x00\n    /* \"lib/chainlink-brownie-contracts/contracts/src/v0.8/vrf/dev/VRFConsumerBaseV2Plus.sol\":6347:6404  s_vrfCoordinator = IVRFCoordinatorV2Plus(_vrfCoordinator) */\n  0x0100\n  exp\n  dup2\n  sload\n  dup2\n  0xffffffffffffffffffffffffffffffffffffffff\n  mul\n  not\n  and\n  swap1\n  dup4\n  0xffffffffffffffffffffffffffffffffffffffff\n  and\n  mul\n  or\n  swap1\n  sstore\n  pop\n    /* \"lib/chainlink-brownie-contracts/contracts/src/v0.8/vrf/dev/VRFConsumerBaseV2Plus.sol\":6202:6409  constructor(address _vrfCoordinator) ConfirmedOwner(msg.sender) {... */\n  pop\n    /* \"src/LotBoxVRF.sol\":1990:2004  vrfCoordinator */\n  0x04\n  0x00\n  swap1\n  sload\n  swap1\n  0x0100\n  exp\n  swap1\n  div\n  0xffffffffffffffffffffffffffffffffffffffff\n  and\n    /* \"src/LotBoxVRF.sol\":1954:1965  COORDINATOR */\n  0x03\n  0x00\n    /* \"src/LotBoxVRF.sol\":1954:2005  COORDINATOR = IVRFCoordinatorV2Plus(vrfCoordinator) */\n  0x0100\n  exp\n  dup2\n  sload\n  dup2\n  0xffffffffffffffffffffffffffffffffffffffff\n  mul\n  not\n  and\n  swap1\n  dup4\n  0xffffffffffffffffffffffffffffffffffffffff\n  and\n  mul\n  or\n  swap1\n  sstore\n  pop\n    /* \"src/LotBoxVRF.sol\":2024:2039  _subscriptionId */\n  dup1\n    /* \"src/LotBoxVRF.sol\":2016:2021  subId */\n  0x06\n    /* \"src/LotBoxVRF.sol\":2016:2039  subId = _subscriptionId */\n  dup2\n  swap1\n  sstore\n  pop\n    /* \"src/LotBoxVRF.sol\":1853:2047  constructor(... */\n  pop\n    /* \"src/LotBoxVRF.sol\":364:4448  contract LootBoxVRF is VRFConsumerBaseV2Plus{... */\n  jump(tag_19)\n    /* \"lib/chainlink-brownie-contracts/contracts/src/v0.8/shared/access/ConfirmedOwnerWithProposal.sol\":1536:1775  function _transferOwnership(address to) private {... */\ntag_14:\n    /* \"lib/chainlink-brownie-contracts/contracts/src/v0.8/shared/access/ConfirmedOwnerWithProposal.sol\":1655:1665  msg.sender */\n  caller\n    /* \"lib/chainlink-brownie-contracts/contracts/src/v0.8/shared/access/ConfirmedOwnerWithProposal.sol\":1649:1665  to != msg.sender */\n  0xffffffffffffffffffffffffffffffffffffffff\n  and\n    /* \"lib/chainlink-brownie-contracts/contracts/src/v0.8/shared/access/ConfirmedOwnerWithProposal.sol\":1649:1651  to */\n  dup2\n    /* \"lib/chainlink-brownie-contracts/contracts/src/v0.8/shared/access/ConfirmedOwnerWithProposal.sol\":1649:1665  to != msg.sender */\n  0xffffffffffffffffffffffffffffffffffffffff\n  and\n  sub\n    /* \"lib/chainlink-brownie-contracts/contracts/src/v0.8/shared/access/ConfirmedOwnerWithProposal.sol\":1641:1693  require(to != msg.sender, \"Cannot transfer to self\") */\n  tag_21\n  jumpi\n  mload(0x40)\n  0x08c379a000000000000000000000000000000000000000000000000000000000\n  dup2\n  mstore\n  0x04\n  add\n  tag_22\n  swap1\n  tag_23\n  jump\t// in\ntag_22:\n  mload(0x40)\n  dup1\n  swap2\n  sub\n  swap1\n  revert\ntag_21:\n    /* \"lib/chainlink-brownie-contracts/contracts/src/v0.8/shared/access/ConfirmedOwnerWithProposal.sol\":1717:1719  to */\n  dup1\n    /* \"lib/chainlink-brownie-contracts/contracts/src/v0.8/shared/access/ConfirmedOwnerWithProposal.sol\":1700:1714  s_pendingOwner */\n  0x01\n  0x00\n    /* \"lib/chainlink-brownie-contracts/contracts/src/v0.8/shared/access/ConfirmedOwnerWithProposal.sol\":1700:1719  s_pendingOwner = to */\n  0x0100\n  exp\n  dup2\n  sload\n  dup2\n  0xffffffffffffffffffffffffffffffffffffffff\n  mul\n  not\n  and\n  swap1\n  dup4\n  0xffffffffffffffffffffffffffffffffffffffff\n  and\n  mul\n  or\n  swap1\n  sstore\n  pop\n    /* \"lib/chainlink-brownie-contracts/contracts/src/v0.8/shared/access/ConfirmedOwnerWithProposal.sol\":1767:1769  to */\n  dup1\n    /* \"lib/chainlink-brownie-contracts/contracts/src/v0.8/shared/access/ConfirmedOwnerWithProposal.sol\":1731:1770  OwnershipTransferRequested(s_owner, to) */\n  0xffffffffffffffffffffffffffffffffffffffff\n  and\n    /* \"lib/chainlink-brownie-contracts/contracts/src/v0.8/shared/access/ConfirmedOwnerWithProposal.sol\":1758:1765  s_owner */\n  0x00\n  0x00\n  swap1\n  sload\n  swap1\n  0x0100\n  exp\n  swap1\n  div\n  0xffffffffffffffffffffffffffffffffffffffff\n  and\n    /* \"lib/chainlink-brownie-contracts/contracts/src/v0.8/shared/access/ConfirmedOwnerWithProposal.sol\":1731:1770  OwnershipTransferRequested(s_owner, to) */\n  0xffffffffffffffffffffffffffffffffffffffff\n  and\n  0xed8889f560326eb138920d842192f0eb3dd22b4f139c87a2c57538e05bae1278\n  mload(0x40)\n  mload(0x40)\n  dup1\n  swap2\n  sub\n  swap1\n  log3\n    /* \"lib/chainlink-brownie-contracts/contracts/src/v0.8/shared/access/ConfirmedOwnerWithProposal.sol\":1536:1775  function _transferOwnership(address to) private {... */\n  pop\n  jump\t// out\n    /* \"#utility.yul\":88:205   */\ntag_25:\n    /* \"#utility.yul\":197:198   */\n  0x00\n    /* \"#utility.yul\":194:195   */\n  0x00\n    /* \"#utility.yul\":187:199   */\n  revert\n    /* \"#utility.yul\":334:411   */\ntag_27:\n    /* \"#utility.yul\":371:378   */\n  0x00\n    /* \"#utility.yul\":400:405   */\n  dup2\n    /* \"#utility.yul\":389:405   */\n  swap1\n  pop\n    /* \"#utility.yul\":334:411   */\n  swap2\n  swap1\n  pop\n  jump\t// out\n    /* \"#utility.yul\":417:539   */\ntag_28:\n    /* \"#utility.yul\":490:514   */\n  tag_41\n    /* \"#utility.yul\":508:513   */\n  dup2\n    /* \"#utility.yul\":490:514   */\n  tag_27\n  jump\t// in\ntag_41:\n    /* \"#utility.yul\":483:488   */\n  dup2\n    /* \"#utility.yul\":480:515   */\n  eq\n    /* \"#utility.yul\":470:533   */\n  tag_42\n  jumpi\n    /* \"#utility.yul\":529:530   */\n  0x00\n    /* \"#utility.yul\":526:527   */\n  0x00\n    /* \"#utility.yul\":519:531   */\n  revert\n    /* \"#utility.yul\":470:533   */\ntag_42:\n    /* \"#utility.yul\":417:539   */\n  pop\n  jump\t// out\n    /* \"#utility.yul\":545:688   */\ntag_29:\n    /* \"#utility.yul\":602:607   */\n  0x00\n    /* \"#utility.yul\":633:639   */\n  dup2\n    /* \"#utility.yul\":627:640   */\n  mload\n    /* \"#utility.yul\":618:640   */\n  swap1\n  pop\n    /* \"#utility.yul\":649:682   */\n  tag_44\n    /* \"#utility.yul\":676:681   */\n  dup2\n    /* \"#utility.yul\":649:682   */\n  tag_28\n  jump\t// in\ntag_44:\n    /* \"#utility.yul\":545:688   */\n  swap3\n  swap2\n  pop\n  pop\n  jump\t// out\n    /* \"#utility.yul\":694:1045   */\ntag_3:\n    /* \"#utility.yul\":764:770   */\n  0x00\n    /* \"#utility.yul\":813:815   */\n  0x20\n    /* \"#utility.yul\":801:810   */\n  dup3\n    /* \"#utility.yul\":792:799   */\n  dup5\n    /* \"#utility.yul\":788:811   */\n  sub\n    /* \"#utility.yul\":784:816   */\n  slt\n    /* \"#utility.yul\":781:900   */\n  iszero\n  tag_46\n  jumpi\n    /* \"#utility.yul\":819:898   */\n  tag_47\n  tag_25\n  jump\t// in\ntag_47:\n    /* \"#utility.yul\":781:900   */\ntag_46:\n    /* \"#utility.yul\":939:940   */\n  0x00\n    /* \"#utility.yul\":964:1028   */\n  tag_48\n    /* \"#utility.yul\":1020:1027   */\n  dup5\n    /* \"#utility.yul\":1011:1017   */\n  dup3\n    /* \"#utility.yul\":1000:1009   */\n  dup6\n    /* \"#utility.yul\":996:1018   */\n  add\n    /* \"#utility.yul\":964:1028   */\n  tag_29\n  jump\t// in\ntag_48:\n    /* \"#utility.yul\":954:1028   */\n  swap2\n  pop\n    /* \"#utility.yul\":910:1038   */\n  pop\n    /* \"#utility.yul\":694:1045   */\n  swap3\n  swap2\n  pop\n  pop\n  jump\t// out\n    /* \"#utility.yul\":1051:1220   */\ntag_30:\n    /* \"#utility.yul\":1135:1146   */\n  0x00\n    /* \"#utility.yul\":1169:1175   */\n  dup3\n    /* \"#utility.yul\":1164:1167   */\n  dup3\n    /* \"#utility.yul\":1157:1176   */\n  mstore\n    /* \"#utility.yul\":1209:1213   */\n  0x20\n    /* \"#utility.yul\":1204:1207   */\n  dup3\n    /* \"#utility.yul\":1200:1214   */\n  add\n    /* \"#utility.yul\":1185:1214   */\n  swap1\n  pop\n    /* \"#utility.yul\":1051:1220   */\n  swap3\n  swap2\n  pop\n  pop\n  jump\t// out\n    /* \"#utility.yul\":1226:1400   */\ntag_31:\n    /* \"#utility.yul\":1366:1392   */\n  0x43616e6e6f7420736574206f776e657220746f207a65726f0000000000000000\n    /* \"#utility.yul\":1362:1363   */\n  0x00\n    /* \"#utility.yul\":1354:1360   */\n  dup3\n    /* \"#utility.yul\":1350:1364   */\n  add\n    /* \"#utility.yul\":1343:1393   */\n  mstore\n    /* \"#utility.yul\":1226:1400   */\n  pop\n  jump\t// out\n    /* \"#utility.yul\":1406:1772   */\ntag_32:\n    /* \"#utility.yul\":1548:1551   */\n  0x00\n    /* \"#utility.yul\":1569:1636   */\n  tag_52\n    /* \"#utility.yul\":1633:1635   */\n  0x18\n    /* \"#utility.yul\":1628:1631   */\n  dup4\n    /* \"#utility.yul\":1569:1636   */\n  tag_30\n  jump\t// in\ntag_52:\n    /* \"#utility.yul\":1562:1636   */\n  swap2\n  pop\n    /* \"#utility.yul\":1645:1738   */\n  tag_53\n    /* \"#utility.yul\":1734:1737   */\n  dup3\n    /* \"#utility.yul\":1645:1738   */\n  tag_31\n  jump\t// in\ntag_53:\n    /* \"#utility.yul\":1763:1765   */\n  0x20\n    /* \"#utility.yul\":1758:1761   */\n  dup3\n    /* \"#utility.yul\":1754:1766   */\n  add\n    /* \"#utility.yul\":1747:1766   */\n  swap1\n  pop\n    /* \"#utility.yul\":1406:1772   */\n  swap2\n  swap1\n  pop\n  jump\t// out\n    /* \"#utility.yul\":1778:2197   */\ntag_11:\n    /* \"#utility.yul\":1944:1948   */\n  0x00\n    /* \"#utility.yul\":1982:1984   */\n  0x20\n    /* \"#utility.yul\":1971:1980   */\n  dup3\n    /* \"#utility.yul\":1967:1985   */\n  add\n    /* \"#utility.yul\":1959:1985   */\n  swap1\n  pop\n    /* \"#utility.yul\":2031:2040   */\n  dup2\n    /* \"#utility.yul\":2025:2029   */\n  dup2\n    /* \"#utility.yul\":2021:2041   */\n  sub\n    /* \"#utility.yul\":2017:2018   */\n  0x00\n    /* \"#utility.yul\":2006:2015   */\n  dup4\n    /* \"#utility.yul\":2002:2019   */\n  add\n    /* \"#utility.yul\":1995:2042   */\n  mstore\n    /* \"#utility.yul\":2059:2190   */\n  tag_55\n    /* \"#utility.yul\":2185:2189   */\n  dup2\n    /* \"#utility.yul\":2059:2190   */\n  tag_32\n  jump\t// in\ntag_55:\n    /* \"#utility.yul\":2051:2190   */\n  swap1\n  pop\n    /* \"#utility.yul\":1778:2197   */\n  swap2\n  swap1\n  pop\n  jump\t// out\n    /* \"#utility.yul\":2203:2376   */\ntag_33:\n    /* \"#utility.yul\":2343:2368   */\n  0x43616e6e6f74207472616e7366657220746f2073656c66000000000000000000\n    /* \"#utility.yul\":2339:2340   */\n  0x00\n    /* \"#utility.yul\":2331:2337   */\n  dup3\n    /* \"#utility.yul\":2327:2341   */\n  add\n    /* \"#utility.yul\":2320:2369   */\n  mstore\n    /* \"#utility.yul\":2203:2376   */\n  pop\n  jump\t// out\n    /* \"#utility.yul\":2382:2748   */\ntag_34:\n    /* \"#utility.yul\":2524:2527   */\n  0x00\n    /* \"#utility.yul\":2545:2612   */\n  tag_58\n    /* \"#utility.yul\":2609:2611   */\n  0x17\n    /* \"#utility.yul\":2604:2607   */\n  dup4\n    /* \"#utility.yul\":2545:2612   */\n  tag_30\n  jump\t// in\ntag_58:\n    /* \"#utility.yul\":2538:2612   */\n  swap2\n  pop\n    /* \"#utility.yul\":2621:2714   */\n  tag_59\n    /* \"#utility.yul\":2710:2713   */\n  dup3\n    /* \"#utility.yul\":2621:2714   */\n  tag_33\n  jump\t// in\ntag_59:\n    /* \"#utility.yul\":2739:2741   */\n  0x20\n    /* \"#utility.yul\":2734:2737   */\n  dup3\n    /* \"#utility.yul\":2730:2742   */\n  add\n    /* \"#utility.yul\":2723:2742   */\n  swap1\n  pop\n    /* \"#utility.yul\":2382:2748   */\n  swap2\n  swap1\n  pop\n  jump\t// out\n    /* \"#utility.yul\":2754:3173   */\ntag_23:\n    /* \"#utility.yul\":2920:2924   */\n  0x00\n    /* \"#utility.yul\":2958:2960   */\n  0x20\n    /* \"#utility.yul\":2947:2956   */\n  dup3\n    /* \"#utility.yul\":2943:2961   */\n  add\n    /* \"#utility.yul\":2935:2961   */\n  swap1\n  pop\n    /* \"#utility.yul\":3007:3016   */\n  dup2\n    /* \"#utility.yul\":3001:3005   */\n  dup2\n    /* \"#utility.yul\":2997:3017   */\n  sub\n    /* \"#utility.yul\":2993:2994   */\n  0x00\n    /* \"#utility.yul\":2982:2991   */\n  dup4\n    /* \"#utility.yul\":2978:2995   */\n  add\n    /* \"#utility.yul\":2971:3018   */\n  mstore\n    /* \"#utility.yul\":3035:3166   */\n  tag_61\n    /* \"#utility.yul\":3161:3165   */\n  dup2\n    /* \"#utility.yul\":3035:3166   */\n  tag_34\n  jump\t// in\ntag_61:\n    /* \"#utility.yul\":3027:3166   */\n  swap1\n  pop\n    /* \"#utility.yul\":2754:3173   */\n  swap2\n  swap1\n  pop\n  jump\t// out\n    /* \"src/LotBoxVRF.sol\":364:4448  contract LootBoxVRF is VRFConsumerBaseV2Plus{... */\ntag_19:\n  dataSize(sub_0)\n  dup1\n  dataOffset(sub_0)\n  0x00\n  codecopy\n  0x00\n  return\nstop\n\nsub_0: assembly {\n        /* \"src/LotBoxVRF.sol\":364:4448  contract LootBoxVRF is VRFConsumerBaseV2Plus{... */\n      mstore(0x40, 0x80)\n      jumpi(tag_1, lt(calldatasize, 0x04))\n      shr(0xe0, calldataload(0x00))\n      dup1\n      0x8da5cb5b\n      gt\n      tag_16\n      jumpi\n      dup1\n      0xb0fb162f\n      gt\n      tag_17\n      jumpi\n      dup1\n      0xb0fb162f\n      eq\n      tag_12\n      jumpi\n      dup1\n      0xd8a54360\n      eq\n      tag_13\n      jumpi\n      dup1\n      0xe0c86289\n      eq\n      tag_14\n      jumpi\n      dup1\n      0xf2fde38b\n      eq\n      tag_15\n      jumpi\n      jump(tag_1)\n    tag_17:\n      dup1\n      0x8da5cb5b\n      eq\n      tag_9\n      jumpi\n      dup1\n      0x8ea98117\n      eq\n      tag_10\n      jumpi\n      dup1\n      0x9eccacf6\n      eq\n      tag_11\n      jumpi\n      jump(tag_1)\n    tag_16:\n      dup1\n      0x479507bb\n      gt\n      tag_18\n      jumpi\n      dup1\n      0x479507bb\n      eq\n      tag_5\n      jumpi\n      dup1\n      0x79ba5097\n      eq\n      tag_6\n      jumpi\n      dup1\n      0x7ccfd7fc\n      eq\n      tag_7\n      jumpi\n      dup1\n      0x817dbe9f\n      eq\n      tag_8\n      jumpi\n      jump(tag_1)\n    tag_18:\n      dup1\n      0x0b0c1493\n      eq\n      tag_2\n      jumpi\n      dup1\n      0x1fe543e3\n      eq\n      tag_3\n      jumpi\n      dup1\n      0x24f74697\n      eq\n      tag_4\n      jumpi\n    tag_1:\n      revert(0x00, 0x00)\n        /* \"src/LotBoxVRF.sol\":1520:1555  mapping(uint256 => Ask) public asks */\n    tag_2:\n      callvalue\n      dup1\n      iszero\n      tag_19\n      jumpi\n      revert(0x00, 0x00)\n    tag_19:\n      pop\n      tag_20\n      0x04\n      dup1\n      calldatasize\n      sub\n      dup2\n      add\n      swap1\n      tag_21\n      swap2\n      swap1\n      tag_22\n      jump\t// in\n    tag_21:\n      tag_23\n      jump\t// in\n    tag_20:\n      mload(0x40)\n      tag_24\n      swap4\n      swap3\n      swap2\n      swap1\n      tag_25\n      jump\t// in\n    tag_24:\n      mload(0x40)\n      dup1\n      swap2\n      sub\n      swap1\n      return\n        /* \"lib/chainlink-brownie-contracts/contracts/src/v0.8/vrf/dev/VRFConsumerBaseV2Plus.sol\":7489:7769  function rawFulfillRandomWords(uint256 requestId, uint256[] calldata randomWords) external {... */\n    tag_3:\n      callvalue\n      dup1\n      iszero\n      tag_26\n      jumpi\n      revert(0x00, 0x00)\n    tag_26:\n      pop\n      tag_27\n      0x04\n      dup1\n      calldatasize\n      sub\n      dup2\n      add\n      swap1\n      tag_28\n      swap2\n      swap1\n      tag_29\n      jump\t// in\n    tag_28:\n      tag_30\n      jump\t// in\n    tag_27:\n      stop\n        /* \"src/LotBoxVRF.sol\":753:793  uint32 public  callbackGasLimit = 200000 */\n    tag_4:\n      callvalue\n      dup1\n      iszero\n      tag_31\n      jumpi\n      revert(0x00, 0x00)\n    tag_31:\n      pop\n      tag_32\n      tag_33\n      jump\t// in\n    tag_32:\n      mload(0x40)\n      tag_34\n      swap2\n      swap1\n      tag_35\n      jump\t// in\n    tag_34:\n      mload(0x40)\n      dup1\n      swap2\n      sub\n      swap1\n      return\n        /* \"src/LotBoxVRF.sol\":2677:3124  function buyBox() external payable returns(uint256 requestId){... */\n    tag_5:\n      tag_36\n      tag_37\n      jump\t// in\n    tag_36:\n      mload(0x40)\n      tag_38\n      swap2\n      swap1\n      tag_39\n      jump\t// in\n    tag_38:\n      mload(0x40)\n      dup1\n      swap2\n      sub\n      swap1\n      return\n        /* \"lib/chainlink-brownie-contracts/contracts/src/v0.8/shared/access/ConfirmedOwnerWithProposal.sol\":1026:1342  function acceptOwnership() external override {... */\n    tag_6:\n      callvalue\n      dup1\n      iszero\n      tag_40\n      jumpi\n      revert(0x00, 0x00)\n    tag_40:\n      pop\n      tag_41\n      tag_42\n      jump\t// in\n    tag_41:\n      stop\n        /* \"src/LotBoxVRF.sol\":877:903  uint32 public numWords = 1 */\n    tag_7:\n      callvalue\n      dup1\n      iszero\n      tag_43\n      jumpi\n      revert(0x00, 0x00)\n    tag_43:\n      pop\n      tag_44\n      tag_45\n      jump\t// in\n    tag_44:\n      mload(0x40)\n      tag_46\n      swap2\n      swap1\n      tag_35\n      jump\t// in\n    tag_46:\n      mload(0x40)\n      dup1\n      swap2\n      sub\n      swap1\n      return\n        /* \"src/LotBoxVRF.sol\":1216:1238  Class[] public classes */\n    tag_8:\n      callvalue\n      dup1\n      iszero\n      tag_47\n      jumpi\n      revert(0x00, 0x00)\n    tag_47:\n      pop\n      tag_48\n      0x04\n      dup1\n      calldatasize\n      sub\n      dup2\n      add\n      swap1\n      tag_49\n      swap2\n      swap1\n      tag_22\n      jump\t// in\n    tag_49:\n      tag_50\n      jump\t// in\n    tag_48:\n      mload(0x40)\n      tag_51\n      swap2\n      swap1\n      tag_39\n      jump\t// in\n    tag_51:\n      mload(0x40)\n      dup1\n      swap2\n      sub\n      swap1\n      return\n        /* \"lib/chainlink-brownie-contracts/contracts/src/v0.8/shared/access/ConfirmedOwnerWithProposal.sol\":1382:1463  function owner() public view override returns (address) {... */\n    tag_9:\n      callvalue\n      dup1\n      iszero\n      tag_52\n      jumpi\n      revert(0x00, 0x00)\n    tag_52:\n      pop\n      tag_53\n      tag_54\n      jump\t// in\n    tag_53:\n      mload(0x40)\n      tag_55\n      swap2\n      swap1\n      tag_56\n      jump\t// in\n    tag_55:\n      mload(0x40)\n      dup1\n      swap2\n      sub\n      swap1\n      return\n        /* \"lib/chainlink-brownie-contracts/contracts/src/v0.8/vrf/dev/VRFConsumerBaseV2Plus.sol\":7831:8107  function setCoordinator(address _vrfCoordinator) external override onlyOwnerOrCoordinator {... */\n    tag_10:\n      callvalue\n      dup1\n      iszero\n      tag_57\n      jumpi\n      revert(0x00, 0x00)\n    tag_57:\n      pop\n      tag_58\n      0x04\n      dup1\n      calldatasize\n      sub\n      dup2\n      add\n      swap1\n      tag_59\n      swap2\n      swap1\n      tag_60\n      jump\t// in\n    tag_59:\n      tag_61\n      jump\t// in\n    tag_58:\n      stop\n        /* \"lib/chainlink-brownie-contracts/contracts/src/v0.8/vrf/dev/VRFConsumerBaseV2Plus.sol\":6077:6122  IVRFCoordinatorV2Plus public s_vrfCoordinator */\n    tag_11:\n      callvalue\n      dup1\n      iszero\n      tag_62\n      jumpi\n      revert(0x00, 0x00)\n    tag_62:\n      pop\n      tag_63\n      tag_64\n      jump\t// in\n    tag_63:\n      mload(0x40)\n      tag_65\n      swap2\n      swap1\n      tag_66\n      jump\t// in\n    tag_65:\n      mload(0x40)\n      dup1\n      swap2\n      sub\n      swap1\n      return\n        /* \"src/LotBoxVRF.sol\":832:870  uint16 public requestConfirmations = 3 */\n    tag_12:\n      callvalue\n      dup1\n      iszero\n      tag_67\n      jumpi\n      revert(0x00, 0x00)\n    tag_67:\n      pop\n      tag_68\n      tag_69\n      jump\t// in\n    tag_68:\n      mload(0x40)\n      tag_70\n      swap2\n      swap1\n      tag_71\n      jump\t// in\n    tag_70:\n      mload(0x40)\n      dup1\n      swap2\n      sub\n      swap1\n      return\n        /* \"src/LotBoxVRF.sol\":1259:1287  uint32 public totalRemaining */\n    tag_13:\n      callvalue\n      dup1\n      iszero\n      tag_72\n      jumpi\n      revert(0x00, 0x00)\n    tag_72:\n      pop\n      tag_73\n      tag_74\n      jump\t// in\n    tag_73:\n      mload(0x40)\n      tag_75\n      swap2\n      swap1\n      tag_35\n      jump\t// in\n    tag_75:\n      mload(0x40)\n      dup1\n      swap2\n      sub\n      swap1\n      return\n        /* \"src/LotBoxVRF.sol\":2055:2614  function requestRandomWords() public returns(uint256){... */\n    tag_14:\n      callvalue\n      dup1\n      iszero\n      tag_76\n      jumpi\n      revert(0x00, 0x00)\n    tag_76:\n      pop\n      tag_77\n      tag_78\n      jump\t// in\n    tag_77:\n      mload(0x40)\n      tag_79\n      swap2\n      swap1\n      tag_39\n      jump\t// in\n    tag_79:\n      mload(0x40)\n      dup1\n      swap2\n      sub\n      swap1\n      return\n        /* \"lib/chainlink-brownie-contracts/contracts/src/v0.8/shared/access/ConfirmedOwnerWithProposal.sol\":847:945  function transferOwnership(address to) public override onlyOwner {... */\n    tag_15:\n      callvalue\n      dup1\n      iszero\n      tag_80\n      jumpi\n      revert(0x00, 0x00)\n    tag_80:\n      pop\n      tag_81\n      0x04\n      dup1\n      calldatasize\n      sub\n      dup2\n      add\n      swap1\n      tag_82\n      swap2\n      swap1\n      tag_60\n      jump\t// in\n    tag_82:\n      tag_83\n      jump\t// in\n    tag_81:\n      stop\n        /* \"src/LotBoxVRF.sol\":1520:1555  mapping(uint256 => Ask) public asks */\n    tag_23:\n      mstore(0x20, 0x0a)\n      dup1\n      0x00\n      mstore\n      keccak256(0x00, 0x40)\n      0x00\n      swap2\n      pop\n      swap1\n      pop\n      dup1\n      0x00\n      add\n      0x00\n      swap1\n      sload\n      swap1\n      0x0100\n      exp\n      swap1\n      div\n      0xff\n      and\n      swap1\n      dup1\n      0x00\n      add\n      0x01\n      swap1\n      sload\n      swap1\n      0x0100\n      exp\n      swap1\n      div\n      0xffffffffffffffffffffffffffffffffffffffff\n      and\n      swap1\n      dup1\n      0x01\n      add\n      sload\n      swap1\n      pop\n      dup4\n      jump\t// out\n        /* \"lib/chainlink-brownie-contracts/contracts/src/v0.8/vrf/dev/VRFConsumerBaseV2Plus.sol\":7489:7769  function rawFulfillRandomWords(uint256 requestId, uint256[] calldata randomWords) external {... */\n    tag_30:\n        /* \"lib/chainlink-brownie-contracts/contracts/src/v0.8/vrf/dev/VRFConsumerBaseV2Plus.sol\":7612:7628  s_vrfCoordinator */\n      0x02\n      0x00\n      swap1\n      sload\n      swap1\n      0x0100\n      exp\n      swap1\n      div\n      0xffffffffffffffffffffffffffffffffffffffff\n      and\n        /* \"lib/chainlink-brownie-contracts/contracts/src/v0.8/vrf/dev/VRFConsumerBaseV2Plus.sol\":7590:7629  msg.sender != address(s_vrfCoordinator) */\n      0xffffffffffffffffffffffffffffffffffffffff\n      and\n        /* \"lib/chainlink-brownie-contracts/contracts/src/v0.8/vrf/dev/VRFConsumerBaseV2Plus.sol\":7590:7600  msg.sender */\n      caller\n        /* \"lib/chainlink-brownie-contracts/contracts/src/v0.8/vrf/dev/VRFConsumerBaseV2Plus.sol\":7590:7629  msg.sender != address(s_vrfCoordinator) */\n      0xffffffffffffffffffffffffffffffffffffffff\n      and\n      eq\n        /* \"lib/chainlink-brownie-contracts/contracts/src/v0.8/vrf/dev/VRFConsumerBaseV2Plus.sol\":7586:7717  if (msg.sender != address(s_vrfCoordinator)) {... */\n      tag_85\n      jumpi\n        /* \"lib/chainlink-brownie-contracts/contracts/src/v0.8/vrf/dev/VRFConsumerBaseV2Plus.sol\":7672:7682  msg.sender */\n      caller\n        /* \"lib/chainlink-brownie-contracts/contracts/src/v0.8/vrf/dev/VRFConsumerBaseV2Plus.sol\":7692:7708  s_vrfCoordinator */\n      0x02\n      0x00\n      swap1\n      sload\n      swap1\n      0x0100\n      exp\n      swap1\n      div\n      0xffffffffffffffffffffffffffffffffffffffff\n      and\n        /* \"lib/chainlink-brownie-contracts/contracts/src/v0.8/vrf/dev/VRFConsumerBaseV2Plus.sol\":7646:7710  OnlyCoordinatorCanFulfill(msg.sender, address(s_vrfCoordinator)) */\n      mload(0x40)\n      0x1cf993f400000000000000000000000000000000000000000000000000000000\n      dup2\n      mstore\n      0x04\n      add\n      tag_86\n      swap3\n      swap2\n      swap1\n      tag_87\n      jump\t// in\n    tag_86:\n      mload(0x40)\n      dup1\n      swap2\n      sub\n      swap1\n      revert\n        /* \"lib/chainlink-brownie-contracts/contracts/src/v0.8/vrf/dev/VRFConsumerBaseV2Plus.sol\":7586:7717  if (msg.sender != address(s_vrfCoordinator)) {... */\n    tag_85:\n        /* \"lib/chainlink-brownie-contracts/contracts/src/v0.8/vrf/dev/VRFConsumerBaseV2Plus.sol\":7722:7764  fulfillRandomWords(requestId, randomWords) */\n      tag_88\n        /* \"lib/chainlink-brownie-contracts/contracts/src/v0.8/vrf/dev/VRFConsumerBaseV2Plus.sol\":7741:7750  requestId */\n      dup4\n        /* \"lib/chainlink-brownie-contracts/contracts/src/v0.8/vrf/dev/VRFConsumerBaseV2Plus.sol\":7752:7763  randomWords */\n      dup4\n      dup4\n        /* \"lib/chainlink-brownie-contracts/contracts/src/v0.8/vrf/dev/VRFConsumerBaseV2Plus.sol\":7722:7740  fulfillRandomWords */\n      tag_89\n        /* \"lib/chainlink-brownie-contracts/contracts/src/v0.8/vrf/dev/VRFConsumerBaseV2Plus.sol\":7722:7764  fulfillRandomWords(requestId, randomWords) */\n      jump\t// in\n    tag_88:\n        /* \"lib/chainlink-brownie-contracts/contracts/src/v0.8/vrf/dev/VRFConsumerBaseV2Plus.sol\":7489:7769  function rawFulfillRandomWords(uint256 requestId, uint256[] calldata randomWords) external {... */\n      pop\n      pop\n      pop\n      jump\t// out\n        /* \"src/LotBoxVRF.sol\":753:793  uint32 public  callbackGasLimit = 200000 */\n    tag_33:\n      0x07\n      0x00\n      swap1\n      sload\n      swap1\n      0x0100\n      exp\n      swap1\n      div\n      0xffffffff\n      and\n      dup2\n      jump\t// out\n        /* \"src/LotBoxVRF.sol\":2677:3124  function buyBox() external payable returns(uint256 requestId){... */\n    tag_37:\n        /* \"src/LotBoxVRF.sol\":2720:2737  uint256 requestId */\n      0x00\n        /* \"src/LotBoxVRF.sol\":2894:2914  requestRandomWords() */\n      tag_91\n        /* \"src/LotBoxVRF.sol\":2894:2912  requestRandomWords */\n      tag_78\n        /* \"src/LotBoxVRF.sol\":2894:2914  requestRandomWords() */\n      jump\t// in\n    tag_91:\n        /* \"src/LotBoxVRF.sol\":2882:2914  requestId = requestRandomWords() */\n      swap1\n      pop\n        /* \"src/LotBoxVRF.sol\":2942:3066  Ask({... */\n      mload(0x40)\n      dup1\n      0x60\n      add\n      0x40\n      mstore\n      dup1\n        /* \"src/LotBoxVRF.sol\":2968:2984  Status.Requested */\n      0x01\n        /* \"src/LotBoxVRF.sol\":2942:3066  Ask({... */\n      0x02\n      dup2\n      gt\n      iszero\n      tag_92\n      jumpi\n      tag_93\n      tag_94\n      jump\t// in\n    tag_93:\n    tag_92:\n      dup2\n      mstore\n      0x20\n      add\n        /* \"src/LotBoxVRF.sol\":3005:3015  msg.sender */\n      caller\n        /* \"src/LotBoxVRF.sol\":2942:3066  Ask({... */\n      0xffffffffffffffffffffffffffffffffffffffff\n      and\n      dup2\n      mstore\n      0x20\n      add\n        /* \"src/LotBoxVRF.sol\":3042:3043  0 */\n      0x00\n        /* \"src/LotBoxVRF.sol\":2942:3066  Ask({... */\n      dup2\n      mstore\n      pop\n        /* \"src/LotBoxVRF.sol\":2924:2928  asks */\n      0x0a\n        /* \"src/LotBoxVRF.sol\":2924:2939  asks[requestId] */\n      0x00\n        /* \"src/LotBoxVRF.sol\":2929:2938  requestId */\n      dup4\n        /* \"src/LotBoxVRF.sol\":2924:2939  asks[requestId] */\n      dup2\n      mstore\n      0x20\n      add\n      swap1\n      dup2\n      mstore\n      0x20\n      add\n      0x00\n      keccak256\n        /* \"src/LotBoxVRF.sol\":2924:3066  asks[requestId] = Ask({... */\n      0x00\n      dup3\n      add\n      mload\n      dup2\n      0x00\n      add\n      exp(0x0100, 0x00)\n      dup2\n      sload\n      dup2\n      0xff\n      mul\n      not\n      and\n      swap1\n      dup4\n      0x02\n      dup2\n      gt\n      iszero\n      tag_95\n      jumpi\n      tag_96\n      tag_94\n      jump\t// in\n    tag_96:\n    tag_95:\n      mul\n      or\n      swap1\n      sstore\n      pop\n      0x20\n      dup3\n      add\n      mload\n      dup2\n      0x00\n      add\n      exp(0x0100, 0x01)\n      dup2\n      sload\n      dup2\n      0xffffffffffffffffffffffffffffffffffffffff\n      mul\n      not\n      and\n      swap1\n      dup4\n      0xffffffffffffffffffffffffffffffffffffffff\n      and\n      mul\n      or\n      swap1\n      sstore\n      pop\n      0x40\n      dup3\n      add\n      mload\n      dup2\n      0x01\n      add\n      sstore\n      swap1\n      pop\n      pop\n        /* \"src/LotBoxVRF.sol\":3106:3115  requestId */\n      dup1\n        /* \"src/LotBoxVRF.sol\":3095:3105  msg.sender */\n      caller\n        /* \"src/LotBoxVRF.sol\":3082:3116  BoxPurchased(msg.sender,requestId) */\n      0xffffffffffffffffffffffffffffffffffffffff\n      and\n      0x829b852df67cbb2db43aef2060c62af61832e9d4265448bf45e21999445b38f8\n      mload(0x40)\n      mload(0x40)\n      dup1\n      swap2\n      sub\n      swap1\n      log3\n        /* \"src/LotBoxVRF.sol\":2677:3124  function buyBox() external payable returns(uint256 requestId){... */\n      swap1\n      jump\t// out\n        /* \"lib/chainlink-brownie-contracts/contracts/src/v0.8/shared/access/ConfirmedOwnerWithProposal.sol\":1026:1342  function acceptOwnership() external override {... */\n    tag_42:\n        /* \"lib/chainlink-brownie-contracts/contracts/src/v0.8/shared/access/ConfirmedOwnerWithProposal.sol\":1150:1164  s_pendingOwner */\n      0x01\n      0x00\n      swap1\n      sload\n      swap1\n      0x0100\n      exp\n      swap1\n      div\n      0xffffffffffffffffffffffffffffffffffffffff\n      and\n        /* \"lib/chainlink-brownie-contracts/contracts/src/v0.8/shared/access/ConfirmedOwnerWithProposal.sol\":1136:1164  msg.sender == s_pendingOwner */\n      0xffffffffffffffffffffffffffffffffffffffff\n      and\n        /* \"lib/chainlink-brownie-contracts/contracts/src/v0.8/shared/access/ConfirmedOwnerWithProposal.sol\":1136:1146  msg.sender */\n      caller\n        /* \"lib/chainlink-brownie-contracts/contracts/src/v0.8/shared/access/ConfirmedOwnerWithProposal.sol\":1136:1164  msg.sender == s_pendingOwner */\n      0xffffffffffffffffffffffffffffffffffffffff\n      and\n      eq\n        /* \"lib/chainlink-brownie-contracts/contracts/src/v0.8/shared/access/ConfirmedOwnerWithProposal.sol\":1128:1191  require(msg.sender == s_pendingOwner, \"Must be proposed owner\") */\n      tag_98\n      jumpi\n      mload(0x40)\n      0x08c379a000000000000000000000000000000000000000000000000000000000\n      dup2\n      mstore\n      0x04\n      add\n      tag_99\n      swap1\n      tag_100\n      jump\t// in\n    tag_99:\n      mload(0x40)\n      dup1\n      swap2\n      sub\n      swap1\n      revert\n    tag_98:\n        /* \"lib/chainlink-brownie-contracts/contracts/src/v0.8/shared/access/ConfirmedOwnerWithProposal.sol\":1198:1214  address oldOwner */\n      0x00\n        /* \"lib/chainlink-brownie-contracts/contracts/src/v0.8/shared/access/ConfirmedOwnerWithProposal.sol\":1217:1224  s_owner */\n      0x00\n      0x00\n      swap1\n      sload\n      swap1\n      0x0100\n      exp\n      swap1\n      div\n      0xffffffffffffffffffffffffffffffffffffffff\n      and\n        /* \"lib/chainlink-brownie-contracts/contracts/src/v0.8/shared/access/ConfirmedOwnerWithProposal.sol\":1198:1224  address oldOwner = s_owner */\n      swap1\n      pop\n        /* \"lib/chainlink-brownie-contracts/contracts/src/v0.8/shared/access/ConfirmedOwnerWithProposal.sol\":1240:1250  msg.sender */\n      caller\n        /* \"lib/chainlink-brownie-contracts/contracts/src/v0.8/shared/access/ConfirmedOwnerWithProposal.sol\":1230:1237  s_owner */\n      0x00\n      0x00\n        /* \"lib/chainlink-brownie-contracts/contracts/src/v0.8/shared/access/ConfirmedOwnerWithProposal.sol\":1230:1250  s_owner = msg.sender */\n      0x0100\n      exp\n      dup2\n      sload\n      dup2\n      0xffffffffffffffffffffffffffffffffffffffff\n      mul\n      not\n      and\n      swap1\n      dup4\n      0xffffffffffffffffffffffffffffffffffffffff\n      and\n      mul\n      or\n      swap1\n      sstore\n      pop\n        /* \"lib/chainlink-brownie-contracts/contracts/src/v0.8/shared/access/ConfirmedOwnerWithProposal.sol\":1281:1282  0 */\n      0x00\n        /* \"lib/chainlink-brownie-contracts/contracts/src/v0.8/shared/access/ConfirmedOwnerWithProposal.sol\":1256:1270  s_pendingOwner */\n      0x01\n      0x00\n        /* \"lib/chainlink-brownie-contracts/contracts/src/v0.8/shared/access/ConfirmedOwnerWithProposal.sol\":1256:1283  s_pendingOwner = address(0) */\n      0x0100\n      exp\n      dup2\n      sload\n      dup2\n      0xffffffffffffffffffffffffffffffffffffffff\n      mul\n      not\n      and\n      swap1\n      dup4\n      0xffffffffffffffffffffffffffffffffffffffff\n      and\n      mul\n      or\n      swap1\n      sstore\n      pop\n        /* \"lib/chainlink-brownie-contracts/contracts/src/v0.8/shared/access/ConfirmedOwnerWithProposal.sol\":1326:1336  msg.sender */\n      caller\n        /* \"lib/chainlink-brownie-contracts/contracts/src/v0.8/shared/access/ConfirmedOwnerWithProposal.sol\":1295:1337  OwnershipTransferred(oldOwner, msg.sender) */\n      0xffffffffffffffffffffffffffffffffffffffff\n      and\n        /* \"lib/chainlink-brownie-contracts/contracts/src/v0.8/shared/access/ConfirmedOwnerWithProposal.sol\":1316:1324  oldOwner */\n      dup2\n        /* \"lib/chainlink-brownie-contracts/contracts/src/v0.8/shared/access/ConfirmedOwnerWithProposal.sol\":1295:1337  OwnershipTransferred(oldOwner, msg.sender) */\n      0xffffffffffffffffffffffffffffffffffffffff\n      and\n      0x8be0079c531659141344cd1fd0a4f28419497f9722a3daafe3b4186f6b6457e0\n      mload(0x40)\n      mload(0x40)\n      dup1\n      swap2\n      sub\n      swap1\n      log3\n        /* \"lib/chainlink-brownie-contracts/contracts/src/v0.8/shared/access/ConfirmedOwnerWithProposal.sol\":1071:1342  {... */\n      pop\n        /* \"lib/chainlink-brownie-contracts/contracts/src/v0.8/shared/access/ConfirmedOwnerWithProposal.sol\":1026:1342  function acceptOwnership() external override {... */\n      jump\t// out\n        /* \"src/LotBoxVRF.sol\":877:903  uint32 public numWords = 1 */\n    tag_45:\n      0x07\n      0x06\n      swap1\n      sload\n      swap1\n      0x0100\n      exp\n      swap1\n      div\n      0xffffffff\n      and\n      dup2\n      jump\t// out\n        /* \"src/LotBoxVRF.sol\":1216:1238  Class[] public classes */\n    tag_50:\n      0x08\n      dup2\n      dup2\n      sload\n      dup2\n      lt\n      tag_101\n      jumpi\n      0x00\n      dup1\n      revert\n    tag_101:\n      swap1\n      0x00\n      mstore\n      keccak256(0x00, 0x20)\n      swap1\n      0x03\n      mul\n      add\n      0x00\n      swap2\n      pop\n      swap1\n      pop\n      dup1\n      0x02\n      add\n      sload\n      swap1\n      pop\n      dup2\n      jump\t// out\n        /* \"lib/chainlink-brownie-contracts/contracts/src/v0.8/shared/access/ConfirmedOwnerWithProposal.sol\":1382:1463  function owner() public view override returns (address) {... */\n    tag_54:\n        /* \"lib/chainlink-brownie-contracts/contracts/src/v0.8/shared/access/ConfirmedOwnerWithProposal.sol\":1429:1436  address */\n      0x00\n        /* \"lib/chainlink-brownie-contracts/contracts/src/v0.8/shared/access/ConfirmedOwnerWithProposal.sol\":1451:1458  s_owner */\n      0x00\n      0x00\n      swap1\n      sload\n      swap1\n      0x0100\n      exp\n      swap1\n      div\n      0xffffffffffffffffffffffffffffffffffffffff\n      and\n        /* \"lib/chainlink-brownie-contracts/contracts/src/v0.8/shared/access/ConfirmedOwnerWithProposal.sol\":1444:1458  return s_owner */\n      swap1\n      pop\n        /* \"lib/chainlink-brownie-contracts/contracts/src/v0.8/shared/access/ConfirmedOwnerWithProposal.sol\":1382:1463  function owner() public view override returns (address) {... */\n      swap1\n      jump\t// out\n        /* \"lib/chainlink-brownie-contracts/contracts/src/v0.8/vrf/dev/VRFConsumerBaseV2Plus.sol\":7831:8107  function setCoordinator(address _vrfCoordinator) external override onlyOwnerOrCoordinator {... */\n    tag_61:\n        /* \"lib/chainlink-brownie-contracts/contracts/src/v0.8/vrf/dev/VRFConsumerBaseV2Plus.sol\":8169:8176  owner() */\n      tag_105\n        /* \"lib/chainlink-brownie-contracts/contracts/src/v0.8/vrf/dev/VRFConsumerBaseV2Plus.sol\":8169:8174  owner */\n      tag_54\n        /* \"lib/chainlink-brownie-contracts/contracts/src/v0.8/vrf/dev/VRFConsumerBaseV2Plus.sol\":8169:8176  owner() */\n      jump\t// in\n    tag_105:\n        /* \"lib/chainlink-brownie-contracts/contracts/src/v0.8/vrf/dev/VRFConsumerBaseV2Plus.sol\":8155:8176  msg.sender != owner() */\n      0xffffffffffffffffffffffffffffffffffffffff\n      and\n        /* \"lib/chainlink-brownie-contracts/contracts/src/v0.8/vrf/dev/VRFConsumerBaseV2Plus.sol\":8155:8165  msg.sender */\n      caller\n        /* \"lib/chainlink-brownie-contracts/contracts/src/v0.8/vrf/dev/VRFConsumerBaseV2Plus.sol\":8155:8176  msg.sender != owner() */\n      0xffffffffffffffffffffffffffffffffffffffff\n      and\n      eq\n      iszero\n        /* \"lib/chainlink-brownie-contracts/contracts/src/v0.8/vrf/dev/VRFConsumerBaseV2Plus.sol\":8155:8219  msg.sender != owner() && msg.sender != address(s_vrfCoordinator) */\n      dup1\n      iszero\n      tag_106\n      jumpi\n      pop\n        /* \"lib/chainlink-brownie-contracts/contracts/src/v0.8/vrf/dev/VRFConsumerBaseV2Plus.sol\":8202:8218  s_vrfCoordinator */\n      0x02\n      0x00\n      swap1\n      sload\n      swap1\n      0x0100\n      exp\n      swap1\n      div\n      0xffffffffffffffffffffffffffffffffffffffff\n      and\n        /* \"lib/chainlink-brownie-contracts/contracts/src/v0.8/vrf/dev/VRFConsumerBaseV2Plus.sol\":8180:8219  msg.sender != address(s_vrfCoordinator) */\n      0xffffffffffffffffffffffffffffffffffffffff\n      and\n        /* \"lib/chainlink-brownie-contracts/contracts/src/v0.8/vrf/dev/VRFConsumerBaseV2Plus.sol\":8180:8190  msg.sender */\n      caller\n        /* \"lib/chainlink-brownie-contracts/contracts/src/v0.8/vrf/dev/VRFConsumerBaseV2Plus.sol\":8180:8219  msg.sender != address(s_vrfCoordinator) */\n      0xffffffffffffffffffffffffffffffffffffffff\n      and\n      eq\n      iszero\n        /* \"lib/chainlink-brownie-contracts/contracts/src/v0.8/vrf/dev/VRFConsumerBaseV2Plus.sol\":8155:8219  msg.sender != owner() && msg.sender != address(s_vrfCoordinator) */\n    tag_106:\n        /* \"lib/chainlink-brownie-contracts/contracts/src/v0.8/vrf/dev/VRFConsumerBaseV2Plus.sol\":8151:8313  if (msg.sender != owner() && msg.sender != address(s_vrfCoordinator)) {... */\n      iszero\n      tag_107\n      jumpi\n        /* \"lib/chainlink-brownie-contracts/contracts/src/v0.8/vrf/dev/VRFConsumerBaseV2Plus.sol\":8259:8269  msg.sender */\n      caller\n        /* \"lib/chainlink-brownie-contracts/contracts/src/v0.8/vrf/dev/VRFConsumerBaseV2Plus.sol\":8271:8278  owner() */\n      tag_108\n        /* \"lib/chainlink-brownie-contracts/contracts/src/v0.8/vrf/dev/VRFConsumerBaseV2Plus.sol\":8271:8276  owner */\n      tag_54\n        /* \"lib/chainlink-brownie-contracts/contracts/src/v0.8/vrf/dev/VRFConsumerBaseV2Plus.sol\":8271:8278  owner() */\n      jump\t// in\n    tag_108:\n        /* \"lib/chainlink-brownie-contracts/contracts/src/v0.8/vrf/dev/VRFConsumerBaseV2Plus.sol\":8288:8304  s_vrfCoordinator */\n      0x02\n      0x00\n      swap1\n      sload\n      swap1\n      0x0100\n      exp\n      swap1\n      div\n      0xffffffffffffffffffffffffffffffffffffffff\n      and\n        /* \"lib/chainlink-brownie-contracts/contracts/src/v0.8/vrf/dev/VRFConsumerBaseV2Plus.sol\":8236:8306  OnlyOwnerOrCoordinator(msg.sender, owner(), address(s_vrfCoordinator)) */\n      mload(0x40)\n      0x061db9c100000000000000000000000000000000000000000000000000000000\n      dup2\n      mstore\n      0x04\n      add\n      tag_109\n      swap4\n      swap3\n      swap2\n      swap1\n      tag_110\n      jump\t// in\n    tag_109:\n      mload(0x40)\n      dup1\n      swap2\n      sub\n      swap1\n      revert\n        /* \"lib/chainlink-brownie-contracts/contracts/src/v0.8/vrf/dev/VRFConsumerBaseV2Plus.sol\":8151:8313  if (msg.sender != owner() && msg.sender != address(s_vrfCoordinator)) {... */\n    tag_107:\n        /* \"lib/chainlink-brownie-contracts/contracts/src/v0.8/vrf/dev/VRFConsumerBaseV2Plus.sol\":7958:7959  0 */\n      0x00\n        /* \"lib/chainlink-brownie-contracts/contracts/src/v0.8/vrf/dev/VRFConsumerBaseV2Plus.sol\":7931:7960  _vrfCoordinator == address(0) */\n      0xffffffffffffffffffffffffffffffffffffffff\n      and\n        /* \"lib/chainlink-brownie-contracts/contracts/src/v0.8/vrf/dev/VRFConsumerBaseV2Plus.sol\":7931:7946  _vrfCoordinator */\n      dup2\n        /* \"lib/chainlink-brownie-contracts/contracts/src/v0.8/vrf/dev/VRFConsumerBaseV2Plus.sol\":7931:7960  _vrfCoordinator == address(0) */\n      0xffffffffffffffffffffffffffffffffffffffff\n      and\n      sub\n        /* \"lib/chainlink-brownie-contracts/contracts/src/v0.8/vrf/dev/VRFConsumerBaseV2Plus.sol\":7927:7997  if (_vrfCoordinator == address(0)) {... */\n      tag_112\n      jumpi\n        /* \"lib/chainlink-brownie-contracts/contracts/src/v0.8/vrf/dev/VRFConsumerBaseV2Plus.sol\":7977:7990  ZeroAddress() */\n      mload(0x40)\n      0xd92e233d00000000000000000000000000000000000000000000000000000000\n      dup2\n      mstore\n      0x04\n      add\n      mload(0x40)\n      dup1\n      swap2\n      sub\n      swap1\n      revert\n        /* \"lib/chainlink-brownie-contracts/contracts/src/v0.8/vrf/dev/VRFConsumerBaseV2Plus.sol\":7927:7997  if (_vrfCoordinator == address(0)) {... */\n    tag_112:\n        /* \"lib/chainlink-brownie-contracts/contracts/src/v0.8/vrf/dev/VRFConsumerBaseV2Plus.sol\":8043:8058  _vrfCoordinator */\n      dup1\n        /* \"lib/chainlink-brownie-contracts/contracts/src/v0.8/vrf/dev/VRFConsumerBaseV2Plus.sol\":8002:8018  s_vrfCoordinator */\n      0x02\n      0x00\n        /* \"lib/chainlink-brownie-contracts/contracts/src/v0.8/vrf/dev/VRFConsumerBaseV2Plus.sol\":8002:8059  s_vrfCoordinator = IVRFCoordinatorV2Plus(_vrfCoordinator) */\n      0x0100\n      exp\n      dup2\n      sload\n      dup2\n      0xffffffffffffffffffffffffffffffffffffffff\n      mul\n      not\n      and\n      swap1\n      dup4\n      0xffffffffffffffffffffffffffffffffffffffff\n      and\n      mul\n      or\n      swap1\n      sstore\n      pop\n        /* \"lib/chainlink-brownie-contracts/contracts/src/v0.8/vrf/dev/VRFConsumerBaseV2Plus.sol\":8071:8102  CoordinatorSet(_vrfCoordinator) */\n      0xd1a6a14209a385a964d036e404cb5cfb71f4000cdb03c9366292430787261be6\n        /* \"lib/chainlink-brownie-contracts/contracts/src/v0.8/vrf/dev/VRFConsumerBaseV2Plus.sol\":8086:8101  _vrfCoordinator */\n      dup2\n        /* \"lib/chainlink-brownie-contracts/contracts/src/v0.8/vrf/dev/VRFConsumerBaseV2Plus.sol\":8071:8102  CoordinatorSet(_vrfCoordinator) */\n      mload(0x40)\n      tag_113\n      swap2\n      swap1\n      tag_56\n      jump\t// in\n    tag_113:\n      mload(0x40)\n      dup1\n      swap2\n      sub\n      swap1\n      log1\n        /* \"lib/chainlink-brownie-contracts/contracts/src/v0.8/vrf/dev/VRFConsumerBaseV2Plus.sol\":7831:8107  function setCoordinator(address _vrfCoordinator) external override onlyOwnerOrCoordinator {... */\n      pop\n      jump\t// out\n        /* \"lib/chainlink-brownie-contracts/contracts/src/v0.8/vrf/dev/VRFConsumerBaseV2Plus.sol\":6077:6122  IVRFCoordinatorV2Plus public s_vrfCoordinator */\n    tag_64:\n      0x02\n      0x00\n      swap1\n      sload\n      swap1\n      0x0100\n      exp\n      swap1\n      div\n      0xffffffffffffffffffffffffffffffffffffffff\n      and\n      dup2\n      jump\t// out\n        /* \"src/LotBoxVRF.sol\":832:870  uint16 public requestConfirmations = 3 */\n    tag_69:\n      0x07\n      0x04\n      swap1\n      sload\n      swap1\n      0x0100\n      exp\n      swap1\n      div\n      0xffff\n      and\n      dup2\n      jump\t// out\n        /* \"src/LotBoxVRF.sol\":1259:1287  uint32 public totalRemaining */\n    tag_74:\n      0x09\n      0x00\n      swap1\n      sload\n      swap1\n      0x0100\n      exp\n      swap1\n      div\n      0xffffffff\n      and\n      dup2\n      jump\t// out\n        /* \"src/LotBoxVRF.sol\":2055:2614  function requestRandomWords() public returns(uint256){... */\n    tag_78:\n        /* \"src/LotBoxVRF.sol\":2100:2107  uint256 */\n      0x00\n        /* \"src/LotBoxVRF.sol\":2119:2178  VRFV2PlusClient.RandomWordsRequest memory randomWordRequest */\n      0x00\n        /* \"src/LotBoxVRF.sol\":2181:2447  VRFV2PlusClient.RandomWordsRequest({... */\n      mload(0x40)\n      dup1\n      0xc0\n      add\n      0x40\n      mstore\n      dup1\n        /* \"src/LotBoxVRF.sol\":2239:2246  keyHash */\n      sload(0x05)\n        /* \"src/LotBoxVRF.sol\":2181:2447  VRFV2PlusClient.RandomWordsRequest({... */\n      dup2\n      mstore\n      0x20\n      add\n        /* \"src/LotBoxVRF.sol\":2267:2272  subId */\n      sload(0x06)\n        /* \"src/LotBoxVRF.sol\":2181:2447  VRFV2PlusClient.RandomWordsRequest({... */\n      dup2\n      mstore\n      0x20\n      add\n        /* \"src/LotBoxVRF.sol\":2308:2328  requestConfirmations */\n      0x07\n      0x04\n      swap1\n      sload\n      swap1\n      0x0100\n      exp\n      swap1\n      div\n      0xffff\n      and\n        /* \"src/LotBoxVRF.sol\":2181:2447  VRFV2PlusClient.RandomWordsRequest({... */\n      0xffff\n      and\n      dup2\n      mstore\n      0x20\n      add\n        /* \"src/LotBoxVRF.sol\":2360:2376  callbackGasLimit */\n      0x07\n      0x00\n      swap1\n      sload\n      swap1\n      0x0100\n      exp\n      swap1\n      div\n      0xffffffff\n      and\n        /* \"src/LotBoxVRF.sol\":2181:2447  VRFV2PlusClient.RandomWordsRequest({... */\n      0xffffffff\n      and\n      dup2\n      mstore\n      0x20\n      add\n        /* \"src/LotBoxVRF.sol\":2400:2408  numWords */\n      0x07\n      0x06\n      swap1\n      sload\n      swap1\n      0x0100\n      exp\n      swap1\n      div\n      0xffffffff\n      and\n        /* \"src/LotBoxVRF.sol\":2181:2447  VRFV2PlusClient.RandomWordsRequest({... */\n      0xffffffff\n      and\n      dup2\n      mstore\n      0x20\n      add\n      mload(0x40)\n      dup1\n      0x20\n      add\n      0x40\n      mstore\n      dup1\n      0x00\n      dup2\n      mstore\n      pop\n      dup2\n      mstore\n      pop\n        /* \"src/LotBoxVRF.sol\":2119:2447  VRFV2PlusClient.RandomWordsRequest memory randomWordRequest = VRFV2PlusClient.RandomWordsRequest({... */\n      swap1\n      pop\n        /* \"src/LotBoxVRF.sol\":2458:2475  uint256 requestId */\n      0x00\n        /* \"src/LotBoxVRF.sol\":2478:2489  COORDINATOR */\n      0x03\n      0x00\n      swap1\n      sload\n      swap1\n      0x0100\n      exp\n      swap1\n      div\n      0xffffffffffffffffffffffffffffffffffffffff\n      and\n        /* \"src/LotBoxVRF.sol\":2478:2508  COORDINATOR.requestRandomWords */\n      0xffffffffffffffffffffffffffffffffffffffff\n      and\n      0x9b1c385e\n        /* \"src/LotBoxVRF.sol\":2509:2526  randomWordRequest */\n      dup4\n        /* \"src/LotBoxVRF.sol\":2478:2527  COORDINATOR.requestRandomWords(randomWordRequest) */\n      mload(0x40)\n      dup3\n      0xffffffff\n      and\n      0xe0\n      shl\n      dup2\n      mstore\n      0x04\n      add\n      tag_115\n      swap2\n      swap1\n      tag_116\n      jump\t// in\n    tag_115:\n      0x20\n      mload(0x40)\n      dup1\n      dup4\n      sub\n      dup2\n      0x00\n      dup8\n      gas\n      call\n      iszero\n      dup1\n      iszero\n      tag_118\n      jumpi\n      returndatacopy(0x00, 0x00, returndatasize)\n      revert(0x00, returndatasize)\n    tag_118:\n      pop\n      pop\n      pop\n      pop\n      mload(0x40)\n      returndatasize\n      not(0x1f)\n      0x1f\n      dup3\n      add\n      and\n      dup3\n      add\n      dup1\n      0x40\n      mstore\n      pop\n      dup2\n      add\n      swap1\n      tag_119\n      swap2\n      swap1\n      tag_120\n      jump\t// in\n    tag_119:\n        /* \"src/LotBoxVRF.sol\":2458:2527  uint256 requestId = COORDINATOR.requestRandomWords(randomWordRequest) */\n      swap1\n      pop\n        /* \"src/LotBoxVRF.sol\":2568:2578  msg.sender */\n      caller\n        /* \"src/LotBoxVRF.sol\":2543:2579  RandomsRequest(requestId,msg.sender) */\n      0xffffffffffffffffffffffffffffffffffffffff\n      and\n      0x9d5ec813554188f51cff7ea82cda0c2e6a4006398b558e6d834f0fd6ead830a1\n        /* \"src/LotBoxVRF.sol\":2558:2567  requestId */\n      dup3\n        /* \"src/LotBoxVRF.sol\":2543:2579  RandomsRequest(requestId,msg.sender) */\n      mload(0x40)\n      tag_121\n      swap2\n      swap1\n      tag_39\n      jump\t// in\n    tag_121:\n      mload(0x40)\n      dup1\n      swap2\n      sub\n      swap1\n      log2\n        /* \"src/LotBoxVRF.sol\":2597:2606  requestId */\n      dup1\n        /* \"src/LotBoxVRF.sol\":2590:2606  return requestId */\n      swap3\n      pop\n      pop\n      pop\n        /* \"src/LotBoxVRF.sol\":2055:2614  function requestRandomWords() public returns(uint256){... */\n      swap1\n      jump\t// out\n        /* \"lib/chainlink-brownie-contracts/contracts/src/v0.8/shared/access/ConfirmedOwnerWithProposal.sol\":847:945  function transferOwnership(address to) public override onlyOwner {... */\n    tag_83:\n        /* \"lib/chainlink-brownie-contracts/contracts/src/v0.8/shared/access/ConfirmedOwnerWithProposal.sol\":2075:2095  _validateOwnership() */\n      tag_123\n        /* \"lib/chainlink-brownie-contracts/contracts/src/v0.8/shared/access/ConfirmedOwnerWithProposal.sol\":2075:2093  _validateOwnership */\n      tag_124\n        /* \"lib/chainlink-brownie-contracts/contracts/src/v0.8/shared/access/ConfirmedOwnerWithProposal.sol\":2075:2095  _validateOwnership() */\n      jump\t// in\n    tag_123:\n        /* \"lib/chainlink-brownie-contracts/contracts/src/v0.8/shared/access/ConfirmedOwnerWithProposal.sol\":918:940  _transferOwnership(to) */\n      tag_126\n        /* \"lib/chainlink-brownie-contracts/contracts/src/v0.8/shared/access/ConfirmedOwnerWithProposal.sol\":937:939  to */\n      dup2\n        /* \"lib/chainlink-brownie-contracts/contracts/src/v0.8/shared/access/ConfirmedOwnerWithProposal.sol\":918:936  _transferOwnership */\n      tag_127\n        /* \"lib/chainlink-brownie-contracts/contracts/src/v0.8/shared/access/ConfirmedOwnerWithProposal.sol\":918:940  _transferOwnership(to) */\n      jump\t// in\n    tag_126:\n        /* \"lib/chainlink-brownie-contracts/contracts/src/v0.8/shared/access/ConfirmedOwnerWithProposal.sol\":847:945  function transferOwnership(address to) public override onlyOwner {... */\n      pop\n      jump\t// out\n        /* \"src/LotBoxVRF.sol\":3149:4445  function fulfillRandomWords(uint256 requestId,uint256[] calldata randomWords)internal override{... */\n    tag_89:\n        /* \"src/LotBoxVRF.sol\":3254:3267  Ask storage a */\n      0x00\n        /* \"src/LotBoxVRF.sol\":3270:3274  asks */\n      0x0a\n        /* \"src/LotBoxVRF.sol\":3270:3285  asks[requestId] */\n      0x00\n        /* \"src/LotBoxVRF.sol\":3275:3284  requestId */\n      dup6\n        /* \"src/LotBoxVRF.sol\":3270:3285  asks[requestId] */\n      dup2\n      mstore\n      0x20\n      add\n      swap1\n      dup2\n      mstore\n      0x20\n      add\n      0x00\n      keccak256\n        /* \"src/LotBoxVRF.sol\":3254:3285  Ask storage a = asks[requestId] */\n      swap1\n      pop\n        /* \"src/LotBoxVRF.sol\":3311:3327  Status.Requested */\n      0x01\n        /* \"src/LotBoxVRF.sol\":3299:3327  a.status != Status.Requested */\n      0x02\n      dup2\n      gt\n      iszero\n      tag_129\n      jumpi\n      tag_130\n      tag_94\n      jump\t// in\n    tag_130:\n    tag_129:\n        /* \"src/LotBoxVRF.sol\":3299:3300  a */\n      dup2\n        /* \"src/LotBoxVRF.sol\":3299:3307  a.status */\n      0x00\n      add\n      0x00\n      swap1\n      sload\n      swap1\n      0x0100\n      exp\n      swap1\n      div\n      0xff\n      and\n        /* \"src/LotBoxVRF.sol\":3299:3327  a.status != Status.Requested */\n      0x02\n      dup2\n      gt\n      iszero\n      tag_131\n      jumpi\n      tag_132\n      tag_94\n      jump\t// in\n    tag_132:\n    tag_131:\n      eq\n        /* \"src/LotBoxVRF.sol\":3296:3372  if(a.status != Status.Requested){... */\n      tag_133\n      jumpi\n        /* \"src/LotBoxVRF.sol\":3350:3360  BadStats() */\n      mload(0x40)\n      0x3ae8468300000000000000000000000000000000000000000000000000000000\n      dup2\n      mstore\n      0x04\n      add\n      mload(0x40)\n      dup1\n      swap2\n      sub\n      swap1\n      revert\n        /* \"src/LotBoxVRF.sol\":3296:3372  if(a.status != Status.Requested){... */\n    tag_133:\n        /* \"src/LotBoxVRF.sol\":3424:3435  randomWords */\n      dup3\n      dup3\n        /* \"src/LotBoxVRF.sol\":3436:3437  0 */\n      0x00\n        /* \"src/LotBoxVRF.sol\":3424:3438  randomWords[0] */\n      dup2\n      dup2\n      lt\n      tag_134\n      jumpi\n      tag_135\n      tag_136\n      jump\t// in\n    tag_135:\n    tag_134:\n      swap1\n      pop\n      0x20\n      mul\n      add\n      calldataload\n        /* \"src/LotBoxVRF.sol\":3409:3410  a */\n      dup2\n        /* \"src/LotBoxVRF.sol\":3409:3421  a.randomness */\n      0x01\n      add\n        /* \"src/LotBoxVRF.sol\":3409:3438  a.randomness = randomWords[0] */\n      dup2\n      swap1\n      sstore\n      pop\n        /* \"src/LotBoxVRF.sol\":3449:3458  uint256 r */\n      0x00\n        /* \"src/LotBoxVRF.sol\":3478:3492  totalRemaining */\n      0x09\n      0x00\n      swap1\n      sload\n      swap1\n      0x0100\n      exp\n      swap1\n      div\n      0xffffffff\n      and\n        /* \"src/LotBoxVRF.sol\":3461:3492  randomWords[0] % totalRemaining */\n      0xffffffff\n      and\n        /* \"src/LotBoxVRF.sol\":3461:3472  randomWords */\n      dup5\n      dup5\n        /* \"src/LotBoxVRF.sol\":3473:3474  0 */\n      0x00\n        /* \"src/LotBoxVRF.sol\":3461:3475  randomWords[0] */\n      dup2\n      dup2\n      lt\n      tag_137\n      jumpi\n      tag_138\n      tag_136\n      jump\t// in\n    tag_138:\n    tag_137:\n      swap1\n      pop\n      0x20\n      mul\n      add\n      calldataload\n        /* \"src/LotBoxVRF.sol\":3461:3492  randomWords[0] % totalRemaining */\n      tag_139\n      swap2\n      swap1\n      tag_140\n      jump\t// in\n    tag_139:\n        /* \"src/LotBoxVRF.sol\":3449:3492  uint256 r = randomWords[0] % totalRemaining */\n      swap1\n      pop\n        /* \"src/LotBoxVRF.sol\":3503:3520  uint8 pickedClass */\n      0x00\n        /* \"src/LotBoxVRF.sol\":3531:3542  uint256 acc */\n      0x00\n        /* \"src/LotBoxVRF.sol\":3545:3546  0 */\n      0x00\n        /* \"src/LotBoxVRF.sol\":3531:3546  uint256 acc = 0 */\n      swap1\n      pop\n        /* \"src/LotBoxVRF.sol\":3561:3568  uint8 i */\n      0x00\n        /* \"src/LotBoxVRF.sol\":3569:3570  0 */\n      0x00\n        /* \"src/LotBoxVRF.sol\":3561:3570  uint8 i=0 */\n      swap1\n      pop\n        /* \"src/LotBoxVRF.sol\":3557:3745  for(uint8 i=0;i<classes.length;i++){... */\n    tag_141:\n        /* \"src/LotBoxVRF.sol\":3573:3580  classes */\n      0x08\n        /* \"src/LotBoxVRF.sol\":3573:3587  classes.length */\n      dup1\n      sload\n      swap1\n      pop\n        /* \"src/LotBoxVRF.sol\":3571:3572  i */\n      dup2\n        /* \"src/LotBoxVRF.sol\":3571:3587  i<classes.length */\n      0xff\n      and\n      lt\n        /* \"src/LotBoxVRF.sol\":3557:3745  for(uint8 i=0;i<classes.length;i++){... */\n      iszero\n      tag_142\n      jumpi\n        /* \"src/LotBoxVRF.sol\":3614:3621  classes */\n      0x08\n        /* \"src/LotBoxVRF.sol\":3622:3623  i */\n      dup2\n        /* \"src/LotBoxVRF.sol\":3614:3624  classes[i] */\n      0xff\n      and\n      dup2\n      sload\n      dup2\n      lt\n      tag_144\n      jumpi\n      tag_145\n      tag_136\n      jump\t// in\n    tag_145:\n    tag_144:\n      swap1\n      0x00\n      mstore\n      keccak256(0x00, 0x20)\n      swap1\n      0x03\n      mul\n      add\n        /* \"src/LotBoxVRF.sol\":3614:3634  classes[i].remaining */\n      0x02\n      add\n      sload\n        /* \"src/LotBoxVRF.sol\":3607:3634  acc += classes[i].remaining */\n      dup3\n      tag_147\n      swap2\n      swap1\n      tag_148\n      jump\t// in\n    tag_147:\n      swap2\n      pop\n        /* \"src/LotBoxVRF.sol\":3655:3658  acc */\n      dup2\n        /* \"src/LotBoxVRF.sol\":3653:3654  r */\n      dup5\n        /* \"src/LotBoxVRF.sol\":3653:3658  r<acc */\n      lt\n        /* \"src/LotBoxVRF.sol\":3649:3734  if( r<acc ){... */\n      iszero\n      tag_149\n      jumpi\n        /* \"src/LotBoxVRF.sol\":3693:3694  i */\n      dup1\n        /* \"src/LotBoxVRF.sol\":3679:3694  pickedClass = i */\n      swap3\n      pop\n        /* \"src/LotBoxVRF.sol\":3713:3718  break */\n      jump(tag_142)\n        /* \"src/LotBoxVRF.sol\":3649:3734  if( r<acc ){... */\n    tag_149:\n        /* \"src/LotBoxVRF.sol\":3588:3591  i++ */\n      dup1\n      dup1\n      tag_150\n      swap1\n      tag_151\n      jump\t// in\n    tag_150:\n      swap2\n      pop\n      pop\n        /* \"src/LotBoxVRF.sol\":3557:3745  for(uint8 i=0;i<classes.length;i++){... */\n      jump(tag_141)\n    tag_142:\n      pop\n        /* \"src/LotBoxVRF.sol\":3816:3831  Class storage C */\n      0x00\n        /* \"src/LotBoxVRF.sol\":3834:3841  classes */\n      0x08\n        /* \"src/LotBoxVRF.sol\":3842:3853  pickedClass */\n      dup4\n        /* \"src/LotBoxVRF.sol\":3834:3854  classes[pickedClass] */\n      0xff\n      and\n      dup2\n      sload\n      dup2\n      lt\n      tag_152\n      jumpi\n      tag_153\n      tag_136\n      jump\t// in\n    tag_153:\n    tag_152:\n      swap1\n      0x00\n      mstore\n      keccak256(0x00, 0x20)\n      swap1\n      0x03\n      mul\n      add\n        /* \"src/LotBoxVRF.sol\":3816:3854  Class storage C = classes[pickedClass] */\n      swap1\n      pop\n        /* \"src/LotBoxVRF.sol\":3865:3875  uint256 r2 */\n      0x00\n        /* \"src/LotBoxVRF.sol\":3921:3922  C */\n      dup2\n        /* \"src/LotBoxVRF.sol\":3921:3932  C.remaining */\n      0x02\n      add\n      sload\n        /* \"src/LotBoxVRF.sol\":3907:3908  r */\n      dup6\n        /* \"src/LotBoxVRF.sol\":3896:3916  abi.encode(r,\"item\") */\n      add(0x20, mload(0x40))\n      tag_155\n      swap2\n      swap1\n      tag_156\n      jump\t// in\n    tag_155:\n      mload(0x40)\n      0x20\n      dup2\n      dup4\n      sub\n      sub\n      dup2\n      mstore\n      swap1\n      0x40\n      mstore\n        /* \"src/LotBoxVRF.sol\":3886:3917  keccak256(abi.encode(r,\"item\")) */\n      dup1\n      mload\n      swap1\n      0x20\n      add\n      keccak256\n        /* \"src/LotBoxVRF.sol\":3878:3918  uint256(keccak256(abi.encode(r,\"item\"))) */\n      0x00\n      shr\n        /* \"src/LotBoxVRF.sol\":3878:3932  uint256(keccak256(abi.encode(r,\"item\"))) % C.remaining */\n      tag_157\n      swap2\n      swap1\n      tag_140\n      jump\t// in\n    tag_157:\n        /* \"src/LotBoxVRF.sol\":3865:3932  uint256 r2 = uint256(keccak256(abi.encode(r,\"item\"))) % C.remaining */\n      swap1\n      pop\n        /* \"src/LotBoxVRF.sol\":3943:3957  uint256 itemId */\n      0x00\n        /* \"src/LotBoxVRF.sol\":3960:3961  C */\n      dup3\n        /* \"src/LotBoxVRF.sol\":3960:3967  C.items */\n      0x00\n      add\n        /* \"src/LotBoxVRF.sol\":3968:3970  r2 */\n      dup3\n        /* \"src/LotBoxVRF.sol\":3960:3971  C.items[r2] */\n      dup2\n      sload\n      dup2\n      lt\n      tag_158\n      jumpi\n      tag_159\n      tag_136\n      jump\t// in\n    tag_159:\n    tag_158:\n      swap1\n      0x00\n      mstore\n      keccak256(0x00, 0x20)\n      add\n      sload\n        /* \"src/LotBoxVRF.sol\":3943:3971  uint256 itemId = C.items[r2] */\n      swap1\n      pop\n        /* \"src/LotBoxVRF.sol\":4008:4023  uint256 lastIdx */\n      0x00\n        /* \"src/LotBoxVRF.sol\":4040:4041  1 */\n      0x01\n        /* \"src/LotBoxVRF.sol\":4026:4027  C */\n      dup5\n        /* \"src/LotBoxVRF.sol\":4026:4037  C.remaining */\n      0x02\n      add\n      sload\n        /* \"src/LotBoxVRF.sol\":4026:4041  C.remaining - 1 */\n      tag_161\n      swap2\n      swap1\n      tag_162\n      jump\t// in\n    tag_161:\n        /* \"src/LotBoxVRF.sol\":4008:4041  uint256 lastIdx = C.remaining - 1 */\n      swap1\n      pop\n        /* \"src/LotBoxVRF.sol\":4061:4068  lastIdx */\n      dup1\n        /* \"src/LotBoxVRF.sol\":4055:4057  r2 */\n      dup4\n        /* \"src/LotBoxVRF.sol\":4055:4068  r2 != lastIdx */\n      eq\n        /* \"src/LotBoxVRF.sol\":4052:4203  if(r2 != lastIdx){... */\n      tag_163\n      jumpi\n        /* \"src/LotBoxVRF.sol\":4084:4100  uint256 lastItem */\n      0x00\n        /* \"src/LotBoxVRF.sol\":4103:4104  C */\n      dup5\n        /* \"src/LotBoxVRF.sol\":4103:4110  C.items */\n      0x00\n      add\n        /* \"src/LotBoxVRF.sol\":4111:4118  lastIdx */\n      dup3\n        /* \"src/LotBoxVRF.sol\":4103:4119  C.items[lastIdx] */\n      dup2\n      sload\n      dup2\n      lt\n      tag_164\n      jumpi\n      tag_165\n      tag_136\n      jump\t// in\n    tag_165:\n    tag_164:\n      swap1\n      0x00\n      mstore\n      keccak256(0x00, 0x20)\n      add\n      sload\n        /* \"src/LotBoxVRF.sol\":4084:4119  uint256 lastItem = C.items[lastIdx] */\n      swap1\n      pop\n        /* \"src/LotBoxVRF.sol\":4148:4156  lastItem */\n      dup1\n        /* \"src/LotBoxVRF.sol\":4134:4135  C */\n      dup6\n        /* \"src/LotBoxVRF.sol\":4134:4141  C.items */\n      0x00\n      add\n        /* \"src/LotBoxVRF.sol\":4142:4144  r2 */\n      dup6\n        /* \"src/LotBoxVRF.sol\":4134:4145  C.items[r2] */\n      dup2\n      sload\n      dup2\n      lt\n      tag_167\n      jumpi\n      tag_168\n      tag_136\n      jump\t// in\n    tag_168:\n    tag_167:\n      swap1\n      0x00\n      mstore\n      keccak256(0x00, 0x20)\n      add\n        /* \"src/LotBoxVRF.sol\":4134:4156  C.items[r2] = lastItem */\n      dup2\n      swap1\n      sstore\n      pop\n        /* \"src/LotBoxVRF.sol\":4189:4191  r2 */\n      dup4\n        /* \"src/LotBoxVRF.sol\":4171:4172  C */\n      dup6\n        /* \"src/LotBoxVRF.sol\":4171:4177  C.idex */\n      0x01\n      add\n        /* \"src/LotBoxVRF.sol\":4171:4186  C.idex[lastIdx] */\n      0x00\n        /* \"src/LotBoxVRF.sol\":4178:4185  lastIdx */\n      dup5\n        /* \"src/LotBoxVRF.sol\":4171:4186  C.idex[lastIdx] */\n      dup2\n      mstore\n      0x20\n      add\n      swap1\n      dup2\n      mstore\n      0x20\n      add\n      0x00\n      keccak256\n        /* \"src/LotBoxVRF.sol\":4171:4191  C.idex[lastIdx] = r2 */\n      dup2\n      swap1\n      sstore\n      pop\n        /* \"src/LotBoxVRF.sol\":4069:4203  {... */\n      pop\n        /* \"src/LotBoxVRF.sol\":4052:4203  if(r2 != lastIdx){... */\n    tag_163:\n        /* \"src/LotBoxVRF.sol\":4213:4214  C */\n      dup4\n        /* \"src/LotBoxVRF.sol\":4213:4220  C.items */\n      0x00\n      add\n        /* \"src/LotBoxVRF.sol\":4213:4226  C.items.pop() */\n      dup1\n      sload\n      dup1\n      tag_170\n      jumpi\n      tag_171\n      tag_172\n      jump\t// in\n    tag_171:\n    tag_170:\n      0x01\n      swap1\n      sub\n      dup2\n      dup2\n      swap1\n      0x00\n      mstore\n      keccak256(0x00, 0x20)\n      add\n      0x00\n      swap1\n      sstore\n      swap1\n      sstore\n        /* \"src/LotBoxVRF.sol\":4237:4238  C */\n      dup4\n        /* \"src/LotBoxVRF.sol\":4237:4248  C.remaining */\n      0x02\n      add\n      0x00\n        /* \"src/LotBoxVRF.sol\":4237:4251  C.remaining -- */\n      dup2\n      sload\n      dup1\n      swap3\n      swap2\n      swap1\n      tag_174\n      swap1\n      tag_175\n      jump\t// in\n    tag_174:\n      swap2\n      swap1\n      pop\n      sstore\n      pop\n        /* \"src/LotBoxVRF.sol\":4262:4276  totalRemaining */\n      0x09\n      0x00\n        /* \"src/LotBoxVRF.sol\":4262:4279  totalRemaining -- */\n      dup2\n      dup2\n      swap1\n      sload\n      swap1\n      0x0100\n      exp\n      swap1\n      div\n      0xffffffff\n      and\n      dup1\n      swap3\n      swap2\n      swap1\n      tag_176\n      swap1\n      tag_177\n      jump\t// in\n    tag_176:\n      swap2\n      swap1\n      0x0100\n      exp\n      dup2\n      sload\n      dup2\n      0xffffffff\n      mul\n      not\n      and\n      swap1\n      dup4\n      0xffffffff\n      and\n      mul\n      or\n      swap1\n      sstore\n      pop\n      pop\n        /* \"src/LotBoxVRF.sol\":4408:4409  a */\n      dup8\n        /* \"src/LotBoxVRF.sol\":4408:4415  a.buyer */\n      0x00\n      add\n      0x01\n      swap1\n      sload\n      swap1\n      0x0100\n      exp\n      swap1\n      div\n      0xffffffffffffffffffffffffffffffffffffffff\n      and\n        /* \"src/LotBoxVRF.sol\":4398:4437  BoxOpened(a.buyer, pickedClass, itemId) */\n      0xffffffffffffffffffffffffffffffffffffffff\n      and\n      0xd31e7b1d79939371e7798a848d42f7d82520809c1a228cf8de4578c501c4b181\n        /* \"src/LotBoxVRF.sol\":4417:4428  pickedClass */\n      dup8\n        /* \"src/LotBoxVRF.sol\":4430:4436  itemId */\n      dup5\n        /* \"src/LotBoxVRF.sol\":4398:4437  BoxOpened(a.buyer, pickedClass, itemId) */\n      mload(0x40)\n      tag_178\n      swap3\n      swap2\n      swap1\n      tag_179\n      jump\t// in\n    tag_178:\n      mload(0x40)\n      dup1\n      swap2\n      sub\n      swap1\n      log2\n        /* \"src/LotBoxVRF.sol\":3243:4445  {... */\n      pop\n      pop\n      pop\n      pop\n      pop\n      pop\n      pop\n      pop\n        /* \"src/LotBoxVRF.sol\":3149:4445  function fulfillRandomWords(uint256 requestId,uint256[] calldata randomWords)internal override{... */\n      pop\n      pop\n      pop\n      jump\t// out\n        /* \"lib/chainlink-brownie-contracts/contracts/src/v0.8/shared/access/ConfirmedOwnerWithProposal.sol\":1809:1971  function _validateOwnership() internal view {... */\n    tag_124:\n        /* \"lib/chainlink-brownie-contracts/contracts/src/v0.8/shared/access/ConfirmedOwnerWithProposal.sol\":1932:1939  s_owner */\n      0x00\n      0x00\n      swap1\n      sload\n      swap1\n      0x0100\n      exp\n      swap1\n      div\n      0xffffffffffffffffffffffffffffffffffffffff\n      and\n        /* \"lib/chainlink-brownie-contracts/contracts/src/v0.8/shared/access/ConfirmedOwnerWithProposal.sol\":1918:1939  msg.sender == s_owner */\n      0xffffffffffffffffffffffffffffffffffffffff\n      and\n        /* \"lib/chainlink-brownie-contracts/contracts/src/v0.8/shared/access/ConfirmedOwnerWithProposal.sol\":1918:1928  msg.sender */\n      caller\n        /* \"lib/chainlink-brownie-contracts/contracts/src/v0.8/shared/access/ConfirmedOwnerWithProposal.sol\":1918:1939  msg.sender == s_owner */\n      0xffffffffffffffffffffffffffffffffffffffff\n      and\n      eq\n        /* \"lib/chainlink-brownie-contracts/contracts/src/v0.8/shared/access/ConfirmedOwnerWithProposal.sol\":1910:1966  require(msg.sender == s_owner, \"Only callable by owner\") */\n      tag_181\n      jumpi\n      mload(0x40)\n      0x08c379a000000000000000000000000000000000000000000000000000000000\n      dup2\n      mstore\n      0x04\n      add\n      tag_182\n      swap1\n      tag_183\n      jump\t// in\n    tag_182:\n      mload(0x40)\n      dup1\n      swap2\n      sub\n      swap1\n      revert\n    tag_181:\n        /* \"lib/chainlink-brownie-contracts/contracts/src/v0.8/shared/access/ConfirmedOwnerWithProposal.sol\":1809:1971  function _validateOwnership() internal view {... */\n      jump\t// out\n        /* \"lib/chainlink-brownie-contracts/contracts/src/v0.8/shared/access/ConfirmedOwnerWithProposal.sol\":1536:1775  function _transferOwnership(address to) private {... */\n    tag_127:\n        /* \"lib/chainlink-brownie-contracts/contracts/src/v0.8/shared/access/ConfirmedOwnerWithProposal.sol\":1655:1665  msg.sender */\n      caller\n        /* \"lib/chainlink-brownie-contracts/contracts/src/v0.8/shared/access/ConfirmedOwnerWithProposal.sol\":1649:1665  to != msg.sender */\n      0xffffffffffffffffffffffffffffffffffffffff\n      and\n        /* \"lib/chainlink-brownie-contracts/contracts/src/v0.8/shared/access/ConfirmedOwnerWithProposal.sol\":1649:1651  to */\n      dup2\n        /* \"lib/chainlink-brownie-contracts/contracts/src/v0.8/shared/access/ConfirmedOwnerWithProposal.sol\":1649:1665  to != msg.sender */\n      0xffffffffffffffffffffffffffffffffffffffff\n      and\n      sub\n        /* \"lib/chainlink-brownie-contracts/contracts/src/v0.8/shared/access/ConfirmedOwnerWithProposal.sol\":1641:1693  require(to != msg.sender, \"Cannot transfer to self\") */\n      tag_185\n      jumpi\n      mload(0x40)\n      0x08c379a000000000000000000000000000000000000000000000000000000000\n      dup2\n      mstore\n      0x04\n      add\n      tag_186\n      swap1\n      tag_187\n      jump\t// in\n    tag_186:\n      mload(0x40)\n      dup1\n      swap2\n      sub\n      swap1\n      revert\n    tag_185:\n        /* \"lib/chainlink-brownie-contracts/contracts/src/v0.8/shared/access/ConfirmedOwnerWithProposal.sol\":1717:1719  to */\n      dup1\n        /* \"lib/chainlink-brownie-contracts/contracts/src/v0.8/shared/access/ConfirmedOwnerWithProposal.sol\":1700:1714  s_pendingOwner */\n      0x01\n      0x00\n        /* \"lib/chainlink-brownie-contracts/contracts/src/v0.8/shared/access/ConfirmedOwnerWithProposal.sol\":1700:1719  s_pendingOwner = to */\n      0x0100\n      exp\n      dup2\n      sload\n      dup2\n      0xffffffffffffffffffffffffffffffffffffffff\n      mul\n      not\n      and\n      swap1\n      dup4\n      0xffffffffffffffffffffffffffffffffffffffff\n      and\n      mul\n      or\n      swap1\n      sstore\n      pop\n        /* \"lib/chainlink-brownie-contracts/contracts/src/v0.8/shared/access/ConfirmedOwnerWithProposal.sol\":1767:1769  to */\n      dup1\n        /* \"lib/chainlink-brownie-contracts/contracts/src/v0.8/shared/access/ConfirmedOwnerWithProposal.sol\":1731:1770  OwnershipTransferRequested(s_owner, to) */\n      0xffffffffffffffffffffffffffffffffffffffff\n      and\n        /* \"lib/chainlink-brownie-contracts/contracts/src/v0.8/shared/access/ConfirmedOwnerWithProposal.sol\":1758:1765  s_owner */\n      0x00\n      0x00\n      swap1\n      sload\n      swap1\n      0x0100\n      exp\n      swap1\n      div\n      0xffffffffffffffffffffffffffffffffffffffff\n      and\n        /* \"lib/chainlink-brownie-contracts/contracts/src/v0.8/shared/access/ConfirmedOwnerWithProposal.sol\":1731:1770  OwnershipTransferRequested(s_owner, to) */\n      0xffffffffffffffffffffffffffffffffffffffff\n      and\n      0xed8889f560326eb138920d842192f0eb3dd22b4f139c87a2c57538e05bae1278\n      mload(0x40)\n      mload(0x40)\n      dup1\n      swap2\n      sub\n      swap1\n      log3\n        /* \"lib/chainlink-brownie-contracts/contracts/src/v0.8/shared/access/ConfirmedOwnerWithProposal.sol\":1536:1775  function _transferOwnership(address to) private {... */\n      pop\n      jump\t// out\n        /* \"#utility.yul\":88:205   */\n    tag_189:\n        /* \"#utility.yul\":197:198   */\n      0x00\n        /* \"#utility.yul\":194:195   */\n      0x00\n        /* \"#utility.yul\":187:199   */\n      revert\n        /* \"#utility.yul\":211:328   */\n    tag_190:\n        /* \"#utility.yul\":320:321   */\n      0x00\n        /* \"#utility.yul\":317:318   */\n      0x00\n        /* \"#utility.yul\":310:322   */\n      revert\n        /* \"#utility.yul\":334:411   */\n    tag_191:\n        /* \"#utility.yul\":371:378   */\n      0x00\n        /* \"#utility.yul\":400:405   */\n      dup2\n        /* \"#utility.yul\":389:405   */\n      swap1\n      pop\n        /* \"#utility.yul\":334:411   */\n      swap2\n      swap1\n      pop\n      jump\t// out\n        /* \"#utility.yul\":417:539   */\n    tag_192:\n        /* \"#utility.yul\":490:514   */\n      tag_248\n        /* \"#utility.yul\":508:513   */\n      dup2\n        /* \"#utility.yul\":490:514   */\n      tag_191\n      jump\t// in\n    tag_248:\n        /* \"#utility.yul\":483:488   */\n      dup2\n        /* \"#utility.yul\":480:515   */\n      eq\n        /* \"#utility.yul\":470:533   */\n      tag_249\n      jumpi\n        /* \"#utility.yul\":529:530   */\n      0x00\n        /* \"#utility.yul\":526:527   */\n      0x00\n        /* \"#utility.yul\":519:531   */\n      revert\n        /* \"#utility.yul\":470:533   */\n    tag_249:\n        /* \"#utility.yul\":417:539   */\n      pop\n      jump\t// out\n        /* \"#utility.yul\":545:684   */\n    tag_193:\n        /* \"#utility.yul\":591:596   */\n      0x00\n        /* \"#utility.yul\":629:635   */\n      dup2\n        /* \"#utility.yul\":616:636   */\n      calldataload\n        /* \"#utility.yul\":607:636   */\n      swap1\n      pop\n        /* \"#utility.yul\":645:678   */\n      tag_251\n        /* \"#utility.yul\":672:677   */\n      dup2\n        /* \"#utility.yul\":645:678   */\n      tag_192\n      jump\t// in\n    tag_251:\n        /* \"#utility.yul\":545:684   */\n      swap3\n      swap2\n      pop\n      pop\n      jump\t// out\n        /* \"#utility.yul\":690:1019   */\n    tag_22:\n        /* \"#utility.yul\":749:755   */\n      0x00\n        /* \"#utility.yul\":798:800   */\n      0x20\n        /* \"#utility.yul\":786:795   */\n      dup3\n        /* \"#utility.yul\":777:784   */\n      dup5\n        /* \"#utility.yul\":773:796   */\n      sub\n        /* \"#utility.yul\":769:801   */\n      slt\n        /* \"#utility.yul\":766:885   */\n      iszero\n      tag_253\n      jumpi\n        /* \"#utility.yul\":804:883   */\n      tag_254\n      tag_189\n      jump\t// in\n    tag_254:\n        /* \"#utility.yul\":766:885   */\n    tag_253:\n        /* \"#utility.yul\":924:925   */\n      0x00\n        /* \"#utility.yul\":949:1002   */\n      tag_255\n        /* \"#utility.yul\":994:1001   */\n      dup5\n        /* \"#utility.yul\":985:991   */\n      dup3\n        /* \"#utility.yul\":974:983   */\n      dup6\n        /* \"#utility.yul\":970:992   */\n      add\n        /* \"#utility.yul\":949:1002   */\n      tag_193\n      jump\t// in\n    tag_255:\n        /* \"#utility.yul\":939:1002   */\n      swap2\n      pop\n        /* \"#utility.yul\":895:1012   */\n      pop\n        /* \"#utility.yul\":690:1019   */\n      swap3\n      swap2\n      pop\n      pop\n      jump\t// out\n        /* \"#utility.yul\":1025:1205   */\n    tag_94:\n        /* \"#utility.yul\":1073:1150   */\n      0x4e487b7100000000000000000000000000000000000000000000000000000000\n        /* \"#utility.yul\":1070:1071   */\n      0x00\n        /* \"#utility.yul\":1063:1151   */\n      mstore\n        /* \"#utility.yul\":1170:1174   */\n      0x21\n        /* \"#utility.yul\":1167:1168   */\n      0x04\n        /* \"#utility.yul\":1160:1175   */\n      mstore\n        /* \"#utility.yul\":1194:1198   */\n      0x24\n        /* \"#utility.yul\":1191:1192   */\n      0x00\n        /* \"#utility.yul\":1184:1199   */\n      revert\n        /* \"#utility.yul\":1211:1326   */\n    tag_194:\n        /* \"#utility.yul\":1294:1295   */\n      0x03\n        /* \"#utility.yul\":1287:1292   */\n      dup2\n        /* \"#utility.yul\":1284:1296   */\n      lt\n        /* \"#utility.yul\":1274:1320   */\n      tag_258\n      jumpi\n        /* \"#utility.yul\":1300:1318   */\n      tag_259\n      tag_94\n      jump\t// in\n    tag_259:\n        /* \"#utility.yul\":1274:1320   */\n    tag_258:\n        /* \"#utility.yul\":1211:1326   */\n      pop\n      jump\t// out\n        /* \"#utility.yul\":1332:1463   */\n    tag_195:\n        /* \"#utility.yul\":1379:1386   */\n      0x00\n        /* \"#utility.yul\":1408:1413   */\n      dup2\n        /* \"#utility.yul\":1397:1413   */\n      swap1\n      pop\n        /* \"#utility.yul\":1414:1457   */\n      tag_261\n        /* \"#utility.yul\":1451:1456   */\n      dup3\n        /* \"#utility.yul\":1414:1457   */\n      tag_194\n      jump\t// in\n    tag_261:\n        /* \"#utility.yul\":1332:1463   */\n      swap2\n      swap1\n      pop\n      jump\t// out\n        /* \"#utility.yul\":1469:1600   */\n    tag_196:\n        /* \"#utility.yul\":1527:1536   */\n      0x00\n        /* \"#utility.yul\":1560:1594   */\n      tag_263\n        /* \"#utility.yul\":1588:1593   */\n      dup3\n        /* \"#utility.yul\":1560:1594   */\n      tag_195\n      jump\t// in\n    tag_263:\n        /* \"#utility.yul\":1547:1594   */\n      swap1\n      pop\n        /* \"#utility.yul\":1469:1600   */\n      swap2\n      swap1\n      pop\n      jump\t// out\n        /* \"#utility.yul\":1606:1753   */\n    tag_197:\n        /* \"#utility.yul\":1701:1746   */\n      tag_265\n        /* \"#utility.yul\":1740:1745   */\n      dup2\n        /* \"#utility.yul\":1701:1746   */\n      tag_196\n      jump\t// in\n    tag_265:\n        /* \"#utility.yul\":1696:1699   */\n      dup3\n        /* \"#utility.yul\":1689:1747   */\n      mstore\n        /* \"#utility.yul\":1606:1753   */\n      pop\n      pop\n      jump\t// out\n        /* \"#utility.yul\":1759:1885   */\n    tag_198:\n        /* \"#utility.yul\":1796:1803   */\n      0x00\n        /* \"#utility.yul\":1836:1878   */\n      0xffffffffffffffffffffffffffffffffffffffff\n        /* \"#utility.yul\":1829:1834   */\n      dup3\n        /* \"#utility.yul\":1825:1879   */\n      and\n        /* \"#utility.yul\":1814:1879   */\n      swap1\n      pop\n        /* \"#utility.yul\":1759:1885   */\n      swap2\n      swap1\n      pop\n      jump\t// out\n        /* \"#utility.yul\":1891:1987   */\n    tag_199:\n        /* \"#utility.yul\":1928:1935   */\n      0x00\n        /* \"#utility.yul\":1957:1981   */\n      tag_268\n        /* \"#utility.yul\":1975:1980   */\n      dup3\n        /* \"#utility.yul\":1957:1981   */\n      tag_198\n      jump\t// in\n    tag_268:\n        /* \"#utility.yul\":1946:1981   */\n      swap1\n      pop\n        /* \"#utility.yul\":1891:1987   */\n      swap2\n      swap1\n      pop\n      jump\t// out\n        /* \"#utility.yul\":1993:2111   */\n    tag_200:\n        /* \"#utility.yul\":2080:2104   */\n      tag_270\n        /* \"#utility.yul\":2098:2103   */\n      dup2\n        /* \"#utility.yul\":2080:2104   */\n      tag_199\n      jump\t// in\n    tag_270:\n        /* \"#utility.yul\":2075:2078   */\n      dup3\n        /* \"#utility.yul\":2068:2105   */\n      mstore\n        /* \"#utility.yul\":1993:2111   */\n      pop\n      pop\n      jump\t// out\n        /* \"#utility.yul\":2117:2235   */\n    tag_201:\n        /* \"#utility.yul\":2204:2228   */\n      tag_272\n        /* \"#utility.yul\":2222:2227   */\n      dup2\n        /* \"#utility.yul\":2204:2228   */\n      tag_191\n      jump\t// in\n    tag_272:\n        /* \"#utility.yul\":2199:2202   */\n      dup3\n        /* \"#utility.yul\":2192:2229   */\n      mstore\n        /* \"#utility.yul\":2117:2235   */\n      pop\n      pop\n      jump\t// out\n        /* \"#utility.yul\":2241:2699   */\n    tag_25:\n        /* \"#utility.yul\":2398:2402   */\n      0x00\n        /* \"#utility.yul\":2436:2438   */\n      0x60\n        /* \"#utility.yul\":2425:2434   */\n      dup3\n        /* \"#utility.yul\":2421:2439   */\n      add\n        /* \"#utility.yul\":2413:2439   */\n      swap1\n      pop\n        /* \"#utility.yul\":2449:2528   */\n      tag_274\n        /* \"#utility.yul\":2525:2526   */\n      0x00\n        /* \"#utility.yul\":2514:2523   */\n      dup4\n        /* \"#utility.yul\":2510:2527   */\n      add\n        /* \"#utility.yul\":2501:2507   */\n      dup7\n        /* \"#utility.yul\":2449:2528   */\n      tag_197\n      jump\t// in\n    tag_274:\n        /* \"#utility.yul\":2538:2610   */\n      tag_275\n        /* \"#utility.yul\":2606:2608   */\n      0x20\n        /* \"#utility.yul\":2595:2604   */\n      dup4\n        /* \"#utility.yul\":2591:2609   */\n      add\n        /* \"#utility.yul\":2582:2588   */\n      dup6\n        /* \"#utility.yul\":2538:2610   */\n      tag_200\n      jump\t// in\n    tag_275:\n        /* \"#utility.yul\":2620:2692   */\n      tag_276\n        /* \"#utility.yul\":2688:2690   */\n      0x40\n        /* \"#utility.yul\":2677:2686   */\n      dup4\n        /* \"#utility.yul\":2673:2691   */\n      add\n        /* \"#utility.yul\":2664:2670   */\n      dup5\n        /* \"#utility.yul\":2620:2692   */\n      tag_201\n      jump\t// in\n    tag_276:\n        /* \"#utility.yul\":2241:2699   */\n      swap5\n      swap4\n      pop\n      pop\n      pop\n      pop\n      jump\t// out\n        /* \"#utility.yul\":2705:2822   */\n    tag_202:\n        /* \"#utility.yul\":2814:2815   */\n      0x00\n        /* \"#utility.yul\":2811:2812   */\n      0x00\n        /* \"#utility.yul\":2804:2816   */\n      revert\n        /* \"#utility.yul\":2828:2945   */\n    tag_203:\n        /* \"#utility.yul\":2937:2938   */\n      0x00\n        /* \"#utility.yul\":2934:2935   */\n      0x00\n        /* \"#utility.yul\":2927:2939   */\n      revert\n        /* \"#utility.yul\":2951:3068   */\n    tag_204:\n        /* \"#utility.yul\":3060:3061   */\n      0x00\n        /* \"#utility.yul\":3057:3058   */\n      0x00\n        /* \"#utility.yul\":3050:3062   */\n      revert\n        /* \"#utility.yul\":3091:3659   */\n    tag_205:\n        /* \"#utility.yul\":3164:3172   */\n      0x00\n        /* \"#utility.yul\":3174:3180   */\n      0x00\n        /* \"#utility.yul\":3224:3227   */\n      dup4\n        /* \"#utility.yul\":3217:3221   */\n      0x1f\n        /* \"#utility.yul\":3209:3215   */\n      dup5\n        /* \"#utility.yul\":3205:3222   */\n      add\n        /* \"#utility.yul\":3201:3228   */\n      slt\n        /* \"#utility.yul\":3191:3313   */\n      tag_281\n      jumpi\n        /* \"#utility.yul\":3232:3311   */\n      tag_282\n      tag_202\n      jump\t// in\n    tag_282:\n        /* \"#utility.yul\":3191:3313   */\n    tag_281:\n        /* \"#utility.yul\":3345:3351   */\n      dup3\n        /* \"#utility.yul\":3332:3352   */\n      calldataload\n        /* \"#utility.yul\":3322:3352   */\n      swap1\n      pop\n        /* \"#utility.yul\":3375:3393   */\n      0xffffffffffffffff\n        /* \"#utility.yul\":3367:3373   */\n      dup2\n        /* \"#utility.yul\":3364:3394   */\n      gt\n        /* \"#utility.yul\":3361:3478   */\n      iszero\n      tag_283\n      jumpi\n        /* \"#utility.yul\":3397:3476   */\n      tag_284\n      tag_203\n      jump\t// in\n    tag_284:\n        /* \"#utility.yul\":3361:3478   */\n    tag_283:\n        /* \"#utility.yul\":3511:3515   */\n      0x20\n        /* \"#utility.yul\":3503:3509   */\n      dup4\n        /* \"#utility.yul\":3499:3516   */\n      add\n        /* \"#utility.yul\":3487:3516   */\n      swap2\n      pop\n        /* \"#utility.yul\":3565:3568   */\n      dup4\n        /* \"#utility.yul\":3557:3561   */\n      0x20\n        /* \"#utility.yul\":3549:3555   */\n      dup3\n        /* \"#utility.yul\":3545:3562   */\n      mul\n        /* \"#utility.yul\":3535:3543   */\n      dup4\n        /* \"#utility.yul\":3531:3563   */\n      add\n        /* \"#utility.yul\":3528:3569   */\n      gt\n        /* \"#utility.yul\":3525:3653   */\n      iszero\n      tag_285\n      jumpi\n        /* \"#utility.yul\":3572:3651   */\n      tag_286\n      tag_204\n      jump\t// in\n    tag_286:\n        /* \"#utility.yul\":3525:3653   */\n    tag_285:\n        /* \"#utility.yul\":3091:3659   */\n      swap3\n      pop\n      swap3\n      swap1\n      pop\n      jump\t// out\n        /* \"#utility.yul\":3665:4369   */\n    tag_29:\n        /* \"#utility.yul\":3760:3766   */\n      0x00\n        /* \"#utility.yul\":3768:3774   */\n      0x00\n        /* \"#utility.yul\":3776:3782   */\n      0x00\n        /* \"#utility.yul\":3825:3827   */\n      0x40\n        /* \"#utility.yul\":3813:3822   */\n      dup5\n        /* \"#utility.yul\":3804:3811   */\n      dup7\n        /* \"#utility.yul\":3800:3823   */\n      sub\n        /* \"#utility.yul\":3796:3828   */\n      slt\n        /* \"#utility.yul\":3793:3912   */\n      iszero\n      tag_288\n      jumpi\n        /* \"#utility.yul\":3831:3910   */\n      tag_289\n      tag_189\n      jump\t// in\n    tag_289:\n        /* \"#utility.yul\":3793:3912   */\n    tag_288:\n        /* \"#utility.yul\":3951:3952   */\n      0x00\n        /* \"#utility.yul\":3976:4029   */\n      tag_290\n        /* \"#utility.yul\":4021:4028   */\n      dup7\n        /* \"#utility.yul\":4012:4018   */\n      dup3\n        /* \"#utility.yul\":4001:4010   */\n      dup8\n        /* \"#utility.yul\":3997:4019   */\n      add\n        /* \"#utility.yul\":3976:4029   */\n      tag_193\n      jump\t// in\n    tag_290:\n        /* \"#utility.yul\":3966:4029   */\n      swap4\n      pop\n        /* \"#utility.yul\":3922:4039   */\n      pop\n        /* \"#utility.yul\":4106:4108   */\n      0x20\n        /* \"#utility.yul\":4095:4104   */\n      dup5\n        /* \"#utility.yul\":4091:4109   */\n      add\n        /* \"#utility.yul\":4078:4110   */\n      calldataload\n        /* \"#utility.yul\":4137:4155   */\n      0xffffffffffffffff\n        /* \"#utility.yul\":4129:4135   */\n      dup2\n        /* \"#utility.yul\":4126:4156   */\n      gt\n        /* \"#utility.yul\":4123:4240   */\n      iszero\n      tag_291\n      jumpi\n        /* \"#utility.yul\":4159:4238   */\n      tag_292\n      tag_190\n      jump\t// in\n    tag_292:\n        /* \"#utility.yul\":4123:4240   */\n    tag_291:\n        /* \"#utility.yul\":4272:4352   */\n      tag_293\n        /* \"#utility.yul\":4344:4351   */\n      dup7\n        /* \"#utility.yul\":4335:4341   */\n      dup3\n        /* \"#utility.yul\":4324:4333   */\n      dup8\n        /* \"#utility.yul\":4320:4342   */\n      add\n        /* \"#utility.yul\":4272:4352   */\n      tag_205\n      jump\t// in\n    tag_293:\n        /* \"#utility.yul\":4254:4352   */\n      swap3\n      pop\n      swap3\n      pop\n        /* \"#utility.yul\":4049:4362   */\n      pop\n        /* \"#utility.yul\":3665:4369   */\n      swap3\n      pop\n      swap3\n      pop\n      swap3\n      jump\t// out\n        /* \"#utility.yul\":4375:4468   */\n    tag_206:\n        /* \"#utility.yul\":4411:4418   */\n      0x00\n        /* \"#utility.yul\":4451:4461   */\n      0xffffffff\n        /* \"#utility.yul\":4444:4449   */\n      dup3\n        /* \"#utility.yul\":4440:4462   */\n      and\n        /* \"#utility.yul\":4429:4462   */\n      swap1\n      pop\n        /* \"#utility.yul\":4375:4468   */\n      swap2\n      swap1\n      pop\n      jump\t// out\n        /* \"#utility.yul\":4474:4589   */\n    tag_207:\n        /* \"#utility.yul\":4559:4582   */\n      tag_296\n        /* \"#utility.yul\":4576:4581   */\n      dup2\n        /* \"#utility.yul\":4559:4582   */\n      tag_206\n      jump\t// in\n    tag_296:\n        /* \"#utility.yul\":4554:4557   */\n      dup3\n        /* \"#utility.yul\":4547:4583   */\n      mstore\n        /* \"#utility.yul\":4474:4589   */\n      pop\n      pop\n      jump\t// out\n        /* \"#utility.yul\":4595:4813   */\n    tag_35:\n        /* \"#utility.yul\":4686:4690   */\n      0x00\n        /* \"#utility.yul\":4724:4726   */\n      0x20\n        /* \"#utility.yul\":4713:4722   */\n      dup3\n        /* \"#utility.yul\":4709:4727   */\n      add\n        /* \"#utility.yul\":4701:4727   */\n      swap1\n      pop\n        /* \"#utility.yul\":4737:4806   */\n      tag_298\n        /* \"#utility.yul\":4803:4804   */\n      0x00\n        /* \"#utility.yul\":4792:4801   */\n      dup4\n        /* \"#utility.yul\":4788:4805   */\n      add\n        /* \"#utility.yul\":4779:4785   */\n      dup5\n        /* \"#utility.yul\":4737:4806   */\n      tag_207\n      jump\t// in\n    tag_298:\n        /* \"#utility.yul\":4595:4813   */\n      swap3\n      swap2\n      pop\n      pop\n      jump\t// out\n        /* \"#utility.yul\":4819:5041   */\n    tag_39:\n        /* \"#utility.yul\":4912:4916   */\n      0x00\n        /* \"#utility.yul\":4950:4952   */\n      0x20\n        /* \"#utility.yul\":4939:4948   */\n      dup3\n        /* \"#utility.yul\":4935:4953   */\n      add\n        /* \"#utility.yul\":4927:4953   */\n      swap1\n      pop\n        /* \"#utility.yul\":4963:5034   */\n      tag_300\n        /* \"#utility.yul\":5031:5032   */\n      0x00\n        /* \"#utility.yul\":5020:5029   */\n      dup4\n        /* \"#utility.yul\":5016:5033   */\n      add\n        /* \"#utility.yul\":5007:5013   */\n      dup5\n        /* \"#utility.yul\":4963:5034   */\n      tag_201\n      jump\t// in\n    tag_300:\n        /* \"#utility.yul\":4819:5041   */\n      swap3\n      swap2\n      pop\n      pop\n      jump\t// out\n        /* \"#utility.yul\":5047:5269   */\n    tag_56:\n        /* \"#utility.yul\":5140:5144   */\n      0x00\n        /* \"#utility.yul\":5178:5180   */\n      0x20\n        /* \"#utility.yul\":5167:5176   */\n      dup3\n        /* \"#utility.yul\":5163:5181   */\n      add\n        /* \"#utility.yul\":5155:5181   */\n      swap1\n      pop\n        /* \"#utility.yul\":5191:5262   */\n      tag_302\n        /* \"#utility.yul\":5259:5260   */\n      0x00\n        /* \"#utility.yul\":5248:5257   */\n      dup4\n        /* \"#utility.yul\":5244:5261   */\n      add\n        /* \"#utility.yul\":5235:5241   */\n      dup5\n        /* \"#utility.yul\":5191:5262   */\n      tag_200\n      jump\t// in\n    tag_302:\n        /* \"#utility.yul\":5047:5269   */\n      swap3\n      swap2\n      pop\n      pop\n      jump\t// out\n        /* \"#utility.yul\":5275:5397   */\n    tag_208:\n        /* \"#utility.yul\":5348:5372   */\n      tag_304\n        /* \"#utility.yul\":5366:5371   */\n      dup2\n        /* \"#utility.yul\":5348:5372   */\n      tag_199\n      jump\t// in\n    tag_304:\n        /* \"#utility.yul\":5341:5346   */\n      dup2\n        /* \"#utility.yul\":5338:5373   */\n      eq\n        /* \"#utility.yul\":5328:5391   */\n      tag_305\n      jumpi\n        /* \"#utility.yul\":5387:5388   */\n      0x00\n        /* \"#utility.yul\":5384:5385   */\n      0x00\n        /* \"#utility.yul\":5377:5389   */\n      revert\n        /* \"#utility.yul\":5328:5391   */\n    tag_305:\n        /* \"#utility.yul\":5275:5397   */\n      pop\n      jump\t// out\n        /* \"#utility.yul\":5403:5542   */\n    tag_209:\n        /* \"#utility.yul\":5449:5454   */\n      0x00\n        /* \"#utility.yul\":5487:5493   */\n      dup2\n        /* \"#utility.yul\":5474:5494   */\n      calldataload\n        /* \"#utility.yul\":5465:5494   */\n      swap1\n      pop\n        /* \"#utility.yul\":5503:5536   */\n      tag_307\n        /* \"#utility.yul\":5530:5535   */\n      dup2\n        /* \"#utility.yul\":5503:5536   */\n      tag_208\n      jump\t// in\n    tag_307:\n        /* \"#utility.yul\":5403:5542   */\n      swap3\n      swap2\n      pop\n      pop\n      jump\t// out\n        /* \"#utility.yul\":5548:5877   */\n    tag_60:\n        /* \"#utility.yul\":5607:5613   */\n      0x00\n        /* \"#utility.yul\":5656:5658   */\n      0x20\n        /* \"#utility.yul\":5644:5653   */\n      dup3\n        /* \"#utility.yul\":5635:5642   */\n      dup5\n        /* \"#utility.yul\":5631:5654   */\n      sub\n        /* \"#utility.yul\":5627:5659   */\n      slt\n        /* \"#utility.yul\":5624:5743   */\n      iszero\n      tag_309\n      jumpi\n        /* \"#utility.yul\":5662:5741   */\n      tag_310\n      tag_189\n      jump\t// in\n    tag_310:\n        /* \"#utility.yul\":5624:5743   */\n    tag_309:\n        /* \"#utility.yul\":5782:5783   */\n      0x00\n        /* \"#utility.yul\":5807:5860   */\n      tag_311\n        /* \"#utility.yul\":5852:5859   */\n      dup5\n        /* \"#utility.yul\":5843:5849   */\n      dup3\n        /* \"#utility.yul\":5832:5841   */\n      dup6\n        /* \"#utility.yul\":5828:5850   */\n      add\n        /* \"#utility.yul\":5807:5860   */\n      tag_209\n      jump\t// in\n    tag_311:\n        /* \"#utility.yul\":5797:5860   */\n      swap2\n      pop\n        /* \"#utility.yul\":5753:5870   */\n      pop\n        /* \"#utility.yul\":5548:5877   */\n      swap3\n      swap2\n      pop\n      pop\n      jump\t// out\n        /* \"#utility.yul\":5883:5943   */\n    tag_210:\n        /* \"#utility.yul\":5911:5914   */\n      0x00\n        /* \"#utility.yul\":5932:5937   */\n      dup2\n        /* \"#utility.yul\":5925:5937   */\n      swap1\n      pop\n        /* \"#utility.yul\":5883:5943   */\n      swap2\n      swap1\n      pop\n      jump\t// out\n        /* \"#utility.yul\":5949:6091   */\n    tag_211:\n        /* \"#utility.yul\":5999:6008   */\n      0x00\n        /* \"#utility.yul\":6032:6085   */\n      tag_314\n        /* \"#utility.yul\":6050:6084   */\n      tag_315\n        /* \"#utility.yul\":6059:6083   */\n      tag_316\n        /* \"#utility.yul\":6077:6082   */\n      dup5\n        /* \"#utility.yul\":6059:6083   */\n      tag_198\n      jump\t// in\n    tag_316:\n        /* \"#utility.yul\":6050:6084   */\n      tag_210\n      jump\t// in\n    tag_315:\n        /* \"#utility.yul\":6032:6085   */\n      tag_198\n      jump\t// in\n    tag_314:\n        /* \"#utility.yul\":6019:6085   */\n      swap1\n      pop\n        /* \"#utility.yul\":5949:6091   */\n      swap2\n      swap1\n      pop\n      jump\t// out\n        /* \"#utility.yul\":6097:6223   */\n    tag_212:\n        /* \"#utility.yul\":6147:6156   */\n      0x00\n        /* \"#utility.yul\":6180:6217   */\n      tag_318\n        /* \"#utility.yul\":6211:6216   */\n      dup3\n        /* \"#utility.yul\":6180:6217   */\n      tag_211\n      jump\t// in\n    tag_318:\n        /* \"#utility.yul\":6167:6217   */\n      swap1\n      pop\n        /* \"#utility.yul\":6097:6223   */\n      swap2\n      swap1\n      pop\n      jump\t// out\n        /* \"#utility.yul\":6229:6384   */\n    tag_213:\n        /* \"#utility.yul\":6308:6317   */\n      0x00\n        /* \"#utility.yul\":6341:6378   */\n      tag_320\n        /* \"#utility.yul\":6372:6377   */\n      dup3\n        /* \"#utility.yul\":6341:6378   */\n      tag_212\n      jump\t// in\n    tag_320:\n        /* \"#utility.yul\":6328:6378   */\n      swap1\n      pop\n        /* \"#utility.yul\":6229:6384   */\n      swap2\n      swap1\n      pop\n      jump\t// out\n        /* \"#utility.yul\":6390:6579   */\n    tag_214:\n        /* \"#utility.yul\":6506:6572   */\n      tag_322\n        /* \"#utility.yul\":6566:6571   */\n      dup2\n        /* \"#utility.yul\":6506:6572   */\n      tag_213\n      jump\t// in\n    tag_322:\n        /* \"#utility.yul\":6501:6504   */\n      dup3\n        /* \"#utility.yul\":6494:6573   */\n      mstore\n        /* \"#utility.yul\":6390:6579   */\n      pop\n      pop\n      jump\t// out\n        /* \"#utility.yul\":6585:6865   */\n    tag_66:\n        /* \"#utility.yul\":6707:6711   */\n      0x00\n        /* \"#utility.yul\":6745:6747   */\n      0x20\n        /* \"#utility.yul\":6734:6743   */\n      dup3\n        /* \"#utility.yul\":6730:6748   */\n      add\n        /* \"#utility.yul\":6722:6748   */\n      swap1\n      pop\n        /* \"#utility.yul\":6758:6858   */\n      tag_324\n        /* \"#utility.yul\":6855:6856   */\n      0x00\n        /* \"#utility.yul\":6844:6853   */\n      dup4\n        /* \"#utility.yul\":6840:6857   */\n      add\n        /* \"#utility.yul\":6831:6837   */\n      dup5\n        /* \"#utility.yul\":6758:6858   */\n      tag_214\n      jump\t// in\n    tag_324:\n        /* \"#utility.yul\":6585:6865   */\n      swap3\n      swap2\n      pop\n      pop\n      jump\t// out\n        /* \"#utility.yul\":6871:6960   */\n    tag_215:\n        /* \"#utility.yul\":6907:6914   */\n      0x00\n        /* \"#utility.yul\":6947:6953   */\n      0xffff\n        /* \"#utility.yul\":6940:6945   */\n      dup3\n        /* \"#utility.yul\":6936:6954   */\n      and\n        /* \"#utility.yul\":6925:6954   */\n      swap1\n      pop\n        /* \"#utility.yul\":6871:6960   */\n      swap2\n      swap1\n      pop\n      jump\t// out\n        /* \"#utility.yul\":6966:7081   */\n    tag_216:\n        /* \"#utility.yul\":7051:7074   */\n      tag_327\n        /* \"#utility.yul\":7068:7073   */\n      dup2\n        /* \"#utility.yul\":7051:7074   */\n      tag_215\n      jump\t// in\n    tag_327:\n        /* \"#utility.yul\":7046:7049   */\n      dup3\n        /* \"#utility.yul\":7039:7075   */\n      mstore\n        /* \"#utility.yul\":6966:7081   */\n      pop\n      pop\n      jump\t// out\n        /* \"#utility.yul\":7087:7305   */\n    tag_71:\n        /* \"#utility.yul\":7178:7182   */\n      0x00\n        /* \"#utility.yul\":7216:7218   */\n      0x20\n        /* \"#utility.yul\":7205:7214   */\n      dup3\n        /* \"#utility.yul\":7201:7219   */\n      add\n        /* \"#utility.yul\":7193:7219   */\n      swap1\n      pop\n        /* \"#utility.yul\":7229:7298   */\n      tag_329\n        /* \"#utility.yul\":7295:7296   */\n      0x00\n        /* \"#utility.yul\":7284:7293   */\n      dup4\n        /* \"#utility.yul\":7280:7297   */\n      add\n        /* \"#utility.yul\":7271:7277   */\n      dup5\n        /* \"#utility.yul\":7229:7298   */\n      tag_216\n      jump\t// in\n    tag_329:\n        /* \"#utility.yul\":7087:7305   */\n      swap3\n      swap2\n      pop\n      pop\n      jump\t// out\n        /* \"#utility.yul\":7311:7643   */\n    tag_87:\n        /* \"#utility.yul\":7432:7436   */\n      0x00\n        /* \"#utility.yul\":7470:7472   */\n      0x40\n        /* \"#utility.yul\":7459:7468   */\n      dup3\n        /* \"#utility.yul\":7455:7473   */\n      add\n        /* \"#utility.yul\":7447:7473   */\n      swap1\n      pop\n        /* \"#utility.yul\":7483:7554   */\n      tag_331\n        /* \"#utility.yul\":7551:7552   */\n      0x00\n        /* \"#utility.yul\":7540:7549   */\n      dup4\n        /* \"#utility.yul\":7536:7553   */\n      add\n        /* \"#utility.yul\":7527:7533   */\n      dup6\n        /* \"#utility.yul\":7483:7554   */\n      tag_200\n      jump\t// in\n    tag_331:\n        /* \"#utility.yul\":7564:7636   */\n      tag_332\n        /* \"#utility.yul\":7632:7634   */\n      0x20\n        /* \"#utility.yul\":7621:7630   */\n      dup4\n        /* \"#utility.yul\":7617:7635   */\n      add\n        /* \"#utility.yul\":7608:7614   */\n      dup5\n        /* \"#utility.yul\":7564:7636   */\n      tag_200\n      jump\t// in\n    tag_332:\n        /* \"#utility.yul\":7311:7643   */\n      swap4\n      swap3\n      pop\n      pop\n      pop\n      jump\t// out\n        /* \"#utility.yul\":7649:7818   */\n    tag_217:\n        /* \"#utility.yul\":7733:7744   */\n      0x00\n        /* \"#utility.yul\":7767:7773   */\n      dup3\n        /* \"#utility.yul\":7762:7765   */\n      dup3\n        /* \"#utility.yul\":7755:7774   */\n      mstore\n        /* \"#utility.yul\":7807:7811   */\n      0x20\n        /* \"#utility.yul\":7802:7805   */\n      dup3\n        /* \"#utility.yul\":7798:7812   */\n      add\n        /* \"#utility.yul\":7783:7812   */\n      swap1\n      pop\n        /* \"#utility.yul\":7649:7818   */\n      swap3\n      swap2\n      pop\n      pop\n      jump\t// out\n        /* \"#utility.yul\":7824:7996   */\n    tag_218:\n        /* \"#utility.yul\":7964:7988   */\n      0x4d7573742062652070726f706f736564206f776e657200000000000000000000\n        /* \"#utility.yul\":7960:7961   */\n      0x00\n        /* \"#utility.yul\":7952:7958   */\n      dup3\n        /* \"#utility.yul\":7948:7962   */\n      add\n        /* \"#utility.yul\":7941:7989   */\n      mstore\n        /* \"#utility.yul\":7824:7996   */\n      pop\n      jump\t// out\n        /* \"#utility.yul\":8002:8368   */\n    tag_219:\n        /* \"#utility.yul\":8144:8147   */\n      0x00\n        /* \"#utility.yul\":8165:8232   */\n      tag_336\n        /* \"#utility.yul\":8229:8231   */\n      0x16\n        /* \"#utility.yul\":8224:8227   */\n      dup4\n        /* \"#utility.yul\":8165:8232   */\n      tag_217\n      jump\t// in\n    tag_336:\n        /* \"#utility.yul\":8158:8232   */\n      swap2\n      pop\n        /* \"#utility.yul\":8241:8334   */\n      tag_337\n        /* \"#utility.yul\":8330:8333   */\n      dup3\n        /* \"#utility.yul\":8241:8334   */\n      tag_218\n      jump\t// in\n    tag_337:\n        /* \"#utility.yul\":8359:8361   */\n      0x20\n        /* \"#utility.yul\":8354:8357   */\n      dup3\n        /* \"#utility.yul\":8350:8362   */\n      add\n        /* \"#utility.yul\":8343:8362   */\n      swap1\n      pop\n        /* \"#utility.yul\":8002:8368   */\n      swap2\n      swap1\n      pop\n      jump\t// out\n        /* \"#utility.yul\":8374:8793   */\n    tag_100:\n        /* \"#utility.yul\":8540:8544   */\n      0x00\n        /* \"#utility.yul\":8578:8580   */\n      0x20\n        /* \"#utility.yul\":8567:8576   */\n      dup3\n        /* \"#utility.yul\":8563:8581   */\n      add\n        /* \"#utility.yul\":8555:8581   */\n      swap1\n      pop\n        /* \"#utility.yul\":8627:8636   */\n      dup2\n        /* \"#utility.yul\":8621:8625   */\n      dup2\n        /* \"#utility.yul\":8617:8637   */\n      sub\n        /* \"#utility.yul\":8613:8614   */\n      0x00\n        /* \"#utility.yul\":8602:8611   */\n      dup4\n        /* \"#utility.yul\":8598:8615   */\n      add\n        /* \"#utility.yul\":8591:8638   */\n      mstore\n        /* \"#utility.yul\":8655:8786   */\n      tag_339\n        /* \"#utility.yul\":8781:8785   */\n      dup2\n        /* \"#utility.yul\":8655:8786   */\n      tag_219\n      jump\t// in\n    tag_339:\n        /* \"#utility.yul\":8647:8786   */\n      swap1\n      pop\n        /* \"#utility.yul\":8374:8793   */\n      swap2\n      swap1\n      pop\n      jump\t// out\n        /* \"#utility.yul\":8799:9241   */\n    tag_110:\n        /* \"#utility.yul\":8948:8952   */\n      0x00\n        /* \"#utility.yul\":8986:8988   */\n      0x60\n        /* \"#utility.yul\":8975:8984   */\n      dup3\n        /* \"#utility.yul\":8971:8989   */\n      add\n        /* \"#utility.yul\":8963:8989   */\n      swap1\n      pop\n        /* \"#utility.yul\":8999:9070   */\n      tag_341\n        /* \"#utility.yul\":9067:9068   */\n      0x00\n        /* \"#utility.yul\":9056:9065   */\n      dup4\n        /* \"#utility.yul\":9052:9069   */\n      add\n        /* \"#utility.yul\":9043:9049   */\n      dup7\n        /* \"#utility.yul\":8999:9070   */\n      tag_200\n      jump\t// in\n    tag_341:\n        /* \"#utility.yul\":9080:9152   */\n      tag_342\n        /* \"#utility.yul\":9148:9150   */\n      0x20\n        /* \"#utility.yul\":9137:9146   */\n      dup4\n        /* \"#utility.yul\":9133:9151   */\n      add\n        /* \"#utility.yul\":9124:9130   */\n      dup6\n        /* \"#utility.yul\":9080:9152   */\n      tag_200\n      jump\t// in\n    tag_342:\n        /* \"#utility.yul\":9162:9234   */\n      tag_343\n        /* \"#utility.yul\":9230:9232   */\n      0x40\n        /* \"#utility.yul\":9219:9228   */\n      dup4\n        /* \"#utility.yul\":9215:9233   */\n      add\n        /* \"#utility.yul\":9206:9212   */\n      dup5\n        /* \"#utility.yul\":9162:9234   */\n      tag_200\n      jump\t// in\n    tag_343:\n        /* \"#utility.yul\":8799:9241   */\n      swap5\n      swap4\n      pop\n      pop\n      pop\n      pop\n      jump\t// out\n        /* \"#utility.yul\":9247:9324   */\n    tag_220:\n        /* \"#utility.yul\":9284:9291   */\n      0x00\n        /* \"#utility.yul\":9313:9318   */\n      dup2\n        /* \"#utility.yul\":9302:9318   */\n      swap1\n      pop\n        /* \"#utility.yul\":9247:9324   */\n      swap2\n      swap1\n      pop\n      jump\t// out\n        /* \"#utility.yul\":9330:9438   */\n    tag_221:\n        /* \"#utility.yul\":9407:9431   */\n      tag_346\n        /* \"#utility.yul\":9425:9430   */\n      dup2\n        /* \"#utility.yul\":9407:9431   */\n      tag_220\n      jump\t// in\n    tag_346:\n        /* \"#utility.yul\":9402:9405   */\n      dup3\n        /* \"#utility.yul\":9395:9432   */\n      mstore\n        /* \"#utility.yul\":9330:9438   */\n      pop\n      pop\n      jump\t// out\n        /* \"#utility.yul\":9444:9552   */\n    tag_222:\n        /* \"#utility.yul\":9521:9545   */\n      tag_348\n        /* \"#utility.yul\":9539:9544   */\n      dup2\n        /* \"#utility.yul\":9521:9545   */\n      tag_191\n      jump\t// in\n    tag_348:\n        /* \"#utility.yul\":9516:9519   */\n      dup3\n        /* \"#utility.yul\":9509:9546   */\n      mstore\n        /* \"#utility.yul\":9444:9552   */\n      pop\n      pop\n      jump\t// out\n        /* \"#utility.yul\":9558:9663   */\n    tag_223:\n        /* \"#utility.yul\":9633:9656   */\n      tag_350\n        /* \"#utility.yul\":9650:9655   */\n      dup2\n        /* \"#utility.yul\":9633:9656   */\n      tag_215\n      jump\t// in\n    tag_350:\n        /* \"#utility.yul\":9628:9631   */\n      dup3\n        /* \"#utility.yul\":9621:9657   */\n      mstore\n        /* \"#utility.yul\":9558:9663   */\n      pop\n      pop\n      jump\t// out\n        /* \"#utility.yul\":9669:9774   */\n    tag_224:\n        /* \"#utility.yul\":9744:9767   */\n      tag_352\n        /* \"#utility.yul\":9761:9766   */\n      dup2\n        /* \"#utility.yul\":9744:9767   */\n      tag_206\n      jump\t// in\n    tag_352:\n        /* \"#utility.yul\":9739:9742   */\n      dup3\n        /* \"#utility.yul\":9732:9768   */\n      mstore\n        /* \"#utility.yul\":9669:9774   */\n      pop\n      pop\n      jump\t// out\n        /* \"#utility.yul\":9780:9878   */\n    tag_225:\n        /* \"#utility.yul\":9831:9837   */\n      0x00\n        /* \"#utility.yul\":9865:9870   */\n      dup2\n        /* \"#utility.yul\":9859:9871   */\n      mload\n        /* \"#utility.yul\":9849:9871   */\n      swap1\n      pop\n        /* \"#utility.yul\":9780:9878   */\n      swap2\n      swap1\n      pop\n      jump\t// out\n        /* \"#utility.yul\":9884:10042   */\n    tag_226:\n        /* \"#utility.yul\":9957:9968   */\n      0x00\n        /* \"#utility.yul\":9991:9997   */\n      dup3\n        /* \"#utility.yul\":9986:9989   */\n      dup3\n        /* \"#utility.yul\":9979:9998   */\n      mstore\n        /* \"#utility.yul\":10031:10035   */\n      0x20\n        /* \"#utility.yul\":10026:10029   */\n      dup3\n        /* \"#utility.yul\":10022:10036   */\n      add\n        /* \"#utility.yul\":10007:10036   */\n      swap1\n      pop\n        /* \"#utility.yul\":9884:10042   */\n      swap3\n      swap2\n      pop\n      pop\n      jump\t// out\n        /* \"#utility.yul\":10048:10187   */\n    tag_227:\n        /* \"#utility.yul\":10137:10143   */\n      dup3\n        /* \"#utility.yul\":10132:10135   */\n      dup2\n        /* \"#utility.yul\":10127:10130   */\n      dup4\n        /* \"#utility.yul\":10121:10144   */\n      mcopy\n        /* \"#utility.yul\":10178:10179   */\n      0x00\n        /* \"#utility.yul\":10169:10175   */\n      dup4\n        /* \"#utility.yul\":10164:10167   */\n      dup4\n        /* \"#utility.yul\":10160:10176   */\n      add\n        /* \"#utility.yul\":10153:10180   */\n      mstore\n        /* \"#utility.yul\":10048:10187   */\n      pop\n      pop\n      pop\n      jump\t// out\n        /* \"#utility.yul\":10193:10295   */\n    tag_228:\n        /* \"#utility.yul\":10234:10240   */\n      0x00\n        /* \"#utility.yul\":10285:10287   */\n      0x1f\n        /* \"#utility.yul\":10281:10288   */\n      not\n        /* \"#utility.yul\":10276:10278   */\n      0x1f\n        /* \"#utility.yul\":10269:10274   */\n      dup4\n        /* \"#utility.yul\":10265:10279   */\n      add\n        /* \"#utility.yul\":10261:10289   */\n      and\n        /* \"#utility.yul\":10251:10289   */\n      swap1\n      pop\n        /* \"#utility.yul\":10193:10295   */\n      swap2\n      swap1\n      pop\n      jump\t// out\n        /* \"#utility.yul\":10301:10654   */\n    tag_229:\n        /* \"#utility.yul\":10377:10380   */\n      0x00\n        /* \"#utility.yul\":10405:10443   */\n      tag_358\n        /* \"#utility.yul\":10437:10442   */\n      dup3\n        /* \"#utility.yul\":10405:10443   */\n      tag_225\n      jump\t// in\n    tag_358:\n        /* \"#utility.yul\":10459:10519   */\n      tag_359\n        /* \"#utility.yul\":10512:10518   */\n      dup2\n        /* \"#utility.yul\":10507:10510   */\n      dup6\n        /* \"#utility.yul\":10459:10519   */\n      tag_226\n      jump\t// in\n    tag_359:\n        /* \"#utility.yul\":10452:10519   */\n      swap4\n      pop\n        /* \"#utility.yul\":10528:10593   */\n      tag_360\n        /* \"#utility.yul\":10586:10592   */\n      dup2\n        /* \"#utility.yul\":10581:10584   */\n      dup6\n        /* \"#utility.yul\":10574:10578   */\n      0x20\n        /* \"#utility.yul\":10567:10572   */\n      dup7\n        /* \"#utility.yul\":10563:10579   */\n      add\n        /* \"#utility.yul\":10528:10593   */\n      tag_227\n      jump\t// in\n    tag_360:\n        /* \"#utility.yul\":10618:10647   */\n      tag_361\n        /* \"#utility.yul\":10640:10646   */\n      dup2\n        /* \"#utility.yul\":10618:10647   */\n      tag_228\n      jump\t// in\n    tag_361:\n        /* \"#utility.yul\":10613:10616   */\n      dup5\n        /* \"#utility.yul\":10609:10648   */\n      add\n        /* \"#utility.yul\":10602:10648   */\n      swap2\n      pop\n        /* \"#utility.yul\":10381:10654   */\n      pop\n        /* \"#utility.yul\":10301:10654   */\n      swap3\n      swap2\n      pop\n      pop\n      jump\t// out\n        /* \"#utility.yul\":10754:12109   */\n    tag_230:\n        /* \"#utility.yul\":10893:10896   */\n      0x00\n        /* \"#utility.yul\":10929:10933   */\n      0xc0\n        /* \"#utility.yul\":10924:10927   */\n      dup4\n        /* \"#utility.yul\":10920:10934   */\n      add\n        /* \"#utility.yul\":11019:11023   */\n      0x00\n        /* \"#utility.yul\":11012:11017   */\n      dup4\n        /* \"#utility.yul\":11008:11024   */\n      add\n        /* \"#utility.yul\":11002:11025   */\n      mload\n        /* \"#utility.yul\":11038:11101   */\n      tag_363\n        /* \"#utility.yul\":11095:11099   */\n      0x00\n        /* \"#utility.yul\":11090:11093   */\n      dup7\n        /* \"#utility.yul\":11086:11100   */\n      add\n        /* \"#utility.yul\":11072:11084   */\n      dup3\n        /* \"#utility.yul\":11038:11101   */\n      tag_221\n      jump\t// in\n    tag_363:\n        /* \"#utility.yul\":10944:11111   */\n      pop\n        /* \"#utility.yul\":11194:11198   */\n      0x20\n        /* \"#utility.yul\":11187:11192   */\n      dup4\n        /* \"#utility.yul\":11183:11199   */\n      add\n        /* \"#utility.yul\":11177:11200   */\n      mload\n        /* \"#utility.yul\":11213:11276   */\n      tag_364\n        /* \"#utility.yul\":11270:11274   */\n      0x20\n        /* \"#utility.yul\":11265:11268   */\n      dup7\n        /* \"#utility.yul\":11261:11275   */\n      add\n        /* \"#utility.yul\":11247:11259   */\n      dup3\n        /* \"#utility.yul\":11213:11276   */\n      tag_222\n      jump\t// in\n    tag_364:\n        /* \"#utility.yul\":11121:11286   */\n      pop\n        /* \"#utility.yul\":11384:11388   */\n      0x40\n        /* \"#utility.yul\":11377:11382   */\n      dup4\n        /* \"#utility.yul\":11373:11389   */\n      add\n        /* \"#utility.yul\":11367:11390   */\n      mload\n        /* \"#utility.yul\":11403:11464   */\n      tag_365\n        /* \"#utility.yul\":11458:11462   */\n      0x40\n        /* \"#utility.yul\":11453:11456   */\n      dup7\n        /* \"#utility.yul\":11449:11463   */\n      add\n        /* \"#utility.yul\":11435:11447   */\n      dup3\n        /* \"#utility.yul\":11403:11464   */\n      tag_223\n      jump\t// in\n    tag_365:\n        /* \"#utility.yul\":11296:11474   */\n      pop\n        /* \"#utility.yul\":11568:11572   */\n      0x60\n        /* \"#utility.yul\":11561:11566   */\n      dup4\n        /* \"#utility.yul\":11557:11573   */\n      add\n        /* \"#utility.yul\":11551:11574   */\n      mload\n        /* \"#utility.yul\":11587:11648   */\n      tag_366\n        /* \"#utility.yul\":11642:11646   */\n      0x60\n        /* \"#utility.yul\":11637:11640   */\n      dup7\n        /* \"#utility.yul\":11633:11647   */\n      add\n        /* \"#utility.yul\":11619:11631   */\n      dup3\n        /* \"#utility.yul\":11587:11648   */\n      tag_224\n      jump\t// in\n    tag_366:\n        /* \"#utility.yul\":11484:11658   */\n      pop\n        /* \"#utility.yul\":11744:11748   */\n      0x80\n        /* \"#utility.yul\":11737:11742   */\n      dup4\n        /* \"#utility.yul\":11733:11749   */\n      add\n        /* \"#utility.yul\":11727:11750   */\n      mload\n        /* \"#utility.yul\":11763:11824   */\n      tag_367\n        /* \"#utility.yul\":11818:11822   */\n      0x80\n        /* \"#utility.yul\":11813:11816   */\n      dup7\n        /* \"#utility.yul\":11809:11823   */\n      add\n        /* \"#utility.yul\":11795:11807   */\n      dup3\n        /* \"#utility.yul\":11763:11824   */\n      tag_224\n      jump\t// in\n    tag_367:\n        /* \"#utility.yul\":11668:11834   */\n      pop\n        /* \"#utility.yul\":11921:11925   */\n      0xa0\n        /* \"#utility.yul\":11914:11919   */\n      dup4\n        /* \"#utility.yul\":11910:11926   */\n      add\n        /* \"#utility.yul\":11904:11927   */\n      mload\n        /* \"#utility.yul\":11974:11977   */\n      dup5\n        /* \"#utility.yul\":11968:11972   */\n      dup3\n        /* \"#utility.yul\":11964:11978   */\n      sub\n        /* \"#utility.yul\":11957:11961   */\n      0xa0\n        /* \"#utility.yul\":11952:11955   */\n      dup7\n        /* \"#utility.yul\":11948:11962   */\n      add\n        /* \"#utility.yul\":11941:11979   */\n      mstore\n        /* \"#utility.yul\":12000:12071   */\n      tag_368\n        /* \"#utility.yul\":12066:12070   */\n      dup3\n        /* \"#utility.yul\":12052:12064   */\n      dup3\n        /* \"#utility.yul\":12000:12071   */\n      tag_229\n      jump\t// in\n    tag_368:\n        /* \"#utility.yul\":11992:12071   */\n      swap2\n      pop\n        /* \"#utility.yul\":11844:12082   */\n      pop\n        /* \"#utility.yul\":12099:12103   */\n      dup1\n        /* \"#utility.yul\":12092:12103   */\n      swap2\n      pop\n        /* \"#utility.yul\":10898:12109   */\n      pop\n        /* \"#utility.yul\":10754:12109   */\n      swap3\n      swap2\n      pop\n      pop\n      jump\t// out\n        /* \"#utility.yul\":12115:12528   */\n    tag_116:\n        /* \"#utility.yul\":12278:12282   */\n      0x00\n        /* \"#utility.yul\":12316:12318   */\n      0x20\n        /* \"#utility.yul\":12305:12314   */\n      dup3\n        /* \"#utility.yul\":12301:12319   */\n      add\n        /* \"#utility.yul\":12293:12319   */\n      swap1\n      pop\n        /* \"#utility.yul\":12365:12374   */\n      dup2\n        /* \"#utility.yul\":12359:12363   */\n      dup2\n        /* \"#utility.yul\":12355:12375   */\n      sub\n        /* \"#utility.yul\":12351:12352   */\n      0x00\n        /* \"#utility.yul\":12340:12349   */\n      dup4\n        /* \"#utility.yul\":12336:12353   */\n      add\n        /* \"#utility.yul\":12329:12376   */\n      mstore\n        /* \"#utility.yul\":12393:12521   */\n      tag_370\n        /* \"#utility.yul\":12516:12520   */\n      dup2\n        /* \"#utility.yul\":12507:12513   */\n      dup5\n        /* \"#utility.yul\":12393:12521   */\n      tag_230\n      jump\t// in\n    tag_370:\n        /* \"#utility.yul\":12385:12521   */\n      swap1\n      pop\n        /* \"#utility.yul\":12115:12528   */\n      swap3\n      swap2\n      pop\n      pop\n      jump\t// out\n        /* \"#utility.yul\":12534:12677   */\n    tag_231:\n        /* \"#utility.yul\":12591:12596   */\n      0x00\n        /* \"#utility.yul\":12622:12628   */\n      dup2\n        /* \"#utility.yul\":12616:12629   */\n      mload\n        /* \"#utility.yul\":12607:12629   */\n      swap1\n      pop\n        /* \"#utility.yul\":12638:12671   */\n      tag_372\n        /* \"#utility.yul\":12665:12670   */\n      dup2\n        /* \"#utility.yul\":12638:12671   */\n      tag_192\n      jump\t// in\n    tag_372:\n        /* \"#utility.yul\":12534:12677   */\n      swap3\n      swap2\n      pop\n      pop\n      jump\t// out\n        /* \"#utility.yul\":12683:13034   */\n    tag_120:\n        /* \"#utility.yul\":12753:12759   */\n      0x00\n        /* \"#utility.yul\":12802:12804   */\n      0x20\n        /* \"#utility.yul\":12790:12799   */\n      dup3\n        /* \"#utility.yul\":12781:12788   */\n      dup5\n        /* \"#utility.yul\":12777:12800   */\n      sub\n        /* \"#utility.yul\":12773:12805   */\n      slt\n        /* \"#utility.yul\":12770:12889   */\n      iszero\n      tag_374\n      jumpi\n        /* \"#utility.yul\":12808:12887   */\n      tag_375\n      tag_189\n      jump\t// in\n    tag_375:\n        /* \"#utility.yul\":12770:12889   */\n    tag_374:\n        /* \"#utility.yul\":12928:12929   */\n      0x00\n        /* \"#utility.yul\":12953:13017   */\n      tag_376\n        /* \"#utility.yul\":13009:13016   */\n      dup5\n        /* \"#utility.yul\":13000:13006   */\n      dup3\n        /* \"#utility.yul\":12989:12998   */\n      dup6\n        /* \"#utility.yul\":12985:13007   */\n      add\n        /* \"#utility.yul\":12953:13017   */\n      tag_231\n      jump\t// in\n    tag_376:\n        /* \"#utility.yul\":12943:13017   */\n      swap2\n      pop\n        /* \"#utility.yul\":12899:13027   */\n      pop\n        /* \"#utility.yul\":12683:13034   */\n      swap3\n      swap2\n      pop\n      pop\n      jump\t// out\n        /* \"#utility.yul\":13040:13220   */\n    tag_136:\n        /* \"#utility.yul\":13088:13165   */\n      0x4e487b7100000000000000000000000000000000000000000000000000000000\n        /* \"#utility.yul\":13085:13086   */\n      0x00\n        /* \"#utility.yul\":13078:13166   */\n      mstore\n        /* \"#utility.yul\":13185:13189   */\n      0x32\n        /* \"#utility.yul\":13182:13183   */\n      0x04\n        /* \"#utility.yul\":13175:13190   */\n      mstore\n        /* \"#utility.yul\":13209:13213   */\n      0x24\n        /* \"#utility.yul\":13206:13207   */\n      0x00\n        /* \"#utility.yul\":13199:13214   */\n      revert\n        /* \"#utility.yul\":13226:13406   */\n    tag_232:\n        /* \"#utility.yul\":13274:13351   */\n      0x4e487b7100000000000000000000000000000000000000000000000000000000\n        /* \"#utility.yul\":13271:13272   */\n      0x00\n        /* \"#utility.yul\":13264:13352   */\n      mstore\n        /* \"#utility.yul\":13371:13375   */\n      0x12\n        /* \"#utility.yul\":13368:13369   */\n      0x04\n        /* \"#utility.yul\":13361:13376   */\n      mstore\n        /* \"#utility.yul\":13395:13399   */\n      0x24\n        /* \"#utility.yul\":13392:13393   */\n      0x00\n        /* \"#utility.yul\":13385:13400   */\n      revert\n        /* \"#utility.yul\":13412:13588   */\n    tag_140:\n        /* \"#utility.yul\":13444:13445   */\n      0x00\n        /* \"#utility.yul\":13461:13481   */\n      tag_380\n        /* \"#utility.yul\":13479:13480   */\n      dup3\n        /* \"#utility.yul\":13461:13481   */\n      tag_191\n      jump\t// in\n    tag_380:\n        /* \"#utility.yul\":13456:13481   */\n      swap2\n      pop\n        /* \"#utility.yul\":13495:13515   */\n      tag_381\n        /* \"#utility.yul\":13513:13514   */\n      dup4\n        /* \"#utility.yul\":13495:13515   */\n      tag_191\n      jump\t// in\n    tag_381:\n        /* \"#utility.yul\":13490:13515   */\n      swap3\n      pop\n        /* \"#utility.yul\":13534:13535   */\n      dup3\n        /* \"#utility.yul\":13524:13559   */\n      tag_382\n      jumpi\n        /* \"#utility.yul\":13539:13557   */\n      tag_383\n      tag_232\n      jump\t// in\n    tag_383:\n        /* \"#utility.yul\":13524:13559   */\n    tag_382:\n        /* \"#utility.yul\":13580:13581   */\n      dup3\n        /* \"#utility.yul\":13577:13578   */\n      dup3\n        /* \"#utility.yul\":13573:13582   */\n      mod\n        /* \"#utility.yul\":13568:13582   */\n      swap1\n      pop\n        /* \"#utility.yul\":13412:13588   */\n      swap3\n      swap2\n      pop\n      pop\n      jump\t// out\n        /* \"#utility.yul\":13594:13774   */\n    tag_233:\n        /* \"#utility.yul\":13642:13719   */\n      0x4e487b7100000000000000000000000000000000000000000000000000000000\n        /* \"#utility.yul\":13639:13640   */\n      0x00\n        /* \"#utility.yul\":13632:13720   */\n      mstore\n        /* \"#utility.yul\":13739:13743   */\n      0x11\n        /* \"#utility.yul\":13736:13737   */\n      0x04\n        /* \"#utility.yul\":13729:13744   */\n      mstore\n        /* \"#utility.yul\":13763:13767   */\n      0x24\n        /* \"#utility.yul\":13760:13761   */\n      0x00\n        /* \"#utility.yul\":13753:13768   */\n      revert\n        /* \"#utility.yul\":13780:13971   */\n    tag_148:\n        /* \"#utility.yul\":13820:13823   */\n      0x00\n        /* \"#utility.yul\":13839:13859   */\n      tag_386\n        /* \"#utility.yul\":13857:13858   */\n      dup3\n        /* \"#utility.yul\":13839:13859   */\n      tag_191\n      jump\t// in\n    tag_386:\n        /* \"#utility.yul\":13834:13859   */\n      swap2\n      pop\n        /* \"#utility.yul\":13873:13893   */\n      tag_387\n        /* \"#utility.yul\":13891:13892   */\n      dup4\n        /* \"#utility.yul\":13873:13893   */\n      tag_191\n      jump\t// in\n    tag_387:\n        /* \"#utility.yul\":13868:13893   */\n      swap3\n      pop\n        /* \"#utility.yul\":13916:13917   */\n      dup3\n        /* \"#utility.yul\":13913:13914   */\n      dup3\n        /* \"#utility.yul\":13909:13918   */\n      add\n        /* \"#utility.yul\":13902:13918   */\n      swap1\n      pop\n        /* \"#utility.yul\":13937:13940   */\n      dup1\n        /* \"#utility.yul\":13934:13935   */\n      dup3\n        /* \"#utility.yul\":13931:13941   */\n      gt\n        /* \"#utility.yul\":13928:13964   */\n      iszero\n      tag_388\n      jumpi\n        /* \"#utility.yul\":13944:13962   */\n      tag_389\n      tag_233\n      jump\t// in\n    tag_389:\n        /* \"#utility.yul\":13928:13964   */\n    tag_388:\n        /* \"#utility.yul\":13780:13971   */\n      swap3\n      swap2\n      pop\n      pop\n      jump\t// out\n        /* \"#utility.yul\":13977:14063   */\n    tag_234:\n        /* \"#utility.yul\":14012:14019   */\n      0x00\n        /* \"#utility.yul\":14052:14056   */\n      0xff\n        /* \"#utility.yul\":14045:14050   */\n      dup3\n        /* \"#utility.yul\":14041:14057   */\n      and\n        /* \"#utility.yul\":14030:14057   */\n      swap1\n      pop\n        /* \"#utility.yul\":13977:14063   */\n      swap2\n      swap1\n      pop\n      jump\t// out\n        /* \"#utility.yul\":14069:14236   */\n    tag_151:\n        /* \"#utility.yul\":14106:14109   */\n      0x00\n        /* \"#utility.yul\":14129:14151   */\n      tag_392\n        /* \"#utility.yul\":14145:14150   */\n      dup3\n        /* \"#utility.yul\":14129:14151   */\n      tag_234\n      jump\t// in\n    tag_392:\n        /* \"#utility.yul\":14120:14151   */\n      swap2\n      pop\n        /* \"#utility.yul\":14173:14177   */\n      0xff\n        /* \"#utility.yul\":14166:14171   */\n      dup3\n        /* \"#utility.yul\":14163:14178   */\n      sub\n        /* \"#utility.yul\":14160:14201   */\n      tag_393\n      jumpi\n        /* \"#utility.yul\":14181:14199   */\n      tag_394\n      tag_233\n      jump\t// in\n    tag_394:\n        /* \"#utility.yul\":14160:14201   */\n    tag_393:\n        /* \"#utility.yul\":14228:14229   */\n      0x01\n        /* \"#utility.yul\":14221:14226   */\n      dup3\n        /* \"#utility.yul\":14217:14230   */\n      add\n        /* \"#utility.yul\":14210:14230   */\n      swap1\n      pop\n        /* \"#utility.yul\":14069:14236   */\n      swap2\n      swap1\n      pop\n      jump\t// out\n        /* \"#utility.yul\":14242:14396   */\n    tag_235:\n        /* \"#utility.yul\":14382:14388   */\n      0x6974656d00000000000000000000000000000000000000000000000000000000\n        /* \"#utility.yul\":14378:14379   */\n      0x00\n        /* \"#utility.yul\":14370:14376   */\n      dup3\n        /* \"#utility.yul\":14366:14380   */\n      add\n        /* \"#utility.yul\":14359:14389   */\n      mstore\n        /* \"#utility.yul\":14242:14396   */\n      pop\n      jump\t// out\n        /* \"#utility.yul\":14402:14767   */\n    tag_236:\n        /* \"#utility.yul\":14544:14547   */\n      0x00\n        /* \"#utility.yul\":14565:14631   */\n      tag_397\n        /* \"#utility.yul\":14629:14630   */\n      0x04\n        /* \"#utility.yul\":14624:14627   */\n      dup4\n        /* \"#utility.yul\":14565:14631   */\n      tag_217\n      jump\t// in\n    tag_397:\n        /* \"#utility.yul\":14558:14631   */\n      swap2\n      pop\n        /* \"#utility.yul\":14640:14733   */\n      tag_398\n        /* \"#utility.yul\":14729:14732   */\n      dup3\n        /* \"#utility.yul\":14640:14733   */\n      tag_235\n      jump\t// in\n    tag_398:\n        /* \"#utility.yul\":14758:14760   */\n      0x20\n        /* \"#utility.yul\":14753:14756   */\n      dup3\n        /* \"#utility.yul\":14749:14761   */\n      add\n        /* \"#utility.yul\":14742:14761   */\n      swap1\n      pop\n        /* \"#utility.yul\":14402:14767   */\n      swap2\n      swap1\n      pop\n      jump\t// out\n        /* \"#utility.yul\":14773:15302   */\n    tag_156:\n        /* \"#utility.yul\":14967:14971   */\n      0x00\n        /* \"#utility.yul\":15005:15007   */\n      0x40\n        /* \"#utility.yul\":14994:15003   */\n      dup3\n        /* \"#utility.yul\":14990:15008   */\n      add\n        /* \"#utility.yul\":14982:15008   */\n      swap1\n      pop\n        /* \"#utility.yul\":15018:15089   */\n      tag_400\n        /* \"#utility.yul\":15086:15087   */\n      0x00\n        /* \"#utility.yul\":15075:15084   */\n      dup4\n        /* \"#utility.yul\":15071:15088   */\n      add\n        /* \"#utility.yul\":15062:15068   */\n      dup5\n        /* \"#utility.yul\":15018:15089   */\n      tag_201\n      jump\t// in\n    tag_400:\n        /* \"#utility.yul\":15136:15145   */\n      dup2\n        /* \"#utility.yul\":15130:15134   */\n      dup2\n        /* \"#utility.yul\":15126:15146   */\n      sub\n        /* \"#utility.yul\":15121:15123   */\n      0x20\n        /* \"#utility.yul\":15110:15119   */\n      dup4\n        /* \"#utility.yul\":15106:15124   */\n      add\n        /* \"#utility.yul\":15099:15147   */\n      mstore\n        /* \"#utility.yul\":15164:15295   */\n      tag_401\n        /* \"#utility.yul\":15290:15294   */\n      dup2\n        /* \"#utility.yul\":15164:15295   */\n      tag_236\n      jump\t// in\n    tag_401:\n        /* \"#utility.yul\":15156:15295   */\n      swap1\n      pop\n        /* \"#utility.yul\":14773:15302   */\n      swap3\n      swap2\n      pop\n      pop\n      jump\t// out\n        /* \"#utility.yul\":15308:15502   */\n    tag_162:\n        /* \"#utility.yul\":15348:15352   */\n      0x00\n        /* \"#utility.yul\":15368:15388   */\n      tag_403\n        /* \"#utility.yul\":15386:15387   */\n      dup3\n        /* \"#utility.yul\":15368:15388   */\n      tag_191\n      jump\t// in\n    tag_403:\n        /* \"#utility.yul\":15363:15388   */\n      swap2\n      pop\n        /* \"#utility.yul\":15402:15422   */\n      tag_404\n        /* \"#utility.yul\":15420:15421   */\n      dup4\n        /* \"#utility.yul\":15402:15422   */\n      tag_191\n      jump\t// in\n    tag_404:\n        /* \"#utility.yul\":15397:15422   */\n      swap3\n      pop\n        /* \"#utility.yul\":15446:15447   */\n      dup3\n        /* \"#utility.yul\":15443:15444   */\n      dup3\n        /* \"#utility.yul\":15439:15448   */\n      sub\n        /* \"#utility.yul\":15431:15448   */\n      swap1\n      pop\n        /* \"#utility.yul\":15470:15471   */\n      dup2\n        /* \"#utility.yul\":15464:15468   */\n      dup2\n        /* \"#utility.yul\":15461:15472   */\n      gt\n        /* \"#utility.yul\":15458:15495   */\n      iszero\n      tag_405\n      jumpi\n        /* \"#utility.yul\":15475:15493   */\n      tag_406\n      tag_233\n      jump\t// in\n    tag_406:\n        /* \"#utility.yul\":15458:15495   */\n    tag_405:\n        /* \"#utility.yul\":15308:15502   */\n      swap3\n      swap2\n      pop\n      pop\n      jump\t// out\n        /* \"#utility.yul\":15508:15688   */\n    tag_172:\n        /* \"#utility.yul\":15556:15633   */\n      0x4e487b7100000000000000000000000000000000000000000000000000000000\n        /* \"#utility.yul\":15553:15554   */\n      0x00\n        /* \"#utility.yul\":15546:15634   */\n      mstore\n        /* \"#utility.yul\":15653:15657   */\n      0x31\n        /* \"#utility.yul\":15650:15651   */\n      0x04\n        /* \"#utility.yul\":15643:15658   */\n      mstore\n        /* \"#utility.yul\":15677:15681   */\n      0x24\n        /* \"#utility.yul\":15674:15675   */\n      0x00\n        /* \"#utility.yul\":15667:15682   */\n      revert\n        /* \"#utility.yul\":15694:15865   */\n    tag_175:\n        /* \"#utility.yul\":15733:15736   */\n      0x00\n        /* \"#utility.yul\":15756:15780   */\n      tag_409\n        /* \"#utility.yul\":15774:15779   */\n      dup3\n        /* \"#utility.yul\":15756:15780   */\n      tag_191\n      jump\t// in\n    tag_409:\n        /* \"#utility.yul\":15747:15780   */\n      swap2\n      pop\n        /* \"#utility.yul\":15802:15806   */\n      0x00\n        /* \"#utility.yul\":15795:15800   */\n      dup3\n        /* \"#utility.yul\":15792:15807   */\n      sub\n        /* \"#utility.yul\":15789:15830   */\n      tag_410\n      jumpi\n        /* \"#utility.yul\":15810:15828   */\n      tag_411\n      tag_233\n      jump\t// in\n    tag_411:\n        /* \"#utility.yul\":15789:15830   */\n    tag_410:\n        /* \"#utility.yul\":15857:15858   */\n      0x01\n        /* \"#utility.yul\":15850:15855   */\n      dup3\n        /* \"#utility.yul\":15846:15859   */\n      sub\n        /* \"#utility.yul\":15839:15859   */\n      swap1\n      pop\n        /* \"#utility.yul\":15694:15865   */\n      swap2\n      swap1\n      pop\n      jump\t// out\n        /* \"#utility.yul\":15871:16040   */\n    tag_177:\n        /* \"#utility.yul\":15909:15912   */\n      0x00\n        /* \"#utility.yul\":15932:15955   */\n      tag_413\n        /* \"#utility.yul\":15949:15954   */\n      dup3\n        /* \"#utility.yul\":15932:15955   */\n      tag_206\n      jump\t// in\n    tag_413:\n        /* \"#utility.yul\":15923:15955   */\n      swap2\n      pop\n        /* \"#utility.yul\":15977:15981   */\n      0x00\n        /* \"#utility.yul\":15970:15975   */\n      dup3\n        /* \"#utility.yul\":15967:15982   */\n      sub\n        /* \"#utility.yul\":15964:16005   */\n      tag_414\n      jumpi\n        /* \"#utility.yul\":15985:16003   */\n      tag_415\n      tag_233\n      jump\t// in\n    tag_415:\n        /* \"#utility.yul\":15964:16005   */\n    tag_414:\n        /* \"#utility.yul\":16032:16033   */\n      0x01\n        /* \"#utility.yul\":16025:16030   */\n      dup3\n        /* \"#utility.yul\":16021:16034   */\n      sub\n        /* \"#utility.yul\":16014:16034   */\n      swap1\n      pop\n        /* \"#utility.yul\":15871:16040   */\n      swap2\n      swap1\n      pop\n      jump\t// out\n        /* \"#utility.yul\":16046:16158   */\n    tag_237:\n        /* \"#utility.yul\":16129:16151   */\n      tag_417\n        /* \"#utility.yul\":16145:16150   */\n      dup2\n        /* \"#utility.yul\":16129:16151   */\n      tag_234\n      jump\t// in\n    tag_417:\n        /* \"#utility.yul\":16124:16127   */\n      dup3\n        /* \"#utility.yul\":16117:16152   */\n      mstore\n        /* \"#utility.yul\":16046:16158   */\n      pop\n      pop\n      jump\t// out\n        /* \"#utility.yul\":16164:16488   */\n    tag_179:\n        /* \"#utility.yul\":16281:16285   */\n      0x00\n        /* \"#utility.yul\":16319:16321   */\n      0x40\n        /* \"#utility.yul\":16308:16317   */\n      dup3\n        /* \"#utility.yul\":16304:16322   */\n      add\n        /* \"#utility.yul\":16296:16322   */\n      swap1\n      pop\n        /* \"#utility.yul\":16332:16399   */\n      tag_419\n        /* \"#utility.yul\":16396:16397   */\n      0x00\n        /* \"#utility.yul\":16385:16394   */\n      dup4\n        /* \"#utility.yul\":16381:16398   */\n      add\n        /* \"#utility.yul\":16372:16378   */\n      dup6\n        /* \"#utility.yul\":16332:16399   */\n      tag_237\n      jump\t// in\n    tag_419:\n        /* \"#utility.yul\":16409:16481   */\n      tag_420\n        /* \"#utility.yul\":16477:16479   */\n      0x20\n        /* \"#utility.yul\":16466:16475   */\n      dup4\n        /* \"#utility.yul\":16462:16480   */\n      add\n        /* \"#utility.yul\":16453:16459   */\n      dup5\n        /* \"#utility.yul\":16409:16481   */\n      tag_201\n      jump\t// in\n    tag_420:\n        /* \"#utility.yul\":16164:16488   */\n      swap4\n      swap3\n      pop\n      pop\n      pop\n      jump\t// out\n        /* \"#utility.yul\":16494:16666   */\n    tag_238:\n        /* \"#utility.yul\":16634:16658   */\n      0x4f6e6c792063616c6c61626c65206279206f776e657200000000000000000000\n        /* \"#utility.yul\":16630:16631   */\n      0x00\n        /* \"#utility.yul\":16622:16628   */\n      dup3\n        /* \"#utility.yul\":16618:16632   */\n      add\n        /* \"#utility.yul\":16611:16659   */\n      mstore\n        /* \"#utility.yul\":16494:16666   */\n      pop\n      jump\t// out\n        /* \"#utility.yul\":16672:17038   */\n    tag_239:\n        /* \"#utility.yul\":16814:16817   */\n      0x00\n        /* \"#utility.yul\":16835:16902   */\n      tag_423\n        /* \"#utility.yul\":16899:16901   */\n      0x16\n        /* \"#utility.yul\":16894:16897   */\n      dup4\n        /* \"#utility.yul\":16835:16902   */\n      tag_217\n      jump\t// in\n    tag_423:\n        /* \"#utility.yul\":16828:16902   */\n      swap2\n      pop\n        /* \"#utility.yul\":16911:17004   */\n      tag_424\n        /* \"#utility.yul\":17000:17003   */\n      dup3\n        /* \"#utility.yul\":16911:17004   */\n      tag_238\n      jump\t// in\n    tag_424:\n        /* \"#utility.yul\":17029:17031   */\n      0x20\n        /* \"#utility.yul\":17024:17027   */\n      dup3\n        /* \"#utility.yul\":17020:17032   */\n      add\n        /* \"#utility.yul\":17013:17032   */\n      swap1\n      pop\n        /* \"#utility.yul\":16672:17038   */\n      swap2\n      swap1\n      pop\n      jump\t// out\n        /* \"#utility.yul\":17044:17463   */\n    tag_183:\n        /* \"#utility.yul\":17210:17214   */\n      0x00\n        /* \"#utility.yul\":17248:17250   */\n      0x20\n        /* \"#utility.yul\":17237:17246   */\n      dup3\n        /* \"#utility.yul\":17233:17251   */\n      add\n        /* \"#utility.yul\":17225:17251   */\n      swap1\n      pop\n        /* \"#utility.yul\":17297:17306   */\n      dup2\n        /* \"#utility.yul\":17291:17295   */\n      dup2\n        /* \"#utility.yul\":17287:17307   */\n      sub\n        /* \"#utility.yul\":17283:17284   */\n      0x00\n        /* \"#utility.yul\":17272:17281   */\n      dup4\n        /* \"#utility.yul\":17268:17285   */\n      add\n        /* \"#utility.yul\":17261:17308   */\n      mstore\n        /* \"#utility.yul\":17325:17456   */\n      tag_426\n        /* \"#utility.yul\":17451:17455   */\n      dup2\n        /* \"#utility.yul\":17325:17456   */\n      tag_239\n      jump\t// in\n    tag_426:\n        /* \"#utility.yul\":17317:17456   */\n      swap1\n      pop\n        /* \"#utility.yul\":17044:17463   */\n      swap2\n      swap1\n      pop\n      jump\t// out\n        /* \"#utility.yul\":17469:17642   */\n    tag_240:\n        /* \"#utility.yul\":17609:17634   */\n      0x43616e6e6f74207472616e7366657220746f2073656c66000000000000000000\n        /* \"#utility.yul\":17605:17606   */\n      0x00\n        /* \"#utility.yul\":17597:17603   */\n      dup3\n        /* \"#utility.yul\":17593:17607   */\n      add\n        /* \"#utility.yul\":17586:17635   */\n      mstore\n        /* \"#utility.yul\":17469:17642   */\n      pop\n      jump\t// out\n        /* \"#utility.yul\":17648:18014   */\n    tag_241:\n        /* \"#utility.yul\":17790:17793   */\n      0x00\n        /* \"#utility.yul\":17811:17878   */\n      tag_429\n        /* \"#utility.yul\":17875:17877   */\n      0x17\n        /* \"#utility.yul\":17870:17873   */\n      dup4\n        /* \"#utility.yul\":17811:17878   */\n      tag_217\n      jump\t// in\n    tag_429:\n        /* \"#utility.yul\":17804:17878   */\n      swap2\n      pop\n        /* \"#utility.yul\":17887:17980   */\n      tag_430\n        /* \"#utility.yul\":17976:17979   */\n      dup3\n        /* \"#utility.yul\":17887:17980   */\n      tag_240\n      jump\t// in\n    tag_430:\n        /* \"#utility.yul\":18005:18007   */\n      0x20\n        /* \"#utility.yul\":18000:18003   */\n      dup3\n        /* \"#utility.yul\":17996:18008   */\n      add\n        /* \"#utility.yul\":17989:18008   */\n      swap1\n      pop\n        /* \"#utility.yul\":17648:18014   */\n      swap2\n      swap1\n      pop\n      jump\t// out\n        /* \"#utility.yul\":18020:18439   */\n    tag_187:\n        /* \"#utility.yul\":18186:18190   */\n      0x00\n        /* \"#utility.yul\":18224:18226   */\n      0x20\n        /* \"#utility.yul\":18213:18222   */\n      dup3\n        /* \"#utility.yul\":18209:18227   */\n      add\n        /* \"#utility.yul\":18201:18227   */\n      swap1\n      pop\n        /* \"#utility.yul\":18273:18282   */\n      dup2\n        /* \"#utility.yul\":18267:18271   */\n      dup2\n        /* \"#utility.yul\":18263:18283   */\n      sub\n        /* \"#utility.yul\":18259:18260   */\n      0x00\n        /* \"#utility.yul\":18248:18257   */\n      dup4\n        /* \"#utility.yul\":18244:18261   */\n      add\n        /* \"#utility.yul\":18237:18284   */\n      mstore\n        /* \"#utility.yul\":18301:18432   */\n      tag_432\n        /* \"#utility.yul\":18427:18431   */\n      dup2\n        /* \"#utility.yul\":18301:18432   */\n      tag_241\n      jump\t// in\n    tag_432:\n        /* \"#utility.yul\":18293:18432   */\n      swap1\n      pop\n        /* \"#utility.yul\":18020:18439   */\n      swap2\n      swap1\n      pop\n      jump\t// out\n\n    auxdata: 0xa2646970667358221220417ef0791e1d9576f842d774629022420d051eeba69ddb6f24d0517fbfe423d964736f6c634300081e0033\n}\n",
				"bytecode": {
					"linkReferences": {},
					"object": "6080604052739ddfaca8183c41ad55329bdeed9f6a8d53168b1b60045f6101000a81548173ffffffffffffffffffffffffffffffffffffffff021916908373ffffffffffffffffffffffffffffffffffffffff1602179055507f787d74caea10b2b357790d5b5247c2f63d1d91572a9846f780606e4d953677ae5f1b60055562030d4060075f6101000a81548163ffffffff021916908363ffffffff1602179055506003600760046101000a81548161ffff021916908361ffff1602179055506001600760066101000a81548163ffffffff021916908363ffffffff1602179055503480156100ec575f5ffd5b50604051611f54380380611f54833981810160405281019061010e919061049c565b60045f9054906101000a900473ffffffffffffffffffffffffffffffffffffffff1633805f5f73ffffffffffffffffffffffffffffffffffffffff168273ffffffffffffffffffffffffffffffffffffffff16036101a1576040517f08c379a000000000000000000000000000000000000000000000000000000000815260040161019890610521565b60405180910390fd5b815f5f6101000a81548173ffffffffffffffffffffffffffffffffffffffff021916908373ffffffffffffffffffffffffffffffffffffffff1602179055505f73ffffffffffffffffffffffffffffffffffffffff168173ffffffffffffffffffffffffffffffffffffffff1614610223576102228161033a60201b60201c565b5b5050505f73ffffffffffffffffffffffffffffffffffffffff168173ffffffffffffffffffffffffffffffffffffffff160361028b576040517fd92e233d00000000000000000000000000000000000000000000000000000000815260040160405180910390fd5b8060025f6101000a81548173ffffffffffffffffffffffffffffffffffffffff021916908373ffffffffffffffffffffffffffffffffffffffff1602179055505060045f9054906101000a900473ffffffffffffffffffffffffffffffffffffffff1660035f6101000a81548173ffffffffffffffffffffffffffffffffffffffff021916908373ffffffffffffffffffffffffffffffffffffffff16021790555080600681905550506105a7565b3373ffffffffffffffffffffffffffffffffffffffff168173ffffffffffffffffffffffffffffffffffffffff16036103a8576040517f08c379a000000000000000000000000000000000000000000000000000000000815260040161039f90610589565b60405180910390fd5b8060015f6101000a81548173ffffffffffffffffffffffffffffffffffffffff021916908373ffffffffffffffffffffffffffffffffffffffff1602179055508073ffffffffffffffffffffffffffffffffffffffff165f5f9054906101000a900473ffffffffffffffffffffffffffffffffffffffff1673ffffffffffffffffffffffffffffffffffffffff167fed8889f560326eb138920d842192f0eb3dd22b4f139c87a2c57538e05bae127860405160405180910390a350565b5f5ffd5b5f819050919050565b61047b81610469565b8114610485575f5ffd5b50565b5f8151905061049681610472565b92915050565b5f602082840312156104b1576104b0610465565b5b5f6104be84828501610488565b91505092915050565b5f82825260208201905092915050565b7f43616e6e6f7420736574206f776e657220746f207a65726f00000000000000005f82015250565b5f61050b6018836104c7565b9150610516826104d7565b602082019050919050565b5f6020820190508181035f830152610538816104ff565b9050919050565b7f43616e6e6f74207472616e7366657220746f2073656c660000000000000000005f82015250565b5f6105736017836104c7565b915061057e8261053f565b602082019050919050565b5f6020820190508181035f8301526105a081610567565b9050919050565b6119a0806105b45f395ff3fe6080604052600436106100dc575f3560e01c80638da5cb5b1161007e578063b0fb162f11610058578063b0fb162f14610286578063d8a54360146102b0578063e0c86289146102da578063f2fde38b14610304576100dc565b80638da5cb5b1461020a5780638ea98117146102345780639eccacf61461025c576100dc565b8063479507bb116100ba578063479507bb1461017057806379ba50971461018e5780637ccfd7fc146101a4578063817dbe9f146101ce576100dc565b80630b0c1493146100e05780631fe543e31461011e57806324f7469714610146575b5f5ffd5b3480156100eb575f5ffd5b506101066004803603810190610101919061106e565b61032c565b6040516101159392919061115a565b60405180910390f35b348015610129575f5ffd5b50610144600480360381019061013f91906111f0565b61037d565b005b348015610151575f5ffd5b5061015a610441565b604051610167919061126b565b60405180910390f35b610178610456565b6040516101859190611284565b60405180910390f35b348015610199575f5ffd5b506101a261057d565b005b3480156101af575f5ffd5b506101b861070c565b6040516101c5919061126b565b60405180910390f35b3480156101d9575f5ffd5b506101f460048036038101906101ef919061106e565b610722565b6040516102019190611284565b60405180910390f35b348015610215575f5ffd5b5061021e61074c565b60405161022b919061129d565b60405180910390f35b34801561023f575f5ffd5b5061025a600480360381019061025591906112e0565b610773565b005b348015610267575f5ffd5b50610270610950565b60405161027d9190611366565b60405180910390f35b348015610291575f5ffd5b5061029a610975565b6040516102a7919061139b565b60405180910390f35b3480156102bb575f5ffd5b506102c4610989565b6040516102d1919061126b565b60405180910390f35b3480156102e5575f5ffd5b506102ee61099e565b6040516102fb9190611284565b60405180910390f35b34801561030f575f5ffd5b5061032a600480360381019061032591906112e0565b610b17565b005b600a602052805f5260405f205f91509050805f015f9054906101000a900460ff1690805f0160019054906101000a900473ffffffffffffffffffffffffffffffffffffffff16908060010154905083565b60025f9054906101000a900473ffffffffffffffffffffffffffffffffffffffff1673ffffffffffffffffffffffffffffffffffffffff163373ffffffffffffffffffffffffffffffffffffffff1614610431573360025f9054906101000a900473ffffffffffffffffffffffffffffffffffffffff166040517f1cf993f40000000000000000000000000000000000000000000000000000000081526004016104289291906113b4565b60405180910390fd5b61043c838383610b2b565b505050565b60075f9054906101000a900463ffffffff1681565b5f61045f61099e565b90506040518060600160405280600160028111156104805761047f611099565b5b81526020013373ffffffffffffffffffffffffffffffffffffffff1681526020015f815250600a5f8381526020019081526020015f205f820151815f015f6101000a81548160ff021916908360028111156104de576104dd611099565b5b02179055506020820151815f0160016101000a81548173ffffffffffffffffffffffffffffffffffffffff021916908373ffffffffffffffffffffffffffffffffffffffff16021790555060408201518160010155905050803373ffffffffffffffffffffffffffffffffffffffff167f829b852df67cbb2db43aef2060c62af61832e9d4265448bf45e21999445b38f860405160405180910390a390565b60015f9054906101000a900473ffffffffffffffffffffffffffffffffffffffff1673ffffffffffffffffffffffffffffffffffffffff163373ffffffffffffffffffffffffffffffffffffffff161461060c576040517f08c379a000000000000000000000000000000000000000000000000000000000815260040161060390611435565b60405180910390fd5b5f5f5f9054906101000a900473ffffffffffffffffffffffffffffffffffffffff169050335f5f6101000a81548173ffffffffffffffffffffffffffffffffffffffff021916908373ffffffffffffffffffffffffffffffffffffffff1602179055505f60015f6101000a81548173ffffffffffffffffffffffffffffffffffffffff021916908373ffffffffffffffffffffffffffffffffffffffff1602179055503373ffffffffffffffffffffffffffffffffffffffff168173ffffffffffffffffffffffffffffffffffffffff167f8be0079c531659141344cd1fd0a4f28419497f9722a3daafe3b4186f6b6457e060405160405180910390a350565b600760069054906101000a900463ffffffff1681565b60088181548110610731575f80fd5b905f5260205f2090600302015f915090508060020154905081565b5f5f5f9054906101000a900473ffffffffffffffffffffffffffffffffffffffff16905090565b61077b61074c565b73ffffffffffffffffffffffffffffffffffffffff163373ffffffffffffffffffffffffffffffffffffffff1614158015610803575060025f9054906101000a900473ffffffffffffffffffffffffffffffffffffffff1673ffffffffffffffffffffffffffffffffffffffff163373ffffffffffffffffffffffffffffffffffffffff1614155b15610871573361081161074c565b60025f9054906101000a900473ffffffffffffffffffffffffffffffffffffffff166040517f061db9c100000000000000000000000000000000000000000000000000000000815260040161086893929190611453565b60405180910390fd5b5f73ffffffffffffffffffffffffffffffffffffffff168173ffffffffffffffffffffffffffffffffffffffff16036108d6576040517fd92e233d00000000000000000000000000000000000000000000000000000000815260040160405180910390fd5b8060025f6101000a81548173ffffffffffffffffffffffffffffffffffffffff021916908373ffffffffffffffffffffffffffffffffffffffff1602179055507fd1a6a14209a385a964d036e404cb5cfb71f4000cdb03c9366292430787261be681604051610945919061129d565b60405180910390a150565b60025f9054906101000a900473ffffffffffffffffffffffffffffffffffffffff1681565b600760049054906101000a900461ffff1681565b60095f9054906101000a900463ffffffff1681565b5f5f6040518060c0016040528060055481526020016006548152602001600760049054906101000a900461ffff1661ffff16815260200160075f9054906101000a900463ffffffff1663ffffffff168152602001600760069054906101000a900463ffffffff1663ffffffff16815260200160405180602001604052805f81525081525090505f60035f9054906101000a900473ffffffffffffffffffffffffffffffffffffffff1673ffffffffffffffffffffffffffffffffffffffff16639b1c385e836040518263ffffffff1660e01b8152600401610a7f91906115c3565b6020604051808303815f875af1158015610a9b573d5f5f3e3d5ffd5b505050506040513d601f19601f82011682018060405250810190610abf91906115f7565b90503373ffffffffffffffffffffffffffffffffffffffff167f9d5ec813554188f51cff7ea82cda0c2e6a4006398b558e6d834f0fd6ead830a182604051610b079190611284565b60405180910390a2809250505090565b610b1f610e78565b610b2881610f08565b50565b5f600a5f8581526020019081526020015f20905060016002811115610b5357610b52611099565b5b815f015f9054906101000a900460ff166002811115610b7557610b74611099565b5b14610bac576040517f3ae8468300000000000000000000000000000000000000000000000000000000815260040160405180910390fd5b82825f818110610bbf57610bbe611622565b5b9050602002013581600101819055505f60095f9054906101000a900463ffffffff1663ffffffff1684845f818110610bfa57610bf9611622565b5b90506020020135610c0b919061167c565b90505f5f5f90505f5f90505b6008805490508160ff161015610c7e5760088160ff1681548110610c3e57610c3d611622565b5b905f5260205f2090600302016002015482610c5991906116d9565b915081841015610c6b57809250610c7e565b8080610c7690611718565b915050610c17565b505f60088360ff1681548110610c9757610c96611622565b5b905f5260205f20906003020190505f816002015485604051602001610cbc919061178a565b604051602081830303815290604052805190602001205f1c610cde919061167c565b90505f825f018281548110610cf657610cf5611622565b5b905f5260205f20015490505f60018460020154610d1391906117b6565b9050808314610d79575f845f018281548110610d3257610d31611622565b5b905f5260205f200154905080855f018581548110610d5357610d52611622565b5b905f5260205f20018190555083856001015f8481526020019081526020015f2081905550505b835f01805480610d8c57610d8b6117e9565b5b600190038181905f5260205f20015f90559055836002015f815480929190610db390611816565b919050555060095f81819054906101000a900463ffffffff1680929190610dd99061183d565b91906101000a81548163ffffffff021916908363ffffffff16021790555050875f0160019054906101000a900473ffffffffffffffffffffffffffffffffffffffff1673ffffffffffffffffffffffffffffffffffffffff167fd31e7b1d79939371e7798a848d42f7d82520809c1a228cf8de4578c501c4b1818784604051610e63929190611873565b60405180910390a25050505050505050505050565b5f5f9054906101000a900473ffffffffffffffffffffffffffffffffffffffff1673ffffffffffffffffffffffffffffffffffffffff163373ffffffffffffffffffffffffffffffffffffffff1614610f06576040517f08c379a0000000000000000000000000000000000000000000000000000000008152600401610efd906118e4565b60405180910390fd5b565b3373ffffffffffffffffffffffffffffffffffffffff168173ffffffffffffffffffffffffffffffffffffffff1603610f76576040517f08c379a0000000000000000000000000000000000000000000000000000000008152600401610f6d9061194c565b60405180910390fd5b8060015f6101000a81548173ffffffffffffffffffffffffffffffffffffffff021916908373ffffffffffffffffffffffffffffffffffffffff1602179055508073ffffffffffffffffffffffffffffffffffffffff165f5f9054906101000a900473ffffffffffffffffffffffffffffffffffffffff1673ffffffffffffffffffffffffffffffffffffffff167fed8889f560326eb138920d842192f0eb3dd22b4f139c87a2c57538e05bae127860405160405180910390a350565b5f5ffd5b5f5ffd5b5f819050919050565b61104d8161103b565b8114611057575f5ffd5b50565b5f8135905061106881611044565b92915050565b5f6020828403121561108357611082611033565b5b5f6110908482850161105a565b91505092915050565b7f4e487b71000000000000000000000000000000000000000000000000000000005f52602160045260245ffd5b600381106110d7576110d6611099565b5b50565b5f8190506110e7826110c6565b919050565b5f6110f6826110da565b9050919050565b611106816110ec565b82525050565b5f73ffffffffffffffffffffffffffffffffffffffff82169050919050565b5f6111358261110c565b9050919050565b6111458161112b565b82525050565b6111548161103b565b82525050565b5f60608201905061116d5f8301866110fd565b61117a602083018561113c565b611187604083018461114b565b949350505050565b5f5ffd5b5f5ffd5b5f5ffd5b5f5f83601f8401126111b0576111af61118f565b5b8235905067ffffffffffffffff8111156111cd576111cc611193565b5b6020830191508360208202830111156111e9576111e8611197565b5b9250929050565b5f5f5f6040848603121561120757611206611033565b5b5f6112148682870161105a565b935050602084013567ffffffffffffffff81111561123557611234611037565b5b6112418682870161119b565b92509250509250925092565b5f63ffffffff82169050919050565b6112658161124d565b82525050565b5f60208201905061127e5f83018461125c565b92915050565b5f6020820190506112975f83018461114b565b92915050565b5f6020820190506112b05f83018461113c565b92915050565b6112bf8161112b565b81146112c9575f5ffd5b50565b5f813590506112da816112b6565b92915050565b5f602082840312156112f5576112f4611033565b5b5f611302848285016112cc565b91505092915050565b5f819050919050565b5f61132e6113296113248461110c565b61130b565b61110c565b9050919050565b5f61133f82611314565b9050919050565b5f61135082611335565b9050919050565b61136081611346565b82525050565b5f6020820190506113795f830184611357565b92915050565b5f61ffff82169050919050565b6113958161137f565b82525050565b5f6020820190506113ae5f83018461138c565b92915050565b5f6040820190506113c75f83018561113c565b6113d4602083018461113c565b9392505050565b5f82825260208201905092915050565b7f4d7573742062652070726f706f736564206f776e6572000000000000000000005f82015250565b5f61141f6016836113db565b915061142a826113eb565b602082019050919050565b5f6020820190508181035f83015261144c81611413565b9050919050565b5f6060820190506114665f83018661113c565b611473602083018561113c565b611480604083018461113c565b949350505050565b5f819050919050565b61149a81611488565b82525050565b6114a98161103b565b82525050565b6114b88161137f565b82525050565b6114c78161124d565b82525050565b5f81519050919050565b5f82825260208201905092915050565b8281835e5f83830152505050565b5f601f19601f8301169050919050565b5f61150f826114cd565b61151981856114d7565b93506115298185602086016114e7565b611532816114f5565b840191505092915050565b5f60c083015f8301516115525f860182611491565b50602083015161156560208601826114a0565b50604083015161157860408601826114af565b50606083015161158b60608601826114be565b50608083015161159e60808601826114be565b5060a083015184820360a08601526115b68282611505565b9150508091505092915050565b5f6020820190508181035f8301526115db818461153d565b905092915050565b5f815190506115f181611044565b92915050565b5f6020828403121561160c5761160b611033565b5b5f611619848285016115e3565b91505092915050565b7f4e487b71000000000000000000000000000000000000000000000000000000005f52603260045260245ffd5b7f4e487b71000000000000000000000000000000000000000000000000000000005f52601260045260245ffd5b5f6116868261103b565b91506116918361103b565b9250826116a1576116a061164f565b5b828206905092915050565b7f4e487b71000000000000000000000000000000000000000000000000000000005f52601160045260245ffd5b5f6116e38261103b565b91506116ee8361103b565b9250828201905080821115611706576117056116ac565b5b92915050565b5f60ff82169050919050565b5f6117228261170c565b915060ff8203611735576117346116ac565b5b600182019050919050565b7f6974656d000000000000000000000000000000000000000000000000000000005f82015250565b5f6117746004836113db565b915061177f82611740565b602082019050919050565b5f60408201905061179d5f83018461114b565b81810360208301526117ae81611768565b905092915050565b5f6117c08261103b565b91506117cb8361103b565b92508282039050818111156117e3576117e26116ac565b5b92915050565b7f4e487b71000000000000000000000000000000000000000000000000000000005f52603160045260245ffd5b5f6118208261103b565b91505f8203611832576118316116ac565b5b600182039050919050565b5f6118478261124d565b91505f8203611859576118586116ac565b5b600182039050919050565b61186d8161170c565b82525050565b5f6040820190506118865f830185611864565b611893602083018461114b565b9392505050565b7f4f6e6c792063616c6c61626c65206279206f776e6572000000000000000000005f82015250565b5f6118ce6016836113db565b91506118d98261189a565b602082019050919050565b5f6020820190508181035f8301526118fb816118c2565b9050919050565b7f43616e6e6f74207472616e7366657220746f2073656c660000000000000000005f82015250565b5f6119366017836113db565b915061194182611902565b602082019050919050565b5f6020820190508181035f8301526119638161192a565b905091905056fea2646970667358221220417ef0791e1d9576f842d774629022420d051eeba69ddb6f24d0517fbfe423d964736f6c634300081e0033",
					"opcodes": "PUSH1 0x80 PUSH1 0x40 MSTORE PUSH20 0x9DDFACA8183C41AD55329BDEED9F6A8D53168B1B PUSH1 0x4 PUSH0 PUSH2 0x100 EXP DUP2 SLOAD DUP2 PUSH20 0xFFFFFFFFFFFFFFFFFFFFFFFFFFFFFFFFFFFFFFFF MUL NOT AND SWAP1 DUP4 PUSH20 0xFFFFFFFFFFFFFFFFFFFFFFFFFFFFFFFFFFFFFFFF AND MUL OR SWAP1 SSTORE POP PUSH32 0x787D74CAEA10B2B357790D5B5247C2F63D1D91572A9846F780606E4D953677AE PUSH0 SHL PUSH1 0x5 SSTORE PUSH3 0x30D40 PUSH1 0x7 PUSH0 PUSH2 0x100 EXP DUP2 SLOAD DUP2 PUSH4 0xFFFFFFFF MUL NOT AND SWAP1 DUP4 PUSH4 0xFFFFFFFF AND MUL OR SWAP1 SSTORE POP PUSH1 0x3 PUSH1 0x7 PUSH1 0x4 PUSH2 0x100 EXP DUP2 SLOAD DUP2 PUSH2 0xFFFF MUL NOT AND SWAP1 DUP4 PUSH2 0xFFFF AND MUL OR SWAP1 SSTORE POP PUSH1 0x1 PUSH1 0x7 PUSH1 0x6 PUSH2 0x100 EXP DUP2 SLOAD DUP2 PUSH4 0xFFFFFFFF MUL NOT AND SWAP1 DUP4 PUSH4 0xFFFFFFFF AND MUL OR SWAP1 SSTORE POP CALLVALUE DUP1 ISZERO PUSH2 0xEC JUMPI PUSH0 PUSH0 REVERT JUMPDEST POP PUSH1 0x40 MLOAD PUSH2 0x1F54 CODESIZE SUB DUP1 PUSH2 0x1F54 DUP4 CODECOPY DUP2 DUP2 ADD PUSH1 0x40 MSTORE DUP2 ADD SWAP1 PUSH2 0x10E SWAP2 SWAP1 PUSH2 0x49C JUMP JUMPDEST PUSH1 0x4 PUSH0 SWAP1 SLOAD SWAP1 PUSH2 0x100 EXP SWAP1 DIV PUSH20 0xFFFFFFFFFFFFFFFFFFFFFFFFFFFFFFFFFFFFFFFF AND CALLER DUP1 PUSH0 PUSH0 PUSH20 0xFFFFFFFFFFFFFFFFFFFFFFFFFFFFFFFFFFFFFFFF AND DUP3 PUSH20 0xFFFFFFFFFFFFFFFFFFFFFFFFFFFFFFFFFFFFFFFF AND SUB PUSH2 0x1A1 JUMPI PUSH1 0x40 MLOAD PUSH32 0x8C379A000000000000000000000000000000000000000000000000000000000 DUP2 MSTORE PUSH1 0x4 ADD PUSH2 0x198 SWAP1 PUSH2 0x521 JUMP JUMPDEST PUSH1 0x40 MLOAD DUP1 SWAP2 SUB SWAP1 REVERT JUMPDEST DUP2 PUSH0 PUSH0 PUSH2 0x100 EXP DUP2 SLOAD DUP2 PUSH20 0xFFFFFFFFFFFFFFFFFFFFFFFFFFFFFFFFFFFFFFFF MUL NOT AND SWAP1 DUP4 PUSH20 0xFFFFFFFFFFFFFFFFFFFFFFFFFFFFFFFFFFFFFFFF AND MUL OR SWAP1 SSTORE POP PUSH0 PUSH20 0xFFFFFFFFFFFFFFFFFFFFFFFFFFFFFFFFFFFFFFFF AND DUP2 PUSH20 0xFFFFFFFFFFFFFFFFFFFFFFFFFFFFFFFFFFFFFFFF AND EQ PUSH2 0x223 JUMPI PUSH2 0x222 DUP2 PUSH2 0x33A PUSH1 0x20 SHL PUSH1 0x20 SHR JUMP JUMPDEST JUMPDEST POP POP POP PUSH0 PUSH20 0xFFFFFFFFFFFFFFFFFFFFFFFFFFFFFFFFFFFFFFFF AND DUP2 PUSH20 0xFFFFFFFFFFFFFFFFFFFFFFFFFFFFFFFFFFFFFFFF AND SUB PUSH2 0x28B JUMPI PUSH1 0x40 MLOAD PUSH32 0xD92E233D00000000000000000000000000000000000000000000000000000000 DUP2 MSTORE PUSH1 0x4 ADD PUSH1 0x40 MLOAD DUP1 SWAP2 SUB SWAP1 REVERT JUMPDEST DUP1 PUSH1 0x2 PUSH0 PUSH2 0x100 EXP DUP2 SLOAD DUP2 PUSH20 0xFFFFFFFFFFFFFFFFFFFFFFFFFFFFFFFFFFFFFFFF MUL NOT AND SWAP1 DUP4 PUSH20 0xFFFFFFFFFFFFFFFFFFFFFFFFFFFFFFFFFFFFFFFF AND MUL OR SWAP1 SSTORE POP POP PUSH1 0x4 PUSH0 SWAP1 SLOAD SWAP1 PUSH2 0x100 EXP SWAP1 DIV PUSH20 0xFFFFFFFFFFFFFFFFFFFFFFFFFFFFFFFFFFFFFFFF AND PUSH1 0x3 PUSH0 PUSH2 0x100 EXP DUP2 SLOAD DUP2 PUSH20 0xFFFFFFFFFFFFFFFFFFFFFFFFFFFFFFFFFFFFFFFF MUL NOT AND SWAP1 DUP4 PUSH20 0xFFFFFFFFFFFFFFFFFFFFFFFFFFFFFFFFFFFFFFFF AND MUL OR SWAP1 SSTORE POP DUP1 PUSH1 0x6 DUP2 SWAP1 SSTORE POP POP PUSH2 0x5A7 JUMP JUMPDEST CALLER PUSH20 0xFFFFFFFFFFFFFFFFFFFFFFFFFFFFFFFFFFFFFFFF AND DUP2 PUSH20 0xFFFFFFFFFFFFFFFFFFFFFFFFFFFFFFFFFFFFFFFF AND SUB PUSH2 0x3A8 JUMPI PUSH1 0x40 MLOAD PUSH32 0x8C379A000000000000000000000000000000000000000000000000000000000 DUP2 MSTORE PUSH1 0x4 ADD PUSH2 0x39F SWAP1 PUSH2 0x589 JUMP JUMPDEST PUSH1 0x40 MLOAD DUP1 SWAP2 SUB SWAP1 REVERT JUMPDEST DUP1 PUSH1 0x1 PUSH0 PUSH2 0x100 EXP DUP2 SLOAD DUP2 PUSH20 0xFFFFFFFFFFFFFFFFFFFFFFFFFFFFFFFFFFFFFFFF MUL NOT AND SWAP1 DUP4 PUSH20 0xFFFFFFFFFFFFFFFFFFFFFFFFFFFFFFFFFFFFFFFF AND MUL OR SWAP1 SSTORE POP DUP1 PUSH20 0xFFFFFFFFFFFFFFFFFFFFFFFFFFFFFFFFFFFFFFFF AND PUSH0 PUSH0 SWAP1 SLOAD SWAP1 PUSH2 0x100 EXP SWAP1 DIV PUSH20 0xFFFFFFFFFFFFFFFFFFFFFFFFFFFFFFFFFFFFFFFF AND PUSH20 0xFFFFFFFFFFFFFFFFFFFFFFFFFFFFFFFFFFFFFFFF AND PUSH32 0xED8889F560326EB138920D842192F0EB3DD22B4F139C87A2C57538E05BAE1278 PUSH1 0x40 MLOAD PUSH1 0x40 MLOAD DUP1 SWAP2 SUB SWAP1 LOG3 POP JUMP JUMPDEST PUSH0 PUSH0 REVERT JUMPDEST PUSH0 DUP2 SWAP1 POP SWAP2 SWAP1 POP JUMP JUMPDEST PUSH2 0x47B DUP2 PUSH2 0x469 JUMP JUMPDEST DUP2 EQ PUSH2 0x485 JUMPI PUSH0 PUSH0 REVERT JUMPDEST POP JUMP JUMPDEST PUSH0 DUP2 MLOAD SWAP1 POP PUSH2 0x496 DUP2 PUSH2 0x472 JUMP JUMPDEST SWAP3 SWAP2 POP POP JUMP JUMPDEST PUSH0 PUSH1 0x20 DUP3 DUP5 SUB SLT ISZERO PUSH2 0x4B1 JUMPI PUSH2 0x4B0 PUSH2 0x465 JUMP JUMPDEST JUMPDEST PUSH0 PUSH2 0x4BE DUP5 DUP3 DUP6 ADD PUSH2 0x488 JUMP JUMPDEST SWAP2 POP POP SWAP3 SWAP2 POP POP JUMP JUMPDEST PUSH0 DUP3 DUP3 MSTORE PUSH1 0x20 DUP3 ADD SWAP1 POP SWAP3 SWAP2 POP POP JUMP JUMPDEST PUSH32 0x43616E6E6F7420736574206F776E657220746F207A65726F0000000000000000 PUSH0 DUP3 ADD MSTORE POP JUMP JUMPDEST PUSH0 PUSH2 0x50B PUSH1 0x18 DUP4 PUSH2 0x4C7 JUMP JUMPDEST SWAP2 POP PUSH2 0x516 DUP3 PUSH2 0x4D7 JUMP JUMPDEST PUSH1 0x20 DUP3 ADD SWAP1 POP SWAP2 SWAP1 POP JUMP JUMPDEST PUSH0 PUSH1 0x20 DUP3 ADD SWAP1 POP DUP2 DUP2 SUB PUSH0 DUP4 ADD MSTORE PUSH2 0x538 DUP2 PUSH2 0x4FF JUMP JUMPDEST SWAP1 POP SWAP2 SWAP1 POP JUMP JUMPDEST PUSH32 0x43616E6E6F74207472616E7366657220746F2073656C66000000000000000000 PUSH0 DUP3 ADD MSTORE POP JUMP JUMPDEST PUSH0 PUSH2 0x573 PUSH1 0x17 DUP4 PUSH2 0x4C7 JUMP JUMPDEST SWAP2 POP PUSH2 0x57E DUP3 PUSH2 0x53F JUMP JUMPDEST PUSH1 0x20 DUP3 ADD SWAP1 POP SWAP2 SWAP1 POP JUMP JUMPDEST PUSH0 PUSH1 0x20 DUP3 ADD SWAP1 POP DUP2 DUP2 SUB PUSH0 DUP4 ADD MSTORE PUSH2 0x5A0 DUP2 PUSH2 0x567 JUMP JUMPDEST SWAP1 POP SWAP2 SWAP1 POP JUMP JUMPDEST PUSH2 0x19A0 DUP1 PUSH2 0x5B4 PUSH0 CODECOPY PUSH0 RETURN INVALID PUSH1 0x80 PUSH1 0x40 MSTORE PUSH1 0x4 CALLDATASIZE LT PUSH2 0xDC JUMPI PUSH0 CALLDATALOAD PUSH1 0xE0 SHR DUP1 PUSH4 0x8DA5CB5B GT PUSH2 0x7E JUMPI DUP1 PUSH4 0xB0FB162F GT PUSH2 0x58 JUMPI DUP1 PUSH4 0xB0FB162F EQ PUSH2 0x286 JUMPI DUP1 PUSH4 0xD8A54360 EQ PUSH2 0x2B0 JUMPI DUP1 PUSH4 0xE0C86289 EQ PUSH2 0x2DA JUMPI DUP1 PUSH4 0xF2FDE38B EQ PUSH2 0x304 JUMPI PUSH2 0xDC JUMP JUMPDEST DUP1 PUSH4 0x8DA5CB5B EQ PUSH2 0x20A JUMPI DUP1 PUSH4 0x8EA98117 EQ PUSH2 0x234 JUMPI DUP1 PUSH4 0x9ECCACF6 EQ PUSH2 0x25C JUMPI PUSH2 0xDC JUMP JUMPDEST DUP1 PUSH4 0x479507BB GT PUSH2 0xBA JUMPI DUP1 PUSH4 0x479507BB EQ PUSH2 0x170 JUMPI DUP1 PUSH4 0x79BA5097 EQ PUSH2 0x18E JUMPI DUP1 PUSH4 0x7CCFD7FC EQ PUSH2 0x1A4 JUMPI DUP1 PUSH4 0x817DBE9F EQ PUSH2 0x1CE JUMPI PUSH2 0xDC JUMP JUMPDEST DUP1 PUSH4 0xB0C1493 EQ PUSH2 0xE0 JUMPI DUP1 PUSH4 0x1FE543E3 EQ PUSH2 0x11E JUMPI DUP1 PUSH4 0x24F74697 EQ PUSH2 0x146 JUMPI JUMPDEST PUSH0 PUSH0 REVERT JUMPDEST CALLVALUE DUP1 ISZERO PUSH2 0xEB JUMPI PUSH0 PUSH0 REVERT JUMPDEST POP PUSH2 0x106 PUSH1 0x4 DUP1 CALLDATASIZE SUB DUP2 ADD SWAP1 PUSH2 0x101 SWAP2 SWAP1 PUSH2 0x106E JUMP JUMPDEST PUSH2 0x32C JUMP JUMPDEST PUSH1 0x40 MLOAD PUSH2 0x115 SWAP4 SWAP3 SWAP2 SWAP1 PUSH2 0x115A JUMP JUMPDEST PUSH1 0x40 MLOAD DUP1 SWAP2 SUB SWAP1 RETURN JUMPDEST CALLVALUE DUP1 ISZERO PUSH2 0x129 JUMPI PUSH0 PUSH0 REVERT JUMPDEST POP PUSH2 0x144 PUSH1 0x4 DUP1 CALLDATASIZE SUB DUP2 ADD SWAP1 PUSH2 0x13F SWAP2 SWAP1 PUSH2 0x11F0 JUMP JUMPDEST PUSH2 0x37D JUMP JUMPDEST STOP JUMPDEST CALLVALUE DUP1 ISZERO PUSH2 0x151 JUMPI PUSH0 PUSH0 REVERT JUMPDEST POP PUSH2 0x15A PUSH2 0x441 JUMP JUMPDEST PUSH1 0x40 MLOAD PUSH2 0x167 SWAP2 SWAP1 PUSH2 0x126B JUMP JUMPDEST PUSH1 0x40 MLOAD DUP1 SWAP2 SUB SWAP1 RETURN JUMPDEST PUSH2 0x178 PUSH2 0x456 JUMP JUMPDEST PUSH1 0x40 MLOAD PUSH2 0x185 SWAP2 SWAP1 PUSH2 0x1284 JUMP JUMPDEST PUSH1 0x40 MLOAD DUP1 SWAP2 SUB SWAP1 RETURN JUMPDEST CALLVALUE DUP1 ISZERO PUSH2 0x199 JUMPI PUSH0 PUSH0 REVERT JUMPDEST POP PUSH2 0x1A2 PUSH2 0x57D JUMP JUMPDEST STOP JUMPDEST CALLVALUE DUP1 ISZERO PUSH2 0x1AF JUMPI PUSH0 PUSH0 REVERT JUMPDEST POP PUSH2 0x1B8 PUSH2 0x70C JUMP JUMPDEST PUSH1 0x40 MLOAD PUSH2 0x1C5 SWAP2 SWAP1 PUSH2 0x126B JUMP JUMPDEST PUSH1 0x40 MLOAD DUP1 SWAP2 SUB SWAP1 RETURN JUMPDEST CALLVALUE DUP1 ISZERO PUSH2 0x1D9 JUMPI PUSH0 PUSH0 REVERT JUMPDEST POP PUSH2 0x1F4 PUSH1 0x4 DUP1 CALLDATASIZE SUB DUP2 ADD SWAP1 PUSH2 0x1EF SWAP2 SWAP1 PUSH2 0x106E JUMP JUMPDEST PUSH2 0x722 JUMP JUMPDEST PUSH1 0x40 MLOAD PUSH2 0x201 SWAP2 SWAP1 PUSH2 0x1284 JUMP JUMPDEST PUSH1 0x40 MLOAD DUP1 SWAP2 SUB SWAP1 RETURN JUMPDEST CALLVALUE DUP1 ISZERO PUSH2 0x215 JUMPI PUSH0 PUSH0 REVERT JUMPDEST POP PUSH2 0x21E PUSH2 0x74C JUMP JUMPDEST PUSH1 0x40 MLOAD PUSH2 0x22B SWAP2 SWAP1 PUSH2 0x129D JUMP JUMPDEST PUSH1 0x40 MLOAD DUP1 SWAP2 SUB SWAP1 RETURN JUMPDEST CALLVALUE DUP1 ISZERO PUSH2 0x23F JUMPI PUSH0 PUSH0 REVERT JUMPDEST POP PUSH2 0x25A PUSH1 0x4 DUP1 CALLDATASIZE SUB DUP2 ADD SWAP1 PUSH2 0x255 SWAP2 SWAP1 PUSH2 0x12E0 JUMP JUMPDEST PUSH2 0x773 JUMP JUMPDEST STOP JUMPDEST CALLVALUE DUP1 ISZERO PUSH2 0x267 JUMPI PUSH0 PUSH0 REVERT JUMPDEST POP PUSH2 0x270 PUSH2 0x950 JUMP JUMPDEST PUSH1 0x40 MLOAD PUSH2 0x27D SWAP2 SWAP1 PUSH2 0x1366 JUMP JUMPDEST PUSH1 0x40 MLOAD DUP1 SWAP2 SUB SWAP1 RETURN JUMPDEST CALLVALUE DUP1 ISZERO PUSH2 0x291 JUMPI PUSH0 PUSH0 REVERT JUMPDEST POP PUSH2 0x29A PUSH2 0x975 JUMP JUMPDEST PUSH1 0x40 MLOAD PUSH2 0x2A7 SWAP2 SWAP1 PUSH2 0x139B JUMP JUMPDEST PUSH1 0x40 MLOAD DUP1 SWAP2 SUB SWAP1 RETURN JUMPDEST CALLVALUE DUP1 ISZERO PUSH2 0x2BB JUMPI PUSH0 PUSH0 REVERT JUMPDEST POP PUSH2 0x2C4 PUSH2 0x989 JUMP JUMPDEST PUSH1 0x40 MLOAD PUSH2 0x2D1 SWAP2 SWAP1 PUSH2 0x126B JUMP JUMPDEST PUSH1 0x40 MLOAD DUP1 SWAP2 SUB SWAP1 RETURN JUMPDEST CALLVALUE DUP1 ISZERO PUSH2 0x2E5 JUMPI PUSH0 PUSH0 REVERT JUMPDEST POP PUSH2 0x2EE PUSH2 0x99E JUMP JUMPDEST PUSH1 0x40 MLOAD PUSH2 0x2FB SWAP2 SWAP1 PUSH2 0x1284 JUMP JUMPDEST PUSH1 0x40 MLOAD DUP1 SWAP2 SUB SWAP1 RETURN JUMPDEST CALLVALUE DUP1 ISZERO PUSH2 0x30F JUMPI PUSH0 PUSH0 REVERT JUMPDEST POP PUSH2 0x32A PUSH1 0x4 DUP1 CALLDATASIZE SUB DUP2 ADD SWAP1 PUSH2 0x325 SWAP2 SWAP1 PUSH2 0x12E0 JUMP JUMPDEST PUSH2 0xB17 JUMP JUMPDEST STOP JUMPDEST PUSH1 0xA PUSH1 0x20 MSTORE DUP1 PUSH0 MSTORE PUSH1 0x40 PUSH0 KECCAK256 PUSH0 SWAP2 POP SWAP1 POP DUP1 PUSH0 ADD PUSH0 SWAP1 SLOAD SWAP1 PUSH2 0x100 EXP SWAP1 DIV PUSH1 0xFF AND SWAP1 DUP1 PUSH0 ADD PUSH1 0x1 SWAP1 SLOAD SWAP1 PUSH2 0x100 EXP SWAP1 DIV PUSH20 0xFFFFFFFFFFFFFFFFFFFFFFFFFFFFFFFFFFFFFFFF AND SWAP1 DUP1 PUSH1 0x1 ADD SLOAD SWAP1 POP DUP4 JUMP JUMPDEST PUSH1 0x2 PUSH0 SWAP1 SLOAD SWAP1 PUSH2 0x100 EXP SWAP1 DIV PUSH20 0xFFFFFFFFFFFFFFFFFFFFFFFFFFFFFFFFFFFFFFFF AND PUSH20 0xFFFFFFFFFFFFFFFFFFFFFFFFFFFFFFFFFFFFFFFF AND CALLER PUSH20 0xFFFFFFFFFFFFFFFFFFFFFFFFFFFFFFFFFFFFFFFF AND EQ PUSH2 0x431 JUMPI CALLER PUSH1 0x2 PUSH0 SWAP1 SLOAD SWAP1 PUSH2 0x100 EXP SWAP1 DIV PUSH20 0xFFFFFFFFFFFFFFFFFFFFFFFFFFFFFFFFFFFFFFFF AND PUSH1 0x40 MLOAD PUSH32 0x1CF993F400000000000000000000000000000000000000000000000000000000 DUP2 MSTORE PUSH1 0x4 ADD PUSH2 0x428 SWAP3 SWAP2 SWAP1 PUSH2 0x13B4 JUMP JUMPDEST PUSH1 0x40 MLOAD DUP1 SWAP2 SUB SWAP1 REVERT JUMPDEST PUSH2 0x43C DUP4 DUP4 DUP4 PUSH2 0xB2B JUMP JUMPDEST POP POP POP JUMP JUMPDEST PUSH1 0x7 PUSH0 SWAP1 SLOAD SWAP1 PUSH2 0x100 EXP SWAP1 DIV PUSH4 0xFFFFFFFF AND DUP2 JUMP JUMPDEST PUSH0 PUSH2 0x45F PUSH2 0x99E JUMP JUMPDEST SWAP1 POP PUSH1 0x40 MLOAD DUP1 PUSH1 0x60 ADD PUSH1 0x40 MSTORE DUP1 PUSH1 0x1 PUSH1 0x2 DUP2 GT ISZERO PUSH2 0x480 JUMPI PUSH2 0x47F PUSH2 0x1099 JUMP JUMPDEST JUMPDEST DUP2 MSTORE PUSH1 0x20 ADD CALLER PUSH20 0xFFFFFFFFFFFFFFFFFFFFFFFFFFFFFFFFFFFFFFFF AND DUP2 MSTORE PUSH1 0x20 ADD PUSH0 DUP2 MSTORE POP PUSH1 0xA PUSH0 DUP4 DUP2 MSTORE PUSH1 0x20 ADD SWAP1 DUP2 MSTORE PUSH1 0x20 ADD PUSH0 KECCAK256 PUSH0 DUP3 ADD MLOAD DUP2 PUSH0 ADD PUSH0 PUSH2 0x100 EXP DUP2 SLOAD DUP2 PUSH1 0xFF MUL NOT AND SWAP1 DUP4 PUSH1 0x2 DUP2 GT ISZERO PUSH2 0x4DE JUMPI PUSH2 0x4DD PUSH2 0x1099 JUMP JUMPDEST JUMPDEST MUL OR SWAP1 SSTORE POP PUSH1 0x20 DUP3 ADD MLOAD DUP2 PUSH0 ADD PUSH1 0x1 PUSH2 0x100 EXP DUP2 SLOAD DUP2 PUSH20 0xFFFFFFFFFFFFFFFFFFFFFFFFFFFFFFFFFFFFFFFF MUL NOT AND SWAP1 DUP4 PUSH20 0xFFFFFFFFFFFFFFFFFFFFFFFFFFFFFFFFFFFFFFFF AND MUL OR SWAP1 SSTORE POP PUSH1 0x40 DUP3 ADD MLOAD DUP2 PUSH1 0x1 ADD SSTORE SWAP1 POP POP DUP1 CALLER PUSH20 0xFFFFFFFFFFFFFFFFFFFFFFFFFFFFFFFFFFFFFFFF AND PUSH32 0x829B852DF67CBB2DB43AEF2060C62AF61832E9D4265448BF45E21999445B38F8 PUSH1 0x40 MLOAD PUSH1 0x40 MLOAD DUP1 SWAP2 SUB SWAP1 LOG3 SWAP1 JUMP JUMPDEST PUSH1 0x1 PUSH0 SWAP1 SLOAD SWAP1 PUSH2 0x100 EXP SWAP1 DIV PUSH20 0xFFFFFFFFFFFFFFFFFFFFFFFFFFFFFFFFFFFFFFFF AND PUSH20 0xFFFFFFFFFFFFFFFFFFFFFFFFFFFFFFFFFFFFFFFF AND CALLER PUSH20 0xFFFFFFFFFFFFFFFFFFFFFFFFFFFFFFFFFFFFFFFF AND EQ PUSH2 0x60C JUMPI PUSH1 0x40 MLOAD PUSH32 0x8C379A000000000000000000000000000000000000000000000000000000000 DUP2 MSTORE PUSH1 0x4 ADD PUSH2 0x603 SWAP1 PUSH2 0x1435 JUMP JUMPDEST PUSH1 0x40 MLOAD DUP1 SWAP2 SUB SWAP1 REVERT JUMPDEST PUSH0 PUSH0 PUSH0 SWAP1 SLOAD SWAP1 PUSH2 0x100 EXP SWAP1 DIV PUSH20 0xFFFFFFFFFFFFFFFFFFFFFFFFFFFFFFFFFFFFFFFF AND SWAP1 POP CALLER PUSH0 PUSH0 PUSH2 0x100 EXP DUP2 SLOAD DUP2 PUSH20 0xFFFFFFFFFFFFFFFFFFFFFFFFFFFFFFFFFFFFFFFF MUL NOT AND SWAP1 DUP4 PUSH20 0xFFFFFFFFFFFFFFFFFFFFFFFFFFFFFFFFFFFFFFFF AND MUL OR SWAP1 SSTORE POP PUSH0 PUSH1 0x1 PUSH0 PUSH2 0x100 EXP DUP2 SLOAD DUP2 PUSH20 0xFFFFFFFFFFFFFFFFFFFFFFFFFFFFFFFFFFFFFFFF MUL NOT AND SWAP1 DUP4 PUSH20 0xFFFFFFFFFFFFFFFFFFFFFFFFFFFFFFFFFFFFFFFF AND MUL OR SWAP1 SSTORE POP CALLER PUSH20 0xFFFFFFFFFFFFFFFFFFFFFFFFFFFFFFFFFFFFFFFF AND DUP2 PUSH20 0xFFFFFFFFFFFFFFFFFFFFFFFFFFFFFFFFFFFFFFFF AND PUSH32 0x8BE0079C531659141344CD1FD0A4F28419497F9722A3DAAFE3B4186F6B6457E0 PUSH1 0x40 MLOAD PUSH1 0x40 MLOAD DUP1 SWAP2 SUB SWAP1 LOG3 POP JUMP JUMPDEST PUSH1 0x7 PUSH1 0x6 SWAP1 SLOAD SWAP1 PUSH2 0x100 EXP SWAP1 DIV PUSH4 0xFFFFFFFF AND DUP2 JUMP JUMPDEST PUSH1 0x8 DUP2 DUP2 SLOAD DUP2 LT PUSH2 0x731 JUMPI PUSH0 DUP1 REVERT JUMPDEST SWAP1 PUSH0 MSTORE PUSH1 0x20 PUSH0 KECCAK256 SWAP1 PUSH1 0x3 MUL ADD PUSH0 SWAP2 POP SWAP1 POP DUP1 PUSH1 0x2 ADD SLOAD SWAP1 POP DUP2 JUMP JUMPDEST PUSH0 PUSH0 PUSH0 SWAP1 SLOAD SWAP1 PUSH2 0x100 EXP SWAP1 DIV PUSH20 0xFFFFFFFFFFFFFFFFFFFFFFFFFFFFFFFFFFFFFFFF AND SWAP1 POP SWAP1 JUMP JUMPDEST PUSH2 0x77B PUSH2 0x74C JUMP JUMPDEST PUSH20 0xFFFFFFFFFFFFFFFFFFFFFFFFFFFFFFFFFFFFFFFF AND CALLER PUSH20 0xFFFFFFFFFFFFFFFFFFFFFFFFFFFFFFFFFFFFFFFF AND EQ ISZERO DUP1 ISZERO PUSH2 0x803 JUMPI POP PUSH1 0x2 PUSH0 SWAP1 SLOAD SWAP1 PUSH2 0x100 EXP SWAP1 DIV PUSH20 0xFFFFFFFFFFFFFFFFFFFFFFFFFFFFFFFFFFFFFFFF AND PUSH20 0xFFFFFFFFFFFFFFFFFFFFFFFFFFFFFFFFFFFFFFFF AND CALLER PUSH20 0xFFFFFFFFFFFFFFFFFFFFFFFFFFFFFFFFFFFFFFFF AND EQ ISZERO JUMPDEST ISZERO PUSH2 0x871 JUMPI CALLER PUSH2 0x811 PUSH2 0x74C JUMP JUMPDEST PUSH1 0x2 PUSH0 SWAP1 SLOAD SWAP1 PUSH2 0x100 EXP SWAP1 DIV PUSH20 0xFFFFFFFFFFFFFFFFFFFFFFFFFFFFFFFFFFFFFFFF AND PUSH1 0x40 MLOAD PUSH32 0x61DB9C100000000000000000000000000000000000000000000000000000000 DUP2 MSTORE PUSH1 0x4 ADD PUSH2 0x868 SWAP4 SWAP3 SWAP2 SWAP1 PUSH2 0x1453 JUMP JUMPDEST PUSH1 0x40 MLOAD DUP1 SWAP2 SUB SWAP1 REVERT JUMPDEST PUSH0 PUSH20 0xFFFFFFFFFFFFFFFFFFFFFFFFFFFFFFFFFFFFFFFF AND DUP2 PUSH20 0xFFFFFFFFFFFFFFFFFFFFFFFFFFFFFFFFFFFFFFFF AND SUB PUSH2 0x8D6 JUMPI PUSH1 0x40 MLOAD PUSH32 0xD92E233D00000000000000000000000000000000000000000000000000000000 DUP2 MSTORE PUSH1 0x4 ADD PUSH1 0x40 MLOAD DUP1 SWAP2 SUB SWAP1 REVERT JUMPDEST DUP1 PUSH1 0x2 PUSH0 PUSH2 0x100 EXP DUP2 SLOAD DUP2 PUSH20 0xFFFFFFFFFFFFFFFFFFFFFFFFFFFFFFFFFFFFFFFF MUL NOT AND SWAP1 DUP4 PUSH20 0xFFFFFFFFFFFFFFFFFFFFFFFFFFFFFFFFFFFFFFFF AND MUL OR SWAP1 SSTORE POP PUSH32 0xD1A6A14209A385A964D036E404CB5CFB71F4000CDB03C9366292430787261BE6 DUP2 PUSH1 0x40 MLOAD PUSH2 0x945 SWAP2 SWAP1 PUSH2 0x129D JUMP JUMPDEST PUSH1 0x40 MLOAD DUP1 SWAP2 SUB SWAP1 LOG1 POP JUMP JUMPDEST PUSH1 0x2 PUSH0 SWAP1 SLOAD SWAP1 PUSH2 0x100 EXP SWAP1 DIV PUSH20 0xFFFFFFFFFFFFFFFFFFFFFFFFFFFFFFFFFFFFFFFF AND DUP2 JUMP JUMPDEST PUSH1 0x7 PUSH1 0x4 SWAP1 SLOAD SWAP1 PUSH2 0x100 EXP SWAP1 DIV PUSH2 0xFFFF AND DUP2 JUMP JUMPDEST PUSH1 0x9 PUSH0 SWAP1 SLOAD SWAP1 PUSH2 0x100 EXP SWAP1 DIV PUSH4 0xFFFFFFFF AND DUP2 JUMP JUMPDEST PUSH0 PUSH0 PUSH1 0x40 MLOAD DUP1 PUSH1 0xC0 ADD PUSH1 0x40 MSTORE DUP1 PUSH1 0x5 SLOAD DUP2 MSTORE PUSH1 0x20 ADD PUSH1 0x6 SLOAD DUP2 MSTORE PUSH1 0x20 ADD PUSH1 0x7 PUSH1 0x4 SWAP1 SLOAD SWAP1 PUSH2 0x100 EXP SWAP1 DIV PUSH2 0xFFFF AND PUSH2 0xFFFF AND DUP2 MSTORE PUSH1 0x20 ADD PUSH1 0x7 PUSH0 SWAP1 SLOAD SWAP1 PUSH2 0x100 EXP SWAP1 DIV PUSH4 0xFFFFFFFF AND PUSH4 0xFFFFFFFF AND DUP2 MSTORE PUSH1 0x20 ADD PUSH1 0x7 PUSH1 0x6 SWAP1 SLOAD SWAP1 PUSH2 0x100 EXP SWAP1 DIV PUSH4 0xFFFFFFFF AND PUSH4 0xFFFFFFFF AND DUP2 MSTORE PUSH1 0x20 ADD PUSH1 0x40 MLOAD DUP1 PUSH1 0x20 ADD PUSH1 0x40 MSTORE DUP1 PUSH0 DUP2 MSTORE POP DUP2 MSTORE POP SWAP1 POP PUSH0 PUSH1 0x3 PUSH0 SWAP1 SLOAD SWAP1 PUSH2 0x100 EXP SWAP1 DIV PUSH20 0xFFFFFFFFFFFFFFFFFFFFFFFFFFFFFFFFFFFFFFFF AND PUSH20 0xFFFFFFFFFFFFFFFFFFFFFFFFFFFFFFFFFFFFFFFF AND PUSH4 0x9B1C385E DUP4 PUSH1 0x40 MLOAD DUP3 PUSH4 0xFFFFFFFF AND PUSH1 0xE0 SHL DUP2 MSTORE PUSH1 0x4 ADD PUSH2 0xA7F SWAP2 SWAP1 PUSH2 0x15C3 JUMP JUMPDEST PUSH1 0x20 PUSH1 0x40 MLOAD DUP1 DUP4 SUB DUP2 PUSH0 DUP8 GAS CALL ISZERO DUP1 ISZERO PUSH2 0xA9B JUMPI RETURNDATASIZE PUSH0 PUSH0 RETURNDATACOPY RETURNDATASIZE PUSH0 REVERT JUMPDEST POP POP POP POP PUSH1 0x40 MLOAD RETURNDATASIZE PUSH1 0x1F NOT PUSH1 0x1F DUP3 ADD AND DUP3 ADD DUP1 PUSH1 0x40 MSTORE POP DUP2 ADD SWAP1 PUSH2 0xABF SWAP2 SWAP1 PUSH2 0x15F7 JUMP JUMPDEST SWAP1 POP CALLER PUSH20 0xFFFFFFFFFFFFFFFFFFFFFFFFFFFFFFFFFFFFFFFF AND PUSH32 0x9D5EC813554188F51CFF7EA82CDA0C2E6A4006398B558E6D834F0FD6EAD830A1 DUP3 PUSH1 0x40 MLOAD PUSH2 0xB07 SWAP2 SWAP1 PUSH2 0x1284 JUMP JUMPDEST PUSH1 0x40 MLOAD DUP1 SWAP2 SUB SWAP1 LOG2 DUP1 SWAP3 POP POP POP SWAP1 JUMP JUMPDEST PUSH2 0xB1F PUSH2 0xE78 JUMP JUMPDEST PUSH2 0xB28 DUP2 PUSH2 0xF08 JUMP JUMPDEST POP JUMP JUMPDEST PUSH0 PUSH1 0xA PUSH0 DUP6 DUP2 MSTORE PUSH1 0x20 ADD SWAP1 DUP2 MSTORE PUSH1 0x20 ADD PUSH0 KECCAK256 SWAP1 POP PUSH1 0x1 PUSH1 0x2 DUP2 GT ISZERO PUSH2 0xB53 JUMPI PUSH2 0xB52 PUSH2 0x1099 JUMP JUMPDEST JUMPDEST DUP2 PUSH0 ADD PUSH0 SWAP1 SLOAD SWAP1 PUSH2 0x100 EXP SWAP1 DIV PUSH1 0xFF AND PUSH1 0x2 DUP2 GT ISZERO PUSH2 0xB75 JUMPI PUSH2 0xB74 PUSH2 0x1099 JUMP JUMPDEST JUMPDEST EQ PUSH2 0xBAC JUMPI PUSH1 0x40 MLOAD PUSH32 0x3AE8468300000000000000000000000000000000000000000000000000000000 DUP2 MSTORE PUSH1 0x4 ADD PUSH1 0x40 MLOAD DUP1 SWAP2 SUB SWAP1 REVERT JUMPDEST DUP3 DUP3 PUSH0 DUP2 DUP2 LT PUSH2 0xBBF JUMPI PUSH2 0xBBE PUSH2 0x1622 JUMP JUMPDEST JUMPDEST SWAP1 POP PUSH1 0x20 MUL ADD CALLDATALOAD DUP2 PUSH1 0x1 ADD DUP2 SWAP1 SSTORE POP PUSH0 PUSH1 0x9 PUSH0 SWAP1 SLOAD SWAP1 PUSH2 0x100 EXP SWAP1 DIV PUSH4 0xFFFFFFFF AND PUSH4 0xFFFFFFFF AND DUP5 DUP5 PUSH0 DUP2 DUP2 LT PUSH2 0xBFA JUMPI PUSH2 0xBF9 PUSH2 0x1622 JUMP JUMPDEST JUMPDEST SWAP1 POP PUSH1 0x20 MUL ADD CALLDATALOAD PUSH2 0xC0B SWAP2 SWAP1 PUSH2 0x167C JUMP JUMPDEST SWAP1 POP PUSH0 PUSH0 PUSH0 SWAP1 POP PUSH0 PUSH0 SWAP1 POP JUMPDEST PUSH1 0x8 DUP1 SLOAD SWAP1 POP DUP2 PUSH1 0xFF AND LT ISZERO PUSH2 0xC7E JUMPI PUSH1 0x8 DUP2 PUSH1 0xFF AND DUP2 SLOAD DUP2 LT PUSH2 0xC3E JUMPI PUSH2 0xC3D PUSH2 0x1622 JUMP JUMPDEST JUMPDEST SWAP1 PUSH0 MSTORE PUSH1 0x20 PUSH0 KECCAK256 SWAP1 PUSH1 0x3 MUL ADD PUSH1 0x2 ADD SLOAD DUP3 PUSH2 0xC59 SWAP2 SWAP1 PUSH2 0x16D9 JUMP JUMPDEST SWAP2 POP DUP2 DUP5 LT ISZERO PUSH2 0xC6B JUMPI DUP1 SWAP3 POP PUSH2 0xC7E JUMP JUMPDEST DUP1 DUP1 PUSH2 0xC76 SWAP1 PUSH2 0x1718 JUMP JUMPDEST SWAP2 POP POP PUSH2 0xC17 JUMP JUMPDEST POP PUSH0 PUSH1 0x8 DUP4 PUSH1 0xFF AND DUP2 SLOAD DUP2 LT PUSH2 0xC97 JUMPI PUSH2 0xC96 PUSH2 0x1622 JUMP JUMPDEST JUMPDEST SWAP1 PUSH0 MSTORE PUSH1 0x20 PUSH0 KECCAK256 SWAP1 PUSH1 0x3 MUL ADD SWAP1 POP PUSH0 DUP2 PUSH1 0x2 ADD SLOAD DUP6 PUSH1 0x40 MLOAD PUSH1 0x20 ADD PUSH2 0xCBC SWAP2 SWAP1 PUSH2 0x178A JUMP JUMPDEST PUSH1 0x40 MLOAD PUSH1 0x20 DUP2 DUP4 SUB SUB DUP2 MSTORE SWAP1 PUSH1 0x40 MSTORE DUP1 MLOAD SWAP1 PUSH1 0x20 ADD KECCAK256 PUSH0 SHR PUSH2 0xCDE SWAP2 SWAP1 PUSH2 0x167C JUMP JUMPDEST SWAP1 POP PUSH0 DUP3 PUSH0 ADD DUP3 DUP2 SLOAD DUP2 LT PUSH2 0xCF6 JUMPI PUSH2 0xCF5 PUSH2 0x1622 JUMP JUMPDEST JUMPDEST SWAP1 PUSH0 MSTORE PUSH1 0x20 PUSH0 KECCAK256 ADD SLOAD SWAP1 POP PUSH0 PUSH1 0x1 DUP5 PUSH1 0x2 ADD SLOAD PUSH2 0xD13 SWAP2 SWAP1 PUSH2 0x17B6 JUMP JUMPDEST SWAP1 POP DUP1 DUP4 EQ PUSH2 0xD79 JUMPI PUSH0 DUP5 PUSH0 ADD DUP3 DUP2 SLOAD DUP2 LT PUSH2 0xD32 JUMPI PUSH2 0xD31 PUSH2 0x1622 JUMP JUMPDEST JUMPDEST SWAP1 PUSH0 MSTORE PUSH1 0x20 PUSH0 KECCAK256 ADD SLOAD SWAP1 POP DUP1 DUP6 PUSH0 ADD DUP6 DUP2 SLOAD DUP2 LT PUSH2 0xD53 JUMPI PUSH2 0xD52 PUSH2 0x1622 JUMP JUMPDEST JUMPDEST SWAP1 PUSH0 MSTORE PUSH1 0x20 PUSH0 KECCAK256 ADD DUP2 SWAP1 SSTORE POP DUP4 DUP6 PUSH1 0x1 ADD PUSH0 DUP5 DUP2 MSTORE PUSH1 0x20 ADD SWAP1 DUP2 MSTORE PUSH1 0x20 ADD PUSH0 KECCAK256 DUP2 SWAP1 SSTORE POP POP JUMPDEST DUP4 PUSH0 ADD DUP1 SLOAD DUP1 PUSH2 0xD8C JUMPI PUSH2 0xD8B PUSH2 0x17E9 JUMP JUMPDEST JUMPDEST PUSH1 0x1 SWAP1 SUB DUP2 DUP2 SWAP1 PUSH0 MSTORE PUSH1 0x20 PUSH0 KECCAK256 ADD PUSH0 SWAP1 SSTORE SWAP1 SSTORE DUP4 PUSH1 0x2 ADD PUSH0 DUP2 SLOAD DUP1 SWAP3 SWAP2 SWAP1 PUSH2 0xDB3 SWAP1 PUSH2 0x1816 JUMP JUMPDEST SWAP2 SWAP1 POP SSTORE POP PUSH1 0x9 PUSH0 DUP2 DUP2 SWAP1 SLOAD SWAP1 PUSH2 0x100 EXP SWAP1 DIV PUSH4 0xFFFFFFFF AND DUP1 SWAP3 SWAP2 SWAP1 PUSH2 0xDD9 SWAP1 PUSH2 0x183D JUMP JUMPDEST SWAP2 SWAP1 PUSH2 0x100 EXP DUP2 SLOAD DUP2 PUSH4 0xFFFFFFFF MUL NOT AND SWAP1 DUP4 PUSH4 0xFFFFFFFF AND MUL OR SWAP1 SSTORE POP POP DUP8 PUSH0 ADD PUSH1 0x1 SWAP1 SLOAD SWAP1 PUSH2 0x100 EXP SWAP1 DIV PUSH20 0xFFFFFFFFFFFFFFFFFFFFFFFFFFFFFFFFFFFFFFFF AND PUSH20 0xFFFFFFFFFFFFFFFFFFFFFFFFFFFFFFFFFFFFFFFF AND PUSH32 0xD31E7B1D79939371E7798A848D42F7D82520809C1A228CF8DE4578C501C4B181 DUP8 DUP5 PUSH1 0x40 MLOAD PUSH2 0xE63 SWAP3 SWAP2 SWAP1 PUSH2 0x1873 JUMP JUMPDEST PUSH1 0x40 MLOAD DUP1 SWAP2 SUB SWAP1 LOG2 POP POP POP POP POP POP POP POP POP POP POP JUMP JUMPDEST PUSH0 PUSH0 SWAP1 SLOAD SWAP1 PUSH2 0x100 EXP SWAP1 DIV PUSH20 0xFFFFFFFFFFFFFFFFFFFFFFFFFFFFFFFFFFFFFFFF AND PUSH20 0xFFFFFFFFFFFFFFFFFFFFFFFFFFFFFFFFFFFFFFFF AND CALLER PUSH20 0xFFFFFFFFFFFFFFFFFFFFFFFFFFFFFFFFFFFFFFFF AND EQ PUSH2 0xF06 JUMPI PUSH1 0x40 MLOAD PUSH32 0x8C379A000000000000000000000000000000000000000000000000000000000 DUP2 MSTORE PUSH1 0x4 ADD PUSH2 0xEFD SWAP1 PUSH2 0x18E4 JUMP JUMPDEST PUSH1 0x40 MLOAD DUP1 SWAP2 SUB SWAP1 REVERT JUMPDEST JUMP JUMPDEST CALLER PUSH20 0xFFFFFFFFFFFFFFFFFFFFFFFFFFFFFFFFFFFFFFFF AND DUP2 PUSH20 0xFFFFFFFFFFFFFFFFFFFFFFFFFFFFFFFFFFFFFFFF AND SUB PUSH2 0xF76 JUMPI PUSH1 0x40 MLOAD PUSH32 0x8C379A000000000000000000000000000000000000000000000000000000000 DUP2 MSTORE PUSH1 0x4 ADD PUSH2 0xF6D SWAP1 PUSH2 0x194C JUMP JUMPDEST PUSH1 0x40 MLOAD DUP1 SWAP2 SUB SWAP1 REVERT JUMPDEST DUP1 PUSH1 0x1 PUSH0 PUSH2 0x100 EXP DUP2 SLOAD DUP2 PUSH20 0xFFFFFFFFFFFFFFFFFFFFFFFFFFFFFFFFFFFFFFFF MUL NOT AND SWAP1 DUP4 PUSH20 0xFFFFFFFFFFFFFFFFFFFFFFFFFFFFFFFFFFFFFFFF AND MUL OR SWAP1 SSTORE POP DUP1 PUSH20 0xFFFFFFFFFFFFFFFFFFFFFFFFFFFFFFFFFFFFFFFF AND PUSH0 PUSH0 SWAP1 SLOAD SWAP1 PUSH2 0x100 EXP SWAP1 DIV PUSH20 0xFFFFFFFFFFFFFFFFFFFFFFFFFFFFFFFFFFFFFFFF AND PUSH20 0xFFFFFFFFFFFFFFFFFFFFFFFFFFFFFFFFFFFFFFFF AND PUSH32 0xED8889F560326EB138920D842192F0EB3DD22B4F139C87A2C57538E05BAE1278 PUSH1 0x40 MLOAD PUSH1 0x40 MLOAD DUP1 SWAP2 SUB SWAP1 LOG3 POP JUMP JUMPDEST PUSH0 PUSH0 REVERT JUMPDEST PUSH0 PUSH0 REVERT JUMPDEST PUSH0 DUP2 SWAP1 POP SWAP2 SWAP1 POP JUMP JUMPDEST PUSH2 0x104D DUP2 PUSH2 0x103B JUMP JUMPDEST DUP2 EQ PUSH2 0x1057 JUMPI PUSH0 PUSH0 REVERT JUMPDEST POP JUMP JUMPDEST PUSH0 DUP2 CALLDATALOAD SWAP1 POP PUSH2 0x1068 DUP2 PUSH2 0x1044 JUMP JUMPDEST SWAP3 SWAP2 POP POP JUMP JUMPDEST PUSH0 PUSH1 0x20 DUP3 DUP5 SUB SLT ISZERO PUSH2 0x1083 JUMPI PUSH2 0x1082 PUSH2 0x1033 JUMP JUMPDEST JUMPDEST PUSH0 PUSH2 0x1090 DUP5 DUP3 DUP6 ADD PUSH2 0x105A JUMP JUMPDEST SWAP2 POP POP SWAP3 SWAP2 POP POP JUMP JUMPDEST PUSH32 0x4E487B7100000000000000000000000000000000000000000000000000000000 PUSH0 MSTORE PUSH1 0x21 PUSH1 0x4 MSTORE PUSH1 0x24 PUSH0 REVERT JUMPDEST PUSH1 0x3 DUP2 LT PUSH2 0x10D7 JUMPI PUSH2 0x10D6 PUSH2 0x1099 JUMP JUMPDEST JUMPDEST POP JUMP JUMPDEST PUSH0 DUP2 SWAP1 POP PUSH2 0x10E7 DUP3 PUSH2 0x10C6 JUMP JUMPDEST SWAP2 SWAP1 POP JUMP JUMPDEST PUSH0 PUSH2 0x10F6 DUP3 PUSH2 0x10DA JUMP JUMPDEST SWAP1 POP SWAP2 SWAP1 POP JUMP JUMPDEST PUSH2 0x1106 DUP2 PUSH2 0x10EC JUMP JUMPDEST DUP3 MSTORE POP POP JUMP JUMPDEST PUSH0 PUSH20 0xFFFFFFFFFFFFFFFFFFFFFFFFFFFFFFFFFFFFFFFF DUP3 AND SWAP1 POP SWAP2 SWAP1 POP JUMP JUMPDEST PUSH0 PUSH2 0x1135 DUP3 PUSH2 0x110C JUMP JUMPDEST SWAP1 POP SWAP2 SWAP1 POP JUMP JUMPDEST PUSH2 0x1145 DUP2 PUSH2 0x112B JUMP JUMPDEST DUP3 MSTORE POP POP JUMP JUMPDEST PUSH2 0x1154 DUP2 PUSH2 0x103B JUMP JUMPDEST DUP3 MSTORE POP POP JUMP JUMPDEST PUSH0 PUSH1 0x60 DUP3 ADD SWAP1 POP PUSH2 0x116D PUSH0 DUP4 ADD DUP7 PUSH2 0x10FD JUMP JUMPDEST PUSH2 0x117A PUSH1 0x20 DUP4 ADD DUP6 PUSH2 0x113C JUMP JUMPDEST PUSH2 0x1187 PUSH1 0x40 DUP4 ADD DUP5 PUSH2 0x114B JUMP JUMPDEST SWAP5 SWAP4 POP POP POP POP JUMP JUMPDEST PUSH0 PUSH0 REVERT JUMPDEST PUSH0 PUSH0 REVERT JUMPDEST PUSH0 PUSH0 REVERT JUMPDEST PUSH0 PUSH0 DUP4 PUSH1 0x1F DUP5 ADD SLT PUSH2 0x11B0 JUMPI PUSH2 0x11AF PUSH2 0x118F JUMP JUMPDEST JUMPDEST DUP3 CALLDATALOAD SWAP1 POP PUSH8 0xFFFFFFFFFFFFFFFF DUP2 GT ISZERO PUSH2 0x11CD JUMPI PUSH2 0x11CC PUSH2 0x1193 JUMP JUMPDEST JUMPDEST PUSH1 0x20 DUP4 ADD SWAP2 POP DUP4 PUSH1 0x20 DUP3 MUL DUP4 ADD GT ISZERO PUSH2 0x11E9 JUMPI PUSH2 0x11E8 PUSH2 0x1197 JUMP JUMPDEST JUMPDEST SWAP3 POP SWAP3 SWAP1 POP JUMP JUMPDEST PUSH0 PUSH0 PUSH0 PUSH1 0x40 DUP5 DUP7 SUB SLT ISZERO PUSH2 0x1207 JUMPI PUSH2 0x1206 PUSH2 0x1033 JUMP JUMPDEST JUMPDEST PUSH0 PUSH2 0x1214 DUP7 DUP3 DUP8 ADD PUSH2 0x105A JUMP JUMPDEST SWAP4 POP POP PUSH1 0x20 DUP5 ADD CALLDATALOAD PUSH8 0xFFFFFFFFFFFFFFFF DUP2 GT ISZERO PUSH2 0x1235 JUMPI PUSH2 0x1234 PUSH2 0x1037 JUMP JUMPDEST JUMPDEST PUSH2 0x1241 DUP7 DUP3 DUP8 ADD PUSH2 0x119B JUMP JUMPDEST SWAP3 POP SWAP3 POP POP SWAP3 POP SWAP3 POP SWAP3 JUMP JUMPDEST PUSH0 PUSH4 0xFFFFFFFF DUP3 AND SWAP1 POP SWAP2 SWAP1 POP JUMP JUMPDEST PUSH2 0x1265 DUP2 PUSH2 0x124D JUMP JUMPDEST DUP3 MSTORE POP POP JUMP JUMPDEST PUSH0 PUSH1 0x20 DUP3 ADD SWAP1 POP PUSH2 0x127E PUSH0 DUP4 ADD DUP5 PUSH2 0x125C JUMP JUMPDEST SWAP3 SWAP2 POP POP JUMP JUMPDEST PUSH0 PUSH1 0x20 DUP3 ADD SWAP1 POP PUSH2 0x1297 PUSH0 DUP4 ADD DUP5 PUSH2 0x114B JUMP JUMPDEST SWAP3 SWAP2 POP POP JUMP JUMPDEST PUSH0 PUSH1 0x20 DUP3 ADD SWAP1 POP PUSH2 0x12B0 PUSH0 DUP4 ADD DUP5 PUSH2 0x113C JUMP JUMPDEST SWAP3 SWAP2 POP POP JUMP JUMPDEST PUSH2 0x12BF DUP2 PUSH2 0x112B JUMP JUMPDEST DUP2 EQ PUSH2 0x12C9 JUMPI PUSH0 PUSH0 REVERT JUMPDEST POP JUMP JUMPDEST PUSH0 DUP2 CALLDATALOAD SWAP1 POP PUSH2 0x12DA DUP2 PUSH2 0x12B6 JUMP JUMPDEST SWAP3 SWAP2 POP POP JUMP JUMPDEST PUSH0 PUSH1 0x20 DUP3 DUP5 SUB SLT ISZERO PUSH2 0x12F5 JUMPI PUSH2 0x12F4 PUSH2 0x1033 JUMP JUMPDEST JUMPDEST PUSH0 PUSH2 0x1302 DUP5 DUP3 DUP6 ADD PUSH2 0x12CC JUMP JUMPDEST SWAP2 POP POP SWAP3 SWAP2 POP POP JUMP JUMPDEST PUSH0 DUP2 SWAP1 POP SWAP2 SWAP1 POP JUMP JUMPDEST PUSH0 PUSH2 0x132E PUSH2 0x1329 PUSH2 0x1324 DUP5 PUSH2 0x110C JUMP JUMPDEST PUSH2 0x130B JUMP JUMPDEST PUSH2 0x110C JUMP JUMPDEST SWAP1 POP SWAP2 SWAP1 POP JUMP JUMPDEST PUSH0 PUSH2 0x133F DUP3 PUSH2 0x1314 JUMP JUMPDEST SWAP1 POP SWAP2 SWAP1 POP JUMP JUMPDEST PUSH0 PUSH2 0x1350 DUP3 PUSH2 0x1335 JUMP JUMPDEST SWAP1 POP SWAP2 SWAP1 POP JUMP JUMPDEST PUSH2 0x1360 DUP2 PUSH2 0x1346 JUMP JUMPDEST DUP3 MSTORE POP POP JUMP JUMPDEST PUSH0 PUSH1 0x20 DUP3 ADD SWAP1 POP PUSH2 0x1379 PUSH0 DUP4 ADD DUP5 PUSH2 0x1357 JUMP JUMPDEST SWAP3 SWAP2 POP POP JUMP JUMPDEST PUSH0 PUSH2 0xFFFF DUP3 AND SWAP1 POP SWAP2 SWAP1 POP JUMP JUMPDEST PUSH2 0x1395 DUP2 PUSH2 0x137F JUMP JUMPDEST DUP3 MSTORE POP POP JUMP JUMPDEST PUSH0 PUSH1 0x20 DUP3 ADD SWAP1 POP PUSH2 0x13AE PUSH0 DUP4 ADD DUP5 PUSH2 0x138C JUMP JUMPDEST SWAP3 SWAP2 POP POP JUMP JUMPDEST PUSH0 PUSH1 0x40 DUP3 ADD SWAP1 POP PUSH2 0x13C7 PUSH0 DUP4 ADD DUP6 PUSH2 0x113C JUMP JUMPDEST PUSH2 0x13D4 PUSH1 0x20 DUP4 ADD DUP5 PUSH2 0x113C JUMP JUMPDEST SWAP4 SWAP3 POP POP POP JUMP JUMPDEST PUSH0 DUP3 DUP3 MSTORE PUSH1 0x20 DUP3 ADD SWAP1 POP SWAP3 SWAP2 POP POP JUMP JUMPDEST PUSH32 0x4D7573742062652070726F706F736564206F776E657200000000000000000000 PUSH0 DUP3 ADD MSTORE POP JUMP JUMPDEST PUSH0 PUSH2 0x141F PUSH1 0x16 DUP4 PUSH2 0x13DB JUMP JUMPDEST SWAP2 POP PUSH2 0x142A DUP3 PUSH2 0x13EB JUMP JUMPDEST PUSH1 0x20 DUP3 ADD SWAP1 POP SWAP2 SWAP1 POP JUMP JUMPDEST PUSH0 PUSH1 0x20 DUP3 ADD SWAP1 POP DUP2 DUP2 SUB PUSH0 DUP4 ADD MSTORE PUSH2 0x144C DUP2 PUSH2 0x1413 JUMP JUMPDEST SWAP1 POP SWAP2 SWAP1 POP JUMP JUMPDEST PUSH0 PUSH1 0x60 DUP3 ADD SWAP1 POP PUSH2 0x1466 PUSH0 DUP4 ADD DUP7 PUSH2 0x113C JUMP JUMPDEST PUSH2 0x1473 PUSH1 0x20 DUP4 ADD DUP6 PUSH2 0x113C JUMP JUMPDEST PUSH2 0x1480 PUSH1 0x40 DUP4 ADD DUP5 PUSH2 0x113C JUMP JUMPDEST SWAP5 SWAP4 POP POP POP POP JUMP JUMPDEST PUSH0 DUP2 SWAP1 POP SWAP2 SWAP1 POP JUMP JUMPDEST PUSH2 0x149A DUP2 PUSH2 0x1488 JUMP JUMPDEST DUP3 MSTORE POP POP JUMP JUMPDEST PUSH2 0x14A9 DUP2 PUSH2 0x103B JUMP JUMPDEST DUP3 MSTORE POP POP JUMP JUMPDEST PUSH2 0x14B8 DUP2 PUSH2 0x137F JUMP JUMPDEST DUP3 MSTORE POP POP JUMP JUMPDEST PUSH2 0x14C7 DUP2 PUSH2 0x124D JUMP JUMPDEST DUP3 MSTORE POP POP JUMP JUMPDEST PUSH0 DUP2 MLOAD SWAP1 POP SWAP2 SWAP1 POP JUMP JUMPDEST PUSH0 DUP3 DUP3 MSTORE PUSH1 0x20 DUP3 ADD SWAP1 POP SWAP3 SWAP2 POP POP JUMP JUMPDEST DUP3 DUP2 DUP4 MCOPY PUSH0 DUP4 DUP4 ADD MSTORE POP POP POP JUMP JUMPDEST PUSH0 PUSH1 0x1F NOT PUSH1 0x1F DUP4 ADD AND SWAP1 POP SWAP2 SWAP1 POP JUMP JUMPDEST PUSH0 PUSH2 0x150F DUP3 PUSH2 0x14CD JUMP JUMPDEST PUSH2 0x1519 DUP2 DUP6 PUSH2 0x14D7 JUMP JUMPDEST SWAP4 POP PUSH2 0x1529 DUP2 DUP6 PUSH1 0x20 DUP7 ADD PUSH2 0x14E7 JUMP JUMPDEST PUSH2 0x1532 DUP2 PUSH2 0x14F5 JUMP JUMPDEST DUP5 ADD SWAP2 POP POP SWAP3 SWAP2 POP POP JUMP JUMPDEST PUSH0 PUSH1 0xC0 DUP4 ADD PUSH0 DUP4 ADD MLOAD PUSH2 0x1552 PUSH0 DUP7 ADD DUP3 PUSH2 0x1491 JUMP JUMPDEST POP PUSH1 0x20 DUP4 ADD MLOAD PUSH2 0x1565 PUSH1 0x20 DUP7 ADD DUP3 PUSH2 0x14A0 JUMP JUMPDEST POP PUSH1 0x40 DUP4 ADD MLOAD PUSH2 0x1578 PUSH1 0x40 DUP7 ADD DUP3 PUSH2 0x14AF JUMP JUMPDEST POP PUSH1 0x60 DUP4 ADD MLOAD PUSH2 0x158B PUSH1 0x60 DUP7 ADD DUP3 PUSH2 0x14BE JUMP JUMPDEST POP PUSH1 0x80 DUP4 ADD MLOAD PUSH2 0x159E PUSH1 0x80 DUP7 ADD DUP3 PUSH2 0x14BE JUMP JUMPDEST POP PUSH1 0xA0 DUP4 ADD MLOAD DUP5 DUP3 SUB PUSH1 0xA0 DUP7 ADD MSTORE PUSH2 0x15B6 DUP3 DUP3 PUSH2 0x1505 JUMP JUMPDEST SWAP2 POP POP DUP1 SWAP2 POP POP SWAP3 SWAP2 POP POP JUMP JUMPDEST PUSH0 PUSH1 0x20 DUP3 ADD SWAP1 POP DUP2 DUP2 SUB PUSH0 DUP4 ADD MSTORE PUSH2 0x15DB DUP2 DUP5 PUSH2 0x153D JUMP JUMPDEST SWAP1 POP SWAP3 SWAP2 POP POP JUMP JUMPDEST PUSH0 DUP2 MLOAD SWAP1 POP PUSH2 0x15F1 DUP2 PUSH2 0x1044 JUMP JUMPDEST SWAP3 SWAP2 POP POP JUMP JUMPDEST PUSH0 PUSH1 0x20 DUP3 DUP5 SUB SLT ISZERO PUSH2 0x160C JUMPI PUSH2 0x160B PUSH2 0x1033 JUMP JUMPDEST JUMPDEST PUSH0 PUSH2 0x1619 DUP5 DUP3 DUP6 ADD PUSH2 0x15E3 JUMP JUMPDEST SWAP2 POP POP SWAP3 SWAP2 POP POP JUMP JUMPDEST PUSH32 0x4E487B7100000000000000000000000000000000000000000000000000000000 PUSH0 MSTORE PUSH1 0x32 PUSH1 0x4 MSTORE PUSH1 0x24 PUSH0 REVERT JUMPDEST PUSH32 0x4E487B7100000000000000000000000000000000000000000000000000000000 PUSH0 MSTORE PUSH1 0x12 PUSH1 0x4 MSTORE PUSH1 0x24 PUSH0 REVERT JUMPDEST PUSH0 PUSH2 0x1686 DUP3 PUSH2 0x103B JUMP JUMPDEST SWAP2 POP PUSH2 0x1691 DUP4 PUSH2 0x103B JUMP JUMPDEST SWAP3 POP DUP3 PUSH2 0x16A1 JUMPI PUSH2 0x16A0 PUSH2 0x164F JUMP JUMPDEST JUMPDEST DUP3 DUP3 MOD SWAP1 POP SWAP3 SWAP2 POP POP JUMP JUMPDEST PUSH32 0x4E487B7100000000000000000000000000000000000000000000000000000000 PUSH0 MSTORE PUSH1 0x11 PUSH1 0x4 MSTORE PUSH1 0x24 PUSH0 REVERT JUMPDEST PUSH0 PUSH2 0x16E3 DUP3 PUSH2 0x103B JUMP JUMPDEST SWAP2 POP PUSH2 0x16EE DUP4 PUSH2 0x103B JUMP JUMPDEST SWAP3 POP DUP3 DUP3 ADD SWAP1 POP DUP1 DUP3 GT ISZERO PUSH2 0x1706 JUMPI PUSH2 0x1705 PUSH2 0x16AC JUMP JUMPDEST JUMPDEST SWAP3 SWAP2 POP POP JUMP JUMPDEST PUSH0 PUSH1 0xFF DUP3 AND SWAP1 POP SWAP2 SWAP1 POP JUMP JUMPDEST PUSH0 PUSH2 0x1722 DUP3 PUSH2 0x170C JUMP JUMPDEST SWAP2 POP PUSH1 0xFF DUP3 SUB PUSH2 0x1735 JUMPI PUSH2 0x1734 PUSH2 0x16AC JUMP JUMPDEST JUMPDEST PUSH1 0x1 DUP3 ADD SWAP1 POP SWAP2 SWAP1 POP JUMP JUMPDEST PUSH32 0x6974656D00000000000000000000000000000000000000000000000000000000 PUSH0 DUP3 ADD MSTORE POP JUMP JUMPDEST PUSH0 PUSH2 0x1774 PUSH1 0x4 DUP4 PUSH2 0x13DB JUMP JUMPDEST SWAP2 POP PUSH2 0x177F DUP3 PUSH2 0x1740 JUMP JUMPDEST PUSH1 0x20 DUP3 ADD SWAP1 POP SWAP2 SWAP1 POP JUMP JUMPDEST PUSH0 PUSH1 0x40 DUP3 ADD SWAP1 POP PUSH2 0x179D PUSH0 DUP4 ADD DUP5 PUSH2 0x114B JUMP JUMPDEST DUP2 DUP2 SUB PUSH1 0x20 DUP4 ADD MSTORE PUSH2 0x17AE DUP2 PUSH2 0x1768 JUMP JUMPDEST SWAP1 POP SWAP3 SWAP2 POP POP JUMP JUMPDEST PUSH0 PUSH2 0x17C0 DUP3 PUSH2 0x103B JUMP JUMPDEST SWAP2 POP PUSH2 0x17CB DUP4 PUSH2 0x103B JUMP JUMPDEST SWAP3 POP DUP3 DUP3 SUB SWAP1 POP DUP2 DUP2 GT ISZERO PUSH2 0x17E3 JUMPI PUSH2 0x17E2 PUSH2 0x16AC JUMP JUMPDEST JUMPDEST SWAP3 SWAP2 POP POP JUMP JUMPDEST PUSH32 0x4E487B7100000000000000000000000000000000000000000000000000000000 PUSH0 MSTORE PUSH1 0x31 PUSH1 0x4 MSTORE PUSH1 0x24 PUSH0 REVERT JUMPDEST PUSH0 PUSH2 0x1820 DUP3 PUSH2 0x103B JUMP JUMPDEST SWAP2 POP PUSH0 DUP3 SUB PUSH2 0x1832 JUMPI PUSH2 0x1831 PUSH2 0x16AC JUMP JUMPDEST JUMPDEST PUSH1 0x1 DUP3 SUB SWAP1 POP SWAP2 SWAP1 POP JUMP JUMPDEST PUSH0 PUSH2 0x1847 DUP3 PUSH2 0x124D JUMP JUMPDEST SWAP2 POP PUSH0 DUP3 SUB PUSH2 0x1859 JUMPI PUSH2 0x1858 PUSH2 0x16AC JUMP JUMPDEST JUMPDEST PUSH1 0x1 DUP3 SUB SWAP1 POP SWAP2 SWAP1 POP JUMP JUMPDEST PUSH2 0x186D DUP2 PUSH2 0x170C JUMP JUMPDEST DUP3 MSTORE POP POP JUMP JUMPDEST PUSH0 PUSH1 0x40 DUP3 ADD SWAP1 POP PUSH2 0x1886 PUSH0 DUP4 ADD DUP6 PUSH2 0x1864 JUMP JUMPDEST PUSH2 0x1893 PUSH1 0x20 DUP4 ADD DUP5 PUSH2 0x114B JUMP JUMPDEST SWAP4 SWAP3 POP POP POP JUMP JUMPDEST PUSH32 0x4F6E6C792063616C6C61626C65206279206F776E657200000000000000000000 PUSH0 DUP3 ADD MSTORE POP JUMP JUMPDEST PUSH0 PUSH2 0x18CE PUSH1 0x16 DUP4 PUSH2 0x13DB JUMP JUMPDEST SWAP2 POP PUSH2 0x18D9 DUP3 PUSH2 0x189A JUMP JUMPDEST PUSH1 0x20 DUP3 ADD SWAP1 POP SWAP2 SWAP1 POP JUMP JUMPDEST PUSH0 PUSH1 0x20 DUP3 ADD SWAP1 POP DUP2 DUP2 SUB PUSH0 DUP4 ADD MSTORE PUSH2 0x18FB DUP2 PUSH2 0x18C2 JUMP JUMPDEST SWAP1 POP SWAP2 SWAP1 POP JUMP JUMPDEST PUSH32 0x43616E6E6F74207472616E7366657220746F2073656C66000000000000000000 PUSH0 DUP3 ADD MSTORE POP JUMP JUMPDEST PUSH0 PUSH2 0x1936 PUSH1 0x17 DUP4 PUSH2 0x13DB JUMP JUMPDEST SWAP2 POP PUSH2 0x1941 DUP3 PUSH2 0x1902 JUMP JUMPDEST PUSH1 0x20 DUP3 ADD SWAP1 POP SWAP2 SWAP1 POP JUMP JUMPDEST PUSH0 PUSH1 0x20 DUP3 ADD SWAP1 POP DUP2 DUP2 SUB PUSH0 DUP4 ADD MSTORE PUSH2 0x1963 DUP2 PUSH2 0x192A JUMP JUMPDEST SWAP1 POP SWAP2 SWAP1 POP JUMP INVALID LOG2 PUSH5 0x6970667358 0x22 SLT KECCAK256 COINBASE PUSH31 0xF0791E1D9576F842D774629022420D051EEBA69DDB6F24D0517FBFE423D964 PUSH20 0x6F6C634300081E00330000000000000000000000 "
				},
				"gasEstimates": {
					"creation": {
						"codeDepositCost": "1312000",
						"executionCost": "infinite",
						"totalCost": "infinite"
					},
					"external": {
						"acceptOwnership()": "54576",
						"asks(uint256)": "infinite",
						"buyBox()": "infinite",
						"callbackGasLimit()": "2534",
						"classes(uint256)": "infinite",
						"numWords()": "2584",
						"owner()": "2537",
						"rawFulfillRandomWords(uint256,uint256[])": "infinite",
						"requestConfirmations()": "2539",
						"requestRandomWords()": "infinite",
						"s_vrfCoordinator()": "infinite",
						"setCoordinator(address)": "infinite",
						"totalRemaining()": "2510",
						"transferOwnership(address)": "30737"
					},
					"internal": {
						"fulfillRandomWords(uint256,uint256[] calldata)": "infinite"
					}
				},
				"methodIdentifiers": {
					"acceptOwnership()": "79ba5097",
					"asks(uint256)": "0b0c1493",
					"buyBox()": "479507bb",
					"callbackGasLimit()": "24f74697",
					"classes(uint256)": "817dbe9f",
					"numWords()": "7ccfd7fc",
					"owner()": "8da5cb5b",
					"rawFulfillRandomWords(uint256,uint256[])": "1fe543e3",
					"requestConfirmations()": "b0fb162f",
					"requestRandomWords()": "e0c86289",
					"s_vrfCoordinator()": "9eccacf6",
					"setCoordinator(address)": "8ea98117",
					"totalRemaining()": "d8a54360",
					"transferOwnership(address)": "f2fde38b"
				}
			},
			"storageLayout": {
				"storage": [
					{
						"astId": 29,
						"contract": "src/LotBoxVRF.sol:LootBoxVRF",
						"label": "s_owner",
						"offset": 0,
						"slot": "0",
						"type": "t_address"
					},
					{
						"astId": 31,
						"contract": "src/LotBoxVRF.sol:LootBoxVRF",
						"label": "s_pendingOwner",
						"offset": 0,
						"slot": "1",
						"type": "t_address"
					},
					{
						"astId": 231,
						"contract": "src/LotBoxVRF.sol:LootBoxVRF",
						"label": "s_vrfCoordinator",
						"offset": 0,
						"slot": "2",
						"type": "t_contract(IVRFCoordinatorV2Plus)380"
					},
					{
						"astId": 535,
						"contract": "src/LotBoxVRF.sol:LootBoxVRF",
						"label": "COORDINATOR",
						"offset": 0,
						"slot": "3",
						"type": "t_contract(IVRFCoordinatorV2Plus)380"
					},
					{
						"astId": 538,
						"contract": "src/LotBoxVRF.sol:LootBoxVRF",
						"label": "vrfCoordinator",
						"offset": 0,
						"slot": "4",
						"type": "t_address"
					},
					{
						"astId": 541,
						"contract": "src/LotBoxVRF.sol:LootBoxVRF",
						"label": "keyHash",
						"offset": 0,
						"slot": "5",
						"type": "t_bytes32"
					},
					{
						"astId": 543,
						"contract": "src/LotBoxVRF.sol:LootBoxVRF",
						"label": "subId",
						"offset": 0,
						"slot": "6",
						"type": "t_uint256"
					},
					{
						"astId": 546,
						"contract": "src/LotBoxVRF.sol:LootBoxVRF",
						"label": "callbackGasLimit",
						"offset": 0,
						"slot": "7",
						"type": "t_uint32"
					},
					{
						"astId": 549,
						"contract": "src/LotBoxVRF.sol:LootBoxVRF",
						"label": "requestConfirmations",
						"offset": 4,
						"slot": "7",
						"type": "t_uint16"
					},
					{
						"astId": 552,
						"contract": "src/LotBoxVRF.sol:LootBoxVRF",
						"label": "numWords",
						"offset": 6,
						"slot": "7",
						"type": "t_uint32"
					},
					{
						"astId": 566,
						"contract": "src/LotBoxVRF.sol:LootBoxVRF",
						"label": "classes",
						"offset": 0,
						"slot": "8",
						"type": "t_array(t_struct(Class)562_storage)dyn_storage"
					},
					{
						"astId": 568,
						"contract": "src/LotBoxVRF.sol:LootBoxVRF",
						"label": "totalRemaining",
						"offset": 0,
						"slot": "9",
						"type": "t_uint32"
					},
					{
						"astId": 585,
						"contract": "src/LotBoxVRF.sol:LootBoxVRF",
						"label": "asks",
						"offset": 0,
						"slot": "10",
						"type": "t_mapping(t_uint256,t_struct(Ask)580_storage)"
					}
				],
				"types": {
					"t_address": {
						"encoding": "inplace",
						"label": "address",
						"numberOfBytes": "20"
					},
					"t_array(t_struct(Class)562_storage)dyn_storage": {
						"base": "t_struct(Class)562_storage",
						"encoding": "dynamic_array",
						"label": "struct LootBoxVRF.Class[]",
						"numberOfBytes": "32"
					},
					"t_array(t_uint256)dyn_storage": {
						"base": "t_uint256",
						"encoding": "dynamic_array",
						"label": "uint256[]",
						"numberOfBytes": "32"
					},
					"t_bytes32": {
						"encoding": "inplace",
						"label": "bytes32",
						"numberOfBytes": "32"
					},
					"t_contract(IVRFCoordinatorV2Plus)380": {
						"encoding": "inplace",
						"label": "contract IVRFCoordinatorV2Plus",
						"numberOfBytes": "20"
					},
					"t_enum(Status)572": {
						"encoding": "inplace",
						"label": "enum LootBoxVRF.Status",
						"numberOfBytes": "1"
					},
					"t_mapping(t_uint256,t_struct(Ask)580_storage)": {
						"encoding": "mapping",
						"key": "t_uint256",
						"label": "mapping(uint256 => struct LootBoxVRF.Ask)",
						"numberOfBytes": "32",
						"value": "t_struct(Ask)580_storage"
					},
					"t_mapping(t_uint256,t_uint256)": {
						"encoding": "mapping",
						"key": "t_uint256",
						"label": "mapping(uint256 => uint256)",
						"numberOfBytes": "32",
						"value": "t_uint256"
					},
					"t_struct(Ask)580_storage": {
						"encoding": "inplace",
						"label": "struct LootBoxVRF.Ask",
						"members": [
							{
								"astId": 575,
								"contract": "src/LotBoxVRF.sol:LootBoxVRF",
								"label": "status",
								"offset": 0,
								"slot": "0",
								"type": "t_enum(Status)572"
							},
							{
								"astId": 577,
								"contract": "src/LotBoxVRF.sol:LootBoxVRF",
								"label": "buyer",
								"offset": 1,
								"slot": "0",
								"type": "t_address"
							},
							{
								"astId": 579,
								"contract": "src/LotBoxVRF.sol:LootBoxVRF",
								"label": "randomness",
								"offset": 0,
								"slot": "1",
								"type": "t_uint256"
							}
						],
						"numberOfBytes": "64"
					},
					"t_struct(Class)562_storage": {
						"encoding": "inplace",
						"label": "struct LootBoxVRF.Class",
						"members": [
							{
								"astId": 555,
								"contract": "src/LotBoxVRF.sol:LootBoxVRF",
								"label": "items",
								"offset": 0,
								"slot": "0",
								"type": "t_array(t_uint256)dyn_storage"
							},
							{
								"astId": 559,
								"contract": "src/LotBoxVRF.sol:LootBoxVRF",
								"label": "idex",
								"offset": 0,
								"slot": "1",
								"type": "t_mapping(t_uint256,t_uint256)"
							},
							{
								"astId": 561,
								"contract": "src/LotBoxVRF.sol:LootBoxVRF",
								"label": "remaining",
								"offset": 0,
								"slot": "2",
								"type": "t_uint256"
							}
						],
						"numberOfBytes": "96"
					},
					"t_uint16": {
						"encoding": "inplace",
						"label": "uint16",
						"numberOfBytes": "2"
					},
					"t_uint256": {
						"encoding": "inplace",
						"label": "uint256",
						"numberOfBytes": "32"
					},
					"t_uint32": {
						"encoding": "inplace",
						"label": "uint32",
						"numberOfBytes": "4"
					}
				}
			},
			"userdoc": {
				"kind": "user",
				"methods": {
					"acceptOwnership()": {
						"notice": "Allows an ownership transfer to be completed by the recipient."
					},
					"owner()": {
						"notice": "Get the current owner"
					},
					"setCoordinator(address)": {
						"notice": "Sets the VRF Coordinator addressThis method should only be callable by the coordinator or contract owner"
					},
					"transferOwnership(address)": {
						"notice": "Allows an owner to begin transferring ownership to a new address."
					}
				},
				"version": 1
			}
		}
	}
}