{
    "abi": [
        {
            "type": "constructor",
            "inputs": [
                {
                    "name": "_subscriptionId",
                    "type": "uint256",
                    "internalType": "uint256"
                },
                {
                    "name": "_poolAddress",
                    "type": "address",
                    "internalType": "address"
                }
            ],
            "stateMutability": "nonpayable"
        },
        {
            "type": "function",
            "name": "BASE",
            "inputs": [],
            "outputs": [
                {
                    "name": "",
                    "type": "uint16",
                    "internalType": "uint16"
                }
            ],
            "stateMutability": "view"
        },
        {
            "type": "function",
            "name": "METADATA_DESCRIPTION",
            "inputs": [],
            "outputs": [
                {
                    "name": "",
                    "type": "string",
                    "internalType": "string"
                }
            ],
            "stateMutability": "view"
        },
        {
            "type": "function",
            "name": "METADATA_IMAGE",
            "inputs": [],
            "outputs": [
                {
                    "name": "",
                    "type": "string",
                    "internalType": "string"
                }
            ],
            "stateMutability": "view"
        },
        {
            "type": "function",
            "name": "METADATA_NAME",
            "inputs": [],
            "outputs": [
                {
                    "name": "",
                    "type": "string",
                    "internalType": "string"
                }
            ],
            "stateMutability": "view"
        },
        {
            "type": "function",
            "name": "acceptOwnership",
            "inputs": [],
            "outputs": [],
            "stateMutability": "nonpayable"
        },
        {
            "type": "function",
            "name": "approve",
            "inputs": [
                {
                    "name": "to",
                    "type": "address",
                    "internalType": "address"
                },
                {
                    "name": "tokenId",
                    "type": "uint256",
                    "internalType": "uint256"
                }
            ],
            "outputs": [],
            "stateMutability": "nonpayable"
        },
        {
            "type": "function",
            "name": "balanceOf",
            "inputs": [
                {
                    "name": "owner",
                    "type": "address",
                    "internalType": "address"
                }
            ],
            "outputs": [
                {
                    "name": "",
                    "type": "uint256",
                    "internalType": "uint256"
                }
            ],
            "stateMutability": "view"
        },
        {
            "type": "function",
            "name": "boxIdToRequestId",
            "inputs": [
                {
                    "name": "",
                    "type": "uint256",
                    "internalType": "uint256"
                }
            ],
            "outputs": [
                {
                    "name": "",
                    "type": "uint256",
                    "internalType": "uint256"
                }
            ],
            "stateMutability": "view"
        },
        {
            "type": "function",
            "name": "boxPrice",
            "inputs": [],
            "outputs": [
                {
                    "name": "",
                    "type": "uint256",
                    "internalType": "uint256"
                }
            ],
            "stateMutability": "view"
        },
        {
            "type": "function",
            "name": "boxTotalSupply",
            "inputs": [],
            "outputs": [
                {
                    "name": "",
                    "type": "uint256",
                    "internalType": "uint256"
                }
            ],
            "stateMutability": "view"
        },
        {
            "type": "function",
            "name": "buyBox",
            "inputs": [],
            "outputs": [],
            "stateMutability": "payable"
        },
        {
            "type": "function",
            "name": "callbackGasLimit",
            "inputs": [],
            "outputs": [
                {
                    "name": "",
                    "type": "uint32",
                    "internalType": "uint32"
                }
            ],
            "stateMutability": "view"
        },
        {
            "type": "function",
            "name": "getApproved",
            "inputs": [
                {
                    "name": "tokenId",
                    "type": "uint256",
                    "internalType": "uint256"
                }
            ],
            "outputs": [
                {
                    "name": "",
                    "type": "address",
                    "internalType": "address"
                }
            ],
            "stateMutability": "view"
        },
        {
            "type": "function",
            "name": "isApprovedForAll",
            "inputs": [
                {
                    "name": "owner",
                    "type": "address",
                    "internalType": "address"
                },
                {
                    "name": "operator",
                    "type": "address",
                    "internalType": "address"
                }
            ],
            "outputs": [
                {
                    "name": "",
                    "type": "bool",
                    "internalType": "bool"
                }
            ],
            "stateMutability": "view"
        },
        {
            "type": "function",
            "name": "name",
            "inputs": [],
            "outputs": [
                {
                    "name": "",
                    "type": "string",
                    "internalType": "string"
                }
            ],
            "stateMutability": "view"
        },
        {
            "type": "function",
            "name": "numWords",
            "inputs": [],
            "outputs": [
                {
                    "name": "",
                    "type": "uint32",
                    "internalType": "uint32"
                }
            ],
            "stateMutability": "view"
        },
        {
            "type": "function",
            "name": "openBox",
            "inputs": [
                {
                    "name": "tokenId",
                    "type": "uint256",
                    "internalType": "uint256"
                }
            ],
            "outputs": [],
            "stateMutability": "nonpayable"
        },
        {
            "type": "function",
            "name": "owner",
            "inputs": [],
            "outputs": [
                {
                    "name": "",
                    "type": "address",
                    "internalType": "address"
                }
            ],
            "stateMutability": "view"
        },
        {
            "type": "function",
            "name": "ownerOf",
            "inputs": [
                {
                    "name": "tokenId",
                    "type": "uint256",
                    "internalType": "uint256"
                }
            ],
            "outputs": [
                {
                    "name": "",
                    "type": "address",
                    "internalType": "address"
                }
            ],
            "stateMutability": "view"
        },
        {
            "type": "function",
            "name": "poolManager",
            "inputs": [],
            "outputs": [
                {
                    "name": "",
                    "type": "address",
                    "internalType": "contract INFTPoolManager"
                }
            ],
            "stateMutability": "view"
        },
        {
            "type": "function",
            "name": "rarity",
            "inputs": [
                {
                    "name": "",
                    "type": "uint256",
                    "internalType": "uint256"
                }
            ],
            "outputs": [
                {
                    "name": "",
                    "type": "uint8",
                    "internalType": "uint8"
                }
            ],
            "stateMutability": "view"
        },
        {
            "type": "function",
            "name": "rarityPool",
            "inputs": [
                {
                    "name": "",
                    "type": "uint256",
                    "internalType": "uint256"
                }
            ],
            "outputs": [
                {
                    "name": "rarityType",
                    "type": "uint8",
                    "internalType": "uint8"
                },
                {
                    "name": "probability",
                    "type": "uint16",
                    "internalType": "uint16"
                }
            ],
            "stateMutability": "view"
        },
        {
            "type": "function",
            "name": "ravealed",
            "inputs": [
                {
                    "name": "",
                    "type": "uint256",
                    "internalType": "uint256"
                }
            ],
            "outputs": [
                {
                    "name": "",
                    "type": "bool",
                    "internalType": "bool"
                }
            ],
            "stateMutability": "view"
        },
        {
            "type": "function",
            "name": "rawFulfillRandomWords",
            "inputs": [
                {
                    "name": "requestId",
                    "type": "uint256",
                    "internalType": "uint256"
                },
                {
                    "name": "randomWords",
                    "type": "uint256[]",
                    "internalType": "uint256[]"
                }
            ],
            "outputs": [],
            "stateMutability": "nonpayable"
        },
        {
            "type": "function",
            "name": "requestConfirmations",
            "inputs": [],
            "outputs": [
                {
                    "name": "",
                    "type": "uint16",
                    "internalType": "uint16"
                }
            ],
            "stateMutability": "view"
        },
        {
            "type": "function",
            "name": "requestIdToBoxId",
            "inputs": [
                {
                    "name": "",
                    "type": "uint256",
                    "internalType": "uint256"
                }
            ],
            "outputs": [
                {
                    "name": "",
                    "type": "uint256",
                    "internalType": "uint256"
                }
            ],
            "stateMutability": "view"
        },
        {
            "type": "function",
            "name": "s_vrfCoordinator",
            "inputs": [],
            "outputs": [
                {
                    "name": "",
                    "type": "address",
                    "internalType": "contract IVRFCoordinatorV2Plus"
                }
            ],
            "stateMutability": "view"
        },
        {
            "type": "function",
            "name": "safeTransferFrom",
            "inputs": [
                {
                    "name": "from",
                    "type": "address",
                    "internalType": "address"
                },
                {
                    "name": "to",
                    "type": "address",
                    "internalType": "address"
                },
                {
                    "name": "tokenId",
                    "type": "uint256",
                    "internalType": "uint256"
                }
            ],
            "outputs": [],
            "stateMutability": "nonpayable"
        },
        {
            "type": "function",
            "name": "safeTransferFrom",
            "inputs": [
                {
                    "name": "from",
                    "type": "address",
                    "internalType": "address"
                },
                {
                    "name": "to",
                    "type": "address",
                    "internalType": "address"
                },
                {
                    "name": "tokenId",
                    "type": "uint256",
                    "internalType": "uint256"
                },
                {
                    "name": "data",
                    "type": "bytes",
                    "internalType": "bytes"
                }
            ],
            "outputs": [],
            "stateMutability": "nonpayable"
        },
        {
            "type": "function",
            "name": "setApprovalForAll",
            "inputs": [
                {
                    "name": "operator",
                    "type": "address",
                    "internalType": "address"
                },
                {
                    "name": "approved",
                    "type": "bool",
                    "internalType": "bool"
                }
            ],
            "outputs": [],
            "stateMutability": "nonpayable"
        },
        {
            "type": "function",
            "name": "setCoordinator",
            "inputs": [
                {
                    "name": "_vrfCoordinator",
                    "type": "address",
                    "internalType": "address"
                }
            ],
            "outputs": [],
            "stateMutability": "nonpayable"
        },
        {
            "type": "function",
            "name": "setPoolManager",
            "inputs": [
                {
                    "name": "_poolManager",
                    "type": "address",
                    "internalType": "address"
                }
            ],
            "outputs": [],
            "stateMutability": "nonpayable"
        },
        {
            "type": "function",
            "name": "supportsInterface",
            "inputs": [
                {
                    "name": "interfaceId",
                    "type": "bytes4",
                    "internalType": "bytes4"
                }
            ],
            "outputs": [
                {
                    "name": "",
                    "type": "bool",
                    "internalType": "bool"
                }
            ],
            "stateMutability": "view"
        },
        {
            "type": "function",
            "name": "symbol",
            "inputs": [],
            "outputs": [
                {
                    "name": "",
                    "type": "string",
                    "internalType": "string"
                }
            ],
            "stateMutability": "view"
        },
        {
            "type": "function",
            "name": "tokenByIndex",
            "inputs": [
                {
                    "name": "index",
                    "type": "uint256",
                    "internalType": "uint256"
                }
            ],
            "outputs": [
                {
                    "name": "",
                    "type": "uint256",
                    "internalType": "uint256"
                }
            ],
            "stateMutability": "view"
        },
        {
            "type": "function",
            "name": "tokenOfOwnerByIndex",
            "inputs": [
                {
                    "name": "owner",
                    "type": "address",
                    "internalType": "address"
                },
                {
                    "name": "index",
                    "type": "uint256",
                    "internalType": "uint256"
                }
            ],
            "outputs": [
                {
                    "name": "",
                    "type": "uint256",
                    "internalType": "uint256"
                }
            ],
            "stateMutability": "view"
        },
        {
            "type": "function",
            "name": "tokenURI",
            "inputs": [
                {
                    "name": "tokenId",
                    "type": "uint256",
                    "internalType": "uint256"
                }
            ],
            "outputs": [
                {
                    "name": "",
                    "type": "string",
                    "internalType": "string"
                }
            ],
            "stateMutability": "view"
        },
        {
            "type": "function",
            "name": "totalSupply",
            "inputs": [],
            "outputs": [
                {
                    "name": "",
                    "type": "uint256",
                    "internalType": "uint256"
                }
            ],
            "stateMutability": "view"
        },
        {
            "type": "function",
            "name": "transferFrom",
            "inputs": [
                {
                    "name": "from",
                    "type": "address",
                    "internalType": "address"
                },
                {
                    "name": "to",
                    "type": "address",
                    "internalType": "address"
                },
                {
                    "name": "tokenId",
                    "type": "uint256",
                    "internalType": "uint256"
                }
            ],
            "outputs": [],
            "stateMutability": "nonpayable"
        },
        {
            "type": "function",
            "name": "transferOwnership",
            "inputs": [
                {
                    "name": "to",
                    "type": "address",
                    "internalType": "address"
                }
            ],
            "outputs": [],
            "stateMutability": "nonpayable"
        },
        {
            "type": "event",
            "name": "Approval",
            "inputs": [
                {
                    "name": "owner",
                    "type": "address",
                    "indexed": true,
                    "internalType": "address"
                },
                {
                    "name": "approved",
                    "type": "address",
                    "indexed": true,
                    "internalType": "address"
                },
                {
                    "name": "tokenId",
                    "type": "uint256",
                    "indexed": true,
                    "internalType": "uint256"
                }
            ],
            "anonymous": false
        },
        {
            "type": "event",
            "name": "ApprovalForAll",
            "inputs": [
                {
                    "name": "owner",
                    "type": "address",
                    "indexed": true,
                    "internalType": "address"
                },
                {
                    "name": "operator",
                    "type": "address",
                    "indexed": true,
                    "internalType": "address"
                },
                {
                    "name": "approved",
                    "type": "bool",
                    "indexed": false,
                    "internalType": "bool"
                }
            ],
            "anonymous": false
        },
        {
            "type": "event",
            "name": "CoordinatorSet",
            "inputs": [
                {
                    "name": "vrfCoordinator",
                    "type": "address",
                    "indexed": false,
                    "internalType": "address"
                }
            ],
            "anonymous": false
        },
        {
            "type": "event",
            "name": "OpenBox",
            "inputs": [
                {
                    "name": "opener",
                    "type": "address",
                    "indexed": false,
                    "internalType": "address"
                },
                {
                    "name": "pickedClass",
                    "type": "uint8",
                    "indexed": false,
                    "internalType": "uint8"
                },
                {
                    "name": "prizeAddress",
                    "type": "address",
                    "indexed": false,
                    "internalType": "address"
                },
                {
                    "name": "prizeId",
                    "type": "uint256",
                    "indexed": false,
                    "internalType": "uint256"
                }
            ],
            "anonymous": false
        },
        {
            "type": "event",
            "name": "OwnershipTransferRequested",
            "inputs": [
                {
                    "name": "from",
                    "type": "address",
                    "indexed": true,
                    "internalType": "address"
                },
                {
                    "name": "to",
                    "type": "address",
                    "indexed": true,
                    "internalType": "address"
                }
            ],
            "anonymous": false
        },
        {
            "type": "event",
            "name": "OwnershipTransferred",
            "inputs": [
                {
                    "name": "from",
                    "type": "address",
                    "indexed": true,
                    "internalType": "address"
                },
                {
                    "name": "to",
                    "type": "address",
                    "indexed": true,
                    "internalType": "address"
                }
            ],
            "anonymous": false
        },
        {
            "type": "event",
            "name": "RandomsRequest",
            "inputs": [
                {
                    "name": "requestId",
                    "type": "uint256",
                    "indexed": false,
                    "internalType": "uint256"
                },
                {
                    "name": "user",
                    "type": "address",
                    "indexed": true,
                    "internalType": "address"
                }
            ],
            "anonymous": false
        },
        {
            "type": "event",
            "name": "Transfer",
            "inputs": [
                {
                    "name": "from",
                    "type": "address",
                    "indexed": true,
                    "internalType": "address"
                },
                {
                    "name": "to",
                    "type": "address",
                    "indexed": true,
                    "internalType": "address"
                },
                {
                    "name": "tokenId",
                    "type": "uint256",
                    "indexed": true,
                    "internalType": "uint256"
                }
            ],
            "anonymous": false
        },
        {
            "type": "error",
            "name": "BoxRevealed",
            "inputs": []
        },
        {
            "type": "error",
            "name": "ERC721EnumerableForbiddenBatchMint",
            "inputs": []
        },
        {
            "type": "error",
            "name": "ERC721IncorrectOwner",
            "inputs": [
                {
                    "name": "sender",
                    "type": "address",
                    "internalType": "address"
                },
                {
                    "name": "tokenId",
                    "type": "uint256",
                    "internalType": "uint256"
                },
                {
                    "name": "owner",
                    "type": "address",
                    "internalType": "address"
                }
            ]
        },
        {
            "type": "error",
            "name": "ERC721InsufficientApproval",
            "inputs": [
                {
                    "name": "operator",
                    "type": "address",
                    "internalType": "address"
                },
                {
                    "name": "tokenId",
                    "type": "uint256",
                    "internalType": "uint256"
                }
            ]
        },
        {
            "type": "error",
            "name": "ERC721InvalidApprover",
            "inputs": [
                {
                    "name": "approver",
                    "type": "address",
                    "internalType": "address"
                }
            ]
        },
        {
            "type": "error",
            "name": "ERC721InvalidOperator",
            "inputs": [
                {
                    "name": "operator",
                    "type": "address",
                    "internalType": "address"
                }
            ]
        },
        {
            "type": "error",
            "name": "ERC721InvalidOwner",
            "inputs": [
                {
                    "name": "owner",
                    "type": "address",
                    "internalType": "address"
                }
            ]
        },
        {
            "type": "error",
            "name": "ERC721InvalidReceiver",
            "inputs": [
                {
                    "name": "receiver",
                    "type": "address",
                    "internalType": "address"
                }
            ]
        },
        {
            "type": "error",
            "name": "ERC721InvalidSender",
            "inputs": [
                {
                    "name": "sender",
                    "type": "address",
                    "internalType": "address"
                }
            ]
        },
        {
            "type": "error",
            "name": "ERC721NonexistentToken",
            "inputs": [
                {
                    "name": "tokenId",
                    "type": "uint256",
                    "internalType": "uint256"
                }
            ]
        },
        {
            "type": "error",
            "name": "ERC721OutOfBoundsIndex",
            "inputs": [
                {
                    "name": "owner",
                    "type": "address",
                    "internalType": "address"
                },
                {
                    "name": "index",
                    "type": "uint256",
                    "internalType": "uint256"
                }
            ]
        },
        {
            "type": "error",
            "name": "NotEnoughETH",
            "inputs": []
        },
        {
            "type": "error",
            "name": "NotOwner",
            "inputs": []
        },
        {
            "type": "error",
            "name": "OnlyCoordinatorCanFulfill",
            "inputs": [
                {
                    "name": "have",
                    "type": "address",
                    "internalType": "address"
                },
                {
                    "name": "want",
                    "type": "address",
                    "internalType": "address"
                }
            ]
        },
        {
            "type": "error",
            "name": "OnlyOwnerOrCoordinator",
            "inputs": [
                {
                    "name": "have",
                    "type": "address",
                    "internalType": "address"
                },
                {
                    "name": "owner",
                    "type": "address",
                    "internalType": "address"
                },
                {
                    "name": "coordinator",
                    "type": "address",
                    "internalType": "address"
                }
            ]
        },
        {
            "type": "error",
            "name": "ZeroAddress",
            "inputs": []
        },
        {
            "type": "error",
            "name": "errorPoolManagerAddr",
            "inputs": []
        }
    ],
    "bytecode": {
        "object": "0x6080604052739ddfaca8183c41ad55329bdeed9f6a8d53168b1b600f5f6101000a81548173ffffffffffffffffffffffffffffffffffffffff021916908373ffffffffffffffffffffffffffffffffffffffff1602179055507f787d74caea10b2b357790d5b5247c2f63d1d91572a9846f780606e4d953677ae5f1b60105562030d4060125f6101000a81548163ffffffff021916908363ffffffff1602179055506003601260046101000a81548161ffff021916908361ffff1602179055506001601260066101000a81548163ffffffff021916908363ffffffff160217905550600160135566038d7ea4c680006014553480156100fc575f5ffd5b50604051614e8e380380614e8e833981810160405281019061011e91906107e9565b600f5f9054906101000a900473ffffffffffffffffffffffffffffffffffffffff1633805f6040518060400160405280600681526020017f585944424f5800000000000000000000000000000000000000000000000000008152506040518060400160405280600381526020017f5842580000000000000000000000000000000000000000000000000000000000815250815f90816101bd9190610a5b565b5080600190816101cd9190610a5b565b5050505f73ffffffffffffffffffffffffffffffffffffffff168273ffffffffffffffffffffffffffffffffffffffff160361023e576040517f08c379a000000000000000000000000000000000000000000000000000000000815260040161023590610b84565b60405180910390fd5b81600a5f6101000a81548173ffffffffffffffffffffffffffffffffffffffff021916908373ffffffffffffffffffffffffffffffffffffffff1602179055505f73ffffffffffffffffffffffffffffffffffffffff168173ffffffffffffffffffffffffffffffffffffffff16146102c1576102c08161062c60201b60201c565b5b5050505f73ffffffffffffffffffffffffffffffffffffffff168173ffffffffffffffffffffffffffffffffffffffff1603610329576040517fd92e233d00000000000000000000000000000000000000000000000000000000815260040160405180910390fd5b80600c5f6101000a81548173ffffffffffffffffffffffffffffffffffffffff021916908373ffffffffffffffffffffffffffffffffffffffff16021790555050601a6040518060400160405280600160ff168152602001606461ffff16815250908060018154018082558091505060019003905f5260205f20015f909190919091505f820151815f015f6101000a81548160ff021916908360ff1602179055506020820151815f0160016101000a81548161ffff021916908361ffff1602179055505050601a6040518060400160405280600260ff16815260200161038461ffff16815250908060018154018082558091505060019003905f5260205f20015f909190919091505f820151815f015f6101000a81548160ff021916908360ff1602179055506020820151815f0160016101000a81548161ffff021916908361ffff1602179055505050601a6040518060400160405280600360ff168152602001610bb861ffff16815250908060018154018082558091505060019003905f5260205f20015f909190919091505f820151815f015f6101000a81548160ff021916908360ff1602179055506020820151815f0160016101000a81548161ffff021916908361ffff1602179055505050601a6040518060400160405280600460ff16815260200161177061ffff16815250908060018154018082558091505060019003905f5260205f20015f909190919091505f820151815f015f6101000a81548160ff021916908360ff1602179055506020820151815f0160016101000a81548161ffff021916908361ffff1602179055505050600f5f9054906101000a900473ffffffffffffffffffffffffffffffffffffffff16600e5f6101000a81548173ffffffffffffffffffffffffffffffffffffffff021916908373ffffffffffffffffffffffffffffffffffffffff1602179055508160118190555080600d5f6101000a81548173ffffffffffffffffffffffffffffffffffffffff021916908373ffffffffffffffffffffffffffffffffffffffff1602179055505050610c0a565b3373ffffffffffffffffffffffffffffffffffffffff168173ffffffffffffffffffffffffffffffffffffffff160361069a576040517f08c379a000000000000000000000000000000000000000000000000000000000815260040161069190610bec565b60405180910390fd5b80600b5f6101000a81548173ffffffffffffffffffffffffffffffffffffffff021916908373ffffffffffffffffffffffffffffffffffffffff1602179055508073ffffffffffffffffffffffffffffffffffffffff16600a5f9054906101000a900473ffffffffffffffffffffffffffffffffffffffff1673ffffffffffffffffffffffffffffffffffffffff167fed8889f560326eb138920d842192f0eb3dd22b4f139c87a2c57538e05bae127860405160405180910390a350565b5f5ffd5b5f819050919050565b61076e8161075c565b8114610778575f5ffd5b50565b5f8151905061078981610765565b92915050565b5f73ffffffffffffffffffffffffffffffffffffffff82169050919050565b5f6107b88261078f565b9050919050565b6107c8816107ae565b81146107d2575f5ffd5b50565b5f815190506107e3816107bf565b92915050565b5f5f604083850312156107ff576107fe610758565b5b5f61080c8582860161077b565b925050602061081d858286016107d5565b9150509250929050565b5f81519050919050565b7f4e487b71000000000000000000000000000000000000000000000000000000005f52604160045260245ffd5b7f4e487b71000000000000000000000000000000000000000000000000000000005f52602260045260245ffd5b5f60028204905060018216806108a257607f821691505b6020821081036108b5576108b461085e565b5b50919050565b5f819050815f5260205f209050919050565b5f6020601f8301049050919050565b5f82821b905092915050565b5f600883026109177fffffffffffffffffffffffffffffffffffffffffffffffffffffffffffffffff826108dc565b61092186836108dc565b95508019841693508086168417925050509392505050565b5f819050919050565b5f61095c6109576109528461075c565b610939565b61075c565b9050919050565b5f819050919050565b61097583610942565b61098961098182610963565b8484546108e8565b825550505050565b5f5f905090565b6109a0610991565b6109ab81848461096c565b505050565b5b818110156109ce576109c35f82610998565b6001810190506109b1565b5050565b601f821115610a13576109e4816108bb565b6109ed846108cd565b810160208510156109fc578190505b610a10610a08856108cd565b8301826109b0565b50505b505050565b5f82821c905092915050565b5f610a335f1984600802610a18565b1980831691505092915050565b5f610a4b8383610a24565b9150826002028217905092915050565b610a6482610827565b67ffffffffffffffff811115610a7d57610a7c610831565b5b610a87825461088b565b610a928282856109d2565b5f60209050601f831160018114610ac3575f8415610ab1578287015190505b610abb8582610a40565b865550610b22565b601f198416610ad1866108bb565b5f5b82811015610af857848901518255600182019150602085019450602081019050610ad3565b86831015610b155784890151610b11601f891682610a24565b8355505b6001600288020188555050505b505050505050565b5f82825260208201905092915050565b7f43616e6e6f7420736574206f776e657220746f207a65726f00000000000000005f82015250565b5f610b6e601883610b2a565b9150610b7982610b3a565b602082019050919050565b5f6020820190508181035f830152610b9b81610b62565b9050919050565b7f43616e6e6f74207472616e7366657220746f2073656c660000000000000000005f82015250565b5f610bd6601783610b2a565b9150610be182610ba2565b602082019050919050565b5f6020820190508181035f830152610c0381610bca565b9050919050565b61427780610c175f395ff3fe60806040526004361061023a575f3560e01c80637c637ed61161012d578063b0fb162f116100aa578063dc4c90d31161006e578063dc4c90d31461088f578063e985e9c5146108b9578063ec342ad0146108f5578063f2fde38b1461091f578063fb449334146109475761023a565b8063b0fb162f1461079d578063b1e5e2b7146107c7578063b88d4fde146107ef578063c87b56dd14610817578063da9f2fab146108535761023a565b80638ea98117116100f15780638ea98117146106cf57806395d89b41146106f75780639eccacf614610721578063a22cb4651461074b578063a6482858146107735761023a565b80637c637ed6146105eb5780637ccfd7fc1461061557806388f4ae121461063f5780638b58c569146106695780638da5cb5b146106a55761023a565b80632f745c59116101bb578063532dc0941161017f578063532dc094146104f95780636352211e1461053557806370a082311461057157806379ba5097146105ad5780637aef6715146105c35761023a565b80632f745c591461042557806341d7bdcb1461046157806342842e0e1461048b578063479507bb146104b35780634f6ccce7146104bd5761023a565b806318eac49c1161020257806318eac49c146103325780631fe543e31461036e57806321b571ea1461039657806323b872dd146103d357806324f74697146103fb5761023a565b806301ffc9a71461023e57806306fdde031461027a578063081812fc146102a4578063095ea7b3146102e057806318160ddd14610308575b5f5ffd5b348015610249575f5ffd5b50610264600480360381019061025f9190612fb2565b610971565b6040516102719190612ff7565b60405180910390f35b348015610285575f5ffd5b5061028e6109ea565b60405161029b9190613080565b60405180910390f35b3480156102af575f5ffd5b506102ca60048036038101906102c591906130d3565b610a79565b6040516102d7919061313d565b60405180910390f35b3480156102eb575f5ffd5b5061030660048036038101906103019190613180565b610a94565b005b348015610313575f5ffd5b5061031c610aaa565b60405161032991906131cd565b60405180910390f35b34801561033d575f5ffd5b50610358600480360381019061035391906130d3565b610ab6565b6040516103659190612ff7565b60405180910390f35b348015610379575f5ffd5b50610394600480360381019061038f9190613247565b610ad3565b005b3480156103a1575f5ffd5b506103bc60048036038101906103b791906130d3565b610b97565b6040516103ca9291906132db565b60405180910390f35b3480156103de575f5ffd5b506103f960048036038101906103f49190613302565b610bdb565b005b348015610406575f5ffd5b5061040f610cda565b60405161041c9190613370565b60405180910390f35b348015610430575f5ffd5b5061044b60048036038101906104469190613180565b610cef565b60405161045891906131cd565b60405180910390f35b34801561046c575f5ffd5b50610475610d93565b6040516104829190613080565b60405180910390f35b348015610496575f5ffd5b506104b160048036038101906104ac9190613302565b610dcc565b005b6104bb610deb565b005b3480156104c8575f5ffd5b506104e360048036038101906104de91906130d3565b610e85565b6040516104f091906131cd565b60405180910390f35b348015610504575f5ffd5b5061051f600480360381019061051a91906130d3565b610ef7565b60405161052c91906131cd565b60405180910390f35b348015610540575f5ffd5b5061055b600480360381019061055691906130d3565b610f0c565b604051610568919061313d565b60405180910390f35b34801561057c575f5ffd5b5061059760048036038101906105929190613389565b610f1d565b6040516105a491906131cd565b60405180910390f35b3480156105b8575f5ffd5b506105c1610fd3565b005b3480156105ce575f5ffd5b506105e960048036038101906105e49190613389565b611164565b005b3480156105f6575f5ffd5b506105ff611214565b60405161060c9190613080565b60405180910390f35b348015610620575f5ffd5b5061062961124d565b6040516106369190613370565b60405180910390f35b34801561064a575f5ffd5b50610653611263565b60405161066091906131cd565b60405180910390f35b348015610674575f5ffd5b5061068f600480360381019061068a91906130d3565b611269565b60405161069c91906133b4565b60405180910390f35b3480156106b0575f5ffd5b506106b9611286565b6040516106c6919061313d565b60405180910390f35b3480156106da575f5ffd5b506106f560048036038101906106f09190613389565b6112ae565b005b348015610702575f5ffd5b5061070b61148b565b6040516107189190613080565b60405180910390f35b34801561072c575f5ffd5b5061073561151b565b6040516107429190613428565b60405180910390f35b348015610756575f5ffd5b50610771600480360381019061076c919061346b565b611540565b005b34801561077e575f5ffd5b50610787611556565b60405161079491906131cd565b60405180910390f35b3480156107a8575f5ffd5b506107b161155c565b6040516107be91906134a9565b60405180910390f35b3480156107d2575f5ffd5b506107ed60048036038101906107e891906130d3565b611570565b005b3480156107fa575f5ffd5b50610815600480360381019061081091906135ea565b611816565b005b348015610822575f5ffd5b5061083d600480360381019061083891906130d3565b61183b565b60405161084a9190613080565b60405180910390f35b34801561085e575f5ffd5b50610879600480360381019061087491906130d3565b611925565b60405161088691906131cd565b60405180910390f35b34801561089a575f5ffd5b506108a361193a565b6040516108b0919061368a565b60405180910390f35b3480156108c4575f5ffd5b506108df60048036038101906108da91906136a3565b61195f565b6040516108ec9190612ff7565b60405180910390f35b348015610900575f5ffd5b506109096119ed565b60405161091691906134a9565b60405180910390f35b34801561092a575f5ffd5b5061094560048036038101906109409190613389565b6119f3565b005b348015610952575f5ffd5b5061095b611a07565b6040516109689190613080565b60405180910390f35b5f7f780e9d63000000000000000000000000000000000000000000000000000000007bffffffffffffffffffffffffffffffffffffffffffffffffffffffff1916827bffffffffffffffffffffffffffffffffffffffffffffffffffffffff191614806109e357506109e282611a23565b5b9050919050565b60605f80546109f89061370e565b80601f0160208091040260200160405190810160405280929190818152602001828054610a249061370e565b8015610a6f5780601f10610a4657610100808354040283529160200191610a6f565b820191905f5260205f20905b815481529060010190602001808311610a5257829003601f168201915b5050505050905090565b5f610a8382611b04565b50610a8d82611b8a565b9050919050565b610aa68282610aa1611bc3565b611bca565b5050565b5f600880549050905090565b6015602052805f5260405f205f915054906101000a900460ff1681565b600c5f9054906101000a900473ffffffffffffffffffffffffffffffffffffffff1673ffffffffffffffffffffffffffffffffffffffff163373ffffffffffffffffffffffffffffffffffffffff1614610b875733600c5f9054906101000a900473ffffffffffffffffffffffffffffffffffffffff166040517f1cf993f4000000000000000000000000000000000000000000000000000000008152600401610b7e92919061373e565b60405180910390fd5b610b92838383611bdc565b505050565b601a8181548110610ba6575f80fd5b905f5260205f20015f91509050805f015f9054906101000a900460ff1690805f0160019054906101000a900461ffff16905082565b5f73ffffffffffffffffffffffffffffffffffffffff168273ffffffffffffffffffffffffffffffffffffffff1603610c4b575f6040517f64a0ae92000000000000000000000000000000000000000000000000000000008152600401610c42919061313d565b60405180910390fd5b5f610c5e8383610c59611bc3565b611c26565b90508373ffffffffffffffffffffffffffffffffffffffff168173ffffffffffffffffffffffffffffffffffffffff1614610cd4578382826040517f64283d7b000000000000000000000000000000000000000000000000000000008152600401610ccb93929190613765565b60405180910390fd5b50505050565b60125f9054906101000a900463ffffffff1681565b5f610cf983610f1d565b8210610d3e5782826040517fa57d13dc000000000000000000000000000000000000000000000000000000008152600401610d3592919061379a565b60405180910390fd5b60065f8473ffffffffffffffffffffffffffffffffffffffff1673ffffffffffffffffffffffffffffffffffffffff1681526020019081526020015f205f8381526020019081526020015f2054905092915050565b6040518060400160405280600381526020017f424f58000000000000000000000000000000000000000000000000000000000081525081565b610de683838360405180602001604052805f815250611816565b505050565b601454341015610e27576040517f583aa02600000000000000000000000000000000000000000000000000000000815260040160405180910390fd5b5f60135f815480929190610e3a906137ee565b919050559050610e4a3382611d40565b5f610e53611d5d565b90508160185f8381526020019081526020015f20819055508060195f8481526020019081526020015f20819055505050565b5f610e8e610aaa565b8210610ed3575f826040517fa57d13dc000000000000000000000000000000000000000000000000000000008152600401610eca92919061379a565b60405180910390fd5b60088281548110610ee757610ee6613835565b5b905f5260205f2001549050919050565b6019602052805f5260405f205f915090505481565b5f610f1682611b04565b9050919050565b5f5f73ffffffffffffffffffffffffffffffffffffffff168273ffffffffffffffffffffffffffffffffffffffff1603610f8e575f6040517f89c62b64000000000000000000000000000000000000000000000000000000008152600401610f85919061313d565b60405180910390fd5b60035f8373ffffffffffffffffffffffffffffffffffffffff1673ffffffffffffffffffffffffffffffffffffffff1681526020019081526020015f20549050919050565b600b5f9054906101000a900473ffffffffffffffffffffffffffffffffffffffff1673ffffffffffffffffffffffffffffffffffffffff163373ffffffffffffffffffffffffffffffffffffffff1614611062576040517f08c379a0000000000000000000000000000000000000000000000000000000008152600401611059906138ac565b60405180910390fd5b5f600a5f9054906101000a900473ffffffffffffffffffffffffffffffffffffffff16905033600a5f6101000a81548173ffffffffffffffffffffffffffffffffffffffff021916908373ffffffffffffffffffffffffffffffffffffffff1602179055505f600b5f6101000a81548173ffffffffffffffffffffffffffffffffffffffff021916908373ffffffffffffffffffffffffffffffffffffffff1602179055503373ffffffffffffffffffffffffffffffffffffffff168173ffffffffffffffffffffffffffffffffffffffff167f8be0079c531659141344cd1fd0a4f28419497f9722a3daafe3b4186f6b6457e060405160405180910390a350565b61116c611ee1565b5f73ffffffffffffffffffffffffffffffffffffffff168173ffffffffffffffffffffffffffffffffffffffff16036111d1576040517f2442abd700000000000000000000000000000000000000000000000000000000815260040160405180910390fd5b80600d5f6101000a81548173ffffffffffffffffffffffffffffffffffffffff021916908373ffffffffffffffffffffffffffffffffffffffff16021790555050565b6040518060400160405280600681526020017f585944424f58000000000000000000000000000000000000000000000000000081525081565b601260069054906101000a900463ffffffff1681565b60135481565b6016602052805f5260405f205f915054906101000a900460ff1681565b5f600a5f9054906101000a900473ffffffffffffffffffffffffffffffffffffffff16905090565b6112b6611286565b73ffffffffffffffffffffffffffffffffffffffff163373ffffffffffffffffffffffffffffffffffffffff161415801561133e5750600c5f9054906101000a900473ffffffffffffffffffffffffffffffffffffffff1673ffffffffffffffffffffffffffffffffffffffff163373ffffffffffffffffffffffffffffffffffffffff1614155b156113ac573361134c611286565b600c5f9054906101000a900473ffffffffffffffffffffffffffffffffffffffff166040517f061db9c10000000000000000000000000000000000000000000000000000000081526004016113a3939291906138ca565b60405180910390fd5b5f73ffffffffffffffffffffffffffffffffffffffff168173ffffffffffffffffffffffffffffffffffffffff1603611411576040517fd92e233d00000000000000000000000000000000000000000000000000000000815260040160405180910390fd5b80600c5f6101000a81548173ffffffffffffffffffffffffffffffffffffffff021916908373ffffffffffffffffffffffffffffffffffffffff1602179055507fd1a6a14209a385a964d036e404cb5cfb71f4000cdb03c9366292430787261be681604051611480919061313d565b60405180910390a150565b60606001805461149a9061370e565b80601f01602080910402602001604051908101604052809291908181526020018280546114c69061370e565b80156115115780601f106114e857610100808354040283529160200191611511565b820191905f5260205f20905b8154815290600101906020018083116114f457829003601f168201915b5050505050905090565b600c5f9054906101000a900473ffffffffffffffffffffffffffffffffffffffff1681565b61155261154b611bc3565b8383611f72565b5050565b60145481565b601260049054906101000a900461ffff1681565b60155f8281526020019081526020015f205f9054906101000a900460ff16156115c5576040517fb4c85c6b00000000000000000000000000000000000000000000000000000000815260040160405180910390fd5b3373ffffffffffffffffffffffffffffffffffffffff166115e582610f0c565b73ffffffffffffffffffffffffffffffffffffffff1614611632576040517f30cd747100000000000000000000000000000000000000000000000000000000815260040160405180910390fd5b5f600160155f8481526020019081526020015f205f6101000a81548160ff0219169083151502179055505f60175f8481526020019081526020015f205490505f61271061ffff1682611684919061392c565b90505f5f90505f5f90505b601a805490508160ff16101561170357601a8160ff16815481106116b6576116b5613835565b5b905f5260205f20015f0160019054906101000a900461ffff1661ffff16826116de919061395c565b9150818310156116f057809450611703565b80806116fb9061398f565b91505061168f565b508360165f8781526020019081526020015f205f6101000a81548160ff021916908360ff1602179055505f5f600d5f9054906101000a900473ffffffffffffffffffffffffffffffffffffffff1673ffffffffffffffffffffffffffffffffffffffff1663d71e7b5c8787336040518463ffffffff1660e01b815260040161178d939291906139b7565b60408051808303815f875af11580156117a8573d5f5f3e3d5ffd5b505050506040513d601f19601f820116820180604052508101906117cc9190613a14565b915091507feb617e86927ee250118f552ccadf3f76d734dd27c763f6f1c8f3683c5af7b7b0338784846040516118059493929190613a52565b60405180910390a150505050505050565b611821848484610bdb565b61183561182c611bc3565b858585856120db565b50505050565b606061184682611b04565b505f6040518060400160405280600681526020017f585944424f5800000000000000000000000000000000000000000000000000008152506040518060400160405280600381526020017f424f5800000000000000000000000000000000000000000000000000000000008152506040518060800160405280605d81526020016141e5605d91396040516020016118df93929190613cd5565b60405160208183030381529060405290505f6118fa82612287565b90508060405160200161190d9190613da7565b60405160208183030381529060405292505050919050565b6018602052805f5260405f205f915090505481565b600d5f9054906101000a900473ffffffffffffffffffffffffffffffffffffffff1681565b5f60055f8473ffffffffffffffffffffffffffffffffffffffff1673ffffffffffffffffffffffffffffffffffffffff1681526020019081526020015f205f8373ffffffffffffffffffffffffffffffffffffffff1673ffffffffffffffffffffffffffffffffffffffff1681526020019081526020015f205f9054906101000a900460ff16905092915050565b61271081565b6119fb611ee1565b611a048161229a565b50565b6040518060800160405280605d81526020016141e5605d913981565b5f7f80ac58cd000000000000000000000000000000000000000000000000000000007bffffffffffffffffffffffffffffffffffffffffffffffffffffffff1916827bffffffffffffffffffffffffffffffffffffffffffffffffffffffff19161480611aed57507f5b5e139f000000000000000000000000000000000000000000000000000000007bffffffffffffffffffffffffffffffffffffffffffffffffffffffff1916827bffffffffffffffffffffffffffffffffffffffffffffffffffffffff1916145b80611afd5750611afc826123c6565b5b9050919050565b5f5f611b0f8361242f565b90505f73ffffffffffffffffffffffffffffffffffffffff168173ffffffffffffffffffffffffffffffffffffffff1603611b8157826040517f7e273289000000000000000000000000000000000000000000000000000000008152600401611b7891906131cd565b60405180910390fd5b80915050919050565b5f60045f8381526020019081526020015f205f9054906101000a900473ffffffffffffffffffffffffffffffffffffffff169050919050565b5f33905090565b611bd78383836001612468565b505050565b5f60185f8581526020019081526020015f2054905082825f818110611c0457611c03613835565b5b9050602002013560175f8381526020019081526020015f208190555050505050565b5f5f611c33858585612627565b90505f73ffffffffffffffffffffffffffffffffffffffff168173ffffffffffffffffffffffffffffffffffffffff1603611c7657611c7184612832565b611cb5565b8473ffffffffffffffffffffffffffffffffffffffff168173ffffffffffffffffffffffffffffffffffffffff1614611cb457611cb38185612876565b5b5b5f73ffffffffffffffffffffffffffffffffffffffff168573ffffffffffffffffffffffffffffffffffffffff1603611cf657611cf18461294d565b611d35565b8473ffffffffffffffffffffffffffffffffffffffff168173ffffffffffffffffffffffffffffffffffffffff1614611d3457611d338585612a0d565b5b5b809150509392505050565b611d59828260405180602001604052805f815250612a91565b5050565b5f5f6040518060c0016040528060105481526020016011548152602001601260049054906101000a900461ffff1661ffff16815260200160125f9054906101000a900463ffffffff1663ffffffff168152602001601260069054906101000a900463ffffffff1663ffffffff168152602001611de9604051806020016040528060011515815250612ab4565b81525090505f600e5f9054906101000a900473ffffffffffffffffffffffffffffffffffffffff1673ffffffffffffffffffffffffffffffffffffffff16639b1c385e836040518263ffffffff1660e01b8152600401611e499190613ee5565b6020604051808303815f875af1158015611e65573d5f5f3e3d5ffd5b505050506040513d601f19601f82011682018060405250810190611e899190613f05565b90503373ffffffffffffffffffffffffffffffffffffffff167f9d5ec813554188f51cff7ea82cda0c2e6a4006398b558e6d834f0fd6ead830a182604051611ed191906131cd565b60405180910390a2809250505090565b600a5f9054906101000a900473ffffffffffffffffffffffffffffffffffffffff1673ffffffffffffffffffffffffffffffffffffffff163373ffffffffffffffffffffffffffffffffffffffff1614611f70576040517f08c379a0000000000000000000000000000000000000000000000000000000008152600401611f6790613f7a565b60405180910390fd5b565b5f73ffffffffffffffffffffffffffffffffffffffff168273ffffffffffffffffffffffffffffffffffffffff1603611fe257816040517f5b08ba18000000000000000000000000000000000000000000000000000000008152600401611fd9919061313d565b60405180910390fd5b8060055f8573ffffffffffffffffffffffffffffffffffffffff1673ffffffffffffffffffffffffffffffffffffffff1681526020019081526020015f205f8473ffffffffffffffffffffffffffffffffffffffff1673ffffffffffffffffffffffffffffffffffffffff1681526020019081526020015f205f6101000a81548160ff0219169083151502179055508173ffffffffffffffffffffffffffffffffffffffff168373ffffffffffffffffffffffffffffffffffffffff167f17307eab39ab6107e8899845ad3d59bd9653f200f220920489ca2b5937696c31836040516120ce9190612ff7565b60405180910390a3505050565b5f8373ffffffffffffffffffffffffffffffffffffffff163b1115612280578273ffffffffffffffffffffffffffffffffffffffff1663150b7a02868685856040518563ffffffff1660e01b81526004016121399493929190613fe0565b6020604051808303815f875af192505050801561217457506040513d601f19601f82011682018060405250810190612171919061403e565b60015b6121f5573d805f81146121a2576040519150601f19603f3d011682016040523d82523d5f602084013e6121a7565b606091505b505f8151036121ed57836040517f64a0ae920000000000000000000000000000000000000000000000000000000081526004016121e4919061313d565b60405180910390fd5b805160208201fd5b63150b7a0260e01b7bffffffffffffffffffffffffffffffffffffffffffffffffffffffff1916817bffffffffffffffffffffffffffffffffffffffffffffffffffffffff19161461227e57836040517f64a0ae92000000000000000000000000000000000000000000000000000000008152600401612275919061313d565b60405180910390fd5b505b5050505050565b6060612293825f612b4c565b9050919050565b3373ffffffffffffffffffffffffffffffffffffffff168173ffffffffffffffffffffffffffffffffffffffff1603612308576040517f08c379a00000000000000000000000000000000000000000000000000000000081526004016122ff906140b3565b60405180910390fd5b80600b5f6101000a81548173ffffffffffffffffffffffffffffffffffffffff021916908373ffffffffffffffffffffffffffffffffffffffff1602179055508073ffffffffffffffffffffffffffffffffffffffff16600a5f9054906101000a900473ffffffffffffffffffffffffffffffffffffffff1673ffffffffffffffffffffffffffffffffffffffff167fed8889f560326eb138920d842192f0eb3dd22b4f139c87a2c57538e05bae127860405160405180910390a350565b5f7f01ffc9a7000000000000000000000000000000000000000000000000000000007bffffffffffffffffffffffffffffffffffffffffffffffffffffffff1916827bffffffffffffffffffffffffffffffffffffffffffffffffffffffff1916149050919050565b5f60025f8381526020019081526020015f205f9054906101000a900473ffffffffffffffffffffffffffffffffffffffff169050919050565b80806124a057505f73ffffffffffffffffffffffffffffffffffffffff168273ffffffffffffffffffffffffffffffffffffffff1614155b156125d2575f6124af84611b04565b90505f73ffffffffffffffffffffffffffffffffffffffff168373ffffffffffffffffffffffffffffffffffffffff161415801561251957508273ffffffffffffffffffffffffffffffffffffffff168173ffffffffffffffffffffffffffffffffffffffff1614155b801561252c575061252a818461195f565b155b1561256e57826040517fa9fbf51f000000000000000000000000000000000000000000000000000000008152600401612565919061313d565b60405180910390fd5b81156125d057838573ffffffffffffffffffffffffffffffffffffffff168273ffffffffffffffffffffffffffffffffffffffff167f8c5be1e5ebec7d5bd14f71427d1e84f3dd0314c0f7b2291e5b200ac8c7c3b92560405160405180910390a45b505b8360045f8581526020019081526020015f205f6101000a81548173ffffffffffffffffffffffffffffffffffffffff021916908373ffffffffffffffffffffffffffffffffffffffff16021790555050505050565b5f5f6126328461242f565b90505f73ffffffffffffffffffffffffffffffffffffffff168373ffffffffffffffffffffffffffffffffffffffff161461267357612672818486612cd6565b5b5f73ffffffffffffffffffffffffffffffffffffffff168173ffffffffffffffffffffffffffffffffffffffff16146126fe576126b25f855f5f612468565b600160035f8373ffffffffffffffffffffffffffffffffffffffff1673ffffffffffffffffffffffffffffffffffffffff1681526020019081526020015f205f82825403925050819055505b5f73ffffffffffffffffffffffffffffffffffffffff168573ffffffffffffffffffffffffffffffffffffffff161461277d57600160035f8773ffffffffffffffffffffffffffffffffffffffff1673ffffffffffffffffffffffffffffffffffffffff1681526020019081526020015f205f82825401925050819055505b8460025f8681526020019081526020015f205f6101000a81548173ffffffffffffffffffffffffffffffffffffffff021916908373ffffffffffffffffffffffffffffffffffffffff160217905550838573ffffffffffffffffffffffffffffffffffffffff168273ffffffffffffffffffffffffffffffffffffffff167fddf252ad1be2c89b69c2b068fc378daa952ba7f163c4a11628f55a4df523b3ef60405160405180910390a4809150509392505050565b60088054905060095f8381526020019081526020015f2081905550600881908060018154018082558091505060019003905f5260205f20015f909190919091505550565b5f61288083610f1d565b90505f60075f8481526020019081526020015f205490505f60065f8673ffffffffffffffffffffffffffffffffffffffff1673ffffffffffffffffffffffffffffffffffffffff1681526020019081526020015f20905082821461291f575f815f8581526020019081526020015f2054905080825f8581526020019081526020015f20819055508260075f8381526020019081526020015f2081905550505b60075f8581526020019081526020015f205f9055805f8481526020019081526020015f205f90555050505050565b5f600160088054905061296091906140d1565b90505f60095f8481526020019081526020015f205490505f6008838154811061298c5761298b613835565b5b905f5260205f200154905080600883815481106129ac576129ab613835565b5b905f5260205f2001819055508160095f8381526020019081526020015f208190555060095f8581526020019081526020015f205f905560088054806129f4576129f3614104565b5b600190038181905f5260205f20015f9055905550505050565b5f6001612a1984610f1d565b612a2391906140d1565b90508160065f8573ffffffffffffffffffffffffffffffffffffffff1673ffffffffffffffffffffffffffffffffffffffff1681526020019081526020015f205f8381526020019081526020015f20819055508060075f8481526020019081526020015f2081905550505050565b612a9b8383612d99565b612aaf612aa6611bc3565b5f8585856120db565b505050565b60607f92fd13387c7fe7befbc38d303d6468778fb9731bc4583f17d92989c6fcfdeaaa82604051602401612ae8919061415a565b604051602081830303815290604052907bffffffffffffffffffffffffffffffffffffffffffffffffffffffff19166020820180517bffffffffffffffffffffffffffffffffffffffffffffffffffffffff83818316178352505050509050919050565b60605f835103612b6c5760405180602001604052805f8152509050612cd0565b5f82612b9d57600360028551612b82919061395c565b612b8c9190614173565b6004612b9891906141a3565b612bc4565b6003600285516004612baf91906141a3565b612bb9919061395c565b612bc39190614173565b5b905060405191507f4142434445464748494a4b4c4d4e4f505152535455565758595a616263646566601f5261067083027f6768696a6b6c6d6e6f707172737475767778797a303132333435363738392b2f18603f526020820181810185865187016020810180515f82525b82841015612c82576003840193508351603f8160121c16518753600187019650603f81600c1c16518753600187019650603f8160061c16518753600187019650603f811651875360018701965050612c2f565b80825288612cc15760038a510660018114612ca45760028114612cb757612cbf565b603d6001880353603d6002880353612cbf565b603d60018803535b505b86885284604052505050505050505b92915050565b612ce1838383612e8c565b612d94575f73ffffffffffffffffffffffffffffffffffffffff168373ffffffffffffffffffffffffffffffffffffffff1603612d5557806040517f7e273289000000000000000000000000000000000000000000000000000000008152600401612d4c91906131cd565b60405180910390fd5b81816040517f177e802f000000000000000000000000000000000000000000000000000000008152600401612d8b92919061379a565b60405180910390fd5b505050565b5f73ffffffffffffffffffffffffffffffffffffffff168273ffffffffffffffffffffffffffffffffffffffff1603612e09575f6040517f64a0ae92000000000000000000000000000000000000000000000000000000008152600401612e00919061313d565b60405180910390fd5b5f612e1583835f611c26565b90505f73ffffffffffffffffffffffffffffffffffffffff168173ffffffffffffffffffffffffffffffffffffffff1614612e87575f6040517f73c6ac6e000000000000000000000000000000000000000000000000000000008152600401612e7e919061313d565b60405180910390fd5b505050565b5f5f73ffffffffffffffffffffffffffffffffffffffff168373ffffffffffffffffffffffffffffffffffffffff1614158015612f4357508273ffffffffffffffffffffffffffffffffffffffff168473ffffffffffffffffffffffffffffffffffffffff161480612f045750612f03848461195f565b5b80612f4257508273ffffffffffffffffffffffffffffffffffffffff16612f2a83611b8a565b73ffffffffffffffffffffffffffffffffffffffff16145b5b90509392505050565b5f604051905090565b5f5ffd5b5f5ffd5b5f7fffffffff0000000000000000000000000000000000000000000000000000000082169050919050565b612f9181612f5d565b8114612f9b575f5ffd5b50565b5f81359050612fac81612f88565b92915050565b5f60208284031215612fc757612fc6612f55565b5b5f612fd484828501612f9e565b91505092915050565b5f8115159050919050565b612ff181612fdd565b82525050565b5f60208201905061300a5f830184612fe8565b92915050565b5f81519050919050565b5f82825260208201905092915050565b8281835e5f83830152505050565b5f601f19601f8301169050919050565b5f61305282613010565b61305c818561301a565b935061306c81856020860161302a565b61307581613038565b840191505092915050565b5f6020820190508181035f8301526130988184613048565b905092915050565b5f819050919050565b6130b2816130a0565b81146130bc575f5ffd5b50565b5f813590506130cd816130a9565b92915050565b5f602082840312156130e8576130e7612f55565b5b5f6130f5848285016130bf565b91505092915050565b5f73ffffffffffffffffffffffffffffffffffffffff82169050919050565b5f613127826130fe565b9050919050565b6131378161311d565b82525050565b5f6020820190506131505f83018461312e565b92915050565b61315f8161311d565b8114613169575f5ffd5b50565b5f8135905061317a81613156565b92915050565b5f5f6040838503121561319657613195612f55565b5b5f6131a38582860161316c565b92505060206131b4858286016130bf565b9150509250929050565b6131c7816130a0565b82525050565b5f6020820190506131e05f8301846131be565b92915050565b5f5ffd5b5f5ffd5b5f5ffd5b5f5f83601f840112613207576132066131e6565b5b8235905067ffffffffffffffff811115613224576132236131ea565b5b6020830191508360208202830111156132405761323f6131ee565b5b9250929050565b5f5f5f6040848603121561325e5761325d612f55565b5b5f61326b868287016130bf565b935050602084013567ffffffffffffffff81111561328c5761328b612f59565b5b613298868287016131f2565b92509250509250925092565b5f60ff82169050919050565b6132b9816132a4565b82525050565b5f61ffff82169050919050565b6132d5816132bf565b82525050565b5f6040820190506132ee5f8301856132b0565b6132fb60208301846132cc565b9392505050565b5f5f5f6060848603121561331957613318612f55565b5b5f6133268682870161316c565b93505060206133378682870161316c565b9250506040613348868287016130bf565b9150509250925092565b5f63ffffffff82169050919050565b61336a81613352565b82525050565b5f6020820190506133835f830184613361565b92915050565b5f6020828403121561339e5761339d612f55565b5b5f6133ab8482850161316c565b91505092915050565b5f6020820190506133c75f8301846132b0565b92915050565b5f819050919050565b5f6133f06133eb6133e6846130fe565b6133cd565b6130fe565b9050919050565b5f613401826133d6565b9050919050565b5f613412826133f7565b9050919050565b61342281613408565b82525050565b5f60208201905061343b5f830184613419565b92915050565b61344a81612fdd565b8114613454575f5ffd5b50565b5f8135905061346581613441565b92915050565b5f5f6040838503121561348157613480612f55565b5b5f61348e8582860161316c565b925050602061349f85828601613457565b9150509250929050565b5f6020820190506134bc5f8301846132cc565b92915050565b5f5ffd5b7f4e487b71000000000000000000000000000000000000000000000000000000005f52604160045260245ffd5b6134fc82613038565b810181811067ffffffffffffffff8211171561351b5761351a6134c6565b5b80604052505050565b5f61352d612f4c565b905061353982826134f3565b919050565b5f67ffffffffffffffff821115613558576135576134c6565b5b61356182613038565b9050602081019050919050565b828183375f83830152505050565b5f61358e6135898461353e565b613524565b9050828152602081018484840111156135aa576135a96134c2565b5b6135b584828561356e565b509392505050565b5f82601f8301126135d1576135d06131e6565b5b81356135e184826020860161357c565b91505092915050565b5f5f5f5f6080858703121561360257613601612f55565b5b5f61360f8782880161316c565b94505060206136208782880161316c565b9350506040613631878288016130bf565b925050606085013567ffffffffffffffff81111561365257613651612f59565b5b61365e878288016135bd565b91505092959194509250565b5f613674826133f7565b9050919050565b6136848161366a565b82525050565b5f60208201905061369d5f83018461367b565b92915050565b5f5f604083850312156136b9576136b8612f55565b5b5f6136c68582860161316c565b92505060206136d78582860161316c565b9150509250929050565b7f4e487b71000000000000000000000000000000000000000000000000000000005f52602260045260245ffd5b5f600282049050600182168061372557607f821691505b602082108103613738576137376136e1565b5b50919050565b5f6040820190506137515f83018561312e565b61375e602083018461312e565b9392505050565b5f6060820190506137785f83018661312e565b61378560208301856131be565b613792604083018461312e565b949350505050565b5f6040820190506137ad5f83018561312e565b6137ba60208301846131be565b9392505050565b7f4e487b71000000000000000000000000000000000000000000000000000000005f52601160045260245ffd5b5f6137f8826130a0565b91507fffffffffffffffffffffffffffffffffffffffffffffffffffffffffffffffff820361382a576138296137c1565b5b600182019050919050565b7f4e487b71000000000000000000000000000000000000000000000000000000005f52603260045260245ffd5b7f4d7573742062652070726f706f736564206f776e6572000000000000000000005f82015250565b5f61389660168361301a565b91506138a182613862565b602082019050919050565b5f6020820190508181035f8301526138c38161388a565b9050919050565b5f6060820190506138dd5f83018661312e565b6138ea602083018561312e565b6138f7604083018461312e565b949350505050565b7f4e487b71000000000000000000000000000000000000000000000000000000005f52601260045260245ffd5b5f613936826130a0565b9150613941836130a0565b925082613951576139506138ff565b5b828206905092915050565b5f613966826130a0565b9150613971836130a0565b9250828201905080821115613989576139886137c1565b5b92915050565b5f613999826132a4565b915060ff82036139ac576139ab6137c1565b5b600182019050919050565b5f6060820190506139ca5f8301866132b0565b6139d760208301856131be565b6139e4604083018461312e565b949350505050565b5f815190506139fa81613156565b92915050565b5f81519050613a0e816130a9565b92915050565b5f5f60408385031215613a2a57613a29612f55565b5b5f613a37858286016139ec565b9250506020613a4885828601613a00565b9150509250929050565b5f608082019050613a655f83018761312e565b613a7260208301866132b0565b613a7f604083018561312e565b613a8c60608301846131be565b95945050505050565b5f81905092915050565b7f7b000000000000000000000000000000000000000000000000000000000000005f82015250565b5f613ad3600183613a95565b9150613ade82613a9f565b600182019050919050565b7f226e616d65223a220000000000000000000000000000000000000000000000005f82015250565b5f613b1d600883613a95565b9150613b2882613ae9565b600882019050919050565b5f613b3d82613010565b613b478185613a95565b9350613b5781856020860161302a565b80840191505092915050565b7f222c0000000000000000000000000000000000000000000000000000000000005f82015250565b5f613b97600283613a95565b9150613ba282613b63565b600282019050919050565b7f226465736372697074696f6e223a2200000000000000000000000000000000005f82015250565b5f613be1600f83613a95565b9150613bec82613bad565b600f82019050919050565b7f22696d616765223a2200000000000000000000000000000000000000000000005f82015250565b5f613c2b600983613a95565b9150613c3682613bf7565b600982019050919050565b7f22000000000000000000000000000000000000000000000000000000000000005f82015250565b5f613c75600183613a95565b9150613c8082613c41565b600182019050919050565b7f7d000000000000000000000000000000000000000000000000000000000000005f82015250565b5f613cbf600183613a95565b9150613cca82613c8b565b600182019050919050565b5f613cdf82613ac7565b9150613cea82613b11565b9150613cf68286613b33565b9150613d0182613b8b565b9150613d0c82613bd5565b9150613d188285613b33565b9150613d2382613b8b565b9150613d2e82613c1f565b9150613d3a8284613b33565b9150613d4582613c69565b9150613d5082613cb3565b9150819050949350505050565b7f646174613a6170706c69636174696f6e2f6a736f6e3b6261736536342c0000005f82015250565b5f613d91601d83613a95565b9150613d9c82613d5d565b601d82019050919050565b5f613db182613d85565b9150613dbd8284613b33565b915081905092915050565b5f819050919050565b613dda81613dc8565b82525050565b613de9816130a0565b82525050565b613df8816132bf565b82525050565b613e0781613352565b82525050565b5f81519050919050565b5f82825260208201905092915050565b5f613e3182613e0d565b613e3b8185613e17565b9350613e4b81856020860161302a565b613e5481613038565b840191505092915050565b5f60c083015f830151613e745f860182613dd1565b506020830151613e876020860182613de0565b506040830151613e9a6040860182613def565b506060830151613ead6060860182613dfe565b506080830151613ec06080860182613dfe565b5060a083015184820360a0860152613ed88282613e27565b9150508091505092915050565b5f6020820190508181035f830152613efd8184613e5f565b905092915050565b5f60208284031215613f1a57613f19612f55565b5b5f613f2784828501613a00565b91505092915050565b7f4f6e6c792063616c6c61626c65206279206f776e6572000000000000000000005f82015250565b5f613f6460168361301a565b9150613f6f82613f30565b602082019050919050565b5f6020820190508181035f830152613f9181613f58565b9050919050565b5f82825260208201905092915050565b5f613fb282613e0d565b613fbc8185613f98565b9350613fcc81856020860161302a565b613fd581613038565b840191505092915050565b5f608082019050613ff35f83018761312e565b614000602083018661312e565b61400d60408301856131be565b818103606083015261401f8184613fa8565b905095945050505050565b5f8151905061403881612f88565b92915050565b5f6020828403121561405357614052612f55565b5b5f6140608482850161402a565b91505092915050565b7f43616e6e6f74207472616e7366657220746f2073656c660000000000000000005f82015250565b5f61409d60178361301a565b91506140a882614069565b602082019050919050565b5f6020820190508181035f8301526140ca81614091565b9050919050565b5f6140db826130a0565b91506140e6836130a0565b92508282039050818111156140fe576140fd6137c1565b5b92915050565b7f4e487b71000000000000000000000000000000000000000000000000000000005f52603160045260245ffd5b61413a81612fdd565b82525050565b602082015f8201516141545f850182614131565b50505050565b5f60208201905061416d5f830184614140565b92915050565b5f61417d826130a0565b9150614188836130a0565b925082614198576141976138ff565b5b828204905092915050565b5f6141ad826130a0565b91506141b8836130a0565b92508282026141c6816130a0565b915082820484148315176141dd576141dc6137c1565b5b509291505056fe68747470733a2f2f676174657761792e70696e6174612e636c6f75642f697066732f6261666b72656968707a7a77323562687072676e646f776e726636773779336f667762706a7a6f66677274657a337776747177696537326a697571a26469706673582212206eeefff861e9e39ad03c6d5321d81e37fe2e8066c2b59f572817c1c4b1f3024664736f6c634300081e0033",
        "linkReferences": {}
    },
    "methodIdentifiers": {
        "BASE()": "ec342ad0",
        "METADATA_DESCRIPTION()": "41d7bdcb",
        "METADATA_IMAGE()": "fb449334",
        "METADATA_NAME()": "7c637ed6",
        "acceptOwnership()": "79ba5097",
        "approve(address,uint256)": "095ea7b3",
        "balanceOf(address)": "70a08231",
        "boxIdToRequestId(uint256)": "532dc094",
        "boxPrice()": "a6482858",
        "boxTotalSupply()": "88f4ae12",
        "buyBox()": "479507bb",
        "callbackGasLimit()": "24f74697",
        "getApproved(uint256)": "081812fc",
        "isApprovedForAll(address,address)": "e985e9c5",
        "name()": "06fdde03",
        "numWords()": "7ccfd7fc",
        "openBox(uint256)": "b1e5e2b7",
        "owner()": "8da5cb5b",
        "ownerOf(uint256)": "6352211e",
        "poolManager()": "dc4c90d3",
        "rarity(uint256)": "8b58c569",
        "rarityPool(uint256)": "21b571ea",
        "ravealed(uint256)": "18eac49c",
        "rawFulfillRandomWords(uint256,uint256[])": "1fe543e3",
        "requestConfirmations()": "b0fb162f",
        "requestIdToBoxId(uint256)": "da9f2fab",
        "s_vrfCoordinator()": "9eccacf6",
        "safeTransferFrom(address,address,uint256)": "42842e0e",
        "safeTransferFrom(address,address,uint256,bytes)": "b88d4fde",
        "setApprovalForAll(address,bool)": "a22cb465",
        "setCoordinator(address)": "8ea98117",
        "setPoolManager(address)": "7aef6715",
        "supportsInterface(bytes4)": "01ffc9a7",
        "symbol()": "95d89b41",
        "tokenByIndex(uint256)": "4f6ccce7",
        "tokenOfOwnerByIndex(address,uint256)": "2f745c59",
        "tokenURI(uint256)": "c87b56dd",
        "totalSupply()": "18160ddd",
        "transferFrom(address,address,uint256)": "23b872dd",
        "transferOwnership(address)": "f2fde38b"
    },
    "id": 30
}