{"abi":[{"type":"constructor","inputs":[],"stateMutability":"nonpayable"},{"type":"function","name":"adminWithdrawToken","inputs":[{"name":"token","type":"address","internalType":"address"},{"name":"tokenId","type":"uint256","internalType":"uint256"},{"name":"rarity","type":"uint8","internalType":"uint8"},{"name":"to","type":"address","internalType":"address"}],"outputs":[],"stateMutability":"nonpayable"},{"type":"function","name":"authorizedCaller","inputs":[{"name":"","type":"address","internalType":"address"}],"outputs":[{"name":"","type":"bool","internalType":"bool"}],"stateMutability":"view"},{"type":"function","name":"isInpool","inputs":[{"name":"token","type":"address","internalType":"address"},{"name":"tokenId","type":"uint256","internalType":"uint256"},{"name":"rarity","type":"uint8","internalType":"uint8"}],"outputs":[{"name":"","type":"bool","internalType":"bool"}],"stateMutability":"view"},{"type":"function","name":"itemAt","inputs":[{"name":"rarity","type":"uint8","internalType":"uint8"},{"name":"index","type":"uint256","internalType":"uint256"}],"outputs":[{"name":"token","type":"address","internalType":"address"},{"name":"id","type":"uint256","internalType":"uint256"}],"stateMutability":"view"},{"type":"function","name":"onERC721Received","inputs":[{"name":"operator","type":"address","internalType":"address"},{"name":"from","type":"address","internalType":"address"},{"name":"tokenId","type":"uint256","internalType":"uint256"},{"name":"data","type":"bytes","internalType":"bytes"}],"outputs":[{"name":"","type":"bytes4","internalType":"bytes4"}],"stateMutability":"nonpayable"},{"type":"function","name":"owner","inputs":[],"outputs":[{"name":"","type":"address","internalType":"address"}],"stateMutability":"view"},{"type":"function","name":"poolLength","inputs":[{"name":"rarity","type":"uint8","internalType":"uint8"}],"outputs":[{"name":"","type":"uint256","internalType":"uint256"}],"stateMutability":"view"},{"type":"function","name":"pools","inputs":[{"name":"","type":"uint8","internalType":"uint8"},{"name":"","type":"uint256","internalType":"uint256"}],"outputs":[{"name":"token","type":"address","internalType":"address"},{"name":"id","type":"uint256","internalType":"uint256"}],"stateMutability":"view"},{"type":"function","name":"popItem","inputs":[{"name":"rarity","type":"uint8","internalType":"uint8"},{"name":"randomness","type":"uint256","internalType":"uint256"},{"name":"to","type":"address","internalType":"address"}],"outputs":[{"name":"token","type":"address","internalType":"address"},{"name":"tokenId","type":"uint256","internalType":"uint256"}],"stateMutability":"nonpayable"},{"type":"function","name":"renounceOwnership","inputs":[],"outputs":[],"stateMutability":"nonpayable"},{"type":"function","name":"rescueERC721","inputs":[{"name":"token","type":"address","internalType":"address"},{"name":"tokenId","type":"uint256","internalType":"uint256"},{"name":"to","type":"address","internalType":"address"}],"outputs":[],"stateMutability":"nonpayable"},{"type":"function","name":"setAuthorizedCaller","inputs":[{"name":"caller","type":"address","internalType":"address"},{"name":"allowed","type":"bool","internalType":"bool"}],"outputs":[],"stateMutability":"nonpayable"},{"type":"function","name":"transferOwnership","inputs":[{"name":"newOwner","type":"address","internalType":"address"}],"outputs":[],"stateMutability":"nonpayable"},{"type":"event","name":"CallerSet","inputs":[{"name":"caller","type":"address","indexed":true,"internalType":"address"},{"name":"allowed","type":"bool","indexed":false,"internalType":"bool"}],"anonymous":false},{"type":"event","name":"Deposited","inputs":[{"name":"from","type":"address","indexed":true,"internalType":"address"},{"name":"token","type":"address","indexed":true,"internalType":"address"},{"name":"tokenId","type":"uint256","indexed":true,"internalType":"uint256"},{"name":"rarity","type":"uint8","indexed":false,"internalType":"uint8"}],"anonymous":false},{"type":"event","name":"ItemClaimed","inputs":[{"name":"to","type":"address","indexed":true,"internalType":"address"},{"name":"token","type":"address","indexed":true,"internalType":"address"},{"name":"tokenId","type":"uint256","indexed":true,"internalType":"uint256"},{"name":"rarity","type":"uint8","indexed":false,"internalType":"uint8"}],"anonymous":false},{"type":"event","name":"OwnershipTransferred","inputs":[{"name":"previousOwner","type":"address","indexed":true,"internalType":"address"},{"name":"newOwner","type":"address","indexed":true,"internalType":"address"}],"anonymous":false},{"type":"event","name":"Withdrawn","inputs":[{"name":"to","type":"address","indexed":true,"internalType":"address"},{"name":"token","type":"address","indexed":true,"internalType":"address"},{"name":"tokenId","type":"uint256","indexed":true,"internalType":"uint256"}],"anonymous":false},{"type":"error","name":"ErrorPool","inputs":[]},{"type":"error","name":"NoCaller","inputs":[]},{"type":"error","name":"OwnableInvalidOwner","inputs":[{"name":"owner","type":"address","internalType":"address"}]},{"type":"error","name":"OwnableUnauthorizedAccount","inputs":[{"name":"account","type":"address","internalType":"address"}]},{"type":"error","name":"ReentrancyGuardReentrantCall","inputs":[]},{"type":"error","name":"invalidData","inputs":[]}],"bytecode":{"object":"0x608060405234801561000f575f5ffd5b5033600161002f6100246100ba60201b60201c565b6100e360201b60201c565b5f01819055505f73ffffffffffffffffffffffffffffffffffffffff168173ffffffffffffffffffffffffffffffffffffffff16036100a5575f6040517f1e4fbdf700000000000000000000000000000000000000000000000000000000815260040161009c91906101ec565b60405180910390fd5b6100b4816100ec60201b60201c565b50610205565b5f7f9b779b17422d0df92223018b32b4d1fa46e071723d6817e2486d003becc55f005f1b905090565b5f819050919050565b5f5f5f9054906101000a900473ffffffffffffffffffffffffffffffffffffffff169050815f5f6101000a81548173ffffffffffffffffffffffffffffffffffffffff021916908373ffffffffffffffffffffffffffffffffffffffff1602179055508173ffffffffffffffffffffffffffffffffffffffff168173ffffffffffffffffffffffffffffffffffffffff167f8be0079c531659141344cd1fd0a4f28419497f9722a3daafe3b4186f6b6457e060405160405180910390a35050565b5f73ffffffffffffffffffffffffffffffffffffffff82169050919050565b5f6101d6826101ad565b9050919050565b6101e6816101cc565b82525050565b5f6020820190506101ff5f8301846101dd565b92915050565b611a46806102125f395ff3fe608060405234801561000f575f5ffd5b50600436106100cd575f3560e01c80638da5cb5b1161008a578063cd40fae511610064578063cd40fae514610223578063d71e7b5c14610253578063f2fde38b14610284578063fa3e4705146102a0576100cd565b80638da5cb5b146101a557806398f6ef12146101c3578063b52e5422146101f3576100cd565b8063150b7a02146100d1578063454bbd29146101015780634f7b77191461011d578063715018a61461014e57806378a32e21146101585780637bc689b714610189575b5f5ffd5b6100eb60048036038101906100e69190611315565b6102bc565b6040516100f891906113d3565b60405180910390f35b61011b60048036038101906101169190611421565b610523565b005b61013760048036038101906101329190611495565b6105d1565b6040516101459291906114f1565b60405180910390f35b61015661063f565b005b610172600480360381019061016d9190611495565b610652565b6040516101809291906114f1565b60405180910390f35b6101a3600480360381019061019e9190611518565b6106ab565b005b6101ad6109a1565b6040516101ba919061157c565b60405180910390f35b6101dd60048036038101906101d89190611595565b6109c8565b6040516101ea91906115cf565b60405180910390f35b61020d600480360381019061020891906115e8565b6109e5565b60405161021a9190611613565b60405180910390f35b61023d6004803603810190610238919061162c565b610a08565b60405161024a91906115cf565b60405180910390f35b61026d6004803603810190610268919061167c565b610a36565b60405161027b9291906114f1565b60405180910390f35b61029e60048036038101906102999190611595565b610ec5565b005b6102ba60048036038101906102b591906116cc565b610f49565b005b5f602083839050141580156102d5575060018383905014155b1561030c576040517febb0baad00000000000000000000000000000000000000000000000000000000815260040160405180910390fd5b5f6001848490500361033b5783835f81811061032b5761032a61171c565b5b9050013560f81c60f81b60f81c90505b6020848490500361035857838381019061035591906115e8565b90505b5f8160ff1611801561036e575060048160ff1611155b6103ad576040517f08c379a00000000000000000000000000000000000000000000000000000000081526004016103a4906117a3565b60405180910390fd5b5f60405180604001604052803373ffffffffffffffffffffffffffffffffffffffff16815260200187815250905060015f8360ff1660ff1681526020019081526020015f2081908060018154018082558091505060019003905f5260205f2090600202015f909190919091505f820151815f015f6101000a81548173ffffffffffffffffffffffffffffffffffffffff021916908373ffffffffffffffffffffffffffffffffffffffff1602179055506020820151816001015550505f610475338885610fd0565b905060015f8460ff1660ff1681526020019081526020015f208054905060025f8381526020019081526020015f2081905550863373ffffffffffffffffffffffffffffffffffffffff168973ffffffffffffffffffffffffffffffffffffffff167f754fff2205ca9f1a08ae1f38f487839ba7e18895f0238908ea8b8842d7424fbb8660405161050591906117d0565b60405180910390a463150b7a0260e01b935050505095945050505050565b61052b611005565b8060035f8473ffffffffffffffffffffffffffffffffffffffff1673ffffffffffffffffffffffffffffffffffffffff1681526020019081526020015f205f6101000a81548160ff0219169083151502179055508173ffffffffffffffffffffffffffffffffffffffff167fa49dcb99ff1593e316d0955614d970424bf97f34f406b6b75297ddb7e315b7db826040516105c591906115cf565b60405180910390a25050565b5f5f5f60015f8660ff1660ff1681526020019081526020015f2084815481106105fd576105fc61171c565b5b905f5260205f2090600202019050805f015f9054906101000a900473ffffffffffffffffffffffffffffffffffffffff16816001015492509250509250929050565b610647611005565b6106505f61108c565b565b6001602052815f5260405f20818154811061066b575f80fd5b905f5260205f2090600202015f9150915050805f015f9054906101000a900473ffffffffffffffffffffffffffffffffffffffff16908060010154905082565b6106b3611005565b6106bb61114d565b5f6106c7858585610fd0565b90505f60025f8381526020019081526020015f205490505f81146108cc575f6001826106f39190611816565b90505f60015f8760ff1660ff1681526020019081526020015f2090505f600182805490506107219190611816565b9050808314610860575f82828154811061073e5761073d61171c565b5b905f5260205f2090600202016040518060400160405290815f82015f9054906101000a900473ffffffffffffffffffffffffffffffffffffffff1673ffffffffffffffffffffffffffffffffffffffff1673ffffffffffffffffffffffffffffffffffffffff1681526020016001820154815250509050808385815481106107c9576107c861171c565b5b905f5260205f2090600202015f820151815f015f6101000a81548173ffffffffffffffffffffffffffffffffffffffff021916908373ffffffffffffffffffffffffffffffffffffffff160217905550602082015181600101559050505f610839825f015183602001518b610fd0565b90506001856108489190611849565b60025f8381526020019081526020015f208190555050505b818054806108715761087061187c565b5b600190038181905f5260205f2090600202015f5f82015f6101000a81549073ffffffffffffffffffffffffffffffffffffffff0219169055600182015f90555050905560025f8681526020019081526020015f205f90555050505b8573ffffffffffffffffffffffffffffffffffffffff166342842e0e3085886040518463ffffffff1660e01b8152600401610909939291906118a9565b5f604051808303815f87803b158015610920575f5ffd5b505af1158015610932573d5f5f3e3d5ffd5b50505050848673ffffffffffffffffffffffffffffffffffffffff168473ffffffffffffffffffffffffffffffffffffffff167fd1c19fbcd4551a5edfb66d43d2e337c04837afda3482b42bdf569a8fccdae5fb60405160405180910390a4505061099b61116f565b50505050565b5f5f5f9054906101000a900473ffffffffffffffffffffffffffffffffffffffff16905090565b6003602052805f5260405f205f915054906101000a900460ff1681565b5f60015f8360ff1660ff1681526020019081526020015f20805490509050919050565b5f5f610a15858585610fd0565b90505f60025f8381526020019081526020015f205414159150509392505050565b5f5f610a4061114d565b3373ffffffffffffffffffffffffffffffffffffffff16610a5f6109a1565b73ffffffffffffffffffffffffffffffffffffffff1614158015610aca575060035f3373ffffffffffffffffffffffffffffffffffffffff1673ffffffffffffffffffffffffffffffffffffffff1681526020019081526020015f205f9054906101000a900460ff16155b15610b01576040517f605a223f00000000000000000000000000000000000000000000000000000000815260040160405180910390fd5b5f60015f8760ff1660ff1681526020019081526020015f2090505f818054905003610b58576040517f4c751a4300000000000000000000000000000000000000000000000000000000815260040160405180910390fd5b5f818054905090505f8187610b6d919061190b565b90505f838281548110610b8357610b8261171c565b5b905f5260205f2090600202016040518060400160405290815f82015f9054906101000a900473ffffffffffffffffffffffffffffffffffffffff1673ffffffffffffffffffffffffffffffffffffffff1673ffffffffffffffffffffffffffffffffffffffff16815260200160018201548152505090505f600184610c089190611816565b9050808314610d47575f858281548110610c2557610c2461171c565b5b905f5260205f2090600202016040518060400160405290815f82015f9054906101000a900473ffffffffffffffffffffffffffffffffffffffff1673ffffffffffffffffffffffffffffffffffffffff1673ffffffffffffffffffffffffffffffffffffffff168152602001600182015481525050905080868581548110610cb057610caf61171c565b5b905f5260205f2090600202015f820151815f015f6101000a81548173ffffffffffffffffffffffffffffffffffffffff021916908373ffffffffffffffffffffffffffffffffffffffff160217905550602082015181600101559050505f610d20825f015183602001518e610fd0565b9050600185610d2f9190611849565b60025f8381526020019081526020015f208190555050505b84805480610d5857610d5761187c565b5b600190038181905f5260205f2090600202015f5f82015f6101000a81549073ffffffffffffffffffffffffffffffffffffffff0219169055600182015f9055505090555f610dae835f015184602001518d610fd0565b905060025f8281526020019081526020015f205f9055825f015173ffffffffffffffffffffffffffffffffffffffff166342842e0e308b86602001516040518463ffffffff1660e01b8152600401610e08939291906118a9565b5f604051808303815f87803b158015610e1f575f5ffd5b505af1158015610e31573d5f5f3e3d5ffd5b505050508260200151835f015173ffffffffffffffffffffffffffffffffffffffff168a73ffffffffffffffffffffffffffffffffffffffff167f6dca0a6876fa6fd7e8b3db5bbf9c7a91376a892227bc28a09b7cf04da66125e08e604051610e9a91906117d0565b60405180910390a4825f0151836020015197509750505050505050610ebd61116f565b935093915050565b610ecd611005565b5f73ffffffffffffffffffffffffffffffffffffffff168173ffffffffffffffffffffffffffffffffffffffff1603610f3d575f6040517f1e4fbdf7000000000000000000000000000000000000000000000000000000008152600401610f34919061157c565b60405180910390fd5b610f468161108c565b50565b610f51611005565b610f5961114d565b8273ffffffffffffffffffffffffffffffffffffffff166342842e0e3083856040518463ffffffff1660e01b8152600401610f96939291906118a9565b5f604051808303815f87803b158015610fad575f5ffd5b505af1158015610fbf573d5f5f3e3d5ffd5b50505050610fcb61116f565b505050565b5f838383604051602001610fe6939291906119d4565b6040516020818303038152906040528051906020012090509392505050565b61100d611189565b73ffffffffffffffffffffffffffffffffffffffff1661102b6109a1565b73ffffffffffffffffffffffffffffffffffffffff161461108a5761104e611189565b6040517f118cdaa7000000000000000000000000000000000000000000000000000000008152600401611081919061157c565b60405180910390fd5b565b5f5f5f9054906101000a900473ffffffffffffffffffffffffffffffffffffffff169050815f5f6101000a81548173ffffffffffffffffffffffffffffffffffffffff021916908373ffffffffffffffffffffffffffffffffffffffff1602179055508173ffffffffffffffffffffffffffffffffffffffff168173ffffffffffffffffffffffffffffffffffffffff167f8be0079c531659141344cd1fd0a4f28419497f9722a3daafe3b4186f6b6457e060405160405180910390a35050565b611155611190565b60026111676111626111d1565b6111fa565b5f0181905550565b600161118161117c6111d1565b6111fa565b5f0181905550565b5f33905090565b611198611203565b156111cf576040517f3ee5aeb500000000000000000000000000000000000000000000000000000000815260040160405180910390fd5b565b5f7f9b779b17422d0df92223018b32b4d1fa46e071723d6817e2486d003becc55f005f1b905090565b5f819050919050565b5f60026112166112116111d1565b6111fa565b5f015414905090565b5f5ffd5b5f5ffd5b5f73ffffffffffffffffffffffffffffffffffffffff82169050919050565b5f61125082611227565b9050919050565b61126081611246565b811461126a575f5ffd5b50565b5f8135905061127b81611257565b92915050565b5f819050919050565b61129381611281565b811461129d575f5ffd5b50565b5f813590506112ae8161128a565b92915050565b5f5ffd5b5f5ffd5b5f5ffd5b5f5f83601f8401126112d5576112d46112b4565b5b8235905067ffffffffffffffff8111156112f2576112f16112b8565b5b60208301915083600182028301111561130e5761130d6112bc565b5b9250929050565b5f5f5f5f5f6080868803121561132e5761132d61121f565b5b5f61133b8882890161126d565b955050602061134c8882890161126d565b945050604061135d888289016112a0565b935050606086013567ffffffffffffffff81111561137e5761137d611223565b5b61138a888289016112c0565b92509250509295509295909350565b5f7fffffffff0000000000000000000000000000000000000000000000000000000082169050919050565b6113cd81611399565b82525050565b5f6020820190506113e65f8301846113c4565b92915050565b5f8115159050919050565b611400816113ec565b811461140a575f5ffd5b50565b5f8135905061141b816113f7565b92915050565b5f5f604083850312156114375761143661121f565b5b5f6114448582860161126d565b92505060206114558582860161140d565b9150509250929050565b5f60ff82169050919050565b6114748161145f565b811461147e575f5ffd5b50565b5f8135905061148f8161146b565b92915050565b5f5f604083850312156114ab576114aa61121f565b5b5f6114b885828601611481565b92505060206114c9858286016112a0565b9150509250929050565b6114dc81611246565b82525050565b6114eb81611281565b82525050565b5f6040820190506115045f8301856114d3565b61151160208301846114e2565b9392505050565b5f5f5f5f608085870312156115305761152f61121f565b5b5f61153d8782880161126d565b945050602061154e878288016112a0565b935050604061155f87828801611481565b92505060606115708782880161126d565b91505092959194509250565b5f60208201905061158f5f8301846114d3565b92915050565b5f602082840312156115aa576115a961121f565b5b5f6115b78482850161126d565b91505092915050565b6115c9816113ec565b82525050565b5f6020820190506115e25f8301846115c0565b92915050565b5f602082840312156115fd576115fc61121f565b5b5f61160a84828501611481565b91505092915050565b5f6020820190506116265f8301846114e2565b92915050565b5f5f5f606084860312156116435761164261121f565b5b5f6116508682870161126d565b9350506020611661868287016112a0565b925050604061167286828701611481565b9150509250925092565b5f5f5f606084860312156116935761169261121f565b5b5f6116a086828701611481565b93505060206116b1868287016112a0565b92505060406116c28682870161126d565b9150509250925092565b5f5f5f606084860312156116e3576116e261121f565b5b5f6116f08682870161126d565b9350506020611701868287016112a0565b92505060406117128682870161126d565b9150509250925092565b7f4e487b71000000000000000000000000000000000000000000000000000000005f52603260045260245ffd5b5f82825260208201905092915050565b7f496e76616c6964207261726974792072616e67650000000000000000000000005f82015250565b5f61178d601483611749565b915061179882611759565b602082019050919050565b5f6020820190508181035f8301526117ba81611781565b9050919050565b6117ca8161145f565b82525050565b5f6020820190506117e35f8301846117c1565b92915050565b7f4e487b71000000000000000000000000000000000000000000000000000000005f52601160045260245ffd5b5f61182082611281565b915061182b83611281565b9250828203905081811115611843576118426117e9565b5b92915050565b5f61185382611281565b915061185e83611281565b9250828201905080821115611876576118756117e9565b5b92915050565b7f4e487b71000000000000000000000000000000000000000000000000000000005f52603160045260245ffd5b5f6060820190506118bc5f8301866114d3565b6118c960208301856114d3565b6118d660408301846114e2565b949350505050565b7f4e487b71000000000000000000000000000000000000000000000000000000005f52601260045260245ffd5b5f61191582611281565b915061192083611281565b9250826119305761192f6118de565b5b828206905092915050565b5f8160601b9050919050565b5f6119518261193b565b9050919050565b5f61196282611947565b9050919050565b61197a61197582611246565b611958565b82525050565b5f819050919050565b61199a61199582611281565b611980565b82525050565b5f8160f81b9050919050565b5f6119b6826119a0565b9050919050565b6119ce6119c98261145f565b6119ac565b82525050565b5f6119df8286611969565b6014820191506119ef8285611989565b6020820191506119ff82846119bd565b60018201915081905094935050505056fea26469706673582212207bbf023e9bf1321527b7cc2413096a10a7eb1fc05f6e5933902b7c9ac5f8621c64736f6c634300081e0033","linkReferences":{}},"methodIdentifiers":{"adminWithdrawToken(address,uint256,uint8,address)":"7bc689b7","authorizedCaller(address)":"98f6ef12","isInpool(address,uint256,uint8)":"cd40fae5","itemAt(uint8,uint256)":"4f7b7719","onERC721Received(address,address,uint256,bytes)":"150b7a02","owner()":"8da5cb5b","poolLength(uint8)":"b52e5422","pools(uint8,uint256)":"78a32e21","popItem(uint8,uint256,address)":"d71e7b5c","renounceOwnership()":"715018a6","rescueERC721(address,uint256,address)":"fa3e4705","setAuthorizedCaller(address,bool)":"454bbd29","transferOwnership(address)":"f2fde38b"},"id":29}