{
	"data": {
		"bytecode": {
			"linkReferences": {},
			"object": "6080604052739ddfaca8183c41ad55329bdeed9f6a8d53168b1b60045f6101000a81548173ffffffffffffffffffffffffffffffffffffffff021916908373ffffffffffffffffffffffffffffffffffffffff1602179055507f787d74caea10b2b357790d5b5247c2f63d1d91572a9846f780606e4d953677ae5f1b60055562030d4060075f6101000a81548163ffffffff021916908363ffffffff1602179055506003600760046101000a81548161ffff021916908361ffff1602179055506001600760066101000a81548163ffffffff021916908363ffffffff1602179055503480156100ec575f5ffd5b5060405161217a38038061217a833981810160405281019061010e919061049c565b60045f9054906101000a900473ffffffffffffffffffffffffffffffffffffffff1633805f5f73ffffffffffffffffffffffffffffffffffffffff168273ffffffffffffffffffffffffffffffffffffffff16036101a1576040517f08c379a000000000000000000000000000000000000000000000000000000000815260040161019890610521565b60405180910390fd5b815f5f6101000a81548173ffffffffffffffffffffffffffffffffffffffff021916908373ffffffffffffffffffffffffffffffffffffffff1602179055505f73ffffffffffffffffffffffffffffffffffffffff168173ffffffffffffffffffffffffffffffffffffffff1614610223576102228161033a60201b60201c565b5b5050505f73ffffffffffffffffffffffffffffffffffffffff168173ffffffffffffffffffffffffffffffffffffffff160361028b576040517fd92e233d00000000000000000000000000000000000000000000000000000000815260040160405180910390fd5b8060025f6101000a81548173ffffffffffffffffffffffffffffffffffffffff021916908373ffffffffffffffffffffffffffffffffffffffff1602179055505060045f9054906101000a900473ffffffffffffffffffffffffffffffffffffffff1660035f6101000a81548173ffffffffffffffffffffffffffffffffffffffff021916908373ffffffffffffffffffffffffffffffffffffffff16021790555080600681905550506105a7565b3373ffffffffffffffffffffffffffffffffffffffff168173ffffffffffffffffffffffffffffffffffffffff16036103a8576040517f08c379a000000000000000000000000000000000000000000000000000000000815260040161039f90610589565b60405180910390fd5b8060015f6101000a81548173ffffffffffffffffffffffffffffffffffffffff021916908373ffffffffffffffffffffffffffffffffffffffff1602179055508073ffffffffffffffffffffffffffffffffffffffff165f5f9054906101000a900473ffffffffffffffffffffffffffffffffffffffff1673ffffffffffffffffffffffffffffffffffffffff167fed8889f560326eb138920d842192f0eb3dd22b4f139c87a2c57538e05bae127860405160405180910390a350565b5f5ffd5b5f819050919050565b61047b81610469565b8114610485575f5ffd5b50565b5f8151905061049681610472565b92915050565b5f602082840312156104b1576104b0610465565b5b5f6104be84828501610488565b91505092915050565b5f82825260208201905092915050565b7f43616e6e6f7420736574206f776e657220746f207a65726f00000000000000005f82015250565b5f61050b6018836104c7565b9150610516826104d7565b602082019050919050565b5f6020820190508181035f830152610538816104ff565b9050919050565b7f43616e6e6f74207472616e7366657220746f2073656c660000000000000000005f82015250565b5f6105736017836104c7565b915061057e8261053f565b602082019050919050565b5f6020820190508181035f8301526105a081610567565b9050919050565b611bc6806105b45f395ff3fe6080604052600436106100e7575f3560e01c80638da5cb5b11610089578063b0fb162f11610058578063b0fb162f146102b9578063d8a54360146102e3578063e0c862891461030d578063f2fde38b14610337576100e7565b80638da5cb5b146102155780638ea981171461023f5780639eccacf614610267578063b0e8d08614610291576100e7565b8063479507bb116100c5578063479507bb1461017b57806379ba5097146101995780637ccfd7fc146101af578063817dbe9f146101d9576100e7565b80630b0c1493146100eb5780631fe543e31461012957806324f7469714610151575b5f5ffd5b3480156100f6575f5ffd5b50610111600480360381019061010c91906111f2565b61035f565b604051610120939291906112de565b60405180910390f35b348015610134575f5ffd5b5061014f600480360381019061014a9190611374565b6103b0565b005b34801561015c575f5ffd5b50610165610474565b60405161017291906113ef565b60405180910390f35b610183610489565b6040516101909190611408565b60405180910390f35b3480156101a4575f5ffd5b506101ad6105b0565b005b3480156101ba575f5ffd5b506101c361073f565b6040516101d091906113ef565b60405180910390f35b3480156101e4575f5ffd5b506101ff60048036038101906101fa91906111f2565b610755565b60405161020c9190611408565b60405180910390f35b348015610220575f5ffd5b5061022961077f565b6040516102369190611421565b60405180910390f35b34801561024a575f5ffd5b5061026560048036038101906102609190611464565b6107a6565b005b348015610272575f5ffd5b5061027b610983565b60405161028891906114ea565b60405180910390f35b34801561029c575f5ffd5b506102b760048036038101906102b2919061152d565b6109a8565b005b3480156102c4575f5ffd5b506102cd610a56565b6040516102da9190611574565b60405180910390f35b3480156102ee575f5ffd5b506102f7610a6a565b60405161030491906113ef565b60405180910390f35b348015610318575f5ffd5b50610321610a7f565b60405161032e9190611408565b60405180910390f35b348015610342575f5ffd5b5061035d60048036038101906103589190611464565b610c03565b005b600a602052805f5260405f205f91509050805f015f9054906101000a900460ff1690805f0160019054906101000a900473ffffffffffffffffffffffffffffffffffffffff16908060010154905083565b60025f9054906101000a900473ffffffffffffffffffffffffffffffffffffffff1673ffffffffffffffffffffffffffffffffffffffff163373ffffffffffffffffffffffffffffffffffffffff1614610464573360025f9054906101000a900473ffffffffffffffffffffffffffffffffffffffff166040517f1cf993f400000000000000000000000000000000000000000000000000000000815260040161045b92919061158d565b60405180910390fd5b61046f838383610c17565b505050565b60075f9054906101000a900463ffffffff1681565b5f610492610a7f565b90506040518060600160405280600160028111156104b3576104b261121d565b5b81526020013373ffffffffffffffffffffffffffffffffffffffff1681526020015f815250600a5f8381526020019081526020015f205f820151815f015f6101000a81548160ff021916908360028111156105115761051061121d565b5b02179055506020820151815f0160016101000a81548173ffffffffffffffffffffffffffffffffffffffff021916908373ffffffffffffffffffffffffffffffffffffffff16021790555060408201518160010155905050803373ffffffffffffffffffffffffffffffffffffffff167f829b852df67cbb2db43aef2060c62af61832e9d4265448bf45e21999445b38f860405160405180910390a390565b60015f9054906101000a900473ffffffffffffffffffffffffffffffffffffffff1673ffffffffffffffffffffffffffffffffffffffff163373ffffffffffffffffffffffffffffffffffffffff161461063f576040517f08c379a00000000000000000000000000000000000000000000000000000000081526004016106369061160e565b60405180910390fd5b5f5f5f9054906101000a900473ffffffffffffffffffffffffffffffffffffffff169050335f5f6101000a81548173ffffffffffffffffffffffffffffffffffffffff021916908373ffffffffffffffffffffffffffffffffffffffff1602179055505f60015f6101000a81548173ffffffffffffffffffffffffffffffffffffffff021916908373ffffffffffffffffffffffffffffffffffffffff1602179055503373ffffffffffffffffffffffffffffffffffffffff168173ffffffffffffffffffffffffffffffffffffffff167f8be0079c531659141344cd1fd0a4f28419497f9722a3daafe3b4186f6b6457e060405160405180910390a350565b600760069054906101000a900463ffffffff1681565b60088181548110610764575f80fd5b905f5260205f2090600302015f915090508060020154905081565b5f5f5f9054906101000a900473ffffffffffffffffffffffffffffffffffffffff16905090565b6107ae61077f565b73ffffffffffffffffffffffffffffffffffffffff163373ffffffffffffffffffffffffffffffffffffffff1614158015610836575060025f9054906101000a900473ffffffffffffffffffffffffffffffffffffffff1673ffffffffffffffffffffffffffffffffffffffff163373ffffffffffffffffffffffffffffffffffffffff1614155b156108a4573361084461077f565b60025f9054906101000a900473ffffffffffffffffffffffffffffffffffffffff166040517f061db9c100000000000000000000000000000000000000000000000000000000815260040161089b9392919061162c565b60405180910390fd5b5f73ffffffffffffffffffffffffffffffffffffffff168173ffffffffffffffffffffffffffffffffffffffff1603610909576040517fd92e233d00000000000000000000000000000000000000000000000000000000815260040160405180910390fd5b8060025f6101000a81548173ffffffffffffffffffffffffffffffffffffffff021916908373ffffffffffffffffffffffffffffffffffffffff1602179055507fd1a6a14209a385a964d036e404cb5cfb71f4000cdb03c9366292430787261be6816040516109789190611421565b60405180910390a150565b60025f9054906101000a900473ffffffffffffffffffffffffffffffffffffffff1681565b62030d408163ffffffff1610156109eb576040517ff84a79ed00000000000000000000000000000000000000000000000000000000815260040160405180910390fd5b8060075f6101000a81548163ffffffff021916908363ffffffff1602179055507fff2acd28e44f937495ac012fb154a4ccfc838f3a2f29607d7a270337268062c860075f9054906101000a900463ffffffff16604051610a4b91906113ef565b60405180910390a150565b600760049054906101000a900461ffff1681565b60095f9054906101000a900463ffffffff1681565b5f5f6040518060c0016040528060055481526020016006548152602001600760049054906101000a900461ffff1661ffff16815260200160075f9054906101000a900463ffffffff1663ffffffff168152602001600760069054906101000a900463ffffffff1663ffffffff168152602001610b0b604051806020016040528060011515815250610f64565b81525090505f60035f9054906101000a900473ffffffffffffffffffffffffffffffffffffffff1673ffffffffffffffffffffffffffffffffffffffff16639b1c385e836040518263ffffffff1660e01b8152600401610b6b919061179c565b6020604051808303815f875af1158015610b87573d5f5f3e3d5ffd5b505050506040513d601f19601f82011682018060405250810190610bab91906117d0565b90503373ffffffffffffffffffffffffffffffffffffffff167f9d5ec813554188f51cff7ea82cda0c2e6a4006398b558e6d834f0fd6ead830a182604051610bf39190611408565b60405180910390a2809250505090565b610c0b610ffc565b610c148161108c565b50565b5f600a5f8581526020019081526020015f20905060016002811115610c3f57610c3e61121d565b5b815f015f9054906101000a900460ff166002811115610c6157610c6061121d565b5b14610c98576040517f3ae8468300000000000000000000000000000000000000000000000000000000815260040160405180910390fd5b82825f818110610cab57610caa6117fb565b5b9050602002013581600101819055505f60095f9054906101000a900463ffffffff1663ffffffff1684845f818110610ce657610ce56117fb565b5b90506020020135610cf79190611855565b90505f5f5f90505f5f90505b6008805490508160ff161015610d6a5760088160ff1681548110610d2a57610d296117fb565b5b905f5260205f2090600302016002015482610d4591906118b2565b915081841015610d5757809250610d6a565b8080610d62906118f1565b915050610d03565b505f60088360ff1681548110610d8357610d826117fb565b5b905f5260205f20906003020190505f816002015485604051602001610da89190611963565b604051602081830303815290604052805190602001205f1c610dca9190611855565b90505f825f018281548110610de257610de16117fb565b5b905f5260205f20015490505f60018460020154610dff919061198f565b9050808314610e65575f845f018281548110610e1e57610e1d6117fb565b5b905f5260205f200154905080855f018581548110610e3f57610e3e6117fb565b5b905f5260205f20018190555083856001015f8481526020019081526020015f2081905550505b835f01805480610e7857610e776119c2565b5b600190038181905f5260205f20015f90559055836002015f815480929190610e9f906119ef565b919050555060095f81819054906101000a900463ffffffff1680929190610ec590611a16565b91906101000a81548163ffffffff021916908363ffffffff16021790555050875f0160019054906101000a900473ffffffffffffffffffffffffffffffffffffffff1673ffffffffffffffffffffffffffffffffffffffff167fd31e7b1d79939371e7798a848d42f7d82520809c1a228cf8de4578c501c4b1818784604051610f4f929190611a4c565b60405180910390a25050505050505050505050565b60607f92fd13387c7fe7befbc38d303d6468778fb9731bc4583f17d92989c6fcfdeaaa82604051602401610f989190611aa7565b604051602081830303815290604052907bffffffffffffffffffffffffffffffffffffffffffffffffffffffff19166020820180517bffffffffffffffffffffffffffffffffffffffffffffffffffffffff83818316178352505050509050919050565b5f5f9054906101000a900473ffffffffffffffffffffffffffffffffffffffff1673ffffffffffffffffffffffffffffffffffffffff163373ffffffffffffffffffffffffffffffffffffffff161461108a576040517f08c379a000000000000000000000000000000000000000000000000000000000815260040161108190611b0a565b60405180910390fd5b565b3373ffffffffffffffffffffffffffffffffffffffff168173ffffffffffffffffffffffffffffffffffffffff16036110fa576040517f08c379a00000000000000000000000000000000000000000000000000000000081526004016110f190611b72565b60405180910390fd5b8060015f6101000a81548173ffffffffffffffffffffffffffffffffffffffff021916908373ffffffffffffffffffffffffffffffffffffffff1602179055508073ffffffffffffffffffffffffffffffffffffffff165f5f9054906101000a900473ffffffffffffffffffffffffffffffffffffffff1673ffffffffffffffffffffffffffffffffffffffff167fed8889f560326eb138920d842192f0eb3dd22b4f139c87a2c57538e05bae127860405160405180910390a350565b5f5ffd5b5f5ffd5b5f819050919050565b6111d1816111bf565b81146111db575f5ffd5b50565b5f813590506111ec816111c8565b92915050565b5f60208284031215611207576112066111b7565b5b5f611214848285016111de565b91505092915050565b7f4e487b71000000000000000000000000000000000000000000000000000000005f52602160045260245ffd5b6003811061125b5761125a61121d565b5b50565b5f81905061126b8261124a565b919050565b5f61127a8261125e565b9050919050565b61128a81611270565b82525050565b5f73ffffffffffffffffffffffffffffffffffffffff82169050919050565b5f6112b982611290565b9050919050565b6112c9816112af565b82525050565b6112d8816111bf565b82525050565b5f6060820190506112f15f830186611281565b6112fe60208301856112c0565b61130b60408301846112cf565b949350505050565b5f5ffd5b5f5ffd5b5f5ffd5b5f5f83601f84011261133457611333611313565b5b8235905067ffffffffffffffff81111561135157611350611317565b5b60208301915083602082028301111561136d5761136c61131b565b5b9250929050565b5f5f5f6040848603121561138b5761138a6111b7565b5b5f611398868287016111de565b935050602084013567ffffffffffffffff8111156113b9576113b86111bb565b5b6113c58682870161131f565b92509250509250925092565b5f63ffffffff82169050919050565b6113e9816113d1565b82525050565b5f6020820190506114025f8301846113e0565b92915050565b5f60208201905061141b5f8301846112cf565b92915050565b5f6020820190506114345f8301846112c0565b92915050565b611443816112af565b811461144d575f5ffd5b50565b5f8135905061145e8161143a565b92915050565b5f60208284031215611479576114786111b7565b5b5f61148684828501611450565b91505092915050565b5f819050919050565b5f6114b26114ad6114a884611290565b61148f565b611290565b9050919050565b5f6114c382611498565b9050919050565b5f6114d4826114b9565b9050919050565b6114e4816114ca565b82525050565b5f6020820190506114fd5f8301846114db565b92915050565b61150c816113d1565b8114611516575f5ffd5b50565b5f8135905061152781611503565b92915050565b5f60208284031215611542576115416111b7565b5b5f61154f84828501611519565b91505092915050565b5f61ffff82169050919050565b61156e81611558565b82525050565b5f6020820190506115875f830184611565565b92915050565b5f6040820190506115a05f8301856112c0565b6115ad60208301846112c0565b9392505050565b5f82825260208201905092915050565b7f4d7573742062652070726f706f736564206f776e6572000000000000000000005f82015250565b5f6115f86016836115b4565b9150611603826115c4565b602082019050919050565b5f6020820190508181035f830152611625816115ec565b9050919050565b5f60608201905061163f5f8301866112c0565b61164c60208301856112c0565b61165960408301846112c0565b949350505050565b5f819050919050565b61167381611661565b82525050565b611682816111bf565b82525050565b61169181611558565b82525050565b6116a0816113d1565b82525050565b5f81519050919050565b5f82825260208201905092915050565b8281835e5f83830152505050565b5f601f19601f8301169050919050565b5f6116e8826116a6565b6116f281856116b0565b93506117028185602086016116c0565b61170b816116ce565b840191505092915050565b5f60c083015f83015161172b5f86018261166a565b50602083015161173e6020860182611679565b5060408301516117516040860182611688565b5060608301516117646060860182611697565b5060808301516117776080860182611697565b5060a083015184820360a086015261178f82826116de565b9150508091505092915050565b5f6020820190508181035f8301526117b48184611716565b905092915050565b5f815190506117ca816111c8565b92915050565b5f602082840312156117e5576117e46111b7565b5b5f6117f2848285016117bc565b91505092915050565b7f4e487b71000000000000000000000000000000000000000000000000000000005f52603260045260245ffd5b7f4e487b71000000000000000000000000000000000000000000000000000000005f52601260045260245ffd5b5f61185f826111bf565b915061186a836111bf565b92508261187a57611879611828565b5b828206905092915050565b7f4e487b71000000000000000000000000000000000000000000000000000000005f52601160045260245ffd5b5f6118bc826111bf565b91506118c7836111bf565b92508282019050808211156118df576118de611885565b5b92915050565b5f60ff82169050919050565b5f6118fb826118e5565b915060ff820361190e5761190d611885565b5b600182019050919050565b7f6974656d000000000000000000000000000000000000000000000000000000005f82015250565b5f61194d6004836115b4565b915061195882611919565b602082019050919050565b5f6040820190506119765f8301846112cf565b818103602083015261198781611941565b905092915050565b5f611999826111bf565b91506119a4836111bf565b92508282039050818111156119bc576119bb611885565b5b92915050565b7f4e487b71000000000000000000000000000000000000000000000000000000005f52603160045260245ffd5b5f6119f9826111bf565b91505f8203611a0b57611a0a611885565b5b600182039050919050565b5f611a20826113d1565b91505f8203611a3257611a31611885565b5b600182039050919050565b611a46816118e5565b82525050565b5f604082019050611a5f5f830185611a3d565b611a6c60208301846112cf565b9392505050565b5f8115159050919050565b611a8781611a73565b82525050565b602082015f820151611aa15f850182611a7e565b50505050565b5f602082019050611aba5f830184611a8d565b92915050565b7f4f6e6c792063616c6c61626c65206279206f776e6572000000000000000000005f82015250565b5f611af46016836115b4565b9150611aff82611ac0565b602082019050919050565b5f6020820190508181035f830152611b2181611ae8565b9050919050565b7f43616e6e6f74207472616e7366657220746f2073656c660000000000000000005f82015250565b5f611b5c6017836115b4565b9150611b6782611b28565b602082019050919050565b5f6020820190508181035f830152611b8981611b50565b905091905056fea264697066735822122070a6eccc240880889fc0da35ed2a977e4e631c61254689f2ee849e17fb62b02164736f6c634300081e0033",
			"opcodes": "PUSH1 0x80 PUSH1 0x40 MSTORE PUSH20 0x9DDFACA8183C41AD55329BDEED9F6A8D53168B1B PUSH1 0x4 PUSH0 PUSH2 0x100 EXP DUP2 SLOAD DUP2 PUSH20 0xFFFFFFFFFFFFFFFFFFFFFFFFFFFFFFFFFFFFFFFF MUL NOT AND SWAP1 DUP4 PUSH20 0xFFFFFFFFFFFFFFFFFFFFFFFFFFFFFFFFFFFFFFFF AND MUL OR SWAP1 SSTORE POP PUSH32 0x787D74CAEA10B2B357790D5B5247C2F63D1D91572A9846F780606E4D953677AE PUSH0 SHL PUSH1 0x5 SSTORE PUSH3 0x30D40 PUSH1 0x7 PUSH0 PUSH2 0x100 EXP DUP2 SLOAD DUP2 PUSH4 0xFFFFFFFF MUL NOT AND SWAP1 DUP4 PUSH4 0xFFFFFFFF AND MUL OR SWAP1 SSTORE POP PUSH1 0x3 PUSH1 0x7 PUSH1 0x4 PUSH2 0x100 EXP DUP2 SLOAD DUP2 PUSH2 0xFFFF MUL NOT AND SWAP1 DUP4 PUSH2 0xFFFF AND MUL OR SWAP1 SSTORE POP PUSH1 0x1 PUSH1 0x7 PUSH1 0x6 PUSH2 0x100 EXP DUP2 SLOAD DUP2 PUSH4 0xFFFFFFFF MUL NOT AND SWAP1 DUP4 PUSH4 0xFFFFFFFF AND MUL OR SWAP1 SSTORE POP CALLVALUE DUP1 ISZERO PUSH2 0xEC JUMPI PUSH0 PUSH0 REVERT JUMPDEST POP PUSH1 0x40 MLOAD PUSH2 0x217A CODESIZE SUB DUP1 PUSH2 0x217A DUP4 CODECOPY DUP2 DUP2 ADD PUSH1 0x40 MSTORE DUP2 ADD SWAP1 PUSH2 0x10E SWAP2 SWAP1 PUSH2 0x49C JUMP JUMPDEST PUSH1 0x4 PUSH0 SWAP1 SLOAD SWAP1 PUSH2 0x100 EXP SWAP1 DIV PUSH20 0xFFFFFFFFFFFFFFFFFFFFFFFFFFFFFFFFFFFFFFFF AND CALLER DUP1 PUSH0 PUSH0 PUSH20 0xFFFFFFFFFFFFFFFFFFFFFFFFFFFFFFFFFFFFFFFF AND DUP3 PUSH20 0xFFFFFFFFFFFFFFFFFFFFFFFFFFFFFFFFFFFFFFFF AND SUB PUSH2 0x1A1 JUMPI PUSH1 0x40 MLOAD PUSH32 0x8C379A000000000000000000000000000000000000000000000000000000000 DUP2 MSTORE PUSH1 0x4 ADD PUSH2 0x198 SWAP1 PUSH2 0x521 JUMP JUMPDEST PUSH1 0x40 MLOAD DUP1 SWAP2 SUB SWAP1 REVERT JUMPDEST DUP2 PUSH0 PUSH0 PUSH2 0x100 EXP DUP2 SLOAD DUP2 PUSH20 0xFFFFFFFFFFFFFFFFFFFFFFFFFFFFFFFFFFFFFFFF MUL NOT AND SWAP1 DUP4 PUSH20 0xFFFFFFFFFFFFFFFFFFFFFFFFFFFFFFFFFFFFFFFF AND MUL OR SWAP1 SSTORE POP PUSH0 PUSH20 0xFFFFFFFFFFFFFFFFFFFFFFFFFFFFFFFFFFFFFFFF AND DUP2 PUSH20 0xFFFFFFFFFFFFFFFFFFFFFFFFFFFFFFFFFFFFFFFF AND EQ PUSH2 0x223 JUMPI PUSH2 0x222 DUP2 PUSH2 0x33A PUSH1 0x20 SHL PUSH1 0x20 SHR JUMP JUMPDEST JUMPDEST POP POP POP PUSH0 PUSH20 0xFFFFFFFFFFFFFFFFFFFFFFFFFFFFFFFFFFFFFFFF AND DUP2 PUSH20 0xFFFFFFFFFFFFFFFFFFFFFFFFFFFFFFFFFFFFFFFF AND SUB PUSH2 0x28B JUMPI PUSH1 0x40 MLOAD PUSH32 0xD92E233D00000000000000000000000000000000000000000000000000000000 DUP2 MSTORE PUSH1 0x4 ADD PUSH1 0x40 MLOAD DUP1 SWAP2 SUB SWAP1 REVERT JUMPDEST DUP1 PUSH1 0x2 PUSH0 PUSH2 0x100 EXP DUP2 SLOAD DUP2 PUSH20 0xFFFFFFFFFFFFFFFFFFFFFFFFFFFFFFFFFFFFFFFF MUL NOT AND SWAP1 DUP4 PUSH20 0xFFFFFFFFFFFFFFFFFFFFFFFFFFFFFFFFFFFFFFFF AND MUL OR SWAP1 SSTORE POP POP PUSH1 0x4 PUSH0 SWAP1 SLOAD SWAP1 PUSH2 0x100 EXP SWAP1 DIV PUSH20 0xFFFFFFFFFFFFFFFFFFFFFFFFFFFFFFFFFFFFFFFF AND PUSH1 0x3 PUSH0 PUSH2 0x100 EXP DUP2 SLOAD DUP2 PUSH20 0xFFFFFFFFFFFFFFFFFFFFFFFFFFFFFFFFFFFFFFFF MUL NOT AND SWAP1 DUP4 PUSH20 0xFFFFFFFFFFFFFFFFFFFFFFFFFFFFFFFFFFFFFFFF AND MUL OR SWAP1 SSTORE POP DUP1 PUSH1 0x6 DUP2 SWAP1 SSTORE POP POP PUSH2 0x5A7 JUMP JUMPDEST CALLER PUSH20 0xFFFFFFFFFFFFFFFFFFFFFFFFFFFFFFFFFFFFFFFF AND DUP2 PUSH20 0xFFFFFFFFFFFFFFFFFFFFFFFFFFFFFFFFFFFFFFFF AND SUB PUSH2 0x3A8 JUMPI PUSH1 0x40 MLOAD PUSH32 0x8C379A000000000000000000000000000000000000000000000000000000000 DUP2 MSTORE PUSH1 0x4 ADD PUSH2 0x39F SWAP1 PUSH2 0x589 JUMP JUMPDEST PUSH1 0x40 MLOAD DUP1 SWAP2 SUB SWAP1 REVERT JUMPDEST DUP1 PUSH1 0x1 PUSH0 PUSH2 0x100 EXP DUP2 SLOAD DUP2 PUSH20 0xFFFFFFFFFFFFFFFFFFFFFFFFFFFFFFFFFFFFFFFF MUL NOT AND SWAP1 DUP4 PUSH20 0xFFFFFFFFFFFFFFFFFFFFFFFFFFFFFFFFFFFFFFFF AND MUL OR SWAP1 SSTORE POP DUP1 PUSH20 0xFFFFFFFFFFFFFFFFFFFFFFFFFFFFFFFFFFFFFFFF AND PUSH0 PUSH0 SWAP1 SLOAD SWAP1 PUSH2 0x100 EXP SWAP1 DIV PUSH20 0xFFFFFFFFFFFFFFFFFFFFFFFFFFFFFFFFFFFFFFFF AND PUSH20 0xFFFFFFFFFFFFFFFFFFFFFFFFFFFFFFFFFFFFFFFF AND PUSH32 0xED8889F560326EB138920D842192F0EB3DD22B4F139C87A2C57538E05BAE1278 PUSH1 0x40 MLOAD PUSH1 0x40 MLOAD DUP1 SWAP2 SUB SWAP1 LOG3 POP JUMP JUMPDEST PUSH0 PUSH0 REVERT JUMPDEST PUSH0 DUP2 SWAP1 POP SWAP2 SWAP1 POP JUMP JUMPDEST PUSH2 0x47B DUP2 PUSH2 0x469 JUMP JUMPDEST DUP2 EQ PUSH2 0x485 JUMPI PUSH0 PUSH0 REVERT JUMPDEST POP JUMP JUMPDEST PUSH0 DUP2 MLOAD SWAP1 POP PUSH2 0x496 DUP2 PUSH2 0x472 JUMP JUMPDEST SWAP3 SWAP2 POP POP JUMP JUMPDEST PUSH0 PUSH1 0x20 DUP3 DUP5 SUB SLT ISZERO PUSH2 0x4B1 JUMPI PUSH2 0x4B0 PUSH2 0x465 JUMP JUMPDEST JUMPDEST PUSH0 PUSH2 0x4BE DUP5 DUP3 DUP6 ADD PUSH2 0x488 JUMP JUMPDEST SWAP2 POP POP SWAP3 SWAP2 POP POP JUMP JUMPDEST PUSH0 DUP3 DUP3 MSTORE PUSH1 0x20 DUP3 ADD SWAP1 POP SWAP3 SWAP2 POP POP JUMP JUMPDEST PUSH32 0x43616E6E6F7420736574206F776E657220746F207A65726F0000000000000000 PUSH0 DUP3 ADD MSTORE POP JUMP JUMPDEST PUSH0 PUSH2 0x50B PUSH1 0x18 DUP4 PUSH2 0x4C7 JUMP JUMPDEST SWAP2 POP PUSH2 0x516 DUP3 PUSH2 0x4D7 JUMP JUMPDEST PUSH1 0x20 DUP3 ADD SWAP1 POP SWAP2 SWAP1 POP JUMP JUMPDEST PUSH0 PUSH1 0x20 DUP3 ADD SWAP1 POP DUP2 DUP2 SUB PUSH0 DUP4 ADD MSTORE PUSH2 0x538 DUP2 PUSH2 0x4FF JUMP JUMPDEST SWAP1 POP SWAP2 SWAP1 POP JUMP JUMPDEST PUSH32 0x43616E6E6F74207472616E7366657220746F2073656C66000000000000000000 PUSH0 DUP3 ADD MSTORE POP JUMP JUMPDEST PUSH0 PUSH2 0x573 PUSH1 0x17 DUP4 PUSH2 0x4C7 JUMP JUMPDEST SWAP2 POP PUSH2 0x57E DUP3 PUSH2 0x53F JUMP JUMPDEST PUSH1 0x20 DUP3 ADD SWAP1 POP SWAP2 SWAP1 POP JUMP JUMPDEST PUSH0 PUSH1 0x20 DUP3 ADD SWAP1 POP DUP2 DUP2 SUB PUSH0 DUP4 ADD MSTORE PUSH2 0x5A0 DUP2 PUSH2 0x567 JUMP JUMPDEST SWAP1 POP SWAP2 SWAP1 POP JUMP JUMPDEST PUSH2 0x1BC6 DUP1 PUSH2 0x5B4 PUSH0 CODECOPY PUSH0 RETURN INVALID PUSH1 0x80 PUSH1 0x40 MSTORE PUSH1 0x4 CALLDATASIZE LT PUSH2 0xE7 JUMPI PUSH0 CALLDATALOAD PUSH1 0xE0 SHR DUP1 PUSH4 0x8DA5CB5B GT PUSH2 0x89 JUMPI DUP1 PUSH4 0xB0FB162F GT PUSH2 0x58 JUMPI DUP1 PUSH4 0xB0FB162F EQ PUSH2 0x2B9 JUMPI DUP1 PUSH4 0xD8A54360 EQ PUSH2 0x2E3 JUMPI DUP1 PUSH4 0xE0C86289 EQ PUSH2 0x30D JUMPI DUP1 PUSH4 0xF2FDE38B EQ PUSH2 0x337 JUMPI PUSH2 0xE7 JUMP JUMPDEST DUP1 PUSH4 0x8DA5CB5B EQ PUSH2 0x215 JUMPI DUP1 PUSH4 0x8EA98117 EQ PUSH2 0x23F JUMPI DUP1 PUSH4 0x9ECCACF6 EQ PUSH2 0x267 JUMPI DUP1 PUSH4 0xB0E8D086 EQ PUSH2 0x291 JUMPI PUSH2 0xE7 JUMP JUMPDEST DUP1 PUSH4 0x479507BB GT PUSH2 0xC5 JUMPI DUP1 PUSH4 0x479507BB EQ PUSH2 0x17B JUMPI DUP1 PUSH4 0x79BA5097 EQ PUSH2 0x199 JUMPI DUP1 PUSH4 0x7CCFD7FC EQ PUSH2 0x1AF JUMPI DUP1 PUSH4 0x817DBE9F EQ PUSH2 0x1D9 JUMPI PUSH2 0xE7 JUMP JUMPDEST DUP1 PUSH4 0xB0C1493 EQ PUSH2 0xEB JUMPI DUP1 PUSH4 0x1FE543E3 EQ PUSH2 0x129 JUMPI DUP1 PUSH4 0x24F74697 EQ PUSH2 0x151 JUMPI JUMPDEST PUSH0 PUSH0 REVERT JUMPDEST CALLVALUE DUP1 ISZERO PUSH2 0xF6 JUMPI PUSH0 PUSH0 REVERT JUMPDEST POP PUSH2 0x111 PUSH1 0x4 DUP1 CALLDATASIZE SUB DUP2 ADD SWAP1 PUSH2 0x10C SWAP2 SWAP1 PUSH2 0x11F2 JUMP JUMPDEST PUSH2 0x35F JUMP JUMPDEST PUSH1 0x40 MLOAD PUSH2 0x120 SWAP4 SWAP3 SWAP2 SWAP1 PUSH2 0x12DE JUMP JUMPDEST PUSH1 0x40 MLOAD DUP1 SWAP2 SUB SWAP1 RETURN JUMPDEST CALLVALUE DUP1 ISZERO PUSH2 0x134 JUMPI PUSH0 PUSH0 REVERT JUMPDEST POP PUSH2 0x14F PUSH1 0x4 DUP1 CALLDATASIZE SUB DUP2 ADD SWAP1 PUSH2 0x14A SWAP2 SWAP1 PUSH2 0x1374 JUMP JUMPDEST PUSH2 0x3B0 JUMP JUMPDEST STOP JUMPDEST CALLVALUE DUP1 ISZERO PUSH2 0x15C JUMPI PUSH0 PUSH0 REVERT JUMPDEST POP PUSH2 0x165 PUSH2 0x474 JUMP JUMPDEST PUSH1 0x40 MLOAD PUSH2 0x172 SWAP2 SWAP1 PUSH2 0x13EF JUMP JUMPDEST PUSH1 0x40 MLOAD DUP1 SWAP2 SUB SWAP1 RETURN JUMPDEST PUSH2 0x183 PUSH2 0x489 JUMP JUMPDEST PUSH1 0x40 MLOAD PUSH2 0x190 SWAP2 SWAP1 PUSH2 0x1408 JUMP JUMPDEST PUSH1 0x40 MLOAD DUP1 SWAP2 SUB SWAP1 RETURN JUMPDEST CALLVALUE DUP1 ISZERO PUSH2 0x1A4 JUMPI PUSH0 PUSH0 REVERT JUMPDEST POP PUSH2 0x1AD PUSH2 0x5B0 JUMP JUMPDEST STOP JUMPDEST CALLVALUE DUP1 ISZERO PUSH2 0x1BA JUMPI PUSH0 PUSH0 REVERT JUMPDEST POP PUSH2 0x1C3 PUSH2 0x73F JUMP JUMPDEST PUSH1 0x40 MLOAD PUSH2 0x1D0 SWAP2 SWAP1 PUSH2 0x13EF JUMP JUMPDEST PUSH1 0x40 MLOAD DUP1 SWAP2 SUB SWAP1 RETURN JUMPDEST CALLVALUE DUP1 ISZERO PUSH2 0x1E4 JUMPI PUSH0 PUSH0 REVERT JUMPDEST POP PUSH2 0x1FF PUSH1 0x4 DUP1 CALLDATASIZE SUB DUP2 ADD SWAP1 PUSH2 0x1FA SWAP2 SWAP1 PUSH2 0x11F2 JUMP JUMPDEST PUSH2 0x755 JUMP JUMPDEST PUSH1 0x40 MLOAD PUSH2 0x20C SWAP2 SWAP1 PUSH2 0x1408 JUMP JUMPDEST PUSH1 0x40 MLOAD DUP1 SWAP2 SUB SWAP1 RETURN JUMPDEST CALLVALUE DUP1 ISZERO PUSH2 0x220 JUMPI PUSH0 PUSH0 REVERT JUMPDEST POP PUSH2 0x229 PUSH2 0x77F JUMP JUMPDEST PUSH1 0x40 MLOAD PUSH2 0x236 SWAP2 SWAP1 PUSH2 0x1421 JUMP JUMPDEST PUSH1 0x40 MLOAD DUP1 SWAP2 SUB SWAP1 RETURN JUMPDEST CALLVALUE DUP1 ISZERO PUSH2 0x24A JUMPI PUSH0 PUSH0 REVERT JUMPDEST POP PUSH2 0x265 PUSH1 0x4 DUP1 CALLDATASIZE SUB DUP2 ADD SWAP1 PUSH2 0x260 SWAP2 SWAP1 PUSH2 0x1464 JUMP JUMPDEST PUSH2 0x7A6 JUMP JUMPDEST STOP JUMPDEST CALLVALUE DUP1 ISZERO PUSH2 0x272 JUMPI PUSH0 PUSH0 REVERT JUMPDEST POP PUSH2 0x27B PUSH2 0x983 JUMP JUMPDEST PUSH1 0x40 MLOAD PUSH2 0x288 SWAP2 SWAP1 PUSH2 0x14EA JUMP JUMPDEST PUSH1 0x40 MLOAD DUP1 SWAP2 SUB SWAP1 RETURN JUMPDEST CALLVALUE DUP1 ISZERO PUSH2 0x29C JUMPI PUSH0 PUSH0 REVERT JUMPDEST POP PUSH2 0x2B7 PUSH1 0x4 DUP1 CALLDATASIZE SUB DUP2 ADD SWAP1 PUSH2 0x2B2 SWAP2 SWAP1 PUSH2 0x152D JUMP JUMPDEST PUSH2 0x9A8 JUMP JUMPDEST STOP JUMPDEST CALLVALUE DUP1 ISZERO PUSH2 0x2C4 JUMPI PUSH0 PUSH0 REVERT JUMPDEST POP PUSH2 0x2CD PUSH2 0xA56 JUMP JUMPDEST PUSH1 0x40 MLOAD PUSH2 0x2DA SWAP2 SWAP1 PUSH2 0x1574 JUMP JUMPDEST PUSH1 0x40 MLOAD DUP1 SWAP2 SUB SWAP1 RETURN JUMPDEST CALLVALUE DUP1 ISZERO PUSH2 0x2EE JUMPI PUSH0 PUSH0 REVERT JUMPDEST POP PUSH2 0x2F7 PUSH2 0xA6A JUMP JUMPDEST PUSH1 0x40 MLOAD PUSH2 0x304 SWAP2 SWAP1 PUSH2 0x13EF JUMP JUMPDEST PUSH1 0x40 MLOAD DUP1 SWAP2 SUB SWAP1 RETURN JUMPDEST CALLVALUE DUP1 ISZERO PUSH2 0x318 JUMPI PUSH0 PUSH0 REVERT JUMPDEST POP PUSH2 0x321 PUSH2 0xA7F JUMP JUMPDEST PUSH1 0x40 MLOAD PUSH2 0x32E SWAP2 SWAP1 PUSH2 0x1408 JUMP JUMPDEST PUSH1 0x40 MLOAD DUP1 SWAP2 SUB SWAP1 RETURN JUMPDEST CALLVALUE DUP1 ISZERO PUSH2 0x342 JUMPI PUSH0 PUSH0 REVERT JUMPDEST POP PUSH2 0x35D PUSH1 0x4 DUP1 CALLDATASIZE SUB DUP2 ADD SWAP1 PUSH2 0x358 SWAP2 SWAP1 PUSH2 0x1464 JUMP JUMPDEST PUSH2 0xC03 JUMP JUMPDEST STOP JUMPDEST PUSH1 0xA PUSH1 0x20 MSTORE DUP1 PUSH0 MSTORE PUSH1 0x40 PUSH0 KECCAK256 PUSH0 SWAP2 POP SWAP1 POP DUP1 PUSH0 ADD PUSH0 SWAP1 SLOAD SWAP1 PUSH2 0x100 EXP SWAP1 DIV PUSH1 0xFF AND SWAP1 DUP1 PUSH0 ADD PUSH1 0x1 SWAP1 SLOAD SWAP1 PUSH2 0x100 EXP SWAP1 DIV PUSH20 0xFFFFFFFFFFFFFFFFFFFFFFFFFFFFFFFFFFFFFFFF AND SWAP1 DUP1 PUSH1 0x1 ADD SLOAD SWAP1 POP DUP4 JUMP JUMPDEST PUSH1 0x2 PUSH0 SWAP1 SLOAD SWAP1 PUSH2 0x100 EXP SWAP1 DIV PUSH20 0xFFFFFFFFFFFFFFFFFFFFFFFFFFFFFFFFFFFFFFFF AND PUSH20 0xFFFFFFFFFFFFFFFFFFFFFFFFFFFFFFFFFFFFFFFF AND CALLER PUSH20 0xFFFFFFFFFFFFFFFFFFFFFFFFFFFFFFFFFFFFFFFF AND EQ PUSH2 0x464 JUMPI CALLER PUSH1 0x2 PUSH0 SWAP1 SLOAD SWAP1 PUSH2 0x100 EXP SWAP1 DIV PUSH20 0xFFFFFFFFFFFFFFFFFFFFFFFFFFFFFFFFFFFFFFFF AND PUSH1 0x40 MLOAD PUSH32 0x1CF993F400000000000000000000000000000000000000000000000000000000 DUP2 MSTORE PUSH1 0x4 ADD PUSH2 0x45B SWAP3 SWAP2 SWAP1 PUSH2 0x158D JUMP JUMPDEST PUSH1 0x40 MLOAD DUP1 SWAP2 SUB SWAP1 REVERT JUMPDEST PUSH2 0x46F DUP4 DUP4 DUP4 PUSH2 0xC17 JUMP JUMPDEST POP POP POP JUMP JUMPDEST PUSH1 0x7 PUSH0 SWAP1 SLOAD SWAP1 PUSH2 0x100 EXP SWAP1 DIV PUSH4 0xFFFFFFFF AND DUP2 JUMP JUMPDEST PUSH0 PUSH2 0x492 PUSH2 0xA7F JUMP JUMPDEST SWAP1 POP PUSH1 0x40 MLOAD DUP1 PUSH1 0x60 ADD PUSH1 0x40 MSTORE DUP1 PUSH1 0x1 PUSH1 0x2 DUP2 GT ISZERO PUSH2 0x4B3 JUMPI PUSH2 0x4B2 PUSH2 0x121D JUMP JUMPDEST JUMPDEST DUP2 MSTORE PUSH1 0x20 ADD CALLER PUSH20 0xFFFFFFFFFFFFFFFFFFFFFFFFFFFFFFFFFFFFFFFF AND DUP2 MSTORE PUSH1 0x20 ADD PUSH0 DUP2 MSTORE POP PUSH1 0xA PUSH0 DUP4 DUP2 MSTORE PUSH1 0x20 ADD SWAP1 DUP2 MSTORE PUSH1 0x20 ADD PUSH0 KECCAK256 PUSH0 DUP3 ADD MLOAD DUP2 PUSH0 ADD PUSH0 PUSH2 0x100 EXP DUP2 SLOAD DUP2 PUSH1 0xFF MUL NOT AND SWAP1 DUP4 PUSH1 0x2 DUP2 GT ISZERO PUSH2 0x511 JUMPI PUSH2 0x510 PUSH2 0x121D JUMP JUMPDEST JUMPDEST MUL OR SWAP1 SSTORE POP PUSH1 0x20 DUP3 ADD MLOAD DUP2 PUSH0 ADD PUSH1 0x1 PUSH2 0x100 EXP DUP2 SLOAD DUP2 PUSH20 0xFFFFFFFFFFFFFFFFFFFFFFFFFFFFFFFFFFFFFFFF MUL NOT AND SWAP1 DUP4 PUSH20 0xFFFFFFFFFFFFFFFFFFFFFFFFFFFFFFFFFFFFFFFF AND MUL OR SWAP1 SSTORE POP PUSH1 0x40 DUP3 ADD MLOAD DUP2 PUSH1 0x1 ADD SSTORE SWAP1 POP POP DUP1 CALLER PUSH20 0xFFFFFFFFFFFFFFFFFFFFFFFFFFFFFFFFFFFFFFFF AND PUSH32 0x829B852DF67CBB2DB43AEF2060C62AF61832E9D4265448BF45E21999445B38F8 PUSH1 0x40 MLOAD PUSH1 0x40 MLOAD DUP1 SWAP2 SUB SWAP1 LOG3 SWAP1 JUMP JUMPDEST PUSH1 0x1 PUSH0 SWAP1 SLOAD SWAP1 PUSH2 0x100 EXP SWAP1 DIV PUSH20 0xFFFFFFFFFFFFFFFFFFFFFFFFFFFFFFFFFFFFFFFF AND PUSH20 0xFFFFFFFFFFFFFFFFFFFFFFFFFFFFFFFFFFFFFFFF AND CALLER PUSH20 0xFFFFFFFFFFFFFFFFFFFFFFFFFFFFFFFFFFFFFFFF AND EQ PUSH2 0x63F JUMPI PUSH1 0x40 MLOAD PUSH32 0x8C379A000000000000000000000000000000000000000000000000000000000 DUP2 MSTORE PUSH1 0x4 ADD PUSH2 0x636 SWAP1 PUSH2 0x160E JUMP JUMPDEST PUSH1 0x40 MLOAD DUP1 SWAP2 SUB SWAP1 REVERT JUMPDEST PUSH0 PUSH0 PUSH0 SWAP1 SLOAD SWAP1 PUSH2 0x100 EXP SWAP1 DIV PUSH20 0xFFFFFFFFFFFFFFFFFFFFFFFFFFFFFFFFFFFFFFFF AND SWAP1 POP CALLER PUSH0 PUSH0 PUSH2 0x100 EXP DUP2 SLOAD DUP2 PUSH20 0xFFFFFFFFFFFFFFFFFFFFFFFFFFFFFFFFFFFFFFFF MUL NOT AND SWAP1 DUP4 PUSH20 0xFFFFFFFFFFFFFFFFFFFFFFFFFFFFFFFFFFFFFFFF AND MUL OR SWAP1 SSTORE POP PUSH0 PUSH1 0x1 PUSH0 PUSH2 0x100 EXP DUP2 SLOAD DUP2 PUSH20 0xFFFFFFFFFFFFFFFFFFFFFFFFFFFFFFFFFFFFFFFF MUL NOT AND SWAP1 DUP4 PUSH20 0xFFFFFFFFFFFFFFFFFFFFFFFFFFFFFFFFFFFFFFFF AND MUL OR SWAP1 SSTORE POP CALLER PUSH20 0xFFFFFFFFFFFFFFFFFFFFFFFFFFFFFFFFFFFFFFFF AND DUP2 PUSH20 0xFFFFFFFFFFFFFFFFFFFFFFFFFFFFFFFFFFFFFFFF AND PUSH32 0x8BE0079C531659141344CD1FD0A4F28419497F9722A3DAAFE3B4186F6B6457E0 PUSH1 0x40 MLOAD PUSH1 0x40 MLOAD DUP1 SWAP2 SUB SWAP1 LOG3 POP JUMP JUMPDEST PUSH1 0x7 PUSH1 0x6 SWAP1 SLOAD SWAP1 PUSH2 0x100 EXP SWAP1 DIV PUSH4 0xFFFFFFFF AND DUP2 JUMP JUMPDEST PUSH1 0x8 DUP2 DUP2 SLOAD DUP2 LT PUSH2 0x764 JUMPI PUSH0 DUP1 REVERT JUMPDEST SWAP1 PUSH0 MSTORE PUSH1 0x20 PUSH0 KECCAK256 SWAP1 PUSH1 0x3 MUL ADD PUSH0 SWAP2 POP SWAP1 POP DUP1 PUSH1 0x2 ADD SLOAD SWAP1 POP DUP2 JUMP JUMPDEST PUSH0 PUSH0 PUSH0 SWAP1 SLOAD SWAP1 PUSH2 0x100 EXP SWAP1 DIV PUSH20 0xFFFFFFFFFFFFFFFFFFFFFFFFFFFFFFFFFFFFFFFF AND SWAP1 POP SWAP1 JUMP JUMPDEST PUSH2 0x7AE PUSH2 0x77F JUMP JUMPDEST PUSH20 0xFFFFFFFFFFFFFFFFFFFFFFFFFFFFFFFFFFFFFFFF AND CALLER PUSH20 0xFFFFFFFFFFFFFFFFFFFFFFFFFFFFFFFFFFFFFFFF AND EQ ISZERO DUP1 ISZERO PUSH2 0x836 JUMPI POP PUSH1 0x2 PUSH0 SWAP1 SLOAD SWAP1 PUSH2 0x100 EXP SWAP1 DIV PUSH20 0xFFFFFFFFFFFFFFFFFFFFFFFFFFFFFFFFFFFFFFFF AND PUSH20 0xFFFFFFFFFFFFFFFFFFFFFFFFFFFFFFFFFFFFFFFF AND CALLER PUSH20 0xFFFFFFFFFFFFFFFFFFFFFFFFFFFFFFFFFFFFFFFF AND EQ ISZERO JUMPDEST ISZERO PUSH2 0x8A4 JUMPI CALLER PUSH2 0x844 PUSH2 0x77F JUMP JUMPDEST PUSH1 0x2 PUSH0 SWAP1 SLOAD SWAP1 PUSH2 0x100 EXP SWAP1 DIV PUSH20 0xFFFFFFFFFFFFFFFFFFFFFFFFFFFFFFFFFFFFFFFF AND PUSH1 0x40 MLOAD PUSH32 0x61DB9C100000000000000000000000000000000000000000000000000000000 DUP2 MSTORE PUSH1 0x4 ADD PUSH2 0x89B SWAP4 SWAP3 SWAP2 SWAP1 PUSH2 0x162C JUMP JUMPDEST PUSH1 0x40 MLOAD DUP1 SWAP2 SUB SWAP1 REVERT JUMPDEST PUSH0 PUSH20 0xFFFFFFFFFFFFFFFFFFFFFFFFFFFFFFFFFFFFFFFF AND DUP2 PUSH20 0xFFFFFFFFFFFFFFFFFFFFFFFFFFFFFFFFFFFFFFFF AND SUB PUSH2 0x909 JUMPI PUSH1 0x40 MLOAD PUSH32 0xD92E233D00000000000000000000000000000000000000000000000000000000 DUP2 MSTORE PUSH1 0x4 ADD PUSH1 0x40 MLOAD DUP1 SWAP2 SUB SWAP1 REVERT JUMPDEST DUP1 PUSH1 0x2 PUSH0 PUSH2 0x100 EXP DUP2 SLOAD DUP2 PUSH20 0xFFFFFFFFFFFFFFFFFFFFFFFFFFFFFFFFFFFFFFFF MUL NOT AND SWAP1 DUP4 PUSH20 0xFFFFFFFFFFFFFFFFFFFFFFFFFFFFFFFFFFFFFFFF AND MUL OR SWAP1 SSTORE POP PUSH32 0xD1A6A14209A385A964D036E404CB5CFB71F4000CDB03C9366292430787261BE6 DUP2 PUSH1 0x40 MLOAD PUSH2 0x978 SWAP2 SWAP1 PUSH2 0x1421 JUMP JUMPDEST PUSH1 0x40 MLOAD DUP1 SWAP2 SUB SWAP1 LOG1 POP JUMP JUMPDEST PUSH1 0x2 PUSH0 SWAP1 SLOAD SWAP1 PUSH2 0x100 EXP SWAP1 DIV PUSH20 0xFFFFFFFFFFFFFFFFFFFFFFFFFFFFFFFFFFFFFFFF AND DUP2 JUMP JUMPDEST PUSH3 0x30D40 DUP2 PUSH4 0xFFFFFFFF AND LT ISZERO PUSH2 0x9EB JUMPI PUSH1 0x40 MLOAD PUSH32 0xF84A79ED00000000000000000000000000000000000000000000000000000000 DUP2 MSTORE PUSH1 0x4 ADD PUSH1 0x40 MLOAD DUP1 SWAP2 SUB SWAP1 REVERT JUMPDEST DUP1 PUSH1 0x7 PUSH0 PUSH2 0x100 EXP DUP2 SLOAD DUP2 PUSH4 0xFFFFFFFF MUL NOT AND SWAP1 DUP4 PUSH4 0xFFFFFFFF AND MUL OR SWAP1 SSTORE POP PUSH32 0xFF2ACD28E44F937495AC012FB154A4CCFC838F3A2F29607D7A270337268062C8 PUSH1 0x7 PUSH0 SWAP1 SLOAD SWAP1 PUSH2 0x100 EXP SWAP1 DIV PUSH4 0xFFFFFFFF AND PUSH1 0x40 MLOAD PUSH2 0xA4B SWAP2 SWAP1 PUSH2 0x13EF JUMP JUMPDEST PUSH1 0x40 MLOAD DUP1 SWAP2 SUB SWAP1 LOG1 POP JUMP JUMPDEST PUSH1 0x7 PUSH1 0x4 SWAP1 SLOAD SWAP1 PUSH2 0x100 EXP SWAP1 DIV PUSH2 0xFFFF AND DUP2 JUMP JUMPDEST PUSH1 0x9 PUSH0 SWAP1 SLOAD SWAP1 PUSH2 0x100 EXP SWAP1 DIV PUSH4 0xFFFFFFFF AND DUP2 JUMP JUMPDEST PUSH0 PUSH0 PUSH1 0x40 MLOAD DUP1 PUSH1 0xC0 ADD PUSH1 0x40 MSTORE DUP1 PUSH1 0x5 SLOAD DUP2 MSTORE PUSH1 0x20 ADD PUSH1 0x6 SLOAD DUP2 MSTORE PUSH1 0x20 ADD PUSH1 0x7 PUSH1 0x4 SWAP1 SLOAD SWAP1 PUSH2 0x100 EXP SWAP1 DIV PUSH2 0xFFFF AND PUSH2 0xFFFF AND DUP2 MSTORE PUSH1 0x20 ADD PUSH1 0x7 PUSH0 SWAP1 SLOAD SWAP1 PUSH2 0x100 EXP SWAP1 DIV PUSH4 0xFFFFFFFF AND PUSH4 0xFFFFFFFF AND DUP2 MSTORE PUSH1 0x20 ADD PUSH1 0x7 PUSH1 0x6 SWAP1 SLOAD SWAP1 PUSH2 0x100 EXP SWAP1 DIV PUSH4 0xFFFFFFFF AND PUSH4 0xFFFFFFFF AND DUP2 MSTORE PUSH1 0x20 ADD PUSH2 0xB0B PUSH1 0x40 MLOAD DUP1 PUSH1 0x20 ADD PUSH1 0x40 MSTORE DUP1 PUSH1 0x1 ISZERO ISZERO DUP2 MSTORE POP PUSH2 0xF64 JUMP JUMPDEST DUP2 MSTORE POP SWAP1 POP PUSH0 PUSH1 0x3 PUSH0 SWAP1 SLOAD SWAP1 PUSH2 0x100 EXP SWAP1 DIV PUSH20 0xFFFFFFFFFFFFFFFFFFFFFFFFFFFFFFFFFFFFFFFF AND PUSH20 0xFFFFFFFFFFFFFFFFFFFFFFFFFFFFFFFFFFFFFFFF AND PUSH4 0x9B1C385E DUP4 PUSH1 0x40 MLOAD DUP3 PUSH4 0xFFFFFFFF AND PUSH1 0xE0 SHL DUP2 MSTORE PUSH1 0x4 ADD PUSH2 0xB6B SWAP2 SWAP1 PUSH2 0x179C JUMP JUMPDEST PUSH1 0x20 PUSH1 0x40 MLOAD DUP1 DUP4 SUB DUP2 PUSH0 DUP8 GAS CALL ISZERO DUP1 ISZERO PUSH2 0xB87 JUMPI RETURNDATASIZE PUSH0 PUSH0 RETURNDATACOPY RETURNDATASIZE PUSH0 REVERT JUMPDEST POP POP POP POP PUSH1 0x40 MLOAD RETURNDATASIZE PUSH1 0x1F NOT PUSH1 0x1F DUP3 ADD AND DUP3 ADD DUP1 PUSH1 0x40 MSTORE POP DUP2 ADD SWAP1 PUSH2 0xBAB SWAP2 SWAP1 PUSH2 0x17D0 JUMP JUMPDEST SWAP1 POP CALLER PUSH20 0xFFFFFFFFFFFFFFFFFFFFFFFFFFFFFFFFFFFFFFFF AND PUSH32 0x9D5EC813554188F51CFF7EA82CDA0C2E6A4006398B558E6D834F0FD6EAD830A1 DUP3 PUSH1 0x40 MLOAD PUSH2 0xBF3 SWAP2 SWAP1 PUSH2 0x1408 JUMP JUMPDEST PUSH1 0x40 MLOAD DUP1 SWAP2 SUB SWAP1 LOG2 DUP1 SWAP3 POP POP POP SWAP1 JUMP JUMPDEST PUSH2 0xC0B PUSH2 0xFFC JUMP JUMPDEST PUSH2 0xC14 DUP2 PUSH2 0x108C JUMP JUMPDEST POP JUMP JUMPDEST PUSH0 PUSH1 0xA PUSH0 DUP6 DUP2 MSTORE PUSH1 0x20 ADD SWAP1 DUP2 MSTORE PUSH1 0x20 ADD PUSH0 KECCAK256 SWAP1 POP PUSH1 0x1 PUSH1 0x2 DUP2 GT ISZERO PUSH2 0xC3F JUMPI PUSH2 0xC3E PUSH2 0x121D JUMP JUMPDEST JUMPDEST DUP2 PUSH0 ADD PUSH0 SWAP1 SLOAD SWAP1 PUSH2 0x100 EXP SWAP1 DIV PUSH1 0xFF AND PUSH1 0x2 DUP2 GT ISZERO PUSH2 0xC61 JUMPI PUSH2 0xC60 PUSH2 0x121D JUMP JUMPDEST JUMPDEST EQ PUSH2 0xC98 JUMPI PUSH1 0x40 MLOAD PUSH32 0x3AE8468300000000000000000000000000000000000000000000000000000000 DUP2 MSTORE PUSH1 0x4 ADD PUSH1 0x40 MLOAD DUP1 SWAP2 SUB SWAP1 REVERT JUMPDEST DUP3 DUP3 PUSH0 DUP2 DUP2 LT PUSH2 0xCAB JUMPI PUSH2 0xCAA PUSH2 0x17FB JUMP JUMPDEST JUMPDEST SWAP1 POP PUSH1 0x20 MUL ADD CALLDATALOAD DUP2 PUSH1 0x1 ADD DUP2 SWAP1 SSTORE POP PUSH0 PUSH1 0x9 PUSH0 SWAP1 SLOAD SWAP1 PUSH2 0x100 EXP SWAP1 DIV PUSH4 0xFFFFFFFF AND PUSH4 0xFFFFFFFF AND DUP5 DUP5 PUSH0 DUP2 DUP2 LT PUSH2 0xCE6 JUMPI PUSH2 0xCE5 PUSH2 0x17FB JUMP JUMPDEST JUMPDEST SWAP1 POP PUSH1 0x20 MUL ADD CALLDATALOAD PUSH2 0xCF7 SWAP2 SWAP1 PUSH2 0x1855 JUMP JUMPDEST SWAP1 POP PUSH0 PUSH0 PUSH0 SWAP1 POP PUSH0 PUSH0 SWAP1 POP JUMPDEST PUSH1 0x8 DUP1 SLOAD SWAP1 POP DUP2 PUSH1 0xFF AND LT ISZERO PUSH2 0xD6A JUMPI PUSH1 0x8 DUP2 PUSH1 0xFF AND DUP2 SLOAD DUP2 LT PUSH2 0xD2A JUMPI PUSH2 0xD29 PUSH2 0x17FB JUMP JUMPDEST JUMPDEST SWAP1 PUSH0 MSTORE PUSH1 0x20 PUSH0 KECCAK256 SWAP1 PUSH1 0x3 MUL ADD PUSH1 0x2 ADD SLOAD DUP3 PUSH2 0xD45 SWAP2 SWAP1 PUSH2 0x18B2 JUMP JUMPDEST SWAP2 POP DUP2 DUP5 LT ISZERO PUSH2 0xD57 JUMPI DUP1 SWAP3 POP PUSH2 0xD6A JUMP JUMPDEST DUP1 DUP1 PUSH2 0xD62 SWAP1 PUSH2 0x18F1 JUMP JUMPDEST SWAP2 POP POP PUSH2 0xD03 JUMP JUMPDEST POP PUSH0 PUSH1 0x8 DUP4 PUSH1 0xFF AND DUP2 SLOAD DUP2 LT PUSH2 0xD83 JUMPI PUSH2 0xD82 PUSH2 0x17FB JUMP JUMPDEST JUMPDEST SWAP1 PUSH0 MSTORE PUSH1 0x20 PUSH0 KECCAK256 SWAP1 PUSH1 0x3 MUL ADD SWAP1 POP PUSH0 DUP2 PUSH1 0x2 ADD SLOAD DUP6 PUSH1 0x40 MLOAD PUSH1 0x20 ADD PUSH2 0xDA8 SWAP2 SWAP1 PUSH2 0x1963 JUMP JUMPDEST PUSH1 0x40 MLOAD PUSH1 0x20 DUP2 DUP4 SUB SUB DUP2 MSTORE SWAP1 PUSH1 0x40 MSTORE DUP1 MLOAD SWAP1 PUSH1 0x20 ADD KECCAK256 PUSH0 SHR PUSH2 0xDCA SWAP2 SWAP1 PUSH2 0x1855 JUMP JUMPDEST SWAP1 POP PUSH0 DUP3 PUSH0 ADD DUP3 DUP2 SLOAD DUP2 LT PUSH2 0xDE2 JUMPI PUSH2 0xDE1 PUSH2 0x17FB JUMP JUMPDEST JUMPDEST SWAP1 PUSH0 MSTORE PUSH1 0x20 PUSH0 KECCAK256 ADD SLOAD SWAP1 POP PUSH0 PUSH1 0x1 DUP5 PUSH1 0x2 ADD SLOAD PUSH2 0xDFF SWAP2 SWAP1 PUSH2 0x198F JUMP JUMPDEST SWAP1 POP DUP1 DUP4 EQ PUSH2 0xE65 JUMPI PUSH0 DUP5 PUSH0 ADD DUP3 DUP2 SLOAD DUP2 LT PUSH2 0xE1E JUMPI PUSH2 0xE1D PUSH2 0x17FB JUMP JUMPDEST JUMPDEST SWAP1 PUSH0 MSTORE PUSH1 0x20 PUSH0 KECCAK256 ADD SLOAD SWAP1 POP DUP1 DUP6 PUSH0 ADD DUP6 DUP2 SLOAD DUP2 LT PUSH2 0xE3F JUMPI PUSH2 0xE3E PUSH2 0x17FB JUMP JUMPDEST JUMPDEST SWAP1 PUSH0 MSTORE PUSH1 0x20 PUSH0 KECCAK256 ADD DUP2 SWAP1 SSTORE POP DUP4 DUP6 PUSH1 0x1 ADD PUSH0 DUP5 DUP2 MSTORE PUSH1 0x20 ADD SWAP1 DUP2 MSTORE PUSH1 0x20 ADD PUSH0 KECCAK256 DUP2 SWAP1 SSTORE POP POP JUMPDEST DUP4 PUSH0 ADD DUP1 SLOAD DUP1 PUSH2 0xE78 JUMPI PUSH2 0xE77 PUSH2 0x19C2 JUMP JUMPDEST JUMPDEST PUSH1 0x1 SWAP1 SUB DUP2 DUP2 SWAP1 PUSH0 MSTORE PUSH1 0x20 PUSH0 KECCAK256 ADD PUSH0 SWAP1 SSTORE SWAP1 SSTORE DUP4 PUSH1 0x2 ADD PUSH0 DUP2 SLOAD DUP1 SWAP3 SWAP2 SWAP1 PUSH2 0xE9F SWAP1 PUSH2 0x19EF JUMP JUMPDEST SWAP2 SWAP1 POP SSTORE POP PUSH1 0x9 PUSH0 DUP2 DUP2 SWAP1 SLOAD SWAP1 PUSH2 0x100 EXP SWAP1 DIV PUSH4 0xFFFFFFFF AND DUP1 SWAP3 SWAP2 SWAP1 PUSH2 0xEC5 SWAP1 PUSH2 0x1A16 JUMP JUMPDEST SWAP2 SWAP1 PUSH2 0x100 EXP DUP2 SLOAD DUP2 PUSH4 0xFFFFFFFF MUL NOT AND SWAP1 DUP4 PUSH4 0xFFFFFFFF AND MUL OR SWAP1 SSTORE POP POP DUP8 PUSH0 ADD PUSH1 0x1 SWAP1 SLOAD SWAP1 PUSH2 0x100 EXP SWAP1 DIV PUSH20 0xFFFFFFFFFFFFFFFFFFFFFFFFFFFFFFFFFFFFFFFF AND PUSH20 0xFFFFFFFFFFFFFFFFFFFFFFFFFFFFFFFFFFFFFFFF AND PUSH32 0xD31E7B1D79939371E7798A848D42F7D82520809C1A228CF8DE4578C501C4B181 DUP8 DUP5 PUSH1 0x40 MLOAD PUSH2 0xF4F SWAP3 SWAP2 SWAP1 PUSH2 0x1A4C JUMP JUMPDEST PUSH1 0x40 MLOAD DUP1 SWAP2 SUB SWAP1 LOG2 POP POP POP POP POP POP POP POP POP POP POP JUMP JUMPDEST PUSH1 0x60 PUSH32 0x92FD13387C7FE7BEFBC38D303D6468778FB9731BC4583F17D92989C6FCFDEAAA DUP3 PUSH1 0x40 MLOAD PUSH1 0x24 ADD PUSH2 0xF98 SWAP2 SWAP1 PUSH2 0x1AA7 JUMP JUMPDEST PUSH1 0x40 MLOAD PUSH1 0x20 DUP2 DUP4 SUB SUB DUP2 MSTORE SWAP1 PUSH1 0x40 MSTORE SWAP1 PUSH28 0xFFFFFFFFFFFFFFFFFFFFFFFFFFFFFFFFFFFFFFFFFFFFFFFFFFFFFFFF NOT AND PUSH1 0x20 DUP3 ADD DUP1 MLOAD PUSH28 0xFFFFFFFFFFFFFFFFFFFFFFFFFFFFFFFFFFFFFFFFFFFFFFFFFFFFFFFF DUP4 DUP2 DUP4 AND OR DUP4 MSTORE POP POP POP POP SWAP1 POP SWAP2 SWAP1 POP JUMP JUMPDEST PUSH0 PUSH0 SWAP1 SLOAD SWAP1 PUSH2 0x100 EXP SWAP1 DIV PUSH20 0xFFFFFFFFFFFFFFFFFFFFFFFFFFFFFFFFFFFFFFFF AND PUSH20 0xFFFFFFFFFFFFFFFFFFFFFFFFFFFFFFFFFFFFFFFF AND CALLER PUSH20 0xFFFFFFFFFFFFFFFFFFFFFFFFFFFFFFFFFFFFFFFF AND EQ PUSH2 0x108A JUMPI PUSH1 0x40 MLOAD PUSH32 0x8C379A000000000000000000000000000000000000000000000000000000000 DUP2 MSTORE PUSH1 0x4 ADD PUSH2 0x1081 SWAP1 PUSH2 0x1B0A JUMP JUMPDEST PUSH1 0x40 MLOAD DUP1 SWAP2 SUB SWAP1 REVERT JUMPDEST JUMP JUMPDEST CALLER PUSH20 0xFFFFFFFFFFFFFFFFFFFFFFFFFFFFFFFFFFFFFFFF AND DUP2 PUSH20 0xFFFFFFFFFFFFFFFFFFFFFFFFFFFFFFFFFFFFFFFF AND SUB PUSH2 0x10FA JUMPI PUSH1 0x40 MLOAD PUSH32 0x8C379A000000000000000000000000000000000000000000000000000000000 DUP2 MSTORE PUSH1 0x4 ADD PUSH2 0x10F1 SWAP1 PUSH2 0x1B72 JUMP JUMPDEST PUSH1 0x40 MLOAD DUP1 SWAP2 SUB SWAP1 REVERT JUMPDEST DUP1 PUSH1 0x1 PUSH0 PUSH2 0x100 EXP DUP2 SLOAD DUP2 PUSH20 0xFFFFFFFFFFFFFFFFFFFFFFFFFFFFFFFFFFFFFFFF MUL NOT AND SWAP1 DUP4 PUSH20 0xFFFFFFFFFFFFFFFFFFFFFFFFFFFFFFFFFFFFFFFF AND MUL OR SWAP1 SSTORE POP DUP1 PUSH20 0xFFFFFFFFFFFFFFFFFFFFFFFFFFFFFFFFFFFFFFFF AND PUSH0 PUSH0 SWAP1 SLOAD SWAP1 PUSH2 0x100 EXP SWAP1 DIV PUSH20 0xFFFFFFFFFFFFFFFFFFFFFFFFFFFFFFFFFFFFFFFF AND PUSH20 0xFFFFFFFFFFFFFFFFFFFFFFFFFFFFFFFFFFFFFFFF AND PUSH32 0xED8889F560326EB138920D842192F0EB3DD22B4F139C87A2C57538E05BAE1278 PUSH1 0x40 MLOAD PUSH1 0x40 MLOAD DUP1 SWAP2 SUB SWAP1 LOG3 POP JUMP JUMPDEST PUSH0 PUSH0 REVERT JUMPDEST PUSH0 PUSH0 REVERT JUMPDEST PUSH0 DUP2 SWAP1 POP SWAP2 SWAP1 POP JUMP JUMPDEST PUSH2 0x11D1 DUP2 PUSH2 0x11BF JUMP JUMPDEST DUP2 EQ PUSH2 0x11DB JUMPI PUSH0 PUSH0 REVERT JUMPDEST POP JUMP JUMPDEST PUSH0 DUP2 CALLDATALOAD SWAP1 POP PUSH2 0x11EC DUP2 PUSH2 0x11C8 JUMP JUMPDEST SWAP3 SWAP2 POP POP JUMP JUMPDEST PUSH0 PUSH1 0x20 DUP3 DUP5 SUB SLT ISZERO PUSH2 0x1207 JUMPI PUSH2 0x1206 PUSH2 0x11B7 JUMP JUMPDEST JUMPDEST PUSH0 PUSH2 0x1214 DUP5 DUP3 DUP6 ADD PUSH2 0x11DE JUMP JUMPDEST SWAP2 POP POP SWAP3 SWAP2 POP POP JUMP JUMPDEST PUSH32 0x4E487B7100000000000000000000000000000000000000000000000000000000 PUSH0 MSTORE PUSH1 0x21 PUSH1 0x4 MSTORE PUSH1 0x24 PUSH0 REVERT JUMPDEST PUSH1 0x3 DUP2 LT PUSH2 0x125B JUMPI PUSH2 0x125A PUSH2 0x121D JUMP JUMPDEST JUMPDEST POP JUMP JUMPDEST PUSH0 DUP2 SWAP1 POP PUSH2 0x126B DUP3 PUSH2 0x124A JUMP JUMPDEST SWAP2 SWAP1 POP JUMP JUMPDEST PUSH0 PUSH2 0x127A DUP3 PUSH2 0x125E JUMP JUMPDEST SWAP1 POP SWAP2 SWAP1 POP JUMP JUMPDEST PUSH2 0x128A DUP2 PUSH2 0x1270 JUMP JUMPDEST DUP3 MSTORE POP POP JUMP JUMPDEST PUSH0 PUSH20 0xFFFFFFFFFFFFFFFFFFFFFFFFFFFFFFFFFFFFFFFF DUP3 AND SWAP1 POP SWAP2 SWAP1 POP JUMP JUMPDEST PUSH0 PUSH2 0x12B9 DUP3 PUSH2 0x1290 JUMP JUMPDEST SWAP1 POP SWAP2 SWAP1 POP JUMP JUMPDEST PUSH2 0x12C9 DUP2 PUSH2 0x12AF JUMP JUMPDEST DUP3 MSTORE POP POP JUMP JUMPDEST PUSH2 0x12D8 DUP2 PUSH2 0x11BF JUMP JUMPDEST DUP3 MSTORE POP POP JUMP JUMPDEST PUSH0 PUSH1 0x60 DUP3 ADD SWAP1 POP PUSH2 0x12F1 PUSH0 DUP4 ADD DUP7 PUSH2 0x1281 JUMP JUMPDEST PUSH2 0x12FE PUSH1 0x20 DUP4 ADD DUP6 PUSH2 0x12C0 JUMP JUMPDEST PUSH2 0x130B PUSH1 0x40 DUP4 ADD DUP5 PUSH2 0x12CF JUMP JUMPDEST SWAP5 SWAP4 POP POP POP POP JUMP JUMPDEST PUSH0 PUSH0 REVERT JUMPDEST PUSH0 PUSH0 REVERT JUMPDEST PUSH0 PUSH0 REVERT JUMPDEST PUSH0 PUSH0 DUP4 PUSH1 0x1F DUP5 ADD SLT PUSH2 0x1334 JUMPI PUSH2 0x1333 PUSH2 0x1313 JUMP JUMPDEST JUMPDEST DUP3 CALLDATALOAD SWAP1 POP PUSH8 0xFFFFFFFFFFFFFFFF DUP2 GT ISZERO PUSH2 0x1351 JUMPI PUSH2 0x1350 PUSH2 0x1317 JUMP JUMPDEST JUMPDEST PUSH1 0x20 DUP4 ADD SWAP2 POP DUP4 PUSH1 0x20 DUP3 MUL DUP4 ADD GT ISZERO PUSH2 0x136D JUMPI PUSH2 0x136C PUSH2 0x131B JUMP JUMPDEST JUMPDEST SWAP3 POP SWAP3 SWAP1 POP JUMP JUMPDEST PUSH0 PUSH0 PUSH0 PUSH1 0x40 DUP5 DUP7 SUB SLT ISZERO PUSH2 0x138B JUMPI PUSH2 0x138A PUSH2 0x11B7 JUMP JUMPDEST JUMPDEST PUSH0 PUSH2 0x1398 DUP7 DUP3 DUP8 ADD PUSH2 0x11DE JUMP JUMPDEST SWAP4 POP POP PUSH1 0x20 DUP5 ADD CALLDATALOAD PUSH8 0xFFFFFFFFFFFFFFFF DUP2 GT ISZERO PUSH2 0x13B9 JUMPI PUSH2 0x13B8 PUSH2 0x11BB JUMP JUMPDEST JUMPDEST PUSH2 0x13C5 DUP7 DUP3 DUP8 ADD PUSH2 0x131F JUMP JUMPDEST SWAP3 POP SWAP3 POP POP SWAP3 POP SWAP3 POP SWAP3 JUMP JUMPDEST PUSH0 PUSH4 0xFFFFFFFF DUP3 AND SWAP1 POP SWAP2 SWAP1 POP JUMP JUMPDEST PUSH2 0x13E9 DUP2 PUSH2 0x13D1 JUMP JUMPDEST DUP3 MSTORE POP POP JUMP JUMPDEST PUSH0 PUSH1 0x20 DUP3 ADD SWAP1 POP PUSH2 0x1402 PUSH0 DUP4 ADD DUP5 PUSH2 0x13E0 JUMP JUMPDEST SWAP3 SWAP2 POP POP JUMP JUMPDEST PUSH0 PUSH1 0x20 DUP3 ADD SWAP1 POP PUSH2 0x141B PUSH0 DUP4 ADD DUP5 PUSH2 0x12CF JUMP JUMPDEST SWAP3 SWAP2 POP POP JUMP JUMPDEST PUSH0 PUSH1 0x20 DUP3 ADD SWAP1 POP PUSH2 0x1434 PUSH0 DUP4 ADD DUP5 PUSH2 0x12C0 JUMP JUMPDEST SWAP3 SWAP2 POP POP JUMP JUMPDEST PUSH2 0x1443 DUP2 PUSH2 0x12AF JUMP JUMPDEST DUP2 EQ PUSH2 0x144D JUMPI PUSH0 PUSH0 REVERT JUMPDEST POP JUMP JUMPDEST PUSH0 DUP2 CALLDATALOAD SWAP1 POP PUSH2 0x145E DUP2 PUSH2 0x143A JUMP JUMPDEST SWAP3 SWAP2 POP POP JUMP JUMPDEST PUSH0 PUSH1 0x20 DUP3 DUP5 SUB SLT ISZERO PUSH2 0x1479 JUMPI PUSH2 0x1478 PUSH2 0x11B7 JUMP JUMPDEST JUMPDEST PUSH0 PUSH2 0x1486 DUP5 DUP3 DUP6 ADD PUSH2 0x1450 JUMP JUMPDEST SWAP2 POP POP SWAP3 SWAP2 POP POP JUMP JUMPDEST PUSH0 DUP2 SWAP1 POP SWAP2 SWAP1 POP JUMP JUMPDEST PUSH0 PUSH2 0x14B2 PUSH2 0x14AD PUSH2 0x14A8 DUP5 PUSH2 0x1290 JUMP JUMPDEST PUSH2 0x148F JUMP JUMPDEST PUSH2 0x1290 JUMP JUMPDEST SWAP1 POP SWAP2 SWAP1 POP JUMP JUMPDEST PUSH0 PUSH2 0x14C3 DUP3 PUSH2 0x1498 JUMP JUMPDEST SWAP1 POP SWAP2 SWAP1 POP JUMP JUMPDEST PUSH0 PUSH2 0x14D4 DUP3 PUSH2 0x14B9 JUMP JUMPDEST SWAP1 POP SWAP2 SWAP1 POP JUMP JUMPDEST PUSH2 0x14E4 DUP2 PUSH2 0x14CA JUMP JUMPDEST DUP3 MSTORE POP POP JUMP JUMPDEST PUSH0 PUSH1 0x20 DUP3 ADD SWAP1 POP PUSH2 0x14FD PUSH0 DUP4 ADD DUP5 PUSH2 0x14DB JUMP JUMPDEST SWAP3 SWAP2 POP POP JUMP JUMPDEST PUSH2 0x150C DUP2 PUSH2 0x13D1 JUMP JUMPDEST DUP2 EQ PUSH2 0x1516 JUMPI PUSH0 PUSH0 REVERT JUMPDEST POP JUMP JUMPDEST PUSH0 DUP2 CALLDATALOAD SWAP1 POP PUSH2 0x1527 DUP2 PUSH2 0x1503 JUMP JUMPDEST SWAP3 SWAP2 POP POP JUMP JUMPDEST PUSH0 PUSH1 0x20 DUP3 DUP5 SUB SLT ISZERO PUSH2 0x1542 JUMPI PUSH2 0x1541 PUSH2 0x11B7 JUMP JUMPDEST JUMPDEST PUSH0 PUSH2 0x154F DUP5 DUP3 DUP6 ADD PUSH2 0x1519 JUMP JUMPDEST SWAP2 POP POP SWAP3 SWAP2 POP POP JUMP JUMPDEST PUSH0 PUSH2 0xFFFF DUP3 AND SWAP1 POP SWAP2 SWAP1 POP JUMP JUMPDEST PUSH2 0x156E DUP2 PUSH2 0x1558 JUMP JUMPDEST DUP3 MSTORE POP POP JUMP JUMPDEST PUSH0 PUSH1 0x20 DUP3 ADD SWAP1 POP PUSH2 0x1587 PUSH0 DUP4 ADD DUP5 PUSH2 0x1565 JUMP JUMPDEST SWAP3 SWAP2 POP POP JUMP JUMPDEST PUSH0 PUSH1 0x40 DUP3 ADD SWAP1 POP PUSH2 0x15A0 PUSH0 DUP4 ADD DUP6 PUSH2 0x12C0 JUMP JUMPDEST PUSH2 0x15AD PUSH1 0x20 DUP4 ADD DUP5 PUSH2 0x12C0 JUMP JUMPDEST SWAP4 SWAP3 POP POP POP JUMP JUMPDEST PUSH0 DUP3 DUP3 MSTORE PUSH1 0x20 DUP3 ADD SWAP1 POP SWAP3 SWAP2 POP POP JUMP JUMPDEST PUSH32 0x4D7573742062652070726F706F736564206F776E657200000000000000000000 PUSH0 DUP3 ADD MSTORE POP JUMP JUMPDEST PUSH0 PUSH2 0x15F8 PUSH1 0x16 DUP4 PUSH2 0x15B4 JUMP JUMPDEST SWAP2 POP PUSH2 0x1603 DUP3 PUSH2 0x15C4 JUMP JUMPDEST PUSH1 0x20 DUP3 ADD SWAP1 POP SWAP2 SWAP1 POP JUMP JUMPDEST PUSH0 PUSH1 0x20 DUP3 ADD SWAP1 POP DUP2 DUP2 SUB PUSH0 DUP4 ADD MSTORE PUSH2 0x1625 DUP2 PUSH2 0x15EC JUMP JUMPDEST SWAP1 POP SWAP2 SWAP1 POP JUMP JUMPDEST PUSH0 PUSH1 0x60 DUP3 ADD SWAP1 POP PUSH2 0x163F PUSH0 DUP4 ADD DUP7 PUSH2 0x12C0 JUMP JUMPDEST PUSH2 0x164C PUSH1 0x20 DUP4 ADD DUP6 PUSH2 0x12C0 JUMP JUMPDEST PUSH2 0x1659 PUSH1 0x40 DUP4 ADD DUP5 PUSH2 0x12C0 JUMP JUMPDEST SWAP5 SWAP4 POP POP POP POP JUMP JUMPDEST PUSH0 DUP2 SWAP1 POP SWAP2 SWAP1 POP JUMP JUMPDEST PUSH2 0x1673 DUP2 PUSH2 0x1661 JUMP JUMPDEST DUP3 MSTORE POP POP JUMP JUMPDEST PUSH2 0x1682 DUP2 PUSH2 0x11BF JUMP JUMPDEST DUP3 MSTORE POP POP JUMP JUMPDEST PUSH2 0x1691 DUP2 PUSH2 0x1558 JUMP JUMPDEST DUP3 MSTORE POP POP JUMP JUMPDEST PUSH2 0x16A0 DUP2 PUSH2 0x13D1 JUMP JUMPDEST DUP3 MSTORE POP POP JUMP JUMPDEST PUSH0 DUP2 MLOAD SWAP1 POP SWAP2 SWAP1 POP JUMP JUMPDEST PUSH0 DUP3 DUP3 MSTORE PUSH1 0x20 DUP3 ADD SWAP1 POP SWAP3 SWAP2 POP POP JUMP JUMPDEST DUP3 DUP2 DUP4 MCOPY PUSH0 DUP4 DUP4 ADD MSTORE POP POP POP JUMP JUMPDEST PUSH0 PUSH1 0x1F NOT PUSH1 0x1F DUP4 ADD AND SWAP1 POP SWAP2 SWAP1 POP JUMP JUMPDEST PUSH0 PUSH2 0x16E8 DUP3 PUSH2 0x16A6 JUMP JUMPDEST PUSH2 0x16F2 DUP2 DUP6 PUSH2 0x16B0 JUMP JUMPDEST SWAP4 POP PUSH2 0x1702 DUP2 DUP6 PUSH1 0x20 DUP7 ADD PUSH2 0x16C0 JUMP JUMPDEST PUSH2 0x170B DUP2 PUSH2 0x16CE JUMP JUMPDEST DUP5 ADD SWAP2 POP POP SWAP3 SWAP2 POP POP JUMP JUMPDEST PUSH0 PUSH1 0xC0 DUP4 ADD PUSH0 DUP4 ADD MLOAD PUSH2 0x172B PUSH0 DUP7 ADD DUP3 PUSH2 0x166A JUMP JUMPDEST POP PUSH1 0x20 DUP4 ADD MLOAD PUSH2 0x173E PUSH1 0x20 DUP7 ADD DUP3 PUSH2 0x1679 JUMP JUMPDEST POP PUSH1 0x40 DUP4 ADD MLOAD PUSH2 0x1751 PUSH1 0x40 DUP7 ADD DUP3 PUSH2 0x1688 JUMP JUMPDEST POP PUSH1 0x60 DUP4 ADD MLOAD PUSH2 0x1764 PUSH1 0x60 DUP7 ADD DUP3 PUSH2 0x1697 JUMP JUMPDEST POP PUSH1 0x80 DUP4 ADD MLOAD PUSH2 0x1777 PUSH1 0x80 DUP7 ADD DUP3 PUSH2 0x1697 JUMP JUMPDEST POP PUSH1 0xA0 DUP4 ADD MLOAD DUP5 DUP3 SUB PUSH1 0xA0 DUP7 ADD MSTORE PUSH2 0x178F DUP3 DUP3 PUSH2 0x16DE JUMP JUMPDEST SWAP2 POP POP DUP1 SWAP2 POP POP SWAP3 SWAP2 POP POP JUMP JUMPDEST PUSH0 PUSH1 0x20 DUP3 ADD SWAP1 POP DUP2 DUP2 SUB PUSH0 DUP4 ADD MSTORE PUSH2 0x17B4 DUP2 DUP5 PUSH2 0x1716 JUMP JUMPDEST SWAP1 POP SWAP3 SWAP2 POP POP JUMP JUMPDEST PUSH0 DUP2 MLOAD SWAP1 POP PUSH2 0x17CA DUP2 PUSH2 0x11C8 JUMP JUMPDEST SWAP3 SWAP2 POP POP JUMP JUMPDEST PUSH0 PUSH1 0x20 DUP3 DUP5 SUB SLT ISZERO PUSH2 0x17E5 JUMPI PUSH2 0x17E4 PUSH2 0x11B7 JUMP JUMPDEST JUMPDEST PUSH0 PUSH2 0x17F2 DUP5 DUP3 DUP6 ADD PUSH2 0x17BC JUMP JUMPDEST SWAP2 POP POP SWAP3 SWAP2 POP POP JUMP JUMPDEST PUSH32 0x4E487B7100000000000000000000000000000000000000000000000000000000 PUSH0 MSTORE PUSH1 0x32 PUSH1 0x4 MSTORE PUSH1 0x24 PUSH0 REVERT JUMPDEST PUSH32 0x4E487B7100000000000000000000000000000000000000000000000000000000 PUSH0 MSTORE PUSH1 0x12 PUSH1 0x4 MSTORE PUSH1 0x24 PUSH0 REVERT JUMPDEST PUSH0 PUSH2 0x185F DUP3 PUSH2 0x11BF JUMP JUMPDEST SWAP2 POP PUSH2 0x186A DUP4 PUSH2 0x11BF JUMP JUMPDEST SWAP3 POP DUP3 PUSH2 0x187A JUMPI PUSH2 0x1879 PUSH2 0x1828 JUMP JUMPDEST JUMPDEST DUP3 DUP3 MOD SWAP1 POP SWAP3 SWAP2 POP POP JUMP JUMPDEST PUSH32 0x4E487B7100000000000000000000000000000000000000000000000000000000 PUSH0 MSTORE PUSH1 0x11 PUSH1 0x4 MSTORE PUSH1 0x24 PUSH0 REVERT JUMPDEST PUSH0 PUSH2 0x18BC DUP3 PUSH2 0x11BF JUMP JUMPDEST SWAP2 POP PUSH2 0x18C7 DUP4 PUSH2 0x11BF JUMP JUMPDEST SWAP3 POP DUP3 DUP3 ADD SWAP1 POP DUP1 DUP3 GT ISZERO PUSH2 0x18DF JUMPI PUSH2 0x18DE PUSH2 0x1885 JUMP JUMPDEST JUMPDEST SWAP3 SWAP2 POP POP JUMP JUMPDEST PUSH0 PUSH1 0xFF DUP3 AND SWAP1 POP SWAP2 SWAP1 POP JUMP JUMPDEST PUSH0 PUSH2 0x18FB DUP3 PUSH2 0x18E5 JUMP JUMPDEST SWAP2 POP PUSH1 0xFF DUP3 SUB PUSH2 0x190E JUMPI PUSH2 0x190D PUSH2 0x1885 JUMP JUMPDEST JUMPDEST PUSH1 0x1 DUP3 ADD SWAP1 POP SWAP2 SWAP1 POP JUMP JUMPDEST PUSH32 0x6974656D00000000000000000000000000000000000000000000000000000000 PUSH0 DUP3 ADD MSTORE POP JUMP JUMPDEST PUSH0 PUSH2 0x194D PUSH1 0x4 DUP4 PUSH2 0x15B4 JUMP JUMPDEST SWAP2 POP PUSH2 0x1958 DUP3 PUSH2 0x1919 JUMP JUMPDEST PUSH1 0x20 DUP3 ADD SWAP1 POP SWAP2 SWAP1 POP JUMP JUMPDEST PUSH0 PUSH1 0x40 DUP3 ADD SWAP1 POP PUSH2 0x1976 PUSH0 DUP4 ADD DUP5 PUSH2 0x12CF JUMP JUMPDEST DUP2 DUP2 SUB PUSH1 0x20 DUP4 ADD MSTORE PUSH2 0x1987 DUP2 PUSH2 0x1941 JUMP JUMPDEST SWAP1 POP SWAP3 SWAP2 POP POP JUMP JUMPDEST PUSH0 PUSH2 0x1999 DUP3 PUSH2 0x11BF JUMP JUMPDEST SWAP2 POP PUSH2 0x19A4 DUP4 PUSH2 0x11BF JUMP JUMPDEST SWAP3 POP DUP3 DUP3 SUB SWAP1 POP DUP2 DUP2 GT ISZERO PUSH2 0x19BC JUMPI PUSH2 0x19BB PUSH2 0x1885 JUMP JUMPDEST JUMPDEST SWAP3 SWAP2 POP POP JUMP JUMPDEST PUSH32 0x4E487B7100000000000000000000000000000000000000000000000000000000 PUSH0 MSTORE PUSH1 0x31 PUSH1 0x4 MSTORE PUSH1 0x24 PUSH0 REVERT JUMPDEST PUSH0 PUSH2 0x19F9 DUP3 PUSH2 0x11BF JUMP JUMPDEST SWAP2 POP PUSH0 DUP3 SUB PUSH2 0x1A0B JUMPI PUSH2 0x1A0A PUSH2 0x1885 JUMP JUMPDEST JUMPDEST PUSH1 0x1 DUP3 SUB SWAP1 POP SWAP2 SWAP1 POP JUMP JUMPDEST PUSH0 PUSH2 0x1A20 DUP3 PUSH2 0x13D1 JUMP JUMPDEST SWAP2 POP PUSH0 DUP3 SUB PUSH2 0x1A32 JUMPI PUSH2 0x1A31 PUSH2 0x1885 JUMP JUMPDEST JUMPDEST PUSH1 0x1 DUP3 SUB SWAP1 POP SWAP2 SWAP1 POP JUMP JUMPDEST PUSH2 0x1A46 DUP2 PUSH2 0x18E5 JUMP JUMPDEST DUP3 MSTORE POP POP JUMP JUMPDEST PUSH0 PUSH1 0x40 DUP3 ADD SWAP1 POP PUSH2 0x1A5F PUSH0 DUP4 ADD DUP6 PUSH2 0x1A3D JUMP JUMPDEST PUSH2 0x1A6C PUSH1 0x20 DUP4 ADD DUP5 PUSH2 0x12CF JUMP JUMPDEST SWAP4 SWAP3 POP POP POP JUMP JUMPDEST PUSH0 DUP2 ISZERO ISZERO SWAP1 POP SWAP2 SWAP1 POP JUMP JUMPDEST PUSH2 0x1A87 DUP2 PUSH2 0x1A73 JUMP JUMPDEST DUP3 MSTORE POP POP JUMP JUMPDEST PUSH1 0x20 DUP3 ADD PUSH0 DUP3 ADD MLOAD PUSH2 0x1AA1 PUSH0 DUP6 ADD DUP3 PUSH2 0x1A7E JUMP JUMPDEST POP POP POP POP JUMP JUMPDEST PUSH0 PUSH1 0x20 DUP3 ADD SWAP1 POP PUSH2 0x1ABA PUSH0 DUP4 ADD DUP5 PUSH2 0x1A8D JUMP JUMPDEST SWAP3 SWAP2 POP POP JUMP JUMPDEST PUSH32 0x4F6E6C792063616C6C61626C65206279206F776E657200000000000000000000 PUSH0 DUP3 ADD MSTORE POP JUMP JUMPDEST PUSH0 PUSH2 0x1AF4 PUSH1 0x16 DUP4 PUSH2 0x15B4 JUMP JUMPDEST SWAP2 POP PUSH2 0x1AFF DUP3 PUSH2 0x1AC0 JUMP JUMPDEST PUSH1 0x20 DUP3 ADD SWAP1 POP SWAP2 SWAP1 POP JUMP JUMPDEST PUSH0 PUSH1 0x20 DUP3 ADD SWAP1 POP DUP2 DUP2 SUB PUSH0 DUP4 ADD MSTORE PUSH2 0x1B21 DUP2 PUSH2 0x1AE8 JUMP JUMPDEST SWAP1 POP SWAP2 SWAP1 POP JUMP JUMPDEST PUSH32 0x43616E6E6F74207472616E7366657220746F2073656C66000000000000000000 PUSH0 DUP3 ADD MSTORE POP JUMP JUMPDEST PUSH0 PUSH2 0x1B5C PUSH1 0x17 DUP4 PUSH2 0x15B4 JUMP JUMPDEST SWAP2 POP PUSH2 0x1B67 DUP3 PUSH2 0x1B28 JUMP JUMPDEST PUSH1 0x20 DUP3 ADD SWAP1 POP SWAP2 SWAP1 POP JUMP JUMPDEST PUSH0 PUSH1 0x20 DUP3 ADD SWAP1 POP DUP2 DUP2 SUB PUSH0 DUP4 ADD MSTORE PUSH2 0x1B89 DUP2 PUSH2 0x1B50 JUMP JUMPDEST SWAP1 POP SWAP2 SWAP1 POP JUMP INVALID LOG2 PUSH5 0x6970667358 0x22 SLT KECCAK256 PUSH17 0xA6ECCC240880889FC0DA35ED2A977E4E63 SHR PUSH2 0x2546 DUP10 CALLCODE RETURNCONTRACT 0x84 SWAP15 OR EXTSTATICCALL PUSH3 0xB02164 PUSH20 0x6F6C634300081E00330000000000000000000000 "
		},
		"gasEstimates": {
			"creation": {
				"codeDepositCost": "1422000",
				"executionCost": "infinite",
				"totalCost": "infinite"
			},
			"external": {
				"acceptOwnership()": "54576",
				"asks(uint256)": "infinite",
				"buyBox()": "infinite",
				"callbackGasLimit()": "2534",
				"classes(uint256)": "infinite",
				"numWords()": "2584",
				"owner()": "2537",
				"rawFulfillRandomWords(uint256,uint256[])": "infinite",
				"requestConfirmations()": "2539",
				"requestRandomWords()": "infinite",
				"s_vrfCoordinator()": "infinite",
				"setCoordinator(address)": "infinite",
				"totalRemaining()": "2510",
				"transferOwnership(address)": "30737",
				"updateCallbackGasLimit(uint32)": "infinite"
			},
			"internal": {
				"fulfillRandomWords(uint256,uint256[] calldata)": "infinite"
			}
		},
		"methodIdentifiers": {
			"acceptOwnership()": "79ba5097",
			"asks(uint256)": "0b0c1493",
			"buyBox()": "479507bb",
			"callbackGasLimit()": "24f74697",
			"classes(uint256)": "817dbe9f",
			"numWords()": "7ccfd7fc",
			"owner()": "8da5cb5b",
			"rawFulfillRandomWords(uint256,uint256[])": "1fe543e3",
			"requestConfirmations()": "b0fb162f",
			"requestRandomWords()": "e0c86289",
			"s_vrfCoordinator()": "9eccacf6",
			"setCoordinator(address)": "8ea98117",
			"totalRemaining()": "d8a54360",
			"transferOwnership(address)": "f2fde38b",
			"updateCallbackGasLimit(uint32)": "b0e8d086"
		}
	},
	"abi": [
		{
			"inputs": [
				{
					"internalType": "uint256",
					"name": "_subscriptionId",
					"type": "uint256"
				}
			],
			"stateMutability": "nonpayable",
			"type": "constructor"
		},
		{
			"inputs": [],
			"name": "BadStats",
			"type": "error"
		},
		{
			"inputs": [],
			"name": "Insufficientvalue",
			"type": "error"
		},
		{
			"inputs": [
				{
					"internalType": "address",
					"name": "have",
					"type": "address"
				},
				{
					"internalType": "address",
					"name": "want",
					"type": "address"
				}
			],
			"name": "OnlyCoordinatorCanFulfill",
			"type": "error"
		},
		{
			"inputs": [
				{
					"internalType": "address",
					"name": "have",
					"type": "address"
				},
				{
					"internalType": "address",
					"name": "owner",
					"type": "address"
				},
				{
					"internalType": "address",
					"name": "coordinator",
					"type": "address"
				}
			],
			"name": "OnlyOwnerOrCoordinator",
			"type": "error"
		},
		{
			"inputs": [],
			"name": "ZeroAddress",
			"type": "error"
		},
		{
			"inputs": [],
			"name": "gatLimitTooLow",
			"type": "error"
		},
		{
			"anonymous": false,
			"inputs": [
				{
					"indexed": true,
					"internalType": "address",
					"name": "buyer",
					"type": "address"
				},
				{
					"indexed": false,
					"internalType": "uint8",
					"name": "rarity",
					"type": "uint8"
				},
				{
					"indexed": false,
					"internalType": "uint256",
					"name": "itemId",
					"type": "uint256"
				}
			],
			"name": "BoxOpened",
			"type": "event"
		},
		{
			"anonymous": false,
			"inputs": [
				{
					"indexed": true,
					"internalType": "address",
					"name": "buyer",
					"type": "address"
				},
				{
					"indexed": true,
					"internalType": "uint256",
					"name": "requestId",
					"type": "uint256"
				}
			],
			"name": "BoxPurchased",
			"type": "event"
		},
		{
			"anonymous": false,
			"inputs": [
				{
					"indexed": false,
					"internalType": "address",
					"name": "vrfCoordinator",
					"type": "address"
				}
			],
			"name": "CoordinatorSet",
			"type": "event"
		},
		{
			"anonymous": false,
			"inputs": [
				{
					"indexed": true,
					"internalType": "address",
					"name": "from",
					"type": "address"
				},
				{
					"indexed": true,
					"internalType": "address",
					"name": "to",
					"type": "address"
				}
			],
			"name": "OwnershipTransferRequested",
			"type": "event"
		},
		{
			"anonymous": false,
			"inputs": [
				{
					"indexed": true,
					"internalType": "address",
					"name": "from",
					"type": "address"
				},
				{
					"indexed": true,
					"internalType": "address",
					"name": "to",
					"type": "address"
				}
			],
			"name": "OwnershipTransferred",
			"type": "event"
		},
		{
			"anonymous": false,
			"inputs": [
				{
					"indexed": false,
					"internalType": "uint256",
					"name": "requestId",
					"type": "uint256"
				},
				{
					"indexed": true,
					"internalType": "address",
					"name": "user",
					"type": "address"
				}
			],
			"name": "RandomsRequest",
			"type": "event"
		},
		{
			"anonymous": false,
			"inputs": [
				{
					"indexed": false,
					"internalType": "uint32",
					"name": "_callbackGasLimit",
					"type": "uint32"
				}
			],
			"name": "UpdateCallbackGasLimit",
			"type": "event"
		},
		{
			"inputs": [],
			"name": "acceptOwnership",
			"outputs": [],
			"stateMutability": "nonpayable",
			"type": "function"
		},
		{
			"inputs": [
				{
					"internalType": "uint256",
					"name": "",
					"type": "uint256"
				}
			],
			"name": "asks",
			"outputs": [
				{
					"internalType": "enum LootBoxVRF.Status",
					"name": "status",
					"type": "uint8"
				},
				{
					"internalType": "address",
					"name": "buyer",
					"type": "address"
				},
				{
					"internalType": "uint256",
					"name": "randomness",
					"type": "uint256"
				}
			],
			"stateMutability": "view",
			"type": "function"
		},
		{
			"inputs": [],
			"name": "buyBox",
			"outputs": [
				{
					"internalType": "uint256",
					"name": "requestId",
					"type": "uint256"
				}
			],
			"stateMutability": "payable",
			"type": "function"
		},
		{
			"inputs": [],
			"name": "callbackGasLimit",
			"outputs": [
				{
					"internalType": "uint32",
					"name": "",
					"type": "uint32"
				}
			],
			"stateMutability": "view",
			"type": "function"
		},
		{
			"inputs": [
				{
					"internalType": "uint256",
					"name": "",
					"type": "uint256"
				}
			],
			"name": "classes",
			"outputs": [
				{
					"internalType": "uint256",
					"name": "remaining",
					"type": "uint256"
				}
			],
			"stateMutability": "view",
			"type": "function"
		},
		{
			"inputs": [],
			"name": "numWords",
			"outputs": [
				{
					"internalType": "uint32",
					"name": "",
					"type": "uint32"
				}
			],
			"stateMutability": "view",
			"type": "function"
		},
		{
			"inputs": [],
			"name": "owner",
			"outputs": [
				{
					"internalType": "address",
					"name": "",
					"type": "address"
				}
			],
			"stateMutability": "view",
			"type": "function"
		},
		{
			"inputs": [
				{
					"internalType": "uint256",
					"name": "requestId",
					"type": "uint256"
				},
				{
					"internalType": "uint256[]",
					"name": "randomWords",
					"type": "uint256[]"
				}
			],
			"name": "rawFulfillRandomWords",
			"outputs": [],
			"stateMutability": "nonpayable",
			"type": "function"
		},
		{
			"inputs": [],
			"name": "requestConfirmations",
			"outputs": [
				{
					"internalType": "uint16",
					"name": "",
					"type": "uint16"
				}
			],
			"stateMutability": "view",
			"type": "function"
		},
		{
			"inputs": [],
			"name": "requestRandomWords",
			"outputs": [
				{
					"internalType": "uint256",
					"name": "",
					"type": "uint256"
				}
			],
			"stateMutability": "nonpayable",
			"type": "function"
		},
		{
			"inputs": [],
			"name": "s_vrfCoordinator",
			"outputs": [
				{
					"internalType": "contract IVRFCoordinatorV2Plus",
					"name": "",
					"type": "address"
				}
			],
			"stateMutability": "view",
			"type": "function"
		},
		{
			"inputs": [
				{
					"internalType": "address",
					"name": "_vrfCoordinator",
					"type": "address"
				}
			],
			"name": "setCoordinator",
			"outputs": [],
			"stateMutability": "nonpayable",
			"type": "function"
		},
		{
			"inputs": [],
			"name": "totalRemaining",
			"outputs": [
				{
					"internalType": "uint32",
					"name": "",
					"type": "uint32"
				}
			],
			"stateMutability": "view",
			"type": "function"
		},
		{
			"inputs": [
				{
					"internalType": "address",
					"name": "to",
					"type": "address"
				}
			],
			"name": "transferOwnership",
			"outputs": [],
			"stateMutability": "nonpayable",
			"type": "function"
		},
		{
			"inputs": [
				{
					"internalType": "uint32",
					"name": "_callbackGasLimit",
					"type": "uint32"
				}
			],
			"name": "updateCallbackGasLimit",
			"outputs": [],
			"stateMutability": "nonpayable",
			"type": "function"
		}
	]
}