{
	"data": {
		"bytecode": {
			"linkReferences": {},
			"object": "608060405234801561000f575f5ffd5b50335f73ffffffffffffffffffffffffffffffffffffffff168173ffffffffffffffffffffffffffffffffffffffff1603610081575f6040517f1e4fbdf700000000000000000000000000000000000000000000000000000000815260040161007891906101db565b60405180910390fd5b610090816100a560201b60201c565b5060016002819055505f6007819055506101f4565b60015f6101000a81549073ffffffffffffffffffffffffffffffffffffffff02191690556100d8816100db60201b60201c565b50565b5f5f5f9054906101000a900473ffffffffffffffffffffffffffffffffffffffff169050815f5f6101000a81548173ffffffffffffffffffffffffffffffffffffffff021916908373ffffffffffffffffffffffffffffffffffffffff1602179055508173ffffffffffffffffffffffffffffffffffffffff168173ffffffffffffffffffffffffffffffffffffffff167f8be0079c531659141344cd1fd0a4f28419497f9722a3daafe3b4186f6b6457e060405160405180910390a35050565b5f73ffffffffffffffffffffffffffffffffffffffff82169050919050565b5f6101c58261019c565b9050919050565b6101d5816101bb565b82525050565b5f6020820190506101ee5f8301846101cc565b92915050565b610fc8806102015f395ff3fe608060405234801561000f575f5ffd5b50600436106100a7575f3560e01c8063715018a61161006f578063715018a61461016357806379ba50971461016d5780638da5cb5b14610177578063c8de8ee914610195578063e30c3978146101b1578063f2fde38b146101cf576100a7565b80630c340a24146100ab5780630d4f9ddb146100c957806319f74e1f146100e757806323b5bd13146101175780635ed3540314610133575b5f5ffd5b6100b36101eb565b6040516100c09190610b4c565b60405180910390f35b6100d1610210565b6040516100de9190610b7d565b60405180910390f35b61010160048036038101906100fc9190610bf7565b610216565b60405161010e9190610c4f565b60405180910390f35b610131600480360381019061012c9190610d41565b610240565b005b61014d60048036038101906101489190610bf7565b6104c5565b60405161015a9190610b4c565b60405180910390f35b61016b610502565b005b610175610515565b005b61017f6105a3565b60405161018c9190610b4c565b60405180910390f35b6101af60048036038101906101aa9190610e1e565b6105ca565b005b6101b961086c565b6040516101c69190610b4c565b60405180910390f35b6101e960048036038101906101e49190610e49565b610894565b005b60065f9054906101000a900473ffffffffffffffffffffffffffffffffffffffff1681565b60075481565b6004602052815f5260405f20602052805f5260405f205f915091509054906101000a900460ff1681565b610248610940565b5f60055f835f015173ffffffffffffffffffffffffffffffffffffffff1673ffffffffffffffffffffffffffffffffffffffff1681526020019081526020015f205f836020015181526020019081526020015f205f9054906101000a900473ffffffffffffffffffffffffffffffffffffffff1690505f73ffffffffffffffffffffffffffffffffffffffff168173ffffffffffffffffffffffffffffffffffffffff16148061032457503373ffffffffffffffffffffffffffffffffffffffff168173ffffffffffffffffffffffffffffffffffffffff1614155b1561035b576040517f6fa109d800000000000000000000000000000000000000000000000000000000815260040160405180910390fd5b5f60045f845f015173ffffffffffffffffffffffffffffffffffffffff1673ffffffffffffffffffffffffffffffffffffffff1681526020019081526020015f205f846020015181526020019081526020015f205f6101000a81548160ff0219169083151502179055505f600384815481106103da576103d9610e74565b5b905f5260205f20906004020190506001816003015f6101000a81548160ff021916908315150217905550825f015173ffffffffffffffffffffffffffffffffffffffff166342842e0e303386602001516040518463ffffffff1660e01b815260040161044893929190610ea1565b5f604051808303815f87803b15801561045f575f5ffd5b505af1158015610471573d5f5f3e3d5ffd5b505050507f1d124a46803b25317340e4903dfd76c6a0ab4e66026453c0913cf14620a208e6835f01518460200151336040516104af93929190610ed6565b60405180910390a150506104c1610984565b5050565b6005602052815f5260405f20602052805f5260405f205f915091509054906101000a900473ffffffffffffffffffffffffffffffffffffffff1681565b61050a61098e565b6105135f610a15565b565b5f61051e610a45565b90508073ffffffffffffffffffffffffffffffffffffffff1661053f61086c565b73ffffffffffffffffffffffffffffffffffffffff161461059757806040517f118cdaa700000000000000000000000000000000000000000000000000000000815260040161058e9190610b4c565b60405180910390fd5b6105a081610a15565b50565b5f5f5f9054906101000a900473ffffffffffffffffffffffffffffffffffffffff16905090565b60065f9054906101000a900473ffffffffffffffffffffffffffffffffffffffff1673ffffffffffffffffffffffffffffffffffffffff163373ffffffffffffffffffffffffffffffffffffffff1614610650576040517f41730ccd00000000000000000000000000000000000000000000000000000000815260040160405180910390fd5b805f015173ffffffffffffffffffffffffffffffffffffffff166342842e0e333084602001516040518463ffffffff1660e01b815260040161069493929190610ea1565b5f604051808303815f87803b1580156106ab575f5ffd5b505af11580156106bd573d5f5f3e3d5ffd5b5050505060036040518060800160405280835f015173ffffffffffffffffffffffffffffffffffffffff16815260200183602001518152602001836040015181526020015f1515815250908060018154018082558091505060019003905f5260205f2090600402015f909190919091505f820151815f015f6101000a81548173ffffffffffffffffffffffffffffffffffffffff021916908373ffffffffffffffffffffffffffffffffffffffff16021790555060208201518160010155604082015181600201556060820151816003015f6101000a81548160ff0219169083151502179055505050600160075f8282546107b89190610f38565b92505081905550600160045f835f015173ffffffffffffffffffffffffffffffffffffffff1673ffffffffffffffffffffffffffffffffffffffff1681526020019081526020015f205f836020015181526020019081526020015f205f6101000a81548160ff0219169083151502179055507e046b9e39d2f78c5e48b82f2b6a18b0c5840db3a910298bfbcce219313190dc815f01518260200151604051610861929190610f6b565b60405180910390a150565b5f60015f9054906101000a900473ffffffffffffffffffffffffffffffffffffffff16905090565b61089c61098e565b8060015f6101000a81548173ffffffffffffffffffffffffffffffffffffffff021916908373ffffffffffffffffffffffffffffffffffffffff1602179055508073ffffffffffffffffffffffffffffffffffffffff166108fb6105a3565b73ffffffffffffffffffffffffffffffffffffffff167f38d16b8cac22d99fc7c124b9cd0de2d3fa1faef420bfe791d8c362d765e2270060405160405180910390a350565b600280540361097b576040517f3ee5aeb500000000000000000000000000000000000000000000000000000000815260040160405180910390fd5b60028081905550565b6001600281905550565b610996610a45565b73ffffffffffffffffffffffffffffffffffffffff166109b46105a3565b73ffffffffffffffffffffffffffffffffffffffff1614610a13576109d7610a45565b6040517f118cdaa7000000000000000000000000000000000000000000000000000000008152600401610a0a9190610b4c565b60405180910390fd5b565b60015f6101000a81549073ffffffffffffffffffffffffffffffffffffffff0219169055610a4281610a4c565b50565b5f33905090565b5f5f5f9054906101000a900473ffffffffffffffffffffffffffffffffffffffff169050815f5f6101000a81548173ffffffffffffffffffffffffffffffffffffffff021916908373ffffffffffffffffffffffffffffffffffffffff1602179055508173ffffffffffffffffffffffffffffffffffffffff168173ffffffffffffffffffffffffffffffffffffffff167f8be0079c531659141344cd1fd0a4f28419497f9722a3daafe3b4186f6b6457e060405160405180910390a35050565b5f73ffffffffffffffffffffffffffffffffffffffff82169050919050565b5f610b3682610b0d565b9050919050565b610b4681610b2c565b82525050565b5f602082019050610b5f5f830184610b3d565b92915050565b5f819050919050565b610b7781610b65565b82525050565b5f602082019050610b905f830184610b6e565b92915050565b5f604051905090565b5f5ffd5b610bac81610b2c565b8114610bb6575f5ffd5b50565b5f81359050610bc781610ba3565b92915050565b610bd681610b65565b8114610be0575f5ffd5b50565b5f81359050610bf181610bcd565b92915050565b5f5f60408385031215610c0d57610c0c610b9f565b5b5f610c1a85828601610bb9565b9250506020610c2b85828601610be3565b9150509250929050565b5f8115159050919050565b610c4981610c35565b82525050565b5f602082019050610c625f830184610c40565b92915050565b5f5ffd5b5f601f19601f8301169050919050565b7f4e487b71000000000000000000000000000000000000000000000000000000005f52604160045260245ffd5b610cb282610c6c565b810181811067ffffffffffffffff82111715610cd157610cd0610c7c565b5b80604052505050565b5f610ce3610b96565b9050610cef8282610ca9565b919050565b5f60408284031215610d0957610d08610c68565b5b610d136040610cda565b90505f610d2284828501610bb9565b5f830152506020610d3584828501610be3565b60208301525092915050565b5f5f60608385031215610d5757610d56610b9f565b5b5f610d6485828601610be3565b9250506020610d7585828601610cf4565b9150509250929050565b610d8881610c35565b8114610d92575f5ffd5b50565b5f81359050610da381610d7f565b92915050565b5f60808284031215610dbe57610dbd610c68565b5b610dc86080610cda565b90505f610dd784828501610bb9565b5f830152506020610dea84828501610be3565b6020830152506040610dfe84828501610be3565b6040830152506060610e1284828501610d95565b60608301525092915050565b5f60808284031215610e3357610e32610b9f565b5b5f610e4084828501610da9565b91505092915050565b5f60208284031215610e5e57610e5d610b9f565b5b5f610e6b84828501610bb9565b91505092915050565b7f4e487b71000000000000000000000000000000000000000000000000000000005f52603260045260245ffd5b5f606082019050610eb45f830186610b3d565b610ec16020830185610b3d565b610ece6040830184610b6e565b949350505050565b5f606082019050610ee95f830186610b3d565b610ef66020830185610b6e565b610f036040830184610b3d565b949350505050565b7f4e487b71000000000000000000000000000000000000000000000000000000005f52601160045260245ffd5b5f610f4282610b65565b9150610f4d83610b65565b9250828201905080821115610f6557610f64610f0b565b5b92915050565b5f604082019050610f7e5f830185610b3d565b610f8b6020830184610b6e565b939250505056fea2646970667358221220734784edca94636ca32556de2fa559fc0e2a8f5fafa1b3557602dd5f6b58018364736f6c634300081e0033",
			"opcodes": "PUSH1 0x80 PUSH1 0x40 MSTORE CALLVALUE DUP1 ISZERO PUSH2 0xF JUMPI PUSH0 PUSH0 REVERT JUMPDEST POP CALLER PUSH0 PUSH20 0xFFFFFFFFFFFFFFFFFFFFFFFFFFFFFFFFFFFFFFFF AND DUP2 PUSH20 0xFFFFFFFFFFFFFFFFFFFFFFFFFFFFFFFFFFFFFFFF AND SUB PUSH2 0x81 JUMPI PUSH0 PUSH1 0x40 MLOAD PUSH32 0x1E4FBDF700000000000000000000000000000000000000000000000000000000 DUP2 MSTORE PUSH1 0x4 ADD PUSH2 0x78 SWAP2 SWAP1 PUSH2 0x1DB JUMP JUMPDEST PUSH1 0x40 MLOAD DUP1 SWAP2 SUB SWAP1 REVERT JUMPDEST PUSH2 0x90 DUP2 PUSH2 0xA5 PUSH1 0x20 SHL PUSH1 0x20 SHR JUMP JUMPDEST POP PUSH1 0x1 PUSH1 0x2 DUP2 SWAP1 SSTORE POP PUSH0 PUSH1 0x7 DUP2 SWAP1 SSTORE POP PUSH2 0x1F4 JUMP JUMPDEST PUSH1 0x1 PUSH0 PUSH2 0x100 EXP DUP2 SLOAD SWAP1 PUSH20 0xFFFFFFFFFFFFFFFFFFFFFFFFFFFFFFFFFFFFFFFF MUL NOT AND SWAP1 SSTORE PUSH2 0xD8 DUP2 PUSH2 0xDB PUSH1 0x20 SHL PUSH1 0x20 SHR JUMP JUMPDEST POP JUMP JUMPDEST PUSH0 PUSH0 PUSH0 SWAP1 SLOAD SWAP1 PUSH2 0x100 EXP SWAP1 DIV PUSH20 0xFFFFFFFFFFFFFFFFFFFFFFFFFFFFFFFFFFFFFFFF AND SWAP1 POP DUP2 PUSH0 PUSH0 PUSH2 0x100 EXP DUP2 SLOAD DUP2 PUSH20 0xFFFFFFFFFFFFFFFFFFFFFFFFFFFFFFFFFFFFFFFF MUL NOT AND SWAP1 DUP4 PUSH20 0xFFFFFFFFFFFFFFFFFFFFFFFFFFFFFFFFFFFFFFFF AND MUL OR SWAP1 SSTORE POP DUP2 PUSH20 0xFFFFFFFFFFFFFFFFFFFFFFFFFFFFFFFFFFFFFFFF AND DUP2 PUSH20 0xFFFFFFFFFFFFFFFFFFFFFFFFFFFFFFFFFFFFFFFF AND PUSH32 0x8BE0079C531659141344CD1FD0A4F28419497F9722A3DAAFE3B4186F6B6457E0 PUSH1 0x40 MLOAD PUSH1 0x40 MLOAD DUP1 SWAP2 SUB SWAP1 LOG3 POP POP JUMP JUMPDEST PUSH0 PUSH20 0xFFFFFFFFFFFFFFFFFFFFFFFFFFFFFFFFFFFFFFFF DUP3 AND SWAP1 POP SWAP2 SWAP1 POP JUMP JUMPDEST PUSH0 PUSH2 0x1C5 DUP3 PUSH2 0x19C JUMP JUMPDEST SWAP1 POP SWAP2 SWAP1 POP JUMP JUMPDEST PUSH2 0x1D5 DUP2 PUSH2 0x1BB JUMP JUMPDEST DUP3 MSTORE POP POP JUMP JUMPDEST PUSH0 PUSH1 0x20 DUP3 ADD SWAP1 POP PUSH2 0x1EE PUSH0 DUP4 ADD DUP5 PUSH2 0x1CC JUMP JUMPDEST SWAP3 SWAP2 POP POP JUMP JUMPDEST PUSH2 0xFC8 DUP1 PUSH2 0x201 PUSH0 CODECOPY PUSH0 RETURN INVALID PUSH1 0x80 PUSH1 0x40 MSTORE CALLVALUE DUP1 ISZERO PUSH2 0xF JUMPI PUSH0 PUSH0 REVERT JUMPDEST POP PUSH1 0x4 CALLDATASIZE LT PUSH2 0xA7 JUMPI PUSH0 CALLDATALOAD PUSH1 0xE0 SHR DUP1 PUSH4 0x715018A6 GT PUSH2 0x6F JUMPI DUP1 PUSH4 0x715018A6 EQ PUSH2 0x163 JUMPI DUP1 PUSH4 0x79BA5097 EQ PUSH2 0x16D JUMPI DUP1 PUSH4 0x8DA5CB5B EQ PUSH2 0x177 JUMPI DUP1 PUSH4 0xC8DE8EE9 EQ PUSH2 0x195 JUMPI DUP1 PUSH4 0xE30C3978 EQ PUSH2 0x1B1 JUMPI DUP1 PUSH4 0xF2FDE38B EQ PUSH2 0x1CF JUMPI PUSH2 0xA7 JUMP JUMPDEST DUP1 PUSH4 0xC340A24 EQ PUSH2 0xAB JUMPI DUP1 PUSH4 0xD4F9DDB EQ PUSH2 0xC9 JUMPI DUP1 PUSH4 0x19F74E1F EQ PUSH2 0xE7 JUMPI DUP1 PUSH4 0x23B5BD13 EQ PUSH2 0x117 JUMPI DUP1 PUSH4 0x5ED35403 EQ PUSH2 0x133 JUMPI JUMPDEST PUSH0 PUSH0 REVERT JUMPDEST PUSH2 0xB3 PUSH2 0x1EB JUMP JUMPDEST PUSH1 0x40 MLOAD PUSH2 0xC0 SWAP2 SWAP1 PUSH2 0xB4C JUMP JUMPDEST PUSH1 0x40 MLOAD DUP1 SWAP2 SUB SWAP1 RETURN JUMPDEST PUSH2 0xD1 PUSH2 0x210 JUMP JUMPDEST PUSH1 0x40 MLOAD PUSH2 0xDE SWAP2 SWAP1 PUSH2 0xB7D JUMP JUMPDEST PUSH1 0x40 MLOAD DUP1 SWAP2 SUB SWAP1 RETURN JUMPDEST PUSH2 0x101 PUSH1 0x4 DUP1 CALLDATASIZE SUB DUP2 ADD SWAP1 PUSH2 0xFC SWAP2 SWAP1 PUSH2 0xBF7 JUMP JUMPDEST PUSH2 0x216 JUMP JUMPDEST PUSH1 0x40 MLOAD PUSH2 0x10E SWAP2 SWAP1 PUSH2 0xC4F JUMP JUMPDEST PUSH1 0x40 MLOAD DUP1 SWAP2 SUB SWAP1 RETURN JUMPDEST PUSH2 0x131 PUSH1 0x4 DUP1 CALLDATASIZE SUB DUP2 ADD SWAP1 PUSH2 0x12C SWAP2 SWAP1 PUSH2 0xD41 JUMP JUMPDEST PUSH2 0x240 JUMP JUMPDEST STOP JUMPDEST PUSH2 0x14D PUSH1 0x4 DUP1 CALLDATASIZE SUB DUP2 ADD SWAP1 PUSH2 0x148 SWAP2 SWAP1 PUSH2 0xBF7 JUMP JUMPDEST PUSH2 0x4C5 JUMP JUMPDEST PUSH1 0x40 MLOAD PUSH2 0x15A SWAP2 SWAP1 PUSH2 0xB4C JUMP JUMPDEST PUSH1 0x40 MLOAD DUP1 SWAP2 SUB SWAP1 RETURN JUMPDEST PUSH2 0x16B PUSH2 0x502 JUMP JUMPDEST STOP JUMPDEST PUSH2 0x175 PUSH2 0x515 JUMP JUMPDEST STOP JUMPDEST PUSH2 0x17F PUSH2 0x5A3 JUMP JUMPDEST PUSH1 0x40 MLOAD PUSH2 0x18C SWAP2 SWAP1 PUSH2 0xB4C JUMP JUMPDEST PUSH1 0x40 MLOAD DUP1 SWAP2 SUB SWAP1 RETURN JUMPDEST PUSH2 0x1AF PUSH1 0x4 DUP1 CALLDATASIZE SUB DUP2 ADD SWAP1 PUSH2 0x1AA SWAP2 SWAP1 PUSH2 0xE1E JUMP JUMPDEST PUSH2 0x5CA JUMP JUMPDEST STOP JUMPDEST PUSH2 0x1B9 PUSH2 0x86C JUMP JUMPDEST PUSH1 0x40 MLOAD PUSH2 0x1C6 SWAP2 SWAP1 PUSH2 0xB4C JUMP JUMPDEST PUSH1 0x40 MLOAD DUP1 SWAP2 SUB SWAP1 RETURN JUMPDEST PUSH2 0x1E9 PUSH1 0x4 DUP1 CALLDATASIZE SUB DUP2 ADD SWAP1 PUSH2 0x1E4 SWAP2 SWAP1 PUSH2 0xE49 JUMP JUMPDEST PUSH2 0x894 JUMP JUMPDEST STOP JUMPDEST PUSH1 0x6 PUSH0 SWAP1 SLOAD SWAP1 PUSH2 0x100 EXP SWAP1 DIV PUSH20 0xFFFFFFFFFFFFFFFFFFFFFFFFFFFFFFFFFFFFFFFF AND DUP2 JUMP JUMPDEST PUSH1 0x7 SLOAD DUP2 JUMP JUMPDEST PUSH1 0x4 PUSH1 0x20 MSTORE DUP2 PUSH0 MSTORE PUSH1 0x40 PUSH0 KECCAK256 PUSH1 0x20 MSTORE DUP1 PUSH0 MSTORE PUSH1 0x40 PUSH0 KECCAK256 PUSH0 SWAP2 POP SWAP2 POP SWAP1 SLOAD SWAP1 PUSH2 0x100 EXP SWAP1 DIV PUSH1 0xFF AND DUP2 JUMP JUMPDEST PUSH2 0x248 PUSH2 0x940 JUMP JUMPDEST PUSH0 PUSH1 0x5 PUSH0 DUP4 PUSH0 ADD MLOAD PUSH20 0xFFFFFFFFFFFFFFFFFFFFFFFFFFFFFFFFFFFFFFFF AND PUSH20 0xFFFFFFFFFFFFFFFFFFFFFFFFFFFFFFFFFFFFFFFF AND DUP2 MSTORE PUSH1 0x20 ADD SWAP1 DUP2 MSTORE PUSH1 0x20 ADD PUSH0 KECCAK256 PUSH0 DUP4 PUSH1 0x20 ADD MLOAD DUP2 MSTORE PUSH1 0x20 ADD SWAP1 DUP2 MSTORE PUSH1 0x20 ADD PUSH0 KECCAK256 PUSH0 SWAP1 SLOAD SWAP1 PUSH2 0x100 EXP SWAP1 DIV PUSH20 0xFFFFFFFFFFFFFFFFFFFFFFFFFFFFFFFFFFFFFFFF AND SWAP1 POP PUSH0 PUSH20 0xFFFFFFFFFFFFFFFFFFFFFFFFFFFFFFFFFFFFFFFF AND DUP2 PUSH20 0xFFFFFFFFFFFFFFFFFFFFFFFFFFFFFFFFFFFFFFFF AND EQ DUP1 PUSH2 0x324 JUMPI POP CALLER PUSH20 0xFFFFFFFFFFFFFFFFFFFFFFFFFFFFFFFFFFFFFFFF AND DUP2 PUSH20 0xFFFFFFFFFFFFFFFFFFFFFFFFFFFFFFFFFFFFFFFF AND EQ ISZERO JUMPDEST ISZERO PUSH2 0x35B JUMPI PUSH1 0x40 MLOAD PUSH32 0x6FA109D800000000000000000000000000000000000000000000000000000000 DUP2 MSTORE PUSH1 0x4 ADD PUSH1 0x40 MLOAD DUP1 SWAP2 SUB SWAP1 REVERT JUMPDEST PUSH0 PUSH1 0x4 PUSH0 DUP5 PUSH0 ADD MLOAD PUSH20 0xFFFFFFFFFFFFFFFFFFFFFFFFFFFFFFFFFFFFFFFF AND PUSH20 0xFFFFFFFFFFFFFFFFFFFFFFFFFFFFFFFFFFFFFFFF AND DUP2 MSTORE PUSH1 0x20 ADD SWAP1 DUP2 MSTORE PUSH1 0x20 ADD PUSH0 KECCAK256 PUSH0 DUP5 PUSH1 0x20 ADD MLOAD DUP2 MSTORE PUSH1 0x20 ADD SWAP1 DUP2 MSTORE PUSH1 0x20 ADD PUSH0 KECCAK256 PUSH0 PUSH2 0x100 EXP DUP2 SLOAD DUP2 PUSH1 0xFF MUL NOT AND SWAP1 DUP4 ISZERO ISZERO MUL OR SWAP1 SSTORE POP PUSH0 PUSH1 0x3 DUP5 DUP2 SLOAD DUP2 LT PUSH2 0x3DA JUMPI PUSH2 0x3D9 PUSH2 0xE74 JUMP JUMPDEST JUMPDEST SWAP1 PUSH0 MSTORE PUSH1 0x20 PUSH0 KECCAK256 SWAP1 PUSH1 0x4 MUL ADD SWAP1 POP PUSH1 0x1 DUP2 PUSH1 0x3 ADD PUSH0 PUSH2 0x100 EXP DUP2 SLOAD DUP2 PUSH1 0xFF MUL NOT AND SWAP1 DUP4 ISZERO ISZERO MUL OR SWAP1 SSTORE POP DUP3 PUSH0 ADD MLOAD PUSH20 0xFFFFFFFFFFFFFFFFFFFFFFFFFFFFFFFFFFFFFFFF AND PUSH4 0x42842E0E ADDRESS CALLER DUP7 PUSH1 0x20 ADD MLOAD PUSH1 0x40 MLOAD DUP5 PUSH4 0xFFFFFFFF AND PUSH1 0xE0 SHL DUP2 MSTORE PUSH1 0x4 ADD PUSH2 0x448 SWAP4 SWAP3 SWAP2 SWAP1 PUSH2 0xEA1 JUMP JUMPDEST PUSH0 PUSH1 0x40 MLOAD DUP1 DUP4 SUB DUP2 PUSH0 DUP8 DUP1 EXTCODESIZE ISZERO DUP1 ISZERO PUSH2 0x45F JUMPI PUSH0 PUSH0 REVERT JUMPDEST POP GAS CALL ISZERO DUP1 ISZERO PUSH2 0x471 JUMPI RETURNDATASIZE PUSH0 PUSH0 RETURNDATACOPY RETURNDATASIZE PUSH0 REVERT JUMPDEST POP POP POP POP PUSH32 0x1D124A46803B25317340E4903DFD76C6A0AB4E66026453C0913CF14620A208E6 DUP4 PUSH0 ADD MLOAD DUP5 PUSH1 0x20 ADD MLOAD CALLER PUSH1 0x40 MLOAD PUSH2 0x4AF SWAP4 SWAP3 SWAP2 SWAP1 PUSH2 0xED6 JUMP JUMPDEST PUSH1 0x40 MLOAD DUP1 SWAP2 SUB SWAP1 LOG1 POP POP PUSH2 0x4C1 PUSH2 0x984 JUMP JUMPDEST POP POP JUMP JUMPDEST PUSH1 0x5 PUSH1 0x20 MSTORE DUP2 PUSH0 MSTORE PUSH1 0x40 PUSH0 KECCAK256 PUSH1 0x20 MSTORE DUP1 PUSH0 MSTORE PUSH1 0x40 PUSH0 KECCAK256 PUSH0 SWAP2 POP SWAP2 POP SWAP1 SLOAD SWAP1 PUSH2 0x100 EXP SWAP1 DIV PUSH20 0xFFFFFFFFFFFFFFFFFFFFFFFFFFFFFFFFFFFFFFFF AND DUP2 JUMP JUMPDEST PUSH2 0x50A PUSH2 0x98E JUMP JUMPDEST PUSH2 0x513 PUSH0 PUSH2 0xA15 JUMP JUMPDEST JUMP JUMPDEST PUSH0 PUSH2 0x51E PUSH2 0xA45 JUMP JUMPDEST SWAP1 POP DUP1 PUSH20 0xFFFFFFFFFFFFFFFFFFFFFFFFFFFFFFFFFFFFFFFF AND PUSH2 0x53F PUSH2 0x86C JUMP JUMPDEST PUSH20 0xFFFFFFFFFFFFFFFFFFFFFFFFFFFFFFFFFFFFFFFF AND EQ PUSH2 0x597 JUMPI DUP1 PUSH1 0x40 MLOAD PUSH32 0x118CDAA700000000000000000000000000000000000000000000000000000000 DUP2 MSTORE PUSH1 0x4 ADD PUSH2 0x58E SWAP2 SWAP1 PUSH2 0xB4C JUMP JUMPDEST PUSH1 0x40 MLOAD DUP1 SWAP2 SUB SWAP1 REVERT JUMPDEST PUSH2 0x5A0 DUP2 PUSH2 0xA15 JUMP JUMPDEST POP JUMP JUMPDEST PUSH0 PUSH0 PUSH0 SWAP1 SLOAD SWAP1 PUSH2 0x100 EXP SWAP1 DIV PUSH20 0xFFFFFFFFFFFFFFFFFFFFFFFFFFFFFFFFFFFFFFFF AND SWAP1 POP SWAP1 JUMP JUMPDEST PUSH1 0x6 PUSH0 SWAP1 SLOAD SWAP1 PUSH2 0x100 EXP SWAP1 DIV PUSH20 0xFFFFFFFFFFFFFFFFFFFFFFFFFFFFFFFFFFFFFFFF AND PUSH20 0xFFFFFFFFFFFFFFFFFFFFFFFFFFFFFFFFFFFFFFFF AND CALLER PUSH20 0xFFFFFFFFFFFFFFFFFFFFFFFFFFFFFFFFFFFFFFFF AND EQ PUSH2 0x650 JUMPI PUSH1 0x40 MLOAD PUSH32 0x41730CCD00000000000000000000000000000000000000000000000000000000 DUP2 MSTORE PUSH1 0x4 ADD PUSH1 0x40 MLOAD DUP1 SWAP2 SUB SWAP1 REVERT JUMPDEST DUP1 PUSH0 ADD MLOAD PUSH20 0xFFFFFFFFFFFFFFFFFFFFFFFFFFFFFFFFFFFFFFFF AND PUSH4 0x42842E0E CALLER ADDRESS DUP5 PUSH1 0x20 ADD MLOAD PUSH1 0x40 MLOAD DUP5 PUSH4 0xFFFFFFFF AND PUSH1 0xE0 SHL DUP2 MSTORE PUSH1 0x4 ADD PUSH2 0x694 SWAP4 SWAP3 SWAP2 SWAP1 PUSH2 0xEA1 JUMP JUMPDEST PUSH0 PUSH1 0x40 MLOAD DUP1 DUP4 SUB DUP2 PUSH0 DUP8 DUP1 EXTCODESIZE ISZERO DUP1 ISZERO PUSH2 0x6AB JUMPI PUSH0 PUSH0 REVERT JUMPDEST POP GAS CALL ISZERO DUP1 ISZERO PUSH2 0x6BD JUMPI RETURNDATASIZE PUSH0 PUSH0 RETURNDATACOPY RETURNDATASIZE PUSH0 REVERT JUMPDEST POP POP POP POP PUSH1 0x3 PUSH1 0x40 MLOAD DUP1 PUSH1 0x80 ADD PUSH1 0x40 MSTORE DUP1 DUP4 PUSH0 ADD MLOAD PUSH20 0xFFFFFFFFFFFFFFFFFFFFFFFFFFFFFFFFFFFFFFFF AND DUP2 MSTORE PUSH1 0x20 ADD DUP4 PUSH1 0x20 ADD MLOAD DUP2 MSTORE PUSH1 0x20 ADD DUP4 PUSH1 0x40 ADD MLOAD DUP2 MSTORE PUSH1 0x20 ADD PUSH0 ISZERO ISZERO DUP2 MSTORE POP SWAP1 DUP1 PUSH1 0x1 DUP2 SLOAD ADD DUP1 DUP3 SSTORE DUP1 SWAP2 POP POP PUSH1 0x1 SWAP1 SUB SWAP1 PUSH0 MSTORE PUSH1 0x20 PUSH0 KECCAK256 SWAP1 PUSH1 0x4 MUL ADD PUSH0 SWAP1 SWAP2 SWAP1 SWAP2 SWAP1 SWAP2 POP PUSH0 DUP3 ADD MLOAD DUP2 PUSH0 ADD PUSH0 PUSH2 0x100 EXP DUP2 SLOAD DUP2 PUSH20 0xFFFFFFFFFFFFFFFFFFFFFFFFFFFFFFFFFFFFFFFF MUL NOT AND SWAP1 DUP4 PUSH20 0xFFFFFFFFFFFFFFFFFFFFFFFFFFFFFFFFFFFFFFFF AND MUL OR SWAP1 SSTORE POP PUSH1 0x20 DUP3 ADD MLOAD DUP2 PUSH1 0x1 ADD SSTORE PUSH1 0x40 DUP3 ADD MLOAD DUP2 PUSH1 0x2 ADD SSTORE PUSH1 0x60 DUP3 ADD MLOAD DUP2 PUSH1 0x3 ADD PUSH0 PUSH2 0x100 EXP DUP2 SLOAD DUP2 PUSH1 0xFF MUL NOT AND SWAP1 DUP4 ISZERO ISZERO MUL OR SWAP1 SSTORE POP POP POP PUSH1 0x1 PUSH1 0x7 PUSH0 DUP3 DUP3 SLOAD PUSH2 0x7B8 SWAP2 SWAP1 PUSH2 0xF38 JUMP JUMPDEST SWAP3 POP POP DUP2 SWAP1 SSTORE POP PUSH1 0x1 PUSH1 0x4 PUSH0 DUP4 PUSH0 ADD MLOAD PUSH20 0xFFFFFFFFFFFFFFFFFFFFFFFFFFFFFFFFFFFFFFFF AND PUSH20 0xFFFFFFFFFFFFFFFFFFFFFFFFFFFFFFFFFFFFFFFF AND DUP2 MSTORE PUSH1 0x20 ADD SWAP1 DUP2 MSTORE PUSH1 0x20 ADD PUSH0 KECCAK256 PUSH0 DUP4 PUSH1 0x20 ADD MLOAD DUP2 MSTORE PUSH1 0x20 ADD SWAP1 DUP2 MSTORE PUSH1 0x20 ADD PUSH0 KECCAK256 PUSH0 PUSH2 0x100 EXP DUP2 SLOAD DUP2 PUSH1 0xFF MUL NOT AND SWAP1 DUP4 ISZERO ISZERO MUL OR SWAP1 SSTORE POP PUSH31 0x46B9E39D2F78C5E48B82F2B6A18B0C5840DB3A910298BFBCCE219313190DC DUP2 PUSH0 ADD MLOAD DUP3 PUSH1 0x20 ADD MLOAD PUSH1 0x40 MLOAD PUSH2 0x861 SWAP3 SWAP2 SWAP1 PUSH2 0xF6B JUMP JUMPDEST PUSH1 0x40 MLOAD DUP1 SWAP2 SUB SWAP1 LOG1 POP JUMP JUMPDEST PUSH0 PUSH1 0x1 PUSH0 SWAP1 SLOAD SWAP1 PUSH2 0x100 EXP SWAP1 DIV PUSH20 0xFFFFFFFFFFFFFFFFFFFFFFFFFFFFFFFFFFFFFFFF AND SWAP1 POP SWAP1 JUMP JUMPDEST PUSH2 0x89C PUSH2 0x98E JUMP JUMPDEST DUP1 PUSH1 0x1 PUSH0 PUSH2 0x100 EXP DUP2 SLOAD DUP2 PUSH20 0xFFFFFFFFFFFFFFFFFFFFFFFFFFFFFFFFFFFFFFFF MUL NOT AND SWAP1 DUP4 PUSH20 0xFFFFFFFFFFFFFFFFFFFFFFFFFFFFFFFFFFFFFFFF AND MUL OR SWAP1 SSTORE POP DUP1 PUSH20 0xFFFFFFFFFFFFFFFFFFFFFFFFFFFFFFFFFFFFFFFF AND PUSH2 0x8FB PUSH2 0x5A3 JUMP JUMPDEST PUSH20 0xFFFFFFFFFFFFFFFFFFFFFFFFFFFFFFFFFFFFFFFF AND PUSH32 0x38D16B8CAC22D99FC7C124B9CD0DE2D3FA1FAEF420BFE791D8C362D765E22700 PUSH1 0x40 MLOAD PUSH1 0x40 MLOAD DUP1 SWAP2 SUB SWAP1 LOG3 POP JUMP JUMPDEST PUSH1 0x2 DUP1 SLOAD SUB PUSH2 0x97B JUMPI PUSH1 0x40 MLOAD PUSH32 0x3EE5AEB500000000000000000000000000000000000000000000000000000000 DUP2 MSTORE PUSH1 0x4 ADD PUSH1 0x40 MLOAD DUP1 SWAP2 SUB SWAP1 REVERT JUMPDEST PUSH1 0x2 DUP1 DUP2 SWAP1 SSTORE POP JUMP JUMPDEST PUSH1 0x1 PUSH1 0x2 DUP2 SWAP1 SSTORE POP JUMP JUMPDEST PUSH2 0x996 PUSH2 0xA45 JUMP JUMPDEST PUSH20 0xFFFFFFFFFFFFFFFFFFFFFFFFFFFFFFFFFFFFFFFF AND PUSH2 0x9B4 PUSH2 0x5A3 JUMP JUMPDEST PUSH20 0xFFFFFFFFFFFFFFFFFFFFFFFFFFFFFFFFFFFFFFFF AND EQ PUSH2 0xA13 JUMPI PUSH2 0x9D7 PUSH2 0xA45 JUMP JUMPDEST PUSH1 0x40 MLOAD PUSH32 0x118CDAA700000000000000000000000000000000000000000000000000000000 DUP2 MSTORE PUSH1 0x4 ADD PUSH2 0xA0A SWAP2 SWAP1 PUSH2 0xB4C JUMP JUMPDEST PUSH1 0x40 MLOAD DUP1 SWAP2 SUB SWAP1 REVERT JUMPDEST JUMP JUMPDEST PUSH1 0x1 PUSH0 PUSH2 0x100 EXP DUP2 SLOAD SWAP1 PUSH20 0xFFFFFFFFFFFFFFFFFFFFFFFFFFFFFFFFFFFFFFFF MUL NOT AND SWAP1 SSTORE PUSH2 0xA42 DUP2 PUSH2 0xA4C JUMP JUMPDEST POP JUMP JUMPDEST PUSH0 CALLER SWAP1 POP SWAP1 JUMP JUMPDEST PUSH0 PUSH0 PUSH0 SWAP1 SLOAD SWAP1 PUSH2 0x100 EXP SWAP1 DIV PUSH20 0xFFFFFFFFFFFFFFFFFFFFFFFFFFFFFFFFFFFFFFFF AND SWAP1 POP DUP2 PUSH0 PUSH0 PUSH2 0x100 EXP DUP2 SLOAD DUP2 PUSH20 0xFFFFFFFFFFFFFFFFFFFFFFFFFFFFFFFFFFFFFFFF MUL NOT AND SWAP1 DUP4 PUSH20 0xFFFFFFFFFFFFFFFFFFFFFFFFFFFFFFFFFFFFFFFF AND MUL OR SWAP1 SSTORE POP DUP2 PUSH20 0xFFFFFFFFFFFFFFFFFFFFFFFFFFFFFFFFFFFFFFFF AND DUP2 PUSH20 0xFFFFFFFFFFFFFFFFFFFFFFFFFFFFFFFFFFFFFFFF AND PUSH32 0x8BE0079C531659141344CD1FD0A4F28419497F9722A3DAAFE3B4186F6B6457E0 PUSH1 0x40 MLOAD PUSH1 0x40 MLOAD DUP1 SWAP2 SUB SWAP1 LOG3 POP POP JUMP JUMPDEST PUSH0 PUSH20 0xFFFFFFFFFFFFFFFFFFFFFFFFFFFFFFFFFFFFFFFF DUP3 AND SWAP1 POP SWAP2 SWAP1 POP JUMP JUMPDEST PUSH0 PUSH2 0xB36 DUP3 PUSH2 0xB0D JUMP JUMPDEST SWAP1 POP SWAP2 SWAP1 POP JUMP JUMPDEST PUSH2 0xB46 DUP2 PUSH2 0xB2C JUMP JUMPDEST DUP3 MSTORE POP POP JUMP JUMPDEST PUSH0 PUSH1 0x20 DUP3 ADD SWAP1 POP PUSH2 0xB5F PUSH0 DUP4 ADD DUP5 PUSH2 0xB3D JUMP JUMPDEST SWAP3 SWAP2 POP POP JUMP JUMPDEST PUSH0 DUP2 SWAP1 POP SWAP2 SWAP1 POP JUMP JUMPDEST PUSH2 0xB77 DUP2 PUSH2 0xB65 JUMP JUMPDEST DUP3 MSTORE POP POP JUMP JUMPDEST PUSH0 PUSH1 0x20 DUP3 ADD SWAP1 POP PUSH2 0xB90 PUSH0 DUP4 ADD DUP5 PUSH2 0xB6E JUMP JUMPDEST SWAP3 SWAP2 POP POP JUMP JUMPDEST PUSH0 PUSH1 0x40 MLOAD SWAP1 POP SWAP1 JUMP JUMPDEST PUSH0 PUSH0 REVERT JUMPDEST PUSH2 0xBAC DUP2 PUSH2 0xB2C JUMP JUMPDEST DUP2 EQ PUSH2 0xBB6 JUMPI PUSH0 PUSH0 REVERT JUMPDEST POP JUMP JUMPDEST PUSH0 DUP2 CALLDATALOAD SWAP1 POP PUSH2 0xBC7 DUP2 PUSH2 0xBA3 JUMP JUMPDEST SWAP3 SWAP2 POP POP JUMP JUMPDEST PUSH2 0xBD6 DUP2 PUSH2 0xB65 JUMP JUMPDEST DUP2 EQ PUSH2 0xBE0 JUMPI PUSH0 PUSH0 REVERT JUMPDEST POP JUMP JUMPDEST PUSH0 DUP2 CALLDATALOAD SWAP1 POP PUSH2 0xBF1 DUP2 PUSH2 0xBCD JUMP JUMPDEST SWAP3 SWAP2 POP POP JUMP JUMPDEST PUSH0 PUSH0 PUSH1 0x40 DUP4 DUP6 SUB SLT ISZERO PUSH2 0xC0D JUMPI PUSH2 0xC0C PUSH2 0xB9F JUMP JUMPDEST JUMPDEST PUSH0 PUSH2 0xC1A DUP6 DUP3 DUP7 ADD PUSH2 0xBB9 JUMP JUMPDEST SWAP3 POP POP PUSH1 0x20 PUSH2 0xC2B DUP6 DUP3 DUP7 ADD PUSH2 0xBE3 JUMP JUMPDEST SWAP2 POP POP SWAP3 POP SWAP3 SWAP1 POP JUMP JUMPDEST PUSH0 DUP2 ISZERO ISZERO SWAP1 POP SWAP2 SWAP1 POP JUMP JUMPDEST PUSH2 0xC49 DUP2 PUSH2 0xC35 JUMP JUMPDEST DUP3 MSTORE POP POP JUMP JUMPDEST PUSH0 PUSH1 0x20 DUP3 ADD SWAP1 POP PUSH2 0xC62 PUSH0 DUP4 ADD DUP5 PUSH2 0xC40 JUMP JUMPDEST SWAP3 SWAP2 POP POP JUMP JUMPDEST PUSH0 PUSH0 REVERT JUMPDEST PUSH0 PUSH1 0x1F NOT PUSH1 0x1F DUP4 ADD AND SWAP1 POP SWAP2 SWAP1 POP JUMP JUMPDEST PUSH32 0x4E487B7100000000000000000000000000000000000000000000000000000000 PUSH0 MSTORE PUSH1 0x41 PUSH1 0x4 MSTORE PUSH1 0x24 PUSH0 REVERT JUMPDEST PUSH2 0xCB2 DUP3 PUSH2 0xC6C JUMP JUMPDEST DUP2 ADD DUP2 DUP2 LT PUSH8 0xFFFFFFFFFFFFFFFF DUP3 GT OR ISZERO PUSH2 0xCD1 JUMPI PUSH2 0xCD0 PUSH2 0xC7C JUMP JUMPDEST JUMPDEST DUP1 PUSH1 0x40 MSTORE POP POP POP JUMP JUMPDEST PUSH0 PUSH2 0xCE3 PUSH2 0xB96 JUMP JUMPDEST SWAP1 POP PUSH2 0xCEF DUP3 DUP3 PUSH2 0xCA9 JUMP JUMPDEST SWAP2 SWAP1 POP JUMP JUMPDEST PUSH0 PUSH1 0x40 DUP3 DUP5 SUB SLT ISZERO PUSH2 0xD09 JUMPI PUSH2 0xD08 PUSH2 0xC68 JUMP JUMPDEST JUMPDEST PUSH2 0xD13 PUSH1 0x40 PUSH2 0xCDA JUMP JUMPDEST SWAP1 POP PUSH0 PUSH2 0xD22 DUP5 DUP3 DUP6 ADD PUSH2 0xBB9 JUMP JUMPDEST PUSH0 DUP4 ADD MSTORE POP PUSH1 0x20 PUSH2 0xD35 DUP5 DUP3 DUP6 ADD PUSH2 0xBE3 JUMP JUMPDEST PUSH1 0x20 DUP4 ADD MSTORE POP SWAP3 SWAP2 POP POP JUMP JUMPDEST PUSH0 PUSH0 PUSH1 0x60 DUP4 DUP6 SUB SLT ISZERO PUSH2 0xD57 JUMPI PUSH2 0xD56 PUSH2 0xB9F JUMP JUMPDEST JUMPDEST PUSH0 PUSH2 0xD64 DUP6 DUP3 DUP7 ADD PUSH2 0xBE3 JUMP JUMPDEST SWAP3 POP POP PUSH1 0x20 PUSH2 0xD75 DUP6 DUP3 DUP7 ADD PUSH2 0xCF4 JUMP JUMPDEST SWAP2 POP POP SWAP3 POP SWAP3 SWAP1 POP JUMP JUMPDEST PUSH2 0xD88 DUP2 PUSH2 0xC35 JUMP JUMPDEST DUP2 EQ PUSH2 0xD92 JUMPI PUSH0 PUSH0 REVERT JUMPDEST POP JUMP JUMPDEST PUSH0 DUP2 CALLDATALOAD SWAP1 POP PUSH2 0xDA3 DUP2 PUSH2 0xD7F JUMP JUMPDEST SWAP3 SWAP2 POP POP JUMP JUMPDEST PUSH0 PUSH1 0x80 DUP3 DUP5 SUB SLT ISZERO PUSH2 0xDBE JUMPI PUSH2 0xDBD PUSH2 0xC68 JUMP JUMPDEST JUMPDEST PUSH2 0xDC8 PUSH1 0x80 PUSH2 0xCDA JUMP JUMPDEST SWAP1 POP PUSH0 PUSH2 0xDD7 DUP5 DUP3 DUP6 ADD PUSH2 0xBB9 JUMP JUMPDEST PUSH0 DUP4 ADD MSTORE POP PUSH1 0x20 PUSH2 0xDEA DUP5 DUP3 DUP6 ADD PUSH2 0xBE3 JUMP JUMPDEST PUSH1 0x20 DUP4 ADD MSTORE POP PUSH1 0x40 PUSH2 0xDFE DUP5 DUP3 DUP6 ADD PUSH2 0xBE3 JUMP JUMPDEST PUSH1 0x40 DUP4 ADD MSTORE POP PUSH1 0x60 PUSH2 0xE12 DUP5 DUP3 DUP6 ADD PUSH2 0xD95 JUMP JUMPDEST PUSH1 0x60 DUP4 ADD MSTORE POP SWAP3 SWAP2 POP POP JUMP JUMPDEST PUSH0 PUSH1 0x80 DUP3 DUP5 SUB SLT ISZERO PUSH2 0xE33 JUMPI PUSH2 0xE32 PUSH2 0xB9F JUMP JUMPDEST JUMPDEST PUSH0 PUSH2 0xE40 DUP5 DUP3 DUP6 ADD PUSH2 0xDA9 JUMP JUMPDEST SWAP2 POP POP SWAP3 SWAP2 POP POP JUMP JUMPDEST PUSH0 PUSH1 0x20 DUP3 DUP5 SUB SLT ISZERO PUSH2 0xE5E JUMPI PUSH2 0xE5D PUSH2 0xB9F JUMP JUMPDEST JUMPDEST PUSH0 PUSH2 0xE6B DUP5 DUP3 DUP6 ADD PUSH2 0xBB9 JUMP JUMPDEST SWAP2 POP POP SWAP3 SWAP2 POP POP JUMP JUMPDEST PUSH32 0x4E487B7100000000000000000000000000000000000000000000000000000000 PUSH0 MSTORE PUSH1 0x32 PUSH1 0x4 MSTORE PUSH1 0x24 PUSH0 REVERT JUMPDEST PUSH0 PUSH1 0x60 DUP3 ADD SWAP1 POP PUSH2 0xEB4 PUSH0 DUP4 ADD DUP7 PUSH2 0xB3D JUMP JUMPDEST PUSH2 0xEC1 PUSH1 0x20 DUP4 ADD DUP6 PUSH2 0xB3D JUMP JUMPDEST PUSH2 0xECE PUSH1 0x40 DUP4 ADD DUP5 PUSH2 0xB6E JUMP JUMPDEST SWAP5 SWAP4 POP POP POP POP JUMP JUMPDEST PUSH0 PUSH1 0x60 DUP3 ADD SWAP1 POP PUSH2 0xEE9 PUSH0 DUP4 ADD DUP7 PUSH2 0xB3D JUMP JUMPDEST PUSH2 0xEF6 PUSH1 0x20 DUP4 ADD DUP6 PUSH2 0xB6E JUMP JUMPDEST PUSH2 0xF03 PUSH1 0x40 DUP4 ADD DUP5 PUSH2 0xB3D JUMP JUMPDEST SWAP5 SWAP4 POP POP POP POP JUMP JUMPDEST PUSH32 0x4E487B7100000000000000000000000000000000000000000000000000000000 PUSH0 MSTORE PUSH1 0x11 PUSH1 0x4 MSTORE PUSH1 0x24 PUSH0 REVERT JUMPDEST PUSH0 PUSH2 0xF42 DUP3 PUSH2 0xB65 JUMP JUMPDEST SWAP2 POP PUSH2 0xF4D DUP4 PUSH2 0xB65 JUMP JUMPDEST SWAP3 POP DUP3 DUP3 ADD SWAP1 POP DUP1 DUP3 GT ISZERO PUSH2 0xF65 JUMPI PUSH2 0xF64 PUSH2 0xF0B JUMP JUMPDEST JUMPDEST SWAP3 SWAP2 POP POP JUMP JUMPDEST PUSH0 PUSH1 0x40 DUP3 ADD SWAP1 POP PUSH2 0xF7E PUSH0 DUP4 ADD DUP6 PUSH2 0xB3D JUMP JUMPDEST PUSH2 0xF8B PUSH1 0x20 DUP4 ADD DUP5 PUSH2 0xB6E JUMP JUMPDEST SWAP4 SWAP3 POP POP POP JUMP INVALID LOG2 PUSH5 0x6970667358 0x22 SLT KECCAK256 PUSH20 0x4784EDCA94636CA32556DE2FA559FC0E2A8F5FAF LOG1 0xB3 SSTORE PUSH23 0x2DD5F6B58018364736F6C634300081E00330000000000 "
		},
		"gasEstimates": {
			"creation": {
				"codeDepositCost": "808000",
				"executionCost": "infinite",
				"totalCost": "infinite"
			},
			"external": {
				"acceptOwnership()": "54669",
				"depositeNFT((address,uint256,uint256,bool))": "infinite",
				"governor()": "2509",
				"isInPool(address,uint256)": "3115",
				"owner()": "2558",
				"pendingOwner()": "2603",
				"renounceOwnership()": "infinite",
				"totalNfts()": "2448",
				"transferOwnership(address)": "infinite",
				"userListOfPrizes(address,uint256)": "infinite",
				"withdrawNFT(uint256,(address,uint256))": "infinite"
			}
		},
		"methodIdentifiers": {
			"acceptOwnership()": "79ba5097",
			"depositeNFT((address,uint256,uint256,bool))": "c8de8ee9",
			"governor()": "0c340a24",
			"isInPool(address,uint256)": "19f74e1f",
			"owner()": "8da5cb5b",
			"pendingOwner()": "e30c3978",
			"renounceOwnership()": "715018a6",
			"totalNfts()": "0d4f9ddb",
			"transferOwnership(address)": "f2fde38b",
			"userListOfPrizes(address,uint256)": "5ed35403",
			"withdrawNFT(uint256,(address,uint256))": "23b5bd13"
		}
	},
	"abi": [
		{
			"inputs": [],
			"stateMutability": "nonpayable",
			"type": "constructor"
		},
		{
			"inputs": [],
			"name": "NoGovernor",
			"type": "error"
		},
		{
			"inputs": [],
			"name": "NotBelongToUser",
			"type": "error"
		},
		{
			"inputs": [
				{
					"internalType": "address",
					"name": "owner",
					"type": "address"
				}
			],
			"name": "OwnableInvalidOwner",
			"type": "error"
		},
		{
			"inputs": [
				{
					"internalType": "address",
					"name": "account",
					"type": "address"
				}
			],
			"name": "OwnableUnauthorizedAccount",
			"type": "error"
		},
		{
			"inputs": [],
			"name": "ReentrancyGuardReentrantCall",
			"type": "error"
		},
		{
			"anonymous": false,
			"inputs": [
				{
					"indexed": false,
					"internalType": "address",
					"name": "collection",
					"type": "address"
				},
				{
					"indexed": false,
					"internalType": "uint256",
					"name": "tokenId",
					"type": "uint256"
				}
			],
			"name": "DepositeNFT",
			"type": "event"
		},
		{
			"anonymous": false,
			"inputs": [
				{
					"indexed": true,
					"internalType": "address",
					"name": "previousOwner",
					"type": "address"
				},
				{
					"indexed": true,
					"internalType": "address",
					"name": "newOwner",
					"type": "address"
				}
			],
			"name": "OwnershipTransferStarted",
			"type": "event"
		},
		{
			"anonymous": false,
			"inputs": [
				{
					"indexed": true,
					"internalType": "address",
					"name": "previousOwner",
					"type": "address"
				},
				{
					"indexed": true,
					"internalType": "address",
					"name": "newOwner",
					"type": "address"
				}
			],
			"name": "OwnershipTransferred",
			"type": "event"
		},
		{
			"anonymous": false,
			"inputs": [
				{
					"indexed": false,
					"internalType": "address",
					"name": "collection",
					"type": "address"
				},
				{
					"indexed": false,
					"internalType": "uint256",
					"name": "tokenId",
					"type": "uint256"
				},
				{
					"indexed": false,
					"internalType": "address",
					"name": "to",
					"type": "address"
				}
			],
			"name": "WithdrawNFTPrize",
			"type": "event"
		},
		{
			"inputs": [],
			"name": "acceptOwnership",
			"outputs": [],
			"stateMutability": "nonpayable",
			"type": "function"
		},
		{
			"inputs": [
				{
					"components": [
						{
							"internalType": "address",
							"name": "collection",
							"type": "address"
						},
						{
							"internalType": "uint256",
							"name": "tokenId",
							"type": "uint256"
						},
						{
							"internalType": "uint256",
							"name": "weight",
							"type": "uint256"
						},
						{
							"internalType": "bool",
							"name": "claimed",
							"type": "bool"
						}
					],
					"internalType": "struct VaultNFT",
					"name": "vaultNft",
					"type": "tuple"
				}
			],
			"name": "depositeNFT",
			"outputs": [],
			"stateMutability": "nonpayable",
			"type": "function"
		},
		{
			"inputs": [],
			"name": "governor",
			"outputs": [
				{
					"internalType": "address",
					"name": "",
					"type": "address"
				}
			],
			"stateMutability": "view",
			"type": "function"
		},
		{
			"inputs": [
				{
					"internalType": "address",
					"name": "",
					"type": "address"
				},
				{
					"internalType": "uint256",
					"name": "",
					"type": "uint256"
				}
			],
			"name": "isInPool",
			"outputs": [
				{
					"internalType": "bool",
					"name": "",
					"type": "bool"
				}
			],
			"stateMutability": "view",
			"type": "function"
		},
		{
			"inputs": [],
			"name": "owner",
			"outputs": [
				{
					"internalType": "address",
					"name": "",
					"type": "address"
				}
			],
			"stateMutability": "view",
			"type": "function"
		},
		{
			"inputs": [],
			"name": "pendingOwner",
			"outputs": [
				{
					"internalType": "address",
					"name": "",
					"type": "address"
				}
			],
			"stateMutability": "view",
			"type": "function"
		},
		{
			"inputs": [],
			"name": "renounceOwnership",
			"outputs": [],
			"stateMutability": "nonpayable",
			"type": "function"
		},
		{
			"inputs": [],
			"name": "totalNfts",
			"outputs": [
				{
					"internalType": "uint256",
					"name": "",
					"type": "uint256"
				}
			],
			"stateMutability": "view",
			"type": "function"
		},
		{
			"inputs": [
				{
					"internalType": "address",
					"name": "newOwner",
					"type": "address"
				}
			],
			"name": "transferOwnership",
			"outputs": [],
			"stateMutability": "nonpayable",
			"type": "function"
		},
		{
			"inputs": [
				{
					"internalType": "address",
					"name": "",
					"type": "address"
				},
				{
					"internalType": "uint256",
					"name": "",
					"type": "uint256"
				}
			],
			"name": "userListOfPrizes",
			"outputs": [
				{
					"internalType": "address",
					"name": "",
					"type": "address"
				}
			],
			"stateMutability": "view",
			"type": "function"
		},
		{
			"inputs": [
				{
					"internalType": "uint256",
					"name": "index",
					"type": "uint256"
				},
				{
					"components": [
						{
							"internalType": "address",
							"name": "collection",
							"type": "address"
						},
						{
							"internalType": "uint256",
							"name": "tokenId",
							"type": "uint256"
						}
					],
					"internalType": "struct WithdrawNFT",
					"name": "withdrawNft",
					"type": "tuple"
				}
			],
			"name": "withdrawNFT",
			"outputs": [],
			"stateMutability": "nonpayable",
			"type": "function"
		}
	]
}