{
	"data": {
		"bytecode": {
			"linkReferences": {},
			"object": "6080604052739ddfaca8183c41ad55329bdeed9f6a8d53168b1b600f5f6101000a81548173ffffffffffffffffffffffffffffffffffffffff021916908373ffffffffffffffffffffffffffffffffffffffff1602179055507f787d74caea10b2b357790d5b5247c2f63d1d91572a9846f780606e4d953677ae5f1b60105562030d4060125f6101000a81548163ffffffff021916908363ffffffff1602179055506003601260046101000a81548161ffff021916908361ffff1602179055506001601260066101000a81548163ffffffff021916908363ffffffff160217905550600160135566038d7ea4c680006014553480156100fc575f5ffd5b506040516151b83803806151b8833981810160405281019061011e919061083e565b600f5f9054906101000a900473ffffffffffffffffffffffffffffffffffffffff1633805f6040518060400160405280600681526020017f585944424f5800000000000000000000000000000000000000000000000000008152506040518060400160405280600381526020017f5842580000000000000000000000000000000000000000000000000000000000815250815f90816101bd9190610ab0565b5080600190816101cd9190610ab0565b5050505f73ffffffffffffffffffffffffffffffffffffffff168273ffffffffffffffffffffffffffffffffffffffff160361023e576040517f08c379a000000000000000000000000000000000000000000000000000000000815260040161023590610bd9565b60405180910390fd5b81600a5f6101000a81548173ffffffffffffffffffffffffffffffffffffffff021916908373ffffffffffffffffffffffffffffffffffffffff1602179055505f73ffffffffffffffffffffffffffffffffffffffff168173ffffffffffffffffffffffffffffffffffffffff16146102c1576102c08161064f60201b60201c565b5b5050505f73ffffffffffffffffffffffffffffffffffffffff168173ffffffffffffffffffffffffffffffffffffffff1603610329576040517fd92e233d00000000000000000000000000000000000000000000000000000000815260040160405180910390fd5b80600c5f6101000a81548173ffffffffffffffffffffffffffffffffffffffff021916908373ffffffffffffffffffffffffffffffffffffffff16021790555050600161038861037d61077b60201b60201c565b6107a460201b60201c565b5f0181905550601a60405180604001604052805f60ff168152602001606461ffff16815250908060018154018082558091505060019003905f5260205f20015f909190919091505f820151815f015f6101000a81548160ff021916908360ff1602179055506020820151815f0160016101000a81548161ffff021916908361ffff1602179055505050601a6040518060400160405280600160ff16815260200161038461ffff16815250908060018154018082558091505060019003905f5260205f20015f909190919091505f820151815f015f6101000a81548160ff021916908360ff1602179055506020820151815f0160016101000a81548161ffff021916908361ffff1602179055505050601a6040518060400160405280600260ff168152602001610bb861ffff16815250908060018154018082558091505060019003905f5260205f20015f909190919091505f820151815f015f6101000a81548160ff021916908360ff1602179055506020820151815f0160016101000a81548161ffff021916908361ffff1602179055505050601a6040518060400160405280600360ff16815260200161177061ffff16815250908060018154018082558091505060019003905f5260205f20015f909190919091505f820151815f015f6101000a81548160ff021916908360ff1602179055506020820151815f0160016101000a81548161ffff021916908361ffff1602179055505050600f5f9054906101000a900473ffffffffffffffffffffffffffffffffffffffff16600e5f6101000a81548173ffffffffffffffffffffffffffffffffffffffff021916908373ffffffffffffffffffffffffffffffffffffffff1602179055508160118190555080600d5f6101000a81548173ffffffffffffffffffffffffffffffffffffffff021916908373ffffffffffffffffffffffffffffffffffffffff1602179055505050610c5f565b3373ffffffffffffffffffffffffffffffffffffffff168173ffffffffffffffffffffffffffffffffffffffff16036106bd576040517f08c379a00000000000000000000000000000000000000000000000000000000081526004016106b490610c41565b60405180910390fd5b80600b5f6101000a81548173ffffffffffffffffffffffffffffffffffffffff021916908373ffffffffffffffffffffffffffffffffffffffff1602179055508073ffffffffffffffffffffffffffffffffffffffff16600a5f9054906101000a900473ffffffffffffffffffffffffffffffffffffffff1673ffffffffffffffffffffffffffffffffffffffff167fed8889f560326eb138920d842192f0eb3dd22b4f139c87a2c57538e05bae127860405160405180910390a350565b5f7f9b779b17422d0df92223018b32b4d1fa46e071723d6817e2486d003becc55f005f1b905090565b5f819050919050565b5f5ffd5b5f819050919050565b6107c3816107b1565b81146107cd575f5ffd5b50565b5f815190506107de816107ba565b92915050565b5f73ffffffffffffffffffffffffffffffffffffffff82169050919050565b5f61080d826107e4565b9050919050565b61081d81610803565b8114610827575f5ffd5b50565b5f8151905061083881610814565b92915050565b5f5f60408385031215610854576108536107ad565b5b5f610861858286016107d0565b92505060206108728582860161082a565b9150509250929050565b5f81519050919050565b7f4e487b71000000000000000000000000000000000000000000000000000000005f52604160045260245ffd5b7f4e487b71000000000000000000000000000000000000000000000000000000005f52602260045260245ffd5b5f60028204905060018216806108f757607f821691505b60208210810361090a576109096108b3565b5b50919050565b5f819050815f5260205f209050919050565b5f6020601f8301049050919050565b5f82821b905092915050565b5f6008830261096c7fffffffffffffffffffffffffffffffffffffffffffffffffffffffffffffffff82610931565b6109768683610931565b95508019841693508086168417925050509392505050565b5f819050919050565b5f6109b16109ac6109a7846107b1565b61098e565b6107b1565b9050919050565b5f819050919050565b6109ca83610997565b6109de6109d6826109b8565b84845461093d565b825550505050565b5f5f905090565b6109f56109e6565b610a008184846109c1565b505050565b5b81811015610a2357610a185f826109ed565b600181019050610a06565b5050565b601f821115610a6857610a3981610910565b610a4284610922565b81016020851015610a51578190505b610a65610a5d85610922565b830182610a05565b50505b505050565b5f82821c905092915050565b5f610a885f1984600802610a6d565b1980831691505092915050565b5f610aa08383610a79565b9150826002028217905092915050565b610ab98261087c565b67ffffffffffffffff811115610ad257610ad1610886565b5b610adc82546108e0565b610ae7828285610a27565b5f60209050601f831160018114610b18575f8415610b06578287015190505b610b108582610a95565b865550610b77565b601f198416610b2686610910565b5f5b82811015610b4d57848901518255600182019150602085019450602081019050610b28565b86831015610b6a5784890151610b66601f891682610a79565b8355505b6001600288020188555050505b505050505050565b5f82825260208201905092915050565b7f43616e6e6f7420736574206f776e657220746f207a65726f00000000000000005f82015250565b5f610bc3601883610b7f565b9150610bce82610b8f565b602082019050919050565b5f6020820190508181035f830152610bf081610bb7565b9050919050565b7f43616e6e6f74207472616e7366657220746f2073656c660000000000000000005f82015250565b5f610c2b601783610b7f565b9150610c3682610bf7565b602082019050919050565b5f6020820190508181035f830152610c5881610c1f565b9050919050565b61454c80610c6c5f395ff3fe60806040526004361061023a575f3560e01c80637c637ed61161012d578063b0fb162f116100aa578063dc4c90d31161006e578063dc4c90d31461088f578063e985e9c5146108b9578063ec342ad0146108f5578063f2fde38b1461091f578063fb449334146109475761023a565b8063b0fb162f1461079d578063b1e5e2b7146107c7578063b88d4fde146107ef578063c87b56dd14610817578063da9f2fab146108535761023a565b80638ea98117116100f15780638ea98117146106cf57806395d89b41146106f75780639eccacf614610721578063a22cb4651461074b578063a6482858146107735761023a565b80637c637ed6146105eb5780637ccfd7fc1461061557806388f4ae121461063f5780638b58c569146106695780638da5cb5b146106a55761023a565b80632f745c59116101bb578063532dc0941161017f578063532dc094146104f95780636352211e1461053557806370a082311461057157806379ba5097146105ad5780637aef6715146105c35761023a565b80632f745c591461042557806341d7bdcb1461046157806342842e0e1461048b578063479507bb146104b35780634f6ccce7146104bd5761023a565b806318eac49c1161020257806318eac49c146103325780631fe543e31461036e57806321b571ea1461039657806323b872dd146103d357806324f74697146103fb5761023a565b806301ffc9a71461023e57806306fdde031461027a578063081812fc146102a4578063095ea7b3146102e057806318160ddd14610308575b5f5ffd5b348015610249575f5ffd5b50610264600480360381019061025f9190613287565b610971565b60405161027191906132cc565b60405180910390f35b348015610285575f5ffd5b5061028e6109ea565b60405161029b9190613355565b60405180910390f35b3480156102af575f5ffd5b506102ca60048036038101906102c591906133a8565b610a79565b6040516102d79190613412565b60405180910390f35b3480156102eb575f5ffd5b5061030660048036038101906103019190613455565b610a94565b005b348015610313575f5ffd5b5061031c610aaa565b60405161032991906134a2565b60405180910390f35b34801561033d575f5ffd5b50610358600480360381019061035391906133a8565b610ab6565b60405161036591906132cc565b60405180910390f35b348015610379575f5ffd5b50610394600480360381019061038f919061351c565b610ad3565b005b3480156103a1575f5ffd5b506103bc60048036038101906103b791906133a8565b610b97565b6040516103ca9291906135b0565b60405180910390f35b3480156103de575f5ffd5b506103f960048036038101906103f491906135d7565b610bdb565b005b348015610406575f5ffd5b5061040f610cda565b60405161041c9190613645565b60405180910390f35b348015610430575f5ffd5b5061044b60048036038101906104469190613455565b610cef565b60405161045891906134a2565b60405180910390f35b34801561046c575f5ffd5b50610475610d93565b6040516104829190613355565b60405180910390f35b348015610496575f5ffd5b506104b160048036038101906104ac91906135d7565b610dcc565b005b6104bb610deb565b005b3480156104c8575f5ffd5b506104e360048036038101906104de91906133a8565b610e85565b6040516104f091906134a2565b60405180910390f35b348015610504575f5ffd5b5061051f600480360381019061051a91906133a8565b610ef7565b60405161052c91906134a2565b60405180910390f35b348015610540575f5ffd5b5061055b600480360381019061055691906133a8565b610f0c565b6040516105689190613412565b60405180910390f35b34801561057c575f5ffd5b506105976004803603810190610592919061365e565b610f1d565b6040516105a491906134a2565b60405180910390f35b3480156105b8575f5ffd5b506105c1610fd3565b005b3480156105ce575f5ffd5b506105e960048036038101906105e4919061365e565b611164565b005b3480156105f6575f5ffd5b506105ff611214565b60405161060c9190613355565b60405180910390f35b348015610620575f5ffd5b5061062961124d565b6040516106369190613645565b60405180910390f35b34801561064a575f5ffd5b50610653611263565b60405161066091906134a2565b60405180910390f35b348015610674575f5ffd5b5061068f600480360381019061068a91906133a8565b611269565b60405161069c9190613689565b60405180910390f35b3480156106b0575f5ffd5b506106b9611286565b6040516106c69190613412565b60405180910390f35b3480156106da575f5ffd5b506106f560048036038101906106f0919061365e565b6112ae565b005b348015610702575f5ffd5b5061070b61148b565b6040516107189190613355565b60405180910390f35b34801561072c575f5ffd5b5061073561151b565b60405161074291906136fd565b60405180910390f35b348015610756575f5ffd5b50610771600480360381019061076c9190613740565b611540565b005b34801561077e575f5ffd5b50610787611556565b60405161079491906134a2565b60405180910390f35b3480156107a8575f5ffd5b506107b161155c565b6040516107be919061377e565b60405180910390f35b3480156107d2575f5ffd5b506107ed60048036038101906107e891906133a8565b611570565b005b3480156107fa575f5ffd5b50610815600480360381019061081091906138bf565b61182f565b005b348015610822575f5ffd5b5061083d600480360381019061083891906133a8565b611854565b60405161084a9190613355565b60405180910390f35b34801561085e575f5ffd5b50610879600480360381019061087491906133a8565b61193e565b60405161088691906134a2565b60405180910390f35b34801561089a575f5ffd5b506108a3611953565b6040516108b0919061395f565b60405180910390f35b3480156108c4575f5ffd5b506108df60048036038101906108da9190613978565b611978565b6040516108ec91906132cc565b60405180910390f35b348015610900575f5ffd5b50610909611a06565b604051610916919061377e565b60405180910390f35b34801561092a575f5ffd5b506109456004803603810190610940919061365e565b611a0c565b005b348015610952575f5ffd5b5061095b611a20565b6040516109689190613355565b60405180910390f35b5f7f780e9d63000000000000000000000000000000000000000000000000000000007bffffffffffffffffffffffffffffffffffffffffffffffffffffffff1916827bffffffffffffffffffffffffffffffffffffffffffffffffffffffff191614806109e357506109e282611a3c565b5b9050919050565b60605f80546109f8906139e3565b80601f0160208091040260200160405190810160405280929190818152602001828054610a24906139e3565b8015610a6f5780601f10610a4657610100808354040283529160200191610a6f565b820191905f5260205f20905b815481529060010190602001808311610a5257829003601f168201915b5050505050905090565b5f610a8382611b1d565b50610a8d82611ba3565b9050919050565b610aa68282610aa1611bdc565b611be3565b5050565b5f600880549050905090565b6015602052805f5260405f205f915054906101000a900460ff1681565b600c5f9054906101000a900473ffffffffffffffffffffffffffffffffffffffff1673ffffffffffffffffffffffffffffffffffffffff163373ffffffffffffffffffffffffffffffffffffffff1614610b875733600c5f9054906101000a900473ffffffffffffffffffffffffffffffffffffffff166040517f1cf993f4000000000000000000000000000000000000000000000000000000008152600401610b7e929190613a13565b60405180910390fd5b610b92838383611bf5565b505050565b601a8181548110610ba6575f80fd5b905f5260205f20015f91509050805f015f9054906101000a900460ff1690805f0160019054906101000a900461ffff16905082565b5f73ffffffffffffffffffffffffffffffffffffffff168273ffffffffffffffffffffffffffffffffffffffff1603610c4b575f6040517f64a0ae92000000000000000000000000000000000000000000000000000000008152600401610c429190613412565b60405180910390fd5b5f610c5e8383610c59611bdc565b611c3f565b90508373ffffffffffffffffffffffffffffffffffffffff168173ffffffffffffffffffffffffffffffffffffffff1614610cd4578382826040517f64283d7b000000000000000000000000000000000000000000000000000000008152600401610ccb93929190613a3a565b60405180910390fd5b50505050565b60125f9054906101000a900463ffffffff1681565b5f610cf983610f1d565b8210610d3e5782826040517fa57d13dc000000000000000000000000000000000000000000000000000000008152600401610d35929190613a6f565b60405180910390fd5b60065f8473ffffffffffffffffffffffffffffffffffffffff1673ffffffffffffffffffffffffffffffffffffffff1681526020019081526020015f205f8381526020019081526020015f2054905092915050565b6040518060400160405280600381526020017f424f58000000000000000000000000000000000000000000000000000000000081525081565b610de683838360405180602001604052805f81525061182f565b505050565b601454341015610e27576040517f583aa02600000000000000000000000000000000000000000000000000000000815260040160405180910390fd5b5f60135f815480929190610e3a90613ac3565b919050559050610e4a3382611d59565b5f610e53611d76565b90508160185f8381526020019081526020015f20819055508060195f8481526020019081526020015f20819055505050565b5f610e8e610aaa565b8210610ed3575f826040517fa57d13dc000000000000000000000000000000000000000000000000000000008152600401610eca929190613a6f565b60405180910390fd5b60088281548110610ee757610ee6613b0a565b5b905f5260205f2001549050919050565b6019602052805f5260405f205f915090505481565b5f610f1682611b1d565b9050919050565b5f5f73ffffffffffffffffffffffffffffffffffffffff168273ffffffffffffffffffffffffffffffffffffffff1603610f8e575f6040517f89c62b64000000000000000000000000000000000000000000000000000000008152600401610f859190613412565b60405180910390fd5b60035f8373ffffffffffffffffffffffffffffffffffffffff1673ffffffffffffffffffffffffffffffffffffffff1681526020019081526020015f20549050919050565b600b5f9054906101000a900473ffffffffffffffffffffffffffffffffffffffff1673ffffffffffffffffffffffffffffffffffffffff163373ffffffffffffffffffffffffffffffffffffffff1614611062576040517f08c379a000000000000000000000000000000000000000000000000000000000815260040161105990613b81565b60405180910390fd5b5f600a5f9054906101000a900473ffffffffffffffffffffffffffffffffffffffff16905033600a5f6101000a81548173ffffffffffffffffffffffffffffffffffffffff021916908373ffffffffffffffffffffffffffffffffffffffff1602179055505f600b5f6101000a81548173ffffffffffffffffffffffffffffffffffffffff021916908373ffffffffffffffffffffffffffffffffffffffff1602179055503373ffffffffffffffffffffffffffffffffffffffff168173ffffffffffffffffffffffffffffffffffffffff167f8be0079c531659141344cd1fd0a4f28419497f9722a3daafe3b4186f6b6457e060405160405180910390a350565b61116c611efa565b5f73ffffffffffffffffffffffffffffffffffffffff168173ffffffffffffffffffffffffffffffffffffffff16036111d1576040517f2442abd700000000000000000000000000000000000000000000000000000000815260040160405180910390fd5b80600d5f6101000a81548173ffffffffffffffffffffffffffffffffffffffff021916908373ffffffffffffffffffffffffffffffffffffffff16021790555050565b6040518060400160405280600681526020017f585944424f58000000000000000000000000000000000000000000000000000081525081565b601260069054906101000a900463ffffffff1681565b60135481565b6016602052805f5260405f205f915054906101000a900460ff1681565b5f600a5f9054906101000a900473ffffffffffffffffffffffffffffffffffffffff16905090565b6112b6611286565b73ffffffffffffffffffffffffffffffffffffffff163373ffffffffffffffffffffffffffffffffffffffff161415801561133e5750600c5f9054906101000a900473ffffffffffffffffffffffffffffffffffffffff1673ffffffffffffffffffffffffffffffffffffffff163373ffffffffffffffffffffffffffffffffffffffff1614155b156113ac573361134c611286565b600c5f9054906101000a900473ffffffffffffffffffffffffffffffffffffffff166040517f061db9c10000000000000000000000000000000000000000000000000000000081526004016113a393929190613b9f565b60405180910390fd5b5f73ffffffffffffffffffffffffffffffffffffffff168173ffffffffffffffffffffffffffffffffffffffff1603611411576040517fd92e233d00000000000000000000000000000000000000000000000000000000815260040160405180910390fd5b80600c5f6101000a81548173ffffffffffffffffffffffffffffffffffffffff021916908373ffffffffffffffffffffffffffffffffffffffff1602179055507fd1a6a14209a385a964d036e404cb5cfb71f4000cdb03c9366292430787261be6816040516114809190613412565b60405180910390a150565b60606001805461149a906139e3565b80601f01602080910402602001604051908101604052809291908181526020018280546114c6906139e3565b80156115115780601f106114e857610100808354040283529160200191611511565b820191905f5260205f20905b8154815290600101906020018083116114f457829003601f168201915b5050505050905090565b600c5f9054906101000a900473ffffffffffffffffffffffffffffffffffffffff1681565b61155261154b611bdc565b8383611f8b565b5050565b60145481565b601260049054906101000a900461ffff1681565b6115786120f4565b60155f8281526020019081526020015f205f9054906101000a900460ff16156115cd576040517fb4c85c6b00000000000000000000000000000000000000000000000000000000815260040160405180910390fd5b3373ffffffffffffffffffffffffffffffffffffffff166115ed82610f0c565b73ffffffffffffffffffffffffffffffffffffffff161461163a576040517f30cd747100000000000000000000000000000000000000000000000000000000815260040160405180910390fd5b5f600160155f8481526020019081526020015f205f6101000a81548160ff0219169083151502179055505f60175f8481526020019081526020015f205490505f61271061ffff168261168c9190613c01565b90505f5f90505f5f90505b601a805490508160ff16101561170b57601a8160ff16815481106116be576116bd613b0a565b5b905f5260205f20015f0160019054906101000a900461ffff1661ffff16826116e69190613c31565b9150818310156116f85780945061170b565b808061170390613c64565b915050611697565b508360165f8781526020019081526020015f205f6101000a81548160ff021916908360ff1602179055505f5f600d5f9054906101000a900473ffffffffffffffffffffffffffffffffffffffff1673ffffffffffffffffffffffffffffffffffffffff1663d71e7b5c8787336040518463ffffffff1660e01b815260040161179593929190613c8c565b60408051808303815f875af11580156117b0573d5f5f3e3d5ffd5b505050506040513d601f19601f820116820180604052508101906117d49190613ce9565b915091506117e187612116565b7feb617e86927ee250118f552ccadf3f76d734dd27c763f6f1c8f3683c5af7b7b0338784846040516118169493929190613d27565b60405180910390a150505050505061182c61215b565b50565b61183a848484610bdb565b61184e611845611bdc565b85858585612175565b50505050565b606061185f82611b1d565b505f6040518060400160405280600681526020017f585944424f5800000000000000000000000000000000000000000000000000008152506040518060400160405280600381526020017f424f5800000000000000000000000000000000000000000000000000000000008152506040518060800160405280605d81526020016144ba605d91396040516020016118f893929190613faa565b60405160208183030381529060405290505f61191382612321565b905080604051602001611926919061407c565b60405160208183030381529060405292505050919050565b6018602052805f5260405f205f915090505481565b600d5f9054906101000a900473ffffffffffffffffffffffffffffffffffffffff1681565b5f60055f8473ffffffffffffffffffffffffffffffffffffffff1673ffffffffffffffffffffffffffffffffffffffff1681526020019081526020015f205f8373ffffffffffffffffffffffffffffffffffffffff1673ffffffffffffffffffffffffffffffffffffffff1681526020019081526020015f205f9054906101000a900460ff16905092915050565b61271081565b611a14611efa565b611a1d81612334565b50565b6040518060800160405280605d81526020016144ba605d913981565b5f7f80ac58cd000000000000000000000000000000000000000000000000000000007bffffffffffffffffffffffffffffffffffffffffffffffffffffffff1916827bffffffffffffffffffffffffffffffffffffffffffffffffffffffff19161480611b0657507f5b5e139f000000000000000000000000000000000000000000000000000000007bffffffffffffffffffffffffffffffffffffffffffffffffffffffff1916827bffffffffffffffffffffffffffffffffffffffffffffffffffffffff1916145b80611b165750611b1582612460565b5b9050919050565b5f5f611b28836124c9565b90505f73ffffffffffffffffffffffffffffffffffffffff168173ffffffffffffffffffffffffffffffffffffffff1603611b9a57826040517f7e273289000000000000000000000000000000000000000000000000000000008152600401611b9191906134a2565b60405180910390fd5b80915050919050565b5f60045f8381526020019081526020015f205f9054906101000a900473ffffffffffffffffffffffffffffffffffffffff169050919050565b5f33905090565b611bf08383836001612502565b505050565b5f60185f8581526020019081526020015f2054905082825f818110611c1d57611c1c613b0a565b5b9050602002013560175f8381526020019081526020015f208190555050505050565b5f5f611c4c8585856126c1565b90505f73ffffffffffffffffffffffffffffffffffffffff168173ffffffffffffffffffffffffffffffffffffffff1603611c8f57611c8a846128cc565b611cce565b8473ffffffffffffffffffffffffffffffffffffffff168173ffffffffffffffffffffffffffffffffffffffff1614611ccd57611ccc8185612910565b5b5b5f73ffffffffffffffffffffffffffffffffffffffff168573ffffffffffffffffffffffffffffffffffffffff1603611d0f57611d0a846129e7565b611d4e565b8473ffffffffffffffffffffffffffffffffffffffff168173ffffffffffffffffffffffffffffffffffffffff1614611d4d57611d4c8585612aa7565b5b5b809150509392505050565b611d72828260405180602001604052805f815250612b2b565b5050565b5f5f6040518060c0016040528060105481526020016011548152602001601260049054906101000a900461ffff1661ffff16815260200160125f9054906101000a900463ffffffff1663ffffffff168152602001601260069054906101000a900463ffffffff1663ffffffff168152602001611e02604051806020016040528060011515815250612b4e565b81525090505f600e5f9054906101000a900473ffffffffffffffffffffffffffffffffffffffff1673ffffffffffffffffffffffffffffffffffffffff16639b1c385e836040518263ffffffff1660e01b8152600401611e6291906141ba565b6020604051808303815f875af1158015611e7e573d5f5f3e3d5ffd5b505050506040513d601f19601f82011682018060405250810190611ea291906141da565b90503373ffffffffffffffffffffffffffffffffffffffff167f9d5ec813554188f51cff7ea82cda0c2e6a4006398b558e6d834f0fd6ead830a182604051611eea91906134a2565b60405180910390a2809250505090565b600a5f9054906101000a900473ffffffffffffffffffffffffffffffffffffffff1673ffffffffffffffffffffffffffffffffffffffff163373ffffffffffffffffffffffffffffffffffffffff1614611f89576040517f08c379a0000000000000000000000000000000000000000000000000000000008152600401611f809061424f565b60405180910390fd5b565b5f73ffffffffffffffffffffffffffffffffffffffff168273ffffffffffffffffffffffffffffffffffffffff1603611ffb57816040517f5b08ba18000000000000000000000000000000000000000000000000000000008152600401611ff29190613412565b60405180910390fd5b8060055f8573ffffffffffffffffffffffffffffffffffffffff1673ffffffffffffffffffffffffffffffffffffffff1681526020019081526020015f205f8473ffffffffffffffffffffffffffffffffffffffff1673ffffffffffffffffffffffffffffffffffffffff1681526020019081526020015f205f6101000a81548160ff0219169083151502179055508173ffffffffffffffffffffffffffffffffffffffff168373ffffffffffffffffffffffffffffffffffffffff167f17307eab39ab6107e8899845ad3d59bd9653f200f220920489ca2b5937696c31836040516120e791906132cc565b60405180910390a3505050565b6120fc612be6565b600261210e612109612c27565b612c50565b5f0181905550565b612121335f83612c59565b7fd3f5559c9fe2c1b988daa9f5520155e1a89d750e0a7b2ee17afcd4b76dd95bcd8160405161215091906134a2565b60405180910390a150565b600161216d612168612c27565b612c50565b5f0181905550565b5f8373ffffffffffffffffffffffffffffffffffffffff163b111561231a578273ffffffffffffffffffffffffffffffffffffffff1663150b7a02868685856040518563ffffffff1660e01b81526004016121d394939291906142b5565b6020604051808303815f875af192505050801561220e57506040513d601f19601f8201168201806040525081019061220b9190614313565b60015b61228f573d805f811461223c576040519150601f19603f3d011682016040523d82523d5f602084013e612241565b606091505b505f81510361228757836040517f64a0ae9200000000000000000000000000000000000000000000000000000000815260040161227e9190613412565b60405180910390fd5b805160208201fd5b63150b7a0260e01b7bffffffffffffffffffffffffffffffffffffffffffffffffffffffff1916817bffffffffffffffffffffffffffffffffffffffffffffffffffffffff19161461231857836040517f64a0ae9200000000000000000000000000000000000000000000000000000000815260040161230f9190613412565b60405180910390fd5b505b5050505050565b606061232d825f612c78565b9050919050565b3373ffffffffffffffffffffffffffffffffffffffff168173ffffffffffffffffffffffffffffffffffffffff16036123a2576040517f08c379a000000000000000000000000000000000000000000000000000000000815260040161239990614388565b60405180910390fd5b80600b5f6101000a81548173ffffffffffffffffffffffffffffffffffffffff021916908373ffffffffffffffffffffffffffffffffffffffff1602179055508073ffffffffffffffffffffffffffffffffffffffff16600a5f9054906101000a900473ffffffffffffffffffffffffffffffffffffffff1673ffffffffffffffffffffffffffffffffffffffff167fed8889f560326eb138920d842192f0eb3dd22b4f139c87a2c57538e05bae127860405160405180910390a350565b5f7f01ffc9a7000000000000000000000000000000000000000000000000000000007bffffffffffffffffffffffffffffffffffffffffffffffffffffffff1916827bffffffffffffffffffffffffffffffffffffffffffffffffffffffff1916149050919050565b5f60025f8381526020019081526020015f205f9054906101000a900473ffffffffffffffffffffffffffffffffffffffff169050919050565b808061253a57505f73ffffffffffffffffffffffffffffffffffffffff168273ffffffffffffffffffffffffffffffffffffffff1614155b1561266c575f61254984611b1d565b90505f73ffffffffffffffffffffffffffffffffffffffff168373ffffffffffffffffffffffffffffffffffffffff16141580156125b357508273ffffffffffffffffffffffffffffffffffffffff168173ffffffffffffffffffffffffffffffffffffffff1614155b80156125c657506125c48184611978565b155b1561260857826040517fa9fbf51f0000000000000000000000000000000000000000000000000000000081526004016125ff9190613412565b60405180910390fd5b811561266a57838573ffffffffffffffffffffffffffffffffffffffff168273ffffffffffffffffffffffffffffffffffffffff167f8c5be1e5ebec7d5bd14f71427d1e84f3dd0314c0f7b2291e5b200ac8c7c3b92560405160405180910390a45b505b8360045f8581526020019081526020015f205f6101000a81548173ffffffffffffffffffffffffffffffffffffffff021916908373ffffffffffffffffffffffffffffffffffffffff16021790555050505050565b5f5f6126cc846124c9565b90505f73ffffffffffffffffffffffffffffffffffffffff168373ffffffffffffffffffffffffffffffffffffffff161461270d5761270c818486612e02565b5b5f73ffffffffffffffffffffffffffffffffffffffff168173ffffffffffffffffffffffffffffffffffffffff16146127985761274c5f855f5f612502565b600160035f8373ffffffffffffffffffffffffffffffffffffffff1673ffffffffffffffffffffffffffffffffffffffff1681526020019081526020015f205f82825403925050819055505b5f73ffffffffffffffffffffffffffffffffffffffff168573ffffffffffffffffffffffffffffffffffffffff161461281757600160035f8773ffffffffffffffffffffffffffffffffffffffff1673ffffffffffffffffffffffffffffffffffffffff1681526020019081526020015f205f82825401925050819055505b8460025f8681526020019081526020015f205f6101000a81548173ffffffffffffffffffffffffffffffffffffffff021916908373ffffffffffffffffffffffffffffffffffffffff160217905550838573ffffffffffffffffffffffffffffffffffffffff168273ffffffffffffffffffffffffffffffffffffffff167fddf252ad1be2c89b69c2b068fc378daa952ba7f163c4a11628f55a4df523b3ef60405160405180910390a4809150509392505050565b60088054905060095f8381526020019081526020015f2081905550600881908060018154018082558091505060019003905f5260205f20015f909190919091505550565b5f61291a83610f1d565b90505f60075f8481526020019081526020015f205490505f60065f8673ffffffffffffffffffffffffffffffffffffffff1673ffffffffffffffffffffffffffffffffffffffff1681526020019081526020015f2090508282146129b9575f815f8581526020019081526020015f2054905080825f8581526020019081526020015f20819055508260075f8381526020019081526020015f2081905550505b60075f8581526020019081526020015f205f9055805f8481526020019081526020015f205f90555050505050565b5f60016008805490506129fa91906143a6565b90505f60095f8481526020019081526020015f205490505f60088381548110612a2657612a25613b0a565b5b905f5260205f20015490508060088381548110612a4657612a45613b0a565b5b905f5260205f2001819055508160095f8381526020019081526020015f208190555060095f8581526020019081526020015f205f90556008805480612a8e57612a8d6143d9565b5b600190038181905f5260205f20015f9055905550505050565b5f6001612ab384610f1d565b612abd91906143a6565b90508160065f8573ffffffffffffffffffffffffffffffffffffffff1673ffffffffffffffffffffffffffffffffffffffff1681526020019081526020015f205f8381526020019081526020015f20819055508060075f8481526020019081526020015f2081905550505050565b612b358383612ec5565b612b49612b40611bdc565b5f858585612175565b505050565b60607f92fd13387c7fe7befbc38d303d6468778fb9731bc4583f17d92989c6fcfdeaaa82604051602401612b82919061442f565b604051602081830303815290604052907bffffffffffffffffffffffffffffffffffffffffffffffffffffffff19166020820180517bffffffffffffffffffffffffffffffffffffffffffffffffffffffff83818316178352505050509050919050565b612bee612fb8565b15612c25576040517f3ee5aeb500000000000000000000000000000000000000000000000000000000815260040160405180910390fd5b565b5f7f9b779b17422d0df92223018b32b4d1fa46e071723d6817e2486d003becc55f005f1b905090565b5f819050919050565b612c7383838360405180602001604052805f815250612fd4565b505050565b60605f835103612c985760405180602001604052805f8152509050612dfc565b5f82612cc957600360028551612cae9190613c31565b612cb89190614448565b6004612cc49190614478565b612cf0565b6003600285516004612cdb9190614478565b612ce59190613c31565b612cef9190614448565b5b905060405191507f4142434445464748494a4b4c4d4e4f505152535455565758595a616263646566601f5261067083027f6768696a6b6c6d6e6f707172737475767778797a303132333435363738392b2f18603f526020820181810185865187016020810180515f82525b82841015612dae576003840193508351603f8160121c16518753600187019650603f81600c1c16518753600187019650603f8160061c16518753600187019650603f811651875360018701965050612d5b565b80825288612ded5760038a510660018114612dd05760028114612de357612deb565b603d6001880353603d6002880353612deb565b603d60018803535b505b86885284604052505050505050505b92915050565b612e0d838383612ff9565b612ec0575f73ffffffffffffffffffffffffffffffffffffffff168373ffffffffffffffffffffffffffffffffffffffff1603612e8157806040517f7e273289000000000000000000000000000000000000000000000000000000008152600401612e7891906134a2565b60405180910390fd5b81816040517f177e802f000000000000000000000000000000000000000000000000000000008152600401612eb7929190613a6f565b60405180910390fd5b505050565b5f73ffffffffffffffffffffffffffffffffffffffff168273ffffffffffffffffffffffffffffffffffffffff1603612f35575f6040517f64a0ae92000000000000000000000000000000000000000000000000000000008152600401612f2c9190613412565b60405180910390fd5b5f612f4183835f611c3f565b90505f73ffffffffffffffffffffffffffffffffffffffff168173ffffffffffffffffffffffffffffffffffffffff1614612fb3575f6040517f73c6ac6e000000000000000000000000000000000000000000000000000000008152600401612faa9190613412565b60405180910390fd5b505050565b5f6002612fcb612fc6612c27565b612c50565b5f015414905090565b612fdf8484846130b9565b612ff3612fea611bdc565b85858585612175565b50505050565b5f5f73ffffffffffffffffffffffffffffffffffffffff168373ffffffffffffffffffffffffffffffffffffffff16141580156130b057508273ffffffffffffffffffffffffffffffffffffffff168473ffffffffffffffffffffffffffffffffffffffff16148061307157506130708484611978565b5b806130af57508273ffffffffffffffffffffffffffffffffffffffff1661309783611ba3565b73ffffffffffffffffffffffffffffffffffffffff16145b5b90509392505050565b5f73ffffffffffffffffffffffffffffffffffffffff168273ffffffffffffffffffffffffffffffffffffffff1603613129575f6040517f64a0ae920000000000000000000000000000000000000000000000000000000081526004016131209190613412565b60405180910390fd5b5f61313583835f611c3f565b90505f73ffffffffffffffffffffffffffffffffffffffff168173ffffffffffffffffffffffffffffffffffffffff16036131a757816040517f7e27328900000000000000000000000000000000000000000000000000000000815260040161319e91906134a2565b60405180910390fd5b8373ffffffffffffffffffffffffffffffffffffffff168173ffffffffffffffffffffffffffffffffffffffff161461321b578382826040517f64283d7b00000000000000000000000000000000000000000000000000000000815260040161321293929190613a3a565b60405180910390fd5b50505050565b5f604051905090565b5f5ffd5b5f5ffd5b5f7fffffffff0000000000000000000000000000000000000000000000000000000082169050919050565b61326681613232565b8114613270575f5ffd5b50565b5f813590506132818161325d565b92915050565b5f6020828403121561329c5761329b61322a565b5b5f6132a984828501613273565b91505092915050565b5f8115159050919050565b6132c6816132b2565b82525050565b5f6020820190506132df5f8301846132bd565b92915050565b5f81519050919050565b5f82825260208201905092915050565b8281835e5f83830152505050565b5f601f19601f8301169050919050565b5f613327826132e5565b61333181856132ef565b93506133418185602086016132ff565b61334a8161330d565b840191505092915050565b5f6020820190508181035f83015261336d818461331d565b905092915050565b5f819050919050565b61338781613375565b8114613391575f5ffd5b50565b5f813590506133a28161337e565b92915050565b5f602082840312156133bd576133bc61322a565b5b5f6133ca84828501613394565b91505092915050565b5f73ffffffffffffffffffffffffffffffffffffffff82169050919050565b5f6133fc826133d3565b9050919050565b61340c816133f2565b82525050565b5f6020820190506134255f830184613403565b92915050565b613434816133f2565b811461343e575f5ffd5b50565b5f8135905061344f8161342b565b92915050565b5f5f6040838503121561346b5761346a61322a565b5b5f61347885828601613441565b925050602061348985828601613394565b9150509250929050565b61349c81613375565b82525050565b5f6020820190506134b55f830184613493565b92915050565b5f5ffd5b5f5ffd5b5f5ffd5b5f5f83601f8401126134dc576134db6134bb565b5b8235905067ffffffffffffffff8111156134f9576134f86134bf565b5b602083019150836020820283011115613515576135146134c3565b5b9250929050565b5f5f5f604084860312156135335761353261322a565b5b5f61354086828701613394565b935050602084013567ffffffffffffffff8111156135615761356061322e565b5b61356d868287016134c7565b92509250509250925092565b5f60ff82169050919050565b61358e81613579565b82525050565b5f61ffff82169050919050565b6135aa81613594565b82525050565b5f6040820190506135c35f830185613585565b6135d060208301846135a1565b9392505050565b5f5f5f606084860312156135ee576135ed61322a565b5b5f6135fb86828701613441565b935050602061360c86828701613441565b925050604061361d86828701613394565b9150509250925092565b5f63ffffffff82169050919050565b61363f81613627565b82525050565b5f6020820190506136585f830184613636565b92915050565b5f602082840312156136735761367261322a565b5b5f61368084828501613441565b91505092915050565b5f60208201905061369c5f830184613585565b92915050565b5f819050919050565b5f6136c56136c06136bb846133d3565b6136a2565b6133d3565b9050919050565b5f6136d6826136ab565b9050919050565b5f6136e7826136cc565b9050919050565b6136f7816136dd565b82525050565b5f6020820190506137105f8301846136ee565b92915050565b61371f816132b2565b8114613729575f5ffd5b50565b5f8135905061373a81613716565b92915050565b5f5f604083850312156137565761375561322a565b5b5f61376385828601613441565b92505060206137748582860161372c565b9150509250929050565b5f6020820190506137915f8301846135a1565b92915050565b5f5ffd5b7f4e487b71000000000000000000000000000000000000000000000000000000005f52604160045260245ffd5b6137d18261330d565b810181811067ffffffffffffffff821117156137f0576137ef61379b565b5b80604052505050565b5f613802613221565b905061380e82826137c8565b919050565b5f67ffffffffffffffff82111561382d5761382c61379b565b5b6138368261330d565b9050602081019050919050565b828183375f83830152505050565b5f61386361385e84613813565b6137f9565b90508281526020810184848401111561387f5761387e613797565b5b61388a848285613843565b509392505050565b5f82601f8301126138a6576138a56134bb565b5b81356138b6848260208601613851565b91505092915050565b5f5f5f5f608085870312156138d7576138d661322a565b5b5f6138e487828801613441565b94505060206138f587828801613441565b935050604061390687828801613394565b925050606085013567ffffffffffffffff8111156139275761392661322e565b5b61393387828801613892565b91505092959194509250565b5f613949826136cc565b9050919050565b6139598161393f565b82525050565b5f6020820190506139725f830184613950565b92915050565b5f5f6040838503121561398e5761398d61322a565b5b5f61399b85828601613441565b92505060206139ac85828601613441565b9150509250929050565b7f4e487b71000000000000000000000000000000000000000000000000000000005f52602260045260245ffd5b5f60028204905060018216806139fa57607f821691505b602082108103613a0d57613a0c6139b6565b5b50919050565b5f604082019050613a265f830185613403565b613a336020830184613403565b9392505050565b5f606082019050613a4d5f830186613403565b613a5a6020830185613493565b613a676040830184613403565b949350505050565b5f604082019050613a825f830185613403565b613a8f6020830184613493565b9392505050565b7f4e487b71000000000000000000000000000000000000000000000000000000005f52601160045260245ffd5b5f613acd82613375565b91507fffffffffffffffffffffffffffffffffffffffffffffffffffffffffffffffff8203613aff57613afe613a96565b5b600182019050919050565b7f4e487b71000000000000000000000000000000000000000000000000000000005f52603260045260245ffd5b7f4d7573742062652070726f706f736564206f776e6572000000000000000000005f82015250565b5f613b6b6016836132ef565b9150613b7682613b37565b602082019050919050565b5f6020820190508181035f830152613b9881613b5f565b9050919050565b5f606082019050613bb25f830186613403565b613bbf6020830185613403565b613bcc6040830184613403565b949350505050565b7f4e487b71000000000000000000000000000000000000000000000000000000005f52601260045260245ffd5b5f613c0b82613375565b9150613c1683613375565b925082613c2657613c25613bd4565b5b828206905092915050565b5f613c3b82613375565b9150613c4683613375565b9250828201905080821115613c5e57613c5d613a96565b5b92915050565b5f613c6e82613579565b915060ff8203613c8157613c80613a96565b5b600182019050919050565b5f606082019050613c9f5f830186613585565b613cac6020830185613493565b613cb96040830184613403565b949350505050565b5f81519050613ccf8161342b565b92915050565b5f81519050613ce38161337e565b92915050565b5f5f60408385031215613cff57613cfe61322a565b5b5f613d0c85828601613cc1565b9250506020613d1d85828601613cd5565b9150509250929050565b5f608082019050613d3a5f830187613403565b613d476020830186613585565b613d546040830185613403565b613d616060830184613493565b95945050505050565b5f81905092915050565b7f7b000000000000000000000000000000000000000000000000000000000000005f82015250565b5f613da8600183613d6a565b9150613db382613d74565b600182019050919050565b7f226e616d65223a220000000000000000000000000000000000000000000000005f82015250565b5f613df2600883613d6a565b9150613dfd82613dbe565b600882019050919050565b5f613e12826132e5565b613e1c8185613d6a565b9350613e2c8185602086016132ff565b80840191505092915050565b7f222c0000000000000000000000000000000000000000000000000000000000005f82015250565b5f613e6c600283613d6a565b9150613e7782613e38565b600282019050919050565b7f226465736372697074696f6e223a2200000000000000000000000000000000005f82015250565b5f613eb6600f83613d6a565b9150613ec182613e82565b600f82019050919050565b7f22696d616765223a2200000000000000000000000000000000000000000000005f82015250565b5f613f00600983613d6a565b9150613f0b82613ecc565b600982019050919050565b7f22000000000000000000000000000000000000000000000000000000000000005f82015250565b5f613f4a600183613d6a565b9150613f5582613f16565b600182019050919050565b7f7d000000000000000000000000000000000000000000000000000000000000005f82015250565b5f613f94600183613d6a565b9150613f9f82613f60565b600182019050919050565b5f613fb482613d9c565b9150613fbf82613de6565b9150613fcb8286613e08565b9150613fd682613e60565b9150613fe182613eaa565b9150613fed8285613e08565b9150613ff882613e60565b915061400382613ef4565b915061400f8284613e08565b915061401a82613f3e565b915061402582613f88565b9150819050949350505050565b7f646174613a6170706c69636174696f6e2f6a736f6e3b6261736536342c0000005f82015250565b5f614066601d83613d6a565b915061407182614032565b601d82019050919050565b5f6140868261405a565b91506140928284613e08565b915081905092915050565b5f819050919050565b6140af8161409d565b82525050565b6140be81613375565b82525050565b6140cd81613594565b82525050565b6140dc81613627565b82525050565b5f81519050919050565b5f82825260208201905092915050565b5f614106826140e2565b61411081856140ec565b93506141208185602086016132ff565b6141298161330d565b840191505092915050565b5f60c083015f8301516141495f8601826140a6565b50602083015161415c60208601826140b5565b50604083015161416f60408601826140c4565b50606083015161418260608601826140d3565b50608083015161419560808601826140d3565b5060a083015184820360a08601526141ad82826140fc565b9150508091505092915050565b5f6020820190508181035f8301526141d28184614134565b905092915050565b5f602082840312156141ef576141ee61322a565b5b5f6141fc84828501613cd5565b91505092915050565b7f4f6e6c792063616c6c61626c65206279206f776e6572000000000000000000005f82015250565b5f6142396016836132ef565b915061424482614205565b602082019050919050565b5f6020820190508181035f8301526142668161422d565b9050919050565b5f82825260208201905092915050565b5f614287826140e2565b614291818561426d565b93506142a18185602086016132ff565b6142aa8161330d565b840191505092915050565b5f6080820190506142c85f830187613403565b6142d56020830186613403565b6142e26040830185613493565b81810360608301526142f4818461427d565b905095945050505050565b5f8151905061430d8161325d565b92915050565b5f602082840312156143285761432761322a565b5b5f614335848285016142ff565b91505092915050565b7f43616e6e6f74207472616e7366657220746f2073656c660000000000000000005f82015250565b5f6143726017836132ef565b915061437d8261433e565b602082019050919050565b5f6020820190508181035f83015261439f81614366565b9050919050565b5f6143b082613375565b91506143bb83613375565b92508282039050818111156143d3576143d2613a96565b5b92915050565b7f4e487b71000000000000000000000000000000000000000000000000000000005f52603160045260245ffd5b61440f816132b2565b82525050565b602082015f8201516144295f850182614406565b50505050565b5f6020820190506144425f830184614415565b92915050565b5f61445282613375565b915061445d83613375565b92508261446d5761446c613bd4565b5b828204905092915050565b5f61448282613375565b915061448d83613375565b925082820261449b81613375565b915082820484148315176144b2576144b1613a96565b5b509291505056fe68747470733a2f2f676174657761792e70696e6174612e636c6f75642f697066732f6261666b72656968707a7a77323562687072676e646f776e726636773779336f667762706a7a6f66677274657a337776747177696537326a697571a2646970667358221220953378e3e0cf4b95925e66736f736ea928bd434844f13736e599a88e6c88838064736f6c634300081e0033",
			"opcodes": "PUSH1 0x80 PUSH1 0x40 MSTORE PUSH20 0x9DDFACA8183C41AD55329BDEED9F6A8D53168B1B PUSH1 0xF PUSH0 PUSH2 0x100 EXP DUP2 SLOAD DUP2 PUSH20 0xFFFFFFFFFFFFFFFFFFFFFFFFFFFFFFFFFFFFFFFF MUL NOT AND SWAP1 DUP4 PUSH20 0xFFFFFFFFFFFFFFFFFFFFFFFFFFFFFFFFFFFFFFFF AND MUL OR SWAP1 SSTORE POP PUSH32 0x787D74CAEA10B2B357790D5B5247C2F63D1D91572A9846F780606E4D953677AE PUSH0 SHL PUSH1 0x10 SSTORE PUSH3 0x30D40 PUSH1 0x12 PUSH0 PUSH2 0x100 EXP DUP2 SLOAD DUP2 PUSH4 0xFFFFFFFF MUL NOT AND SWAP1 DUP4 PUSH4 0xFFFFFFFF AND MUL OR SWAP1 SSTORE POP PUSH1 0x3 PUSH1 0x12 PUSH1 0x4 PUSH2 0x100 EXP DUP2 SLOAD DUP2 PUSH2 0xFFFF MUL NOT AND SWAP1 DUP4 PUSH2 0xFFFF AND MUL OR SWAP1 SSTORE POP PUSH1 0x1 PUSH1 0x12 PUSH1 0x6 PUSH2 0x100 EXP DUP2 SLOAD DUP2 PUSH4 0xFFFFFFFF MUL NOT AND SWAP1 DUP4 PUSH4 0xFFFFFFFF AND MUL OR SWAP1 SSTORE POP PUSH1 0x1 PUSH1 0x13 SSTORE PUSH7 0x38D7EA4C68000 PUSH1 0x14 SSTORE CALLVALUE DUP1 ISZERO PUSH2 0xFC JUMPI PUSH0 PUSH0 REVERT JUMPDEST POP PUSH1 0x40 MLOAD PUSH2 0x51B8 CODESIZE SUB DUP1 PUSH2 0x51B8 DUP4 CODECOPY DUP2 DUP2 ADD PUSH1 0x40 MSTORE DUP2 ADD SWAP1 PUSH2 0x11E SWAP2 SWAP1 PUSH2 0x83E JUMP JUMPDEST PUSH1 0xF PUSH0 SWAP1 SLOAD SWAP1 PUSH2 0x100 EXP SWAP1 DIV PUSH20 0xFFFFFFFFFFFFFFFFFFFFFFFFFFFFFFFFFFFFFFFF AND CALLER DUP1 PUSH0 PUSH1 0x40 MLOAD DUP1 PUSH1 0x40 ADD PUSH1 0x40 MSTORE DUP1 PUSH1 0x6 DUP2 MSTORE PUSH1 0x20 ADD PUSH32 0x585944424F580000000000000000000000000000000000000000000000000000 DUP2 MSTORE POP PUSH1 0x40 MLOAD DUP1 PUSH1 0x40 ADD PUSH1 0x40 MSTORE DUP1 PUSH1 0x3 DUP2 MSTORE PUSH1 0x20 ADD PUSH32 0x5842580000000000000000000000000000000000000000000000000000000000 DUP2 MSTORE POP DUP2 PUSH0 SWAP1 DUP2 PUSH2 0x1BD SWAP2 SWAP1 PUSH2 0xAB0 JUMP JUMPDEST POP DUP1 PUSH1 0x1 SWAP1 DUP2 PUSH2 0x1CD SWAP2 SWAP1 PUSH2 0xAB0 JUMP JUMPDEST POP POP POP PUSH0 PUSH20 0xFFFFFFFFFFFFFFFFFFFFFFFFFFFFFFFFFFFFFFFF AND DUP3 PUSH20 0xFFFFFFFFFFFFFFFFFFFFFFFFFFFFFFFFFFFFFFFF AND SUB PUSH2 0x23E JUMPI PUSH1 0x40 MLOAD PUSH32 0x8C379A000000000000000000000000000000000000000000000000000000000 DUP2 MSTORE PUSH1 0x4 ADD PUSH2 0x235 SWAP1 PUSH2 0xBD9 JUMP JUMPDEST PUSH1 0x40 MLOAD DUP1 SWAP2 SUB SWAP1 REVERT JUMPDEST DUP2 PUSH1 0xA PUSH0 PUSH2 0x100 EXP DUP2 SLOAD DUP2 PUSH20 0xFFFFFFFFFFFFFFFFFFFFFFFFFFFFFFFFFFFFFFFF MUL NOT AND SWAP1 DUP4 PUSH20 0xFFFFFFFFFFFFFFFFFFFFFFFFFFFFFFFFFFFFFFFF AND MUL OR SWAP1 SSTORE POP PUSH0 PUSH20 0xFFFFFFFFFFFFFFFFFFFFFFFFFFFFFFFFFFFFFFFF AND DUP2 PUSH20 0xFFFFFFFFFFFFFFFFFFFFFFFFFFFFFFFFFFFFFFFF AND EQ PUSH2 0x2C1 JUMPI PUSH2 0x2C0 DUP2 PUSH2 0x64F PUSH1 0x20 SHL PUSH1 0x20 SHR JUMP JUMPDEST JUMPDEST POP POP POP PUSH0 PUSH20 0xFFFFFFFFFFFFFFFFFFFFFFFFFFFFFFFFFFFFFFFF AND DUP2 PUSH20 0xFFFFFFFFFFFFFFFFFFFFFFFFFFFFFFFFFFFFFFFF AND SUB PUSH2 0x329 JUMPI PUSH1 0x40 MLOAD PUSH32 0xD92E233D00000000000000000000000000000000000000000000000000000000 DUP2 MSTORE PUSH1 0x4 ADD PUSH1 0x40 MLOAD DUP1 SWAP2 SUB SWAP1 REVERT JUMPDEST DUP1 PUSH1 0xC PUSH0 PUSH2 0x100 EXP DUP2 SLOAD DUP2 PUSH20 0xFFFFFFFFFFFFFFFFFFFFFFFFFFFFFFFFFFFFFFFF MUL NOT AND SWAP1 DUP4 PUSH20 0xFFFFFFFFFFFFFFFFFFFFFFFFFFFFFFFFFFFFFFFF AND MUL OR SWAP1 SSTORE POP POP PUSH1 0x1 PUSH2 0x388 PUSH2 0x37D PUSH2 0x77B PUSH1 0x20 SHL PUSH1 0x20 SHR JUMP JUMPDEST PUSH2 0x7A4 PUSH1 0x20 SHL PUSH1 0x20 SHR JUMP JUMPDEST PUSH0 ADD DUP2 SWAP1 SSTORE POP PUSH1 0x1A PUSH1 0x40 MLOAD DUP1 PUSH1 0x40 ADD PUSH1 0x40 MSTORE DUP1 PUSH0 PUSH1 0xFF AND DUP2 MSTORE PUSH1 0x20 ADD PUSH1 0x64 PUSH2 0xFFFF AND DUP2 MSTORE POP SWAP1 DUP1 PUSH1 0x1 DUP2 SLOAD ADD DUP1 DUP3 SSTORE DUP1 SWAP2 POP POP PUSH1 0x1 SWAP1 SUB SWAP1 PUSH0 MSTORE PUSH1 0x20 PUSH0 KECCAK256 ADD PUSH0 SWAP1 SWAP2 SWAP1 SWAP2 SWAP1 SWAP2 POP PUSH0 DUP3 ADD MLOAD DUP2 PUSH0 ADD PUSH0 PUSH2 0x100 EXP DUP2 SLOAD DUP2 PUSH1 0xFF MUL NOT AND SWAP1 DUP4 PUSH1 0xFF AND MUL OR SWAP1 SSTORE POP PUSH1 0x20 DUP3 ADD MLOAD DUP2 PUSH0 ADD PUSH1 0x1 PUSH2 0x100 EXP DUP2 SLOAD DUP2 PUSH2 0xFFFF MUL NOT AND SWAP1 DUP4 PUSH2 0xFFFF AND MUL OR SWAP1 SSTORE POP POP POP PUSH1 0x1A PUSH1 0x40 MLOAD DUP1 PUSH1 0x40 ADD PUSH1 0x40 MSTORE DUP1 PUSH1 0x1 PUSH1 0xFF AND DUP2 MSTORE PUSH1 0x20 ADD PUSH2 0x384 PUSH2 0xFFFF AND DUP2 MSTORE POP SWAP1 DUP1 PUSH1 0x1 DUP2 SLOAD ADD DUP1 DUP3 SSTORE DUP1 SWAP2 POP POP PUSH1 0x1 SWAP1 SUB SWAP1 PUSH0 MSTORE PUSH1 0x20 PUSH0 KECCAK256 ADD PUSH0 SWAP1 SWAP2 SWAP1 SWAP2 SWAP1 SWAP2 POP PUSH0 DUP3 ADD MLOAD DUP2 PUSH0 ADD PUSH0 PUSH2 0x100 EXP DUP2 SLOAD DUP2 PUSH1 0xFF MUL NOT AND SWAP1 DUP4 PUSH1 0xFF AND MUL OR SWAP1 SSTORE POP PUSH1 0x20 DUP3 ADD MLOAD DUP2 PUSH0 ADD PUSH1 0x1 PUSH2 0x100 EXP DUP2 SLOAD DUP2 PUSH2 0xFFFF MUL NOT AND SWAP1 DUP4 PUSH2 0xFFFF AND MUL OR SWAP1 SSTORE POP POP POP PUSH1 0x1A PUSH1 0x40 MLOAD DUP1 PUSH1 0x40 ADD PUSH1 0x40 MSTORE DUP1 PUSH1 0x2 PUSH1 0xFF AND DUP2 MSTORE PUSH1 0x20 ADD PUSH2 0xBB8 PUSH2 0xFFFF AND DUP2 MSTORE POP SWAP1 DUP1 PUSH1 0x1 DUP2 SLOAD ADD DUP1 DUP3 SSTORE DUP1 SWAP2 POP POP PUSH1 0x1 SWAP1 SUB SWAP1 PUSH0 MSTORE PUSH1 0x20 PUSH0 KECCAK256 ADD PUSH0 SWAP1 SWAP2 SWAP1 SWAP2 SWAP1 SWAP2 POP PUSH0 DUP3 ADD MLOAD DUP2 PUSH0 ADD PUSH0 PUSH2 0x100 EXP DUP2 SLOAD DUP2 PUSH1 0xFF MUL NOT AND SWAP1 DUP4 PUSH1 0xFF AND MUL OR SWAP1 SSTORE POP PUSH1 0x20 DUP3 ADD MLOAD DUP2 PUSH0 ADD PUSH1 0x1 PUSH2 0x100 EXP DUP2 SLOAD DUP2 PUSH2 0xFFFF MUL NOT AND SWAP1 DUP4 PUSH2 0xFFFF AND MUL OR SWAP1 SSTORE POP POP POP PUSH1 0x1A PUSH1 0x40 MLOAD DUP1 PUSH1 0x40 ADD PUSH1 0x40 MSTORE DUP1 PUSH1 0x3 PUSH1 0xFF AND DUP2 MSTORE PUSH1 0x20 ADD PUSH2 0x1770 PUSH2 0xFFFF AND DUP2 MSTORE POP SWAP1 DUP1 PUSH1 0x1 DUP2 SLOAD ADD DUP1 DUP3 SSTORE DUP1 SWAP2 POP POP PUSH1 0x1 SWAP1 SUB SWAP1 PUSH0 MSTORE PUSH1 0x20 PUSH0 KECCAK256 ADD PUSH0 SWAP1 SWAP2 SWAP1 SWAP2 SWAP1 SWAP2 POP PUSH0 DUP3 ADD MLOAD DUP2 PUSH0 ADD PUSH0 PUSH2 0x100 EXP DUP2 SLOAD DUP2 PUSH1 0xFF MUL NOT AND SWAP1 DUP4 PUSH1 0xFF AND MUL OR SWAP1 SSTORE POP PUSH1 0x20 DUP3 ADD MLOAD DUP2 PUSH0 ADD PUSH1 0x1 PUSH2 0x100 EXP DUP2 SLOAD DUP2 PUSH2 0xFFFF MUL NOT AND SWAP1 DUP4 PUSH2 0xFFFF AND MUL OR SWAP1 SSTORE POP POP POP PUSH1 0xF PUSH0 SWAP1 SLOAD SWAP1 PUSH2 0x100 EXP SWAP1 DIV PUSH20 0xFFFFFFFFFFFFFFFFFFFFFFFFFFFFFFFFFFFFFFFF AND PUSH1 0xE PUSH0 PUSH2 0x100 EXP DUP2 SLOAD DUP2 PUSH20 0xFFFFFFFFFFFFFFFFFFFFFFFFFFFFFFFFFFFFFFFF MUL NOT AND SWAP1 DUP4 PUSH20 0xFFFFFFFFFFFFFFFFFFFFFFFFFFFFFFFFFFFFFFFF AND MUL OR SWAP1 SSTORE POP DUP2 PUSH1 0x11 DUP2 SWAP1 SSTORE POP DUP1 PUSH1 0xD PUSH0 PUSH2 0x100 EXP DUP2 SLOAD DUP2 PUSH20 0xFFFFFFFFFFFFFFFFFFFFFFFFFFFFFFFFFFFFFFFF MUL NOT AND SWAP1 DUP4 PUSH20 0xFFFFFFFFFFFFFFFFFFFFFFFFFFFFFFFFFFFFFFFF AND MUL OR SWAP1 SSTORE POP POP POP PUSH2 0xC5F JUMP JUMPDEST CALLER PUSH20 0xFFFFFFFFFFFFFFFFFFFFFFFFFFFFFFFFFFFFFFFF AND DUP2 PUSH20 0xFFFFFFFFFFFFFFFFFFFFFFFFFFFFFFFFFFFFFFFF AND SUB PUSH2 0x6BD JUMPI PUSH1 0x40 MLOAD PUSH32 0x8C379A000000000000000000000000000000000000000000000000000000000 DUP2 MSTORE PUSH1 0x4 ADD PUSH2 0x6B4 SWAP1 PUSH2 0xC41 JUMP JUMPDEST PUSH1 0x40 MLOAD DUP1 SWAP2 SUB SWAP1 REVERT JUMPDEST DUP1 PUSH1 0xB PUSH0 PUSH2 0x100 EXP DUP2 SLOAD DUP2 PUSH20 0xFFFFFFFFFFFFFFFFFFFFFFFFFFFFFFFFFFFFFFFF MUL NOT AND SWAP1 DUP4 PUSH20 0xFFFFFFFFFFFFFFFFFFFFFFFFFFFFFFFFFFFFFFFF AND MUL OR SWAP1 SSTORE POP DUP1 PUSH20 0xFFFFFFFFFFFFFFFFFFFFFFFFFFFFFFFFFFFFFFFF AND PUSH1 0xA PUSH0 SWAP1 SLOAD SWAP1 PUSH2 0x100 EXP SWAP1 DIV PUSH20 0xFFFFFFFFFFFFFFFFFFFFFFFFFFFFFFFFFFFFFFFF AND PUSH20 0xFFFFFFFFFFFFFFFFFFFFFFFFFFFFFFFFFFFFFFFF AND PUSH32 0xED8889F560326EB138920D842192F0EB3DD22B4F139C87A2C57538E05BAE1278 PUSH1 0x40 MLOAD PUSH1 0x40 MLOAD DUP1 SWAP2 SUB SWAP1 LOG3 POP JUMP JUMPDEST PUSH0 PUSH32 0x9B779B17422D0DF92223018B32B4D1FA46E071723D6817E2486D003BECC55F00 PUSH0 SHL SWAP1 POP SWAP1 JUMP JUMPDEST PUSH0 DUP2 SWAP1 POP SWAP2 SWAP1 POP JUMP JUMPDEST PUSH0 PUSH0 REVERT JUMPDEST PUSH0 DUP2 SWAP1 POP SWAP2 SWAP1 POP JUMP JUMPDEST PUSH2 0x7C3 DUP2 PUSH2 0x7B1 JUMP JUMPDEST DUP2 EQ PUSH2 0x7CD JUMPI PUSH0 PUSH0 REVERT JUMPDEST POP JUMP JUMPDEST PUSH0 DUP2 MLOAD SWAP1 POP PUSH2 0x7DE DUP2 PUSH2 0x7BA JUMP JUMPDEST SWAP3 SWAP2 POP POP JUMP JUMPDEST PUSH0 PUSH20 0xFFFFFFFFFFFFFFFFFFFFFFFFFFFFFFFFFFFFFFFF DUP3 AND SWAP1 POP SWAP2 SWAP1 POP JUMP JUMPDEST PUSH0 PUSH2 0x80D DUP3 PUSH2 0x7E4 JUMP JUMPDEST SWAP1 POP SWAP2 SWAP1 POP JUMP JUMPDEST PUSH2 0x81D DUP2 PUSH2 0x803 JUMP JUMPDEST DUP2 EQ PUSH2 0x827 JUMPI PUSH0 PUSH0 REVERT JUMPDEST POP JUMP JUMPDEST PUSH0 DUP2 MLOAD SWAP1 POP PUSH2 0x838 DUP2 PUSH2 0x814 JUMP JUMPDEST SWAP3 SWAP2 POP POP JUMP JUMPDEST PUSH0 PUSH0 PUSH1 0x40 DUP4 DUP6 SUB SLT ISZERO PUSH2 0x854 JUMPI PUSH2 0x853 PUSH2 0x7AD JUMP JUMPDEST JUMPDEST PUSH0 PUSH2 0x861 DUP6 DUP3 DUP7 ADD PUSH2 0x7D0 JUMP JUMPDEST SWAP3 POP POP PUSH1 0x20 PUSH2 0x872 DUP6 DUP3 DUP7 ADD PUSH2 0x82A JUMP JUMPDEST SWAP2 POP POP SWAP3 POP SWAP3 SWAP1 POP JUMP JUMPDEST PUSH0 DUP2 MLOAD SWAP1 POP SWAP2 SWAP1 POP JUMP JUMPDEST PUSH32 0x4E487B7100000000000000000000000000000000000000000000000000000000 PUSH0 MSTORE PUSH1 0x41 PUSH1 0x4 MSTORE PUSH1 0x24 PUSH0 REVERT JUMPDEST PUSH32 0x4E487B7100000000000000000000000000000000000000000000000000000000 PUSH0 MSTORE PUSH1 0x22 PUSH1 0x4 MSTORE PUSH1 0x24 PUSH0 REVERT JUMPDEST PUSH0 PUSH1 0x2 DUP3 DIV SWAP1 POP PUSH1 0x1 DUP3 AND DUP1 PUSH2 0x8F7 JUMPI PUSH1 0x7F DUP3 AND SWAP2 POP JUMPDEST PUSH1 0x20 DUP3 LT DUP2 SUB PUSH2 0x90A JUMPI PUSH2 0x909 PUSH2 0x8B3 JUMP JUMPDEST JUMPDEST POP SWAP2 SWAP1 POP JUMP JUMPDEST PUSH0 DUP2 SWAP1 POP DUP2 PUSH0 MSTORE PUSH1 0x20 PUSH0 KECCAK256 SWAP1 POP SWAP2 SWAP1 POP JUMP JUMPDEST PUSH0 PUSH1 0x20 PUSH1 0x1F DUP4 ADD DIV SWAP1 POP SWAP2 SWAP1 POP JUMP JUMPDEST PUSH0 DUP3 DUP3 SHL SWAP1 POP SWAP3 SWAP2 POP POP JUMP JUMPDEST PUSH0 PUSH1 0x8 DUP4 MUL PUSH2 0x96C PUSH32 0xFFFFFFFFFFFFFFFFFFFFFFFFFFFFFFFFFFFFFFFFFFFFFFFFFFFFFFFFFFFFFFFF DUP3 PUSH2 0x931 JUMP JUMPDEST PUSH2 0x976 DUP7 DUP4 PUSH2 0x931 JUMP JUMPDEST SWAP6 POP DUP1 NOT DUP5 AND SWAP4 POP DUP1 DUP7 AND DUP5 OR SWAP3 POP POP POP SWAP4 SWAP3 POP POP POP JUMP JUMPDEST PUSH0 DUP2 SWAP1 POP SWAP2 SWAP1 POP JUMP JUMPDEST PUSH0 PUSH2 0x9B1 PUSH2 0x9AC PUSH2 0x9A7 DUP5 PUSH2 0x7B1 JUMP JUMPDEST PUSH2 0x98E JUMP JUMPDEST PUSH2 0x7B1 JUMP JUMPDEST SWAP1 POP SWAP2 SWAP1 POP JUMP JUMPDEST PUSH0 DUP2 SWAP1 POP SWAP2 SWAP1 POP JUMP JUMPDEST PUSH2 0x9CA DUP4 PUSH2 0x997 JUMP JUMPDEST PUSH2 0x9DE PUSH2 0x9D6 DUP3 PUSH2 0x9B8 JUMP JUMPDEST DUP5 DUP5 SLOAD PUSH2 0x93D JUMP JUMPDEST DUP3 SSTORE POP POP POP POP JUMP JUMPDEST PUSH0 PUSH0 SWAP1 POP SWAP1 JUMP JUMPDEST PUSH2 0x9F5 PUSH2 0x9E6 JUMP JUMPDEST PUSH2 0xA00 DUP2 DUP5 DUP5 PUSH2 0x9C1 JUMP JUMPDEST POP POP POP JUMP JUMPDEST JUMPDEST DUP2 DUP2 LT ISZERO PUSH2 0xA23 JUMPI PUSH2 0xA18 PUSH0 DUP3 PUSH2 0x9ED JUMP JUMPDEST PUSH1 0x1 DUP2 ADD SWAP1 POP PUSH2 0xA06 JUMP JUMPDEST POP POP JUMP JUMPDEST PUSH1 0x1F DUP3 GT ISZERO PUSH2 0xA68 JUMPI PUSH2 0xA39 DUP2 PUSH2 0x910 JUMP JUMPDEST PUSH2 0xA42 DUP5 PUSH2 0x922 JUMP JUMPDEST DUP2 ADD PUSH1 0x20 DUP6 LT ISZERO PUSH2 0xA51 JUMPI DUP2 SWAP1 POP JUMPDEST PUSH2 0xA65 PUSH2 0xA5D DUP6 PUSH2 0x922 JUMP JUMPDEST DUP4 ADD DUP3 PUSH2 0xA05 JUMP JUMPDEST POP POP JUMPDEST POP POP POP JUMP JUMPDEST PUSH0 DUP3 DUP3 SHR SWAP1 POP SWAP3 SWAP2 POP POP JUMP JUMPDEST PUSH0 PUSH2 0xA88 PUSH0 NOT DUP5 PUSH1 0x8 MUL PUSH2 0xA6D JUMP JUMPDEST NOT DUP1 DUP4 AND SWAP2 POP POP SWAP3 SWAP2 POP POP JUMP JUMPDEST PUSH0 PUSH2 0xAA0 DUP4 DUP4 PUSH2 0xA79 JUMP JUMPDEST SWAP2 POP DUP3 PUSH1 0x2 MUL DUP3 OR SWAP1 POP SWAP3 SWAP2 POP POP JUMP JUMPDEST PUSH2 0xAB9 DUP3 PUSH2 0x87C JUMP JUMPDEST PUSH8 0xFFFFFFFFFFFFFFFF DUP2 GT ISZERO PUSH2 0xAD2 JUMPI PUSH2 0xAD1 PUSH2 0x886 JUMP JUMPDEST JUMPDEST PUSH2 0xADC DUP3 SLOAD PUSH2 0x8E0 JUMP JUMPDEST PUSH2 0xAE7 DUP3 DUP3 DUP6 PUSH2 0xA27 JUMP JUMPDEST PUSH0 PUSH1 0x20 SWAP1 POP PUSH1 0x1F DUP4 GT PUSH1 0x1 DUP2 EQ PUSH2 0xB18 JUMPI PUSH0 DUP5 ISZERO PUSH2 0xB06 JUMPI DUP3 DUP8 ADD MLOAD SWAP1 POP JUMPDEST PUSH2 0xB10 DUP6 DUP3 PUSH2 0xA95 JUMP JUMPDEST DUP7 SSTORE POP PUSH2 0xB77 JUMP JUMPDEST PUSH1 0x1F NOT DUP5 AND PUSH2 0xB26 DUP7 PUSH2 0x910 JUMP JUMPDEST PUSH0 JUMPDEST DUP3 DUP2 LT ISZERO PUSH2 0xB4D JUMPI DUP5 DUP10 ADD MLOAD DUP3 SSTORE PUSH1 0x1 DUP3 ADD SWAP2 POP PUSH1 0x20 DUP6 ADD SWAP5 POP PUSH1 0x20 DUP2 ADD SWAP1 POP PUSH2 0xB28 JUMP JUMPDEST DUP7 DUP4 LT ISZERO PUSH2 0xB6A JUMPI DUP5 DUP10 ADD MLOAD PUSH2 0xB66 PUSH1 0x1F DUP10 AND DUP3 PUSH2 0xA79 JUMP JUMPDEST DUP4 SSTORE POP JUMPDEST PUSH1 0x1 PUSH1 0x2 DUP9 MUL ADD DUP9 SSTORE POP POP POP JUMPDEST POP POP POP POP POP POP JUMP JUMPDEST PUSH0 DUP3 DUP3 MSTORE PUSH1 0x20 DUP3 ADD SWAP1 POP SWAP3 SWAP2 POP POP JUMP JUMPDEST PUSH32 0x43616E6E6F7420736574206F776E657220746F207A65726F0000000000000000 PUSH0 DUP3 ADD MSTORE POP JUMP JUMPDEST PUSH0 PUSH2 0xBC3 PUSH1 0x18 DUP4 PUSH2 0xB7F JUMP JUMPDEST SWAP2 POP PUSH2 0xBCE DUP3 PUSH2 0xB8F JUMP JUMPDEST PUSH1 0x20 DUP3 ADD SWAP1 POP SWAP2 SWAP1 POP JUMP JUMPDEST PUSH0 PUSH1 0x20 DUP3 ADD SWAP1 POP DUP2 DUP2 SUB PUSH0 DUP4 ADD MSTORE PUSH2 0xBF0 DUP2 PUSH2 0xBB7 JUMP JUMPDEST SWAP1 POP SWAP2 SWAP1 POP JUMP JUMPDEST PUSH32 0x43616E6E6F74207472616E7366657220746F2073656C66000000000000000000 PUSH0 DUP3 ADD MSTORE POP JUMP JUMPDEST PUSH0 PUSH2 0xC2B PUSH1 0x17 DUP4 PUSH2 0xB7F JUMP JUMPDEST SWAP2 POP PUSH2 0xC36 DUP3 PUSH2 0xBF7 JUMP JUMPDEST PUSH1 0x20 DUP3 ADD SWAP1 POP SWAP2 SWAP1 POP JUMP JUMPDEST PUSH0 PUSH1 0x20 DUP3 ADD SWAP1 POP DUP2 DUP2 SUB PUSH0 DUP4 ADD MSTORE PUSH2 0xC58 DUP2 PUSH2 0xC1F JUMP JUMPDEST SWAP1 POP SWAP2 SWAP1 POP JUMP JUMPDEST PUSH2 0x454C DUP1 PUSH2 0xC6C PUSH0 CODECOPY PUSH0 RETURN INVALID PUSH1 0x80 PUSH1 0x40 MSTORE PUSH1 0x4 CALLDATASIZE LT PUSH2 0x23A JUMPI PUSH0 CALLDATALOAD PUSH1 0xE0 SHR DUP1 PUSH4 0x7C637ED6 GT PUSH2 0x12D JUMPI DUP1 PUSH4 0xB0FB162F GT PUSH2 0xAA JUMPI DUP1 PUSH4 0xDC4C90D3 GT PUSH2 0x6E JUMPI DUP1 PUSH4 0xDC4C90D3 EQ PUSH2 0x88F JUMPI DUP1 PUSH4 0xE985E9C5 EQ PUSH2 0x8B9 JUMPI DUP1 PUSH4 0xEC342AD0 EQ PUSH2 0x8F5 JUMPI DUP1 PUSH4 0xF2FDE38B EQ PUSH2 0x91F JUMPI DUP1 PUSH4 0xFB449334 EQ PUSH2 0x947 JUMPI PUSH2 0x23A JUMP JUMPDEST DUP1 PUSH4 0xB0FB162F EQ PUSH2 0x79D JUMPI DUP1 PUSH4 0xB1E5E2B7 EQ PUSH2 0x7C7 JUMPI DUP1 PUSH4 0xB88D4FDE EQ PUSH2 0x7EF JUMPI DUP1 PUSH4 0xC87B56DD EQ PUSH2 0x817 JUMPI DUP1 PUSH4 0xDA9F2FAB EQ PUSH2 0x853 JUMPI PUSH2 0x23A JUMP JUMPDEST DUP1 PUSH4 0x8EA98117 GT PUSH2 0xF1 JUMPI DUP1 PUSH4 0x8EA98117 EQ PUSH2 0x6CF JUMPI DUP1 PUSH4 0x95D89B41 EQ PUSH2 0x6F7 JUMPI DUP1 PUSH4 0x9ECCACF6 EQ PUSH2 0x721 JUMPI DUP1 PUSH4 0xA22CB465 EQ PUSH2 0x74B JUMPI DUP1 PUSH4 0xA6482858 EQ PUSH2 0x773 JUMPI PUSH2 0x23A JUMP JUMPDEST DUP1 PUSH4 0x7C637ED6 EQ PUSH2 0x5EB JUMPI DUP1 PUSH4 0x7CCFD7FC EQ PUSH2 0x615 JUMPI DUP1 PUSH4 0x88F4AE12 EQ PUSH2 0x63F JUMPI DUP1 PUSH4 0x8B58C569 EQ PUSH2 0x669 JUMPI DUP1 PUSH4 0x8DA5CB5B EQ PUSH2 0x6A5 JUMPI PUSH2 0x23A JUMP JUMPDEST DUP1 PUSH4 0x2F745C59 GT PUSH2 0x1BB JUMPI DUP1 PUSH4 0x532DC094 GT PUSH2 0x17F JUMPI DUP1 PUSH4 0x532DC094 EQ PUSH2 0x4F9 JUMPI DUP1 PUSH4 0x6352211E EQ PUSH2 0x535 JUMPI DUP1 PUSH4 0x70A08231 EQ PUSH2 0x571 JUMPI DUP1 PUSH4 0x79BA5097 EQ PUSH2 0x5AD JUMPI DUP1 PUSH4 0x7AEF6715 EQ PUSH2 0x5C3 JUMPI PUSH2 0x23A JUMP JUMPDEST DUP1 PUSH4 0x2F745C59 EQ PUSH2 0x425 JUMPI DUP1 PUSH4 0x41D7BDCB EQ PUSH2 0x461 JUMPI DUP1 PUSH4 0x42842E0E EQ PUSH2 0x48B JUMPI DUP1 PUSH4 0x479507BB EQ PUSH2 0x4B3 JUMPI DUP1 PUSH4 0x4F6CCCE7 EQ PUSH2 0x4BD JUMPI PUSH2 0x23A JUMP JUMPDEST DUP1 PUSH4 0x18EAC49C GT PUSH2 0x202 JUMPI DUP1 PUSH4 0x18EAC49C EQ PUSH2 0x332 JUMPI DUP1 PUSH4 0x1FE543E3 EQ PUSH2 0x36E JUMPI DUP1 PUSH4 0x21B571EA EQ PUSH2 0x396 JUMPI DUP1 PUSH4 0x23B872DD EQ PUSH2 0x3D3 JUMPI DUP1 PUSH4 0x24F74697 EQ PUSH2 0x3FB JUMPI PUSH2 0x23A JUMP JUMPDEST DUP1 PUSH4 0x1FFC9A7 EQ PUSH2 0x23E JUMPI DUP1 PUSH4 0x6FDDE03 EQ PUSH2 0x27A JUMPI DUP1 PUSH4 0x81812FC EQ PUSH2 0x2A4 JUMPI DUP1 PUSH4 0x95EA7B3 EQ PUSH2 0x2E0 JUMPI DUP1 PUSH4 0x18160DDD EQ PUSH2 0x308 JUMPI JUMPDEST PUSH0 PUSH0 REVERT JUMPDEST CALLVALUE DUP1 ISZERO PUSH2 0x249 JUMPI PUSH0 PUSH0 REVERT JUMPDEST POP PUSH2 0x264 PUSH1 0x4 DUP1 CALLDATASIZE SUB DUP2 ADD SWAP1 PUSH2 0x25F SWAP2 SWAP1 PUSH2 0x3287 JUMP JUMPDEST PUSH2 0x971 JUMP JUMPDEST PUSH1 0x40 MLOAD PUSH2 0x271 SWAP2 SWAP1 PUSH2 0x32CC JUMP JUMPDEST PUSH1 0x40 MLOAD DUP1 SWAP2 SUB SWAP1 RETURN JUMPDEST CALLVALUE DUP1 ISZERO PUSH2 0x285 JUMPI PUSH0 PUSH0 REVERT JUMPDEST POP PUSH2 0x28E PUSH2 0x9EA JUMP JUMPDEST PUSH1 0x40 MLOAD PUSH2 0x29B SWAP2 SWAP1 PUSH2 0x3355 JUMP JUMPDEST PUSH1 0x40 MLOAD DUP1 SWAP2 SUB SWAP1 RETURN JUMPDEST CALLVALUE DUP1 ISZERO PUSH2 0x2AF JUMPI PUSH0 PUSH0 REVERT JUMPDEST POP PUSH2 0x2CA PUSH1 0x4 DUP1 CALLDATASIZE SUB DUP2 ADD SWAP1 PUSH2 0x2C5 SWAP2 SWAP1 PUSH2 0x33A8 JUMP JUMPDEST PUSH2 0xA79 JUMP JUMPDEST PUSH1 0x40 MLOAD PUSH2 0x2D7 SWAP2 SWAP1 PUSH2 0x3412 JUMP JUMPDEST PUSH1 0x40 MLOAD DUP1 SWAP2 SUB SWAP1 RETURN JUMPDEST CALLVALUE DUP1 ISZERO PUSH2 0x2EB JUMPI PUSH0 PUSH0 REVERT JUMPDEST POP PUSH2 0x306 PUSH1 0x4 DUP1 CALLDATASIZE SUB DUP2 ADD SWAP1 PUSH2 0x301 SWAP2 SWAP1 PUSH2 0x3455 JUMP JUMPDEST PUSH2 0xA94 JUMP JUMPDEST STOP JUMPDEST CALLVALUE DUP1 ISZERO PUSH2 0x313 JUMPI PUSH0 PUSH0 REVERT JUMPDEST POP PUSH2 0x31C PUSH2 0xAAA JUMP JUMPDEST PUSH1 0x40 MLOAD PUSH2 0x329 SWAP2 SWAP1 PUSH2 0x34A2 JUMP JUMPDEST PUSH1 0x40 MLOAD DUP1 SWAP2 SUB SWAP1 RETURN JUMPDEST CALLVALUE DUP1 ISZERO PUSH2 0x33D JUMPI PUSH0 PUSH0 REVERT JUMPDEST POP PUSH2 0x358 PUSH1 0x4 DUP1 CALLDATASIZE SUB DUP2 ADD SWAP1 PUSH2 0x353 SWAP2 SWAP1 PUSH2 0x33A8 JUMP JUMPDEST PUSH2 0xAB6 JUMP JUMPDEST PUSH1 0x40 MLOAD PUSH2 0x365 SWAP2 SWAP1 PUSH2 0x32CC JUMP JUMPDEST PUSH1 0x40 MLOAD DUP1 SWAP2 SUB SWAP1 RETURN JUMPDEST CALLVALUE DUP1 ISZERO PUSH2 0x379 JUMPI PUSH0 PUSH0 REVERT JUMPDEST POP PUSH2 0x394 PUSH1 0x4 DUP1 CALLDATASIZE SUB DUP2 ADD SWAP1 PUSH2 0x38F SWAP2 SWAP1 PUSH2 0x351C JUMP JUMPDEST PUSH2 0xAD3 JUMP JUMPDEST STOP JUMPDEST CALLVALUE DUP1 ISZERO PUSH2 0x3A1 JUMPI PUSH0 PUSH0 REVERT JUMPDEST POP PUSH2 0x3BC PUSH1 0x4 DUP1 CALLDATASIZE SUB DUP2 ADD SWAP1 PUSH2 0x3B7 SWAP2 SWAP1 PUSH2 0x33A8 JUMP JUMPDEST PUSH2 0xB97 JUMP JUMPDEST PUSH1 0x40 MLOAD PUSH2 0x3CA SWAP3 SWAP2 SWAP1 PUSH2 0x35B0 JUMP JUMPDEST PUSH1 0x40 MLOAD DUP1 SWAP2 SUB SWAP1 RETURN JUMPDEST CALLVALUE DUP1 ISZERO PUSH2 0x3DE JUMPI PUSH0 PUSH0 REVERT JUMPDEST POP PUSH2 0x3F9 PUSH1 0x4 DUP1 CALLDATASIZE SUB DUP2 ADD SWAP1 PUSH2 0x3F4 SWAP2 SWAP1 PUSH2 0x35D7 JUMP JUMPDEST PUSH2 0xBDB JUMP JUMPDEST STOP JUMPDEST CALLVALUE DUP1 ISZERO PUSH2 0x406 JUMPI PUSH0 PUSH0 REVERT JUMPDEST POP PUSH2 0x40F PUSH2 0xCDA JUMP JUMPDEST PUSH1 0x40 MLOAD PUSH2 0x41C SWAP2 SWAP1 PUSH2 0x3645 JUMP JUMPDEST PUSH1 0x40 MLOAD DUP1 SWAP2 SUB SWAP1 RETURN JUMPDEST CALLVALUE DUP1 ISZERO PUSH2 0x430 JUMPI PUSH0 PUSH0 REVERT JUMPDEST POP PUSH2 0x44B PUSH1 0x4 DUP1 CALLDATASIZE SUB DUP2 ADD SWAP1 PUSH2 0x446 SWAP2 SWAP1 PUSH2 0x3455 JUMP JUMPDEST PUSH2 0xCEF JUMP JUMPDEST PUSH1 0x40 MLOAD PUSH2 0x458 SWAP2 SWAP1 PUSH2 0x34A2 JUMP JUMPDEST PUSH1 0x40 MLOAD DUP1 SWAP2 SUB SWAP1 RETURN JUMPDEST CALLVALUE DUP1 ISZERO PUSH2 0x46C JUMPI PUSH0 PUSH0 REVERT JUMPDEST POP PUSH2 0x475 PUSH2 0xD93 JUMP JUMPDEST PUSH1 0x40 MLOAD PUSH2 0x482 SWAP2 SWAP1 PUSH2 0x3355 JUMP JUMPDEST PUSH1 0x40 MLOAD DUP1 SWAP2 SUB SWAP1 RETURN JUMPDEST CALLVALUE DUP1 ISZERO PUSH2 0x496 JUMPI PUSH0 PUSH0 REVERT JUMPDEST POP PUSH2 0x4B1 PUSH1 0x4 DUP1 CALLDATASIZE SUB DUP2 ADD SWAP1 PUSH2 0x4AC SWAP2 SWAP1 PUSH2 0x35D7 JUMP JUMPDEST PUSH2 0xDCC JUMP JUMPDEST STOP JUMPDEST PUSH2 0x4BB PUSH2 0xDEB JUMP JUMPDEST STOP JUMPDEST CALLVALUE DUP1 ISZERO PUSH2 0x4C8 JUMPI PUSH0 PUSH0 REVERT JUMPDEST POP PUSH2 0x4E3 PUSH1 0x4 DUP1 CALLDATASIZE SUB DUP2 ADD SWAP1 PUSH2 0x4DE SWAP2 SWAP1 PUSH2 0x33A8 JUMP JUMPDEST PUSH2 0xE85 JUMP JUMPDEST PUSH1 0x40 MLOAD PUSH2 0x4F0 SWAP2 SWAP1 PUSH2 0x34A2 JUMP JUMPDEST PUSH1 0x40 MLOAD DUP1 SWAP2 SUB SWAP1 RETURN JUMPDEST CALLVALUE DUP1 ISZERO PUSH2 0x504 JUMPI PUSH0 PUSH0 REVERT JUMPDEST POP PUSH2 0x51F PUSH1 0x4 DUP1 CALLDATASIZE SUB DUP2 ADD SWAP1 PUSH2 0x51A SWAP2 SWAP1 PUSH2 0x33A8 JUMP JUMPDEST PUSH2 0xEF7 JUMP JUMPDEST PUSH1 0x40 MLOAD PUSH2 0x52C SWAP2 SWAP1 PUSH2 0x34A2 JUMP JUMPDEST PUSH1 0x40 MLOAD DUP1 SWAP2 SUB SWAP1 RETURN JUMPDEST CALLVALUE DUP1 ISZERO PUSH2 0x540 JUMPI PUSH0 PUSH0 REVERT JUMPDEST POP PUSH2 0x55B PUSH1 0x4 DUP1 CALLDATASIZE SUB DUP2 ADD SWAP1 PUSH2 0x556 SWAP2 SWAP1 PUSH2 0x33A8 JUMP JUMPDEST PUSH2 0xF0C JUMP JUMPDEST PUSH1 0x40 MLOAD PUSH2 0x568 SWAP2 SWAP1 PUSH2 0x3412 JUMP JUMPDEST PUSH1 0x40 MLOAD DUP1 SWAP2 SUB SWAP1 RETURN JUMPDEST CALLVALUE DUP1 ISZERO PUSH2 0x57C JUMPI PUSH0 PUSH0 REVERT JUMPDEST POP PUSH2 0x597 PUSH1 0x4 DUP1 CALLDATASIZE SUB DUP2 ADD SWAP1 PUSH2 0x592 SWAP2 SWAP1 PUSH2 0x365E JUMP JUMPDEST PUSH2 0xF1D JUMP JUMPDEST PUSH1 0x40 MLOAD PUSH2 0x5A4 SWAP2 SWAP1 PUSH2 0x34A2 JUMP JUMPDEST PUSH1 0x40 MLOAD DUP1 SWAP2 SUB SWAP1 RETURN JUMPDEST CALLVALUE DUP1 ISZERO PUSH2 0x5B8 JUMPI PUSH0 PUSH0 REVERT JUMPDEST POP PUSH2 0x5C1 PUSH2 0xFD3 JUMP JUMPDEST STOP JUMPDEST CALLVALUE DUP1 ISZERO PUSH2 0x5CE JUMPI PUSH0 PUSH0 REVERT JUMPDEST POP PUSH2 0x5E9 PUSH1 0x4 DUP1 CALLDATASIZE SUB DUP2 ADD SWAP1 PUSH2 0x5E4 SWAP2 SWAP1 PUSH2 0x365E JUMP JUMPDEST PUSH2 0x1164 JUMP JUMPDEST STOP JUMPDEST CALLVALUE DUP1 ISZERO PUSH2 0x5F6 JUMPI PUSH0 PUSH0 REVERT JUMPDEST POP PUSH2 0x5FF PUSH2 0x1214 JUMP JUMPDEST PUSH1 0x40 MLOAD PUSH2 0x60C SWAP2 SWAP1 PUSH2 0x3355 JUMP JUMPDEST PUSH1 0x40 MLOAD DUP1 SWAP2 SUB SWAP1 RETURN JUMPDEST CALLVALUE DUP1 ISZERO PUSH2 0x620 JUMPI PUSH0 PUSH0 REVERT JUMPDEST POP PUSH2 0x629 PUSH2 0x124D JUMP JUMPDEST PUSH1 0x40 MLOAD PUSH2 0x636 SWAP2 SWAP1 PUSH2 0x3645 JUMP JUMPDEST PUSH1 0x40 MLOAD DUP1 SWAP2 SUB SWAP1 RETURN JUMPDEST CALLVALUE DUP1 ISZERO PUSH2 0x64A JUMPI PUSH0 PUSH0 REVERT JUMPDEST POP PUSH2 0x653 PUSH2 0x1263 JUMP JUMPDEST PUSH1 0x40 MLOAD PUSH2 0x660 SWAP2 SWAP1 PUSH2 0x34A2 JUMP JUMPDEST PUSH1 0x40 MLOAD DUP1 SWAP2 SUB SWAP1 RETURN JUMPDEST CALLVALUE DUP1 ISZERO PUSH2 0x674 JUMPI PUSH0 PUSH0 REVERT JUMPDEST POP PUSH2 0x68F PUSH1 0x4 DUP1 CALLDATASIZE SUB DUP2 ADD SWAP1 PUSH2 0x68A SWAP2 SWAP1 PUSH2 0x33A8 JUMP JUMPDEST PUSH2 0x1269 JUMP JUMPDEST PUSH1 0x40 MLOAD PUSH2 0x69C SWAP2 SWAP1 PUSH2 0x3689 JUMP JUMPDEST PUSH1 0x40 MLOAD DUP1 SWAP2 SUB SWAP1 RETURN JUMPDEST CALLVALUE DUP1 ISZERO PUSH2 0x6B0 JUMPI PUSH0 PUSH0 REVERT JUMPDEST POP PUSH2 0x6B9 PUSH2 0x1286 JUMP JUMPDEST PUSH1 0x40 MLOAD PUSH2 0x6C6 SWAP2 SWAP1 PUSH2 0x3412 JUMP JUMPDEST PUSH1 0x40 MLOAD DUP1 SWAP2 SUB SWAP1 RETURN JUMPDEST CALLVALUE DUP1 ISZERO PUSH2 0x6DA JUMPI PUSH0 PUSH0 REVERT JUMPDEST POP PUSH2 0x6F5 PUSH1 0x4 DUP1 CALLDATASIZE SUB DUP2 ADD SWAP1 PUSH2 0x6F0 SWAP2 SWAP1 PUSH2 0x365E JUMP JUMPDEST PUSH2 0x12AE JUMP JUMPDEST STOP JUMPDEST CALLVALUE DUP1 ISZERO PUSH2 0x702 JUMPI PUSH0 PUSH0 REVERT JUMPDEST POP PUSH2 0x70B PUSH2 0x148B JUMP JUMPDEST PUSH1 0x40 MLOAD PUSH2 0x718 SWAP2 SWAP1 PUSH2 0x3355 JUMP JUMPDEST PUSH1 0x40 MLOAD DUP1 SWAP2 SUB SWAP1 RETURN JUMPDEST CALLVALUE DUP1 ISZERO PUSH2 0x72C JUMPI PUSH0 PUSH0 REVERT JUMPDEST POP PUSH2 0x735 PUSH2 0x151B JUMP JUMPDEST PUSH1 0x40 MLOAD PUSH2 0x742 SWAP2 SWAP1 PUSH2 0x36FD JUMP JUMPDEST PUSH1 0x40 MLOAD DUP1 SWAP2 SUB SWAP1 RETURN JUMPDEST CALLVALUE DUP1 ISZERO PUSH2 0x756 JUMPI PUSH0 PUSH0 REVERT JUMPDEST POP PUSH2 0x771 PUSH1 0x4 DUP1 CALLDATASIZE SUB DUP2 ADD SWAP1 PUSH2 0x76C SWAP2 SWAP1 PUSH2 0x3740 JUMP JUMPDEST PUSH2 0x1540 JUMP JUMPDEST STOP JUMPDEST CALLVALUE DUP1 ISZERO PUSH2 0x77E JUMPI PUSH0 PUSH0 REVERT JUMPDEST POP PUSH2 0x787 PUSH2 0x1556 JUMP JUMPDEST PUSH1 0x40 MLOAD PUSH2 0x794 SWAP2 SWAP1 PUSH2 0x34A2 JUMP JUMPDEST PUSH1 0x40 MLOAD DUP1 SWAP2 SUB SWAP1 RETURN JUMPDEST CALLVALUE DUP1 ISZERO PUSH2 0x7A8 JUMPI PUSH0 PUSH0 REVERT JUMPDEST POP PUSH2 0x7B1 PUSH2 0x155C JUMP JUMPDEST PUSH1 0x40 MLOAD PUSH2 0x7BE SWAP2 SWAP1 PUSH2 0x377E JUMP JUMPDEST PUSH1 0x40 MLOAD DUP1 SWAP2 SUB SWAP1 RETURN JUMPDEST CALLVALUE DUP1 ISZERO PUSH2 0x7D2 JUMPI PUSH0 PUSH0 REVERT JUMPDEST POP PUSH2 0x7ED PUSH1 0x4 DUP1 CALLDATASIZE SUB DUP2 ADD SWAP1 PUSH2 0x7E8 SWAP2 SWAP1 PUSH2 0x33A8 JUMP JUMPDEST PUSH2 0x1570 JUMP JUMPDEST STOP JUMPDEST CALLVALUE DUP1 ISZERO PUSH2 0x7FA JUMPI PUSH0 PUSH0 REVERT JUMPDEST POP PUSH2 0x815 PUSH1 0x4 DUP1 CALLDATASIZE SUB DUP2 ADD SWAP1 PUSH2 0x810 SWAP2 SWAP1 PUSH2 0x38BF JUMP JUMPDEST PUSH2 0x182F JUMP JUMPDEST STOP JUMPDEST CALLVALUE DUP1 ISZERO PUSH2 0x822 JUMPI PUSH0 PUSH0 REVERT JUMPDEST POP PUSH2 0x83D PUSH1 0x4 DUP1 CALLDATASIZE SUB DUP2 ADD SWAP1 PUSH2 0x838 SWAP2 SWAP1 PUSH2 0x33A8 JUMP JUMPDEST PUSH2 0x1854 JUMP JUMPDEST PUSH1 0x40 MLOAD PUSH2 0x84A SWAP2 SWAP1 PUSH2 0x3355 JUMP JUMPDEST PUSH1 0x40 MLOAD DUP1 SWAP2 SUB SWAP1 RETURN JUMPDEST CALLVALUE DUP1 ISZERO PUSH2 0x85E JUMPI PUSH0 PUSH0 REVERT JUMPDEST POP PUSH2 0x879 PUSH1 0x4 DUP1 CALLDATASIZE SUB DUP2 ADD SWAP1 PUSH2 0x874 SWAP2 SWAP1 PUSH2 0x33A8 JUMP JUMPDEST PUSH2 0x193E JUMP JUMPDEST PUSH1 0x40 MLOAD PUSH2 0x886 SWAP2 SWAP1 PUSH2 0x34A2 JUMP JUMPDEST PUSH1 0x40 MLOAD DUP1 SWAP2 SUB SWAP1 RETURN JUMPDEST CALLVALUE DUP1 ISZERO PUSH2 0x89A JUMPI PUSH0 PUSH0 REVERT JUMPDEST POP PUSH2 0x8A3 PUSH2 0x1953 JUMP JUMPDEST PUSH1 0x40 MLOAD PUSH2 0x8B0 SWAP2 SWAP1 PUSH2 0x395F JUMP JUMPDEST PUSH1 0x40 MLOAD DUP1 SWAP2 SUB SWAP1 RETURN JUMPDEST CALLVALUE DUP1 ISZERO PUSH2 0x8C4 JUMPI PUSH0 PUSH0 REVERT JUMPDEST POP PUSH2 0x8DF PUSH1 0x4 DUP1 CALLDATASIZE SUB DUP2 ADD SWAP1 PUSH2 0x8DA SWAP2 SWAP1 PUSH2 0x3978 JUMP JUMPDEST PUSH2 0x1978 JUMP JUMPDEST PUSH1 0x40 MLOAD PUSH2 0x8EC SWAP2 SWAP1 PUSH2 0x32CC JUMP JUMPDEST PUSH1 0x40 MLOAD DUP1 SWAP2 SUB SWAP1 RETURN JUMPDEST CALLVALUE DUP1 ISZERO PUSH2 0x900 JUMPI PUSH0 PUSH0 REVERT JUMPDEST POP PUSH2 0x909 PUSH2 0x1A06 JUMP JUMPDEST PUSH1 0x40 MLOAD PUSH2 0x916 SWAP2 SWAP1 PUSH2 0x377E JUMP JUMPDEST PUSH1 0x40 MLOAD DUP1 SWAP2 SUB SWAP1 RETURN JUMPDEST CALLVALUE DUP1 ISZERO PUSH2 0x92A JUMPI PUSH0 PUSH0 REVERT JUMPDEST POP PUSH2 0x945 PUSH1 0x4 DUP1 CALLDATASIZE SUB DUP2 ADD SWAP1 PUSH2 0x940 SWAP2 SWAP1 PUSH2 0x365E JUMP JUMPDEST PUSH2 0x1A0C JUMP JUMPDEST STOP JUMPDEST CALLVALUE DUP1 ISZERO PUSH2 0x952 JUMPI PUSH0 PUSH0 REVERT JUMPDEST POP PUSH2 0x95B PUSH2 0x1A20 JUMP JUMPDEST PUSH1 0x40 MLOAD PUSH2 0x968 SWAP2 SWAP1 PUSH2 0x3355 JUMP JUMPDEST PUSH1 0x40 MLOAD DUP1 SWAP2 SUB SWAP1 RETURN JUMPDEST PUSH0 PUSH32 0x780E9D6300000000000000000000000000000000000000000000000000000000 PUSH28 0xFFFFFFFFFFFFFFFFFFFFFFFFFFFFFFFFFFFFFFFFFFFFFFFFFFFFFFFF NOT AND DUP3 PUSH28 0xFFFFFFFFFFFFFFFFFFFFFFFFFFFFFFFFFFFFFFFFFFFFFFFFFFFFFFFF NOT AND EQ DUP1 PUSH2 0x9E3 JUMPI POP PUSH2 0x9E2 DUP3 PUSH2 0x1A3C JUMP JUMPDEST JUMPDEST SWAP1 POP SWAP2 SWAP1 POP JUMP JUMPDEST PUSH1 0x60 PUSH0 DUP1 SLOAD PUSH2 0x9F8 SWAP1 PUSH2 0x39E3 JUMP JUMPDEST DUP1 PUSH1 0x1F ADD PUSH1 0x20 DUP1 SWAP2 DIV MUL PUSH1 0x20 ADD PUSH1 0x40 MLOAD SWAP1 DUP2 ADD PUSH1 0x40 MSTORE DUP1 SWAP3 SWAP2 SWAP1 DUP2 DUP2 MSTORE PUSH1 0x20 ADD DUP3 DUP1 SLOAD PUSH2 0xA24 SWAP1 PUSH2 0x39E3 JUMP JUMPDEST DUP1 ISZERO PUSH2 0xA6F JUMPI DUP1 PUSH1 0x1F LT PUSH2 0xA46 JUMPI PUSH2 0x100 DUP1 DUP4 SLOAD DIV MUL DUP4 MSTORE SWAP2 PUSH1 0x20 ADD SWAP2 PUSH2 0xA6F JUMP JUMPDEST DUP3 ADD SWAP2 SWAP1 PUSH0 MSTORE PUSH1 0x20 PUSH0 KECCAK256 SWAP1 JUMPDEST DUP2 SLOAD DUP2 MSTORE SWAP1 PUSH1 0x1 ADD SWAP1 PUSH1 0x20 ADD DUP1 DUP4 GT PUSH2 0xA52 JUMPI DUP3 SWAP1 SUB PUSH1 0x1F AND DUP3 ADD SWAP2 JUMPDEST POP POP POP POP POP SWAP1 POP SWAP1 JUMP JUMPDEST PUSH0 PUSH2 0xA83 DUP3 PUSH2 0x1B1D JUMP JUMPDEST POP PUSH2 0xA8D DUP3 PUSH2 0x1BA3 JUMP JUMPDEST SWAP1 POP SWAP2 SWAP1 POP JUMP JUMPDEST PUSH2 0xAA6 DUP3 DUP3 PUSH2 0xAA1 PUSH2 0x1BDC JUMP JUMPDEST PUSH2 0x1BE3 JUMP JUMPDEST POP POP JUMP JUMPDEST PUSH0 PUSH1 0x8 DUP1 SLOAD SWAP1 POP SWAP1 POP SWAP1 JUMP JUMPDEST PUSH1 0x15 PUSH1 0x20 MSTORE DUP1 PUSH0 MSTORE PUSH1 0x40 PUSH0 KECCAK256 PUSH0 SWAP2 POP SLOAD SWAP1 PUSH2 0x100 EXP SWAP1 DIV PUSH1 0xFF AND DUP2 JUMP JUMPDEST PUSH1 0xC PUSH0 SWAP1 SLOAD SWAP1 PUSH2 0x100 EXP SWAP1 DIV PUSH20 0xFFFFFFFFFFFFFFFFFFFFFFFFFFFFFFFFFFFFFFFF AND PUSH20 0xFFFFFFFFFFFFFFFFFFFFFFFFFFFFFFFFFFFFFFFF AND CALLER PUSH20 0xFFFFFFFFFFFFFFFFFFFFFFFFFFFFFFFFFFFFFFFF AND EQ PUSH2 0xB87 JUMPI CALLER PUSH1 0xC PUSH0 SWAP1 SLOAD SWAP1 PUSH2 0x100 EXP SWAP1 DIV PUSH20 0xFFFFFFFFFFFFFFFFFFFFFFFFFFFFFFFFFFFFFFFF AND PUSH1 0x40 MLOAD PUSH32 0x1CF993F400000000000000000000000000000000000000000000000000000000 DUP2 MSTORE PUSH1 0x4 ADD PUSH2 0xB7E SWAP3 SWAP2 SWAP1 PUSH2 0x3A13 JUMP JUMPDEST PUSH1 0x40 MLOAD DUP1 SWAP2 SUB SWAP1 REVERT JUMPDEST PUSH2 0xB92 DUP4 DUP4 DUP4 PUSH2 0x1BF5 JUMP JUMPDEST POP POP POP JUMP JUMPDEST PUSH1 0x1A DUP2 DUP2 SLOAD DUP2 LT PUSH2 0xBA6 JUMPI PUSH0 DUP1 REVERT JUMPDEST SWAP1 PUSH0 MSTORE PUSH1 0x20 PUSH0 KECCAK256 ADD PUSH0 SWAP2 POP SWAP1 POP DUP1 PUSH0 ADD PUSH0 SWAP1 SLOAD SWAP1 PUSH2 0x100 EXP SWAP1 DIV PUSH1 0xFF AND SWAP1 DUP1 PUSH0 ADD PUSH1 0x1 SWAP1 SLOAD SWAP1 PUSH2 0x100 EXP SWAP1 DIV PUSH2 0xFFFF AND SWAP1 POP DUP3 JUMP JUMPDEST PUSH0 PUSH20 0xFFFFFFFFFFFFFFFFFFFFFFFFFFFFFFFFFFFFFFFF AND DUP3 PUSH20 0xFFFFFFFFFFFFFFFFFFFFFFFFFFFFFFFFFFFFFFFF AND SUB PUSH2 0xC4B JUMPI PUSH0 PUSH1 0x40 MLOAD PUSH32 0x64A0AE9200000000000000000000000000000000000000000000000000000000 DUP2 MSTORE PUSH1 0x4 ADD PUSH2 0xC42 SWAP2 SWAP1 PUSH2 0x3412 JUMP JUMPDEST PUSH1 0x40 MLOAD DUP1 SWAP2 SUB SWAP1 REVERT JUMPDEST PUSH0 PUSH2 0xC5E DUP4 DUP4 PUSH2 0xC59 PUSH2 0x1BDC JUMP JUMPDEST PUSH2 0x1C3F JUMP JUMPDEST SWAP1 POP DUP4 PUSH20 0xFFFFFFFFFFFFFFFFFFFFFFFFFFFFFFFFFFFFFFFF AND DUP2 PUSH20 0xFFFFFFFFFFFFFFFFFFFFFFFFFFFFFFFFFFFFFFFF AND EQ PUSH2 0xCD4 JUMPI DUP4 DUP3 DUP3 PUSH1 0x40 MLOAD PUSH32 0x64283D7B00000000000000000000000000000000000000000000000000000000 DUP2 MSTORE PUSH1 0x4 ADD PUSH2 0xCCB SWAP4 SWAP3 SWAP2 SWAP1 PUSH2 0x3A3A JUMP JUMPDEST PUSH1 0x40 MLOAD DUP1 SWAP2 SUB SWAP1 REVERT JUMPDEST POP POP POP POP JUMP JUMPDEST PUSH1 0x12 PUSH0 SWAP1 SLOAD SWAP1 PUSH2 0x100 EXP SWAP1 DIV PUSH4 0xFFFFFFFF AND DUP2 JUMP JUMPDEST PUSH0 PUSH2 0xCF9 DUP4 PUSH2 0xF1D JUMP JUMPDEST DUP3 LT PUSH2 0xD3E JUMPI DUP3 DUP3 PUSH1 0x40 MLOAD PUSH32 0xA57D13DC00000000000000000000000000000000000000000000000000000000 DUP2 MSTORE PUSH1 0x4 ADD PUSH2 0xD35 SWAP3 SWAP2 SWAP1 PUSH2 0x3A6F JUMP JUMPDEST PUSH1 0x40 MLOAD DUP1 SWAP2 SUB SWAP1 REVERT JUMPDEST PUSH1 0x6 PUSH0 DUP5 PUSH20 0xFFFFFFFFFFFFFFFFFFFFFFFFFFFFFFFFFFFFFFFF AND PUSH20 0xFFFFFFFFFFFFFFFFFFFFFFFFFFFFFFFFFFFFFFFF AND DUP2 MSTORE PUSH1 0x20 ADD SWAP1 DUP2 MSTORE PUSH1 0x20 ADD PUSH0 KECCAK256 PUSH0 DUP4 DUP2 MSTORE PUSH1 0x20 ADD SWAP1 DUP2 MSTORE PUSH1 0x20 ADD PUSH0 KECCAK256 SLOAD SWAP1 POP SWAP3 SWAP2 POP POP JUMP JUMPDEST PUSH1 0x40 MLOAD DUP1 PUSH1 0x40 ADD PUSH1 0x40 MSTORE DUP1 PUSH1 0x3 DUP2 MSTORE PUSH1 0x20 ADD PUSH32 0x424F580000000000000000000000000000000000000000000000000000000000 DUP2 MSTORE POP DUP2 JUMP JUMPDEST PUSH2 0xDE6 DUP4 DUP4 DUP4 PUSH1 0x40 MLOAD DUP1 PUSH1 0x20 ADD PUSH1 0x40 MSTORE DUP1 PUSH0 DUP2 MSTORE POP PUSH2 0x182F JUMP JUMPDEST POP POP POP JUMP JUMPDEST PUSH1 0x14 SLOAD CALLVALUE LT ISZERO PUSH2 0xE27 JUMPI PUSH1 0x40 MLOAD PUSH32 0x583AA02600000000000000000000000000000000000000000000000000000000 DUP2 MSTORE PUSH1 0x4 ADD PUSH1 0x40 MLOAD DUP1 SWAP2 SUB SWAP1 REVERT JUMPDEST PUSH0 PUSH1 0x13 PUSH0 DUP2 SLOAD DUP1 SWAP3 SWAP2 SWAP1 PUSH2 0xE3A SWAP1 PUSH2 0x3AC3 JUMP JUMPDEST SWAP2 SWAP1 POP SSTORE SWAP1 POP PUSH2 0xE4A CALLER DUP3 PUSH2 0x1D59 JUMP JUMPDEST PUSH0 PUSH2 0xE53 PUSH2 0x1D76 JUMP JUMPDEST SWAP1 POP DUP2 PUSH1 0x18 PUSH0 DUP4 DUP2 MSTORE PUSH1 0x20 ADD SWAP1 DUP2 MSTORE PUSH1 0x20 ADD PUSH0 KECCAK256 DUP2 SWAP1 SSTORE POP DUP1 PUSH1 0x19 PUSH0 DUP5 DUP2 MSTORE PUSH1 0x20 ADD SWAP1 DUP2 MSTORE PUSH1 0x20 ADD PUSH0 KECCAK256 DUP2 SWAP1 SSTORE POP POP POP JUMP JUMPDEST PUSH0 PUSH2 0xE8E PUSH2 0xAAA JUMP JUMPDEST DUP3 LT PUSH2 0xED3 JUMPI PUSH0 DUP3 PUSH1 0x40 MLOAD PUSH32 0xA57D13DC00000000000000000000000000000000000000000000000000000000 DUP2 MSTORE PUSH1 0x4 ADD PUSH2 0xECA SWAP3 SWAP2 SWAP1 PUSH2 0x3A6F JUMP JUMPDEST PUSH1 0x40 MLOAD DUP1 SWAP2 SUB SWAP1 REVERT JUMPDEST PUSH1 0x8 DUP3 DUP2 SLOAD DUP2 LT PUSH2 0xEE7 JUMPI PUSH2 0xEE6 PUSH2 0x3B0A JUMP JUMPDEST JUMPDEST SWAP1 PUSH0 MSTORE PUSH1 0x20 PUSH0 KECCAK256 ADD SLOAD SWAP1 POP SWAP2 SWAP1 POP JUMP JUMPDEST PUSH1 0x19 PUSH1 0x20 MSTORE DUP1 PUSH0 MSTORE PUSH1 0x40 PUSH0 KECCAK256 PUSH0 SWAP2 POP SWAP1 POP SLOAD DUP2 JUMP JUMPDEST PUSH0 PUSH2 0xF16 DUP3 PUSH2 0x1B1D JUMP JUMPDEST SWAP1 POP SWAP2 SWAP1 POP JUMP JUMPDEST PUSH0 PUSH0 PUSH20 0xFFFFFFFFFFFFFFFFFFFFFFFFFFFFFFFFFFFFFFFF AND DUP3 PUSH20 0xFFFFFFFFFFFFFFFFFFFFFFFFFFFFFFFFFFFFFFFF AND SUB PUSH2 0xF8E JUMPI PUSH0 PUSH1 0x40 MLOAD PUSH32 0x89C62B6400000000000000000000000000000000000000000000000000000000 DUP2 MSTORE PUSH1 0x4 ADD PUSH2 0xF85 SWAP2 SWAP1 PUSH2 0x3412 JUMP JUMPDEST PUSH1 0x40 MLOAD DUP1 SWAP2 SUB SWAP1 REVERT JUMPDEST PUSH1 0x3 PUSH0 DUP4 PUSH20 0xFFFFFFFFFFFFFFFFFFFFFFFFFFFFFFFFFFFFFFFF AND PUSH20 0xFFFFFFFFFFFFFFFFFFFFFFFFFFFFFFFFFFFFFFFF AND DUP2 MSTORE PUSH1 0x20 ADD SWAP1 DUP2 MSTORE PUSH1 0x20 ADD PUSH0 KECCAK256 SLOAD SWAP1 POP SWAP2 SWAP1 POP JUMP JUMPDEST PUSH1 0xB PUSH0 SWAP1 SLOAD SWAP1 PUSH2 0x100 EXP SWAP1 DIV PUSH20 0xFFFFFFFFFFFFFFFFFFFFFFFFFFFFFFFFFFFFFFFF AND PUSH20 0xFFFFFFFFFFFFFFFFFFFFFFFFFFFFFFFFFFFFFFFF AND CALLER PUSH20 0xFFFFFFFFFFFFFFFFFFFFFFFFFFFFFFFFFFFFFFFF AND EQ PUSH2 0x1062 JUMPI PUSH1 0x40 MLOAD PUSH32 0x8C379A000000000000000000000000000000000000000000000000000000000 DUP2 MSTORE PUSH1 0x4 ADD PUSH2 0x1059 SWAP1 PUSH2 0x3B81 JUMP JUMPDEST PUSH1 0x40 MLOAD DUP1 SWAP2 SUB SWAP1 REVERT JUMPDEST PUSH0 PUSH1 0xA PUSH0 SWAP1 SLOAD SWAP1 PUSH2 0x100 EXP SWAP1 DIV PUSH20 0xFFFFFFFFFFFFFFFFFFFFFFFFFFFFFFFFFFFFFFFF AND SWAP1 POP CALLER PUSH1 0xA PUSH0 PUSH2 0x100 EXP DUP2 SLOAD DUP2 PUSH20 0xFFFFFFFFFFFFFFFFFFFFFFFFFFFFFFFFFFFFFFFF MUL NOT AND SWAP1 DUP4 PUSH20 0xFFFFFFFFFFFFFFFFFFFFFFFFFFFFFFFFFFFFFFFF AND MUL OR SWAP1 SSTORE POP PUSH0 PUSH1 0xB PUSH0 PUSH2 0x100 EXP DUP2 SLOAD DUP2 PUSH20 0xFFFFFFFFFFFFFFFFFFFFFFFFFFFFFFFFFFFFFFFF MUL NOT AND SWAP1 DUP4 PUSH20 0xFFFFFFFFFFFFFFFFFFFFFFFFFFFFFFFFFFFFFFFF AND MUL OR SWAP1 SSTORE POP CALLER PUSH20 0xFFFFFFFFFFFFFFFFFFFFFFFFFFFFFFFFFFFFFFFF AND DUP2 PUSH20 0xFFFFFFFFFFFFFFFFFFFFFFFFFFFFFFFFFFFFFFFF AND PUSH32 0x8BE0079C531659141344CD1FD0A4F28419497F9722A3DAAFE3B4186F6B6457E0 PUSH1 0x40 MLOAD PUSH1 0x40 MLOAD DUP1 SWAP2 SUB SWAP1 LOG3 POP JUMP JUMPDEST PUSH2 0x116C PUSH2 0x1EFA JUMP JUMPDEST PUSH0 PUSH20 0xFFFFFFFFFFFFFFFFFFFFFFFFFFFFFFFFFFFFFFFF AND DUP2 PUSH20 0xFFFFFFFFFFFFFFFFFFFFFFFFFFFFFFFFFFFFFFFF AND SUB PUSH2 0x11D1 JUMPI PUSH1 0x40 MLOAD PUSH32 0x2442ABD700000000000000000000000000000000000000000000000000000000 DUP2 MSTORE PUSH1 0x4 ADD PUSH1 0x40 MLOAD DUP1 SWAP2 SUB SWAP1 REVERT JUMPDEST DUP1 PUSH1 0xD PUSH0 PUSH2 0x100 EXP DUP2 SLOAD DUP2 PUSH20 0xFFFFFFFFFFFFFFFFFFFFFFFFFFFFFFFFFFFFFFFF MUL NOT AND SWAP1 DUP4 PUSH20 0xFFFFFFFFFFFFFFFFFFFFFFFFFFFFFFFFFFFFFFFF AND MUL OR SWAP1 SSTORE POP POP JUMP JUMPDEST PUSH1 0x40 MLOAD DUP1 PUSH1 0x40 ADD PUSH1 0x40 MSTORE DUP1 PUSH1 0x6 DUP2 MSTORE PUSH1 0x20 ADD PUSH32 0x585944424F580000000000000000000000000000000000000000000000000000 DUP2 MSTORE POP DUP2 JUMP JUMPDEST PUSH1 0x12 PUSH1 0x6 SWAP1 SLOAD SWAP1 PUSH2 0x100 EXP SWAP1 DIV PUSH4 0xFFFFFFFF AND DUP2 JUMP JUMPDEST PUSH1 0x13 SLOAD DUP2 JUMP JUMPDEST PUSH1 0x16 PUSH1 0x20 MSTORE DUP1 PUSH0 MSTORE PUSH1 0x40 PUSH0 KECCAK256 PUSH0 SWAP2 POP SLOAD SWAP1 PUSH2 0x100 EXP SWAP1 DIV PUSH1 0xFF AND DUP2 JUMP JUMPDEST PUSH0 PUSH1 0xA PUSH0 SWAP1 SLOAD SWAP1 PUSH2 0x100 EXP SWAP1 DIV PUSH20 0xFFFFFFFFFFFFFFFFFFFFFFFFFFFFFFFFFFFFFFFF AND SWAP1 POP SWAP1 JUMP JUMPDEST PUSH2 0x12B6 PUSH2 0x1286 JUMP JUMPDEST PUSH20 0xFFFFFFFFFFFFFFFFFFFFFFFFFFFFFFFFFFFFFFFF AND CALLER PUSH20 0xFFFFFFFFFFFFFFFFFFFFFFFFFFFFFFFFFFFFFFFF AND EQ ISZERO DUP1 ISZERO PUSH2 0x133E JUMPI POP PUSH1 0xC PUSH0 SWAP1 SLOAD SWAP1 PUSH2 0x100 EXP SWAP1 DIV PUSH20 0xFFFFFFFFFFFFFFFFFFFFFFFFFFFFFFFFFFFFFFFF AND PUSH20 0xFFFFFFFFFFFFFFFFFFFFFFFFFFFFFFFFFFFFFFFF AND CALLER PUSH20 0xFFFFFFFFFFFFFFFFFFFFFFFFFFFFFFFFFFFFFFFF AND EQ ISZERO JUMPDEST ISZERO PUSH2 0x13AC JUMPI CALLER PUSH2 0x134C PUSH2 0x1286 JUMP JUMPDEST PUSH1 0xC PUSH0 SWAP1 SLOAD SWAP1 PUSH2 0x100 EXP SWAP1 DIV PUSH20 0xFFFFFFFFFFFFFFFFFFFFFFFFFFFFFFFFFFFFFFFF AND PUSH1 0x40 MLOAD PUSH32 0x61DB9C100000000000000000000000000000000000000000000000000000000 DUP2 MSTORE PUSH1 0x4 ADD PUSH2 0x13A3 SWAP4 SWAP3 SWAP2 SWAP1 PUSH2 0x3B9F JUMP JUMPDEST PUSH1 0x40 MLOAD DUP1 SWAP2 SUB SWAP1 REVERT JUMPDEST PUSH0 PUSH20 0xFFFFFFFFFFFFFFFFFFFFFFFFFFFFFFFFFFFFFFFF AND DUP2 PUSH20 0xFFFFFFFFFFFFFFFFFFFFFFFFFFFFFFFFFFFFFFFF AND SUB PUSH2 0x1411 JUMPI PUSH1 0x40 MLOAD PUSH32 0xD92E233D00000000000000000000000000000000000000000000000000000000 DUP2 MSTORE PUSH1 0x4 ADD PUSH1 0x40 MLOAD DUP1 SWAP2 SUB SWAP1 REVERT JUMPDEST DUP1 PUSH1 0xC PUSH0 PUSH2 0x100 EXP DUP2 SLOAD DUP2 PUSH20 0xFFFFFFFFFFFFFFFFFFFFFFFFFFFFFFFFFFFFFFFF MUL NOT AND SWAP1 DUP4 PUSH20 0xFFFFFFFFFFFFFFFFFFFFFFFFFFFFFFFFFFFFFFFF AND MUL OR SWAP1 SSTORE POP PUSH32 0xD1A6A14209A385A964D036E404CB5CFB71F4000CDB03C9366292430787261BE6 DUP2 PUSH1 0x40 MLOAD PUSH2 0x1480 SWAP2 SWAP1 PUSH2 0x3412 JUMP JUMPDEST PUSH1 0x40 MLOAD DUP1 SWAP2 SUB SWAP1 LOG1 POP JUMP JUMPDEST PUSH1 0x60 PUSH1 0x1 DUP1 SLOAD PUSH2 0x149A SWAP1 PUSH2 0x39E3 JUMP JUMPDEST DUP1 PUSH1 0x1F ADD PUSH1 0x20 DUP1 SWAP2 DIV MUL PUSH1 0x20 ADD PUSH1 0x40 MLOAD SWAP1 DUP2 ADD PUSH1 0x40 MSTORE DUP1 SWAP3 SWAP2 SWAP1 DUP2 DUP2 MSTORE PUSH1 0x20 ADD DUP3 DUP1 SLOAD PUSH2 0x14C6 SWAP1 PUSH2 0x39E3 JUMP JUMPDEST DUP1 ISZERO PUSH2 0x1511 JUMPI DUP1 PUSH1 0x1F LT PUSH2 0x14E8 JUMPI PUSH2 0x100 DUP1 DUP4 SLOAD DIV MUL DUP4 MSTORE SWAP2 PUSH1 0x20 ADD SWAP2 PUSH2 0x1511 JUMP JUMPDEST DUP3 ADD SWAP2 SWAP1 PUSH0 MSTORE PUSH1 0x20 PUSH0 KECCAK256 SWAP1 JUMPDEST DUP2 SLOAD DUP2 MSTORE SWAP1 PUSH1 0x1 ADD SWAP1 PUSH1 0x20 ADD DUP1 DUP4 GT PUSH2 0x14F4 JUMPI DUP3 SWAP1 SUB PUSH1 0x1F AND DUP3 ADD SWAP2 JUMPDEST POP POP POP POP POP SWAP1 POP SWAP1 JUMP JUMPDEST PUSH1 0xC PUSH0 SWAP1 SLOAD SWAP1 PUSH2 0x100 EXP SWAP1 DIV PUSH20 0xFFFFFFFFFFFFFFFFFFFFFFFFFFFFFFFFFFFFFFFF AND DUP2 JUMP JUMPDEST PUSH2 0x1552 PUSH2 0x154B PUSH2 0x1BDC JUMP JUMPDEST DUP4 DUP4 PUSH2 0x1F8B JUMP JUMPDEST POP POP JUMP JUMPDEST PUSH1 0x14 SLOAD DUP2 JUMP JUMPDEST PUSH1 0x12 PUSH1 0x4 SWAP1 SLOAD SWAP1 PUSH2 0x100 EXP SWAP1 DIV PUSH2 0xFFFF AND DUP2 JUMP JUMPDEST PUSH2 0x1578 PUSH2 0x20F4 JUMP JUMPDEST PUSH1 0x15 PUSH0 DUP3 DUP2 MSTORE PUSH1 0x20 ADD SWAP1 DUP2 MSTORE PUSH1 0x20 ADD PUSH0 KECCAK256 PUSH0 SWAP1 SLOAD SWAP1 PUSH2 0x100 EXP SWAP1 DIV PUSH1 0xFF AND ISZERO PUSH2 0x15CD JUMPI PUSH1 0x40 MLOAD PUSH32 0xB4C85C6B00000000000000000000000000000000000000000000000000000000 DUP2 MSTORE PUSH1 0x4 ADD PUSH1 0x40 MLOAD DUP1 SWAP2 SUB SWAP1 REVERT JUMPDEST CALLER PUSH20 0xFFFFFFFFFFFFFFFFFFFFFFFFFFFFFFFFFFFFFFFF AND PUSH2 0x15ED DUP3 PUSH2 0xF0C JUMP JUMPDEST PUSH20 0xFFFFFFFFFFFFFFFFFFFFFFFFFFFFFFFFFFFFFFFF AND EQ PUSH2 0x163A JUMPI PUSH1 0x40 MLOAD PUSH32 0x30CD747100000000000000000000000000000000000000000000000000000000 DUP2 MSTORE PUSH1 0x4 ADD PUSH1 0x40 MLOAD DUP1 SWAP2 SUB SWAP1 REVERT JUMPDEST PUSH0 PUSH1 0x1 PUSH1 0x15 PUSH0 DUP5 DUP2 MSTORE PUSH1 0x20 ADD SWAP1 DUP2 MSTORE PUSH1 0x20 ADD PUSH0 KECCAK256 PUSH0 PUSH2 0x100 EXP DUP2 SLOAD DUP2 PUSH1 0xFF MUL NOT AND SWAP1 DUP4 ISZERO ISZERO MUL OR SWAP1 SSTORE POP PUSH0 PUSH1 0x17 PUSH0 DUP5 DUP2 MSTORE PUSH1 0x20 ADD SWAP1 DUP2 MSTORE PUSH1 0x20 ADD PUSH0 KECCAK256 SLOAD SWAP1 POP PUSH0 PUSH2 0x2710 PUSH2 0xFFFF AND DUP3 PUSH2 0x168C SWAP2 SWAP1 PUSH2 0x3C01 JUMP JUMPDEST SWAP1 POP PUSH0 PUSH0 SWAP1 POP PUSH0 PUSH0 SWAP1 POP JUMPDEST PUSH1 0x1A DUP1 SLOAD SWAP1 POP DUP2 PUSH1 0xFF AND LT ISZERO PUSH2 0x170B JUMPI PUSH1 0x1A DUP2 PUSH1 0xFF AND DUP2 SLOAD DUP2 LT PUSH2 0x16BE JUMPI PUSH2 0x16BD PUSH2 0x3B0A JUMP JUMPDEST JUMPDEST SWAP1 PUSH0 MSTORE PUSH1 0x20 PUSH0 KECCAK256 ADD PUSH0 ADD PUSH1 0x1 SWAP1 SLOAD SWAP1 PUSH2 0x100 EXP SWAP1 DIV PUSH2 0xFFFF AND PUSH2 0xFFFF AND DUP3 PUSH2 0x16E6 SWAP2 SWAP1 PUSH2 0x3C31 JUMP JUMPDEST SWAP2 POP DUP2 DUP4 LT ISZERO PUSH2 0x16F8 JUMPI DUP1 SWAP5 POP PUSH2 0x170B JUMP JUMPDEST DUP1 DUP1 PUSH2 0x1703 SWAP1 PUSH2 0x3C64 JUMP JUMPDEST SWAP2 POP POP PUSH2 0x1697 JUMP JUMPDEST POP DUP4 PUSH1 0x16 PUSH0 DUP8 DUP2 MSTORE PUSH1 0x20 ADD SWAP1 DUP2 MSTORE PUSH1 0x20 ADD PUSH0 KECCAK256 PUSH0 PUSH2 0x100 EXP DUP2 SLOAD DUP2 PUSH1 0xFF MUL NOT AND SWAP1 DUP4 PUSH1 0xFF AND MUL OR SWAP1 SSTORE POP PUSH0 PUSH0 PUSH1 0xD PUSH0 SWAP1 SLOAD SWAP1 PUSH2 0x100 EXP SWAP1 DIV PUSH20 0xFFFFFFFFFFFFFFFFFFFFFFFFFFFFFFFFFFFFFFFF AND PUSH20 0xFFFFFFFFFFFFFFFFFFFFFFFFFFFFFFFFFFFFFFFF AND PUSH4 0xD71E7B5C DUP8 DUP8 CALLER PUSH1 0x40 MLOAD DUP5 PUSH4 0xFFFFFFFF AND PUSH1 0xE0 SHL DUP2 MSTORE PUSH1 0x4 ADD PUSH2 0x1795 SWAP4 SWAP3 SWAP2 SWAP1 PUSH2 0x3C8C JUMP JUMPDEST PUSH1 0x40 DUP1 MLOAD DUP1 DUP4 SUB DUP2 PUSH0 DUP8 GAS CALL ISZERO DUP1 ISZERO PUSH2 0x17B0 JUMPI RETURNDATASIZE PUSH0 PUSH0 RETURNDATACOPY RETURNDATASIZE PUSH0 REVERT JUMPDEST POP POP POP POP PUSH1 0x40 MLOAD RETURNDATASIZE PUSH1 0x1F NOT PUSH1 0x1F DUP3 ADD AND DUP3 ADD DUP1 PUSH1 0x40 MSTORE POP DUP2 ADD SWAP1 PUSH2 0x17D4 SWAP2 SWAP1 PUSH2 0x3CE9 JUMP JUMPDEST SWAP2 POP SWAP2 POP PUSH2 0x17E1 DUP8 PUSH2 0x2116 JUMP JUMPDEST PUSH32 0xEB617E86927EE250118F552CCADF3F76D734DD27C763F6F1C8F3683C5AF7B7B0 CALLER DUP8 DUP5 DUP5 PUSH1 0x40 MLOAD PUSH2 0x1816 SWAP5 SWAP4 SWAP3 SWAP2 SWAP1 PUSH2 0x3D27 JUMP JUMPDEST PUSH1 0x40 MLOAD DUP1 SWAP2 SUB SWAP1 LOG1 POP POP POP POP POP POP PUSH2 0x182C PUSH2 0x215B JUMP JUMPDEST POP JUMP JUMPDEST PUSH2 0x183A DUP5 DUP5 DUP5 PUSH2 0xBDB JUMP JUMPDEST PUSH2 0x184E PUSH2 0x1845 PUSH2 0x1BDC JUMP JUMPDEST DUP6 DUP6 DUP6 DUP6 PUSH2 0x2175 JUMP JUMPDEST POP POP POP POP JUMP JUMPDEST PUSH1 0x60 PUSH2 0x185F DUP3 PUSH2 0x1B1D JUMP JUMPDEST POP PUSH0 PUSH1 0x40 MLOAD DUP1 PUSH1 0x40 ADD PUSH1 0x40 MSTORE DUP1 PUSH1 0x6 DUP2 MSTORE PUSH1 0x20 ADD PUSH32 0x585944424F580000000000000000000000000000000000000000000000000000 DUP2 MSTORE POP PUSH1 0x40 MLOAD DUP1 PUSH1 0x40 ADD PUSH1 0x40 MSTORE DUP1 PUSH1 0x3 DUP2 MSTORE PUSH1 0x20 ADD PUSH32 0x424F580000000000000000000000000000000000000000000000000000000000 DUP2 MSTORE POP PUSH1 0x40 MLOAD DUP1 PUSH1 0x80 ADD PUSH1 0x40 MSTORE DUP1 PUSH1 0x5D DUP2 MSTORE PUSH1 0x20 ADD PUSH2 0x44BA PUSH1 0x5D SWAP2 CODECOPY PUSH1 0x40 MLOAD PUSH1 0x20 ADD PUSH2 0x18F8 SWAP4 SWAP3 SWAP2 SWAP1 PUSH2 0x3FAA JUMP JUMPDEST PUSH1 0x40 MLOAD PUSH1 0x20 DUP2 DUP4 SUB SUB DUP2 MSTORE SWAP1 PUSH1 0x40 MSTORE SWAP1 POP PUSH0 PUSH2 0x1913 DUP3 PUSH2 0x2321 JUMP JUMPDEST SWAP1 POP DUP1 PUSH1 0x40 MLOAD PUSH1 0x20 ADD PUSH2 0x1926 SWAP2 SWAP1 PUSH2 0x407C JUMP JUMPDEST PUSH1 0x40 MLOAD PUSH1 0x20 DUP2 DUP4 SUB SUB DUP2 MSTORE SWAP1 PUSH1 0x40 MSTORE SWAP3 POP POP POP SWAP2 SWAP1 POP JUMP JUMPDEST PUSH1 0x18 PUSH1 0x20 MSTORE DUP1 PUSH0 MSTORE PUSH1 0x40 PUSH0 KECCAK256 PUSH0 SWAP2 POP SWAP1 POP SLOAD DUP2 JUMP JUMPDEST PUSH1 0xD PUSH0 SWAP1 SLOAD SWAP1 PUSH2 0x100 EXP SWAP1 DIV PUSH20 0xFFFFFFFFFFFFFFFFFFFFFFFFFFFFFFFFFFFFFFFF AND DUP2 JUMP JUMPDEST PUSH0 PUSH1 0x5 PUSH0 DUP5 PUSH20 0xFFFFFFFFFFFFFFFFFFFFFFFFFFFFFFFFFFFFFFFF AND PUSH20 0xFFFFFFFFFFFFFFFFFFFFFFFFFFFFFFFFFFFFFFFF AND DUP2 MSTORE PUSH1 0x20 ADD SWAP1 DUP2 MSTORE PUSH1 0x20 ADD PUSH0 KECCAK256 PUSH0 DUP4 PUSH20 0xFFFFFFFFFFFFFFFFFFFFFFFFFFFFFFFFFFFFFFFF AND PUSH20 0xFFFFFFFFFFFFFFFFFFFFFFFFFFFFFFFFFFFFFFFF AND DUP2 MSTORE PUSH1 0x20 ADD SWAP1 DUP2 MSTORE PUSH1 0x20 ADD PUSH0 KECCAK256 PUSH0 SWAP1 SLOAD SWAP1 PUSH2 0x100 EXP SWAP1 DIV PUSH1 0xFF AND SWAP1 POP SWAP3 SWAP2 POP POP JUMP JUMPDEST PUSH2 0x2710 DUP2 JUMP JUMPDEST PUSH2 0x1A14 PUSH2 0x1EFA JUMP JUMPDEST PUSH2 0x1A1D DUP2 PUSH2 0x2334 JUMP JUMPDEST POP JUMP JUMPDEST PUSH1 0x40 MLOAD DUP1 PUSH1 0x80 ADD PUSH1 0x40 MSTORE DUP1 PUSH1 0x5D DUP2 MSTORE PUSH1 0x20 ADD PUSH2 0x44BA PUSH1 0x5D SWAP2 CODECOPY DUP2 JUMP JUMPDEST PUSH0 PUSH32 0x80AC58CD00000000000000000000000000000000000000000000000000000000 PUSH28 0xFFFFFFFFFFFFFFFFFFFFFFFFFFFFFFFFFFFFFFFFFFFFFFFFFFFFFFFF NOT AND DUP3 PUSH28 0xFFFFFFFFFFFFFFFFFFFFFFFFFFFFFFFFFFFFFFFFFFFFFFFFFFFFFFFF NOT AND EQ DUP1 PUSH2 0x1B06 JUMPI POP PUSH32 0x5B5E139F00000000000000000000000000000000000000000000000000000000 PUSH28 0xFFFFFFFFFFFFFFFFFFFFFFFFFFFFFFFFFFFFFFFFFFFFFFFFFFFFFFFF NOT AND DUP3 PUSH28 0xFFFFFFFFFFFFFFFFFFFFFFFFFFFFFFFFFFFFFFFFFFFFFFFFFFFFFFFF NOT AND EQ JUMPDEST DUP1 PUSH2 0x1B16 JUMPI POP PUSH2 0x1B15 DUP3 PUSH2 0x2460 JUMP JUMPDEST JUMPDEST SWAP1 POP SWAP2 SWAP1 POP JUMP JUMPDEST PUSH0 PUSH0 PUSH2 0x1B28 DUP4 PUSH2 0x24C9 JUMP JUMPDEST SWAP1 POP PUSH0 PUSH20 0xFFFFFFFFFFFFFFFFFFFFFFFFFFFFFFFFFFFFFFFF AND DUP2 PUSH20 0xFFFFFFFFFFFFFFFFFFFFFFFFFFFFFFFFFFFFFFFF AND SUB PUSH2 0x1B9A JUMPI DUP3 PUSH1 0x40 MLOAD PUSH32 0x7E27328900000000000000000000000000000000000000000000000000000000 DUP2 MSTORE PUSH1 0x4 ADD PUSH2 0x1B91 SWAP2 SWAP1 PUSH2 0x34A2 JUMP JUMPDEST PUSH1 0x40 MLOAD DUP1 SWAP2 SUB SWAP1 REVERT JUMPDEST DUP1 SWAP2 POP POP SWAP2 SWAP1 POP JUMP JUMPDEST PUSH0 PUSH1 0x4 PUSH0 DUP4 DUP2 MSTORE PUSH1 0x20 ADD SWAP1 DUP2 MSTORE PUSH1 0x20 ADD PUSH0 KECCAK256 PUSH0 SWAP1 SLOAD SWAP1 PUSH2 0x100 EXP SWAP1 DIV PUSH20 0xFFFFFFFFFFFFFFFFFFFFFFFFFFFFFFFFFFFFFFFF AND SWAP1 POP SWAP2 SWAP1 POP JUMP JUMPDEST PUSH0 CALLER SWAP1 POP SWAP1 JUMP JUMPDEST PUSH2 0x1BF0 DUP4 DUP4 DUP4 PUSH1 0x1 PUSH2 0x2502 JUMP JUMPDEST POP POP POP JUMP JUMPDEST PUSH0 PUSH1 0x18 PUSH0 DUP6 DUP2 MSTORE PUSH1 0x20 ADD SWAP1 DUP2 MSTORE PUSH1 0x20 ADD PUSH0 KECCAK256 SLOAD SWAP1 POP DUP3 DUP3 PUSH0 DUP2 DUP2 LT PUSH2 0x1C1D JUMPI PUSH2 0x1C1C PUSH2 0x3B0A JUMP JUMPDEST JUMPDEST SWAP1 POP PUSH1 0x20 MUL ADD CALLDATALOAD PUSH1 0x17 PUSH0 DUP4 DUP2 MSTORE PUSH1 0x20 ADD SWAP1 DUP2 MSTORE PUSH1 0x20 ADD PUSH0 KECCAK256 DUP2 SWAP1 SSTORE POP POP POP POP POP JUMP JUMPDEST PUSH0 PUSH0 PUSH2 0x1C4C DUP6 DUP6 DUP6 PUSH2 0x26C1 JUMP JUMPDEST SWAP1 POP PUSH0 PUSH20 0xFFFFFFFFFFFFFFFFFFFFFFFFFFFFFFFFFFFFFFFF AND DUP2 PUSH20 0xFFFFFFFFFFFFFFFFFFFFFFFFFFFFFFFFFFFFFFFF AND SUB PUSH2 0x1C8F JUMPI PUSH2 0x1C8A DUP5 PUSH2 0x28CC JUMP JUMPDEST PUSH2 0x1CCE JUMP JUMPDEST DUP5 PUSH20 0xFFFFFFFFFFFFFFFFFFFFFFFFFFFFFFFFFFFFFFFF AND DUP2 PUSH20 0xFFFFFFFFFFFFFFFFFFFFFFFFFFFFFFFFFFFFFFFF AND EQ PUSH2 0x1CCD JUMPI PUSH2 0x1CCC DUP2 DUP6 PUSH2 0x2910 JUMP JUMPDEST JUMPDEST JUMPDEST PUSH0 PUSH20 0xFFFFFFFFFFFFFFFFFFFFFFFFFFFFFFFFFFFFFFFF AND DUP6 PUSH20 0xFFFFFFFFFFFFFFFFFFFFFFFFFFFFFFFFFFFFFFFF AND SUB PUSH2 0x1D0F JUMPI PUSH2 0x1D0A DUP5 PUSH2 0x29E7 JUMP JUMPDEST PUSH2 0x1D4E JUMP JUMPDEST DUP5 PUSH20 0xFFFFFFFFFFFFFFFFFFFFFFFFFFFFFFFFFFFFFFFF AND DUP2 PUSH20 0xFFFFFFFFFFFFFFFFFFFFFFFFFFFFFFFFFFFFFFFF AND EQ PUSH2 0x1D4D JUMPI PUSH2 0x1D4C DUP6 DUP6 PUSH2 0x2AA7 JUMP JUMPDEST JUMPDEST JUMPDEST DUP1 SWAP2 POP POP SWAP4 SWAP3 POP POP POP JUMP JUMPDEST PUSH2 0x1D72 DUP3 DUP3 PUSH1 0x40 MLOAD DUP1 PUSH1 0x20 ADD PUSH1 0x40 MSTORE DUP1 PUSH0 DUP2 MSTORE POP PUSH2 0x2B2B JUMP JUMPDEST POP POP JUMP JUMPDEST PUSH0 PUSH0 PUSH1 0x40 MLOAD DUP1 PUSH1 0xC0 ADD PUSH1 0x40 MSTORE DUP1 PUSH1 0x10 SLOAD DUP2 MSTORE PUSH1 0x20 ADD PUSH1 0x11 SLOAD DUP2 MSTORE PUSH1 0x20 ADD PUSH1 0x12 PUSH1 0x4 SWAP1 SLOAD SWAP1 PUSH2 0x100 EXP SWAP1 DIV PUSH2 0xFFFF AND PUSH2 0xFFFF AND DUP2 MSTORE PUSH1 0x20 ADD PUSH1 0x12 PUSH0 SWAP1 SLOAD SWAP1 PUSH2 0x100 EXP SWAP1 DIV PUSH4 0xFFFFFFFF AND PUSH4 0xFFFFFFFF AND DUP2 MSTORE PUSH1 0x20 ADD PUSH1 0x12 PUSH1 0x6 SWAP1 SLOAD SWAP1 PUSH2 0x100 EXP SWAP1 DIV PUSH4 0xFFFFFFFF AND PUSH4 0xFFFFFFFF AND DUP2 MSTORE PUSH1 0x20 ADD PUSH2 0x1E02 PUSH1 0x40 MLOAD DUP1 PUSH1 0x20 ADD PUSH1 0x40 MSTORE DUP1 PUSH1 0x1 ISZERO ISZERO DUP2 MSTORE POP PUSH2 0x2B4E JUMP JUMPDEST DUP2 MSTORE POP SWAP1 POP PUSH0 PUSH1 0xE PUSH0 SWAP1 SLOAD SWAP1 PUSH2 0x100 EXP SWAP1 DIV PUSH20 0xFFFFFFFFFFFFFFFFFFFFFFFFFFFFFFFFFFFFFFFF AND PUSH20 0xFFFFFFFFFFFFFFFFFFFFFFFFFFFFFFFFFFFFFFFF AND PUSH4 0x9B1C385E DUP4 PUSH1 0x40 MLOAD DUP3 PUSH4 0xFFFFFFFF AND PUSH1 0xE0 SHL DUP2 MSTORE PUSH1 0x4 ADD PUSH2 0x1E62 SWAP2 SWAP1 PUSH2 0x41BA JUMP JUMPDEST PUSH1 0x20 PUSH1 0x40 MLOAD DUP1 DUP4 SUB DUP2 PUSH0 DUP8 GAS CALL ISZERO DUP1 ISZERO PUSH2 0x1E7E JUMPI RETURNDATASIZE PUSH0 PUSH0 RETURNDATACOPY RETURNDATASIZE PUSH0 REVERT JUMPDEST POP POP POP POP PUSH1 0x40 MLOAD RETURNDATASIZE PUSH1 0x1F NOT PUSH1 0x1F DUP3 ADD AND DUP3 ADD DUP1 PUSH1 0x40 MSTORE POP DUP2 ADD SWAP1 PUSH2 0x1EA2 SWAP2 SWAP1 PUSH2 0x41DA JUMP JUMPDEST SWAP1 POP CALLER PUSH20 0xFFFFFFFFFFFFFFFFFFFFFFFFFFFFFFFFFFFFFFFF AND PUSH32 0x9D5EC813554188F51CFF7EA82CDA0C2E6A4006398B558E6D834F0FD6EAD830A1 DUP3 PUSH1 0x40 MLOAD PUSH2 0x1EEA SWAP2 SWAP1 PUSH2 0x34A2 JUMP JUMPDEST PUSH1 0x40 MLOAD DUP1 SWAP2 SUB SWAP1 LOG2 DUP1 SWAP3 POP POP POP SWAP1 JUMP JUMPDEST PUSH1 0xA PUSH0 SWAP1 SLOAD SWAP1 PUSH2 0x100 EXP SWAP1 DIV PUSH20 0xFFFFFFFFFFFFFFFFFFFFFFFFFFFFFFFFFFFFFFFF AND PUSH20 0xFFFFFFFFFFFFFFFFFFFFFFFFFFFFFFFFFFFFFFFF AND CALLER PUSH20 0xFFFFFFFFFFFFFFFFFFFFFFFFFFFFFFFFFFFFFFFF AND EQ PUSH2 0x1F89 JUMPI PUSH1 0x40 MLOAD PUSH32 0x8C379A000000000000000000000000000000000000000000000000000000000 DUP2 MSTORE PUSH1 0x4 ADD PUSH2 0x1F80 SWAP1 PUSH2 0x424F JUMP JUMPDEST PUSH1 0x40 MLOAD DUP1 SWAP2 SUB SWAP1 REVERT JUMPDEST JUMP JUMPDEST PUSH0 PUSH20 0xFFFFFFFFFFFFFFFFFFFFFFFFFFFFFFFFFFFFFFFF AND DUP3 PUSH20 0xFFFFFFFFFFFFFFFFFFFFFFFFFFFFFFFFFFFFFFFF AND SUB PUSH2 0x1FFB JUMPI DUP2 PUSH1 0x40 MLOAD PUSH32 0x5B08BA1800000000000000000000000000000000000000000000000000000000 DUP2 MSTORE PUSH1 0x4 ADD PUSH2 0x1FF2 SWAP2 SWAP1 PUSH2 0x3412 JUMP JUMPDEST PUSH1 0x40 MLOAD DUP1 SWAP2 SUB SWAP1 REVERT JUMPDEST DUP1 PUSH1 0x5 PUSH0 DUP6 PUSH20 0xFFFFFFFFFFFFFFFFFFFFFFFFFFFFFFFFFFFFFFFF AND PUSH20 0xFFFFFFFFFFFFFFFFFFFFFFFFFFFFFFFFFFFFFFFF AND DUP2 MSTORE PUSH1 0x20 ADD SWAP1 DUP2 MSTORE PUSH1 0x20 ADD PUSH0 KECCAK256 PUSH0 DUP5 PUSH20 0xFFFFFFFFFFFFFFFFFFFFFFFFFFFFFFFFFFFFFFFF AND PUSH20 0xFFFFFFFFFFFFFFFFFFFFFFFFFFFFFFFFFFFFFFFF AND DUP2 MSTORE PUSH1 0x20 ADD SWAP1 DUP2 MSTORE PUSH1 0x20 ADD PUSH0 KECCAK256 PUSH0 PUSH2 0x100 EXP DUP2 SLOAD DUP2 PUSH1 0xFF MUL NOT AND SWAP1 DUP4 ISZERO ISZERO MUL OR SWAP1 SSTORE POP DUP2 PUSH20 0xFFFFFFFFFFFFFFFFFFFFFFFFFFFFFFFFFFFFFFFF AND DUP4 PUSH20 0xFFFFFFFFFFFFFFFFFFFFFFFFFFFFFFFFFFFFFFFF AND PUSH32 0x17307EAB39AB6107E8899845AD3D59BD9653F200F220920489CA2B5937696C31 DUP4 PUSH1 0x40 MLOAD PUSH2 0x20E7 SWAP2 SWAP1 PUSH2 0x32CC JUMP JUMPDEST PUSH1 0x40 MLOAD DUP1 SWAP2 SUB SWAP1 LOG3 POP POP POP JUMP JUMPDEST PUSH2 0x20FC PUSH2 0x2BE6 JUMP JUMPDEST PUSH1 0x2 PUSH2 0x210E PUSH2 0x2109 PUSH2 0x2C27 JUMP JUMPDEST PUSH2 0x2C50 JUMP JUMPDEST PUSH0 ADD DUP2 SWAP1 SSTORE POP JUMP JUMPDEST PUSH2 0x2121 CALLER PUSH0 DUP4 PUSH2 0x2C59 JUMP JUMPDEST PUSH32 0xD3F5559C9FE2C1B988DAA9F5520155E1A89D750E0A7B2EE17AFCD4B76DD95BCD DUP2 PUSH1 0x40 MLOAD PUSH2 0x2150 SWAP2 SWAP1 PUSH2 0x34A2 JUMP JUMPDEST PUSH1 0x40 MLOAD DUP1 SWAP2 SUB SWAP1 LOG1 POP JUMP JUMPDEST PUSH1 0x1 PUSH2 0x216D PUSH2 0x2168 PUSH2 0x2C27 JUMP JUMPDEST PUSH2 0x2C50 JUMP JUMPDEST PUSH0 ADD DUP2 SWAP1 SSTORE POP JUMP JUMPDEST PUSH0 DUP4 PUSH20 0xFFFFFFFFFFFFFFFFFFFFFFFFFFFFFFFFFFFFFFFF AND EXTCODESIZE GT ISZERO PUSH2 0x231A JUMPI DUP3 PUSH20 0xFFFFFFFFFFFFFFFFFFFFFFFFFFFFFFFFFFFFFFFF AND PUSH4 0x150B7A02 DUP7 DUP7 DUP6 DUP6 PUSH1 0x40 MLOAD DUP6 PUSH4 0xFFFFFFFF AND PUSH1 0xE0 SHL DUP2 MSTORE PUSH1 0x4 ADD PUSH2 0x21D3 SWAP5 SWAP4 SWAP3 SWAP2 SWAP1 PUSH2 0x42B5 JUMP JUMPDEST PUSH1 0x20 PUSH1 0x40 MLOAD DUP1 DUP4 SUB DUP2 PUSH0 DUP8 GAS CALL SWAP3 POP POP POP DUP1 ISZERO PUSH2 0x220E JUMPI POP PUSH1 0x40 MLOAD RETURNDATASIZE PUSH1 0x1F NOT PUSH1 0x1F DUP3 ADD AND DUP3 ADD DUP1 PUSH1 0x40 MSTORE POP DUP2 ADD SWAP1 PUSH2 0x220B SWAP2 SWAP1 PUSH2 0x4313 JUMP JUMPDEST PUSH1 0x1 JUMPDEST PUSH2 0x228F JUMPI RETURNDATASIZE DUP1 PUSH0 DUP2 EQ PUSH2 0x223C JUMPI PUSH1 0x40 MLOAD SWAP2 POP PUSH1 0x1F NOT PUSH1 0x3F RETURNDATASIZE ADD AND DUP3 ADD PUSH1 0x40 MSTORE RETURNDATASIZE DUP3 MSTORE RETURNDATASIZE PUSH0 PUSH1 0x20 DUP5 ADD RETURNDATACOPY PUSH2 0x2241 JUMP JUMPDEST PUSH1 0x60 SWAP2 POP JUMPDEST POP PUSH0 DUP2 MLOAD SUB PUSH2 0x2287 JUMPI DUP4 PUSH1 0x40 MLOAD PUSH32 0x64A0AE9200000000000000000000000000000000000000000000000000000000 DUP2 MSTORE PUSH1 0x4 ADD PUSH2 0x227E SWAP2 SWAP1 PUSH2 0x3412 JUMP JUMPDEST PUSH1 0x40 MLOAD DUP1 SWAP2 SUB SWAP1 REVERT JUMPDEST DUP1 MLOAD PUSH1 0x20 DUP3 ADD REVERT JUMPDEST PUSH4 0x150B7A02 PUSH1 0xE0 SHL PUSH28 0xFFFFFFFFFFFFFFFFFFFFFFFFFFFFFFFFFFFFFFFFFFFFFFFFFFFFFFFF NOT AND DUP2 PUSH28 0xFFFFFFFFFFFFFFFFFFFFFFFFFFFFFFFFFFFFFFFFFFFFFFFFFFFFFFFF NOT AND EQ PUSH2 0x2318 JUMPI DUP4 PUSH1 0x40 MLOAD PUSH32 0x64A0AE9200000000000000000000000000000000000000000000000000000000 DUP2 MSTORE PUSH1 0x4 ADD PUSH2 0x230F SWAP2 SWAP1 PUSH2 0x3412 JUMP JUMPDEST PUSH1 0x40 MLOAD DUP1 SWAP2 SUB SWAP1 REVERT JUMPDEST POP JUMPDEST POP POP POP POP POP JUMP JUMPDEST PUSH1 0x60 PUSH2 0x232D DUP3 PUSH0 PUSH2 0x2C78 JUMP JUMPDEST SWAP1 POP SWAP2 SWAP1 POP JUMP JUMPDEST CALLER PUSH20 0xFFFFFFFFFFFFFFFFFFFFFFFFFFFFFFFFFFFFFFFF AND DUP2 PUSH20 0xFFFFFFFFFFFFFFFFFFFFFFFFFFFFFFFFFFFFFFFF AND SUB PUSH2 0x23A2 JUMPI PUSH1 0x40 MLOAD PUSH32 0x8C379A000000000000000000000000000000000000000000000000000000000 DUP2 MSTORE PUSH1 0x4 ADD PUSH2 0x2399 SWAP1 PUSH2 0x4388 JUMP JUMPDEST PUSH1 0x40 MLOAD DUP1 SWAP2 SUB SWAP1 REVERT JUMPDEST DUP1 PUSH1 0xB PUSH0 PUSH2 0x100 EXP DUP2 SLOAD DUP2 PUSH20 0xFFFFFFFFFFFFFFFFFFFFFFFFFFFFFFFFFFFFFFFF MUL NOT AND SWAP1 DUP4 PUSH20 0xFFFFFFFFFFFFFFFFFFFFFFFFFFFFFFFFFFFFFFFF AND MUL OR SWAP1 SSTORE POP DUP1 PUSH20 0xFFFFFFFFFFFFFFFFFFFFFFFFFFFFFFFFFFFFFFFF AND PUSH1 0xA PUSH0 SWAP1 SLOAD SWAP1 PUSH2 0x100 EXP SWAP1 DIV PUSH20 0xFFFFFFFFFFFFFFFFFFFFFFFFFFFFFFFFFFFFFFFF AND PUSH20 0xFFFFFFFFFFFFFFFFFFFFFFFFFFFFFFFFFFFFFFFF AND PUSH32 0xED8889F560326EB138920D842192F0EB3DD22B4F139C87A2C57538E05BAE1278 PUSH1 0x40 MLOAD PUSH1 0x40 MLOAD DUP1 SWAP2 SUB SWAP1 LOG3 POP JUMP JUMPDEST PUSH0 PUSH32 0x1FFC9A700000000000000000000000000000000000000000000000000000000 PUSH28 0xFFFFFFFFFFFFFFFFFFFFFFFFFFFFFFFFFFFFFFFFFFFFFFFFFFFFFFFF NOT AND DUP3 PUSH28 0xFFFFFFFFFFFFFFFFFFFFFFFFFFFFFFFFFFFFFFFFFFFFFFFFFFFFFFFF NOT AND EQ SWAP1 POP SWAP2 SWAP1 POP JUMP JUMPDEST PUSH0 PUSH1 0x2 PUSH0 DUP4 DUP2 MSTORE PUSH1 0x20 ADD SWAP1 DUP2 MSTORE PUSH1 0x20 ADD PUSH0 KECCAK256 PUSH0 SWAP1 SLOAD SWAP1 PUSH2 0x100 EXP SWAP1 DIV PUSH20 0xFFFFFFFFFFFFFFFFFFFFFFFFFFFFFFFFFFFFFFFF AND SWAP1 POP SWAP2 SWAP1 POP JUMP JUMPDEST DUP1 DUP1 PUSH2 0x253A JUMPI POP PUSH0 PUSH20 0xFFFFFFFFFFFFFFFFFFFFFFFFFFFFFFFFFFFFFFFF AND DUP3 PUSH20 0xFFFFFFFFFFFFFFFFFFFFFFFFFFFFFFFFFFFFFFFF AND EQ ISZERO JUMPDEST ISZERO PUSH2 0x266C JUMPI PUSH0 PUSH2 0x2549 DUP5 PUSH2 0x1B1D JUMP JUMPDEST SWAP1 POP PUSH0 PUSH20 0xFFFFFFFFFFFFFFFFFFFFFFFFFFFFFFFFFFFFFFFF AND DUP4 PUSH20 0xFFFFFFFFFFFFFFFFFFFFFFFFFFFFFFFFFFFFFFFF AND EQ ISZERO DUP1 ISZERO PUSH2 0x25B3 JUMPI POP DUP3 PUSH20 0xFFFFFFFFFFFFFFFFFFFFFFFFFFFFFFFFFFFFFFFF AND DUP2 PUSH20 0xFFFFFFFFFFFFFFFFFFFFFFFFFFFFFFFFFFFFFFFF AND EQ ISZERO JUMPDEST DUP1 ISZERO PUSH2 0x25C6 JUMPI POP PUSH2 0x25C4 DUP2 DUP5 PUSH2 0x1978 JUMP JUMPDEST ISZERO JUMPDEST ISZERO PUSH2 0x2608 JUMPI DUP3 PUSH1 0x40 MLOAD PUSH32 0xA9FBF51F00000000000000000000000000000000000000000000000000000000 DUP2 MSTORE PUSH1 0x4 ADD PUSH2 0x25FF SWAP2 SWAP1 PUSH2 0x3412 JUMP JUMPDEST PUSH1 0x40 MLOAD DUP1 SWAP2 SUB SWAP1 REVERT JUMPDEST DUP2 ISZERO PUSH2 0x266A JUMPI DUP4 DUP6 PUSH20 0xFFFFFFFFFFFFFFFFFFFFFFFFFFFFFFFFFFFFFFFF AND DUP3 PUSH20 0xFFFFFFFFFFFFFFFFFFFFFFFFFFFFFFFFFFFFFFFF AND PUSH32 0x8C5BE1E5EBEC7D5BD14F71427D1E84F3DD0314C0F7B2291E5B200AC8C7C3B925 PUSH1 0x40 MLOAD PUSH1 0x40 MLOAD DUP1 SWAP2 SUB SWAP1 LOG4 JUMPDEST POP JUMPDEST DUP4 PUSH1 0x4 PUSH0 DUP6 DUP2 MSTORE PUSH1 0x20 ADD SWAP1 DUP2 MSTORE PUSH1 0x20 ADD PUSH0 KECCAK256 PUSH0 PUSH2 0x100 EXP DUP2 SLOAD DUP2 PUSH20 0xFFFFFFFFFFFFFFFFFFFFFFFFFFFFFFFFFFFFFFFF MUL NOT AND SWAP1 DUP4 PUSH20 0xFFFFFFFFFFFFFFFFFFFFFFFFFFFFFFFFFFFFFFFF AND MUL OR SWAP1 SSTORE POP POP POP POP POP JUMP JUMPDEST PUSH0 PUSH0 PUSH2 0x26CC DUP5 PUSH2 0x24C9 JUMP JUMPDEST SWAP1 POP PUSH0 PUSH20 0xFFFFFFFFFFFFFFFFFFFFFFFFFFFFFFFFFFFFFFFF AND DUP4 PUSH20 0xFFFFFFFFFFFFFFFFFFFFFFFFFFFFFFFFFFFFFFFF AND EQ PUSH2 0x270D JUMPI PUSH2 0x270C DUP2 DUP5 DUP7 PUSH2 0x2E02 JUMP JUMPDEST JUMPDEST PUSH0 PUSH20 0xFFFFFFFFFFFFFFFFFFFFFFFFFFFFFFFFFFFFFFFF AND DUP2 PUSH20 0xFFFFFFFFFFFFFFFFFFFFFFFFFFFFFFFFFFFFFFFF AND EQ PUSH2 0x2798 JUMPI PUSH2 0x274C PUSH0 DUP6 PUSH0 PUSH0 PUSH2 0x2502 JUMP JUMPDEST PUSH1 0x1 PUSH1 0x3 PUSH0 DUP4 PUSH20 0xFFFFFFFFFFFFFFFFFFFFFFFFFFFFFFFFFFFFFFFF AND PUSH20 0xFFFFFFFFFFFFFFFFFFFFFFFFFFFFFFFFFFFFFFFF AND DUP2 MSTORE PUSH1 0x20 ADD SWAP1 DUP2 MSTORE PUSH1 0x20 ADD PUSH0 KECCAK256 PUSH0 DUP3 DUP3 SLOAD SUB SWAP3 POP POP DUP2 SWAP1 SSTORE POP JUMPDEST PUSH0 PUSH20 0xFFFFFFFFFFFFFFFFFFFFFFFFFFFFFFFFFFFFFFFF AND DUP6 PUSH20 0xFFFFFFFFFFFFFFFFFFFFFFFFFFFFFFFFFFFFFFFF AND EQ PUSH2 0x2817 JUMPI PUSH1 0x1 PUSH1 0x3 PUSH0 DUP8 PUSH20 0xFFFFFFFFFFFFFFFFFFFFFFFFFFFFFFFFFFFFFFFF AND PUSH20 0xFFFFFFFFFFFFFFFFFFFFFFFFFFFFFFFFFFFFFFFF AND DUP2 MSTORE PUSH1 0x20 ADD SWAP1 DUP2 MSTORE PUSH1 0x20 ADD PUSH0 KECCAK256 PUSH0 DUP3 DUP3 SLOAD ADD SWAP3 POP POP DUP2 SWAP1 SSTORE POP JUMPDEST DUP5 PUSH1 0x2 PUSH0 DUP7 DUP2 MSTORE PUSH1 0x20 ADD SWAP1 DUP2 MSTORE PUSH1 0x20 ADD PUSH0 KECCAK256 PUSH0 PUSH2 0x100 EXP DUP2 SLOAD DUP2 PUSH20 0xFFFFFFFFFFFFFFFFFFFFFFFFFFFFFFFFFFFFFFFF MUL NOT AND SWAP1 DUP4 PUSH20 0xFFFFFFFFFFFFFFFFFFFFFFFFFFFFFFFFFFFFFFFF AND MUL OR SWAP1 SSTORE POP DUP4 DUP6 PUSH20 0xFFFFFFFFFFFFFFFFFFFFFFFFFFFFFFFFFFFFFFFF AND DUP3 PUSH20 0xFFFFFFFFFFFFFFFFFFFFFFFFFFFFFFFFFFFFFFFF AND PUSH32 0xDDF252AD1BE2C89B69C2B068FC378DAA952BA7F163C4A11628F55A4DF523B3EF PUSH1 0x40 MLOAD PUSH1 0x40 MLOAD DUP1 SWAP2 SUB SWAP1 LOG4 DUP1 SWAP2 POP POP SWAP4 SWAP3 POP POP POP JUMP JUMPDEST PUSH1 0x8 DUP1 SLOAD SWAP1 POP PUSH1 0x9 PUSH0 DUP4 DUP2 MSTORE PUSH1 0x20 ADD SWAP1 DUP2 MSTORE PUSH1 0x20 ADD PUSH0 KECCAK256 DUP2 SWAP1 SSTORE POP PUSH1 0x8 DUP2 SWAP1 DUP1 PUSH1 0x1 DUP2 SLOAD ADD DUP1 DUP3 SSTORE DUP1 SWAP2 POP POP PUSH1 0x1 SWAP1 SUB SWAP1 PUSH0 MSTORE PUSH1 0x20 PUSH0 KECCAK256 ADD PUSH0 SWAP1 SWAP2 SWAP1 SWAP2 SWAP1 SWAP2 POP SSTORE POP JUMP JUMPDEST PUSH0 PUSH2 0x291A DUP4 PUSH2 0xF1D JUMP JUMPDEST SWAP1 POP PUSH0 PUSH1 0x7 PUSH0 DUP5 DUP2 MSTORE PUSH1 0x20 ADD SWAP1 DUP2 MSTORE PUSH1 0x20 ADD PUSH0 KECCAK256 SLOAD SWAP1 POP PUSH0 PUSH1 0x6 PUSH0 DUP7 PUSH20 0xFFFFFFFFFFFFFFFFFFFFFFFFFFFFFFFFFFFFFFFF AND PUSH20 0xFFFFFFFFFFFFFFFFFFFFFFFFFFFFFFFFFFFFFFFF AND DUP2 MSTORE PUSH1 0x20 ADD SWAP1 DUP2 MSTORE PUSH1 0x20 ADD PUSH0 KECCAK256 SWAP1 POP DUP3 DUP3 EQ PUSH2 0x29B9 JUMPI PUSH0 DUP2 PUSH0 DUP6 DUP2 MSTORE PUSH1 0x20 ADD SWAP1 DUP2 MSTORE PUSH1 0x20 ADD PUSH0 KECCAK256 SLOAD SWAP1 POP DUP1 DUP3 PUSH0 DUP6 DUP2 MSTORE PUSH1 0x20 ADD SWAP1 DUP2 MSTORE PUSH1 0x20 ADD PUSH0 KECCAK256 DUP2 SWAP1 SSTORE POP DUP3 PUSH1 0x7 PUSH0 DUP4 DUP2 MSTORE PUSH1 0x20 ADD SWAP1 DUP2 MSTORE PUSH1 0x20 ADD PUSH0 KECCAK256 DUP2 SWAP1 SSTORE POP POP JUMPDEST PUSH1 0x7 PUSH0 DUP6 DUP2 MSTORE PUSH1 0x20 ADD SWAP1 DUP2 MSTORE PUSH1 0x20 ADD PUSH0 KECCAK256 PUSH0 SWAP1 SSTORE DUP1 PUSH0 DUP5 DUP2 MSTORE PUSH1 0x20 ADD SWAP1 DUP2 MSTORE PUSH1 0x20 ADD PUSH0 KECCAK256 PUSH0 SWAP1 SSTORE POP POP POP POP POP JUMP JUMPDEST PUSH0 PUSH1 0x1 PUSH1 0x8 DUP1 SLOAD SWAP1 POP PUSH2 0x29FA SWAP2 SWAP1 PUSH2 0x43A6 JUMP JUMPDEST SWAP1 POP PUSH0 PUSH1 0x9 PUSH0 DUP5 DUP2 MSTORE PUSH1 0x20 ADD SWAP1 DUP2 MSTORE PUSH1 0x20 ADD PUSH0 KECCAK256 SLOAD SWAP1 POP PUSH0 PUSH1 0x8 DUP4 DUP2 SLOAD DUP2 LT PUSH2 0x2A26 JUMPI PUSH2 0x2A25 PUSH2 0x3B0A JUMP JUMPDEST JUMPDEST SWAP1 PUSH0 MSTORE PUSH1 0x20 PUSH0 KECCAK256 ADD SLOAD SWAP1 POP DUP1 PUSH1 0x8 DUP4 DUP2 SLOAD DUP2 LT PUSH2 0x2A46 JUMPI PUSH2 0x2A45 PUSH2 0x3B0A JUMP JUMPDEST JUMPDEST SWAP1 PUSH0 MSTORE PUSH1 0x20 PUSH0 KECCAK256 ADD DUP2 SWAP1 SSTORE POP DUP2 PUSH1 0x9 PUSH0 DUP4 DUP2 MSTORE PUSH1 0x20 ADD SWAP1 DUP2 MSTORE PUSH1 0x20 ADD PUSH0 KECCAK256 DUP2 SWAP1 SSTORE POP PUSH1 0x9 PUSH0 DUP6 DUP2 MSTORE PUSH1 0x20 ADD SWAP1 DUP2 MSTORE PUSH1 0x20 ADD PUSH0 KECCAK256 PUSH0 SWAP1 SSTORE PUSH1 0x8 DUP1 SLOAD DUP1 PUSH2 0x2A8E JUMPI PUSH2 0x2A8D PUSH2 0x43D9 JUMP JUMPDEST JUMPDEST PUSH1 0x1 SWAP1 SUB DUP2 DUP2 SWAP1 PUSH0 MSTORE PUSH1 0x20 PUSH0 KECCAK256 ADD PUSH0 SWAP1 SSTORE SWAP1 SSTORE POP POP POP POP JUMP JUMPDEST PUSH0 PUSH1 0x1 PUSH2 0x2AB3 DUP5 PUSH2 0xF1D JUMP JUMPDEST PUSH2 0x2ABD SWAP2 SWAP1 PUSH2 0x43A6 JUMP JUMPDEST SWAP1 POP DUP2 PUSH1 0x6 PUSH0 DUP6 PUSH20 0xFFFFFFFFFFFFFFFFFFFFFFFFFFFFFFFFFFFFFFFF AND PUSH20 0xFFFFFFFFFFFFFFFFFFFFFFFFFFFFFFFFFFFFFFFF AND DUP2 MSTORE PUSH1 0x20 ADD SWAP1 DUP2 MSTORE PUSH1 0x20 ADD PUSH0 KECCAK256 PUSH0 DUP4 DUP2 MSTORE PUSH1 0x20 ADD SWAP1 DUP2 MSTORE PUSH1 0x20 ADD PUSH0 KECCAK256 DUP2 SWAP1 SSTORE POP DUP1 PUSH1 0x7 PUSH0 DUP5 DUP2 MSTORE PUSH1 0x20 ADD SWAP1 DUP2 MSTORE PUSH1 0x20 ADD PUSH0 KECCAK256 DUP2 SWAP1 SSTORE POP POP POP POP JUMP JUMPDEST PUSH2 0x2B35 DUP4 DUP4 PUSH2 0x2EC5 JUMP JUMPDEST PUSH2 0x2B49 PUSH2 0x2B40 PUSH2 0x1BDC JUMP JUMPDEST PUSH0 DUP6 DUP6 DUP6 PUSH2 0x2175 JUMP JUMPDEST POP POP POP JUMP JUMPDEST PUSH1 0x60 PUSH32 0x92FD13387C7FE7BEFBC38D303D6468778FB9731BC4583F17D92989C6FCFDEAAA DUP3 PUSH1 0x40 MLOAD PUSH1 0x24 ADD PUSH2 0x2B82 SWAP2 SWAP1 PUSH2 0x442F JUMP JUMPDEST PUSH1 0x40 MLOAD PUSH1 0x20 DUP2 DUP4 SUB SUB DUP2 MSTORE SWAP1 PUSH1 0x40 MSTORE SWAP1 PUSH28 0xFFFFFFFFFFFFFFFFFFFFFFFFFFFFFFFFFFFFFFFFFFFFFFFFFFFFFFFF NOT AND PUSH1 0x20 DUP3 ADD DUP1 MLOAD PUSH28 0xFFFFFFFFFFFFFFFFFFFFFFFFFFFFFFFFFFFFFFFFFFFFFFFFFFFFFFFF DUP4 DUP2 DUP4 AND OR DUP4 MSTORE POP POP POP POP SWAP1 POP SWAP2 SWAP1 POP JUMP JUMPDEST PUSH2 0x2BEE PUSH2 0x2FB8 JUMP JUMPDEST ISZERO PUSH2 0x2C25 JUMPI PUSH1 0x40 MLOAD PUSH32 0x3EE5AEB500000000000000000000000000000000000000000000000000000000 DUP2 MSTORE PUSH1 0x4 ADD PUSH1 0x40 MLOAD DUP1 SWAP2 SUB SWAP1 REVERT JUMPDEST JUMP JUMPDEST PUSH0 PUSH32 0x9B779B17422D0DF92223018B32B4D1FA46E071723D6817E2486D003BECC55F00 PUSH0 SHL SWAP1 POP SWAP1 JUMP JUMPDEST PUSH0 DUP2 SWAP1 POP SWAP2 SWAP1 POP JUMP JUMPDEST PUSH2 0x2C73 DUP4 DUP4 DUP4 PUSH1 0x40 MLOAD DUP1 PUSH1 0x20 ADD PUSH1 0x40 MSTORE DUP1 PUSH0 DUP2 MSTORE POP PUSH2 0x2FD4 JUMP JUMPDEST POP POP POP JUMP JUMPDEST PUSH1 0x60 PUSH0 DUP4 MLOAD SUB PUSH2 0x2C98 JUMPI PUSH1 0x40 MLOAD DUP1 PUSH1 0x20 ADD PUSH1 0x40 MSTORE DUP1 PUSH0 DUP2 MSTORE POP SWAP1 POP PUSH2 0x2DFC JUMP JUMPDEST PUSH0 DUP3 PUSH2 0x2CC9 JUMPI PUSH1 0x3 PUSH1 0x2 DUP6 MLOAD PUSH2 0x2CAE SWAP2 SWAP1 PUSH2 0x3C31 JUMP JUMPDEST PUSH2 0x2CB8 SWAP2 SWAP1 PUSH2 0x4448 JUMP JUMPDEST PUSH1 0x4 PUSH2 0x2CC4 SWAP2 SWAP1 PUSH2 0x4478 JUMP JUMPDEST PUSH2 0x2CF0 JUMP JUMPDEST PUSH1 0x3 PUSH1 0x2 DUP6 MLOAD PUSH1 0x4 PUSH2 0x2CDB SWAP2 SWAP1 PUSH2 0x4478 JUMP JUMPDEST PUSH2 0x2CE5 SWAP2 SWAP1 PUSH2 0x3C31 JUMP JUMPDEST PUSH2 0x2CEF SWAP2 SWAP1 PUSH2 0x4448 JUMP JUMPDEST JUMPDEST SWAP1 POP PUSH1 0x40 MLOAD SWAP2 POP PUSH32 0x4142434445464748494A4B4C4D4E4F505152535455565758595A616263646566 PUSH1 0x1F MSTORE PUSH2 0x670 DUP4 MUL PUSH32 0x6768696A6B6C6D6E6F707172737475767778797A303132333435363738392B2F XOR PUSH1 0x3F MSTORE PUSH1 0x20 DUP3 ADD DUP2 DUP2 ADD DUP6 DUP7 MLOAD DUP8 ADD PUSH1 0x20 DUP2 ADD DUP1 MLOAD PUSH0 DUP3 MSTORE JUMPDEST DUP3 DUP5 LT ISZERO PUSH2 0x2DAE JUMPI PUSH1 0x3 DUP5 ADD SWAP4 POP DUP4 MLOAD PUSH1 0x3F DUP2 PUSH1 0x12 SHR AND MLOAD DUP8 MSTORE8 PUSH1 0x1 DUP8 ADD SWAP7 POP PUSH1 0x3F DUP2 PUSH1 0xC SHR AND MLOAD DUP8 MSTORE8 PUSH1 0x1 DUP8 ADD SWAP7 POP PUSH1 0x3F DUP2 PUSH1 0x6 SHR AND MLOAD DUP8 MSTORE8 PUSH1 0x1 DUP8 ADD SWAP7 POP PUSH1 0x3F DUP2 AND MLOAD DUP8 MSTORE8 PUSH1 0x1 DUP8 ADD SWAP7 POP POP PUSH2 0x2D5B JUMP JUMPDEST DUP1 DUP3 MSTORE DUP9 PUSH2 0x2DED JUMPI PUSH1 0x3 DUP11 MLOAD MOD PUSH1 0x1 DUP2 EQ PUSH2 0x2DD0 JUMPI PUSH1 0x2 DUP2 EQ PUSH2 0x2DE3 JUMPI PUSH2 0x2DEB JUMP JUMPDEST PUSH1 0x3D PUSH1 0x1 DUP9 SUB MSTORE8 PUSH1 0x3D PUSH1 0x2 DUP9 SUB MSTORE8 PUSH2 0x2DEB JUMP JUMPDEST PUSH1 0x3D PUSH1 0x1 DUP9 SUB MSTORE8 JUMPDEST POP JUMPDEST DUP7 DUP9 MSTORE DUP5 PUSH1 0x40 MSTORE POP POP POP POP POP POP POP JUMPDEST SWAP3 SWAP2 POP POP JUMP JUMPDEST PUSH2 0x2E0D DUP4 DUP4 DUP4 PUSH2 0x2FF9 JUMP JUMPDEST PUSH2 0x2EC0 JUMPI PUSH0 PUSH20 0xFFFFFFFFFFFFFFFFFFFFFFFFFFFFFFFFFFFFFFFF AND DUP4 PUSH20 0xFFFFFFFFFFFFFFFFFFFFFFFFFFFFFFFFFFFFFFFF AND SUB PUSH2 0x2E81 JUMPI DUP1 PUSH1 0x40 MLOAD PUSH32 0x7E27328900000000000000000000000000000000000000000000000000000000 DUP2 MSTORE PUSH1 0x4 ADD PUSH2 0x2E78 SWAP2 SWAP1 PUSH2 0x34A2 JUMP JUMPDEST PUSH1 0x40 MLOAD DUP1 SWAP2 SUB SWAP1 REVERT JUMPDEST DUP2 DUP2 PUSH1 0x40 MLOAD PUSH32 0x177E802F00000000000000000000000000000000000000000000000000000000 DUP2 MSTORE PUSH1 0x4 ADD PUSH2 0x2EB7 SWAP3 SWAP2 SWAP1 PUSH2 0x3A6F JUMP JUMPDEST PUSH1 0x40 MLOAD DUP1 SWAP2 SUB SWAP1 REVERT JUMPDEST POP POP POP JUMP JUMPDEST PUSH0 PUSH20 0xFFFFFFFFFFFFFFFFFFFFFFFFFFFFFFFFFFFFFFFF AND DUP3 PUSH20 0xFFFFFFFFFFFFFFFFFFFFFFFFFFFFFFFFFFFFFFFF AND SUB PUSH2 0x2F35 JUMPI PUSH0 PUSH1 0x40 MLOAD PUSH32 0x64A0AE9200000000000000000000000000000000000000000000000000000000 DUP2 MSTORE PUSH1 0x4 ADD PUSH2 0x2F2C SWAP2 SWAP1 PUSH2 0x3412 JUMP JUMPDEST PUSH1 0x40 MLOAD DUP1 SWAP2 SUB SWAP1 REVERT JUMPDEST PUSH0 PUSH2 0x2F41 DUP4 DUP4 PUSH0 PUSH2 0x1C3F JUMP JUMPDEST SWAP1 POP PUSH0 PUSH20 0xFFFFFFFFFFFFFFFFFFFFFFFFFFFFFFFFFFFFFFFF AND DUP2 PUSH20 0xFFFFFFFFFFFFFFFFFFFFFFFFFFFFFFFFFFFFFFFF AND EQ PUSH2 0x2FB3 JUMPI PUSH0 PUSH1 0x40 MLOAD PUSH32 0x73C6AC6E00000000000000000000000000000000000000000000000000000000 DUP2 MSTORE PUSH1 0x4 ADD PUSH2 0x2FAA SWAP2 SWAP1 PUSH2 0x3412 JUMP JUMPDEST PUSH1 0x40 MLOAD DUP1 SWAP2 SUB SWAP1 REVERT JUMPDEST POP POP POP JUMP JUMPDEST PUSH0 PUSH1 0x2 PUSH2 0x2FCB PUSH2 0x2FC6 PUSH2 0x2C27 JUMP JUMPDEST PUSH2 0x2C50 JUMP JUMPDEST PUSH0 ADD SLOAD EQ SWAP1 POP SWAP1 JUMP JUMPDEST PUSH2 0x2FDF DUP5 DUP5 DUP5 PUSH2 0x30B9 JUMP JUMPDEST PUSH2 0x2FF3 PUSH2 0x2FEA PUSH2 0x1BDC JUMP JUMPDEST DUP6 DUP6 DUP6 DUP6 PUSH2 0x2175 JUMP JUMPDEST POP POP POP POP JUMP JUMPDEST PUSH0 PUSH0 PUSH20 0xFFFFFFFFFFFFFFFFFFFFFFFFFFFFFFFFFFFFFFFF AND DUP4 PUSH20 0xFFFFFFFFFFFFFFFFFFFFFFFFFFFFFFFFFFFFFFFF AND EQ ISZERO DUP1 ISZERO PUSH2 0x30B0 JUMPI POP DUP3 PUSH20 0xFFFFFFFFFFFFFFFFFFFFFFFFFFFFFFFFFFFFFFFF AND DUP5 PUSH20 0xFFFFFFFFFFFFFFFFFFFFFFFFFFFFFFFFFFFFFFFF AND EQ DUP1 PUSH2 0x3071 JUMPI POP PUSH2 0x3070 DUP5 DUP5 PUSH2 0x1978 JUMP JUMPDEST JUMPDEST DUP1 PUSH2 0x30AF JUMPI POP DUP3 PUSH20 0xFFFFFFFFFFFFFFFFFFFFFFFFFFFFFFFFFFFFFFFF AND PUSH2 0x3097 DUP4 PUSH2 0x1BA3 JUMP JUMPDEST PUSH20 0xFFFFFFFFFFFFFFFFFFFFFFFFFFFFFFFFFFFFFFFF AND EQ JUMPDEST JUMPDEST SWAP1 POP SWAP4 SWAP3 POP POP POP JUMP JUMPDEST PUSH0 PUSH20 0xFFFFFFFFFFFFFFFFFFFFFFFFFFFFFFFFFFFFFFFF AND DUP3 PUSH20 0xFFFFFFFFFFFFFFFFFFFFFFFFFFFFFFFFFFFFFFFF AND SUB PUSH2 0x3129 JUMPI PUSH0 PUSH1 0x40 MLOAD PUSH32 0x64A0AE9200000000000000000000000000000000000000000000000000000000 DUP2 MSTORE PUSH1 0x4 ADD PUSH2 0x3120 SWAP2 SWAP1 PUSH2 0x3412 JUMP JUMPDEST PUSH1 0x40 MLOAD DUP1 SWAP2 SUB SWAP1 REVERT JUMPDEST PUSH0 PUSH2 0x3135 DUP4 DUP4 PUSH0 PUSH2 0x1C3F JUMP JUMPDEST SWAP1 POP PUSH0 PUSH20 0xFFFFFFFFFFFFFFFFFFFFFFFFFFFFFFFFFFFFFFFF AND DUP2 PUSH20 0xFFFFFFFFFFFFFFFFFFFFFFFFFFFFFFFFFFFFFFFF AND SUB PUSH2 0x31A7 JUMPI DUP2 PUSH1 0x40 MLOAD PUSH32 0x7E27328900000000000000000000000000000000000000000000000000000000 DUP2 MSTORE PUSH1 0x4 ADD PUSH2 0x319E SWAP2 SWAP1 PUSH2 0x34A2 JUMP JUMPDEST PUSH1 0x40 MLOAD DUP1 SWAP2 SUB SWAP1 REVERT JUMPDEST DUP4 PUSH20 0xFFFFFFFFFFFFFFFFFFFFFFFFFFFFFFFFFFFFFFFF AND DUP2 PUSH20 0xFFFFFFFFFFFFFFFFFFFFFFFFFFFFFFFFFFFFFFFF AND EQ PUSH2 0x321B JUMPI DUP4 DUP3 DUP3 PUSH1 0x40 MLOAD PUSH32 0x64283D7B00000000000000000000000000000000000000000000000000000000 DUP2 MSTORE PUSH1 0x4 ADD PUSH2 0x3212 SWAP4 SWAP3 SWAP2 SWAP1 PUSH2 0x3A3A JUMP JUMPDEST PUSH1 0x40 MLOAD DUP1 SWAP2 SUB SWAP1 REVERT JUMPDEST POP POP POP POP JUMP JUMPDEST PUSH0 PUSH1 0x40 MLOAD SWAP1 POP SWAP1 JUMP JUMPDEST PUSH0 PUSH0 REVERT JUMPDEST PUSH0 PUSH0 REVERT JUMPDEST PUSH0 PUSH32 0xFFFFFFFF00000000000000000000000000000000000000000000000000000000 DUP3 AND SWAP1 POP SWAP2 SWAP1 POP JUMP JUMPDEST PUSH2 0x3266 DUP2 PUSH2 0x3232 JUMP JUMPDEST DUP2 EQ PUSH2 0x3270 JUMPI PUSH0 PUSH0 REVERT JUMPDEST POP JUMP JUMPDEST PUSH0 DUP2 CALLDATALOAD SWAP1 POP PUSH2 0x3281 DUP2 PUSH2 0x325D JUMP JUMPDEST SWAP3 SWAP2 POP POP JUMP JUMPDEST PUSH0 PUSH1 0x20 DUP3 DUP5 SUB SLT ISZERO PUSH2 0x329C JUMPI PUSH2 0x329B PUSH2 0x322A JUMP JUMPDEST JUMPDEST PUSH0 PUSH2 0x32A9 DUP5 DUP3 DUP6 ADD PUSH2 0x3273 JUMP JUMPDEST SWAP2 POP POP SWAP3 SWAP2 POP POP JUMP JUMPDEST PUSH0 DUP2 ISZERO ISZERO SWAP1 POP SWAP2 SWAP1 POP JUMP JUMPDEST PUSH2 0x32C6 DUP2 PUSH2 0x32B2 JUMP JUMPDEST DUP3 MSTORE POP POP JUMP JUMPDEST PUSH0 PUSH1 0x20 DUP3 ADD SWAP1 POP PUSH2 0x32DF PUSH0 DUP4 ADD DUP5 PUSH2 0x32BD JUMP JUMPDEST SWAP3 SWAP2 POP POP JUMP JUMPDEST PUSH0 DUP2 MLOAD SWAP1 POP SWAP2 SWAP1 POP JUMP JUMPDEST PUSH0 DUP3 DUP3 MSTORE PUSH1 0x20 DUP3 ADD SWAP1 POP SWAP3 SWAP2 POP POP JUMP JUMPDEST DUP3 DUP2 DUP4 MCOPY PUSH0 DUP4 DUP4 ADD MSTORE POP POP POP JUMP JUMPDEST PUSH0 PUSH1 0x1F NOT PUSH1 0x1F DUP4 ADD AND SWAP1 POP SWAP2 SWAP1 POP JUMP JUMPDEST PUSH0 PUSH2 0x3327 DUP3 PUSH2 0x32E5 JUMP JUMPDEST PUSH2 0x3331 DUP2 DUP6 PUSH2 0x32EF JUMP JUMPDEST SWAP4 POP PUSH2 0x3341 DUP2 DUP6 PUSH1 0x20 DUP7 ADD PUSH2 0x32FF JUMP JUMPDEST PUSH2 0x334A DUP2 PUSH2 0x330D JUMP JUMPDEST DUP5 ADD SWAP2 POP POP SWAP3 SWAP2 POP POP JUMP JUMPDEST PUSH0 PUSH1 0x20 DUP3 ADD SWAP1 POP DUP2 DUP2 SUB PUSH0 DUP4 ADD MSTORE PUSH2 0x336D DUP2 DUP5 PUSH2 0x331D JUMP JUMPDEST SWAP1 POP SWAP3 SWAP2 POP POP JUMP JUMPDEST PUSH0 DUP2 SWAP1 POP SWAP2 SWAP1 POP JUMP JUMPDEST PUSH2 0x3387 DUP2 PUSH2 0x3375 JUMP JUMPDEST DUP2 EQ PUSH2 0x3391 JUMPI PUSH0 PUSH0 REVERT JUMPDEST POP JUMP JUMPDEST PUSH0 DUP2 CALLDATALOAD SWAP1 POP PUSH2 0x33A2 DUP2 PUSH2 0x337E JUMP JUMPDEST SWAP3 SWAP2 POP POP JUMP JUMPDEST PUSH0 PUSH1 0x20 DUP3 DUP5 SUB SLT ISZERO PUSH2 0x33BD JUMPI PUSH2 0x33BC PUSH2 0x322A JUMP JUMPDEST JUMPDEST PUSH0 PUSH2 0x33CA DUP5 DUP3 DUP6 ADD PUSH2 0x3394 JUMP JUMPDEST SWAP2 POP POP SWAP3 SWAP2 POP POP JUMP JUMPDEST PUSH0 PUSH20 0xFFFFFFFFFFFFFFFFFFFFFFFFFFFFFFFFFFFFFFFF DUP3 AND SWAP1 POP SWAP2 SWAP1 POP JUMP JUMPDEST PUSH0 PUSH2 0x33FC DUP3 PUSH2 0x33D3 JUMP JUMPDEST SWAP1 POP SWAP2 SWAP1 POP JUMP JUMPDEST PUSH2 0x340C DUP2 PUSH2 0x33F2 JUMP JUMPDEST DUP3 MSTORE POP POP JUMP JUMPDEST PUSH0 PUSH1 0x20 DUP3 ADD SWAP1 POP PUSH2 0x3425 PUSH0 DUP4 ADD DUP5 PUSH2 0x3403 JUMP JUMPDEST SWAP3 SWAP2 POP POP JUMP JUMPDEST PUSH2 0x3434 DUP2 PUSH2 0x33F2 JUMP JUMPDEST DUP2 EQ PUSH2 0x343E JUMPI PUSH0 PUSH0 REVERT JUMPDEST POP JUMP JUMPDEST PUSH0 DUP2 CALLDATALOAD SWAP1 POP PUSH2 0x344F DUP2 PUSH2 0x342B JUMP JUMPDEST SWAP3 SWAP2 POP POP JUMP JUMPDEST PUSH0 PUSH0 PUSH1 0x40 DUP4 DUP6 SUB SLT ISZERO PUSH2 0x346B JUMPI PUSH2 0x346A PUSH2 0x322A JUMP JUMPDEST JUMPDEST PUSH0 PUSH2 0x3478 DUP6 DUP3 DUP7 ADD PUSH2 0x3441 JUMP JUMPDEST SWAP3 POP POP PUSH1 0x20 PUSH2 0x3489 DUP6 DUP3 DUP7 ADD PUSH2 0x3394 JUMP JUMPDEST SWAP2 POP POP SWAP3 POP SWAP3 SWAP1 POP JUMP JUMPDEST PUSH2 0x349C DUP2 PUSH2 0x3375 JUMP JUMPDEST DUP3 MSTORE POP POP JUMP JUMPDEST PUSH0 PUSH1 0x20 DUP3 ADD SWAP1 POP PUSH2 0x34B5 PUSH0 DUP4 ADD DUP5 PUSH2 0x3493 JUMP JUMPDEST SWAP3 SWAP2 POP POP JUMP JUMPDEST PUSH0 PUSH0 REVERT JUMPDEST PUSH0 PUSH0 REVERT JUMPDEST PUSH0 PUSH0 REVERT JUMPDEST PUSH0 PUSH0 DUP4 PUSH1 0x1F DUP5 ADD SLT PUSH2 0x34DC JUMPI PUSH2 0x34DB PUSH2 0x34BB JUMP JUMPDEST JUMPDEST DUP3 CALLDATALOAD SWAP1 POP PUSH8 0xFFFFFFFFFFFFFFFF DUP2 GT ISZERO PUSH2 0x34F9 JUMPI PUSH2 0x34F8 PUSH2 0x34BF JUMP JUMPDEST JUMPDEST PUSH1 0x20 DUP4 ADD SWAP2 POP DUP4 PUSH1 0x20 DUP3 MUL DUP4 ADD GT ISZERO PUSH2 0x3515 JUMPI PUSH2 0x3514 PUSH2 0x34C3 JUMP JUMPDEST JUMPDEST SWAP3 POP SWAP3 SWAP1 POP JUMP JUMPDEST PUSH0 PUSH0 PUSH0 PUSH1 0x40 DUP5 DUP7 SUB SLT ISZERO PUSH2 0x3533 JUMPI PUSH2 0x3532 PUSH2 0x322A JUMP JUMPDEST JUMPDEST PUSH0 PUSH2 0x3540 DUP7 DUP3 DUP8 ADD PUSH2 0x3394 JUMP JUMPDEST SWAP4 POP POP PUSH1 0x20 DUP5 ADD CALLDATALOAD PUSH8 0xFFFFFFFFFFFFFFFF DUP2 GT ISZERO PUSH2 0x3561 JUMPI PUSH2 0x3560 PUSH2 0x322E JUMP JUMPDEST JUMPDEST PUSH2 0x356D DUP7 DUP3 DUP8 ADD PUSH2 0x34C7 JUMP JUMPDEST SWAP3 POP SWAP3 POP POP SWAP3 POP SWAP3 POP SWAP3 JUMP JUMPDEST PUSH0 PUSH1 0xFF DUP3 AND SWAP1 POP SWAP2 SWAP1 POP JUMP JUMPDEST PUSH2 0x358E DUP2 PUSH2 0x3579 JUMP JUMPDEST DUP3 MSTORE POP POP JUMP JUMPDEST PUSH0 PUSH2 0xFFFF DUP3 AND SWAP1 POP SWAP2 SWAP1 POP JUMP JUMPDEST PUSH2 0x35AA DUP2 PUSH2 0x3594 JUMP JUMPDEST DUP3 MSTORE POP POP JUMP JUMPDEST PUSH0 PUSH1 0x40 DUP3 ADD SWAP1 POP PUSH2 0x35C3 PUSH0 DUP4 ADD DUP6 PUSH2 0x3585 JUMP JUMPDEST PUSH2 0x35D0 PUSH1 0x20 DUP4 ADD DUP5 PUSH2 0x35A1 JUMP JUMPDEST SWAP4 SWAP3 POP POP POP JUMP JUMPDEST PUSH0 PUSH0 PUSH0 PUSH1 0x60 DUP5 DUP7 SUB SLT ISZERO PUSH2 0x35EE JUMPI PUSH2 0x35ED PUSH2 0x322A JUMP JUMPDEST JUMPDEST PUSH0 PUSH2 0x35FB DUP7 DUP3 DUP8 ADD PUSH2 0x3441 JUMP JUMPDEST SWAP4 POP POP PUSH1 0x20 PUSH2 0x360C DUP7 DUP3 DUP8 ADD PUSH2 0x3441 JUMP JUMPDEST SWAP3 POP POP PUSH1 0x40 PUSH2 0x361D DUP7 DUP3 DUP8 ADD PUSH2 0x3394 JUMP JUMPDEST SWAP2 POP POP SWAP3 POP SWAP3 POP SWAP3 JUMP JUMPDEST PUSH0 PUSH4 0xFFFFFFFF DUP3 AND SWAP1 POP SWAP2 SWAP1 POP JUMP JUMPDEST PUSH2 0x363F DUP2 PUSH2 0x3627 JUMP JUMPDEST DUP3 MSTORE POP POP JUMP JUMPDEST PUSH0 PUSH1 0x20 DUP3 ADD SWAP1 POP PUSH2 0x3658 PUSH0 DUP4 ADD DUP5 PUSH2 0x3636 JUMP JUMPDEST SWAP3 SWAP2 POP POP JUMP JUMPDEST PUSH0 PUSH1 0x20 DUP3 DUP5 SUB SLT ISZERO PUSH2 0x3673 JUMPI PUSH2 0x3672 PUSH2 0x322A JUMP JUMPDEST JUMPDEST PUSH0 PUSH2 0x3680 DUP5 DUP3 DUP6 ADD PUSH2 0x3441 JUMP JUMPDEST SWAP2 POP POP SWAP3 SWAP2 POP POP JUMP JUMPDEST PUSH0 PUSH1 0x20 DUP3 ADD SWAP1 POP PUSH2 0x369C PUSH0 DUP4 ADD DUP5 PUSH2 0x3585 JUMP JUMPDEST SWAP3 SWAP2 POP POP JUMP JUMPDEST PUSH0 DUP2 SWAP1 POP SWAP2 SWAP1 POP JUMP JUMPDEST PUSH0 PUSH2 0x36C5 PUSH2 0x36C0 PUSH2 0x36BB DUP5 PUSH2 0x33D3 JUMP JUMPDEST PUSH2 0x36A2 JUMP JUMPDEST PUSH2 0x33D3 JUMP JUMPDEST SWAP1 POP SWAP2 SWAP1 POP JUMP JUMPDEST PUSH0 PUSH2 0x36D6 DUP3 PUSH2 0x36AB JUMP JUMPDEST SWAP1 POP SWAP2 SWAP1 POP JUMP JUMPDEST PUSH0 PUSH2 0x36E7 DUP3 PUSH2 0x36CC JUMP JUMPDEST SWAP1 POP SWAP2 SWAP1 POP JUMP JUMPDEST PUSH2 0x36F7 DUP2 PUSH2 0x36DD JUMP JUMPDEST DUP3 MSTORE POP POP JUMP JUMPDEST PUSH0 PUSH1 0x20 DUP3 ADD SWAP1 POP PUSH2 0x3710 PUSH0 DUP4 ADD DUP5 PUSH2 0x36EE JUMP JUMPDEST SWAP3 SWAP2 POP POP JUMP JUMPDEST PUSH2 0x371F DUP2 PUSH2 0x32B2 JUMP JUMPDEST DUP2 EQ PUSH2 0x3729 JUMPI PUSH0 PUSH0 REVERT JUMPDEST POP JUMP JUMPDEST PUSH0 DUP2 CALLDATALOAD SWAP1 POP PUSH2 0x373A DUP2 PUSH2 0x3716 JUMP JUMPDEST SWAP3 SWAP2 POP POP JUMP JUMPDEST PUSH0 PUSH0 PUSH1 0x40 DUP4 DUP6 SUB SLT ISZERO PUSH2 0x3756 JUMPI PUSH2 0x3755 PUSH2 0x322A JUMP JUMPDEST JUMPDEST PUSH0 PUSH2 0x3763 DUP6 DUP3 DUP7 ADD PUSH2 0x3441 JUMP JUMPDEST SWAP3 POP POP PUSH1 0x20 PUSH2 0x3774 DUP6 DUP3 DUP7 ADD PUSH2 0x372C JUMP JUMPDEST SWAP2 POP POP SWAP3 POP SWAP3 SWAP1 POP JUMP JUMPDEST PUSH0 PUSH1 0x20 DUP3 ADD SWAP1 POP PUSH2 0x3791 PUSH0 DUP4 ADD DUP5 PUSH2 0x35A1 JUMP JUMPDEST SWAP3 SWAP2 POP POP JUMP JUMPDEST PUSH0 PUSH0 REVERT JUMPDEST PUSH32 0x4E487B7100000000000000000000000000000000000000000000000000000000 PUSH0 MSTORE PUSH1 0x41 PUSH1 0x4 MSTORE PUSH1 0x24 PUSH0 REVERT JUMPDEST PUSH2 0x37D1 DUP3 PUSH2 0x330D JUMP JUMPDEST DUP2 ADD DUP2 DUP2 LT PUSH8 0xFFFFFFFFFFFFFFFF DUP3 GT OR ISZERO PUSH2 0x37F0 JUMPI PUSH2 0x37EF PUSH2 0x379B JUMP JUMPDEST JUMPDEST DUP1 PUSH1 0x40 MSTORE POP POP POP JUMP JUMPDEST PUSH0 PUSH2 0x3802 PUSH2 0x3221 JUMP JUMPDEST SWAP1 POP PUSH2 0x380E DUP3 DUP3 PUSH2 0x37C8 JUMP JUMPDEST SWAP2 SWAP1 POP JUMP JUMPDEST PUSH0 PUSH8 0xFFFFFFFFFFFFFFFF DUP3 GT ISZERO PUSH2 0x382D JUMPI PUSH2 0x382C PUSH2 0x379B JUMP JUMPDEST JUMPDEST PUSH2 0x3836 DUP3 PUSH2 0x330D JUMP JUMPDEST SWAP1 POP PUSH1 0x20 DUP2 ADD SWAP1 POP SWAP2 SWAP1 POP JUMP JUMPDEST DUP3 DUP2 DUP4 CALLDATACOPY PUSH0 DUP4 DUP4 ADD MSTORE POP POP POP JUMP JUMPDEST PUSH0 PUSH2 0x3863 PUSH2 0x385E DUP5 PUSH2 0x3813 JUMP JUMPDEST PUSH2 0x37F9 JUMP JUMPDEST SWAP1 POP DUP3 DUP2 MSTORE PUSH1 0x20 DUP2 ADD DUP5 DUP5 DUP5 ADD GT ISZERO PUSH2 0x387F JUMPI PUSH2 0x387E PUSH2 0x3797 JUMP JUMPDEST JUMPDEST PUSH2 0x388A DUP5 DUP3 DUP6 PUSH2 0x3843 JUMP JUMPDEST POP SWAP4 SWAP3 POP POP POP JUMP JUMPDEST PUSH0 DUP3 PUSH1 0x1F DUP4 ADD SLT PUSH2 0x38A6 JUMPI PUSH2 0x38A5 PUSH2 0x34BB JUMP JUMPDEST JUMPDEST DUP2 CALLDATALOAD PUSH2 0x38B6 DUP5 DUP3 PUSH1 0x20 DUP7 ADD PUSH2 0x3851 JUMP JUMPDEST SWAP2 POP POP SWAP3 SWAP2 POP POP JUMP JUMPDEST PUSH0 PUSH0 PUSH0 PUSH0 PUSH1 0x80 DUP6 DUP8 SUB SLT ISZERO PUSH2 0x38D7 JUMPI PUSH2 0x38D6 PUSH2 0x322A JUMP JUMPDEST JUMPDEST PUSH0 PUSH2 0x38E4 DUP8 DUP3 DUP9 ADD PUSH2 0x3441 JUMP JUMPDEST SWAP5 POP POP PUSH1 0x20 PUSH2 0x38F5 DUP8 DUP3 DUP9 ADD PUSH2 0x3441 JUMP JUMPDEST SWAP4 POP POP PUSH1 0x40 PUSH2 0x3906 DUP8 DUP3 DUP9 ADD PUSH2 0x3394 JUMP JUMPDEST SWAP3 POP POP PUSH1 0x60 DUP6 ADD CALLDATALOAD PUSH8 0xFFFFFFFFFFFFFFFF DUP2 GT ISZERO PUSH2 0x3927 JUMPI PUSH2 0x3926 PUSH2 0x322E JUMP JUMPDEST JUMPDEST PUSH2 0x3933 DUP8 DUP3 DUP9 ADD PUSH2 0x3892 JUMP JUMPDEST SWAP2 POP POP SWAP3 SWAP6 SWAP2 SWAP5 POP SWAP3 POP JUMP JUMPDEST PUSH0 PUSH2 0x3949 DUP3 PUSH2 0x36CC JUMP JUMPDEST SWAP1 POP SWAP2 SWAP1 POP JUMP JUMPDEST PUSH2 0x3959 DUP2 PUSH2 0x393F JUMP JUMPDEST DUP3 MSTORE POP POP JUMP JUMPDEST PUSH0 PUSH1 0x20 DUP3 ADD SWAP1 POP PUSH2 0x3972 PUSH0 DUP4 ADD DUP5 PUSH2 0x3950 JUMP JUMPDEST SWAP3 SWAP2 POP POP JUMP JUMPDEST PUSH0 PUSH0 PUSH1 0x40 DUP4 DUP6 SUB SLT ISZERO PUSH2 0x398E JUMPI PUSH2 0x398D PUSH2 0x322A JUMP JUMPDEST JUMPDEST PUSH0 PUSH2 0x399B DUP6 DUP3 DUP7 ADD PUSH2 0x3441 JUMP JUMPDEST SWAP3 POP POP PUSH1 0x20 PUSH2 0x39AC DUP6 DUP3 DUP7 ADD PUSH2 0x3441 JUMP JUMPDEST SWAP2 POP POP SWAP3 POP SWAP3 SWAP1 POP JUMP JUMPDEST PUSH32 0x4E487B7100000000000000000000000000000000000000000000000000000000 PUSH0 MSTORE PUSH1 0x22 PUSH1 0x4 MSTORE PUSH1 0x24 PUSH0 REVERT JUMPDEST PUSH0 PUSH1 0x2 DUP3 DIV SWAP1 POP PUSH1 0x1 DUP3 AND DUP1 PUSH2 0x39FA JUMPI PUSH1 0x7F DUP3 AND SWAP2 POP JUMPDEST PUSH1 0x20 DUP3 LT DUP2 SUB PUSH2 0x3A0D JUMPI PUSH2 0x3A0C PUSH2 0x39B6 JUMP JUMPDEST JUMPDEST POP SWAP2 SWAP1 POP JUMP JUMPDEST PUSH0 PUSH1 0x40 DUP3 ADD SWAP1 POP PUSH2 0x3A26 PUSH0 DUP4 ADD DUP6 PUSH2 0x3403 JUMP JUMPDEST PUSH2 0x3A33 PUSH1 0x20 DUP4 ADD DUP5 PUSH2 0x3403 JUMP JUMPDEST SWAP4 SWAP3 POP POP POP JUMP JUMPDEST PUSH0 PUSH1 0x60 DUP3 ADD SWAP1 POP PUSH2 0x3A4D PUSH0 DUP4 ADD DUP7 PUSH2 0x3403 JUMP JUMPDEST PUSH2 0x3A5A PUSH1 0x20 DUP4 ADD DUP6 PUSH2 0x3493 JUMP JUMPDEST PUSH2 0x3A67 PUSH1 0x40 DUP4 ADD DUP5 PUSH2 0x3403 JUMP JUMPDEST SWAP5 SWAP4 POP POP POP POP JUMP JUMPDEST PUSH0 PUSH1 0x40 DUP3 ADD SWAP1 POP PUSH2 0x3A82 PUSH0 DUP4 ADD DUP6 PUSH2 0x3403 JUMP JUMPDEST PUSH2 0x3A8F PUSH1 0x20 DUP4 ADD DUP5 PUSH2 0x3493 JUMP JUMPDEST SWAP4 SWAP3 POP POP POP JUMP JUMPDEST PUSH32 0x4E487B7100000000000000000000000000000000000000000000000000000000 PUSH0 MSTORE PUSH1 0x11 PUSH1 0x4 MSTORE PUSH1 0x24 PUSH0 REVERT JUMPDEST PUSH0 PUSH2 0x3ACD DUP3 PUSH2 0x3375 JUMP JUMPDEST SWAP2 POP PUSH32 0xFFFFFFFFFFFFFFFFFFFFFFFFFFFFFFFFFFFFFFFFFFFFFFFFFFFFFFFFFFFFFFFF DUP3 SUB PUSH2 0x3AFF JUMPI PUSH2 0x3AFE PUSH2 0x3A96 JUMP JUMPDEST JUMPDEST PUSH1 0x1 DUP3 ADD SWAP1 POP SWAP2 SWAP1 POP JUMP JUMPDEST PUSH32 0x4E487B7100000000000000000000000000000000000000000000000000000000 PUSH0 MSTORE PUSH1 0x32 PUSH1 0x4 MSTORE PUSH1 0x24 PUSH0 REVERT JUMPDEST PUSH32 0x4D7573742062652070726F706F736564206F776E657200000000000000000000 PUSH0 DUP3 ADD MSTORE POP JUMP JUMPDEST PUSH0 PUSH2 0x3B6B PUSH1 0x16 DUP4 PUSH2 0x32EF JUMP JUMPDEST SWAP2 POP PUSH2 0x3B76 DUP3 PUSH2 0x3B37 JUMP JUMPDEST PUSH1 0x20 DUP3 ADD SWAP1 POP SWAP2 SWAP1 POP JUMP JUMPDEST PUSH0 PUSH1 0x20 DUP3 ADD SWAP1 POP DUP2 DUP2 SUB PUSH0 DUP4 ADD MSTORE PUSH2 0x3B98 DUP2 PUSH2 0x3B5F JUMP JUMPDEST SWAP1 POP SWAP2 SWAP1 POP JUMP JUMPDEST PUSH0 PUSH1 0x60 DUP3 ADD SWAP1 POP PUSH2 0x3BB2 PUSH0 DUP4 ADD DUP7 PUSH2 0x3403 JUMP JUMPDEST PUSH2 0x3BBF PUSH1 0x20 DUP4 ADD DUP6 PUSH2 0x3403 JUMP JUMPDEST PUSH2 0x3BCC PUSH1 0x40 DUP4 ADD DUP5 PUSH2 0x3403 JUMP JUMPDEST SWAP5 SWAP4 POP POP POP POP JUMP JUMPDEST PUSH32 0x4E487B7100000000000000000000000000000000000000000000000000000000 PUSH0 MSTORE PUSH1 0x12 PUSH1 0x4 MSTORE PUSH1 0x24 PUSH0 REVERT JUMPDEST PUSH0 PUSH2 0x3C0B DUP3 PUSH2 0x3375 JUMP JUMPDEST SWAP2 POP PUSH2 0x3C16 DUP4 PUSH2 0x3375 JUMP JUMPDEST SWAP3 POP DUP3 PUSH2 0x3C26 JUMPI PUSH2 0x3C25 PUSH2 0x3BD4 JUMP JUMPDEST JUMPDEST DUP3 DUP3 MOD SWAP1 POP SWAP3 SWAP2 POP POP JUMP JUMPDEST PUSH0 PUSH2 0x3C3B DUP3 PUSH2 0x3375 JUMP JUMPDEST SWAP2 POP PUSH2 0x3C46 DUP4 PUSH2 0x3375 JUMP JUMPDEST SWAP3 POP DUP3 DUP3 ADD SWAP1 POP DUP1 DUP3 GT ISZERO PUSH2 0x3C5E JUMPI PUSH2 0x3C5D PUSH2 0x3A96 JUMP JUMPDEST JUMPDEST SWAP3 SWAP2 POP POP JUMP JUMPDEST PUSH0 PUSH2 0x3C6E DUP3 PUSH2 0x3579 JUMP JUMPDEST SWAP2 POP PUSH1 0xFF DUP3 SUB PUSH2 0x3C81 JUMPI PUSH2 0x3C80 PUSH2 0x3A96 JUMP JUMPDEST JUMPDEST PUSH1 0x1 DUP3 ADD SWAP1 POP SWAP2 SWAP1 POP JUMP JUMPDEST PUSH0 PUSH1 0x60 DUP3 ADD SWAP1 POP PUSH2 0x3C9F PUSH0 DUP4 ADD DUP7 PUSH2 0x3585 JUMP JUMPDEST PUSH2 0x3CAC PUSH1 0x20 DUP4 ADD DUP6 PUSH2 0x3493 JUMP JUMPDEST PUSH2 0x3CB9 PUSH1 0x40 DUP4 ADD DUP5 PUSH2 0x3403 JUMP JUMPDEST SWAP5 SWAP4 POP POP POP POP JUMP JUMPDEST PUSH0 DUP2 MLOAD SWAP1 POP PUSH2 0x3CCF DUP2 PUSH2 0x342B JUMP JUMPDEST SWAP3 SWAP2 POP POP JUMP JUMPDEST PUSH0 DUP2 MLOAD SWAP1 POP PUSH2 0x3CE3 DUP2 PUSH2 0x337E JUMP JUMPDEST SWAP3 SWAP2 POP POP JUMP JUMPDEST PUSH0 PUSH0 PUSH1 0x40 DUP4 DUP6 SUB SLT ISZERO PUSH2 0x3CFF JUMPI PUSH2 0x3CFE PUSH2 0x322A JUMP JUMPDEST JUMPDEST PUSH0 PUSH2 0x3D0C DUP6 DUP3 DUP7 ADD PUSH2 0x3CC1 JUMP JUMPDEST SWAP3 POP POP PUSH1 0x20 PUSH2 0x3D1D DUP6 DUP3 DUP7 ADD PUSH2 0x3CD5 JUMP JUMPDEST SWAP2 POP POP SWAP3 POP SWAP3 SWAP1 POP JUMP JUMPDEST PUSH0 PUSH1 0x80 DUP3 ADD SWAP1 POP PUSH2 0x3D3A PUSH0 DUP4 ADD DUP8 PUSH2 0x3403 JUMP JUMPDEST PUSH2 0x3D47 PUSH1 0x20 DUP4 ADD DUP7 PUSH2 0x3585 JUMP JUMPDEST PUSH2 0x3D54 PUSH1 0x40 DUP4 ADD DUP6 PUSH2 0x3403 JUMP JUMPDEST PUSH2 0x3D61 PUSH1 0x60 DUP4 ADD DUP5 PUSH2 0x3493 JUMP JUMPDEST SWAP6 SWAP5 POP POP POP POP POP JUMP JUMPDEST PUSH0 DUP2 SWAP1 POP SWAP3 SWAP2 POP POP JUMP JUMPDEST PUSH32 0x7B00000000000000000000000000000000000000000000000000000000000000 PUSH0 DUP3 ADD MSTORE POP JUMP JUMPDEST PUSH0 PUSH2 0x3DA8 PUSH1 0x1 DUP4 PUSH2 0x3D6A JUMP JUMPDEST SWAP2 POP PUSH2 0x3DB3 DUP3 PUSH2 0x3D74 JUMP JUMPDEST PUSH1 0x1 DUP3 ADD SWAP1 POP SWAP2 SWAP1 POP JUMP JUMPDEST PUSH32 0x226E616D65223A22000000000000000000000000000000000000000000000000 PUSH0 DUP3 ADD MSTORE POP JUMP JUMPDEST PUSH0 PUSH2 0x3DF2 PUSH1 0x8 DUP4 PUSH2 0x3D6A JUMP JUMPDEST SWAP2 POP PUSH2 0x3DFD DUP3 PUSH2 0x3DBE JUMP JUMPDEST PUSH1 0x8 DUP3 ADD SWAP1 POP SWAP2 SWAP1 POP JUMP JUMPDEST PUSH0 PUSH2 0x3E12 DUP3 PUSH2 0x32E5 JUMP JUMPDEST PUSH2 0x3E1C DUP2 DUP6 PUSH2 0x3D6A JUMP JUMPDEST SWAP4 POP PUSH2 0x3E2C DUP2 DUP6 PUSH1 0x20 DUP7 ADD PUSH2 0x32FF JUMP JUMPDEST DUP1 DUP5 ADD SWAP2 POP POP SWAP3 SWAP2 POP POP JUMP JUMPDEST PUSH32 0x222C000000000000000000000000000000000000000000000000000000000000 PUSH0 DUP3 ADD MSTORE POP JUMP JUMPDEST PUSH0 PUSH2 0x3E6C PUSH1 0x2 DUP4 PUSH2 0x3D6A JUMP JUMPDEST SWAP2 POP PUSH2 0x3E77 DUP3 PUSH2 0x3E38 JUMP JUMPDEST PUSH1 0x2 DUP3 ADD SWAP1 POP SWAP2 SWAP1 POP JUMP JUMPDEST PUSH32 0x226465736372697074696F6E223A220000000000000000000000000000000000 PUSH0 DUP3 ADD MSTORE POP JUMP JUMPDEST PUSH0 PUSH2 0x3EB6 PUSH1 0xF DUP4 PUSH2 0x3D6A JUMP JUMPDEST SWAP2 POP PUSH2 0x3EC1 DUP3 PUSH2 0x3E82 JUMP JUMPDEST PUSH1 0xF DUP3 ADD SWAP1 POP SWAP2 SWAP1 POP JUMP JUMPDEST PUSH32 0x22696D616765223A220000000000000000000000000000000000000000000000 PUSH0 DUP3 ADD MSTORE POP JUMP JUMPDEST PUSH0 PUSH2 0x3F00 PUSH1 0x9 DUP4 PUSH2 0x3D6A JUMP JUMPDEST SWAP2 POP PUSH2 0x3F0B DUP3 PUSH2 0x3ECC JUMP JUMPDEST PUSH1 0x9 DUP3 ADD SWAP1 POP SWAP2 SWAP1 POP JUMP JUMPDEST PUSH32 0x2200000000000000000000000000000000000000000000000000000000000000 PUSH0 DUP3 ADD MSTORE POP JUMP JUMPDEST PUSH0 PUSH2 0x3F4A PUSH1 0x1 DUP4 PUSH2 0x3D6A JUMP JUMPDEST SWAP2 POP PUSH2 0x3F55 DUP3 PUSH2 0x3F16 JUMP JUMPDEST PUSH1 0x1 DUP3 ADD SWAP1 POP SWAP2 SWAP1 POP JUMP JUMPDEST PUSH32 0x7D00000000000000000000000000000000000000000000000000000000000000 PUSH0 DUP3 ADD MSTORE POP JUMP JUMPDEST PUSH0 PUSH2 0x3F94 PUSH1 0x1 DUP4 PUSH2 0x3D6A JUMP JUMPDEST SWAP2 POP PUSH2 0x3F9F DUP3 PUSH2 0x3F60 JUMP JUMPDEST PUSH1 0x1 DUP3 ADD SWAP1 POP SWAP2 SWAP1 POP JUMP JUMPDEST PUSH0 PUSH2 0x3FB4 DUP3 PUSH2 0x3D9C JUMP JUMPDEST SWAP2 POP PUSH2 0x3FBF DUP3 PUSH2 0x3DE6 JUMP JUMPDEST SWAP2 POP PUSH2 0x3FCB DUP3 DUP7 PUSH2 0x3E08 JUMP JUMPDEST SWAP2 POP PUSH2 0x3FD6 DUP3 PUSH2 0x3E60 JUMP JUMPDEST SWAP2 POP PUSH2 0x3FE1 DUP3 PUSH2 0x3EAA JUMP JUMPDEST SWAP2 POP PUSH2 0x3FED DUP3 DUP6 PUSH2 0x3E08 JUMP JUMPDEST SWAP2 POP PUSH2 0x3FF8 DUP3 PUSH2 0x3E60 JUMP JUMPDEST SWAP2 POP PUSH2 0x4003 DUP3 PUSH2 0x3EF4 JUMP JUMPDEST SWAP2 POP PUSH2 0x400F DUP3 DUP5 PUSH2 0x3E08 JUMP JUMPDEST SWAP2 POP PUSH2 0x401A DUP3 PUSH2 0x3F3E JUMP JUMPDEST SWAP2 POP PUSH2 0x4025 DUP3 PUSH2 0x3F88 JUMP JUMPDEST SWAP2 POP DUP2 SWAP1 POP SWAP5 SWAP4 POP POP POP POP JUMP JUMPDEST PUSH32 0x646174613A6170706C69636174696F6E2F6A736F6E3B6261736536342C000000 PUSH0 DUP3 ADD MSTORE POP JUMP JUMPDEST PUSH0 PUSH2 0x4066 PUSH1 0x1D DUP4 PUSH2 0x3D6A JUMP JUMPDEST SWAP2 POP PUSH2 0x4071 DUP3 PUSH2 0x4032 JUMP JUMPDEST PUSH1 0x1D DUP3 ADD SWAP1 POP SWAP2 SWAP1 POP JUMP JUMPDEST PUSH0 PUSH2 0x4086 DUP3 PUSH2 0x405A JUMP JUMPDEST SWAP2 POP PUSH2 0x4092 DUP3 DUP5 PUSH2 0x3E08 JUMP JUMPDEST SWAP2 POP DUP2 SWAP1 POP SWAP3 SWAP2 POP POP JUMP JUMPDEST PUSH0 DUP2 SWAP1 POP SWAP2 SWAP1 POP JUMP JUMPDEST PUSH2 0x40AF DUP2 PUSH2 0x409D JUMP JUMPDEST DUP3 MSTORE POP POP JUMP JUMPDEST PUSH2 0x40BE DUP2 PUSH2 0x3375 JUMP JUMPDEST DUP3 MSTORE POP POP JUMP JUMPDEST PUSH2 0x40CD DUP2 PUSH2 0x3594 JUMP JUMPDEST DUP3 MSTORE POP POP JUMP JUMPDEST PUSH2 0x40DC DUP2 PUSH2 0x3627 JUMP JUMPDEST DUP3 MSTORE POP POP JUMP JUMPDEST PUSH0 DUP2 MLOAD SWAP1 POP SWAP2 SWAP1 POP JUMP JUMPDEST PUSH0 DUP3 DUP3 MSTORE PUSH1 0x20 DUP3 ADD SWAP1 POP SWAP3 SWAP2 POP POP JUMP JUMPDEST PUSH0 PUSH2 0x4106 DUP3 PUSH2 0x40E2 JUMP JUMPDEST PUSH2 0x4110 DUP2 DUP6 PUSH2 0x40EC JUMP JUMPDEST SWAP4 POP PUSH2 0x4120 DUP2 DUP6 PUSH1 0x20 DUP7 ADD PUSH2 0x32FF JUMP JUMPDEST PUSH2 0x4129 DUP2 PUSH2 0x330D JUMP JUMPDEST DUP5 ADD SWAP2 POP POP SWAP3 SWAP2 POP POP JUMP JUMPDEST PUSH0 PUSH1 0xC0 DUP4 ADD PUSH0 DUP4 ADD MLOAD PUSH2 0x4149 PUSH0 DUP7 ADD DUP3 PUSH2 0x40A6 JUMP JUMPDEST POP PUSH1 0x20 DUP4 ADD MLOAD PUSH2 0x415C PUSH1 0x20 DUP7 ADD DUP3 PUSH2 0x40B5 JUMP JUMPDEST POP PUSH1 0x40 DUP4 ADD MLOAD PUSH2 0x416F PUSH1 0x40 DUP7 ADD DUP3 PUSH2 0x40C4 JUMP JUMPDEST POP PUSH1 0x60 DUP4 ADD MLOAD PUSH2 0x4182 PUSH1 0x60 DUP7 ADD DUP3 PUSH2 0x40D3 JUMP JUMPDEST POP PUSH1 0x80 DUP4 ADD MLOAD PUSH2 0x4195 PUSH1 0x80 DUP7 ADD DUP3 PUSH2 0x40D3 JUMP JUMPDEST POP PUSH1 0xA0 DUP4 ADD MLOAD DUP5 DUP3 SUB PUSH1 0xA0 DUP7 ADD MSTORE PUSH2 0x41AD DUP3 DUP3 PUSH2 0x40FC JUMP JUMPDEST SWAP2 POP POP DUP1 SWAP2 POP POP SWAP3 SWAP2 POP POP JUMP JUMPDEST PUSH0 PUSH1 0x20 DUP3 ADD SWAP1 POP DUP2 DUP2 SUB PUSH0 DUP4 ADD MSTORE PUSH2 0x41D2 DUP2 DUP5 PUSH2 0x4134 JUMP JUMPDEST SWAP1 POP SWAP3 SWAP2 POP POP JUMP JUMPDEST PUSH0 PUSH1 0x20 DUP3 DUP5 SUB SLT ISZERO PUSH2 0x41EF JUMPI PUSH2 0x41EE PUSH2 0x322A JUMP JUMPDEST JUMPDEST PUSH0 PUSH2 0x41FC DUP5 DUP3 DUP6 ADD PUSH2 0x3CD5 JUMP JUMPDEST SWAP2 POP POP SWAP3 SWAP2 POP POP JUMP JUMPDEST PUSH32 0x4F6E6C792063616C6C61626C65206279206F776E657200000000000000000000 PUSH0 DUP3 ADD MSTORE POP JUMP JUMPDEST PUSH0 PUSH2 0x4239 PUSH1 0x16 DUP4 PUSH2 0x32EF JUMP JUMPDEST SWAP2 POP PUSH2 0x4244 DUP3 PUSH2 0x4205 JUMP JUMPDEST PUSH1 0x20 DUP3 ADD SWAP1 POP SWAP2 SWAP1 POP JUMP JUMPDEST PUSH0 PUSH1 0x20 DUP3 ADD SWAP1 POP DUP2 DUP2 SUB PUSH0 DUP4 ADD MSTORE PUSH2 0x4266 DUP2 PUSH2 0x422D JUMP JUMPDEST SWAP1 POP SWAP2 SWAP1 POP JUMP JUMPDEST PUSH0 DUP3 DUP3 MSTORE PUSH1 0x20 DUP3 ADD SWAP1 POP SWAP3 SWAP2 POP POP JUMP JUMPDEST PUSH0 PUSH2 0x4287 DUP3 PUSH2 0x40E2 JUMP JUMPDEST PUSH2 0x4291 DUP2 DUP6 PUSH2 0x426D JUMP JUMPDEST SWAP4 POP PUSH2 0x42A1 DUP2 DUP6 PUSH1 0x20 DUP7 ADD PUSH2 0x32FF JUMP JUMPDEST PUSH2 0x42AA DUP2 PUSH2 0x330D JUMP JUMPDEST DUP5 ADD SWAP2 POP POP SWAP3 SWAP2 POP POP JUMP JUMPDEST PUSH0 PUSH1 0x80 DUP3 ADD SWAP1 POP PUSH2 0x42C8 PUSH0 DUP4 ADD DUP8 PUSH2 0x3403 JUMP JUMPDEST PUSH2 0x42D5 PUSH1 0x20 DUP4 ADD DUP7 PUSH2 0x3403 JUMP JUMPDEST PUSH2 0x42E2 PUSH1 0x40 DUP4 ADD DUP6 PUSH2 0x3493 JUMP JUMPDEST DUP2 DUP2 SUB PUSH1 0x60 DUP4 ADD MSTORE PUSH2 0x42F4 DUP2 DUP5 PUSH2 0x427D JUMP JUMPDEST SWAP1 POP SWAP6 SWAP5 POP POP POP POP POP JUMP JUMPDEST PUSH0 DUP2 MLOAD SWAP1 POP PUSH2 0x430D DUP2 PUSH2 0x325D JUMP JUMPDEST SWAP3 SWAP2 POP POP JUMP JUMPDEST PUSH0 PUSH1 0x20 DUP3 DUP5 SUB SLT ISZERO PUSH2 0x4328 JUMPI PUSH2 0x4327 PUSH2 0x322A JUMP JUMPDEST JUMPDEST PUSH0 PUSH2 0x4335 DUP5 DUP3 DUP6 ADD PUSH2 0x42FF JUMP JUMPDEST SWAP2 POP POP SWAP3 SWAP2 POP POP JUMP JUMPDEST PUSH32 0x43616E6E6F74207472616E7366657220746F2073656C66000000000000000000 PUSH0 DUP3 ADD MSTORE POP JUMP JUMPDEST PUSH0 PUSH2 0x4372 PUSH1 0x17 DUP4 PUSH2 0x32EF JUMP JUMPDEST SWAP2 POP PUSH2 0x437D DUP3 PUSH2 0x433E JUMP JUMPDEST PUSH1 0x20 DUP3 ADD SWAP1 POP SWAP2 SWAP1 POP JUMP JUMPDEST PUSH0 PUSH1 0x20 DUP3 ADD SWAP1 POP DUP2 DUP2 SUB PUSH0 DUP4 ADD MSTORE PUSH2 0x439F DUP2 PUSH2 0x4366 JUMP JUMPDEST SWAP1 POP SWAP2 SWAP1 POP JUMP JUMPDEST PUSH0 PUSH2 0x43B0 DUP3 PUSH2 0x3375 JUMP JUMPDEST SWAP2 POP PUSH2 0x43BB DUP4 PUSH2 0x3375 JUMP JUMPDEST SWAP3 POP DUP3 DUP3 SUB SWAP1 POP DUP2 DUP2 GT ISZERO PUSH2 0x43D3 JUMPI PUSH2 0x43D2 PUSH2 0x3A96 JUMP JUMPDEST JUMPDEST SWAP3 SWAP2 POP POP JUMP JUMPDEST PUSH32 0x4E487B7100000000000000000000000000000000000000000000000000000000 PUSH0 MSTORE PUSH1 0x31 PUSH1 0x4 MSTORE PUSH1 0x24 PUSH0 REVERT JUMPDEST PUSH2 0x440F DUP2 PUSH2 0x32B2 JUMP JUMPDEST DUP3 MSTORE POP POP JUMP JUMPDEST PUSH1 0x20 DUP3 ADD PUSH0 DUP3 ADD MLOAD PUSH2 0x4429 PUSH0 DUP6 ADD DUP3 PUSH2 0x4406 JUMP JUMPDEST POP POP POP POP JUMP JUMPDEST PUSH0 PUSH1 0x20 DUP3 ADD SWAP1 POP PUSH2 0x4442 PUSH0 DUP4 ADD DUP5 PUSH2 0x4415 JUMP JUMPDEST SWAP3 SWAP2 POP POP JUMP JUMPDEST PUSH0 PUSH2 0x4452 DUP3 PUSH2 0x3375 JUMP JUMPDEST SWAP2 POP PUSH2 0x445D DUP4 PUSH2 0x3375 JUMP JUMPDEST SWAP3 POP DUP3 PUSH2 0x446D JUMPI PUSH2 0x446C PUSH2 0x3BD4 JUMP JUMPDEST JUMPDEST DUP3 DUP3 DIV SWAP1 POP SWAP3 SWAP2 POP POP JUMP JUMPDEST PUSH0 PUSH2 0x4482 DUP3 PUSH2 0x3375 JUMP JUMPDEST SWAP2 POP PUSH2 0x448D DUP4 PUSH2 0x3375 JUMP JUMPDEST SWAP3 POP DUP3 DUP3 MUL PUSH2 0x449B DUP2 PUSH2 0x3375 JUMP JUMPDEST SWAP2 POP DUP3 DUP3 DIV DUP5 EQ DUP4 ISZERO OR PUSH2 0x44B2 JUMPI PUSH2 0x44B1 PUSH2 0x3A96 JUMP JUMPDEST JUMPDEST POP SWAP3 SWAP2 POP POP JUMP INVALID PUSH9 0x747470733A2F2F6761 PUSH21 0x657761792E70696E6174612E636C6F75642F697066 PUSH20 0x2F6261666B72656968707A7A7732356268707267 PUSH15 0x646F776E726636773779336F667762 PUSH17 0x6A7A6F66677274657A3377767471776965 CALLDATACOPY ORIGIN PUSH11 0x697571A264697066735822 SLT KECCAK256 SWAP6 CALLER PUSH25 0xE3E0CF4B95925E66736F736EA928BD434844F13736E599A88E PUSH13 0x88838064736F6C634300081E00 CALLER "
		},
		"gasEstimates": {
			"creation": {
				"codeDepositCost": "3548000",
				"executionCost": "infinite",
				"totalCost": "infinite"
			},
			"external": {
				"BASE()": "419",
				"METADATA_DESCRIPTION()": "infinite",
				"METADATA_IMAGE()": "infinite",
				"METADATA_NAME()": "infinite",
				"acceptOwnership()": "54644",
				"approve(address,uint256)": "infinite",
				"balanceOf(address)": "infinite",
				"boxIdToRequestId(uint256)": "infinite",
				"boxPrice()": "2558",
				"boxTotalSupply()": "2515",
				"buyBox()": "infinite",
				"callbackGasLimit()": "2600",
				"getApproved(uint256)": "infinite",
				"isApprovedForAll(address,address)": "infinite",
				"name()": "infinite",
				"numWords()": "2585",
				"openBox(uint256)": "infinite",
				"owner()": "2649",
				"ownerOf(uint256)": "infinite",
				"poolManager()": "infinite",
				"rarity(uint256)": "2897",
				"rarityPool(uint256)": "7317",
				"ravealed(uint256)": "2831",
				"rawFulfillRandomWords(uint256,uint256[])": "infinite",
				"requestConfirmations()": "2562",
				"requestIdToBoxId(uint256)": "infinite",
				"s_vrfCoordinator()": "infinite",
				"safeTransferFrom(address,address,uint256)": "infinite",
				"safeTransferFrom(address,address,uint256,bytes)": "infinite",
				"setApprovalForAll(address,bool)": "infinite",
				"setCoordinator(address)": "infinite",
				"setPoolManager(address)": "27075",
				"supportsInterface(bytes4)": "898",
				"symbol()": "infinite",
				"tokenByIndex(uint256)": "infinite",
				"tokenOfOwnerByIndex(address,uint256)": "infinite",
				"tokenURI(uint256)": "infinite",
				"totalSupply()": "2575",
				"transferFrom(address,address,uint256)": "infinite",
				"transferOwnership(address)": "30761"
			},
			"internal": {
				"_destroy(uint256)": "infinite",
				"_requestRandomWords()": "infinite",
				"fulfillRandomWords(uint256,uint256[] calldata)": "24446"
			}
		},
		"methodIdentifiers": {
			"BASE()": "ec342ad0",
			"METADATA_DESCRIPTION()": "41d7bdcb",
			"METADATA_IMAGE()": "fb449334",
			"METADATA_NAME()": "7c637ed6",
			"acceptOwnership()": "79ba5097",
			"approve(address,uint256)": "095ea7b3",
			"balanceOf(address)": "70a08231",
			"boxIdToRequestId(uint256)": "532dc094",
			"boxPrice()": "a6482858",
			"boxTotalSupply()": "88f4ae12",
			"buyBox()": "479507bb",
			"callbackGasLimit()": "24f74697",
			"getApproved(uint256)": "081812fc",
			"isApprovedForAll(address,address)": "e985e9c5",
			"name()": "06fdde03",
			"numWords()": "7ccfd7fc",
			"openBox(uint256)": "b1e5e2b7",
			"owner()": "8da5cb5b",
			"ownerOf(uint256)": "6352211e",
			"poolManager()": "dc4c90d3",
			"rarity(uint256)": "8b58c569",
			"rarityPool(uint256)": "21b571ea",
			"ravealed(uint256)": "18eac49c",
			"rawFulfillRandomWords(uint256,uint256[])": "1fe543e3",
			"requestConfirmations()": "b0fb162f",
			"requestIdToBoxId(uint256)": "da9f2fab",
			"s_vrfCoordinator()": "9eccacf6",
			"safeTransferFrom(address,address,uint256)": "42842e0e",
			"safeTransferFrom(address,address,uint256,bytes)": "b88d4fde",
			"setApprovalForAll(address,bool)": "a22cb465",
			"setCoordinator(address)": "8ea98117",
			"setPoolManager(address)": "7aef6715",
			"supportsInterface(bytes4)": "01ffc9a7",
			"symbol()": "95d89b41",
			"tokenByIndex(uint256)": "4f6ccce7",
			"tokenOfOwnerByIndex(address,uint256)": "2f745c59",
			"tokenURI(uint256)": "c87b56dd",
			"totalSupply()": "18160ddd",
			"transferFrom(address,address,uint256)": "23b872dd",
			"transferOwnership(address)": "f2fde38b"
		}
	},
	"abi": [
		{
			"inputs": [
				{
					"internalType": "uint256",
					"name": "_subscriptionId",
					"type": "uint256"
				},
				{
					"internalType": "address",
					"name": "_poolAddress",
					"type": "address"
				}
			],
			"stateMutability": "nonpayable",
			"type": "constructor"
		},
		{
			"inputs": [],
			"name": "BoxRevealed",
			"type": "error"
		},
		{
			"inputs": [],
			"name": "ERC721EnumerableForbiddenBatchMint",
			"type": "error"
		},
		{
			"inputs": [
				{
					"internalType": "address",
					"name": "sender",
					"type": "address"
				},
				{
					"internalType": "uint256",
					"name": "tokenId",
					"type": "uint256"
				},
				{
					"internalType": "address",
					"name": "owner",
					"type": "address"
				}
			],
			"name": "ERC721IncorrectOwner",
			"type": "error"
		},
		{
			"inputs": [
				{
					"internalType": "address",
					"name": "operator",
					"type": "address"
				},
				{
					"internalType": "uint256",
					"name": "tokenId",
					"type": "uint256"
				}
			],
			"name": "ERC721InsufficientApproval",
			"type": "error"
		},
		{
			"inputs": [
				{
					"internalType": "address",
					"name": "approver",
					"type": "address"
				}
			],
			"name": "ERC721InvalidApprover",
			"type": "error"
		},
		{
			"inputs": [
				{
					"internalType": "address",
					"name": "operator",
					"type": "address"
				}
			],
			"name": "ERC721InvalidOperator",
			"type": "error"
		},
		{
			"inputs": [
				{
					"internalType": "address",
					"name": "owner",
					"type": "address"
				}
			],
			"name": "ERC721InvalidOwner",
			"type": "error"
		},
		{
			"inputs": [
				{
					"internalType": "address",
					"name": "receiver",
					"type": "address"
				}
			],
			"name": "ERC721InvalidReceiver",
			"type": "error"
		},
		{
			"inputs": [
				{
					"internalType": "address",
					"name": "sender",
					"type": "address"
				}
			],
			"name": "ERC721InvalidSender",
			"type": "error"
		},
		{
			"inputs": [
				{
					"internalType": "uint256",
					"name": "tokenId",
					"type": "uint256"
				}
			],
			"name": "ERC721NonexistentToken",
			"type": "error"
		},
		{
			"inputs": [
				{
					"internalType": "address",
					"name": "owner",
					"type": "address"
				},
				{
					"internalType": "uint256",
					"name": "index",
					"type": "uint256"
				}
			],
			"name": "ERC721OutOfBoundsIndex",
			"type": "error"
		},
		{
			"inputs": [],
			"name": "NotEnoughETH",
			"type": "error"
		},
		{
			"inputs": [],
			"name": "NotOwner",
			"type": "error"
		},
		{
			"inputs": [
				{
					"internalType": "address",
					"name": "have",
					"type": "address"
				},
				{
					"internalType": "address",
					"name": "want",
					"type": "address"
				}
			],
			"name": "OnlyCoordinatorCanFulfill",
			"type": "error"
		},
		{
			"inputs": [
				{
					"internalType": "address",
					"name": "have",
					"type": "address"
				},
				{
					"internalType": "address",
					"name": "owner",
					"type": "address"
				},
				{
					"internalType": "address",
					"name": "coordinator",
					"type": "address"
				}
			],
			"name": "OnlyOwnerOrCoordinator",
			"type": "error"
		},
		{
			"inputs": [],
			"name": "ReentrancyGuardReentrantCall",
			"type": "error"
		},
		{
			"inputs": [],
			"name": "ZeroAddress",
			"type": "error"
		},
		{
			"inputs": [],
			"name": "errorPoolManagerAddr",
			"type": "error"
		},
		{
			"anonymous": false,
			"inputs": [
				{
					"indexed": true,
					"internalType": "address",
					"name": "owner",
					"type": "address"
				},
				{
					"indexed": true,
					"internalType": "address",
					"name": "approved",
					"type": "address"
				},
				{
					"indexed": true,
					"internalType": "uint256",
					"name": "tokenId",
					"type": "uint256"
				}
			],
			"name": "Approval",
			"type": "event"
		},
		{
			"anonymous": false,
			"inputs": [
				{
					"indexed": true,
					"internalType": "address",
					"name": "owner",
					"type": "address"
				},
				{
					"indexed": true,
					"internalType": "address",
					"name": "operator",
					"type": "address"
				},
				{
					"indexed": false,
					"internalType": "bool",
					"name": "approved",
					"type": "bool"
				}
			],
			"name": "ApprovalForAll",
			"type": "event"
		},
		{
			"anonymous": false,
			"inputs": [
				{
					"indexed": false,
					"internalType": "address",
					"name": "vrfCoordinator",
					"type": "address"
				}
			],
			"name": "CoordinatorSet",
			"type": "event"
		},
		{
			"anonymous": false,
			"inputs": [
				{
					"indexed": false,
					"internalType": "uint256",
					"name": "tokenId",
					"type": "uint256"
				}
			],
			"name": "Destroy",
			"type": "event"
		},
		{
			"anonymous": false,
			"inputs": [
				{
					"indexed": false,
					"internalType": "address",
					"name": "opener",
					"type": "address"
				},
				{
					"indexed": false,
					"internalType": "uint8",
					"name": "pickedClass",
					"type": "uint8"
				},
				{
					"indexed": false,
					"internalType": "address",
					"name": "prizeAddress",
					"type": "address"
				},
				{
					"indexed": false,
					"internalType": "uint256",
					"name": "prizeId",
					"type": "uint256"
				}
			],
			"name": "OpenBox",
			"type": "event"
		},
		{
			"anonymous": false,
			"inputs": [
				{
					"indexed": true,
					"internalType": "address",
					"name": "from",
					"type": "address"
				},
				{
					"indexed": true,
					"internalType": "address",
					"name": "to",
					"type": "address"
				}
			],
			"name": "OwnershipTransferRequested",
			"type": "event"
		},
		{
			"anonymous": false,
			"inputs": [
				{
					"indexed": true,
					"internalType": "address",
					"name": "from",
					"type": "address"
				},
				{
					"indexed": true,
					"internalType": "address",
					"name": "to",
					"type": "address"
				}
			],
			"name": "OwnershipTransferred",
			"type": "event"
		},
		{
			"anonymous": false,
			"inputs": [
				{
					"indexed": false,
					"internalType": "uint256",
					"name": "requestId",
					"type": "uint256"
				},
				{
					"indexed": true,
					"internalType": "address",
					"name": "user",
					"type": "address"
				}
			],
			"name": "RandomsRequest",
			"type": "event"
		},
		{
			"anonymous": false,
			"inputs": [
				{
					"indexed": true,
					"internalType": "address",
					"name": "from",
					"type": "address"
				},
				{
					"indexed": true,
					"internalType": "address",
					"name": "to",
					"type": "address"
				},
				{
					"indexed": true,
					"internalType": "uint256",
					"name": "tokenId",
					"type": "uint256"
				}
			],
			"name": "Transfer",
			"type": "event"
		},
		{
			"inputs": [],
			"name": "BASE",
			"outputs": [
				{
					"internalType": "uint16",
					"name": "",
					"type": "uint16"
				}
			],
			"stateMutability": "view",
			"type": "function"
		},
		{
			"inputs": [],
			"name": "METADATA_DESCRIPTION",
			"outputs": [
				{
					"internalType": "string",
					"name": "",
					"type": "string"
				}
			],
			"stateMutability": "view",
			"type": "function"
		},
		{
			"inputs": [],
			"name": "METADATA_IMAGE",
			"outputs": [
				{
					"internalType": "string",
					"name": "",
					"type": "string"
				}
			],
			"stateMutability": "view",
			"type": "function"
		},
		{
			"inputs": [],
			"name": "METADATA_NAME",
			"outputs": [
				{
					"internalType": "string",
					"name": "",
					"type": "string"
				}
			],
			"stateMutability": "view",
			"type": "function"
		},
		{
			"inputs": [],
			"name": "acceptOwnership",
			"outputs": [],
			"stateMutability": "nonpayable",
			"type": "function"
		},
		{
			"inputs": [
				{
					"internalType": "address",
					"name": "to",
					"type": "address"
				},
				{
					"internalType": "uint256",
					"name": "tokenId",
					"type": "uint256"
				}
			],
			"name": "approve",
			"outputs": [],
			"stateMutability": "nonpayable",
			"type": "function"
		},
		{
			"inputs": [
				{
					"internalType": "address",
					"name": "owner",
					"type": "address"
				}
			],
			"name": "balanceOf",
			"outputs": [
				{
					"internalType": "uint256",
					"name": "",
					"type": "uint256"
				}
			],
			"stateMutability": "view",
			"type": "function"
		},
		{
			"inputs": [
				{
					"internalType": "uint256",
					"name": "",
					"type": "uint256"
				}
			],
			"name": "boxIdToRequestId",
			"outputs": [
				{
					"internalType": "uint256",
					"name": "",
					"type": "uint256"
				}
			],
			"stateMutability": "view",
			"type": "function"
		},
		{
			"inputs": [],
			"name": "boxPrice",
			"outputs": [
				{
					"internalType": "uint256",
					"name": "",
					"type": "uint256"
				}
			],
			"stateMutability": "view",
			"type": "function"
		},
		{
			"inputs": [],
			"name": "boxTotalSupply",
			"outputs": [
				{
					"internalType": "uint256",
					"name": "",
					"type": "uint256"
				}
			],
			"stateMutability": "view",
			"type": "function"
		},
		{
			"inputs": [],
			"name": "buyBox",
			"outputs": [],
			"stateMutability": "payable",
			"type": "function"
		},
		{
			"inputs": [],
			"name": "callbackGasLimit",
			"outputs": [
				{
					"internalType": "uint32",
					"name": "",
					"type": "uint32"
				}
			],
			"stateMutability": "view",
			"type": "function"
		},
		{
			"inputs": [
				{
					"internalType": "uint256",
					"name": "tokenId",
					"type": "uint256"
				}
			],
			"name": "getApproved",
			"outputs": [
				{
					"internalType": "address",
					"name": "",
					"type": "address"
				}
			],
			"stateMutability": "view",
			"type": "function"
		},
		{
			"inputs": [
				{
					"internalType": "address",
					"name": "owner",
					"type": "address"
				},
				{
					"internalType": "address",
					"name": "operator",
					"type": "address"
				}
			],
			"name": "isApprovedForAll",
			"outputs": [
				{
					"internalType": "bool",
					"name": "",
					"type": "bool"
				}
			],
			"stateMutability": "view",
			"type": "function"
		},
		{
			"inputs": [],
			"name": "name",
			"outputs": [
				{
					"internalType": "string",
					"name": "",
					"type": "string"
				}
			],
			"stateMutability": "view",
			"type": "function"
		},
		{
			"inputs": [],
			"name": "numWords",
			"outputs": [
				{
					"internalType": "uint32",
					"name": "",
					"type": "uint32"
				}
			],
			"stateMutability": "view",
			"type": "function"
		},
		{
			"inputs": [
				{
					"internalType": "uint256",
					"name": "tokenId",
					"type": "uint256"
				}
			],
			"name": "openBox",
			"outputs": [],
			"stateMutability": "nonpayable",
			"type": "function"
		},
		{
			"inputs": [],
			"name": "owner",
			"outputs": [
				{
					"internalType": "address",
					"name": "",
					"type": "address"
				}
			],
			"stateMutability": "view",
			"type": "function"
		},
		{
			"inputs": [
				{
					"internalType": "uint256",
					"name": "tokenId",
					"type": "uint256"
				}
			],
			"name": "ownerOf",
			"outputs": [
				{
					"internalType": "address",
					"name": "",
					"type": "address"
				}
			],
			"stateMutability": "view",
			"type": "function"
		},
		{
			"inputs": [],
			"name": "poolManager",
			"outputs": [
				{
					"internalType": "contract INFTPoolManager",
					"name": "",
					"type": "address"
				}
			],
			"stateMutability": "view",
			"type": "function"
		},
		{
			"inputs": [
				{
					"internalType": "uint256",
					"name": "",
					"type": "uint256"
				}
			],
			"name": "rarity",
			"outputs": [
				{
					"internalType": "uint8",
					"name": "",
					"type": "uint8"
				}
			],
			"stateMutability": "view",
			"type": "function"
		},
		{
			"inputs": [
				{
					"internalType": "uint256",
					"name": "",
					"type": "uint256"
				}
			],
			"name": "rarityPool",
			"outputs": [
				{
					"internalType": "uint8",
					"name": "rarityType",
					"type": "uint8"
				},
				{
					"internalType": "uint16",
					"name": "probability",
					"type": "uint16"
				}
			],
			"stateMutability": "view",
			"type": "function"
		},
		{
			"inputs": [
				{
					"internalType": "uint256",
					"name": "",
					"type": "uint256"
				}
			],
			"name": "ravealed",
			"outputs": [
				{
					"internalType": "bool",
					"name": "",
					"type": "bool"
				}
			],
			"stateMutability": "view",
			"type": "function"
		},
		{
			"inputs": [
				{
					"internalType": "uint256",
					"name": "requestId",
					"type": "uint256"
				},
				{
					"internalType": "uint256[]",
					"name": "randomWords",
					"type": "uint256[]"
				}
			],
			"name": "rawFulfillRandomWords",
			"outputs": [],
			"stateMutability": "nonpayable",
			"type": "function"
		},
		{
			"inputs": [],
			"name": "requestConfirmations",
			"outputs": [
				{
					"internalType": "uint16",
					"name": "",
					"type": "uint16"
				}
			],
			"stateMutability": "view",
			"type": "function"
		},
		{
			"inputs": [
				{
					"internalType": "uint256",
					"name": "",
					"type": "uint256"
				}
			],
			"name": "requestIdToBoxId",
			"outputs": [
				{
					"internalType": "uint256",
					"name": "",
					"type": "uint256"
				}
			],
			"stateMutability": "view",
			"type": "function"
		},
		{
			"inputs": [],
			"name": "s_vrfCoordinator",
			"outputs": [
				{
					"internalType": "contract IVRFCoordinatorV2Plus",
					"name": "",
					"type": "address"
				}
			],
			"stateMutability": "view",
			"type": "function"
		},
		{
			"inputs": [
				{
					"internalType": "address",
					"name": "from",
					"type": "address"
				},
				{
					"internalType": "address",
					"name": "to",
					"type": "address"
				},
				{
					"internalType": "uint256",
					"name": "tokenId",
					"type": "uint256"
				}
			],
			"name": "safeTransferFrom",
			"outputs": [],
			"stateMutability": "nonpayable",
			"type": "function"
		},
		{
			"inputs": [
				{
					"internalType": "address",
					"name": "from",
					"type": "address"
				},
				{
					"internalType": "address",
					"name": "to",
					"type": "address"
				},
				{
					"internalType": "uint256",
					"name": "tokenId",
					"type": "uint256"
				},
				{
					"internalType": "bytes",
					"name": "data",
					"type": "bytes"
				}
			],
			"name": "safeTransferFrom",
			"outputs": [],
			"stateMutability": "nonpayable",
			"type": "function"
		},
		{
			"inputs": [
				{
					"internalType": "address",
					"name": "operator",
					"type": "address"
				},
				{
					"internalType": "bool",
					"name": "approved",
					"type": "bool"
				}
			],
			"name": "setApprovalForAll",
			"outputs": [],
			"stateMutability": "nonpayable",
			"type": "function"
		},
		{
			"inputs": [
				{
					"internalType": "address",
					"name": "_vrfCoordinator",
					"type": "address"
				}
			],
			"name": "setCoordinator",
			"outputs": [],
			"stateMutability": "nonpayable",
			"type": "function"
		},
		{
			"inputs": [
				{
					"internalType": "address",
					"name": "_poolManager",
					"type": "address"
				}
			],
			"name": "setPoolManager",
			"outputs": [],
			"stateMutability": "nonpayable",
			"type": "function"
		},
		{
			"inputs": [
				{
					"internalType": "bytes4",
					"name": "interfaceId",
					"type": "bytes4"
				}
			],
			"name": "supportsInterface",
			"outputs": [
				{
					"internalType": "bool",
					"name": "",
					"type": "bool"
				}
			],
			"stateMutability": "view",
			"type": "function"
		},
		{
			"inputs": [],
			"name": "symbol",
			"outputs": [
				{
					"internalType": "string",
					"name": "",
					"type": "string"
				}
			],
			"stateMutability": "view",
			"type": "function"
		},
		{
			"inputs": [
				{
					"internalType": "uint256",
					"name": "index",
					"type": "uint256"
				}
			],
			"name": "tokenByIndex",
			"outputs": [
				{
					"internalType": "uint256",
					"name": "",
					"type": "uint256"
				}
			],
			"stateMutability": "view",
			"type": "function"
		},
		{
			"inputs": [
				{
					"internalType": "address",
					"name": "owner",
					"type": "address"
				},
				{
					"internalType": "uint256",
					"name": "index",
					"type": "uint256"
				}
			],
			"name": "tokenOfOwnerByIndex",
			"outputs": [
				{
					"internalType": "uint256",
					"name": "",
					"type": "uint256"
				}
			],
			"stateMutability": "view",
			"type": "function"
		},
		{
			"inputs": [
				{
					"internalType": "uint256",
					"name": "tokenId",
					"type": "uint256"
				}
			],
			"name": "tokenURI",
			"outputs": [
				{
					"internalType": "string",
					"name": "",
					"type": "string"
				}
			],
			"stateMutability": "view",
			"type": "function"
		},
		{
			"inputs": [],
			"name": "totalSupply",
			"outputs": [
				{
					"internalType": "uint256",
					"name": "",
					"type": "uint256"
				}
			],
			"stateMutability": "view",
			"type": "function"
		},
		{
			"inputs": [
				{
					"internalType": "address",
					"name": "from",
					"type": "address"
				},
				{
					"internalType": "address",
					"name": "to",
					"type": "address"
				},
				{
					"internalType": "uint256",
					"name": "tokenId",
					"type": "uint256"
				}
			],
			"name": "transferFrom",
			"outputs": [],
			"stateMutability": "nonpayable",
			"type": "function"
		},
		{
			"inputs": [
				{
					"internalType": "address",
					"name": "to",
					"type": "address"
				}
			],
			"name": "transferOwnership",
			"outputs": [],
			"stateMutability": "nonpayable",
			"type": "function"
		}
	]
}